{
  "address": "0x51a0c1AaD11651E107CAC6D28FE43e1C1a97367B",
  "abi": [
    {
      "anonymous": false,
      "inputs": [
        {
          "indexed": false,
          "internalType": "uint256",
          "name": "tokenId",
          "type": "uint256"
        },
        {
          "indexed": false,
          "internalType": "uint32",
          "name": "id",
          "type": "uint32"
        },
        {
          "indexed": false,
          "internalType": "uint32",
          "name": "quantity",
          "type": "uint32"
        }
      ],
      "name": "BuiltUnits",
      "type": "event"
    },
    {
      "inputs": [
        {
          "internalType": "uint256",
          "name": "_tokenId",
          "type": "uint256"
        },
        {
          "internalType": "uint32",
          "name": "_id",
          "type": "uint32"
        },
        {
          "internalType": "uint32",
          "name": "_quantity",
          "type": "uint32"
        },
        {
          "internalType": "uint256[]",
          "name": "_resourceIds",
          "type": "uint256[]"
        },
        {
          "internalType": "uint256[]",
          "name": "_resourceValues",
          "type": "uint256[]"
        }
      ],
      "name": "buildDefenceArmy",
      "outputs": [],
      "stateMutability": "payable",
      "type": "function"
    },
    {
      "inputs": [
        {
          "internalType": "uint256",
          "name": "_tokenId",
          "type": "uint256"
        },
        {
          "internalType": "uint32",
          "name": "_id",
          "type": "uint32"
        },
        {
          "internalType": "uint32",
          "name": "_quantity",
          "type": "uint32"
        },
        {
          "internalType": "uint256[]",
          "name": "_resourceIds",
          "type": "uint256[]"
        },
        {
          "internalType": "uint256[]",
          "name": "_resourceValues",
          "type": "uint256[]"
        }
      ],
      "name": "buildRaidingArmy",
      "outputs": [],
      "stateMutability": "payable",
      "type": "function"
    },
    {
      "inputs": [
        {
          "internalType": "uint256",
          "name": "_tokenId",
          "type": "uint256"
        }
      ],
      "name": "getDefensiveArmy",
      "outputs": [
        {
          "internalType": "uint256",
          "name": "",
          "type": "uint256"
        },
        {
          "internalType": "uint256",
          "name": "",
          "type": "uint256"
        },
        {
          "internalType": "uint256",
          "name": "",
          "type": "uint256"
        },
        {
          "internalType": "uint256",
          "name": "",
          "type": "uint256"
        }
      ],
      "stateMutability": "view",
      "type": "function"
    },
    {
      "inputs": [
        {
          "internalType": "uint256",
          "name": "_tokenId",
          "type": "uint256"
        }
      ],
      "name": "getRaidingArmy",
      "outputs": [
        {
          "internalType": "uint256",
          "name": "",
          "type": "uint256"
        },
        {
          "internalType": "uint256",
          "name": "",
          "type": "uint256"
        },
        {
          "internalType": "uint256",
          "name": "",
          "type": "uint256"
        },
        {
          "internalType": "uint256",
          "name": "",
          "type": "uint256"
        },
        {
          "internalType": "uint256",
          "name": "",
          "type": "uint256"
        },
        {
          "internalType": "uint256",
          "name": "",
          "type": "uint256"
        },
        {
          "internalType": "uint256",
          "name": "",
          "type": "uint256"
        },
        {
          "internalType": "uint256",
          "name": "",
          "type": "uint256"
        }
      ],
      "stateMutability": "view",
      "type": "function"
    },
    {
      "inputs": [
        {
          "internalType": "uint256",
          "name": "_unitId",
          "type": "uint256"
        }
      ],
      "name": "getUnitCost",
      "outputs": [
        {
          "internalType": "uint256[]",
          "name": "",
          "type": "uint256[]"
        },
        {
          "internalType": "uint256[]",
          "name": "",
          "type": "uint256[]"
        }
      ],
      "stateMutability": "view",
      "type": "function"
    }
  ],
  "transactionHash": "0x862a6072c2545b16f7f52dfe1e152fbd02cde9ef687f1912ceb196e2e3afad94",
  "args": [],
  "solcInputHash": "699e32f8cda4da9a3cbda3693f269e19",
  "bytecode": "0x608060405234801561001057600080fd5b506124a4806100206000396000f3fe60806040526004361061004a5760003560e01c80634fd062621461004f578063b7283f411461008f578063c19cfd6b146100cd578063cca32e8314610111578063df04ae0c1461012d575b600080fd5b34801561005b57600080fd5b5061007660048036038101906100719190611ac0565b610149565b6040516100869493929190611e6b565b60405180910390f35b34801561009b57600080fd5b506100b660048036038101906100b19190611ac0565b610258565b6040516100c4929190611d59565b60405180910390f35b3480156100d957600080fd5b506100f460048036038101906100ef9190611ac0565b61042b565b604051610108989796959493929190611eb0565b60405180910390f35b61012b60048036038101906101269190611ae9565b610646565b005b61014760048036038101906101429190611ae9565b610fb5565b005b600080600080600080601001600087815260200190815260200160002090508060000160049054906101000a900463ffffffff168160000160009054906101000a900463ffffffff1661019c919061215c565b8160010160008360000160009054906101000a900463ffffffff1663ffffffff1681526020019081526020016000206001015482600001600c9054906101000a900463ffffffff168360000160089054906101000a900463ffffffff16610203919061215c565b8360020160008560000160089054906101000a900463ffffffff1663ffffffff168152602001908152602001600020600101548363ffffffff1693508163ffffffff1691509450945094509450509193509193565b60608060008060110160008581526020019081526020016000206040518060c001604052908160008201805461028d906121e9565b80601f01602080910402602001604051908101604052809291908181526020018280546102b9906121e9565b80156103065780601f106102db57610100808354040283529160200191610306565b820191906000526020600020905b8154815290600101906020018083116102e957829003601f168201915b50505050508152602001600182015481526020016002820160009054906101000a900463ffffffff1663ffffffff1663ffffffff1681526020016002820160049054906101000a900463ffffffff1663ffffffff1663ffffffff168152602001600382018054806020026020016040519081016040528092919081815260200182805480156103b457602002820191906000526020600020905b8154815260200190600101908083116103a0575b505050505081526020016004820180548060200260200160405190810160405280929190818152602001828054801561040c57602002820191906000526020600020905b8154815260200190600101908083116103f8575b505050505081525050905080608001518160a001519250925050915091565b600080600080600080600080600080600f0160008b8152602001908152602001600020905060008060100160008c815260200190815260200160002090508160000160049054906101000a900463ffffffff168260000160009054906101000a900463ffffffff1661049d919061215c565b8260010160008460000160009054906101000a900463ffffffff1663ffffffff1681526020019081526020016000206001015483600001600c9054906101000a900463ffffffff168460000160089054906101000a900463ffffffff16610504919061215c565b8460020160008660000160089054906101000a900463ffffffff1663ffffffff168152602001908152602001600020600101548460000160049054906101000a900463ffffffff168560000160009054906101000a900463ffffffff1661056b919061215c565b8560010160008760000160009054906101000a900463ffffffff1663ffffffff1681526020019081526020016000206001015486600001600c9054906101000a900463ffffffff168760000160089054906101000a900463ffffffff166105d2919061215c565b8760020160008960000160089054906101000a900463ffffffff1663ffffffff168152602001908152602001600020600101548763ffffffff1697508563ffffffff1695508363ffffffff1693508163ffffffff169150995099509950995099509950995099505050919395975091939597565b8460008060010160009054906101000a900473ffffffffffffffffffffffffffffffffffffffff1690508073ffffffffffffffffffffffffffffffffffffffff16636352211e836040518263ffffffff1660e01b81526004016106a99190611e50565b60206040518083038186803b1580156106c157600080fd5b505afa1580156106d5573d6000803e3d6000fd5b505050506040513d601f19601f820116820180604052508101906106f99190611a97565b73ffffffffffffffffffffffffffffffffffffffff163373ffffffffffffffffffffffffffffffffffffffff1614610766576040517f08c379a000000000000000000000000000000000000000000000000000000000815260040161075d90611db0565b60405180910390fd5b60008663ffffffff161480610781575060018663ffffffff16145b6107c0576040517f08c379a00000000000000000000000000000000000000000000000000000000081526004016107b790611e10565b60405180910390fd5b600080600f016000898152602001908152602001600020905060008060000160008a8152602001908152602001600020905060008060110160008a63ffffffff1681526020019081526020016000206040518060c001604052908160008201805461082a906121e9565b80601f0160208091040260200160405190810160405280929190818152602001828054610856906121e9565b80156108a35780601f10610878576101008083540402835291602001916108a3565b820191906000526020600020905b81548152906001019060200180831161088657829003601f168201915b50505050508152602001600182015481526020016002820160009054906101000a900463ffffffff1663ffffffff1663ffffffff1681526020016002820160049054906101000a900463ffffffff1663ffffffff1663ffffffff1681526020016003820180548060200260200160405190810160405280929190818152602001828054801561095157602002820191906000526020600020905b81548152602001906001019080831161093d575b50505050508152602001600482018054806020026020016040519081016040528092919081815260200182805480156109a957602002820191906000526020600020905b815481526020019060010190808311610995575b505050505081525050905060008863ffffffff16116109fd576040517f08c379a00000000000000000000000000000000000000000000000000000000081526004016109f490611df0565b60405180910390fd5b60005b816080015151811015610bce5781608001518181518110610a4a577f4e487b7100000000000000000000000000000000000000000000000000000000600052603260045260246000fd5b6020026020010151888281518110610a8b577f4e487b7100000000000000000000000000000000000000000000000000000000600052603260045260246000fd5b602002602001015114610ad3576040517f08c379a0000000000000000000000000000000000000000000000000000000008152600401610aca90611dd0565b60405180910390fd5b8863ffffffff168260a001518281518110610b17577f4e487b7100000000000000000000000000000000000000000000000000000000600052603260045260246000fd5b6020026020010151610b2991906120c7565b8963ffffffff16888381518110610b69577f4e487b7100000000000000000000000000000000000000000000000000000000600052603260045260246000fd5b6020026020010151610b7b91906120c7565b14610bbb576040517f08c379a0000000000000000000000000000000000000000000000000000000008152600401610bb290611e30565b60405180910390fd5b8080610bc69061224c565b915050610a00565b506000600283600601600b9054906101000a900460ff16610bef9190612121565b60058460060160089054906101000a900460ff16610c0d9190612121565b610c179190612090565b60ff169050808985600001600c9054906101000a900463ffffffff168660000160089054906101000a900463ffffffff16610c52919061215c565b8660000160049054906101000a900463ffffffff168760000160009054906101000a900463ffffffff16610c86919061215c565b610c909190612056565b610c9a9190612056565b63ffffffff161115610ce1576040517f08c379a0000000000000000000000000000000000000000000000000000000008152600401610cd890611d90565b60405180910390fd5b60008a63ffffffff161415610e2357888460000160008282829054906101000a900463ffffffff16610d139190612056565b92506101000a81548163ffffffff021916908363ffffffff16021790555060005b8963ffffffff16811015610e1d576000428660010160008860000160009054906101000a900463ffffffff1663ffffffff1681526020019081526020016000206001015411610d835742610db7565b8560010160008760000160009054906101000a900463ffffffff1663ffffffff168152602001908152602001600020600101545b905061384081610dc79190612000565b86600101600060018960000160009054906101000a900463ffffffff16610dee9190612056565b63ffffffff16815260200190815260200160002060010181905550508080610e159061224c565b915050610d34565b50610f62565b60018a63ffffffff161415610f6157888460000160088282829054906101000a900463ffffffff16610e559190612056565b92506101000a81548163ffffffff021916908363ffffffff16021790555060005b8963ffffffff16811015610f5f576000428660020160008860000160089054906101000a900463ffffffff1663ffffffff1681526020019081526020016000206001015411610ec55742610ef9565b8560020160008760000160089054906101000a900463ffffffff1663ffffffff168152602001908152602001600020600101545b9050611c2081610f099190612000565b86600201600060018960000160089054906101000a900463ffffffff16610f309190612056565b63ffffffff16815260200190815260200160002060010181905550508080610f579061224c565b915050610e76565b505b5b610f6d338989611924565b7ff297cff0efcfb1a479905204a023125120e8d59627eae7e22963e3c94d1ff8708b8b8b604051610fa093929190611f2e565b60405180910390a15050505050505050505050565b8460008060010160009054906101000a900473ffffffffffffffffffffffffffffffffffffffff1690508073ffffffffffffffffffffffffffffffffffffffff16636352211e836040518263ffffffff1660e01b81526004016110189190611e50565b60206040518083038186803b15801561103057600080fd5b505afa158015611044573d6000803e3d6000fd5b505050506040513d601f19601f820116820180604052508101906110689190611a97565b73ffffffffffffffffffffffffffffffffffffffff163373ffffffffffffffffffffffffffffffffffffffff16146110d5576040517f08c379a00000000000000000000000000000000000000000000000000000000081526004016110cc90611db0565b60405180910390fd5b60028663ffffffff1614806110f0575060038663ffffffff16145b61112f576040517f08c379a000000000000000000000000000000000000000000000000000000000815260040161112690611e10565b60405180910390fd5b6000806010016000898152602001908152602001600020905060008060000160008a8152602001908152602001600020905060008060110160008a63ffffffff1681526020019081526020016000206040518060c0016040529081600082018054611199906121e9565b80601f01602080910402602001604051908101604052809291908181526020018280546111c5906121e9565b80156112125780601f106111e757610100808354040283529160200191611212565b820191906000526020600020905b8154815290600101906020018083116111f557829003601f168201915b50505050508152602001600182015481526020016002820160009054906101000a900463ffffffff1663ffffffff1663ffffffff1681526020016002820160049054906101000a900463ffffffff1663ffffffff1663ffffffff168152602001600382018054806020026020016040519081016040528092919081815260200182805480156112c057602002820191906000526020600020905b8154815260200190600101908083116112ac575b505050505081526020016004820180548060200260200160405190810160405280929190818152602001828054801561131857602002820191906000526020600020905b815481526020019060010190808311611304575b505050505081525050905060008863ffffffff161161136c576040517f08c379a000000000000000000000000000000000000000000000000000000000815260040161136390611df0565b60405180910390fd5b60005b81608001515181101561153d57816080015181815181106113b9577f4e487b7100000000000000000000000000000000000000000000000000000000600052603260045260246000fd5b60200260200101518882815181106113fa577f4e487b7100000000000000000000000000000000000000000000000000000000600052603260045260246000fd5b602002602001015114611442576040517f08c379a000000000000000000000000000000000000000000000000000000000815260040161143990611dd0565b60405180910390fd5b8863ffffffff168260a001518281518110611486577f4e487b7100000000000000000000000000000000000000000000000000000000600052603260045260246000fd5b602002602001015161149891906120c7565b8963ffffffff168883815181106114d8577f4e487b7100000000000000000000000000000000000000000000000000000000600052603260045260246000fd5b60200260200101516114ea91906120c7565b1461152a576040517f08c379a000000000000000000000000000000000000000000000000000000000815260040161152190611e30565b60405180910390fd5b80806115359061224c565b91505061136f565b506000600283600601600b9054906101000a900460ff1661155e9190612121565b60058460060160089054906101000a900460ff1661157c9190612121565b6115869190612090565b60ff169050808985600001600c9054906101000a900463ffffffff168660000160089054906101000a900463ffffffff166115c1919061215c565b8660000160049054906101000a900463ffffffff168760000160009054906101000a900463ffffffff166115f5919061215c565b6115ff9190612056565b6116099190612056565b63ffffffff161115611650576040517f08c379a000000000000000000000000000000000000000000000000000000000815260040161164790611d90565b60405180910390fd5b60028a63ffffffff16141561179257888460000160008282829054906101000a900463ffffffff166116829190612056565b92506101000a81548163ffffffff021916908363ffffffff16021790555060005b8963ffffffff1681101561178c576000428660010160008860000160009054906101000a900463ffffffff1663ffffffff16815260200190815260200160002060010154116116f25742611726565b8560010160008760000160009054906101000a900463ffffffff1663ffffffff168152602001908152602001600020600101545b9050617080816117369190612000565b86600101600060018960000160009054906101000a900463ffffffff1661175d9190612056565b63ffffffff168152602001908152602001600020600101819055505080806117849061224c565b9150506116a3565b506118d1565b60038a63ffffffff1614156118d057888460000160088282829054906101000a900463ffffffff166117c49190612056565b92506101000a81548163ffffffff021916908363ffffffff16021790555060005b8963ffffffff168110156118ce576000428660020160008860000160089054906101000a900463ffffffff1663ffffffff16815260200190815260200160002060010154116118345742611868565b8560020160008760000160089054906101000a900463ffffffff1663ffffffff168152602001908152602001600020600101545b9050612a30816118789190612000565b86600201600060018960000160089054906101000a900463ffffffff1661189f9190612056565b63ffffffff168152602001908152602001600020600101819055505080806118c69061224c565b9150506117e5565b505b5b6118dc338989611924565b7ff297cff0efcfb1a479905204a023125120e8d59627eae7e22963e3c94d1ff8708b8b8b60405161190f93929190611f2e565b60405180910390a15050505050505050505050565b60008060050160009054906101000a900473ffffffffffffffffffffffffffffffffffffffff1690508073ffffffffffffffffffffffffffffffffffffffff16638a5d94468585856040518463ffffffff1660e01b815260040161198a93929190611d14565b600060405180830381600087803b1580156119a457600080fd5b505af11580156119b8573d6000803e3d6000fd5b5050505050505050565b60006119d56119d084611f8a565b611f65565b905080838252602082019050828560208602820111156119f457600080fd5b60005b85811015611a245781611a0a8882611a6d565b8452602084019350602083019250506001810190506119f7565b5050509392505050565b600081519050611a3d81612429565b92915050565b600082601f830112611a5457600080fd5b8135611a648482602086016119c2565b91505092915050565b600081359050611a7c81612440565b92915050565b600081359050611a9181612457565b92915050565b600060208284031215611aa957600080fd5b6000611ab784828501611a2e565b91505092915050565b600060208284031215611ad257600080fd5b6000611ae084828501611a6d565b91505092915050565b600080600080600060a08688031215611b0157600080fd5b6000611b0f88828901611a6d565b9550506020611b2088828901611a82565b9450506040611b3188828901611a82565b935050606086013567ffffffffffffffff811115611b4e57600080fd5b611b5a88828901611a43565b925050608086013567ffffffffffffffff811115611b7757600080fd5b611b8388828901611a43565b9150509295509295909350565b6000611b9c8383611ce7565b60208301905092915050565b611bb181612190565b82525050565b6000611bc282611fc6565b611bcc8185611fde565b9350611bd783611fb6565b8060005b83811015611c08578151611bef8882611b90565b9750611bfa83611fd1565b925050600181019050611bdb565b5085935050505092915050565b6000611c22601183611fef565b9150611c2d82612333565b602082019050919050565b6000611c45601983611fef565b9150611c508261235c565b602082019050919050565b6000611c68601283611fef565b9150611c7382612385565b602082019050919050565b6000611c8b601683611fef565b9150611c96826123ae565b602082019050919050565b6000611cae600a83611fef565b9150611cb9826123d7565b602082019050919050565b6000611cd1601a83611fef565b9150611cdc82612400565b602082019050919050565b611cf0816121c2565b82525050565b611cff816121c2565b82525050565b611d0e816121cc565b82525050565b6000606082019050611d296000830186611ba8565b8181036020830152611d3b8185611bb7565b90508181036040830152611d4f8184611bb7565b9050949350505050565b60006040820190508181036000830152611d738185611bb7565b90508181036020830152611d878184611bb7565b90509392505050565b60006020820190508181036000830152611da981611c15565b9050919050565b60006020820190508181036000830152611dc981611c38565b9050919050565b60006020820190508181036000830152611de981611c5b565b9050919050565b60006020820190508181036000830152611e0981611c7e565b9050919050565b60006020820190508181036000830152611e2981611ca1565b9050919050565b60006020820190508181036000830152611e4981611cc4565b9050919050565b6000602082019050611e656000830184611cf6565b92915050565b6000608082019050611e806000830187611cf6565b611e8d6020830186611cf6565b611e9a6040830185611cf6565b611ea76060830184611cf6565b95945050505050565b600061010082019050611ec6600083018b611cf6565b611ed3602083018a611cf6565b611ee06040830189611cf6565b611eed6060830188611cf6565b611efa6080830187611cf6565b611f0760a0830186611cf6565b611f1460c0830185611cf6565b611f2160e0830184611cf6565b9998505050505050505050565b6000606082019050611f436000830186611cf6565b611f506020830185611d05565b611f5d6040830184611d05565b949350505050565b6000611f6f611f80565b9050611f7b828261221b565b919050565b6000604051905090565b600067ffffffffffffffff821115611fa557611fa46122f3565b5b602082029050602081019050919050565b6000819050602082019050919050565b600081519050919050565b6000602082019050919050565b600082825260208201905092915050565b600082825260208201905092915050565b600061200b826121c2565b9150612016836121c2565b9250827fffffffffffffffffffffffffffffffffffffffffffffffffffffffffffffffff0382111561204b5761204a612295565b5b828201905092915050565b6000612061826121cc565b915061206c836121cc565b92508263ffffffff0382111561208557612084612295565b5b828201905092915050565b600061209b826121dc565b91506120a6836121dc565b92508260ff038211156120bc576120bb612295565b5b828201905092915050565b60006120d2826121c2565b91506120dd836121c2565b9250817fffffffffffffffffffffffffffffffffffffffffffffffffffffffffffffffff048311821515161561211657612115612295565b5b828202905092915050565b600061212c826121dc565b9150612137836121dc565b92508160ff048311821515161561215157612150612295565b5b828202905092915050565b6000612167826121cc565b9150612172836121cc565b92508282101561218557612184612295565b5b828203905092915050565b600061219b826121a2565b9050919050565b600073ffffffffffffffffffffffffffffffffffffffff82169050919050565b6000819050919050565b600063ffffffff82169050919050565b600060ff82169050919050565b6000600282049050600182168061220157607f821691505b60208210811415612215576122146122c4565b5b50919050565b61222482612322565b810181811067ffffffffffffffff82111715612243576122426122f3565b5b80604052505050565b6000612257826121c2565b91507fffffffffffffffffffffffffffffffffffffffffffffffffffffffffffffffff82141561228a57612289612295565b5b600182019050919050565b7f4e487b7100000000000000000000000000000000000000000000000000000000600052601160045260246000fd5b7f4e487b7100000000000000000000000000000000000000000000000000000000600052602260045260246000fd5b7f4e487b7100000000000000000000000000000000000000000000000000000000600052604160045260246000fd5b6000601f19601f8301169050919050565b7f4e4f5f53504143455f464f525f554e4954000000000000000000000000000000600082015250565b7f596f7520646f206e6f74206f776e2074686973205265616c6d00000000000000600082015250565b7f496e636f7272656374207265736f757263650000000000000000000000000000600082015250565b7f4d55535420545241494e204d4f5245205448414e203100000000000000000000600082015250565b7f57726f6e6720756e697400000000000000000000000000000000000000000000600082015250565b7f496e636f7272656374207265736f75726365732076616c756573000000000000600082015250565b61243281612190565b811461243d57600080fd5b50565b612449816121c2565b811461245457600080fd5b50565b612460816121cc565b811461246b57600080fd5b5056fea26469706673582212201da3ec688539897a3ca88eea12101f08c167636d387dcfe52de97c2bf640bd2a64736f6c63430008030033",
  "devdoc": {
    "kind": "dev",
    "methods": {
      "buildRaidingArmy(uint256,uint32,uint32,uint256[],uint256[])": {
        "params": {
          "_id": "Id of Unit",
          "_quantity": "Quantity of units to train",
          "_resourceIds": "Resources to spend on units",
          "_resourceValues": "Resource values to spend",
          "_tokenId": "Id of realm"
        }
      }
    },
    "version": 1
  },
  "userdoc": {
    "kind": "user",
    "methods": {
      "buildRaidingArmy(uint256,uint32,uint32,uint256[],uint256[])": {
        "notice": "Builds Army"
      }
    },
    "version": 1
  },
  "storageLayout": {
    "storage": [
      {
        "astId": 6297,
        "contract": "contracts/settling/facets/ArmyTrainingFacet.sol:ArmyTrainingFacet",
        "label": "s",
        "offset": 0,
        "slot": "0",
        "type": "t_struct(AppStorage)5243_storage"
      }
    ],
    "types": {
      "t_address": {
        "encoding": "inplace",
        "label": "address",
        "numberOfBytes": "20"
      },
      "t_array(t_uint256)dyn_storage": {
        "base": "t_uint256",
        "encoding": "dynamic_array",
        "label": "uint256[]",
        "numberOfBytes": "32"
      },
      "t_array(t_uint32)dyn_storage": {
        "base": "t_uint32",
        "encoding": "dynamic_array",
        "label": "uint32[]",
        "numberOfBytes": "32"
      },
      "t_array(t_uint8)dyn_storage": {
        "base": "t_uint8",
        "encoding": "dynamic_array",
        "label": "uint8[]",
        "numberOfBytes": "32"
      },
      "t_bool": {
        "encoding": "inplace",
        "label": "bool",
        "numberOfBytes": "1"
      },
      "t_int32": {
        "encoding": "inplace",
        "label": "int32",
        "numberOfBytes": "4"
      },
      "t_mapping(t_uint256,t_struct(ArmyUnit)5428_storage)": {
        "encoding": "mapping",
        "key": "t_uint256",
        "label": "mapping(uint256 => struct ArmyUnit)",
        "numberOfBytes": "32",
        "value": "t_struct(ArmyUnit)5428_storage"
      },
      "t_mapping(t_uint256,t_struct(BuildingCosts)5338_storage)": {
        "encoding": "mapping",
        "key": "t_uint256",
        "label": "mapping(uint256 => struct BuildingCosts)",
        "numberOfBytes": "32",
        "value": "t_struct(BuildingCosts)5338_storage"
      },
      "t_mapping(t_uint256,t_struct(BuildingUpgradeCosts)5347_storage)": {
        "encoding": "mapping",
        "key": "t_uint256",
        "label": "mapping(uint256 => struct BuildingUpgradeCosts)",
        "numberOfBytes": "32",
        "value": "t_struct(BuildingUpgradeCosts)5347_storage"
      },
      "t_mapping(t_uint256,t_struct(DefendingArmy)5408_storage)": {
        "encoding": "mapping",
        "key": "t_uint256",
        "label": "mapping(uint256 => struct DefendingArmy)",
        "numberOfBytes": "32",
        "value": "t_struct(DefendingArmy)5408_storage"
      },
      "t_mapping(t_uint256,t_struct(LevelProduction)5350_storage)": {
        "encoding": "mapping",
        "key": "t_uint256",
        "label": "mapping(uint256 => struct LevelProduction)",
        "numberOfBytes": "32",
        "value": "t_struct(LevelProduction)5350_storage"
      },
      "t_mapping(t_uint256,t_struct(Raiding)5370_storage)": {
        "encoding": "mapping",
        "key": "t_uint256",
        "label": "mapping(uint256 => struct Raiding)",
        "numberOfBytes": "32",
        "value": "t_struct(Raiding)5370_storage"
      },
      "t_mapping(t_uint256,t_struct(RaidingArmy)5389_storage)": {
        "encoding": "mapping",
        "key": "t_uint256",
        "label": "mapping(uint256 => struct RaidingArmy)",
        "numberOfBytes": "32",
        "value": "t_struct(RaidingArmy)5389_storage"
      },
      "t_mapping(t_uint256,t_struct(RealmInfo)5309_storage)": {
        "encoding": "mapping",
        "key": "t_uint256",
        "label": "mapping(uint256 => struct RealmInfo)",
        "numberOfBytes": "32",
        "value": "t_struct(RealmInfo)5309_storage"
      },
      "t_mapping(t_uint256,t_struct(ResourceInfo)5316_storage)": {
        "encoding": "mapping",
        "key": "t_uint256",
        "label": "mapping(uint256 => struct ResourceInfo)",
        "numberOfBytes": "32",
        "value": "t_struct(ResourceInfo)5316_storage"
      },
      "t_mapping(t_uint256,t_struct(TheAges)5250_storage)": {
        "encoding": "mapping",
        "key": "t_uint256",
        "label": "mapping(uint256 => struct TheAges)",
        "numberOfBytes": "32",
        "value": "t_struct(TheAges)5250_storage"
      },
      "t_mapping(t_uint256,t_struct(TrainedArmyUnit)5413_storage)": {
        "encoding": "mapping",
        "key": "t_uint256",
        "label": "mapping(uint256 => struct TrainedArmyUnit)",
        "numberOfBytes": "32",
        "value": "t_struct(TrainedArmyUnit)5413_storage"
      },
      "t_mapping(t_uint256,t_struct(UpgradeCostLevels)5363_storage)": {
        "encoding": "mapping",
        "key": "t_uint256",
        "label": "mapping(uint256 => struct UpgradeCostLevels)",
        "numberOfBytes": "32",
        "value": "t_struct(UpgradeCostLevels)5363_storage"
      },
      "t_mapping(t_uint256,t_struct(UpgradeCosts)5359_storage)": {
        "encoding": "mapping",
        "key": "t_uint256",
        "label": "mapping(uint256 => struct UpgradeCosts)",
        "numberOfBytes": "32",
        "value": "t_struct(UpgradeCosts)5359_storage"
      },
      "t_string_storage": {
        "encoding": "bytes",
        "label": "string",
        "numberOfBytes": "32"
      },
      "t_struct(AppStorage)5243_storage": {
        "encoding": "inplace",
        "label": "struct AppStorage",
        "members": [
          {
            "astId": 5181,
            "contract": "contracts/settling/facets/ArmyTrainingFacet.sol:ArmyTrainingFacet",
            "label": "realmInfo",
            "offset": 0,
            "slot": "0",
            "type": "t_mapping(t_uint256,t_struct(RealmInfo)5309_storage)"
          },
          {
            "astId": 5183,
            "contract": "contracts/settling/facets/ArmyTrainingFacet.sol:ArmyTrainingFacet",
            "label": "sRealms",
            "offset": 0,
            "slot": "1",
            "type": "t_address"
          },
          {
            "astId": 5185,
            "contract": "contracts/settling/facets/ArmyTrainingFacet.sol:ArmyTrainingFacet",
            "label": "realms",
            "offset": 0,
            "slot": "2",
            "type": "t_address"
          },
          {
            "astId": 5187,
            "contract": "contracts/settling/facets/ArmyTrainingFacet.sol:ArmyTrainingFacet",
            "label": "realmsStorage",
            "offset": 0,
            "slot": "3",
            "type": "t_address"
          },
          {
            "astId": 5189,
            "contract": "contracts/settling/facets/ArmyTrainingFacet.sol:ArmyTrainingFacet",
            "label": "treasury",
            "offset": 0,
            "slot": "4",
            "type": "t_address"
          },
          {
            "astId": 5191,
            "contract": "contracts/settling/facets/ArmyTrainingFacet.sol:ArmyTrainingFacet",
            "label": "resources",
            "offset": 0,
            "slot": "5",
            "type": "t_address"
          },
          {
            "astId": 5193,
            "contract": "contracts/settling/facets/ArmyTrainingFacet.sol:ArmyTrainingFacet",
            "label": "oracle",
            "offset": 0,
            "slot": "6",
            "type": "t_address"
          },
          {
            "astId": 5195,
            "contract": "contracts/settling/facets/ArmyTrainingFacet.sol:ArmyTrainingFacet",
            "label": "lords",
            "offset": 0,
            "slot": "7",
            "type": "t_address"
          },
          {
            "astId": 5200,
            "contract": "contracts/settling/facets/ArmyTrainingFacet.sol:ArmyTrainingFacet",
            "label": "levelProduction",
            "offset": 0,
            "slot": "8",
            "type": "t_mapping(t_uint256,t_struct(LevelProduction)5350_storage)"
          },
          {
            "astId": 5205,
            "contract": "contracts/settling/facets/ArmyTrainingFacet.sol:ArmyTrainingFacet",
            "label": "upgradeCosts",
            "offset": 0,
            "slot": "9",
            "type": "t_mapping(t_uint256,t_struct(UpgradeCosts)5359_storage)"
          },
          {
            "astId": 5210,
            "contract": "contracts/settling/facets/ArmyTrainingFacet.sol:ArmyTrainingFacet",
            "label": "buildingUpgradeCosts",
            "offset": 0,
            "slot": "10",
            "type": "t_mapping(t_uint256,t_struct(BuildingUpgradeCosts)5347_storage)"
          },
          {
            "astId": 5215,
            "contract": "contracts/settling/facets/ArmyTrainingFacet.sol:ArmyTrainingFacet",
            "label": "buildingCosts",
            "offset": 0,
            "slot": "11",
            "type": "t_mapping(t_uint256,t_struct(BuildingCosts)5338_storage)"
          },
          {
            "astId": 5220,
            "contract": "contracts/settling/facets/ArmyTrainingFacet.sol:ArmyTrainingFacet",
            "label": "theAges",
            "offset": 0,
            "slot": "12",
            "type": "t_mapping(t_uint256,t_struct(TheAges)5250_storage)"
          },
          {
            "astId": 5222,
            "contract": "contracts/settling/facets/ArmyTrainingFacet.sol:ArmyTrainingFacet",
            "label": "genesisTime",
            "offset": 0,
            "slot": "13",
            "type": "t_uint256"
          },
          {
            "astId": 5227,
            "contract": "contracts/settling/facets/ArmyTrainingFacet.sol:ArmyTrainingFacet",
            "label": "raiding",
            "offset": 0,
            "slot": "14",
            "type": "t_mapping(t_uint256,t_struct(Raiding)5370_storage)"
          },
          {
            "astId": 5232,
            "contract": "contracts/settling/facets/ArmyTrainingFacet.sol:ArmyTrainingFacet",
            "label": "raidingArmy",
            "offset": 0,
            "slot": "15",
            "type": "t_mapping(t_uint256,t_struct(RaidingArmy)5389_storage)"
          },
          {
            "astId": 5237,
            "contract": "contracts/settling/facets/ArmyTrainingFacet.sol:ArmyTrainingFacet",
            "label": "defendingArmy",
            "offset": 0,
            "slot": "16",
            "type": "t_mapping(t_uint256,t_struct(DefendingArmy)5408_storage)"
          },
          {
            "astId": 5242,
            "contract": "contracts/settling/facets/ArmyTrainingFacet.sol:ArmyTrainingFacet",
            "label": "armyUnit",
            "offset": 0,
            "slot": "17",
            "type": "t_mapping(t_uint256,t_struct(ArmyUnit)5428_storage)"
          }
        ],
        "numberOfBytes": "576"
      },
      "t_struct(ArmyUnit)5428_storage": {
        "encoding": "inplace",
        "label": "struct ArmyUnit",
        "members": [
          {
            "astId": 5415,
            "contract": "contracts/settling/facets/ArmyTrainingFacet.sol:ArmyTrainingFacet",
            "label": "name",
            "offset": 0,
            "slot": "0",
            "type": "t_string_storage"
          },
          {
            "astId": 5417,
            "contract": "contracts/settling/facets/ArmyTrainingFacet.sol:ArmyTrainingFacet",
            "label": "timeToTrain",
            "offset": 0,
            "slot": "1",
            "type": "t_uint256"
          },
          {
            "astId": 5419,
            "contract": "contracts/settling/facets/ArmyTrainingFacet.sol:ArmyTrainingFacet",
            "label": "offence",
            "offset": 0,
            "slot": "2",
            "type": "t_uint32"
          },
          {
            "astId": 5421,
            "contract": "contracts/settling/facets/ArmyTrainingFacet.sol:ArmyTrainingFacet",
            "label": "defence",
            "offset": 4,
            "slot": "2",
            "type": "t_uint32"
          },
          {
            "astId": 5424,
            "contract": "contracts/settling/facets/ArmyTrainingFacet.sol:ArmyTrainingFacet",
            "label": "resourceIds",
            "offset": 0,
            "slot": "3",
            "type": "t_array(t_uint256)dyn_storage"
          },
          {
            "astId": 5427,
            "contract": "contracts/settling/facets/ArmyTrainingFacet.sol:ArmyTrainingFacet",
            "label": "resourceValues",
            "offset": 0,
            "slot": "4",
            "type": "t_array(t_uint256)dyn_storage"
          }
        ],
        "numberOfBytes": "160"
      },
      "t_struct(BuildingCosts)5338_storage": {
        "encoding": "inplace",
        "label": "struct BuildingCosts",
        "members": [
          {
            "astId": 5318,
            "contract": "contracts/settling/facets/ArmyTrainingFacet.sol:ArmyTrainingFacet",
            "label": "name",
            "offset": 0,
            "slot": "0",
            "type": "t_string_storage"
          },
          {
            "astId": 5321,
            "contract": "contracts/settling/facets/ArmyTrainingFacet.sol:ArmyTrainingFacet",
            "label": "resourceIds",
            "offset": 0,
            "slot": "1",
            "type": "t_array(t_uint32)dyn_storage"
          },
          {
            "astId": 5324,
            "contract": "contracts/settling/facets/ArmyTrainingFacet.sol:ArmyTrainingFacet",
            "label": "resourceValues",
            "offset": 0,
            "slot": "2",
            "type": "t_array(t_uint32)dyn_storage"
          },
          {
            "astId": 5327,
            "contract": "contracts/settling/facets/ArmyTrainingFacet.sol:ArmyTrainingFacet",
            "label": "requirements",
            "offset": 0,
            "slot": "3",
            "type": "t_array(t_uint32)dyn_storage"
          },
          {
            "astId": 5329,
            "contract": "contracts/settling/facets/ArmyTrainingFacet.sol:ArmyTrainingFacet",
            "label": "defence",
            "offset": 0,
            "slot": "4",
            "type": "t_int32"
          },
          {
            "astId": 5331,
            "contract": "contracts/settling/facets/ArmyTrainingFacet.sol:ArmyTrainingFacet",
            "label": "offence",
            "offset": 4,
            "slot": "4",
            "type": "t_int32"
          },
          {
            "astId": 5333,
            "contract": "contracts/settling/facets/ArmyTrainingFacet.sol:ArmyTrainingFacet",
            "label": "magic",
            "offset": 8,
            "slot": "4",
            "type": "t_int32"
          },
          {
            "astId": 5335,
            "contract": "contracts/settling/facets/ArmyTrainingFacet.sol:ArmyTrainingFacet",
            "label": "population",
            "offset": 12,
            "slot": "4",
            "type": "t_int32"
          },
          {
            "astId": 5337,
            "contract": "contracts/settling/facets/ArmyTrainingFacet.sol:ArmyTrainingFacet",
            "label": "food",
            "offset": 16,
            "slot": "4",
            "type": "t_int32"
          }
        ],
        "numberOfBytes": "160"
      },
      "t_struct(BuildingUpgradeCosts)5347_storage": {
        "encoding": "inplace",
        "label": "struct BuildingUpgradeCosts",
        "members": [
          {
            "astId": 5341,
            "contract": "contracts/settling/facets/ArmyTrainingFacet.sol:ArmyTrainingFacet",
            "label": "realmBuildings",
            "offset": 0,
            "slot": "0",
            "type": "t_array(t_uint8)dyn_storage"
          },
          {
            "astId": 5346,
            "contract": "contracts/settling/facets/ArmyTrainingFacet.sol:ArmyTrainingFacet",
            "label": "buildingCosts",
            "offset": 0,
            "slot": "1",
            "type": "t_mapping(t_uint256,t_struct(BuildingCosts)5338_storage)"
          }
        ],
        "numberOfBytes": "64"
      },
      "t_struct(DefendingArmy)5408_storage": {
        "encoding": "inplace",
        "label": "struct DefendingArmy",
        "members": [
          {
            "astId": 5391,
            "contract": "contracts/settling/facets/ArmyTrainingFacet.sol:ArmyTrainingFacet",
            "label": "trebuchetsTrained",
            "offset": 0,
            "slot": "0",
            "type": "t_uint32"
          },
          {
            "astId": 5393,
            "contract": "contracts/settling/facets/ArmyTrainingFacet.sol:ArmyTrainingFacet",
            "label": "trebuchetsSlayed",
            "offset": 4,
            "slot": "0",
            "type": "t_uint32"
          },
          {
            "astId": 5395,
            "contract": "contracts/settling/facets/ArmyTrainingFacet.sol:ArmyTrainingFacet",
            "label": "scorpionsTrained",
            "offset": 8,
            "slot": "0",
            "type": "t_uint32"
          },
          {
            "astId": 5397,
            "contract": "contracts/settling/facets/ArmyTrainingFacet.sol:ArmyTrainingFacet",
            "label": "scorpionsSlayed",
            "offset": 12,
            "slot": "0",
            "type": "t_uint32"
          },
          {
            "astId": 5402,
            "contract": "contracts/settling/facets/ArmyTrainingFacet.sol:ArmyTrainingFacet",
            "label": "trebuchets",
            "offset": 0,
            "slot": "1",
            "type": "t_mapping(t_uint256,t_struct(TrainedArmyUnit)5413_storage)"
          },
          {
            "astId": 5407,
            "contract": "contracts/settling/facets/ArmyTrainingFacet.sol:ArmyTrainingFacet",
            "label": "scorpions",
            "offset": 0,
            "slot": "2",
            "type": "t_mapping(t_uint256,t_struct(TrainedArmyUnit)5413_storage)"
          }
        ],
        "numberOfBytes": "96"
      },
      "t_struct(LevelProduction)5350_storage": {
        "encoding": "inplace",
        "label": "struct LevelProduction",
        "members": [
          {
            "astId": 5349,
            "contract": "contracts/settling/facets/ArmyTrainingFacet.sol:ArmyTrainingFacet",
            "label": "output",
            "offset": 0,
            "slot": "0",
            "type": "t_uint8"
          }
        ],
        "numberOfBytes": "32"
      },
      "t_struct(Raiding)5370_storage": {
        "encoding": "inplace",
        "label": "struct Raiding",
        "members": [
          {
            "astId": 5365,
            "contract": "contracts/settling/facets/ArmyTrainingFacet.sol:ArmyTrainingFacet",
            "label": "coolDownTime",
            "offset": 0,
            "slot": "0",
            "type": "t_uint256"
          },
          {
            "astId": 5367,
            "contract": "contracts/settling/facets/ArmyTrainingFacet.sol:ArmyTrainingFacet",
            "label": "totalRaids",
            "offset": 0,
            "slot": "1",
            "type": "t_uint256"
          },
          {
            "astId": 5369,
            "contract": "contracts/settling/facets/ArmyTrainingFacet.sol:ArmyTrainingFacet",
            "label": "successfulRaids",
            "offset": 0,
            "slot": "2",
            "type": "t_uint256"
          }
        ],
        "numberOfBytes": "96"
      },
      "t_struct(RaidingArmy)5389_storage": {
        "encoding": "inplace",
        "label": "struct RaidingArmy",
        "members": [
          {
            "astId": 5372,
            "contract": "contracts/settling/facets/ArmyTrainingFacet.sol:ArmyTrainingFacet",
            "label": "knightsTrained",
            "offset": 0,
            "slot": "0",
            "type": "t_uint32"
          },
          {
            "astId": 5374,
            "contract": "contracts/settling/facets/ArmyTrainingFacet.sol:ArmyTrainingFacet",
            "label": "knightsSlayed",
            "offset": 4,
            "slot": "0",
            "type": "t_uint32"
          },
          {
            "astId": 5376,
            "contract": "contracts/settling/facets/ArmyTrainingFacet.sol:ArmyTrainingFacet",
            "label": "footSoldiersTrained",
            "offset": 8,
            "slot": "0",
            "type": "t_uint32"
          },
          {
            "astId": 5378,
            "contract": "contracts/settling/facets/ArmyTrainingFacet.sol:ArmyTrainingFacet",
            "label": "footSoldiersSlayed",
            "offset": 12,
            "slot": "0",
            "type": "t_uint32"
          },
          {
            "astId": 5383,
            "contract": "contracts/settling/facets/ArmyTrainingFacet.sol:ArmyTrainingFacet",
            "label": "knights",
            "offset": 0,
            "slot": "1",
            "type": "t_mapping(t_uint256,t_struct(TrainedArmyUnit)5413_storage)"
          },
          {
            "astId": 5388,
            "contract": "contracts/settling/facets/ArmyTrainingFacet.sol:ArmyTrainingFacet",
            "label": "footSoldiers",
            "offset": 0,
            "slot": "2",
            "type": "t_mapping(t_uint256,t_struct(TrainedArmyUnit)5413_storage)"
          }
        ],
        "numberOfBytes": "96"
      },
      "t_struct(RealmInfo)5309_storage": {
        "encoding": "inplace",
        "label": "struct RealmInfo",
        "members": [
          {
            "astId": 5252,
            "contract": "contracts/settling/facets/ArmyTrainingFacet.sol:ArmyTrainingFacet",
            "label": "name",
            "offset": 0,
            "slot": "0",
            "type": "t_string_storage"
          },
          {
            "astId": 5254,
            "contract": "contracts/settling/facets/ArmyTrainingFacet.sol:ArmyTrainingFacet",
            "label": "lastUpdateAt",
            "offset": 0,
            "slot": "1",
            "type": "t_uint256"
          },
          {
            "astId": 5256,
            "contract": "contracts/settling/facets/ArmyTrainingFacet.sol:ArmyTrainingFacet",
            "label": "vestedTimeUpdatedAt",
            "offset": 0,
            "slot": "2",
            "type": "t_uint256"
          },
          {
            "astId": 5258,
            "contract": "contracts/settling/facets/ArmyTrainingFacet.sol:ArmyTrainingFacet",
            "label": "ageSettled",
            "offset": 0,
            "slot": "3",
            "type": "t_uint256"
          },
          {
            "astId": 5260,
            "contract": "contracts/settling/facets/ArmyTrainingFacet.sol:ArmyTrainingFacet",
            "label": "ageClaimed",
            "offset": 0,
            "slot": "4",
            "type": "t_uint256"
          },
          {
            "astId": 5263,
            "contract": "contracts/settling/facets/ArmyTrainingFacet.sol:ArmyTrainingFacet",
            "label": "resourceIds",
            "offset": 0,
            "slot": "5",
            "type": "t_array(t_uint256)dyn_storage"
          },
          {
            "astId": 5265,
            "contract": "contracts/settling/facets/ArmyTrainingFacet.sol:ArmyTrainingFacet",
            "label": "cities",
            "offset": 0,
            "slot": "6",
            "type": "t_uint8"
          },
          {
            "astId": 5267,
            "contract": "contracts/settling/facets/ArmyTrainingFacet.sol:ArmyTrainingFacet",
            "label": "harbours",
            "offset": 1,
            "slot": "6",
            "type": "t_uint8"
          },
          {
            "astId": 5269,
            "contract": "contracts/settling/facets/ArmyTrainingFacet.sol:ArmyTrainingFacet",
            "label": "rivers",
            "offset": 2,
            "slot": "6",
            "type": "t_uint8"
          },
          {
            "astId": 5271,
            "contract": "contracts/settling/facets/ArmyTrainingFacet.sol:ArmyTrainingFacet",
            "label": "regions",
            "offset": 3,
            "slot": "6",
            "type": "t_uint8"
          },
          {
            "astId": 5273,
            "contract": "contracts/settling/facets/ArmyTrainingFacet.sol:ArmyTrainingFacet",
            "label": "wonders",
            "offset": 4,
            "slot": "6",
            "type": "t_uint8"
          },
          {
            "astId": 5275,
            "contract": "contracts/settling/facets/ArmyTrainingFacet.sol:ArmyTrainingFacet",
            "label": "orderOf",
            "offset": 5,
            "slot": "6",
            "type": "t_uint8"
          },
          {
            "astId": 5277,
            "contract": "contracts/settling/facets/ArmyTrainingFacet.sol:ArmyTrainingFacet",
            "label": "aquaducts",
            "offset": 6,
            "slot": "6",
            "type": "t_uint8"
          },
          {
            "astId": 5279,
            "contract": "contracts/settling/facets/ArmyTrainingFacet.sol:ArmyTrainingFacet",
            "label": "temples",
            "offset": 7,
            "slot": "6",
            "type": "t_uint8"
          },
          {
            "astId": 5281,
            "contract": "contracts/settling/facets/ArmyTrainingFacet.sol:ArmyTrainingFacet",
            "label": "castles",
            "offset": 8,
            "slot": "6",
            "type": "t_uint8"
          },
          {
            "astId": 5283,
            "contract": "contracts/settling/facets/ArmyTrainingFacet.sol:ArmyTrainingFacet",
            "label": "markets",
            "offset": 9,
            "slot": "6",
            "type": "t_uint8"
          },
          {
            "astId": 5285,
            "contract": "contracts/settling/facets/ArmyTrainingFacet.sol:ArmyTrainingFacet",
            "label": "ports",
            "offset": 10,
            "slot": "6",
            "type": "t_uint8"
          },
          {
            "astId": 5287,
            "contract": "contracts/settling/facets/ArmyTrainingFacet.sol:ArmyTrainingFacet",
            "label": "barracks",
            "offset": 11,
            "slot": "6",
            "type": "t_uint8"
          },
          {
            "astId": 5289,
            "contract": "contracts/settling/facets/ArmyTrainingFacet.sol:ArmyTrainingFacet",
            "label": "farms",
            "offset": 12,
            "slot": "6",
            "type": "t_uint8"
          },
          {
            "astId": 5291,
            "contract": "contracts/settling/facets/ArmyTrainingFacet.sol:ArmyTrainingFacet",
            "label": "shipyard",
            "offset": 13,
            "slot": "6",
            "type": "t_uint8"
          },
          {
            "astId": 5293,
            "contract": "contracts/settling/facets/ArmyTrainingFacet.sol:ArmyTrainingFacet",
            "label": "fishingVillage",
            "offset": 14,
            "slot": "6",
            "type": "t_uint8"
          },
          {
            "astId": 5295,
            "contract": "contracts/settling/facets/ArmyTrainingFacet.sol:ArmyTrainingFacet",
            "label": "realmDefence",
            "offset": 15,
            "slot": "6",
            "type": "t_int32"
          },
          {
            "astId": 5297,
            "contract": "contracts/settling/facets/ArmyTrainingFacet.sol:ArmyTrainingFacet",
            "label": "realmOffence",
            "offset": 19,
            "slot": "6",
            "type": "t_int32"
          },
          {
            "astId": 5299,
            "contract": "contracts/settling/facets/ArmyTrainingFacet.sol:ArmyTrainingFacet",
            "label": "realmMagic",
            "offset": 23,
            "slot": "6",
            "type": "t_int32"
          },
          {
            "astId": 5301,
            "contract": "contracts/settling/facets/ArmyTrainingFacet.sol:ArmyTrainingFacet",
            "label": "foodSupply",
            "offset": 27,
            "slot": "6",
            "type": "t_int32"
          },
          {
            "astId": 5303,
            "contract": "contracts/settling/facets/ArmyTrainingFacet.sol:ArmyTrainingFacet",
            "label": "population",
            "offset": 0,
            "slot": "7",
            "type": "t_int32"
          },
          {
            "astId": 5308,
            "contract": "contracts/settling/facets/ArmyTrainingFacet.sol:ArmyTrainingFacet",
            "label": "resourceInfo",
            "offset": 0,
            "slot": "8",
            "type": "t_mapping(t_uint256,t_struct(ResourceInfo)5316_storage)"
          }
        ],
        "numberOfBytes": "288"
      },
      "t_struct(ResourceInfo)5316_storage": {
        "encoding": "inplace",
        "label": "struct ResourceInfo",
        "members": [
          {
            "astId": 5311,
            "contract": "contracts/settling/facets/ArmyTrainingFacet.sol:ArmyTrainingFacet",
            "label": "id",
            "offset": 0,
            "slot": "0",
            "type": "t_uint8"
          },
          {
            "astId": 5313,
            "contract": "contracts/settling/facets/ArmyTrainingFacet.sol:ArmyTrainingFacet",
            "label": "level",
            "offset": 1,
            "slot": "0",
            "type": "t_uint8"
          },
          {
            "astId": 5315,
            "contract": "contracts/settling/facets/ArmyTrainingFacet.sol:ArmyTrainingFacet",
            "label": "production",
            "offset": 2,
            "slot": "0",
            "type": "t_uint8"
          }
        ],
        "numberOfBytes": "32"
      },
      "t_struct(TheAges)5250_storage": {
        "encoding": "inplace",
        "label": "struct TheAges",
        "members": [
          {
            "astId": 5245,
            "contract": "contracts/settling/facets/ArmyTrainingFacet.sol:ArmyTrainingFacet",
            "label": "settledRealms",
            "offset": 0,
            "slot": "0",
            "type": "t_uint256"
          },
          {
            "astId": 5247,
            "contract": "contracts/settling/facets/ArmyTrainingFacet.sol:ArmyTrainingFacet",
            "label": "ageStart",
            "offset": 0,
            "slot": "1",
            "type": "t_uint256"
          },
          {
            "astId": 5249,
            "contract": "contracts/settling/facets/ArmyTrainingFacet.sol:ArmyTrainingFacet",
            "label": "ageFinish",
            "offset": 0,
            "slot": "2",
            "type": "t_uint256"
          }
        ],
        "numberOfBytes": "96"
      },
      "t_struct(TrainedArmyUnit)5413_storage": {
        "encoding": "inplace",
        "label": "struct TrainedArmyUnit",
        "members": [
          {
            "astId": 5410,
            "contract": "contracts/settling/facets/ArmyTrainingFacet.sol:ArmyTrainingFacet",
            "label": "destroyed",
            "offset": 0,
            "slot": "0",
            "type": "t_bool"
          },
          {
            "astId": 5412,
            "contract": "contracts/settling/facets/ArmyTrainingFacet.sol:ArmyTrainingFacet",
            "label": "unitFinished",
            "offset": 0,
            "slot": "1",
            "type": "t_uint256"
          }
        ],
        "numberOfBytes": "64"
      },
      "t_struct(UpgradeCostLevels)5363_storage": {
        "encoding": "inplace",
        "label": "struct UpgradeCostLevels",
        "members": [
          {
            "astId": 5362,
            "contract": "contracts/settling/facets/ArmyTrainingFacet.sol:ArmyTrainingFacet",
            "label": "value",
            "offset": 0,
            "slot": "0",
            "type": "t_array(t_uint256)dyn_storage"
          }
        ],
        "numberOfBytes": "32"
      },
      "t_struct(UpgradeCosts)5359_storage": {
        "encoding": "inplace",
        "label": "struct UpgradeCosts",
        "members": [
          {
            "astId": 5353,
            "contract": "contracts/settling/facets/ArmyTrainingFacet.sol:ArmyTrainingFacet",
            "label": "resourceIds",
            "offset": 0,
            "slot": "0",
            "type": "t_array(t_uint8)dyn_storage"
          },
          {
            "astId": 5358,
            "contract": "contracts/settling/facets/ArmyTrainingFacet.sol:ArmyTrainingFacet",
            "label": "upgradeCostLevels",
            "offset": 0,
            "slot": "1",
            "type": "t_mapping(t_uint256,t_struct(UpgradeCostLevels)5363_storage)"
          }
        ],
        "numberOfBytes": "64"
      },
      "t_uint256": {
        "encoding": "inplace",
        "label": "uint256",
        "numberOfBytes": "32"
      },
      "t_uint32": {
        "encoding": "inplace",
        "label": "uint32",
        "numberOfBytes": "4"
      },
      "t_uint8": {
        "encoding": "inplace",
        "label": "uint8",
        "numberOfBytes": "1"
      }
    }
  }
}