{
  "address": "0xa34a1658E8e419EbEfF6f7Ec8c5f7184d7783901",
  "abi": [
    {
      "inputs": [
        {
          "internalType": "uint256",
          "name": "_tokenId",
          "type": "uint256"
        },
        {
          "internalType": "uint32",
          "name": "_id",
          "type": "uint32"
        },
        {
          "internalType": "uint32",
          "name": "_quantity",
          "type": "uint32"
        },
        {
          "internalType": "uint256[]",
          "name": "_resourceIds",
          "type": "uint256[]"
        },
        {
          "internalType": "uint256[]",
          "name": "_resourceValues",
          "type": "uint256[]"
        }
      ],
      "name": "buildDefenceArmy",
      "outputs": [],
      "stateMutability": "payable",
      "type": "function"
    },
    {
      "inputs": [
        {
          "internalType": "uint256",
          "name": "_tokenId",
          "type": "uint256"
        },
        {
          "internalType": "uint32",
          "name": "_id",
          "type": "uint32"
        },
        {
          "internalType": "uint32",
          "name": "_quantity",
          "type": "uint32"
        },
        {
          "internalType": "uint256[]",
          "name": "_resourceIds",
          "type": "uint256[]"
        },
        {
          "internalType": "uint256[]",
          "name": "_resourceValues",
          "type": "uint256[]"
        }
      ],
      "name": "buildRaidingArmy",
      "outputs": [],
      "stateMutability": "payable",
      "type": "function"
    },
    {
      "inputs": [
        {
          "internalType": "uint256",
          "name": "_tokenId",
          "type": "uint256"
        }
      ],
      "name": "getDefensiveArmy",
      "outputs": [
        {
          "internalType": "uint256",
          "name": "",
          "type": "uint256"
        },
        {
          "internalType": "uint256",
          "name": "",
          "type": "uint256"
        },
        {
          "internalType": "uint256",
          "name": "",
          "type": "uint256"
        },
        {
          "internalType": "uint256",
          "name": "",
          "type": "uint256"
        }
      ],
      "stateMutability": "view",
      "type": "function"
    },
    {
      "inputs": [
        {
          "internalType": "uint256",
          "name": "_tokenId",
          "type": "uint256"
        }
      ],
      "name": "getRaidingArmy",
      "outputs": [
        {
          "internalType": "uint256",
          "name": "",
          "type": "uint256"
        },
        {
          "internalType": "uint256",
          "name": "",
          "type": "uint256"
        },
        {
          "internalType": "uint256",
          "name": "",
          "type": "uint256"
        },
        {
          "internalType": "uint256",
          "name": "",
          "type": "uint256"
        }
      ],
      "stateMutability": "view",
      "type": "function"
    },
    {
      "inputs": [
        {
          "internalType": "uint256",
          "name": "_unitId",
          "type": "uint256"
        }
      ],
      "name": "getUnitCost",
      "outputs": [
        {
          "internalType": "uint256[]",
          "name": "",
          "type": "uint256[]"
        },
        {
          "internalType": "uint256[]",
          "name": "",
          "type": "uint256[]"
        }
      ],
      "stateMutability": "view",
      "type": "function"
    }
  ],
  "transactionHash": "0x57b916bc7bb72f68128578ab46fe7fb48f6492cc24a681dd2e6cc8ccfef4bb4d",
  "args": [],
  "solcInputHash": "37a7823f1e35b27b43af72d9be5ee463",
  "bytecode": "0x608060405234801561001057600080fd5b5061225a806100206000396000f3fe60806040526004361061004a5760003560e01c80634fd062621461004f578063b7283f411461008f578063c19cfd6b146100cd578063cca32e831461010d578063df04ae0c14610129575b600080fd5b34801561005b57600080fd5b506100766004803603810190610071919061193a565b610145565b6040516100869493929190611cd6565b60405180910390f35b34801561009b57600080fd5b506100b660048036038101906100b1919061193a565b610254565b6040516100c4929190611bc4565b60405180910390f35b3480156100d957600080fd5b506100f460048036038101906100ef919061193a565b610427565b6040516101049493929190611cd6565b60405180910390f35b61012760048036038101906101229190611963565b610536565b005b610143600480360381019061013e9190611963565b610e6a565b005b600080600080600080601001600087815260200190815260200160002090508060000160049054906101000a900463ffffffff168160000160009054906101000a900463ffffffff166101989190611f12565b8160010160008360000160009054906101000a900463ffffffff1663ffffffff1681526020019081526020016000206001015482600001600c9054906101000a900463ffffffff168360000160089054906101000a900463ffffffff166101ff9190611f12565b8360020160008560000160089054906101000a900463ffffffff1663ffffffff168152602001908152602001600020600101548363ffffffff1693508163ffffffff1691509450945094509450509193509193565b60608060008060110160008581526020019081526020016000206040518060c001604052908160008201805461028990611f9f565b80601f01602080910402602001604051908101604052809291908181526020018280546102b590611f9f565b80156103025780601f106102d757610100808354040283529160200191610302565b820191906000526020600020905b8154815290600101906020018083116102e557829003601f168201915b50505050508152602001600182015481526020016002820160009054906101000a900463ffffffff1663ffffffff1663ffffffff1681526020016002820160049054906101000a900463ffffffff1663ffffffff1663ffffffff168152602001600382018054806020026020016040519081016040528092919081815260200182805480156103b057602002820191906000526020600020905b81548152602001906001019080831161039c575b505050505081526020016004820180548060200260200160405190810160405280929190818152602001828054801561040857602002820191906000526020600020905b8154815260200190600101908083116103f4575b505050505081525050905080608001518160a001519250925050915091565b600080600080600080600f01600087815260200190815260200160002090508060000160049054906101000a900463ffffffff168160000160009054906101000a900463ffffffff1661047a9190611f12565b8160010160008360000160009054906101000a900463ffffffff1663ffffffff1681526020019081526020016000206001015482600001600c9054906101000a900463ffffffff168360000160089054906101000a900463ffffffff166104e19190611f12565b8360020160008560000160089054906101000a900463ffffffff1663ffffffff168152602001908152602001600020600101548363ffffffff1693508163ffffffff1691509450945094509450509193509193565b8460008060010160009054906101000a900473ffffffffffffffffffffffffffffffffffffffff1690508073ffffffffffffffffffffffffffffffffffffffff16636352211e836040518263ffffffff1660e01b81526004016105999190611cbb565b60206040518083038186803b1580156105b157600080fd5b505afa1580156105c5573d6000803e3d6000fd5b505050506040513d601f19601f820116820180604052508101906105e99190611911565b73ffffffffffffffffffffffffffffffffffffffff163373ffffffffffffffffffffffffffffffffffffffff1614610656576040517f08c379a000000000000000000000000000000000000000000000000000000000815260040161064d90611c1b565b60405180910390fd5b60008663ffffffff161480610671575060018663ffffffff16145b6106b0576040517f08c379a00000000000000000000000000000000000000000000000000000000081526004016106a790611c7b565b60405180910390fd5b600080600f016000898152602001908152602001600020905060008060000160008a8152602001908152602001600020905060008060110160008a63ffffffff1681526020019081526020016000206040518060c001604052908160008201805461071a90611f9f565b80601f016020809104026020016040519081016040528092919081815260200182805461074690611f9f565b80156107935780601f1061076857610100808354040283529160200191610793565b820191906000526020600020905b81548152906001019060200180831161077657829003601f168201915b50505050508152602001600182015481526020016002820160009054906101000a900463ffffffff1663ffffffff1663ffffffff1681526020016002820160049054906101000a900463ffffffff1663ffffffff1663ffffffff1681526020016003820180548060200260200160405190810160405280929190818152602001828054801561084157602002820191906000526020600020905b81548152602001906001019080831161082d575b505050505081526020016004820180548060200260200160405190810160405280929190818152602001828054801561089957602002820191906000526020600020905b815481526020019060010190808311610885575b505050505081525050905060008863ffffffff16116108ed576040517f08c379a00000000000000000000000000000000000000000000000000000000081526004016108e490611c5b565b60405180910390fd5b60005b816080015151811015610abe578160800151818151811061093a577f4e487b7100000000000000000000000000000000000000000000000000000000600052603260045260246000fd5b602002602001015188828151811061097b577f4e487b7100000000000000000000000000000000000000000000000000000000600052603260045260246000fd5b6020026020010151146109c3576040517f08c379a00000000000000000000000000000000000000000000000000000000081526004016109ba90611c3b565b60405180910390fd5b8863ffffffff168260a001518281518110610a07577f4e487b7100000000000000000000000000000000000000000000000000000000600052603260045260246000fd5b6020026020010151610a199190611e7d565b8963ffffffff16888381518110610a59577f4e487b7100000000000000000000000000000000000000000000000000000000600052603260045260246000fd5b6020026020010151610a6b9190611e7d565b14610aab576040517f08c379a0000000000000000000000000000000000000000000000000000000008152600401610aa290611c9b565b60405180910390fd5b8080610ab690612002565b9150506108f0565b506000600283600601600b9054906101000a900460ff16610adf9190611ed7565b60058460060160089054906101000a900460ff16610afd9190611ed7565b610b079190611e46565b60ff169050808985600001600c9054906101000a900463ffffffff168660000160089054906101000a900463ffffffff16610b429190611f12565b8660000160049054906101000a900463ffffffff168760000160009054906101000a900463ffffffff16610b769190611f12565b610b809190611e0c565b610b8a9190611e0c565b63ffffffff161115610bd1576040517f08c379a0000000000000000000000000000000000000000000000000000000008152600401610bc890611bfb565b60405180910390fd5b60008a63ffffffff161415610d1357888460000160008282829054906101000a900463ffffffff16610c039190611e0c565b92506101000a81548163ffffffff021916908363ffffffff16021790555060005b8963ffffffff16811015610d0d576000428660010160008860000160009054906101000a900463ffffffff1663ffffffff1681526020019081526020016000206001015411610c735742610ca7565b8560010160008760000160009054906101000a900463ffffffff1663ffffffff168152602001908152602001600020600101545b905061384081610cb79190611db6565b86600101600060018960000160009054906101000a900463ffffffff16610cde9190611e0c565b63ffffffff16815260200190815260200160002060010181905550508080610d0590612002565b915050610c24565b50610e52565b60018a63ffffffff161415610e5157888460000160088282829054906101000a900463ffffffff16610d459190611e0c565b92506101000a81548163ffffffff021916908363ffffffff16021790555060005b8963ffffffff16811015610e4f576000428660020160008860000160089054906101000a900463ffffffff1663ffffffff1681526020019081526020016000206001015411610db55742610de9565b8560020160008760000160089054906101000a900463ffffffff1663ffffffff168152602001908152602001600020600101545b9050611c2081610df99190611db6565b86600201600060018960000160089054906101000a900463ffffffff16610e209190611e0c565b63ffffffff16815260200190815260200160002060010181905550508080610e4790612002565b915050610d66565b505b5b610e5d33898961179e565b5050505050505050505050565b8460008060010160009054906101000a900473ffffffffffffffffffffffffffffffffffffffff1690508073ffffffffffffffffffffffffffffffffffffffff16636352211e836040518263ffffffff1660e01b8152600401610ecd9190611cbb565b60206040518083038186803b158015610ee557600080fd5b505afa158015610ef9573d6000803e3d6000fd5b505050506040513d601f19601f82011682018060405250810190610f1d9190611911565b73ffffffffffffffffffffffffffffffffffffffff163373ffffffffffffffffffffffffffffffffffffffff1614610f8a576040517f08c379a0000000000000000000000000000000000000000000000000000000008152600401610f8190611c1b565b60405180910390fd5b60028663ffffffff161480610fa5575060038663ffffffff16145b610fe4576040517f08c379a0000000000000000000000000000000000000000000000000000000008152600401610fdb90611c7b565b60405180910390fd5b6000806010016000898152602001908152602001600020905060008060000160008a8152602001908152602001600020905060008060110160008a63ffffffff1681526020019081526020016000206040518060c001604052908160008201805461104e90611f9f565b80601f016020809104026020016040519081016040528092919081815260200182805461107a90611f9f565b80156110c75780601f1061109c576101008083540402835291602001916110c7565b820191906000526020600020905b8154815290600101906020018083116110aa57829003601f168201915b50505050508152602001600182015481526020016002820160009054906101000a900463ffffffff1663ffffffff1663ffffffff1681526020016002820160049054906101000a900463ffffffff1663ffffffff1663ffffffff1681526020016003820180548060200260200160405190810160405280929190818152602001828054801561117557602002820191906000526020600020905b815481526020019060010190808311611161575b50505050508152602001600482018054806020026020016040519081016040528092919081815260200182805480156111cd57602002820191906000526020600020905b8154815260200190600101908083116111b9575b505050505081525050905060008863ffffffff1611611221576040517f08c379a000000000000000000000000000000000000000000000000000000000815260040161121890611c5b565b60405180910390fd5b60005b8160800151518110156113f2578160800151818151811061126e577f4e487b7100000000000000000000000000000000000000000000000000000000600052603260045260246000fd5b60200260200101518882815181106112af577f4e487b7100000000000000000000000000000000000000000000000000000000600052603260045260246000fd5b6020026020010151146112f7576040517f08c379a00000000000000000000000000000000000000000000000000000000081526004016112ee90611c3b565b60405180910390fd5b8863ffffffff168260a00151828151811061133b577f4e487b7100000000000000000000000000000000000000000000000000000000600052603260045260246000fd5b602002602001015161134d9190611e7d565b8963ffffffff1688838151811061138d577f4e487b7100000000000000000000000000000000000000000000000000000000600052603260045260246000fd5b602002602001015161139f9190611e7d565b146113df576040517f08c379a00000000000000000000000000000000000000000000000000000000081526004016113d690611c9b565b60405180910390fd5b80806113ea90612002565b915050611224565b506000600283600601600b9054906101000a900460ff166114139190611ed7565b60058460060160089054906101000a900460ff166114319190611ed7565b61143b9190611e46565b60ff169050808985600001600c9054906101000a900463ffffffff168660000160089054906101000a900463ffffffff166114769190611f12565b8660000160049054906101000a900463ffffffff168760000160009054906101000a900463ffffffff166114aa9190611f12565b6114b49190611e0c565b6114be9190611e0c565b63ffffffff161115611505576040517f08c379a00000000000000000000000000000000000000000000000000000000081526004016114fc90611bfb565b60405180910390fd5b60028a63ffffffff16141561164757888460000160008282829054906101000a900463ffffffff166115379190611e0c565b92506101000a81548163ffffffff021916908363ffffffff16021790555060005b8963ffffffff16811015611641576000428660010160008860000160009054906101000a900463ffffffff1663ffffffff16815260200190815260200160002060010154116115a757426115db565b8560010160008760000160009054906101000a900463ffffffff1663ffffffff168152602001908152602001600020600101545b9050617080816115eb9190611db6565b86600101600060018960000160009054906101000a900463ffffffff166116129190611e0c565b63ffffffff1681526020019081526020016000206001018190555050808061163990612002565b915050611558565b50611786565b60038a63ffffffff16141561178557888460000160088282829054906101000a900463ffffffff166116799190611e0c565b92506101000a81548163ffffffff021916908363ffffffff16021790555060005b8963ffffffff16811015611783576000428660020160008860000160089054906101000a900463ffffffff1663ffffffff16815260200190815260200160002060010154116116e9574261171d565b8560020160008760000160089054906101000a900463ffffffff1663ffffffff168152602001908152602001600020600101545b9050612a308161172d9190611db6565b86600201600060018960000160089054906101000a900463ffffffff166117549190611e0c565b63ffffffff1681526020019081526020016000206001018190555050808061177b90612002565b91505061169a565b505b5b61179133898961179e565b5050505050505050505050565b60008060050160009054906101000a900473ffffffffffffffffffffffffffffffffffffffff1690508073ffffffffffffffffffffffffffffffffffffffff16638a5d94468585856040518463ffffffff1660e01b815260040161180493929190611b7f565b600060405180830381600087803b15801561181e57600080fd5b505af1158015611832573d6000803e3d6000fd5b5050505050505050565b600061184f61184a84611d40565b611d1b565b9050808382526020820190508285602086028201111561186e57600080fd5b60005b8581101561189e578161188488826118e7565b845260208401935060208301925050600181019050611871565b5050509392505050565b6000815190506118b7816121df565b92915050565b600082601f8301126118ce57600080fd5b81356118de84826020860161183c565b91505092915050565b6000813590506118f6816121f6565b92915050565b60008135905061190b8161220d565b92915050565b60006020828403121561192357600080fd5b6000611931848285016118a8565b91505092915050565b60006020828403121561194c57600080fd5b600061195a848285016118e7565b91505092915050565b600080600080600060a0868803121561197b57600080fd5b6000611989888289016118e7565b955050602061199a888289016118fc565b94505060406119ab888289016118fc565b935050606086013567ffffffffffffffff8111156119c857600080fd5b6119d4888289016118bd565b925050608086013567ffffffffffffffff8111156119f157600080fd5b6119fd888289016118bd565b9150509295509295909350565b6000611a168383611b61565b60208301905092915050565b611a2b81611f46565b82525050565b6000611a3c82611d7c565b611a468185611d94565b9350611a5183611d6c565b8060005b83811015611a82578151611a698882611a0a565b9750611a7483611d87565b925050600181019050611a55565b5085935050505092915050565b6000611a9c601183611da5565b9150611aa7826120e9565b602082019050919050565b6000611abf601983611da5565b9150611aca82612112565b602082019050919050565b6000611ae2601283611da5565b9150611aed8261213b565b602082019050919050565b6000611b05601683611da5565b9150611b1082612164565b602082019050919050565b6000611b28600a83611da5565b9150611b338261218d565b602082019050919050565b6000611b4b601a83611da5565b9150611b56826121b6565b602082019050919050565b611b6a81611f78565b82525050565b611b7981611f78565b82525050565b6000606082019050611b946000830186611a22565b8181036020830152611ba68185611a31565b90508181036040830152611bba8184611a31565b9050949350505050565b60006040820190508181036000830152611bde8185611a31565b90508181036020830152611bf28184611a31565b90509392505050565b60006020820190508181036000830152611c1481611a8f565b9050919050565b60006020820190508181036000830152611c3481611ab2565b9050919050565b60006020820190508181036000830152611c5481611ad5565b9050919050565b60006020820190508181036000830152611c7481611af8565b9050919050565b60006020820190508181036000830152611c9481611b1b565b9050919050565b60006020820190508181036000830152611cb481611b3e565b9050919050565b6000602082019050611cd06000830184611b70565b92915050565b6000608082019050611ceb6000830187611b70565b611cf86020830186611b70565b611d056040830185611b70565b611d126060830184611b70565b95945050505050565b6000611d25611d36565b9050611d318282611fd1565b919050565b6000604051905090565b600067ffffffffffffffff821115611d5b57611d5a6120a9565b5b602082029050602081019050919050565b6000819050602082019050919050565b600081519050919050565b6000602082019050919050565b600082825260208201905092915050565b600082825260208201905092915050565b6000611dc182611f78565b9150611dcc83611f78565b9250827fffffffffffffffffffffffffffffffffffffffffffffffffffffffffffffffff03821115611e0157611e0061204b565b5b828201905092915050565b6000611e1782611f82565b9150611e2283611f82565b92508263ffffffff03821115611e3b57611e3a61204b565b5b828201905092915050565b6000611e5182611f92565b9150611e5c83611f92565b92508260ff03821115611e7257611e7161204b565b5b828201905092915050565b6000611e8882611f78565b9150611e9383611f78565b9250817fffffffffffffffffffffffffffffffffffffffffffffffffffffffffffffffff0483118215151615611ecc57611ecb61204b565b5b828202905092915050565b6000611ee282611f92565b9150611eed83611f92565b92508160ff0483118215151615611f0757611f0661204b565b5b828202905092915050565b6000611f1d82611f82565b9150611f2883611f82565b925082821015611f3b57611f3a61204b565b5b828203905092915050565b6000611f5182611f58565b9050919050565b600073ffffffffffffffffffffffffffffffffffffffff82169050919050565b6000819050919050565b600063ffffffff82169050919050565b600060ff82169050919050565b60006002820490506001821680611fb757607f821691505b60208210811415611fcb57611fca61207a565b5b50919050565b611fda826120d8565b810181811067ffffffffffffffff82111715611ff957611ff86120a9565b5b80604052505050565b600061200d82611f78565b91507fffffffffffffffffffffffffffffffffffffffffffffffffffffffffffffffff8214156120405761203f61204b565b5b600182019050919050565b7f4e487b7100000000000000000000000000000000000000000000000000000000600052601160045260246000fd5b7f4e487b7100000000000000000000000000000000000000000000000000000000600052602260045260246000fd5b7f4e487b7100000000000000000000000000000000000000000000000000000000600052604160045260246000fd5b6000601f19601f8301169050919050565b7f4e4f5f53504143455f464f525f554e4954000000000000000000000000000000600082015250565b7f596f7520646f206e6f74206f776e2074686973205265616c6d00000000000000600082015250565b7f496e636f7272656374207265736f757263650000000000000000000000000000600082015250565b7f4d55535420545241494e204d4f5245205448414e203100000000000000000000600082015250565b7f57726f6e6720756e697400000000000000000000000000000000000000000000600082015250565b7f496e636f7272656374207265736f75726365732076616c756573000000000000600082015250565b6121e881611f46565b81146121f357600080fd5b50565b6121ff81611f78565b811461220a57600080fd5b50565b61221681611f82565b811461222157600080fd5b5056fea264697066735822122064dfba9fbf6916e194da213a35e5c0251ccd5b465b96147ea22fce4c4ac5f1bd64736f6c63430008030033",
  "devdoc": {
    "kind": "dev",
    "methods": {
      "buildRaidingArmy(uint256,uint32,uint32,uint256[],uint256[])": {
        "params": {
          "_id": "Id of Unit",
          "_quantity": "Quantity of units to train",
          "_resourceIds": "Resources to spend on units",
          "_resourceValues": "Resource values to spend",
          "_tokenId": "Id of realm"
        }
      }
    },
    "version": 1
  },
  "userdoc": {
    "kind": "user",
    "methods": {
      "buildRaidingArmy(uint256,uint32,uint32,uint256[],uint256[])": {
        "notice": "Builds Army"
      }
    },
    "version": 1
  },
  "storageLayout": {
    "storage": [
      {
        "astId": 3618,
        "contract": "contracts/settling/facets/ArmyTrainingFacet.sol:ArmyTrainingFacet",
        "label": "s",
        "offset": 0,
        "slot": "0",
        "type": "t_struct(AppStorage)2564_storage"
      }
    ],
    "types": {
      "t_address": {
        "encoding": "inplace",
        "label": "address",
        "numberOfBytes": "20"
      },
      "t_array(t_uint256)dyn_storage": {
        "base": "t_uint256",
        "encoding": "dynamic_array",
        "label": "uint256[]",
        "numberOfBytes": "32"
      },
      "t_array(t_uint32)dyn_storage": {
        "base": "t_uint32",
        "encoding": "dynamic_array",
        "label": "uint32[]",
        "numberOfBytes": "32"
      },
      "t_array(t_uint8)dyn_storage": {
        "base": "t_uint8",
        "encoding": "dynamic_array",
        "label": "uint8[]",
        "numberOfBytes": "32"
      },
      "t_bool": {
        "encoding": "inplace",
        "label": "bool",
        "numberOfBytes": "1"
      },
      "t_int32": {
        "encoding": "inplace",
        "label": "int32",
        "numberOfBytes": "4"
      },
      "t_mapping(t_uint256,t_struct(ArmyUnit)2749_storage)": {
        "encoding": "mapping",
        "key": "t_uint256",
        "label": "mapping(uint256 => struct ArmyUnit)",
        "numberOfBytes": "32",
        "value": "t_struct(ArmyUnit)2749_storage"
      },
      "t_mapping(t_uint256,t_struct(BuildingCosts)2659_storage)": {
        "encoding": "mapping",
        "key": "t_uint256",
        "label": "mapping(uint256 => struct BuildingCosts)",
        "numberOfBytes": "32",
        "value": "t_struct(BuildingCosts)2659_storage"
      },
      "t_mapping(t_uint256,t_struct(BuildingUpgradeCosts)2668_storage)": {
        "encoding": "mapping",
        "key": "t_uint256",
        "label": "mapping(uint256 => struct BuildingUpgradeCosts)",
        "numberOfBytes": "32",
        "value": "t_struct(BuildingUpgradeCosts)2668_storage"
      },
      "t_mapping(t_uint256,t_struct(DefendingArmy)2729_storage)": {
        "encoding": "mapping",
        "key": "t_uint256",
        "label": "mapping(uint256 => struct DefendingArmy)",
        "numberOfBytes": "32",
        "value": "t_struct(DefendingArmy)2729_storage"
      },
      "t_mapping(t_uint256,t_struct(LevelProduction)2671_storage)": {
        "encoding": "mapping",
        "key": "t_uint256",
        "label": "mapping(uint256 => struct LevelProduction)",
        "numberOfBytes": "32",
        "value": "t_struct(LevelProduction)2671_storage"
      },
      "t_mapping(t_uint256,t_struct(Raiding)2691_storage)": {
        "encoding": "mapping",
        "key": "t_uint256",
        "label": "mapping(uint256 => struct Raiding)",
        "numberOfBytes": "32",
        "value": "t_struct(Raiding)2691_storage"
      },
      "t_mapping(t_uint256,t_struct(RaidingArmy)2710_storage)": {
        "encoding": "mapping",
        "key": "t_uint256",
        "label": "mapping(uint256 => struct RaidingArmy)",
        "numberOfBytes": "32",
        "value": "t_struct(RaidingArmy)2710_storage"
      },
      "t_mapping(t_uint256,t_struct(RealmInfo)2630_storage)": {
        "encoding": "mapping",
        "key": "t_uint256",
        "label": "mapping(uint256 => struct RealmInfo)",
        "numberOfBytes": "32",
        "value": "t_struct(RealmInfo)2630_storage"
      },
      "t_mapping(t_uint256,t_struct(ResourceInfo)2637_storage)": {
        "encoding": "mapping",
        "key": "t_uint256",
        "label": "mapping(uint256 => struct ResourceInfo)",
        "numberOfBytes": "32",
        "value": "t_struct(ResourceInfo)2637_storage"
      },
      "t_mapping(t_uint256,t_struct(TheAges)2571_storage)": {
        "encoding": "mapping",
        "key": "t_uint256",
        "label": "mapping(uint256 => struct TheAges)",
        "numberOfBytes": "32",
        "value": "t_struct(TheAges)2571_storage"
      },
      "t_mapping(t_uint256,t_struct(TrainedArmyUnit)2734_storage)": {
        "encoding": "mapping",
        "key": "t_uint256",
        "label": "mapping(uint256 => struct TrainedArmyUnit)",
        "numberOfBytes": "32",
        "value": "t_struct(TrainedArmyUnit)2734_storage"
      },
      "t_mapping(t_uint256,t_struct(UpgradeCostLevels)2684_storage)": {
        "encoding": "mapping",
        "key": "t_uint256",
        "label": "mapping(uint256 => struct UpgradeCostLevels)",
        "numberOfBytes": "32",
        "value": "t_struct(UpgradeCostLevels)2684_storage"
      },
      "t_mapping(t_uint256,t_struct(UpgradeCosts)2680_storage)": {
        "encoding": "mapping",
        "key": "t_uint256",
        "label": "mapping(uint256 => struct UpgradeCosts)",
        "numberOfBytes": "32",
        "value": "t_struct(UpgradeCosts)2680_storage"
      },
      "t_string_storage": {
        "encoding": "bytes",
        "label": "string",
        "numberOfBytes": "32"
      },
      "t_struct(AppStorage)2564_storage": {
        "encoding": "inplace",
        "label": "struct AppStorage",
        "members": [
          {
            "astId": 2502,
            "contract": "contracts/settling/facets/ArmyTrainingFacet.sol:ArmyTrainingFacet",
            "label": "realmInfo",
            "offset": 0,
            "slot": "0",
            "type": "t_mapping(t_uint256,t_struct(RealmInfo)2630_storage)"
          },
          {
            "astId": 2504,
            "contract": "contracts/settling/facets/ArmyTrainingFacet.sol:ArmyTrainingFacet",
            "label": "sRealms",
            "offset": 0,
            "slot": "1",
            "type": "t_address"
          },
          {
            "astId": 2506,
            "contract": "contracts/settling/facets/ArmyTrainingFacet.sol:ArmyTrainingFacet",
            "label": "realms",
            "offset": 0,
            "slot": "2",
            "type": "t_address"
          },
          {
            "astId": 2508,
            "contract": "contracts/settling/facets/ArmyTrainingFacet.sol:ArmyTrainingFacet",
            "label": "realmsStorage",
            "offset": 0,
            "slot": "3",
            "type": "t_address"
          },
          {
            "astId": 2510,
            "contract": "contracts/settling/facets/ArmyTrainingFacet.sol:ArmyTrainingFacet",
            "label": "treasury",
            "offset": 0,
            "slot": "4",
            "type": "t_address"
          },
          {
            "astId": 2512,
            "contract": "contracts/settling/facets/ArmyTrainingFacet.sol:ArmyTrainingFacet",
            "label": "resources",
            "offset": 0,
            "slot": "5",
            "type": "t_address"
          },
          {
            "astId": 2514,
            "contract": "contracts/settling/facets/ArmyTrainingFacet.sol:ArmyTrainingFacet",
            "label": "oracle",
            "offset": 0,
            "slot": "6",
            "type": "t_address"
          },
          {
            "astId": 2516,
            "contract": "contracts/settling/facets/ArmyTrainingFacet.sol:ArmyTrainingFacet",
            "label": "lords",
            "offset": 0,
            "slot": "7",
            "type": "t_address"
          },
          {
            "astId": 2521,
            "contract": "contracts/settling/facets/ArmyTrainingFacet.sol:ArmyTrainingFacet",
            "label": "levelProduction",
            "offset": 0,
            "slot": "8",
            "type": "t_mapping(t_uint256,t_struct(LevelProduction)2671_storage)"
          },
          {
            "astId": 2526,
            "contract": "contracts/settling/facets/ArmyTrainingFacet.sol:ArmyTrainingFacet",
            "label": "upgradeCosts",
            "offset": 0,
            "slot": "9",
            "type": "t_mapping(t_uint256,t_struct(UpgradeCosts)2680_storage)"
          },
          {
            "astId": 2531,
            "contract": "contracts/settling/facets/ArmyTrainingFacet.sol:ArmyTrainingFacet",
            "label": "buildingUpgradeCosts",
            "offset": 0,
            "slot": "10",
            "type": "t_mapping(t_uint256,t_struct(BuildingUpgradeCosts)2668_storage)"
          },
          {
            "astId": 2536,
            "contract": "contracts/settling/facets/ArmyTrainingFacet.sol:ArmyTrainingFacet",
            "label": "buildingCosts",
            "offset": 0,
            "slot": "11",
            "type": "t_mapping(t_uint256,t_struct(BuildingCosts)2659_storage)"
          },
          {
            "astId": 2541,
            "contract": "contracts/settling/facets/ArmyTrainingFacet.sol:ArmyTrainingFacet",
            "label": "theAges",
            "offset": 0,
            "slot": "12",
            "type": "t_mapping(t_uint256,t_struct(TheAges)2571_storage)"
          },
          {
            "astId": 2543,
            "contract": "contracts/settling/facets/ArmyTrainingFacet.sol:ArmyTrainingFacet",
            "label": "genesisTime",
            "offset": 0,
            "slot": "13",
            "type": "t_uint256"
          },
          {
            "astId": 2548,
            "contract": "contracts/settling/facets/ArmyTrainingFacet.sol:ArmyTrainingFacet",
            "label": "raiding",
            "offset": 0,
            "slot": "14",
            "type": "t_mapping(t_uint256,t_struct(Raiding)2691_storage)"
          },
          {
            "astId": 2553,
            "contract": "contracts/settling/facets/ArmyTrainingFacet.sol:ArmyTrainingFacet",
            "label": "raidingArmy",
            "offset": 0,
            "slot": "15",
            "type": "t_mapping(t_uint256,t_struct(RaidingArmy)2710_storage)"
          },
          {
            "astId": 2558,
            "contract": "contracts/settling/facets/ArmyTrainingFacet.sol:ArmyTrainingFacet",
            "label": "defendingArmy",
            "offset": 0,
            "slot": "16",
            "type": "t_mapping(t_uint256,t_struct(DefendingArmy)2729_storage)"
          },
          {
            "astId": 2563,
            "contract": "contracts/settling/facets/ArmyTrainingFacet.sol:ArmyTrainingFacet",
            "label": "armyUnit",
            "offset": 0,
            "slot": "17",
            "type": "t_mapping(t_uint256,t_struct(ArmyUnit)2749_storage)"
          }
        ],
        "numberOfBytes": "576"
      },
      "t_struct(ArmyUnit)2749_storage": {
        "encoding": "inplace",
        "label": "struct ArmyUnit",
        "members": [
          {
            "astId": 2736,
            "contract": "contracts/settling/facets/ArmyTrainingFacet.sol:ArmyTrainingFacet",
            "label": "name",
            "offset": 0,
            "slot": "0",
            "type": "t_string_storage"
          },
          {
            "astId": 2738,
            "contract": "contracts/settling/facets/ArmyTrainingFacet.sol:ArmyTrainingFacet",
            "label": "timeToTrain",
            "offset": 0,
            "slot": "1",
            "type": "t_uint256"
          },
          {
            "astId": 2740,
            "contract": "contracts/settling/facets/ArmyTrainingFacet.sol:ArmyTrainingFacet",
            "label": "offence",
            "offset": 0,
            "slot": "2",
            "type": "t_uint32"
          },
          {
            "astId": 2742,
            "contract": "contracts/settling/facets/ArmyTrainingFacet.sol:ArmyTrainingFacet",
            "label": "defence",
            "offset": 4,
            "slot": "2",
            "type": "t_uint32"
          },
          {
            "astId": 2745,
            "contract": "contracts/settling/facets/ArmyTrainingFacet.sol:ArmyTrainingFacet",
            "label": "resourceIds",
            "offset": 0,
            "slot": "3",
            "type": "t_array(t_uint256)dyn_storage"
          },
          {
            "astId": 2748,
            "contract": "contracts/settling/facets/ArmyTrainingFacet.sol:ArmyTrainingFacet",
            "label": "resourceValues",
            "offset": 0,
            "slot": "4",
            "type": "t_array(t_uint256)dyn_storage"
          }
        ],
        "numberOfBytes": "160"
      },
      "t_struct(BuildingCosts)2659_storage": {
        "encoding": "inplace",
        "label": "struct BuildingCosts",
        "members": [
          {
            "astId": 2639,
            "contract": "contracts/settling/facets/ArmyTrainingFacet.sol:ArmyTrainingFacet",
            "label": "name",
            "offset": 0,
            "slot": "0",
            "type": "t_string_storage"
          },
          {
            "astId": 2642,
            "contract": "contracts/settling/facets/ArmyTrainingFacet.sol:ArmyTrainingFacet",
            "label": "resourceIds",
            "offset": 0,
            "slot": "1",
            "type": "t_array(t_uint32)dyn_storage"
          },
          {
            "astId": 2645,
            "contract": "contracts/settling/facets/ArmyTrainingFacet.sol:ArmyTrainingFacet",
            "label": "resourceValues",
            "offset": 0,
            "slot": "2",
            "type": "t_array(t_uint32)dyn_storage"
          },
          {
            "astId": 2648,
            "contract": "contracts/settling/facets/ArmyTrainingFacet.sol:ArmyTrainingFacet",
            "label": "requirements",
            "offset": 0,
            "slot": "3",
            "type": "t_array(t_uint32)dyn_storage"
          },
          {
            "astId": 2650,
            "contract": "contracts/settling/facets/ArmyTrainingFacet.sol:ArmyTrainingFacet",
            "label": "defence",
            "offset": 0,
            "slot": "4",
            "type": "t_int32"
          },
          {
            "astId": 2652,
            "contract": "contracts/settling/facets/ArmyTrainingFacet.sol:ArmyTrainingFacet",
            "label": "offence",
            "offset": 4,
            "slot": "4",
            "type": "t_int32"
          },
          {
            "astId": 2654,
            "contract": "contracts/settling/facets/ArmyTrainingFacet.sol:ArmyTrainingFacet",
            "label": "magic",
            "offset": 8,
            "slot": "4",
            "type": "t_int32"
          },
          {
            "astId": 2656,
            "contract": "contracts/settling/facets/ArmyTrainingFacet.sol:ArmyTrainingFacet",
            "label": "population",
            "offset": 12,
            "slot": "4",
            "type": "t_int32"
          },
          {
            "astId": 2658,
            "contract": "contracts/settling/facets/ArmyTrainingFacet.sol:ArmyTrainingFacet",
            "label": "food",
            "offset": 16,
            "slot": "4",
            "type": "t_int32"
          }
        ],
        "numberOfBytes": "160"
      },
      "t_struct(BuildingUpgradeCosts)2668_storage": {
        "encoding": "inplace",
        "label": "struct BuildingUpgradeCosts",
        "members": [
          {
            "astId": 2662,
            "contract": "contracts/settling/facets/ArmyTrainingFacet.sol:ArmyTrainingFacet",
            "label": "realmBuildings",
            "offset": 0,
            "slot": "0",
            "type": "t_array(t_uint8)dyn_storage"
          },
          {
            "astId": 2667,
            "contract": "contracts/settling/facets/ArmyTrainingFacet.sol:ArmyTrainingFacet",
            "label": "buildingCosts",
            "offset": 0,
            "slot": "1",
            "type": "t_mapping(t_uint256,t_struct(BuildingCosts)2659_storage)"
          }
        ],
        "numberOfBytes": "64"
      },
      "t_struct(DefendingArmy)2729_storage": {
        "encoding": "inplace",
        "label": "struct DefendingArmy",
        "members": [
          {
            "astId": 2712,
            "contract": "contracts/settling/facets/ArmyTrainingFacet.sol:ArmyTrainingFacet",
            "label": "trebuchetsTrained",
            "offset": 0,
            "slot": "0",
            "type": "t_uint32"
          },
          {
            "astId": 2714,
            "contract": "contracts/settling/facets/ArmyTrainingFacet.sol:ArmyTrainingFacet",
            "label": "trebuchetsSlayed",
            "offset": 4,
            "slot": "0",
            "type": "t_uint32"
          },
          {
            "astId": 2716,
            "contract": "contracts/settling/facets/ArmyTrainingFacet.sol:ArmyTrainingFacet",
            "label": "scorpionsTrained",
            "offset": 8,
            "slot": "0",
            "type": "t_uint32"
          },
          {
            "astId": 2718,
            "contract": "contracts/settling/facets/ArmyTrainingFacet.sol:ArmyTrainingFacet",
            "label": "scorpionsSlayed",
            "offset": 12,
            "slot": "0",
            "type": "t_uint32"
          },
          {
            "astId": 2723,
            "contract": "contracts/settling/facets/ArmyTrainingFacet.sol:ArmyTrainingFacet",
            "label": "trebuchets",
            "offset": 0,
            "slot": "1",
            "type": "t_mapping(t_uint256,t_struct(TrainedArmyUnit)2734_storage)"
          },
          {
            "astId": 2728,
            "contract": "contracts/settling/facets/ArmyTrainingFacet.sol:ArmyTrainingFacet",
            "label": "scorpions",
            "offset": 0,
            "slot": "2",
            "type": "t_mapping(t_uint256,t_struct(TrainedArmyUnit)2734_storage)"
          }
        ],
        "numberOfBytes": "96"
      },
      "t_struct(LevelProduction)2671_storage": {
        "encoding": "inplace",
        "label": "struct LevelProduction",
        "members": [
          {
            "astId": 2670,
            "contract": "contracts/settling/facets/ArmyTrainingFacet.sol:ArmyTrainingFacet",
            "label": "output",
            "offset": 0,
            "slot": "0",
            "type": "t_uint8"
          }
        ],
        "numberOfBytes": "32"
      },
      "t_struct(Raiding)2691_storage": {
        "encoding": "inplace",
        "label": "struct Raiding",
        "members": [
          {
            "astId": 2686,
            "contract": "contracts/settling/facets/ArmyTrainingFacet.sol:ArmyTrainingFacet",
            "label": "coolDownTime",
            "offset": 0,
            "slot": "0",
            "type": "t_uint256"
          },
          {
            "astId": 2688,
            "contract": "contracts/settling/facets/ArmyTrainingFacet.sol:ArmyTrainingFacet",
            "label": "totalRaids",
            "offset": 0,
            "slot": "1",
            "type": "t_uint256"
          },
          {
            "astId": 2690,
            "contract": "contracts/settling/facets/ArmyTrainingFacet.sol:ArmyTrainingFacet",
            "label": "successfulRaids",
            "offset": 0,
            "slot": "2",
            "type": "t_uint256"
          }
        ],
        "numberOfBytes": "96"
      },
      "t_struct(RaidingArmy)2710_storage": {
        "encoding": "inplace",
        "label": "struct RaidingArmy",
        "members": [
          {
            "astId": 2693,
            "contract": "contracts/settling/facets/ArmyTrainingFacet.sol:ArmyTrainingFacet",
            "label": "knightsTrained",
            "offset": 0,
            "slot": "0",
            "type": "t_uint32"
          },
          {
            "astId": 2695,
            "contract": "contracts/settling/facets/ArmyTrainingFacet.sol:ArmyTrainingFacet",
            "label": "knightsSlayed",
            "offset": 4,
            "slot": "0",
            "type": "t_uint32"
          },
          {
            "astId": 2697,
            "contract": "contracts/settling/facets/ArmyTrainingFacet.sol:ArmyTrainingFacet",
            "label": "footSoldiersTrained",
            "offset": 8,
            "slot": "0",
            "type": "t_uint32"
          },
          {
            "astId": 2699,
            "contract": "contracts/settling/facets/ArmyTrainingFacet.sol:ArmyTrainingFacet",
            "label": "footSoldiersSlayed",
            "offset": 12,
            "slot": "0",
            "type": "t_uint32"
          },
          {
            "astId": 2704,
            "contract": "contracts/settling/facets/ArmyTrainingFacet.sol:ArmyTrainingFacet",
            "label": "knights",
            "offset": 0,
            "slot": "1",
            "type": "t_mapping(t_uint256,t_struct(TrainedArmyUnit)2734_storage)"
          },
          {
            "astId": 2709,
            "contract": "contracts/settling/facets/ArmyTrainingFacet.sol:ArmyTrainingFacet",
            "label": "footSoldiers",
            "offset": 0,
            "slot": "2",
            "type": "t_mapping(t_uint256,t_struct(TrainedArmyUnit)2734_storage)"
          }
        ],
        "numberOfBytes": "96"
      },
      "t_struct(RealmInfo)2630_storage": {
        "encoding": "inplace",
        "label": "struct RealmInfo",
        "members": [
          {
            "astId": 2573,
            "contract": "contracts/settling/facets/ArmyTrainingFacet.sol:ArmyTrainingFacet",
            "label": "name",
            "offset": 0,
            "slot": "0",
            "type": "t_string_storage"
          },
          {
            "astId": 2575,
            "contract": "contracts/settling/facets/ArmyTrainingFacet.sol:ArmyTrainingFacet",
            "label": "lastUpdateAt",
            "offset": 0,
            "slot": "1",
            "type": "t_uint256"
          },
          {
            "astId": 2577,
            "contract": "contracts/settling/facets/ArmyTrainingFacet.sol:ArmyTrainingFacet",
            "label": "vestedTimeUpdatedAt",
            "offset": 0,
            "slot": "2",
            "type": "t_uint256"
          },
          {
            "astId": 2579,
            "contract": "contracts/settling/facets/ArmyTrainingFacet.sol:ArmyTrainingFacet",
            "label": "ageSettled",
            "offset": 0,
            "slot": "3",
            "type": "t_uint256"
          },
          {
            "astId": 2581,
            "contract": "contracts/settling/facets/ArmyTrainingFacet.sol:ArmyTrainingFacet",
            "label": "ageClaimed",
            "offset": 0,
            "slot": "4",
            "type": "t_uint256"
          },
          {
            "astId": 2584,
            "contract": "contracts/settling/facets/ArmyTrainingFacet.sol:ArmyTrainingFacet",
            "label": "resourceIds",
            "offset": 0,
            "slot": "5",
            "type": "t_array(t_uint256)dyn_storage"
          },
          {
            "astId": 2586,
            "contract": "contracts/settling/facets/ArmyTrainingFacet.sol:ArmyTrainingFacet",
            "label": "cities",
            "offset": 0,
            "slot": "6",
            "type": "t_uint8"
          },
          {
            "astId": 2588,
            "contract": "contracts/settling/facets/ArmyTrainingFacet.sol:ArmyTrainingFacet",
            "label": "harbours",
            "offset": 1,
            "slot": "6",
            "type": "t_uint8"
          },
          {
            "astId": 2590,
            "contract": "contracts/settling/facets/ArmyTrainingFacet.sol:ArmyTrainingFacet",
            "label": "rivers",
            "offset": 2,
            "slot": "6",
            "type": "t_uint8"
          },
          {
            "astId": 2592,
            "contract": "contracts/settling/facets/ArmyTrainingFacet.sol:ArmyTrainingFacet",
            "label": "regions",
            "offset": 3,
            "slot": "6",
            "type": "t_uint8"
          },
          {
            "astId": 2594,
            "contract": "contracts/settling/facets/ArmyTrainingFacet.sol:ArmyTrainingFacet",
            "label": "wonders",
            "offset": 4,
            "slot": "6",
            "type": "t_uint8"
          },
          {
            "astId": 2596,
            "contract": "contracts/settling/facets/ArmyTrainingFacet.sol:ArmyTrainingFacet",
            "label": "orderOf",
            "offset": 5,
            "slot": "6",
            "type": "t_uint8"
          },
          {
            "astId": 2598,
            "contract": "contracts/settling/facets/ArmyTrainingFacet.sol:ArmyTrainingFacet",
            "label": "aquaducts",
            "offset": 6,
            "slot": "6",
            "type": "t_uint8"
          },
          {
            "astId": 2600,
            "contract": "contracts/settling/facets/ArmyTrainingFacet.sol:ArmyTrainingFacet",
            "label": "temples",
            "offset": 7,
            "slot": "6",
            "type": "t_uint8"
          },
          {
            "astId": 2602,
            "contract": "contracts/settling/facets/ArmyTrainingFacet.sol:ArmyTrainingFacet",
            "label": "castles",
            "offset": 8,
            "slot": "6",
            "type": "t_uint8"
          },
          {
            "astId": 2604,
            "contract": "contracts/settling/facets/ArmyTrainingFacet.sol:ArmyTrainingFacet",
            "label": "markets",
            "offset": 9,
            "slot": "6",
            "type": "t_uint8"
          },
          {
            "astId": 2606,
            "contract": "contracts/settling/facets/ArmyTrainingFacet.sol:ArmyTrainingFacet",
            "label": "ports",
            "offset": 10,
            "slot": "6",
            "type": "t_uint8"
          },
          {
            "astId": 2608,
            "contract": "contracts/settling/facets/ArmyTrainingFacet.sol:ArmyTrainingFacet",
            "label": "barracks",
            "offset": 11,
            "slot": "6",
            "type": "t_uint8"
          },
          {
            "astId": 2610,
            "contract": "contracts/settling/facets/ArmyTrainingFacet.sol:ArmyTrainingFacet",
            "label": "farms",
            "offset": 12,
            "slot": "6",
            "type": "t_uint8"
          },
          {
            "astId": 2612,
            "contract": "contracts/settling/facets/ArmyTrainingFacet.sol:ArmyTrainingFacet",
            "label": "shipyard",
            "offset": 13,
            "slot": "6",
            "type": "t_uint8"
          },
          {
            "astId": 2614,
            "contract": "contracts/settling/facets/ArmyTrainingFacet.sol:ArmyTrainingFacet",
            "label": "fishingVillage",
            "offset": 14,
            "slot": "6",
            "type": "t_uint8"
          },
          {
            "astId": 2616,
            "contract": "contracts/settling/facets/ArmyTrainingFacet.sol:ArmyTrainingFacet",
            "label": "realmDefence",
            "offset": 15,
            "slot": "6",
            "type": "t_int32"
          },
          {
            "astId": 2618,
            "contract": "contracts/settling/facets/ArmyTrainingFacet.sol:ArmyTrainingFacet",
            "label": "realmOffence",
            "offset": 19,
            "slot": "6",
            "type": "t_int32"
          },
          {
            "astId": 2620,
            "contract": "contracts/settling/facets/ArmyTrainingFacet.sol:ArmyTrainingFacet",
            "label": "realmMagic",
            "offset": 23,
            "slot": "6",
            "type": "t_int32"
          },
          {
            "astId": 2622,
            "contract": "contracts/settling/facets/ArmyTrainingFacet.sol:ArmyTrainingFacet",
            "label": "foodSupply",
            "offset": 27,
            "slot": "6",
            "type": "t_int32"
          },
          {
            "astId": 2624,
            "contract": "contracts/settling/facets/ArmyTrainingFacet.sol:ArmyTrainingFacet",
            "label": "population",
            "offset": 0,
            "slot": "7",
            "type": "t_int32"
          },
          {
            "astId": 2629,
            "contract": "contracts/settling/facets/ArmyTrainingFacet.sol:ArmyTrainingFacet",
            "label": "resourceInfo",
            "offset": 0,
            "slot": "8",
            "type": "t_mapping(t_uint256,t_struct(ResourceInfo)2637_storage)"
          }
        ],
        "numberOfBytes": "288"
      },
      "t_struct(ResourceInfo)2637_storage": {
        "encoding": "inplace",
        "label": "struct ResourceInfo",
        "members": [
          {
            "astId": 2632,
            "contract": "contracts/settling/facets/ArmyTrainingFacet.sol:ArmyTrainingFacet",
            "label": "id",
            "offset": 0,
            "slot": "0",
            "type": "t_uint8"
          },
          {
            "astId": 2634,
            "contract": "contracts/settling/facets/ArmyTrainingFacet.sol:ArmyTrainingFacet",
            "label": "level",
            "offset": 1,
            "slot": "0",
            "type": "t_uint8"
          },
          {
            "astId": 2636,
            "contract": "contracts/settling/facets/ArmyTrainingFacet.sol:ArmyTrainingFacet",
            "label": "production",
            "offset": 2,
            "slot": "0",
            "type": "t_uint8"
          }
        ],
        "numberOfBytes": "32"
      },
      "t_struct(TheAges)2571_storage": {
        "encoding": "inplace",
        "label": "struct TheAges",
        "members": [
          {
            "astId": 2566,
            "contract": "contracts/settling/facets/ArmyTrainingFacet.sol:ArmyTrainingFacet",
            "label": "settledRealms",
            "offset": 0,
            "slot": "0",
            "type": "t_uint256"
          },
          {
            "astId": 2568,
            "contract": "contracts/settling/facets/ArmyTrainingFacet.sol:ArmyTrainingFacet",
            "label": "ageStart",
            "offset": 0,
            "slot": "1",
            "type": "t_uint256"
          },
          {
            "astId": 2570,
            "contract": "contracts/settling/facets/ArmyTrainingFacet.sol:ArmyTrainingFacet",
            "label": "ageFinish",
            "offset": 0,
            "slot": "2",
            "type": "t_uint256"
          }
        ],
        "numberOfBytes": "96"
      },
      "t_struct(TrainedArmyUnit)2734_storage": {
        "encoding": "inplace",
        "label": "struct TrainedArmyUnit",
        "members": [
          {
            "astId": 2731,
            "contract": "contracts/settling/facets/ArmyTrainingFacet.sol:ArmyTrainingFacet",
            "label": "destroyed",
            "offset": 0,
            "slot": "0",
            "type": "t_bool"
          },
          {
            "astId": 2733,
            "contract": "contracts/settling/facets/ArmyTrainingFacet.sol:ArmyTrainingFacet",
            "label": "unitFinished",
            "offset": 0,
            "slot": "1",
            "type": "t_uint256"
          }
        ],
        "numberOfBytes": "64"
      },
      "t_struct(UpgradeCostLevels)2684_storage": {
        "encoding": "inplace",
        "label": "struct UpgradeCostLevels",
        "members": [
          {
            "astId": 2683,
            "contract": "contracts/settling/facets/ArmyTrainingFacet.sol:ArmyTrainingFacet",
            "label": "value",
            "offset": 0,
            "slot": "0",
            "type": "t_array(t_uint256)dyn_storage"
          }
        ],
        "numberOfBytes": "32"
      },
      "t_struct(UpgradeCosts)2680_storage": {
        "encoding": "inplace",
        "label": "struct UpgradeCosts",
        "members": [
          {
            "astId": 2674,
            "contract": "contracts/settling/facets/ArmyTrainingFacet.sol:ArmyTrainingFacet",
            "label": "resourceIds",
            "offset": 0,
            "slot": "0",
            "type": "t_array(t_uint8)dyn_storage"
          },
          {
            "astId": 2679,
            "contract": "contracts/settling/facets/ArmyTrainingFacet.sol:ArmyTrainingFacet",
            "label": "upgradeCostLevels",
            "offset": 0,
            "slot": "1",
            "type": "t_mapping(t_uint256,t_struct(UpgradeCostLevels)2684_storage)"
          }
        ],
        "numberOfBytes": "64"
      },
      "t_uint256": {
        "encoding": "inplace",
        "label": "uint256",
        "numberOfBytes": "32"
      },
      "t_uint32": {
        "encoding": "inplace",
        "label": "uint32",
        "numberOfBytes": "4"
      },
      "t_uint8": {
        "encoding": "inplace",
        "label": "uint8",
        "numberOfBytes": "1"
      }
    }
  }
}