{
  "address": "0xBC97c3679078227f8E81FF6B0416B630109A7aB2",
  "abi": [
    {
      "inputs": [
        {
          "internalType": "uint256",
          "name": "_tokenId",
          "type": "uint256"
        },
        {
          "internalType": "uint32",
          "name": "_id",
          "type": "uint32"
        },
        {
          "internalType": "uint32",
          "name": "_quantity",
          "type": "uint32"
        },
        {
          "internalType": "uint256[]",
          "name": "_resourceIds",
          "type": "uint256[]"
        },
        {
          "internalType": "uint256[]",
          "name": "_resourceValues",
          "type": "uint256[]"
        }
      ],
      "name": "buildRaidingArmy",
      "outputs": [],
      "stateMutability": "payable",
      "type": "function"
    },
    {
      "inputs": [
        {
          "internalType": "uint256",
          "name": "_tokenId",
          "type": "uint256"
        }
      ],
      "name": "getRaidingArmy",
      "outputs": [
        {
          "internalType": "uint256",
          "name": "",
          "type": "uint256"
        },
        {
          "internalType": "uint256",
          "name": "",
          "type": "uint256"
        }
      ],
      "stateMutability": "view",
      "type": "function"
    },
    {
      "inputs": [
        {
          "internalType": "uint256",
          "name": "_unitId",
          "type": "uint256"
        }
      ],
      "name": "getUnitCost",
      "outputs": [
        {
          "internalType": "uint256[]",
          "name": "",
          "type": "uint256[]"
        },
        {
          "internalType": "uint256[]",
          "name": "",
          "type": "uint256[]"
        }
      ],
      "stateMutability": "view",
      "type": "function"
    }
  ],
  "transactionHash": "0xea06d5663867041d06f476b1c0a98a372e6cd92f6a610354c1551e02607baf93",
  "args": [],
  "solcInputHash": "0cfb688ce6a24e2b79ac4313d4f1d010",
  "bytecode": "0x608060405234801561001057600080fd5b506115f3806100206000396000f3fe6080604052600436106100345760003560e01c8063b7283f4114610039578063c19cfd6b14610077578063cca32e83146100b5575b600080fd5b34801561004557600080fd5b50610060600480360381019061005b9190610d92565b6100d1565b60405161006e929190610ff9565b60405180910390f35b34801561008357600080fd5b5061009e60048036038101906100999190610d92565b6102a4565b6040516100ac9291906110eb565b60405180910390f35b6100cf60048036038101906100ca9190610dbb565b610344565b005b60608060008060110160008581526020019081526020016000206040518060c001604052908160008201805461010690611361565b80601f016020809104026020016040519081016040528092919081815260200182805461013290611361565b801561017f5780601f106101545761010080835404028352916020019161017f565b820191906000526020600020905b81548152906001019060200180831161016257829003601f168201915b50505050508152602001600182015481526020016002820160009054906101000a900463ffffffff1663ffffffff1663ffffffff1681526020016002820160049054906101000a900463ffffffff1663ffffffff1663ffffffff1681526020016003820180548060200260200160405190810160405280929190818152602001828054801561022d57602002820191906000526020600020905b815481526020019060010190808311610219575b505050505081526020016004820180548060200260200160405190810160405280929190818152602001828054801561028557602002820191906000526020600020905b815481526020019060010190808311610271575b505050505081525050905080608001518160a001519250925050915091565b600080600080600f01600085815260200190815260200160002090508060000160049054906101000a900463ffffffff168160000160009054906101000a900463ffffffff166102f491906112d4565b81600001600c9054906101000a900463ffffffff168260000160089054906101000a900463ffffffff1661032891906112d4565b8163ffffffff1691508063ffffffff1690509250925050915091565b8460008060010160009054906101000a900473ffffffffffffffffffffffffffffffffffffffff1690508073ffffffffffffffffffffffffffffffffffffffff16636352211e836040518263ffffffff1660e01b81526004016103a791906110d0565b60206040518083038186803b1580156103bf57600080fd5b505afa1580156103d3573d6000803e3d6000fd5b505050506040513d601f19601f820116820180604052508101906103f79190610d69565b73ffffffffffffffffffffffffffffffffffffffff163373ffffffffffffffffffffffffffffffffffffffff1614610464576040517f08c379a000000000000000000000000000000000000000000000000000000000815260040161045b90611050565b60405180910390fd5b600080600f016000898152602001908152602001600020905060008060000160008a8152602001908152602001600020905060008060110160008a63ffffffff1681526020019081526020016000206040518060c00160405290816000820180546104ce90611361565b80601f01602080910402602001604051908101604052809291908181526020018280546104fa90611361565b80156105475780601f1061051c57610100808354040283529160200191610547565b820191906000526020600020905b81548152906001019060200180831161052a57829003601f168201915b50505050508152602001600182015481526020016002820160009054906101000a900463ffffffff1663ffffffff1663ffffffff1681526020016002820160049054906101000a900463ffffffff1663ffffffff1663ffffffff168152602001600382018054806020026020016040519081016040528092919081815260200182805480156105f557602002820191906000526020600020905b8154815260200190600101908083116105e1575b505050505081526020016004820180548060200260200160405190810160405280929190818152602001828054801561064d57602002820191906000526020600020905b815481526020019060010190808311610639575b505050505081525050905060008863ffffffff16116106a1576040517f08c379a000000000000000000000000000000000000000000000000000000000815260040161069890611090565b60405180910390fd5b60005b81608001515181101561087257816080015181815181106106ee577f4e487b7100000000000000000000000000000000000000000000000000000000600052603260045260246000fd5b602002602001015188828151811061072f577f4e487b7100000000000000000000000000000000000000000000000000000000600052603260045260246000fd5b602002602001015114610777576040517f08c379a000000000000000000000000000000000000000000000000000000000815260040161076e90611070565b60405180910390fd5b8863ffffffff168260a0015182815181106107bb577f4e487b7100000000000000000000000000000000000000000000000000000000600052603260045260246000fd5b60200260200101516107cd919061123f565b8963ffffffff1688838151811061080d577f4e487b7100000000000000000000000000000000000000000000000000000000600052603260045260246000fd5b602002602001015161081f919061123f565b1461085f576040517f08c379a0000000000000000000000000000000000000000000000000000000008152600401610856906110b0565b60405180910390fd5b808061086a906113c4565b9150506106a4565b50600060058360060160089054906101000a900460ff166108939190611299565b60ff169050808985600001600c9054906101000a900463ffffffff168660000160089054906101000a900463ffffffff166108ce91906112d4565b8660000160049054906101000a900463ffffffff168760000160009054906101000a900463ffffffff1661090291906112d4565b61090c9190611205565b6109169190611205565b63ffffffff16111561095d576040517f08c379a000000000000000000000000000000000000000000000000000000000815260040161095490611030565b60405180910390fd5b60008a63ffffffff161415610a9f57888460000160008282829054906101000a900463ffffffff1661098f9190611205565b92506101000a81548163ffffffff021916908363ffffffff16021790555060005b8963ffffffff16811015610a99576000428660010160008860000160009054906101000a900463ffffffff1663ffffffff16815260200190815260200160002060010154116109ff5742610a33565b8560010160008760000160009054906101000a900463ffffffff1663ffffffff168152602001908152602001600020600101545b905061384081610a4391906111af565b86600101600060018960000160009054906101000a900463ffffffff16610a6a9190611205565b63ffffffff16815260200190815260200160002060010181905550508080610a91906113c4565b9150506109b0565b50610bde565b60018a63ffffffff161415610bdd57888460000160088282829054906101000a900463ffffffff16610ad19190611205565b92506101000a81548163ffffffff021916908363ffffffff16021790555060005b8963ffffffff16811015610bdb576000428660020160008860000160089054906101000a900463ffffffff1663ffffffff1681526020019081526020016000206001015411610b415742610b75565b8560020160008760000160089054906101000a900463ffffffff1663ffffffff168152602001908152602001600020600101545b905061384081610b8591906111af565b86600201600060018960000160089054906101000a900463ffffffff16610bac9190611205565b63ffffffff16815260200190815260200160002060010181905550508080610bd3906113c4565b915050610af2565b505b5b610be9338989610bf6565b5050505050505050505050565b60008060050160009054906101000a900473ffffffffffffffffffffffffffffffffffffffff1690508073ffffffffffffffffffffffffffffffffffffffff16638a5d94468585856040518463ffffffff1660e01b8152600401610c5c93929190610fb4565b600060405180830381600087803b158015610c7657600080fd5b505af1158015610c8a573d6000803e3d6000fd5b5050505050505050565b6000610ca7610ca284611139565b611114565b90508083825260208201905082856020860282011115610cc657600080fd5b60005b85811015610cf65781610cdc8882610d3f565b845260208401935060208301925050600181019050610cc9565b5050509392505050565b600081519050610d0f81611578565b92915050565b600082601f830112610d2657600080fd5b8135610d36848260208601610c94565b91505092915050565b600081359050610d4e8161158f565b92915050565b600081359050610d63816115a6565b92915050565b600060208284031215610d7b57600080fd5b6000610d8984828501610d00565b91505092915050565b600060208284031215610da457600080fd5b6000610db284828501610d3f565b91505092915050565b600080600080600060a08688031215610dd357600080fd5b6000610de188828901610d3f565b9550506020610df288828901610d54565b9450506040610e0388828901610d54565b935050606086013567ffffffffffffffff811115610e2057600080fd5b610e2c88828901610d15565b925050608086013567ffffffffffffffff811115610e4957600080fd5b610e5588828901610d15565b9150509295509295909350565b6000610e6e8383610f96565b60208301905092915050565b610e8381611308565b82525050565b6000610e9482611175565b610e9e818561118d565b9350610ea983611165565b8060005b83811015610eda578151610ec18882610e62565b9750610ecc83611180565b925050600181019050610ead565b5085935050505092915050565b6000610ef460118361119e565b9150610eff826114ab565b602082019050919050565b6000610f1760198361119e565b9150610f22826114d4565b602082019050919050565b6000610f3a60128361119e565b9150610f45826114fd565b602082019050919050565b6000610f5d60168361119e565b9150610f6882611526565b602082019050919050565b6000610f80601a8361119e565b9150610f8b8261154f565b602082019050919050565b610f9f8161133a565b82525050565b610fae8161133a565b82525050565b6000606082019050610fc96000830186610e7a565b8181036020830152610fdb8185610e89565b90508181036040830152610fef8184610e89565b9050949350505050565b600060408201905081810360008301526110138185610e89565b905081810360208301526110278184610e89565b90509392505050565b6000602082019050818103600083015261104981610ee7565b9050919050565b6000602082019050818103600083015261106981610f0a565b9050919050565b6000602082019050818103600083015261108981610f2d565b9050919050565b600060208201905081810360008301526110a981610f50565b9050919050565b600060208201905081810360008301526110c981610f73565b9050919050565b60006020820190506110e56000830184610fa5565b92915050565b60006040820190506111006000830185610fa5565b61110d6020830184610fa5565b9392505050565b600061111e61112f565b905061112a8282611393565b919050565b6000604051905090565b600067ffffffffffffffff8211156111545761115361146b565b5b602082029050602081019050919050565b6000819050602082019050919050565b600081519050919050565b6000602082019050919050565b600082825260208201905092915050565b600082825260208201905092915050565b60006111ba8261133a565b91506111c58361133a565b9250827fffffffffffffffffffffffffffffffffffffffffffffffffffffffffffffffff038211156111fa576111f961140d565b5b828201905092915050565b600061121082611344565b915061121b83611344565b92508263ffffffff038211156112345761123361140d565b5b828201905092915050565b600061124a8261133a565b91506112558361133a565b9250817fffffffffffffffffffffffffffffffffffffffffffffffffffffffffffffffff048311821515161561128e5761128d61140d565b5b828202905092915050565b60006112a482611354565b91506112af83611354565b92508160ff04831182151516156112c9576112c861140d565b5b828202905092915050565b60006112df82611344565b91506112ea83611344565b9250828210156112fd576112fc61140d565b5b828203905092915050565b60006113138261131a565b9050919050565b600073ffffffffffffffffffffffffffffffffffffffff82169050919050565b6000819050919050565b600063ffffffff82169050919050565b600060ff82169050919050565b6000600282049050600182168061137957607f821691505b6020821081141561138d5761138c61143c565b5b50919050565b61139c8261149a565b810181811067ffffffffffffffff821117156113bb576113ba61146b565b5b80604052505050565b60006113cf8261133a565b91507fffffffffffffffffffffffffffffffffffffffffffffffffffffffffffffffff8214156114025761140161140d565b5b600182019050919050565b7f4e487b7100000000000000000000000000000000000000000000000000000000600052601160045260246000fd5b7f4e487b7100000000000000000000000000000000000000000000000000000000600052602260045260246000fd5b7f4e487b7100000000000000000000000000000000000000000000000000000000600052604160045260246000fd5b6000601f19601f8301169050919050565b7f4e4f5f53504143455f464f525f554e4954000000000000000000000000000000600082015250565b7f596f7520646f206e6f74206f776e2074686973205265616c6d00000000000000600082015250565b7f496e636f7272656374207265736f757263650000000000000000000000000000600082015250565b7f4d55535420545241494e204d4f5245205448414e203100000000000000000000600082015250565b7f496e636f7272656374207265736f75726365732076616c756573000000000000600082015250565b61158181611308565b811461158c57600080fd5b50565b6115988161133a565b81146115a357600080fd5b50565b6115af81611344565b81146115ba57600080fd5b5056fea26469706673582212204619c859cc39197449e2aa4c644662b344f030348344b28e246599b5d1f21aa164736f6c63430008030033",
  "devdoc": {
    "kind": "dev",
    "methods": {
      "buildRaidingArmy(uint256,uint32,uint32,uint256[],uint256[])": {
        "params": {
          "_id": "Id of Unit",
          "_quantity": "Quantity of units to train",
          "_resourceIds": "Resources to spend on units",
          "_resourceValues": "Resource values to spend",
          "_tokenId": "Id of realm"
        }
      }
    },
    "version": 1
  },
  "userdoc": {
    "kind": "user",
    "methods": {
      "buildRaidingArmy(uint256,uint32,uint32,uint256[],uint256[])": {
        "notice": "Builds Army"
      }
    },
    "version": 1
  },
  "storageLayout": {
    "storage": [
      {
        "astId": 3298,
        "contract": "contracts/settling/facets/ArmyTrainingFacet.sol:ArmyTrainingFacet",
        "label": "s",
        "offset": 0,
        "slot": "0",
        "type": "t_struct(AppStorage)2244_storage"
      }
    ],
    "types": {
      "t_address": {
        "encoding": "inplace",
        "label": "address",
        "numberOfBytes": "20"
      },
      "t_array(t_uint256)dyn_storage": {
        "base": "t_uint256",
        "encoding": "dynamic_array",
        "label": "uint256[]",
        "numberOfBytes": "32"
      },
      "t_array(t_uint32)dyn_storage": {
        "base": "t_uint32",
        "encoding": "dynamic_array",
        "label": "uint32[]",
        "numberOfBytes": "32"
      },
      "t_array(t_uint8)dyn_storage": {
        "base": "t_uint8",
        "encoding": "dynamic_array",
        "label": "uint8[]",
        "numberOfBytes": "32"
      },
      "t_bool": {
        "encoding": "inplace",
        "label": "bool",
        "numberOfBytes": "1"
      },
      "t_int32": {
        "encoding": "inplace",
        "label": "int32",
        "numberOfBytes": "4"
      },
      "t_mapping(t_uint256,t_struct(ArmyUnit)2429_storage)": {
        "encoding": "mapping",
        "key": "t_uint256",
        "label": "mapping(uint256 => struct ArmyUnit)",
        "numberOfBytes": "32",
        "value": "t_struct(ArmyUnit)2429_storage"
      },
      "t_mapping(t_uint256,t_struct(BuildingCosts)2339_storage)": {
        "encoding": "mapping",
        "key": "t_uint256",
        "label": "mapping(uint256 => struct BuildingCosts)",
        "numberOfBytes": "32",
        "value": "t_struct(BuildingCosts)2339_storage"
      },
      "t_mapping(t_uint256,t_struct(BuildingUpgradeCosts)2348_storage)": {
        "encoding": "mapping",
        "key": "t_uint256",
        "label": "mapping(uint256 => struct BuildingUpgradeCosts)",
        "numberOfBytes": "32",
        "value": "t_struct(BuildingUpgradeCosts)2348_storage"
      },
      "t_mapping(t_uint256,t_struct(DefendingArmy)2409_storage)": {
        "encoding": "mapping",
        "key": "t_uint256",
        "label": "mapping(uint256 => struct DefendingArmy)",
        "numberOfBytes": "32",
        "value": "t_struct(DefendingArmy)2409_storage"
      },
      "t_mapping(t_uint256,t_struct(LevelProduction)2351_storage)": {
        "encoding": "mapping",
        "key": "t_uint256",
        "label": "mapping(uint256 => struct LevelProduction)",
        "numberOfBytes": "32",
        "value": "t_struct(LevelProduction)2351_storage"
      },
      "t_mapping(t_uint256,t_struct(Raiding)2371_storage)": {
        "encoding": "mapping",
        "key": "t_uint256",
        "label": "mapping(uint256 => struct Raiding)",
        "numberOfBytes": "32",
        "value": "t_struct(Raiding)2371_storage"
      },
      "t_mapping(t_uint256,t_struct(RaidingArmy)2390_storage)": {
        "encoding": "mapping",
        "key": "t_uint256",
        "label": "mapping(uint256 => struct RaidingArmy)",
        "numberOfBytes": "32",
        "value": "t_struct(RaidingArmy)2390_storage"
      },
      "t_mapping(t_uint256,t_struct(RealmInfo)2310_storage)": {
        "encoding": "mapping",
        "key": "t_uint256",
        "label": "mapping(uint256 => struct RealmInfo)",
        "numberOfBytes": "32",
        "value": "t_struct(RealmInfo)2310_storage"
      },
      "t_mapping(t_uint256,t_struct(ResourceInfo)2317_storage)": {
        "encoding": "mapping",
        "key": "t_uint256",
        "label": "mapping(uint256 => struct ResourceInfo)",
        "numberOfBytes": "32",
        "value": "t_struct(ResourceInfo)2317_storage"
      },
      "t_mapping(t_uint256,t_struct(TheAges)2251_storage)": {
        "encoding": "mapping",
        "key": "t_uint256",
        "label": "mapping(uint256 => struct TheAges)",
        "numberOfBytes": "32",
        "value": "t_struct(TheAges)2251_storage"
      },
      "t_mapping(t_uint256,t_struct(TrainedArmyUnit)2414_storage)": {
        "encoding": "mapping",
        "key": "t_uint256",
        "label": "mapping(uint256 => struct TrainedArmyUnit)",
        "numberOfBytes": "32",
        "value": "t_struct(TrainedArmyUnit)2414_storage"
      },
      "t_mapping(t_uint256,t_struct(UpgradeCostLevels)2364_storage)": {
        "encoding": "mapping",
        "key": "t_uint256",
        "label": "mapping(uint256 => struct UpgradeCostLevels)",
        "numberOfBytes": "32",
        "value": "t_struct(UpgradeCostLevels)2364_storage"
      },
      "t_mapping(t_uint256,t_struct(UpgradeCosts)2360_storage)": {
        "encoding": "mapping",
        "key": "t_uint256",
        "label": "mapping(uint256 => struct UpgradeCosts)",
        "numberOfBytes": "32",
        "value": "t_struct(UpgradeCosts)2360_storage"
      },
      "t_string_storage": {
        "encoding": "bytes",
        "label": "string",
        "numberOfBytes": "32"
      },
      "t_struct(AppStorage)2244_storage": {
        "encoding": "inplace",
        "label": "struct AppStorage",
        "members": [
          {
            "astId": 2182,
            "contract": "contracts/settling/facets/ArmyTrainingFacet.sol:ArmyTrainingFacet",
            "label": "realmInfo",
            "offset": 0,
            "slot": "0",
            "type": "t_mapping(t_uint256,t_struct(RealmInfo)2310_storage)"
          },
          {
            "astId": 2184,
            "contract": "contracts/settling/facets/ArmyTrainingFacet.sol:ArmyTrainingFacet",
            "label": "sRealms",
            "offset": 0,
            "slot": "1",
            "type": "t_address"
          },
          {
            "astId": 2186,
            "contract": "contracts/settling/facets/ArmyTrainingFacet.sol:ArmyTrainingFacet",
            "label": "realms",
            "offset": 0,
            "slot": "2",
            "type": "t_address"
          },
          {
            "astId": 2188,
            "contract": "contracts/settling/facets/ArmyTrainingFacet.sol:ArmyTrainingFacet",
            "label": "realmsStorage",
            "offset": 0,
            "slot": "3",
            "type": "t_address"
          },
          {
            "astId": 2190,
            "contract": "contracts/settling/facets/ArmyTrainingFacet.sol:ArmyTrainingFacet",
            "label": "treasury",
            "offset": 0,
            "slot": "4",
            "type": "t_address"
          },
          {
            "astId": 2192,
            "contract": "contracts/settling/facets/ArmyTrainingFacet.sol:ArmyTrainingFacet",
            "label": "resources",
            "offset": 0,
            "slot": "5",
            "type": "t_address"
          },
          {
            "astId": 2194,
            "contract": "contracts/settling/facets/ArmyTrainingFacet.sol:ArmyTrainingFacet",
            "label": "oracle",
            "offset": 0,
            "slot": "6",
            "type": "t_address"
          },
          {
            "astId": 2196,
            "contract": "contracts/settling/facets/ArmyTrainingFacet.sol:ArmyTrainingFacet",
            "label": "lords",
            "offset": 0,
            "slot": "7",
            "type": "t_address"
          },
          {
            "astId": 2201,
            "contract": "contracts/settling/facets/ArmyTrainingFacet.sol:ArmyTrainingFacet",
            "label": "levelProduction",
            "offset": 0,
            "slot": "8",
            "type": "t_mapping(t_uint256,t_struct(LevelProduction)2351_storage)"
          },
          {
            "astId": 2206,
            "contract": "contracts/settling/facets/ArmyTrainingFacet.sol:ArmyTrainingFacet",
            "label": "upgradeCosts",
            "offset": 0,
            "slot": "9",
            "type": "t_mapping(t_uint256,t_struct(UpgradeCosts)2360_storage)"
          },
          {
            "astId": 2211,
            "contract": "contracts/settling/facets/ArmyTrainingFacet.sol:ArmyTrainingFacet",
            "label": "buildingUpgradeCosts",
            "offset": 0,
            "slot": "10",
            "type": "t_mapping(t_uint256,t_struct(BuildingUpgradeCosts)2348_storage)"
          },
          {
            "astId": 2216,
            "contract": "contracts/settling/facets/ArmyTrainingFacet.sol:ArmyTrainingFacet",
            "label": "buildingCosts",
            "offset": 0,
            "slot": "11",
            "type": "t_mapping(t_uint256,t_struct(BuildingCosts)2339_storage)"
          },
          {
            "astId": 2221,
            "contract": "contracts/settling/facets/ArmyTrainingFacet.sol:ArmyTrainingFacet",
            "label": "theAges",
            "offset": 0,
            "slot": "12",
            "type": "t_mapping(t_uint256,t_struct(TheAges)2251_storage)"
          },
          {
            "astId": 2223,
            "contract": "contracts/settling/facets/ArmyTrainingFacet.sol:ArmyTrainingFacet",
            "label": "genesisTime",
            "offset": 0,
            "slot": "13",
            "type": "t_uint256"
          },
          {
            "astId": 2228,
            "contract": "contracts/settling/facets/ArmyTrainingFacet.sol:ArmyTrainingFacet",
            "label": "raiding",
            "offset": 0,
            "slot": "14",
            "type": "t_mapping(t_uint256,t_struct(Raiding)2371_storage)"
          },
          {
            "astId": 2233,
            "contract": "contracts/settling/facets/ArmyTrainingFacet.sol:ArmyTrainingFacet",
            "label": "raidingArmy",
            "offset": 0,
            "slot": "15",
            "type": "t_mapping(t_uint256,t_struct(RaidingArmy)2390_storage)"
          },
          {
            "astId": 2238,
            "contract": "contracts/settling/facets/ArmyTrainingFacet.sol:ArmyTrainingFacet",
            "label": "defendingArmy",
            "offset": 0,
            "slot": "16",
            "type": "t_mapping(t_uint256,t_struct(DefendingArmy)2409_storage)"
          },
          {
            "astId": 2243,
            "contract": "contracts/settling/facets/ArmyTrainingFacet.sol:ArmyTrainingFacet",
            "label": "armyUnit",
            "offset": 0,
            "slot": "17",
            "type": "t_mapping(t_uint256,t_struct(ArmyUnit)2429_storage)"
          }
        ],
        "numberOfBytes": "576"
      },
      "t_struct(ArmyUnit)2429_storage": {
        "encoding": "inplace",
        "label": "struct ArmyUnit",
        "members": [
          {
            "astId": 2416,
            "contract": "contracts/settling/facets/ArmyTrainingFacet.sol:ArmyTrainingFacet",
            "label": "name",
            "offset": 0,
            "slot": "0",
            "type": "t_string_storage"
          },
          {
            "astId": 2418,
            "contract": "contracts/settling/facets/ArmyTrainingFacet.sol:ArmyTrainingFacet",
            "label": "timeToTrain",
            "offset": 0,
            "slot": "1",
            "type": "t_uint256"
          },
          {
            "astId": 2420,
            "contract": "contracts/settling/facets/ArmyTrainingFacet.sol:ArmyTrainingFacet",
            "label": "offence",
            "offset": 0,
            "slot": "2",
            "type": "t_uint32"
          },
          {
            "astId": 2422,
            "contract": "contracts/settling/facets/ArmyTrainingFacet.sol:ArmyTrainingFacet",
            "label": "defence",
            "offset": 4,
            "slot": "2",
            "type": "t_uint32"
          },
          {
            "astId": 2425,
            "contract": "contracts/settling/facets/ArmyTrainingFacet.sol:ArmyTrainingFacet",
            "label": "resourceIds",
            "offset": 0,
            "slot": "3",
            "type": "t_array(t_uint256)dyn_storage"
          },
          {
            "astId": 2428,
            "contract": "contracts/settling/facets/ArmyTrainingFacet.sol:ArmyTrainingFacet",
            "label": "resourceValues",
            "offset": 0,
            "slot": "4",
            "type": "t_array(t_uint256)dyn_storage"
          }
        ],
        "numberOfBytes": "160"
      },
      "t_struct(BuildingCosts)2339_storage": {
        "encoding": "inplace",
        "label": "struct BuildingCosts",
        "members": [
          {
            "astId": 2319,
            "contract": "contracts/settling/facets/ArmyTrainingFacet.sol:ArmyTrainingFacet",
            "label": "name",
            "offset": 0,
            "slot": "0",
            "type": "t_string_storage"
          },
          {
            "astId": 2322,
            "contract": "contracts/settling/facets/ArmyTrainingFacet.sol:ArmyTrainingFacet",
            "label": "resourceIds",
            "offset": 0,
            "slot": "1",
            "type": "t_array(t_uint32)dyn_storage"
          },
          {
            "astId": 2325,
            "contract": "contracts/settling/facets/ArmyTrainingFacet.sol:ArmyTrainingFacet",
            "label": "resourceValues",
            "offset": 0,
            "slot": "2",
            "type": "t_array(t_uint32)dyn_storage"
          },
          {
            "astId": 2328,
            "contract": "contracts/settling/facets/ArmyTrainingFacet.sol:ArmyTrainingFacet",
            "label": "requirements",
            "offset": 0,
            "slot": "3",
            "type": "t_array(t_uint32)dyn_storage"
          },
          {
            "astId": 2330,
            "contract": "contracts/settling/facets/ArmyTrainingFacet.sol:ArmyTrainingFacet",
            "label": "defence",
            "offset": 0,
            "slot": "4",
            "type": "t_int32"
          },
          {
            "astId": 2332,
            "contract": "contracts/settling/facets/ArmyTrainingFacet.sol:ArmyTrainingFacet",
            "label": "offence",
            "offset": 4,
            "slot": "4",
            "type": "t_int32"
          },
          {
            "astId": 2334,
            "contract": "contracts/settling/facets/ArmyTrainingFacet.sol:ArmyTrainingFacet",
            "label": "magic",
            "offset": 8,
            "slot": "4",
            "type": "t_int32"
          },
          {
            "astId": 2336,
            "contract": "contracts/settling/facets/ArmyTrainingFacet.sol:ArmyTrainingFacet",
            "label": "population",
            "offset": 12,
            "slot": "4",
            "type": "t_int32"
          },
          {
            "astId": 2338,
            "contract": "contracts/settling/facets/ArmyTrainingFacet.sol:ArmyTrainingFacet",
            "label": "food",
            "offset": 16,
            "slot": "4",
            "type": "t_int32"
          }
        ],
        "numberOfBytes": "160"
      },
      "t_struct(BuildingUpgradeCosts)2348_storage": {
        "encoding": "inplace",
        "label": "struct BuildingUpgradeCosts",
        "members": [
          {
            "astId": 2342,
            "contract": "contracts/settling/facets/ArmyTrainingFacet.sol:ArmyTrainingFacet",
            "label": "realmBuildings",
            "offset": 0,
            "slot": "0",
            "type": "t_array(t_uint8)dyn_storage"
          },
          {
            "astId": 2347,
            "contract": "contracts/settling/facets/ArmyTrainingFacet.sol:ArmyTrainingFacet",
            "label": "buildingCosts",
            "offset": 0,
            "slot": "1",
            "type": "t_mapping(t_uint256,t_struct(BuildingCosts)2339_storage)"
          }
        ],
        "numberOfBytes": "64"
      },
      "t_struct(DefendingArmy)2409_storage": {
        "encoding": "inplace",
        "label": "struct DefendingArmy",
        "members": [
          {
            "astId": 2392,
            "contract": "contracts/settling/facets/ArmyTrainingFacet.sol:ArmyTrainingFacet",
            "label": "trebuchetsTrained",
            "offset": 0,
            "slot": "0",
            "type": "t_uint32"
          },
          {
            "astId": 2394,
            "contract": "contracts/settling/facets/ArmyTrainingFacet.sol:ArmyTrainingFacet",
            "label": "trebuchetsSlayed",
            "offset": 4,
            "slot": "0",
            "type": "t_uint32"
          },
          {
            "astId": 2396,
            "contract": "contracts/settling/facets/ArmyTrainingFacet.sol:ArmyTrainingFacet",
            "label": "scorpionsTrained",
            "offset": 8,
            "slot": "0",
            "type": "t_uint32"
          },
          {
            "astId": 2398,
            "contract": "contracts/settling/facets/ArmyTrainingFacet.sol:ArmyTrainingFacet",
            "label": "scorpionsSlayed",
            "offset": 12,
            "slot": "0",
            "type": "t_uint32"
          },
          {
            "astId": 2403,
            "contract": "contracts/settling/facets/ArmyTrainingFacet.sol:ArmyTrainingFacet",
            "label": "trebuchets",
            "offset": 0,
            "slot": "1",
            "type": "t_mapping(t_uint256,t_struct(TrainedArmyUnit)2414_storage)"
          },
          {
            "astId": 2408,
            "contract": "contracts/settling/facets/ArmyTrainingFacet.sol:ArmyTrainingFacet",
            "label": "scorpions",
            "offset": 0,
            "slot": "2",
            "type": "t_mapping(t_uint256,t_struct(TrainedArmyUnit)2414_storage)"
          }
        ],
        "numberOfBytes": "96"
      },
      "t_struct(LevelProduction)2351_storage": {
        "encoding": "inplace",
        "label": "struct LevelProduction",
        "members": [
          {
            "astId": 2350,
            "contract": "contracts/settling/facets/ArmyTrainingFacet.sol:ArmyTrainingFacet",
            "label": "output",
            "offset": 0,
            "slot": "0",
            "type": "t_uint8"
          }
        ],
        "numberOfBytes": "32"
      },
      "t_struct(Raiding)2371_storage": {
        "encoding": "inplace",
        "label": "struct Raiding",
        "members": [
          {
            "astId": 2366,
            "contract": "contracts/settling/facets/ArmyTrainingFacet.sol:ArmyTrainingFacet",
            "label": "coolDownTime",
            "offset": 0,
            "slot": "0",
            "type": "t_uint256"
          },
          {
            "astId": 2368,
            "contract": "contracts/settling/facets/ArmyTrainingFacet.sol:ArmyTrainingFacet",
            "label": "totalRaids",
            "offset": 0,
            "slot": "1",
            "type": "t_uint256"
          },
          {
            "astId": 2370,
            "contract": "contracts/settling/facets/ArmyTrainingFacet.sol:ArmyTrainingFacet",
            "label": "successfulRaids",
            "offset": 0,
            "slot": "2",
            "type": "t_uint256"
          }
        ],
        "numberOfBytes": "96"
      },
      "t_struct(RaidingArmy)2390_storage": {
        "encoding": "inplace",
        "label": "struct RaidingArmy",
        "members": [
          {
            "astId": 2373,
            "contract": "contracts/settling/facets/ArmyTrainingFacet.sol:ArmyTrainingFacet",
            "label": "knightsTrained",
            "offset": 0,
            "slot": "0",
            "type": "t_uint32"
          },
          {
            "astId": 2375,
            "contract": "contracts/settling/facets/ArmyTrainingFacet.sol:ArmyTrainingFacet",
            "label": "knightsSlayed",
            "offset": 4,
            "slot": "0",
            "type": "t_uint32"
          },
          {
            "astId": 2377,
            "contract": "contracts/settling/facets/ArmyTrainingFacet.sol:ArmyTrainingFacet",
            "label": "footSoldiersTrained",
            "offset": 8,
            "slot": "0",
            "type": "t_uint32"
          },
          {
            "astId": 2379,
            "contract": "contracts/settling/facets/ArmyTrainingFacet.sol:ArmyTrainingFacet",
            "label": "footSoldiersSlayed",
            "offset": 12,
            "slot": "0",
            "type": "t_uint32"
          },
          {
            "astId": 2384,
            "contract": "contracts/settling/facets/ArmyTrainingFacet.sol:ArmyTrainingFacet",
            "label": "knights",
            "offset": 0,
            "slot": "1",
            "type": "t_mapping(t_uint256,t_struct(TrainedArmyUnit)2414_storage)"
          },
          {
            "astId": 2389,
            "contract": "contracts/settling/facets/ArmyTrainingFacet.sol:ArmyTrainingFacet",
            "label": "footSoldiers",
            "offset": 0,
            "slot": "2",
            "type": "t_mapping(t_uint256,t_struct(TrainedArmyUnit)2414_storage)"
          }
        ],
        "numberOfBytes": "96"
      },
      "t_struct(RealmInfo)2310_storage": {
        "encoding": "inplace",
        "label": "struct RealmInfo",
        "members": [
          {
            "astId": 2253,
            "contract": "contracts/settling/facets/ArmyTrainingFacet.sol:ArmyTrainingFacet",
            "label": "name",
            "offset": 0,
            "slot": "0",
            "type": "t_string_storage"
          },
          {
            "astId": 2255,
            "contract": "contracts/settling/facets/ArmyTrainingFacet.sol:ArmyTrainingFacet",
            "label": "lastUpdateAt",
            "offset": 0,
            "slot": "1",
            "type": "t_uint256"
          },
          {
            "astId": 2257,
            "contract": "contracts/settling/facets/ArmyTrainingFacet.sol:ArmyTrainingFacet",
            "label": "vestedTimeUpdatedAt",
            "offset": 0,
            "slot": "2",
            "type": "t_uint256"
          },
          {
            "astId": 2259,
            "contract": "contracts/settling/facets/ArmyTrainingFacet.sol:ArmyTrainingFacet",
            "label": "ageSettled",
            "offset": 0,
            "slot": "3",
            "type": "t_uint256"
          },
          {
            "astId": 2261,
            "contract": "contracts/settling/facets/ArmyTrainingFacet.sol:ArmyTrainingFacet",
            "label": "ageClaimed",
            "offset": 0,
            "slot": "4",
            "type": "t_uint256"
          },
          {
            "astId": 2264,
            "contract": "contracts/settling/facets/ArmyTrainingFacet.sol:ArmyTrainingFacet",
            "label": "resourceIds",
            "offset": 0,
            "slot": "5",
            "type": "t_array(t_uint256)dyn_storage"
          },
          {
            "astId": 2266,
            "contract": "contracts/settling/facets/ArmyTrainingFacet.sol:ArmyTrainingFacet",
            "label": "cities",
            "offset": 0,
            "slot": "6",
            "type": "t_uint8"
          },
          {
            "astId": 2268,
            "contract": "contracts/settling/facets/ArmyTrainingFacet.sol:ArmyTrainingFacet",
            "label": "harbours",
            "offset": 1,
            "slot": "6",
            "type": "t_uint8"
          },
          {
            "astId": 2270,
            "contract": "contracts/settling/facets/ArmyTrainingFacet.sol:ArmyTrainingFacet",
            "label": "rivers",
            "offset": 2,
            "slot": "6",
            "type": "t_uint8"
          },
          {
            "astId": 2272,
            "contract": "contracts/settling/facets/ArmyTrainingFacet.sol:ArmyTrainingFacet",
            "label": "regions",
            "offset": 3,
            "slot": "6",
            "type": "t_uint8"
          },
          {
            "astId": 2274,
            "contract": "contracts/settling/facets/ArmyTrainingFacet.sol:ArmyTrainingFacet",
            "label": "wonders",
            "offset": 4,
            "slot": "6",
            "type": "t_uint8"
          },
          {
            "astId": 2276,
            "contract": "contracts/settling/facets/ArmyTrainingFacet.sol:ArmyTrainingFacet",
            "label": "orderOf",
            "offset": 5,
            "slot": "6",
            "type": "t_uint8"
          },
          {
            "astId": 2278,
            "contract": "contracts/settling/facets/ArmyTrainingFacet.sol:ArmyTrainingFacet",
            "label": "aquaducts",
            "offset": 6,
            "slot": "6",
            "type": "t_uint8"
          },
          {
            "astId": 2280,
            "contract": "contracts/settling/facets/ArmyTrainingFacet.sol:ArmyTrainingFacet",
            "label": "temples",
            "offset": 7,
            "slot": "6",
            "type": "t_uint8"
          },
          {
            "astId": 2282,
            "contract": "contracts/settling/facets/ArmyTrainingFacet.sol:ArmyTrainingFacet",
            "label": "castles",
            "offset": 8,
            "slot": "6",
            "type": "t_uint8"
          },
          {
            "astId": 2284,
            "contract": "contracts/settling/facets/ArmyTrainingFacet.sol:ArmyTrainingFacet",
            "label": "markets",
            "offset": 9,
            "slot": "6",
            "type": "t_uint8"
          },
          {
            "astId": 2286,
            "contract": "contracts/settling/facets/ArmyTrainingFacet.sol:ArmyTrainingFacet",
            "label": "ports",
            "offset": 10,
            "slot": "6",
            "type": "t_uint8"
          },
          {
            "astId": 2288,
            "contract": "contracts/settling/facets/ArmyTrainingFacet.sol:ArmyTrainingFacet",
            "label": "barracks",
            "offset": 11,
            "slot": "6",
            "type": "t_uint8"
          },
          {
            "astId": 2290,
            "contract": "contracts/settling/facets/ArmyTrainingFacet.sol:ArmyTrainingFacet",
            "label": "farms",
            "offset": 12,
            "slot": "6",
            "type": "t_uint8"
          },
          {
            "astId": 2292,
            "contract": "contracts/settling/facets/ArmyTrainingFacet.sol:ArmyTrainingFacet",
            "label": "shipyard",
            "offset": 13,
            "slot": "6",
            "type": "t_uint8"
          },
          {
            "astId": 2294,
            "contract": "contracts/settling/facets/ArmyTrainingFacet.sol:ArmyTrainingFacet",
            "label": "fishingVillage",
            "offset": 14,
            "slot": "6",
            "type": "t_uint8"
          },
          {
            "astId": 2296,
            "contract": "contracts/settling/facets/ArmyTrainingFacet.sol:ArmyTrainingFacet",
            "label": "realmDefence",
            "offset": 15,
            "slot": "6",
            "type": "t_int32"
          },
          {
            "astId": 2298,
            "contract": "contracts/settling/facets/ArmyTrainingFacet.sol:ArmyTrainingFacet",
            "label": "realmOffence",
            "offset": 19,
            "slot": "6",
            "type": "t_int32"
          },
          {
            "astId": 2300,
            "contract": "contracts/settling/facets/ArmyTrainingFacet.sol:ArmyTrainingFacet",
            "label": "realmMagic",
            "offset": 23,
            "slot": "6",
            "type": "t_int32"
          },
          {
            "astId": 2302,
            "contract": "contracts/settling/facets/ArmyTrainingFacet.sol:ArmyTrainingFacet",
            "label": "foodSupply",
            "offset": 27,
            "slot": "6",
            "type": "t_int32"
          },
          {
            "astId": 2304,
            "contract": "contracts/settling/facets/ArmyTrainingFacet.sol:ArmyTrainingFacet",
            "label": "population",
            "offset": 0,
            "slot": "7",
            "type": "t_int32"
          },
          {
            "astId": 2309,
            "contract": "contracts/settling/facets/ArmyTrainingFacet.sol:ArmyTrainingFacet",
            "label": "resourceInfo",
            "offset": 0,
            "slot": "8",
            "type": "t_mapping(t_uint256,t_struct(ResourceInfo)2317_storage)"
          }
        ],
        "numberOfBytes": "288"
      },
      "t_struct(ResourceInfo)2317_storage": {
        "encoding": "inplace",
        "label": "struct ResourceInfo",
        "members": [
          {
            "astId": 2312,
            "contract": "contracts/settling/facets/ArmyTrainingFacet.sol:ArmyTrainingFacet",
            "label": "id",
            "offset": 0,
            "slot": "0",
            "type": "t_uint8"
          },
          {
            "astId": 2314,
            "contract": "contracts/settling/facets/ArmyTrainingFacet.sol:ArmyTrainingFacet",
            "label": "level",
            "offset": 1,
            "slot": "0",
            "type": "t_uint8"
          },
          {
            "astId": 2316,
            "contract": "contracts/settling/facets/ArmyTrainingFacet.sol:ArmyTrainingFacet",
            "label": "production",
            "offset": 2,
            "slot": "0",
            "type": "t_uint8"
          }
        ],
        "numberOfBytes": "32"
      },
      "t_struct(TheAges)2251_storage": {
        "encoding": "inplace",
        "label": "struct TheAges",
        "members": [
          {
            "astId": 2246,
            "contract": "contracts/settling/facets/ArmyTrainingFacet.sol:ArmyTrainingFacet",
            "label": "settledRealms",
            "offset": 0,
            "slot": "0",
            "type": "t_uint256"
          },
          {
            "astId": 2248,
            "contract": "contracts/settling/facets/ArmyTrainingFacet.sol:ArmyTrainingFacet",
            "label": "ageStart",
            "offset": 0,
            "slot": "1",
            "type": "t_uint256"
          },
          {
            "astId": 2250,
            "contract": "contracts/settling/facets/ArmyTrainingFacet.sol:ArmyTrainingFacet",
            "label": "ageFinish",
            "offset": 0,
            "slot": "2",
            "type": "t_uint256"
          }
        ],
        "numberOfBytes": "96"
      },
      "t_struct(TrainedArmyUnit)2414_storage": {
        "encoding": "inplace",
        "label": "struct TrainedArmyUnit",
        "members": [
          {
            "astId": 2411,
            "contract": "contracts/settling/facets/ArmyTrainingFacet.sol:ArmyTrainingFacet",
            "label": "destroyed",
            "offset": 0,
            "slot": "0",
            "type": "t_bool"
          },
          {
            "astId": 2413,
            "contract": "contracts/settling/facets/ArmyTrainingFacet.sol:ArmyTrainingFacet",
            "label": "unitFinished",
            "offset": 0,
            "slot": "1",
            "type": "t_uint256"
          }
        ],
        "numberOfBytes": "64"
      },
      "t_struct(UpgradeCostLevels)2364_storage": {
        "encoding": "inplace",
        "label": "struct UpgradeCostLevels",
        "members": [
          {
            "astId": 2363,
            "contract": "contracts/settling/facets/ArmyTrainingFacet.sol:ArmyTrainingFacet",
            "label": "value",
            "offset": 0,
            "slot": "0",
            "type": "t_array(t_uint256)dyn_storage"
          }
        ],
        "numberOfBytes": "32"
      },
      "t_struct(UpgradeCosts)2360_storage": {
        "encoding": "inplace",
        "label": "struct UpgradeCosts",
        "members": [
          {
            "astId": 2354,
            "contract": "contracts/settling/facets/ArmyTrainingFacet.sol:ArmyTrainingFacet",
            "label": "resourceIds",
            "offset": 0,
            "slot": "0",
            "type": "t_array(t_uint8)dyn_storage"
          },
          {
            "astId": 2359,
            "contract": "contracts/settling/facets/ArmyTrainingFacet.sol:ArmyTrainingFacet",
            "label": "upgradeCostLevels",
            "offset": 0,
            "slot": "1",
            "type": "t_mapping(t_uint256,t_struct(UpgradeCostLevels)2364_storage)"
          }
        ],
        "numberOfBytes": "64"
      },
      "t_uint256": {
        "encoding": "inplace",
        "label": "uint256",
        "numberOfBytes": "32"
      },
      "t_uint32": {
        "encoding": "inplace",
        "label": "uint32",
        "numberOfBytes": "4"
      },
      "t_uint8": {
        "encoding": "inplace",
        "label": "uint8",
        "numberOfBytes": "1"
      }
    }
  }
}