{
  "address": "0xe6739aAb1F5C1C415be1C9b29E4c79DE6897B782",
  "abi": [
    {
      "inputs": [
        {
          "internalType": "uint256",
          "name": "_tokenId",
          "type": "uint256"
        },
        {
          "internalType": "uint32",
          "name": "_id",
          "type": "uint32"
        },
        {
          "internalType": "uint32",
          "name": "_quantity",
          "type": "uint32"
        },
        {
          "internalType": "uint256[]",
          "name": "_resourceIds",
          "type": "uint256[]"
        },
        {
          "internalType": "uint256[]",
          "name": "_resourceValues",
          "type": "uint256[]"
        }
      ],
      "name": "buildDefenceArmy",
      "outputs": [],
      "stateMutability": "payable",
      "type": "function"
    },
    {
      "inputs": [
        {
          "internalType": "uint256",
          "name": "_tokenId",
          "type": "uint256"
        },
        {
          "internalType": "uint32",
          "name": "_id",
          "type": "uint32"
        },
        {
          "internalType": "uint32",
          "name": "_quantity",
          "type": "uint32"
        },
        {
          "internalType": "uint256[]",
          "name": "_resourceIds",
          "type": "uint256[]"
        },
        {
          "internalType": "uint256[]",
          "name": "_resourceValues",
          "type": "uint256[]"
        }
      ],
      "name": "buildRaidingArmy",
      "outputs": [],
      "stateMutability": "payable",
      "type": "function"
    },
    {
      "inputs": [
        {
          "internalType": "uint256",
          "name": "_tokenId",
          "type": "uint256"
        }
      ],
      "name": "getDefenceUnitTime",
      "outputs": [
        {
          "internalType": "uint256",
          "name": "",
          "type": "uint256"
        },
        {
          "internalType": "uint256",
          "name": "",
          "type": "uint256"
        }
      ],
      "stateMutability": "view",
      "type": "function"
    },
    {
      "inputs": [
        {
          "internalType": "uint256",
          "name": "_tokenId",
          "type": "uint256"
        }
      ],
      "name": "getRaidingArmy",
      "outputs": [
        {
          "internalType": "uint256",
          "name": "",
          "type": "uint256"
        },
        {
          "internalType": "uint256",
          "name": "",
          "type": "uint256"
        }
      ],
      "stateMutability": "view",
      "type": "function"
    },
    {
      "inputs": [
        {
          "internalType": "uint256",
          "name": "_tokenId",
          "type": "uint256"
        }
      ],
      "name": "getRaidingUnitTime",
      "outputs": [
        {
          "internalType": "uint256",
          "name": "",
          "type": "uint256"
        },
        {
          "internalType": "uint256",
          "name": "",
          "type": "uint256"
        }
      ],
      "stateMutability": "view",
      "type": "function"
    },
    {
      "inputs": [
        {
          "internalType": "uint256",
          "name": "_unitId",
          "type": "uint256"
        }
      ],
      "name": "getUnitCost",
      "outputs": [
        {
          "internalType": "uint256[]",
          "name": "",
          "type": "uint256[]"
        },
        {
          "internalType": "uint256[]",
          "name": "",
          "type": "uint256[]"
        }
      ],
      "stateMutability": "view",
      "type": "function"
    }
  ],
  "transactionHash": "0x6e83fd5ee5536041639a0475fd50d2f8f61e5af788816a8099870ea72307dcd6",
  "args": [],
  "solcInputHash": "e1bcb4012e43123158a949fbd00b5426",
  "bytecode": "0x608060405234801561001057600080fd5b5061221d806100206000396000f3fe6080604052600436106100555760003560e01c80632982ba3f1461005a5780634c0797d114610098578063b7283f41146100d6578063c19cfd6b14610114578063cca32e8314610152578063df04ae0c1461016e575b600080fd5b34801561006657600080fd5b50610081600480360381019061007c9190611919565b61018a565b60405161008f929190611cb5565b60405180910390f35b3480156100a457600080fd5b506100bf60048036038101906100ba9190611919565b610216565b6040516100cd929190611cb5565b60405180910390f35b3480156100e257600080fd5b506100fd60048036038101906100f89190611919565b6102a2565b60405161010b929190611ba3565b60405180910390f35b34801561012057600080fd5b5061013b60048036038101906101369190611919565b610475565b604051610149929190611cb5565b60405180910390f35b61016c60048036038101906101679190611942565b610515565b005b61018860048036038101906101839190611942565b610e49565b005b600080600080600f01600085815260200190815260200160002090508060010160008260000160009054906101000a900463ffffffff1663ffffffff168152602001908152602001600020600101548160020160008360000160089054906101000a900463ffffffff1663ffffffff168152602001908152602001600020600101549250925050915091565b600080600080601001600085815260200190815260200160002090508060010160008260000160009054906101000a900463ffffffff1663ffffffff168152602001908152602001600020600101548160020160008360000160089054906101000a900463ffffffff1663ffffffff168152602001908152602001600020600101549250925050915091565b60608060008060110160008581526020019081526020016000206040518060c00160405290816000820180546102d790611f62565b80601f016020809104026020016040519081016040528092919081815260200182805461030390611f62565b80156103505780601f1061032557610100808354040283529160200191610350565b820191906000526020600020905b81548152906001019060200180831161033357829003601f168201915b50505050508152602001600182015481526020016002820160009054906101000a900463ffffffff1663ffffffff1663ffffffff1681526020016002820160049054906101000a900463ffffffff1663ffffffff1663ffffffff168152602001600382018054806020026020016040519081016040528092919081815260200182805480156103fe57602002820191906000526020600020905b8154815260200190600101908083116103ea575b505050505081526020016004820180548060200260200160405190810160405280929190818152602001828054801561045657602002820191906000526020600020905b815481526020019060010190808311610442575b505050505081525050905080608001518160a001519250925050915091565b600080600080600f01600085815260200190815260200160002090508060000160049054906101000a900463ffffffff168160000160009054906101000a900463ffffffff166104c59190611ed5565b81600001600c9054906101000a900463ffffffff168260000160089054906101000a900463ffffffff166104f99190611ed5565b8163ffffffff1691508063ffffffff1690509250925050915091565b8460008060010160009054906101000a900473ffffffffffffffffffffffffffffffffffffffff1690508073ffffffffffffffffffffffffffffffffffffffff16636352211e836040518263ffffffff1660e01b81526004016105789190611c9a565b60206040518083038186803b15801561059057600080fd5b505afa1580156105a4573d6000803e3d6000fd5b505050506040513d601f19601f820116820180604052508101906105c891906118f0565b73ffffffffffffffffffffffffffffffffffffffff163373ffffffffffffffffffffffffffffffffffffffff1614610635576040517f08c379a000000000000000000000000000000000000000000000000000000000815260040161062c90611bfa565b60405180910390fd5b60008663ffffffff161480610650575060018663ffffffff16145b61068f576040517f08c379a000000000000000000000000000000000000000000000000000000000815260040161068690611c5a565b60405180910390fd5b600080600f016000898152602001908152602001600020905060008060000160008a8152602001908152602001600020905060008060110160008a63ffffffff1681526020019081526020016000206040518060c00160405290816000820180546106f990611f62565b80601f016020809104026020016040519081016040528092919081815260200182805461072590611f62565b80156107725780601f1061074757610100808354040283529160200191610772565b820191906000526020600020905b81548152906001019060200180831161075557829003601f168201915b50505050508152602001600182015481526020016002820160009054906101000a900463ffffffff1663ffffffff1663ffffffff1681526020016002820160049054906101000a900463ffffffff1663ffffffff1663ffffffff1681526020016003820180548060200260200160405190810160405280929190818152602001828054801561082057602002820191906000526020600020905b81548152602001906001019080831161080c575b505050505081526020016004820180548060200260200160405190810160405280929190818152602001828054801561087857602002820191906000526020600020905b815481526020019060010190808311610864575b505050505081525050905060008863ffffffff16116108cc576040517f08c379a00000000000000000000000000000000000000000000000000000000081526004016108c390611c3a565b60405180910390fd5b60005b816080015151811015610a9d5781608001518181518110610919577f4e487b7100000000000000000000000000000000000000000000000000000000600052603260045260246000fd5b602002602001015188828151811061095a577f4e487b7100000000000000000000000000000000000000000000000000000000600052603260045260246000fd5b6020026020010151146109a2576040517f08c379a000000000000000000000000000000000000000000000000000000000815260040161099990611c1a565b60405180910390fd5b8863ffffffff168260a0015182815181106109e6577f4e487b7100000000000000000000000000000000000000000000000000000000600052603260045260246000fd5b60200260200101516109f89190611e40565b8963ffffffff16888381518110610a38577f4e487b7100000000000000000000000000000000000000000000000000000000600052603260045260246000fd5b6020026020010151610a4a9190611e40565b14610a8a576040517f08c379a0000000000000000000000000000000000000000000000000000000008152600401610a8190611c7a565b60405180910390fd5b8080610a9590611fc5565b9150506108cf565b506000600283600601600b9054906101000a900460ff16610abe9190611e9a565b60058460060160089054906101000a900460ff16610adc9190611e9a565b610ae69190611e09565b60ff169050808985600001600c9054906101000a900463ffffffff168660000160089054906101000a900463ffffffff16610b219190611ed5565b8660000160049054906101000a900463ffffffff168760000160009054906101000a900463ffffffff16610b559190611ed5565b610b5f9190611dcf565b610b699190611dcf565b63ffffffff161115610bb0576040517f08c379a0000000000000000000000000000000000000000000000000000000008152600401610ba790611bda565b60405180910390fd5b60008a63ffffffff161415610cf257888460000160008282829054906101000a900463ffffffff16610be29190611dcf565b92506101000a81548163ffffffff021916908363ffffffff16021790555060005b8963ffffffff16811015610cec576000428660010160008860000160009054906101000a900463ffffffff1663ffffffff1681526020019081526020016000206001015411610c525742610c86565b8560010160008760000160009054906101000a900463ffffffff1663ffffffff168152602001908152602001600020600101545b905061384081610c969190611d79565b86600101600060018960000160009054906101000a900463ffffffff16610cbd9190611dcf565b63ffffffff16815260200190815260200160002060010181905550508080610ce490611fc5565b915050610c03565b50610e31565b60018a63ffffffff161415610e3057888460000160088282829054906101000a900463ffffffff16610d249190611dcf565b92506101000a81548163ffffffff021916908363ffffffff16021790555060005b8963ffffffff16811015610e2e576000428660020160008860000160089054906101000a900463ffffffff1663ffffffff1681526020019081526020016000206001015411610d945742610dc8565b8560020160008760000160089054906101000a900463ffffffff1663ffffffff168152602001908152602001600020600101545b9050611c2081610dd89190611d79565b86600201600060018960000160089054906101000a900463ffffffff16610dff9190611dcf565b63ffffffff16815260200190815260200160002060010181905550508080610e2690611fc5565b915050610d45565b505b5b610e3c33898961177d565b5050505050505050505050565b8460008060010160009054906101000a900473ffffffffffffffffffffffffffffffffffffffff1690508073ffffffffffffffffffffffffffffffffffffffff16636352211e836040518263ffffffff1660e01b8152600401610eac9190611c9a565b60206040518083038186803b158015610ec457600080fd5b505afa158015610ed8573d6000803e3d6000fd5b505050506040513d601f19601f82011682018060405250810190610efc91906118f0565b73ffffffffffffffffffffffffffffffffffffffff163373ffffffffffffffffffffffffffffffffffffffff1614610f69576040517f08c379a0000000000000000000000000000000000000000000000000000000008152600401610f6090611bfa565b60405180910390fd5b60028663ffffffff161480610f84575060038663ffffffff16145b610fc3576040517f08c379a0000000000000000000000000000000000000000000000000000000008152600401610fba90611c5a565b60405180910390fd5b6000806010016000898152602001908152602001600020905060008060000160008a8152602001908152602001600020905060008060110160008a63ffffffff1681526020019081526020016000206040518060c001604052908160008201805461102d90611f62565b80601f016020809104026020016040519081016040528092919081815260200182805461105990611f62565b80156110a65780601f1061107b576101008083540402835291602001916110a6565b820191906000526020600020905b81548152906001019060200180831161108957829003601f168201915b50505050508152602001600182015481526020016002820160009054906101000a900463ffffffff1663ffffffff1663ffffffff1681526020016002820160049054906101000a900463ffffffff1663ffffffff1663ffffffff1681526020016003820180548060200260200160405190810160405280929190818152602001828054801561115457602002820191906000526020600020905b815481526020019060010190808311611140575b50505050508152602001600482018054806020026020016040519081016040528092919081815260200182805480156111ac57602002820191906000526020600020905b815481526020019060010190808311611198575b505050505081525050905060008863ffffffff1611611200576040517f08c379a00000000000000000000000000000000000000000000000000000000081526004016111f790611c3a565b60405180910390fd5b60005b8160800151518110156113d1578160800151818151811061124d577f4e487b7100000000000000000000000000000000000000000000000000000000600052603260045260246000fd5b602002602001015188828151811061128e577f4e487b7100000000000000000000000000000000000000000000000000000000600052603260045260246000fd5b6020026020010151146112d6576040517f08c379a00000000000000000000000000000000000000000000000000000000081526004016112cd90611c1a565b60405180910390fd5b8863ffffffff168260a00151828151811061131a577f4e487b7100000000000000000000000000000000000000000000000000000000600052603260045260246000fd5b602002602001015161132c9190611e40565b8963ffffffff1688838151811061136c577f4e487b7100000000000000000000000000000000000000000000000000000000600052603260045260246000fd5b602002602001015161137e9190611e40565b146113be576040517f08c379a00000000000000000000000000000000000000000000000000000000081526004016113b590611c7a565b60405180910390fd5b80806113c990611fc5565b915050611203565b506000600283600601600b9054906101000a900460ff166113f29190611e9a565b60058460060160089054906101000a900460ff166114109190611e9a565b61141a9190611e09565b60ff169050808985600001600c9054906101000a900463ffffffff168660000160089054906101000a900463ffffffff166114559190611ed5565b8660000160049054906101000a900463ffffffff168760000160009054906101000a900463ffffffff166114899190611ed5565b6114939190611dcf565b61149d9190611dcf565b63ffffffff1611156114e4576040517f08c379a00000000000000000000000000000000000000000000000000000000081526004016114db90611bda565b60405180910390fd5b60028a63ffffffff16141561162657888460000160008282829054906101000a900463ffffffff166115169190611dcf565b92506101000a81548163ffffffff021916908363ffffffff16021790555060005b8963ffffffff16811015611620576000428660010160008860000160009054906101000a900463ffffffff1663ffffffff168152602001908152602001600020600101541161158657426115ba565b8560010160008760000160009054906101000a900463ffffffff1663ffffffff168152602001908152602001600020600101545b9050617080816115ca9190611d79565b86600101600060018960000160009054906101000a900463ffffffff166115f19190611dcf565b63ffffffff1681526020019081526020016000206001018190555050808061161890611fc5565b915050611537565b50611765565b60038a63ffffffff16141561176457888460000160088282829054906101000a900463ffffffff166116589190611dcf565b92506101000a81548163ffffffff021916908363ffffffff16021790555060005b8963ffffffff16811015611762576000428660020160008860000160089054906101000a900463ffffffff1663ffffffff16815260200190815260200160002060010154116116c857426116fc565b8560020160008760000160089054906101000a900463ffffffff1663ffffffff168152602001908152602001600020600101545b9050612a308161170c9190611d79565b86600201600060018960000160089054906101000a900463ffffffff166117339190611dcf565b63ffffffff1681526020019081526020016000206001018190555050808061175a90611fc5565b915050611679565b505b5b61177033898961177d565b5050505050505050505050565b60008060050160009054906101000a900473ffffffffffffffffffffffffffffffffffffffff1690508073ffffffffffffffffffffffffffffffffffffffff16638a5d94468585856040518463ffffffff1660e01b81526004016117e393929190611b5e565b600060405180830381600087803b1580156117fd57600080fd5b505af1158015611811573d6000803e3d6000fd5b5050505050505050565b600061182e61182984611d03565b611cde565b9050808382526020820190508285602086028201111561184d57600080fd5b60005b8581101561187d578161186388826118c6565b845260208401935060208301925050600181019050611850565b5050509392505050565b600081519050611896816121a2565b92915050565b600082601f8301126118ad57600080fd5b81356118bd84826020860161181b565b91505092915050565b6000813590506118d5816121b9565b92915050565b6000813590506118ea816121d0565b92915050565b60006020828403121561190257600080fd5b600061191084828501611887565b91505092915050565b60006020828403121561192b57600080fd5b6000611939848285016118c6565b91505092915050565b600080600080600060a0868803121561195a57600080fd5b6000611968888289016118c6565b9550506020611979888289016118db565b945050604061198a888289016118db565b935050606086013567ffffffffffffffff8111156119a757600080fd5b6119b38882890161189c565b925050608086013567ffffffffffffffff8111156119d057600080fd5b6119dc8882890161189c565b9150509295509295909350565b60006119f58383611b40565b60208301905092915050565b611a0a81611f09565b82525050565b6000611a1b82611d3f565b611a258185611d57565b9350611a3083611d2f565b8060005b83811015611a61578151611a4888826119e9565b9750611a5383611d4a565b925050600181019050611a34565b5085935050505092915050565b6000611a7b601183611d68565b9150611a86826120ac565b602082019050919050565b6000611a9e601983611d68565b9150611aa9826120d5565b602082019050919050565b6000611ac1601283611d68565b9150611acc826120fe565b602082019050919050565b6000611ae4601683611d68565b9150611aef82612127565b602082019050919050565b6000611b07600a83611d68565b9150611b1282612150565b602082019050919050565b6000611b2a601a83611d68565b9150611b3582612179565b602082019050919050565b611b4981611f3b565b82525050565b611b5881611f3b565b82525050565b6000606082019050611b736000830186611a01565b8181036020830152611b858185611a10565b90508181036040830152611b998184611a10565b9050949350505050565b60006040820190508181036000830152611bbd8185611a10565b90508181036020830152611bd18184611a10565b90509392505050565b60006020820190508181036000830152611bf381611a6e565b9050919050565b60006020820190508181036000830152611c1381611a91565b9050919050565b60006020820190508181036000830152611c3381611ab4565b9050919050565b60006020820190508181036000830152611c5381611ad7565b9050919050565b60006020820190508181036000830152611c7381611afa565b9050919050565b60006020820190508181036000830152611c9381611b1d565b9050919050565b6000602082019050611caf6000830184611b4f565b92915050565b6000604082019050611cca6000830185611b4f565b611cd76020830184611b4f565b9392505050565b6000611ce8611cf9565b9050611cf48282611f94565b919050565b6000604051905090565b600067ffffffffffffffff821115611d1e57611d1d61206c565b5b602082029050602081019050919050565b6000819050602082019050919050565b600081519050919050565b6000602082019050919050565b600082825260208201905092915050565b600082825260208201905092915050565b6000611d8482611f3b565b9150611d8f83611f3b565b9250827fffffffffffffffffffffffffffffffffffffffffffffffffffffffffffffffff03821115611dc457611dc361200e565b5b828201905092915050565b6000611dda82611f45565b9150611de583611f45565b92508263ffffffff03821115611dfe57611dfd61200e565b5b828201905092915050565b6000611e1482611f55565b9150611e1f83611f55565b92508260ff03821115611e3557611e3461200e565b5b828201905092915050565b6000611e4b82611f3b565b9150611e5683611f3b565b9250817fffffffffffffffffffffffffffffffffffffffffffffffffffffffffffffffff0483118215151615611e8f57611e8e61200e565b5b828202905092915050565b6000611ea582611f55565b9150611eb083611f55565b92508160ff0483118215151615611eca57611ec961200e565b5b828202905092915050565b6000611ee082611f45565b9150611eeb83611f45565b925082821015611efe57611efd61200e565b5b828203905092915050565b6000611f1482611f1b565b9050919050565b600073ffffffffffffffffffffffffffffffffffffffff82169050919050565b6000819050919050565b600063ffffffff82169050919050565b600060ff82169050919050565b60006002820490506001821680611f7a57607f821691505b60208210811415611f8e57611f8d61203d565b5b50919050565b611f9d8261209b565b810181811067ffffffffffffffff82111715611fbc57611fbb61206c565b5b80604052505050565b6000611fd082611f3b565b91507fffffffffffffffffffffffffffffffffffffffffffffffffffffffffffffffff8214156120035761200261200e565b5b600182019050919050565b7f4e487b7100000000000000000000000000000000000000000000000000000000600052601160045260246000fd5b7f4e487b7100000000000000000000000000000000000000000000000000000000600052602260045260246000fd5b7f4e487b7100000000000000000000000000000000000000000000000000000000600052604160045260246000fd5b6000601f19601f8301169050919050565b7f4e4f5f53504143455f464f525f554e4954000000000000000000000000000000600082015250565b7f596f7520646f206e6f74206f776e2074686973205265616c6d00000000000000600082015250565b7f496e636f7272656374207265736f757263650000000000000000000000000000600082015250565b7f4d55535420545241494e204d4f5245205448414e203100000000000000000000600082015250565b7f57726f6e6720756e697400000000000000000000000000000000000000000000600082015250565b7f496e636f7272656374207265736f75726365732076616c756573000000000000600082015250565b6121ab81611f09565b81146121b657600080fd5b50565b6121c281611f3b565b81146121cd57600080fd5b50565b6121d981611f45565b81146121e457600080fd5b5056fea2646970667358221220b48b099535ab0d306a038f5ea850844c73f43e37fa89e1a3c8b7214118a1320b64736f6c63430008030033",
  "devdoc": {
    "kind": "dev",
    "methods": {
      "buildRaidingArmy(uint256,uint32,uint32,uint256[],uint256[])": {
        "params": {
          "_id": "Id of Unit",
          "_quantity": "Quantity of units to train",
          "_resourceIds": "Resources to spend on units",
          "_resourceValues": "Resource values to spend",
          "_tokenId": "Id of realm"
        }
      }
    },
    "version": 1
  },
  "userdoc": {
    "kind": "user",
    "methods": {
      "buildRaidingArmy(uint256,uint32,uint32,uint256[],uint256[])": {
        "notice": "Builds Army"
      }
    },
    "version": 1
  },
  "storageLayout": {
    "storage": [
      {
        "astId": 5151,
        "contract": "contracts/settling/facets/ArmyTrainingFacet.sol:ArmyTrainingFacet",
        "label": "s",
        "offset": 0,
        "slot": "0",
        "type": "t_struct(AppStorage)4097_storage"
      }
    ],
    "types": {
      "t_address": {
        "encoding": "inplace",
        "label": "address",
        "numberOfBytes": "20"
      },
      "t_array(t_uint256)dyn_storage": {
        "base": "t_uint256",
        "encoding": "dynamic_array",
        "label": "uint256[]",
        "numberOfBytes": "32"
      },
      "t_array(t_uint32)dyn_storage": {
        "base": "t_uint32",
        "encoding": "dynamic_array",
        "label": "uint32[]",
        "numberOfBytes": "32"
      },
      "t_array(t_uint8)dyn_storage": {
        "base": "t_uint8",
        "encoding": "dynamic_array",
        "label": "uint8[]",
        "numberOfBytes": "32"
      },
      "t_bool": {
        "encoding": "inplace",
        "label": "bool",
        "numberOfBytes": "1"
      },
      "t_int32": {
        "encoding": "inplace",
        "label": "int32",
        "numberOfBytes": "4"
      },
      "t_mapping(t_uint256,t_struct(ArmyUnit)4282_storage)": {
        "encoding": "mapping",
        "key": "t_uint256",
        "label": "mapping(uint256 => struct ArmyUnit)",
        "numberOfBytes": "32",
        "value": "t_struct(ArmyUnit)4282_storage"
      },
      "t_mapping(t_uint256,t_struct(BuildingCosts)4192_storage)": {
        "encoding": "mapping",
        "key": "t_uint256",
        "label": "mapping(uint256 => struct BuildingCosts)",
        "numberOfBytes": "32",
        "value": "t_struct(BuildingCosts)4192_storage"
      },
      "t_mapping(t_uint256,t_struct(BuildingUpgradeCosts)4201_storage)": {
        "encoding": "mapping",
        "key": "t_uint256",
        "label": "mapping(uint256 => struct BuildingUpgradeCosts)",
        "numberOfBytes": "32",
        "value": "t_struct(BuildingUpgradeCosts)4201_storage"
      },
      "t_mapping(t_uint256,t_struct(DefendingArmy)4262_storage)": {
        "encoding": "mapping",
        "key": "t_uint256",
        "label": "mapping(uint256 => struct DefendingArmy)",
        "numberOfBytes": "32",
        "value": "t_struct(DefendingArmy)4262_storage"
      },
      "t_mapping(t_uint256,t_struct(LevelProduction)4204_storage)": {
        "encoding": "mapping",
        "key": "t_uint256",
        "label": "mapping(uint256 => struct LevelProduction)",
        "numberOfBytes": "32",
        "value": "t_struct(LevelProduction)4204_storage"
      },
      "t_mapping(t_uint256,t_struct(Raiding)4224_storage)": {
        "encoding": "mapping",
        "key": "t_uint256",
        "label": "mapping(uint256 => struct Raiding)",
        "numberOfBytes": "32",
        "value": "t_struct(Raiding)4224_storage"
      },
      "t_mapping(t_uint256,t_struct(RaidingArmy)4243_storage)": {
        "encoding": "mapping",
        "key": "t_uint256",
        "label": "mapping(uint256 => struct RaidingArmy)",
        "numberOfBytes": "32",
        "value": "t_struct(RaidingArmy)4243_storage"
      },
      "t_mapping(t_uint256,t_struct(RealmInfo)4163_storage)": {
        "encoding": "mapping",
        "key": "t_uint256",
        "label": "mapping(uint256 => struct RealmInfo)",
        "numberOfBytes": "32",
        "value": "t_struct(RealmInfo)4163_storage"
      },
      "t_mapping(t_uint256,t_struct(ResourceInfo)4170_storage)": {
        "encoding": "mapping",
        "key": "t_uint256",
        "label": "mapping(uint256 => struct ResourceInfo)",
        "numberOfBytes": "32",
        "value": "t_struct(ResourceInfo)4170_storage"
      },
      "t_mapping(t_uint256,t_struct(TheAges)4104_storage)": {
        "encoding": "mapping",
        "key": "t_uint256",
        "label": "mapping(uint256 => struct TheAges)",
        "numberOfBytes": "32",
        "value": "t_struct(TheAges)4104_storage"
      },
      "t_mapping(t_uint256,t_struct(TrainedArmyUnit)4267_storage)": {
        "encoding": "mapping",
        "key": "t_uint256",
        "label": "mapping(uint256 => struct TrainedArmyUnit)",
        "numberOfBytes": "32",
        "value": "t_struct(TrainedArmyUnit)4267_storage"
      },
      "t_mapping(t_uint256,t_struct(UpgradeCostLevels)4217_storage)": {
        "encoding": "mapping",
        "key": "t_uint256",
        "label": "mapping(uint256 => struct UpgradeCostLevels)",
        "numberOfBytes": "32",
        "value": "t_struct(UpgradeCostLevels)4217_storage"
      },
      "t_mapping(t_uint256,t_struct(UpgradeCosts)4213_storage)": {
        "encoding": "mapping",
        "key": "t_uint256",
        "label": "mapping(uint256 => struct UpgradeCosts)",
        "numberOfBytes": "32",
        "value": "t_struct(UpgradeCosts)4213_storage"
      },
      "t_string_storage": {
        "encoding": "bytes",
        "label": "string",
        "numberOfBytes": "32"
      },
      "t_struct(AppStorage)4097_storage": {
        "encoding": "inplace",
        "label": "struct AppStorage",
        "members": [
          {
            "astId": 4035,
            "contract": "contracts/settling/facets/ArmyTrainingFacet.sol:ArmyTrainingFacet",
            "label": "realmInfo",
            "offset": 0,
            "slot": "0",
            "type": "t_mapping(t_uint256,t_struct(RealmInfo)4163_storage)"
          },
          {
            "astId": 4037,
            "contract": "contracts/settling/facets/ArmyTrainingFacet.sol:ArmyTrainingFacet",
            "label": "sRealms",
            "offset": 0,
            "slot": "1",
            "type": "t_address"
          },
          {
            "astId": 4039,
            "contract": "contracts/settling/facets/ArmyTrainingFacet.sol:ArmyTrainingFacet",
            "label": "realms",
            "offset": 0,
            "slot": "2",
            "type": "t_address"
          },
          {
            "astId": 4041,
            "contract": "contracts/settling/facets/ArmyTrainingFacet.sol:ArmyTrainingFacet",
            "label": "realmsStorage",
            "offset": 0,
            "slot": "3",
            "type": "t_address"
          },
          {
            "astId": 4043,
            "contract": "contracts/settling/facets/ArmyTrainingFacet.sol:ArmyTrainingFacet",
            "label": "treasury",
            "offset": 0,
            "slot": "4",
            "type": "t_address"
          },
          {
            "astId": 4045,
            "contract": "contracts/settling/facets/ArmyTrainingFacet.sol:ArmyTrainingFacet",
            "label": "resources",
            "offset": 0,
            "slot": "5",
            "type": "t_address"
          },
          {
            "astId": 4047,
            "contract": "contracts/settling/facets/ArmyTrainingFacet.sol:ArmyTrainingFacet",
            "label": "oracle",
            "offset": 0,
            "slot": "6",
            "type": "t_address"
          },
          {
            "astId": 4049,
            "contract": "contracts/settling/facets/ArmyTrainingFacet.sol:ArmyTrainingFacet",
            "label": "lords",
            "offset": 0,
            "slot": "7",
            "type": "t_address"
          },
          {
            "astId": 4054,
            "contract": "contracts/settling/facets/ArmyTrainingFacet.sol:ArmyTrainingFacet",
            "label": "levelProduction",
            "offset": 0,
            "slot": "8",
            "type": "t_mapping(t_uint256,t_struct(LevelProduction)4204_storage)"
          },
          {
            "astId": 4059,
            "contract": "contracts/settling/facets/ArmyTrainingFacet.sol:ArmyTrainingFacet",
            "label": "upgradeCosts",
            "offset": 0,
            "slot": "9",
            "type": "t_mapping(t_uint256,t_struct(UpgradeCosts)4213_storage)"
          },
          {
            "astId": 4064,
            "contract": "contracts/settling/facets/ArmyTrainingFacet.sol:ArmyTrainingFacet",
            "label": "buildingUpgradeCosts",
            "offset": 0,
            "slot": "10",
            "type": "t_mapping(t_uint256,t_struct(BuildingUpgradeCosts)4201_storage)"
          },
          {
            "astId": 4069,
            "contract": "contracts/settling/facets/ArmyTrainingFacet.sol:ArmyTrainingFacet",
            "label": "buildingCosts",
            "offset": 0,
            "slot": "11",
            "type": "t_mapping(t_uint256,t_struct(BuildingCosts)4192_storage)"
          },
          {
            "astId": 4074,
            "contract": "contracts/settling/facets/ArmyTrainingFacet.sol:ArmyTrainingFacet",
            "label": "theAges",
            "offset": 0,
            "slot": "12",
            "type": "t_mapping(t_uint256,t_struct(TheAges)4104_storage)"
          },
          {
            "astId": 4076,
            "contract": "contracts/settling/facets/ArmyTrainingFacet.sol:ArmyTrainingFacet",
            "label": "genesisTime",
            "offset": 0,
            "slot": "13",
            "type": "t_uint256"
          },
          {
            "astId": 4081,
            "contract": "contracts/settling/facets/ArmyTrainingFacet.sol:ArmyTrainingFacet",
            "label": "raiding",
            "offset": 0,
            "slot": "14",
            "type": "t_mapping(t_uint256,t_struct(Raiding)4224_storage)"
          },
          {
            "astId": 4086,
            "contract": "contracts/settling/facets/ArmyTrainingFacet.sol:ArmyTrainingFacet",
            "label": "raidingArmy",
            "offset": 0,
            "slot": "15",
            "type": "t_mapping(t_uint256,t_struct(RaidingArmy)4243_storage)"
          },
          {
            "astId": 4091,
            "contract": "contracts/settling/facets/ArmyTrainingFacet.sol:ArmyTrainingFacet",
            "label": "defendingArmy",
            "offset": 0,
            "slot": "16",
            "type": "t_mapping(t_uint256,t_struct(DefendingArmy)4262_storage)"
          },
          {
            "astId": 4096,
            "contract": "contracts/settling/facets/ArmyTrainingFacet.sol:ArmyTrainingFacet",
            "label": "armyUnit",
            "offset": 0,
            "slot": "17",
            "type": "t_mapping(t_uint256,t_struct(ArmyUnit)4282_storage)"
          }
        ],
        "numberOfBytes": "576"
      },
      "t_struct(ArmyUnit)4282_storage": {
        "encoding": "inplace",
        "label": "struct ArmyUnit",
        "members": [
          {
            "astId": 4269,
            "contract": "contracts/settling/facets/ArmyTrainingFacet.sol:ArmyTrainingFacet",
            "label": "name",
            "offset": 0,
            "slot": "0",
            "type": "t_string_storage"
          },
          {
            "astId": 4271,
            "contract": "contracts/settling/facets/ArmyTrainingFacet.sol:ArmyTrainingFacet",
            "label": "timeToTrain",
            "offset": 0,
            "slot": "1",
            "type": "t_uint256"
          },
          {
            "astId": 4273,
            "contract": "contracts/settling/facets/ArmyTrainingFacet.sol:ArmyTrainingFacet",
            "label": "offence",
            "offset": 0,
            "slot": "2",
            "type": "t_uint32"
          },
          {
            "astId": 4275,
            "contract": "contracts/settling/facets/ArmyTrainingFacet.sol:ArmyTrainingFacet",
            "label": "defence",
            "offset": 4,
            "slot": "2",
            "type": "t_uint32"
          },
          {
            "astId": 4278,
            "contract": "contracts/settling/facets/ArmyTrainingFacet.sol:ArmyTrainingFacet",
            "label": "resourceIds",
            "offset": 0,
            "slot": "3",
            "type": "t_array(t_uint256)dyn_storage"
          },
          {
            "astId": 4281,
            "contract": "contracts/settling/facets/ArmyTrainingFacet.sol:ArmyTrainingFacet",
            "label": "resourceValues",
            "offset": 0,
            "slot": "4",
            "type": "t_array(t_uint256)dyn_storage"
          }
        ],
        "numberOfBytes": "160"
      },
      "t_struct(BuildingCosts)4192_storage": {
        "encoding": "inplace",
        "label": "struct BuildingCosts",
        "members": [
          {
            "astId": 4172,
            "contract": "contracts/settling/facets/ArmyTrainingFacet.sol:ArmyTrainingFacet",
            "label": "name",
            "offset": 0,
            "slot": "0",
            "type": "t_string_storage"
          },
          {
            "astId": 4175,
            "contract": "contracts/settling/facets/ArmyTrainingFacet.sol:ArmyTrainingFacet",
            "label": "resourceIds",
            "offset": 0,
            "slot": "1",
            "type": "t_array(t_uint32)dyn_storage"
          },
          {
            "astId": 4178,
            "contract": "contracts/settling/facets/ArmyTrainingFacet.sol:ArmyTrainingFacet",
            "label": "resourceValues",
            "offset": 0,
            "slot": "2",
            "type": "t_array(t_uint32)dyn_storage"
          },
          {
            "astId": 4181,
            "contract": "contracts/settling/facets/ArmyTrainingFacet.sol:ArmyTrainingFacet",
            "label": "requirements",
            "offset": 0,
            "slot": "3",
            "type": "t_array(t_uint32)dyn_storage"
          },
          {
            "astId": 4183,
            "contract": "contracts/settling/facets/ArmyTrainingFacet.sol:ArmyTrainingFacet",
            "label": "defence",
            "offset": 0,
            "slot": "4",
            "type": "t_int32"
          },
          {
            "astId": 4185,
            "contract": "contracts/settling/facets/ArmyTrainingFacet.sol:ArmyTrainingFacet",
            "label": "offence",
            "offset": 4,
            "slot": "4",
            "type": "t_int32"
          },
          {
            "astId": 4187,
            "contract": "contracts/settling/facets/ArmyTrainingFacet.sol:ArmyTrainingFacet",
            "label": "magic",
            "offset": 8,
            "slot": "4",
            "type": "t_int32"
          },
          {
            "astId": 4189,
            "contract": "contracts/settling/facets/ArmyTrainingFacet.sol:ArmyTrainingFacet",
            "label": "population",
            "offset": 12,
            "slot": "4",
            "type": "t_int32"
          },
          {
            "astId": 4191,
            "contract": "contracts/settling/facets/ArmyTrainingFacet.sol:ArmyTrainingFacet",
            "label": "food",
            "offset": 16,
            "slot": "4",
            "type": "t_int32"
          }
        ],
        "numberOfBytes": "160"
      },
      "t_struct(BuildingUpgradeCosts)4201_storage": {
        "encoding": "inplace",
        "label": "struct BuildingUpgradeCosts",
        "members": [
          {
            "astId": 4195,
            "contract": "contracts/settling/facets/ArmyTrainingFacet.sol:ArmyTrainingFacet",
            "label": "realmBuildings",
            "offset": 0,
            "slot": "0",
            "type": "t_array(t_uint8)dyn_storage"
          },
          {
            "astId": 4200,
            "contract": "contracts/settling/facets/ArmyTrainingFacet.sol:ArmyTrainingFacet",
            "label": "buildingCosts",
            "offset": 0,
            "slot": "1",
            "type": "t_mapping(t_uint256,t_struct(BuildingCosts)4192_storage)"
          }
        ],
        "numberOfBytes": "64"
      },
      "t_struct(DefendingArmy)4262_storage": {
        "encoding": "inplace",
        "label": "struct DefendingArmy",
        "members": [
          {
            "astId": 4245,
            "contract": "contracts/settling/facets/ArmyTrainingFacet.sol:ArmyTrainingFacet",
            "label": "trebuchetsTrained",
            "offset": 0,
            "slot": "0",
            "type": "t_uint32"
          },
          {
            "astId": 4247,
            "contract": "contracts/settling/facets/ArmyTrainingFacet.sol:ArmyTrainingFacet",
            "label": "trebuchetsSlayed",
            "offset": 4,
            "slot": "0",
            "type": "t_uint32"
          },
          {
            "astId": 4249,
            "contract": "contracts/settling/facets/ArmyTrainingFacet.sol:ArmyTrainingFacet",
            "label": "scorpionsTrained",
            "offset": 8,
            "slot": "0",
            "type": "t_uint32"
          },
          {
            "astId": 4251,
            "contract": "contracts/settling/facets/ArmyTrainingFacet.sol:ArmyTrainingFacet",
            "label": "scorpionsSlayed",
            "offset": 12,
            "slot": "0",
            "type": "t_uint32"
          },
          {
            "astId": 4256,
            "contract": "contracts/settling/facets/ArmyTrainingFacet.sol:ArmyTrainingFacet",
            "label": "trebuchets",
            "offset": 0,
            "slot": "1",
            "type": "t_mapping(t_uint256,t_struct(TrainedArmyUnit)4267_storage)"
          },
          {
            "astId": 4261,
            "contract": "contracts/settling/facets/ArmyTrainingFacet.sol:ArmyTrainingFacet",
            "label": "scorpions",
            "offset": 0,
            "slot": "2",
            "type": "t_mapping(t_uint256,t_struct(TrainedArmyUnit)4267_storage)"
          }
        ],
        "numberOfBytes": "96"
      },
      "t_struct(LevelProduction)4204_storage": {
        "encoding": "inplace",
        "label": "struct LevelProduction",
        "members": [
          {
            "astId": 4203,
            "contract": "contracts/settling/facets/ArmyTrainingFacet.sol:ArmyTrainingFacet",
            "label": "output",
            "offset": 0,
            "slot": "0",
            "type": "t_uint8"
          }
        ],
        "numberOfBytes": "32"
      },
      "t_struct(Raiding)4224_storage": {
        "encoding": "inplace",
        "label": "struct Raiding",
        "members": [
          {
            "astId": 4219,
            "contract": "contracts/settling/facets/ArmyTrainingFacet.sol:ArmyTrainingFacet",
            "label": "coolDownTime",
            "offset": 0,
            "slot": "0",
            "type": "t_uint256"
          },
          {
            "astId": 4221,
            "contract": "contracts/settling/facets/ArmyTrainingFacet.sol:ArmyTrainingFacet",
            "label": "totalRaids",
            "offset": 0,
            "slot": "1",
            "type": "t_uint256"
          },
          {
            "astId": 4223,
            "contract": "contracts/settling/facets/ArmyTrainingFacet.sol:ArmyTrainingFacet",
            "label": "successfulRaids",
            "offset": 0,
            "slot": "2",
            "type": "t_uint256"
          }
        ],
        "numberOfBytes": "96"
      },
      "t_struct(RaidingArmy)4243_storage": {
        "encoding": "inplace",
        "label": "struct RaidingArmy",
        "members": [
          {
            "astId": 4226,
            "contract": "contracts/settling/facets/ArmyTrainingFacet.sol:ArmyTrainingFacet",
            "label": "knightsTrained",
            "offset": 0,
            "slot": "0",
            "type": "t_uint32"
          },
          {
            "astId": 4228,
            "contract": "contracts/settling/facets/ArmyTrainingFacet.sol:ArmyTrainingFacet",
            "label": "knightsSlayed",
            "offset": 4,
            "slot": "0",
            "type": "t_uint32"
          },
          {
            "astId": 4230,
            "contract": "contracts/settling/facets/ArmyTrainingFacet.sol:ArmyTrainingFacet",
            "label": "footSoldiersTrained",
            "offset": 8,
            "slot": "0",
            "type": "t_uint32"
          },
          {
            "astId": 4232,
            "contract": "contracts/settling/facets/ArmyTrainingFacet.sol:ArmyTrainingFacet",
            "label": "footSoldiersSlayed",
            "offset": 12,
            "slot": "0",
            "type": "t_uint32"
          },
          {
            "astId": 4237,
            "contract": "contracts/settling/facets/ArmyTrainingFacet.sol:ArmyTrainingFacet",
            "label": "knights",
            "offset": 0,
            "slot": "1",
            "type": "t_mapping(t_uint256,t_struct(TrainedArmyUnit)4267_storage)"
          },
          {
            "astId": 4242,
            "contract": "contracts/settling/facets/ArmyTrainingFacet.sol:ArmyTrainingFacet",
            "label": "footSoldiers",
            "offset": 0,
            "slot": "2",
            "type": "t_mapping(t_uint256,t_struct(TrainedArmyUnit)4267_storage)"
          }
        ],
        "numberOfBytes": "96"
      },
      "t_struct(RealmInfo)4163_storage": {
        "encoding": "inplace",
        "label": "struct RealmInfo",
        "members": [
          {
            "astId": 4106,
            "contract": "contracts/settling/facets/ArmyTrainingFacet.sol:ArmyTrainingFacet",
            "label": "name",
            "offset": 0,
            "slot": "0",
            "type": "t_string_storage"
          },
          {
            "astId": 4108,
            "contract": "contracts/settling/facets/ArmyTrainingFacet.sol:ArmyTrainingFacet",
            "label": "lastUpdateAt",
            "offset": 0,
            "slot": "1",
            "type": "t_uint256"
          },
          {
            "astId": 4110,
            "contract": "contracts/settling/facets/ArmyTrainingFacet.sol:ArmyTrainingFacet",
            "label": "vestedTimeUpdatedAt",
            "offset": 0,
            "slot": "2",
            "type": "t_uint256"
          },
          {
            "astId": 4112,
            "contract": "contracts/settling/facets/ArmyTrainingFacet.sol:ArmyTrainingFacet",
            "label": "ageSettled",
            "offset": 0,
            "slot": "3",
            "type": "t_uint256"
          },
          {
            "astId": 4114,
            "contract": "contracts/settling/facets/ArmyTrainingFacet.sol:ArmyTrainingFacet",
            "label": "ageClaimed",
            "offset": 0,
            "slot": "4",
            "type": "t_uint256"
          },
          {
            "astId": 4117,
            "contract": "contracts/settling/facets/ArmyTrainingFacet.sol:ArmyTrainingFacet",
            "label": "resourceIds",
            "offset": 0,
            "slot": "5",
            "type": "t_array(t_uint256)dyn_storage"
          },
          {
            "astId": 4119,
            "contract": "contracts/settling/facets/ArmyTrainingFacet.sol:ArmyTrainingFacet",
            "label": "cities",
            "offset": 0,
            "slot": "6",
            "type": "t_uint8"
          },
          {
            "astId": 4121,
            "contract": "contracts/settling/facets/ArmyTrainingFacet.sol:ArmyTrainingFacet",
            "label": "harbours",
            "offset": 1,
            "slot": "6",
            "type": "t_uint8"
          },
          {
            "astId": 4123,
            "contract": "contracts/settling/facets/ArmyTrainingFacet.sol:ArmyTrainingFacet",
            "label": "rivers",
            "offset": 2,
            "slot": "6",
            "type": "t_uint8"
          },
          {
            "astId": 4125,
            "contract": "contracts/settling/facets/ArmyTrainingFacet.sol:ArmyTrainingFacet",
            "label": "regions",
            "offset": 3,
            "slot": "6",
            "type": "t_uint8"
          },
          {
            "astId": 4127,
            "contract": "contracts/settling/facets/ArmyTrainingFacet.sol:ArmyTrainingFacet",
            "label": "wonders",
            "offset": 4,
            "slot": "6",
            "type": "t_uint8"
          },
          {
            "astId": 4129,
            "contract": "contracts/settling/facets/ArmyTrainingFacet.sol:ArmyTrainingFacet",
            "label": "orderOf",
            "offset": 5,
            "slot": "6",
            "type": "t_uint8"
          },
          {
            "astId": 4131,
            "contract": "contracts/settling/facets/ArmyTrainingFacet.sol:ArmyTrainingFacet",
            "label": "aquaducts",
            "offset": 6,
            "slot": "6",
            "type": "t_uint8"
          },
          {
            "astId": 4133,
            "contract": "contracts/settling/facets/ArmyTrainingFacet.sol:ArmyTrainingFacet",
            "label": "temples",
            "offset": 7,
            "slot": "6",
            "type": "t_uint8"
          },
          {
            "astId": 4135,
            "contract": "contracts/settling/facets/ArmyTrainingFacet.sol:ArmyTrainingFacet",
            "label": "castles",
            "offset": 8,
            "slot": "6",
            "type": "t_uint8"
          },
          {
            "astId": 4137,
            "contract": "contracts/settling/facets/ArmyTrainingFacet.sol:ArmyTrainingFacet",
            "label": "markets",
            "offset": 9,
            "slot": "6",
            "type": "t_uint8"
          },
          {
            "astId": 4139,
            "contract": "contracts/settling/facets/ArmyTrainingFacet.sol:ArmyTrainingFacet",
            "label": "ports",
            "offset": 10,
            "slot": "6",
            "type": "t_uint8"
          },
          {
            "astId": 4141,
            "contract": "contracts/settling/facets/ArmyTrainingFacet.sol:ArmyTrainingFacet",
            "label": "barracks",
            "offset": 11,
            "slot": "6",
            "type": "t_uint8"
          },
          {
            "astId": 4143,
            "contract": "contracts/settling/facets/ArmyTrainingFacet.sol:ArmyTrainingFacet",
            "label": "farms",
            "offset": 12,
            "slot": "6",
            "type": "t_uint8"
          },
          {
            "astId": 4145,
            "contract": "contracts/settling/facets/ArmyTrainingFacet.sol:ArmyTrainingFacet",
            "label": "shipyard",
            "offset": 13,
            "slot": "6",
            "type": "t_uint8"
          },
          {
            "astId": 4147,
            "contract": "contracts/settling/facets/ArmyTrainingFacet.sol:ArmyTrainingFacet",
            "label": "fishingVillage",
            "offset": 14,
            "slot": "6",
            "type": "t_uint8"
          },
          {
            "astId": 4149,
            "contract": "contracts/settling/facets/ArmyTrainingFacet.sol:ArmyTrainingFacet",
            "label": "realmDefence",
            "offset": 15,
            "slot": "6",
            "type": "t_int32"
          },
          {
            "astId": 4151,
            "contract": "contracts/settling/facets/ArmyTrainingFacet.sol:ArmyTrainingFacet",
            "label": "realmOffence",
            "offset": 19,
            "slot": "6",
            "type": "t_int32"
          },
          {
            "astId": 4153,
            "contract": "contracts/settling/facets/ArmyTrainingFacet.sol:ArmyTrainingFacet",
            "label": "realmMagic",
            "offset": 23,
            "slot": "6",
            "type": "t_int32"
          },
          {
            "astId": 4155,
            "contract": "contracts/settling/facets/ArmyTrainingFacet.sol:ArmyTrainingFacet",
            "label": "foodSupply",
            "offset": 27,
            "slot": "6",
            "type": "t_int32"
          },
          {
            "astId": 4157,
            "contract": "contracts/settling/facets/ArmyTrainingFacet.sol:ArmyTrainingFacet",
            "label": "population",
            "offset": 0,
            "slot": "7",
            "type": "t_int32"
          },
          {
            "astId": 4162,
            "contract": "contracts/settling/facets/ArmyTrainingFacet.sol:ArmyTrainingFacet",
            "label": "resourceInfo",
            "offset": 0,
            "slot": "8",
            "type": "t_mapping(t_uint256,t_struct(ResourceInfo)4170_storage)"
          }
        ],
        "numberOfBytes": "288"
      },
      "t_struct(ResourceInfo)4170_storage": {
        "encoding": "inplace",
        "label": "struct ResourceInfo",
        "members": [
          {
            "astId": 4165,
            "contract": "contracts/settling/facets/ArmyTrainingFacet.sol:ArmyTrainingFacet",
            "label": "id",
            "offset": 0,
            "slot": "0",
            "type": "t_uint8"
          },
          {
            "astId": 4167,
            "contract": "contracts/settling/facets/ArmyTrainingFacet.sol:ArmyTrainingFacet",
            "label": "level",
            "offset": 1,
            "slot": "0",
            "type": "t_uint8"
          },
          {
            "astId": 4169,
            "contract": "contracts/settling/facets/ArmyTrainingFacet.sol:ArmyTrainingFacet",
            "label": "production",
            "offset": 2,
            "slot": "0",
            "type": "t_uint8"
          }
        ],
        "numberOfBytes": "32"
      },
      "t_struct(TheAges)4104_storage": {
        "encoding": "inplace",
        "label": "struct TheAges",
        "members": [
          {
            "astId": 4099,
            "contract": "contracts/settling/facets/ArmyTrainingFacet.sol:ArmyTrainingFacet",
            "label": "settledRealms",
            "offset": 0,
            "slot": "0",
            "type": "t_uint256"
          },
          {
            "astId": 4101,
            "contract": "contracts/settling/facets/ArmyTrainingFacet.sol:ArmyTrainingFacet",
            "label": "ageStart",
            "offset": 0,
            "slot": "1",
            "type": "t_uint256"
          },
          {
            "astId": 4103,
            "contract": "contracts/settling/facets/ArmyTrainingFacet.sol:ArmyTrainingFacet",
            "label": "ageFinish",
            "offset": 0,
            "slot": "2",
            "type": "t_uint256"
          }
        ],
        "numberOfBytes": "96"
      },
      "t_struct(TrainedArmyUnit)4267_storage": {
        "encoding": "inplace",
        "label": "struct TrainedArmyUnit",
        "members": [
          {
            "astId": 4264,
            "contract": "contracts/settling/facets/ArmyTrainingFacet.sol:ArmyTrainingFacet",
            "label": "destroyed",
            "offset": 0,
            "slot": "0",
            "type": "t_bool"
          },
          {
            "astId": 4266,
            "contract": "contracts/settling/facets/ArmyTrainingFacet.sol:ArmyTrainingFacet",
            "label": "unitFinished",
            "offset": 0,
            "slot": "1",
            "type": "t_uint256"
          }
        ],
        "numberOfBytes": "64"
      },
      "t_struct(UpgradeCostLevels)4217_storage": {
        "encoding": "inplace",
        "label": "struct UpgradeCostLevels",
        "members": [
          {
            "astId": 4216,
            "contract": "contracts/settling/facets/ArmyTrainingFacet.sol:ArmyTrainingFacet",
            "label": "value",
            "offset": 0,
            "slot": "0",
            "type": "t_array(t_uint256)dyn_storage"
          }
        ],
        "numberOfBytes": "32"
      },
      "t_struct(UpgradeCosts)4213_storage": {
        "encoding": "inplace",
        "label": "struct UpgradeCosts",
        "members": [
          {
            "astId": 4207,
            "contract": "contracts/settling/facets/ArmyTrainingFacet.sol:ArmyTrainingFacet",
            "label": "resourceIds",
            "offset": 0,
            "slot": "0",
            "type": "t_array(t_uint8)dyn_storage"
          },
          {
            "astId": 4212,
            "contract": "contracts/settling/facets/ArmyTrainingFacet.sol:ArmyTrainingFacet",
            "label": "upgradeCostLevels",
            "offset": 0,
            "slot": "1",
            "type": "t_mapping(t_uint256,t_struct(UpgradeCostLevels)4217_storage)"
          }
        ],
        "numberOfBytes": "64"
      },
      "t_uint256": {
        "encoding": "inplace",
        "label": "uint256",
        "numberOfBytes": "32"
      },
      "t_uint32": {
        "encoding": "inplace",
        "label": "uint32",
        "numberOfBytes": "4"
      },
      "t_uint8": {
        "encoding": "inplace",
        "label": "uint8",
        "numberOfBytes": "1"
      }
    }
  }
}