{
  "address": "0xcA9c5a47A4E0be47e383D8D59917c083005bb188",
  "abi": [
    {
      "inputs": [
        {
          "internalType": "uint256",
          "name": "_tokenId",
          "type": "uint256"
        }
      ],
      "name": "get30DayVestingTime",
      "outputs": [
        {
          "internalType": "uint256",
          "name": "",
          "type": "uint256"
        }
      ],
      "stateMutability": "view",
      "type": "function"
    },
    {
      "inputs": [
        {
          "internalType": "uint256",
          "name": "_tokenId",
          "type": "uint256"
        }
      ],
      "name": "getAgeClaimed",
      "outputs": [
        {
          "internalType": "uint256",
          "name": "",
          "type": "uint256"
        }
      ],
      "stateMutability": "view",
      "type": "function"
    },
    {
      "inputs": [
        {
          "internalType": "uint256",
          "name": "_tokenId",
          "type": "uint256"
        }
      ],
      "name": "getAgeSettled",
      "outputs": [
        {
          "internalType": "uint256",
          "name": "",
          "type": "uint256"
        }
      ],
      "stateMutability": "view",
      "type": "function"
    },
    {
      "inputs": [
        {
          "internalType": "uint256",
          "name": "_realmId",
          "type": "uint256"
        }
      ],
      "name": "getAllStatistics",
      "outputs": [
        {
          "internalType": "int32",
          "name": "",
          "type": "int32"
        },
        {
          "internalType": "int32",
          "name": "",
          "type": "int32"
        },
        {
          "internalType": "int32",
          "name": "",
          "type": "int32"
        },
        {
          "internalType": "int32",
          "name": "",
          "type": "int32"
        },
        {
          "internalType": "int32",
          "name": "",
          "type": "int32"
        }
      ],
      "stateMutability": "view",
      "type": "function"
    },
    {
      "inputs": [
        {
          "internalType": "uint256",
          "name": "_tokenId",
          "type": "uint256"
        }
      ],
      "name": "getAllTraits",
      "outputs": [
        {
          "internalType": "uint256",
          "name": "",
          "type": "uint256"
        },
        {
          "internalType": "uint256",
          "name": "",
          "type": "uint256"
        },
        {
          "internalType": "uint256",
          "name": "",
          "type": "uint256"
        },
        {
          "internalType": "uint256",
          "name": "",
          "type": "uint256"
        },
        {
          "internalType": "uint256",
          "name": "",
          "type": "uint256"
        },
        {
          "internalType": "uint256",
          "name": "",
          "type": "uint256"
        }
      ],
      "stateMutability": "view",
      "type": "function"
    },
    {
      "inputs": [
        {
          "internalType": "uint256",
          "name": "_tokenId",
          "type": "uint256"
        }
      ],
      "name": "getCities",
      "outputs": [
        {
          "internalType": "uint256",
          "name": "",
          "type": "uint256"
        }
      ],
      "stateMutability": "view",
      "type": "function"
    },
    {
      "inputs": [
        {
          "internalType": "uint256",
          "name": "_tokenId",
          "type": "uint256"
        }
      ],
      "name": "getFoodSupply",
      "outputs": [
        {
          "internalType": "int256",
          "name": "",
          "type": "int256"
        }
      ],
      "stateMutability": "view",
      "type": "function"
    },
    {
      "inputs": [
        {
          "internalType": "uint256",
          "name": "_tokenId",
          "type": "uint256"
        }
      ],
      "name": "getHarbours",
      "outputs": [
        {
          "internalType": "uint256",
          "name": "",
          "type": "uint256"
        }
      ],
      "stateMutability": "view",
      "type": "function"
    },
    {
      "inputs": [],
      "name": "getLordsAddress",
      "outputs": [
        {
          "internalType": "address",
          "name": "",
          "type": "address"
        }
      ],
      "stateMutability": "view",
      "type": "function"
    },
    {
      "inputs": [
        {
          "internalType": "uint256",
          "name": "_tokenId",
          "type": "uint256"
        }
      ],
      "name": "getName",
      "outputs": [
        {
          "internalType": "string",
          "name": "",
          "type": "string"
        }
      ],
      "stateMutability": "view",
      "type": "function"
    },
    {
      "inputs": [
        {
          "internalType": "uint256",
          "name": "_tokenId",
          "type": "uint256"
        }
      ],
      "name": "getPopulation",
      "outputs": [
        {
          "internalType": "int256",
          "name": "",
          "type": "int256"
        }
      ],
      "stateMutability": "view",
      "type": "function"
    },
    {
      "inputs": [
        {
          "internalType": "uint256",
          "name": "_tokenId",
          "type": "uint256"
        }
      ],
      "name": "getRealmAgeInfo",
      "outputs": [
        {
          "internalType": "uint256",
          "name": "",
          "type": "uint256"
        },
        {
          "internalType": "uint256",
          "name": "",
          "type": "uint256"
        }
      ],
      "stateMutability": "view",
      "type": "function"
    },
    {
      "inputs": [],
      "name": "getRealmsAddress",
      "outputs": [
        {
          "internalType": "address",
          "name": "",
          "type": "address"
        }
      ],
      "stateMutability": "view",
      "type": "function"
    },
    {
      "inputs": [
        {
          "internalType": "uint256",
          "name": "_tokenId",
          "type": "uint256"
        }
      ],
      "name": "getRegions",
      "outputs": [
        {
          "internalType": "uint256",
          "name": "",
          "type": "uint256"
        }
      ],
      "stateMutability": "view",
      "type": "function"
    },
    {
      "inputs": [],
      "name": "getResourceAddress",
      "outputs": [
        {
          "internalType": "address",
          "name": "",
          "type": "address"
        }
      ],
      "stateMutability": "view",
      "type": "function"
    },
    {
      "inputs": [
        {
          "internalType": "uint256",
          "name": "_tokenId",
          "type": "uint256"
        }
      ],
      "name": "getResourceIds",
      "outputs": [
        {
          "internalType": "uint256[]",
          "name": "",
          "type": "uint256[]"
        }
      ],
      "stateMutability": "view",
      "type": "function"
    },
    {
      "inputs": [
        {
          "internalType": "uint256",
          "name": "_tokenId",
          "type": "uint256"
        }
      ],
      "name": "getResourceLength",
      "outputs": [
        {
          "internalType": "uint256",
          "name": "",
          "type": "uint256"
        }
      ],
      "stateMutability": "view",
      "type": "function"
    },
    {
      "inputs": [
        {
          "internalType": "uint256",
          "name": "_tokenId",
          "type": "uint256"
        }
      ],
      "name": "getRivers",
      "outputs": [
        {
          "internalType": "uint256",
          "name": "",
          "type": "uint256"
        }
      ],
      "stateMutability": "view",
      "type": "function"
    },
    {
      "inputs": [],
      "name": "getSRealmsAddress",
      "outputs": [
        {
          "internalType": "address",
          "name": "",
          "type": "address"
        }
      ],
      "stateMutability": "view",
      "type": "function"
    },
    {
      "inputs": [],
      "name": "getTreasuryAddress",
      "outputs": [
        {
          "internalType": "address",
          "name": "",
          "type": "address"
        }
      ],
      "stateMutability": "view",
      "type": "function"
    },
    {
      "inputs": [
        {
          "internalType": "uint256",
          "name": "_tokenId",
          "type": "uint256"
        }
      ],
      "name": "getVestingTime",
      "outputs": [
        {
          "internalType": "uint256",
          "name": "",
          "type": "uint256"
        }
      ],
      "stateMutability": "view",
      "type": "function"
    },
    {
      "inputs": [
        {
          "internalType": "uint256",
          "name": "_tokenId",
          "type": "uint256"
        }
      ],
      "name": "getWonder",
      "outputs": [
        {
          "internalType": "uint256",
          "name": "",
          "type": "uint256"
        }
      ],
      "stateMutability": "view",
      "type": "function"
    }
  ],
  "transactionHash": "0xa5d335302e7c9a3d9b64dda051897420cc952b112a0a345f7a20d22e8dd9189f",
  "args": [],
  "solcInputHash": "d8b2bb63233aed491a06ed5388fa0df5",
  "bytecode": "0x608060405234801561001057600080fd5b50610f91806100206000396000f3fe608060405234801561001057600080fd5b50600436106101425760003560e01c806361eb6865116100b857806380695a881161007c57806380695a88146104155780639fb42cf414610433578063ab67134b14610468578063b47e8c5e14610498578063db99740f146104c8578063e0024604146104f957610142565b806361eb6865146103335780636b8ff574146103635780636bd1d84d146103935780637b7cc4e5146103c75780637fe4faf8146103e557610142565b8063322942ee1161010a578063322942ee146102255780633cb84261146102555780633e383b4314610273578063431f8864146102a357806346b9cb8a146102d35780635c5081281461030357610142565b806304eaf327146101475780630ba6d7d3146101775780631634a51d1461019557806319d7151d146101c5578063255a4217146101f5575b600080fd5b610161600480360381019061015c9190610aff565b610517565b60405161016e9190610cef565b60405180910390f35b61017f61054e565b60405161018c9190610c22565b60405180910390f35b6101af60048036038101906101aa9190610aff565b61057a565b6040516101bc9190610c5f565b60405180910390f35b6101df60048036038101906101da9190610aff565b6105b1565b6040516101ec9190610cef565b60405180910390f35b61020f600480360381019061020a9190610aff565b6105e8565b60405161021c9190610cef565b60405180910390f35b61023f600480360381019061023a9190610aff565b61060f565b60405161024c9190610cef565b60405180910390f35b61025d610641565b60405161026a9190610c22565b60405180910390f35b61028d60048036038101906102889190610aff565b61066d565b60405161029a9190610cef565b60405180910390f35b6102bd60048036038101906102b89190610aff565b610694565b6040516102ca9190610c5f565b60405180910390f35b6102ed60048036038101906102e89190610aff565b6106cb565b6040516102fa9190610cef565b60405180910390f35b61031d60048036038101906103189190610aff565b6106fd565b60405161032a9190610cef565b60405180910390f35b61034d60048036038101906103489190610aff565b610727565b60405161035a9190610c3d565b60405180910390f35b61037d60048036038101906103789190610aff565b61079d565b60405161038a9190610ccd565b60405180910390f35b6103ad60048036038101906103a89190610aff565b61084d565b6040516103be959493929190610c7a565b60405180910390f35b6103cf6108db565b6040516103dc9190610c22565b60405180910390f35b6103ff60048036038101906103fa9190610aff565b610907565b60405161040c9190610cef565b60405180910390f35b61041d61093e565b60405161042a9190610c22565b60405180910390f35b61044d60048036038101906104489190610aff565b61096a565b60405161045f96959493929190610d33565b60405180910390f35b610482600480360381019061047d9190610aff565b610a32565b60405161048f9190610cef565b60405180910390f35b6104b260048036038101906104ad9190610aff565b610a69565b6040516104bf9190610cef565b60405180910390f35b6104e260048036038101906104dd9190610aff565b610aa0565b6040516104f0929190610d0a565b60405180910390f35b610501610abe565b60405161050e9190610c22565b60405180910390f35b60008060008001600084815260200190815260200160002090508060060160019054906101000a900460ff1660ff16915050919050565b60008060010160009054906101000a900473ffffffffffffffffffffffffffffffffffffffff16905090565b60008060008001600084815260200190815260200160002090508060070160009054906101000a900460030b60030b915050919050565b60008060008001600084815260200190815260200160002090508060060160049054906101000a900460ff1660ff16915050919050565b60008060008001600084815260200190815260200160002090508060040154915050919050565b60008060008001600084815260200190815260200160002090508060020154426106399190610de9565b915050919050565b60008060050160009054906101000a900473ffffffffffffffffffffffffffffffffffffffff16905090565b60008060008001600084815260200190815260200160002090508060030154915050919050565b600080600080016000848152602001908152602001600020905080600601601b9054906101000a900460030b60030b915050919050565b60008060008001600084815260200190815260200160002090508060010154426106f59190610de9565b915050919050565b60008060008001600084815260200190815260200160002090508060050180549050915050919050565b6060600080600001600084815260200190815260200160002090508060050180548060200260200160405190810160405280929190818152602001828054801561079057602002820191906000526020600020905b81548152602001906001019080831161077c575b5050505050915050919050565b6060600080600001600084815260200190815260200160002090508060000180546107c790610ea3565b80601f01602080910402602001604051908101604052809291908181526020018280546107f390610ea3565b80156108405780601f1061081557610100808354040283529160200191610840565b820191906000526020600020905b81548152906001019060200180831161082357829003601f168201915b5050505050915050919050565b600080600080600080600080016000888152602001908152602001600020905080600601600f9054906101000a900460030b8160060160139054906101000a900460030b8260060160179054906101000a900460030b83600601601b9054906101000a900460030b8460070160009054906101000a900460030b955095509550955095505091939590929450565b60008060020160009054906101000a900473ffffffffffffffffffffffffffffffffffffffff16905090565b60008060008001600084815260200190815260200160002090508060060160009054906101000a900460ff1660ff16915050919050565b60008060070160009054906101000a900473ffffffffffffffffffffffffffffffffffffffff16905090565b600080600080600080600080600001600089815260200190815260200160002090508060060160039054906101000a900460ff168160060160009054906101000a900460ff168260060160019054906101000a900460ff168360060160029054906101000a900460ff168460060160059054906101000a900460ff168560060160049054906101000a900460ff168560ff1695508460ff1694508360ff1693508260ff1692508160ff1691508060ff1690509650965096509650965096505091939550919395565b60008060008001600084815260200190815260200160002090508060060160029054906101000a900460ff1660ff16915050919050565b60008060008001600084815260200190815260200160002090508060060160039054906101000a900460ff1660ff16915050919050565b600080610aac8361066d565b610ab5846105e8565b91509150915091565b60008060040160009054906101000a900473ffffffffffffffffffffffffffffffffffffffff16905090565b600081359050610af981610f44565b92915050565b600060208284031215610b1157600080fd5b6000610b1f84828501610aea565b91505092915050565b6000610b348383610c04565b60208301905092915050565b610b4981610e1d565b82525050565b6000610b5a82610da4565b610b648185610dc7565b9350610b6f83610d94565b8060005b83811015610ba0578151610b878882610b28565b9750610b9283610dba565b925050600181019050610b73565b5085935050505092915050565b610bb681610e2f565b82525050565b610bc581610e39565b82525050565b6000610bd682610daf565b610be08185610dd8565b9350610bf0818560208601610e70565b610bf981610f33565b840191505092915050565b610c0d81610e66565b82525050565b610c1c81610e66565b82525050565b6000602082019050610c376000830184610b40565b92915050565b60006020820190508181036000830152610c578184610b4f565b905092915050565b6000602082019050610c746000830184610bad565b92915050565b600060a082019050610c8f6000830188610bbc565b610c9c6020830187610bbc565b610ca96040830186610bbc565b610cb66060830185610bbc565b610cc36080830184610bbc565b9695505050505050565b60006020820190508181036000830152610ce78184610bcb565b905092915050565b6000602082019050610d046000830184610c13565b92915050565b6000604082019050610d1f6000830185610c13565b610d2c6020830184610c13565b9392505050565b600060c082019050610d486000830189610c13565b610d556020830188610c13565b610d626040830187610c13565b610d6f6060830186610c13565b610d7c6080830185610c13565b610d8960a0830184610c13565b979650505050505050565b6000819050602082019050919050565b600081519050919050565b600081519050919050565b6000602082019050919050565b600082825260208201905092915050565b600082825260208201905092915050565b6000610df482610e66565b9150610dff83610e66565b925082821015610e1257610e11610ed5565b5b828203905092915050565b6000610e2882610e46565b9050919050565b6000819050919050565b60008160030b9050919050565b600073ffffffffffffffffffffffffffffffffffffffff82169050919050565b6000819050919050565b60005b83811015610e8e578082015181840152602081019050610e73565b83811115610e9d576000848401525b50505050565b60006002820490506001821680610ebb57607f821691505b60208210811415610ecf57610ece610f04565b5b50919050565b7f4e487b7100000000000000000000000000000000000000000000000000000000600052601160045260246000fd5b7f4e487b7100000000000000000000000000000000000000000000000000000000600052602260045260246000fd5b6000601f19601f8301169050919050565b610f4d81610e66565b8114610f5857600080fd5b5056fea264697066735822122030c5956de1ab23137a4967cf57ff2fe623c65dd65fa913c80462dcb75f82c6c764736f6c63430008030033",
  "devdoc": {
    "kind": "dev",
    "methods": {},
    "version": 1
  },
  "userdoc": {
    "kind": "user",
    "methods": {},
    "version": 1
  },
  "storageLayout": {
    "storage": [
      {
        "astId": 2179,
        "contract": "contracts/settling/facets/GetterFacet.sol:GetterFacet",
        "label": "s",
        "offset": 0,
        "slot": "0",
        "type": "t_struct(AppStorage)5246_storage"
      }
    ],
    "types": {
      "t_address": {
        "encoding": "inplace",
        "label": "address",
        "numberOfBytes": "20"
      },
      "t_array(t_uint256)dyn_storage": {
        "base": "t_uint256",
        "encoding": "dynamic_array",
        "label": "uint256[]",
        "numberOfBytes": "32"
      },
      "t_array(t_uint32)dyn_storage": {
        "base": "t_uint32",
        "encoding": "dynamic_array",
        "label": "uint32[]",
        "numberOfBytes": "32"
      },
      "t_array(t_uint8)dyn_storage": {
        "base": "t_uint8",
        "encoding": "dynamic_array",
        "label": "uint8[]",
        "numberOfBytes": "32"
      },
      "t_bool": {
        "encoding": "inplace",
        "label": "bool",
        "numberOfBytes": "1"
      },
      "t_int32": {
        "encoding": "inplace",
        "label": "int32",
        "numberOfBytes": "4"
      },
      "t_mapping(t_uint256,t_struct(ArmyUnit)5431_storage)": {
        "encoding": "mapping",
        "key": "t_uint256",
        "label": "mapping(uint256 => struct ArmyUnit)",
        "numberOfBytes": "32",
        "value": "t_struct(ArmyUnit)5431_storage"
      },
      "t_mapping(t_uint256,t_struct(BuildingCosts)5341_storage)": {
        "encoding": "mapping",
        "key": "t_uint256",
        "label": "mapping(uint256 => struct BuildingCosts)",
        "numberOfBytes": "32",
        "value": "t_struct(BuildingCosts)5341_storage"
      },
      "t_mapping(t_uint256,t_struct(BuildingUpgradeCosts)5350_storage)": {
        "encoding": "mapping",
        "key": "t_uint256",
        "label": "mapping(uint256 => struct BuildingUpgradeCosts)",
        "numberOfBytes": "32",
        "value": "t_struct(BuildingUpgradeCosts)5350_storage"
      },
      "t_mapping(t_uint256,t_struct(DefendingArmy)5411_storage)": {
        "encoding": "mapping",
        "key": "t_uint256",
        "label": "mapping(uint256 => struct DefendingArmy)",
        "numberOfBytes": "32",
        "value": "t_struct(DefendingArmy)5411_storage"
      },
      "t_mapping(t_uint256,t_struct(LevelProduction)5353_storage)": {
        "encoding": "mapping",
        "key": "t_uint256",
        "label": "mapping(uint256 => struct LevelProduction)",
        "numberOfBytes": "32",
        "value": "t_struct(LevelProduction)5353_storage"
      },
      "t_mapping(t_uint256,t_struct(Raiding)5373_storage)": {
        "encoding": "mapping",
        "key": "t_uint256",
        "label": "mapping(uint256 => struct Raiding)",
        "numberOfBytes": "32",
        "value": "t_struct(Raiding)5373_storage"
      },
      "t_mapping(t_uint256,t_struct(RaidingArmy)5392_storage)": {
        "encoding": "mapping",
        "key": "t_uint256",
        "label": "mapping(uint256 => struct RaidingArmy)",
        "numberOfBytes": "32",
        "value": "t_struct(RaidingArmy)5392_storage"
      },
      "t_mapping(t_uint256,t_struct(RealmInfo)5312_storage)": {
        "encoding": "mapping",
        "key": "t_uint256",
        "label": "mapping(uint256 => struct RealmInfo)",
        "numberOfBytes": "32",
        "value": "t_struct(RealmInfo)5312_storage"
      },
      "t_mapping(t_uint256,t_struct(ResourceInfo)5319_storage)": {
        "encoding": "mapping",
        "key": "t_uint256",
        "label": "mapping(uint256 => struct ResourceInfo)",
        "numberOfBytes": "32",
        "value": "t_struct(ResourceInfo)5319_storage"
      },
      "t_mapping(t_uint256,t_struct(TheAges)5253_storage)": {
        "encoding": "mapping",
        "key": "t_uint256",
        "label": "mapping(uint256 => struct TheAges)",
        "numberOfBytes": "32",
        "value": "t_struct(TheAges)5253_storage"
      },
      "t_mapping(t_uint256,t_struct(TrainedArmyUnit)5416_storage)": {
        "encoding": "mapping",
        "key": "t_uint256",
        "label": "mapping(uint256 => struct TrainedArmyUnit)",
        "numberOfBytes": "32",
        "value": "t_struct(TrainedArmyUnit)5416_storage"
      },
      "t_mapping(t_uint256,t_struct(UpgradeCostLevels)5366_storage)": {
        "encoding": "mapping",
        "key": "t_uint256",
        "label": "mapping(uint256 => struct UpgradeCostLevels)",
        "numberOfBytes": "32",
        "value": "t_struct(UpgradeCostLevels)5366_storage"
      },
      "t_mapping(t_uint256,t_struct(UpgradeCosts)5362_storage)": {
        "encoding": "mapping",
        "key": "t_uint256",
        "label": "mapping(uint256 => struct UpgradeCosts)",
        "numberOfBytes": "32",
        "value": "t_struct(UpgradeCosts)5362_storage"
      },
      "t_string_storage": {
        "encoding": "bytes",
        "label": "string",
        "numberOfBytes": "32"
      },
      "t_struct(AppStorage)5246_storage": {
        "encoding": "inplace",
        "label": "struct AppStorage",
        "members": [
          {
            "astId": 5184,
            "contract": "contracts/settling/facets/GetterFacet.sol:GetterFacet",
            "label": "realmInfo",
            "offset": 0,
            "slot": "0",
            "type": "t_mapping(t_uint256,t_struct(RealmInfo)5312_storage)"
          },
          {
            "astId": 5186,
            "contract": "contracts/settling/facets/GetterFacet.sol:GetterFacet",
            "label": "sRealms",
            "offset": 0,
            "slot": "1",
            "type": "t_address"
          },
          {
            "astId": 5188,
            "contract": "contracts/settling/facets/GetterFacet.sol:GetterFacet",
            "label": "realms",
            "offset": 0,
            "slot": "2",
            "type": "t_address"
          },
          {
            "astId": 5190,
            "contract": "contracts/settling/facets/GetterFacet.sol:GetterFacet",
            "label": "realmsStorage",
            "offset": 0,
            "slot": "3",
            "type": "t_address"
          },
          {
            "astId": 5192,
            "contract": "contracts/settling/facets/GetterFacet.sol:GetterFacet",
            "label": "treasury",
            "offset": 0,
            "slot": "4",
            "type": "t_address"
          },
          {
            "astId": 5194,
            "contract": "contracts/settling/facets/GetterFacet.sol:GetterFacet",
            "label": "resources",
            "offset": 0,
            "slot": "5",
            "type": "t_address"
          },
          {
            "astId": 5196,
            "contract": "contracts/settling/facets/GetterFacet.sol:GetterFacet",
            "label": "oracle",
            "offset": 0,
            "slot": "6",
            "type": "t_address"
          },
          {
            "astId": 5198,
            "contract": "contracts/settling/facets/GetterFacet.sol:GetterFacet",
            "label": "lords",
            "offset": 0,
            "slot": "7",
            "type": "t_address"
          },
          {
            "astId": 5203,
            "contract": "contracts/settling/facets/GetterFacet.sol:GetterFacet",
            "label": "levelProduction",
            "offset": 0,
            "slot": "8",
            "type": "t_mapping(t_uint256,t_struct(LevelProduction)5353_storage)"
          },
          {
            "astId": 5208,
            "contract": "contracts/settling/facets/GetterFacet.sol:GetterFacet",
            "label": "upgradeCosts",
            "offset": 0,
            "slot": "9",
            "type": "t_mapping(t_uint256,t_struct(UpgradeCosts)5362_storage)"
          },
          {
            "astId": 5213,
            "contract": "contracts/settling/facets/GetterFacet.sol:GetterFacet",
            "label": "buildingUpgradeCosts",
            "offset": 0,
            "slot": "10",
            "type": "t_mapping(t_uint256,t_struct(BuildingUpgradeCosts)5350_storage)"
          },
          {
            "astId": 5218,
            "contract": "contracts/settling/facets/GetterFacet.sol:GetterFacet",
            "label": "buildingCosts",
            "offset": 0,
            "slot": "11",
            "type": "t_mapping(t_uint256,t_struct(BuildingCosts)5341_storage)"
          },
          {
            "astId": 5223,
            "contract": "contracts/settling/facets/GetterFacet.sol:GetterFacet",
            "label": "theAges",
            "offset": 0,
            "slot": "12",
            "type": "t_mapping(t_uint256,t_struct(TheAges)5253_storage)"
          },
          {
            "astId": 5225,
            "contract": "contracts/settling/facets/GetterFacet.sol:GetterFacet",
            "label": "genesisTime",
            "offset": 0,
            "slot": "13",
            "type": "t_uint256"
          },
          {
            "astId": 5230,
            "contract": "contracts/settling/facets/GetterFacet.sol:GetterFacet",
            "label": "raiding",
            "offset": 0,
            "slot": "14",
            "type": "t_mapping(t_uint256,t_struct(Raiding)5373_storage)"
          },
          {
            "astId": 5235,
            "contract": "contracts/settling/facets/GetterFacet.sol:GetterFacet",
            "label": "raidingArmy",
            "offset": 0,
            "slot": "15",
            "type": "t_mapping(t_uint256,t_struct(RaidingArmy)5392_storage)"
          },
          {
            "astId": 5240,
            "contract": "contracts/settling/facets/GetterFacet.sol:GetterFacet",
            "label": "defendingArmy",
            "offset": 0,
            "slot": "16",
            "type": "t_mapping(t_uint256,t_struct(DefendingArmy)5411_storage)"
          },
          {
            "astId": 5245,
            "contract": "contracts/settling/facets/GetterFacet.sol:GetterFacet",
            "label": "armyUnit",
            "offset": 0,
            "slot": "17",
            "type": "t_mapping(t_uint256,t_struct(ArmyUnit)5431_storage)"
          }
        ],
        "numberOfBytes": "576"
      },
      "t_struct(ArmyUnit)5431_storage": {
        "encoding": "inplace",
        "label": "struct ArmyUnit",
        "members": [
          {
            "astId": 5418,
            "contract": "contracts/settling/facets/GetterFacet.sol:GetterFacet",
            "label": "name",
            "offset": 0,
            "slot": "0",
            "type": "t_string_storage"
          },
          {
            "astId": 5420,
            "contract": "contracts/settling/facets/GetterFacet.sol:GetterFacet",
            "label": "timeToTrain",
            "offset": 0,
            "slot": "1",
            "type": "t_uint256"
          },
          {
            "astId": 5422,
            "contract": "contracts/settling/facets/GetterFacet.sol:GetterFacet",
            "label": "offence",
            "offset": 0,
            "slot": "2",
            "type": "t_uint32"
          },
          {
            "astId": 5424,
            "contract": "contracts/settling/facets/GetterFacet.sol:GetterFacet",
            "label": "defence",
            "offset": 4,
            "slot": "2",
            "type": "t_uint32"
          },
          {
            "astId": 5427,
            "contract": "contracts/settling/facets/GetterFacet.sol:GetterFacet",
            "label": "resourceIds",
            "offset": 0,
            "slot": "3",
            "type": "t_array(t_uint256)dyn_storage"
          },
          {
            "astId": 5430,
            "contract": "contracts/settling/facets/GetterFacet.sol:GetterFacet",
            "label": "resourceValues",
            "offset": 0,
            "slot": "4",
            "type": "t_array(t_uint256)dyn_storage"
          }
        ],
        "numberOfBytes": "160"
      },
      "t_struct(BuildingCosts)5341_storage": {
        "encoding": "inplace",
        "label": "struct BuildingCosts",
        "members": [
          {
            "astId": 5321,
            "contract": "contracts/settling/facets/GetterFacet.sol:GetterFacet",
            "label": "name",
            "offset": 0,
            "slot": "0",
            "type": "t_string_storage"
          },
          {
            "astId": 5324,
            "contract": "contracts/settling/facets/GetterFacet.sol:GetterFacet",
            "label": "resourceIds",
            "offset": 0,
            "slot": "1",
            "type": "t_array(t_uint32)dyn_storage"
          },
          {
            "astId": 5327,
            "contract": "contracts/settling/facets/GetterFacet.sol:GetterFacet",
            "label": "resourceValues",
            "offset": 0,
            "slot": "2",
            "type": "t_array(t_uint32)dyn_storage"
          },
          {
            "astId": 5330,
            "contract": "contracts/settling/facets/GetterFacet.sol:GetterFacet",
            "label": "requirements",
            "offset": 0,
            "slot": "3",
            "type": "t_array(t_uint32)dyn_storage"
          },
          {
            "astId": 5332,
            "contract": "contracts/settling/facets/GetterFacet.sol:GetterFacet",
            "label": "defence",
            "offset": 0,
            "slot": "4",
            "type": "t_int32"
          },
          {
            "astId": 5334,
            "contract": "contracts/settling/facets/GetterFacet.sol:GetterFacet",
            "label": "offence",
            "offset": 4,
            "slot": "4",
            "type": "t_int32"
          },
          {
            "astId": 5336,
            "contract": "contracts/settling/facets/GetterFacet.sol:GetterFacet",
            "label": "magic",
            "offset": 8,
            "slot": "4",
            "type": "t_int32"
          },
          {
            "astId": 5338,
            "contract": "contracts/settling/facets/GetterFacet.sol:GetterFacet",
            "label": "population",
            "offset": 12,
            "slot": "4",
            "type": "t_int32"
          },
          {
            "astId": 5340,
            "contract": "contracts/settling/facets/GetterFacet.sol:GetterFacet",
            "label": "food",
            "offset": 16,
            "slot": "4",
            "type": "t_int32"
          }
        ],
        "numberOfBytes": "160"
      },
      "t_struct(BuildingUpgradeCosts)5350_storage": {
        "encoding": "inplace",
        "label": "struct BuildingUpgradeCosts",
        "members": [
          {
            "astId": 5344,
            "contract": "contracts/settling/facets/GetterFacet.sol:GetterFacet",
            "label": "realmBuildings",
            "offset": 0,
            "slot": "0",
            "type": "t_array(t_uint8)dyn_storage"
          },
          {
            "astId": 5349,
            "contract": "contracts/settling/facets/GetterFacet.sol:GetterFacet",
            "label": "buildingCosts",
            "offset": 0,
            "slot": "1",
            "type": "t_mapping(t_uint256,t_struct(BuildingCosts)5341_storage)"
          }
        ],
        "numberOfBytes": "64"
      },
      "t_struct(DefendingArmy)5411_storage": {
        "encoding": "inplace",
        "label": "struct DefendingArmy",
        "members": [
          {
            "astId": 5394,
            "contract": "contracts/settling/facets/GetterFacet.sol:GetterFacet",
            "label": "trebuchetsTrained",
            "offset": 0,
            "slot": "0",
            "type": "t_uint32"
          },
          {
            "astId": 5396,
            "contract": "contracts/settling/facets/GetterFacet.sol:GetterFacet",
            "label": "trebuchetsSlayed",
            "offset": 4,
            "slot": "0",
            "type": "t_uint32"
          },
          {
            "astId": 5398,
            "contract": "contracts/settling/facets/GetterFacet.sol:GetterFacet",
            "label": "scorpionsTrained",
            "offset": 8,
            "slot": "0",
            "type": "t_uint32"
          },
          {
            "astId": 5400,
            "contract": "contracts/settling/facets/GetterFacet.sol:GetterFacet",
            "label": "scorpionsSlayed",
            "offset": 12,
            "slot": "0",
            "type": "t_uint32"
          },
          {
            "astId": 5405,
            "contract": "contracts/settling/facets/GetterFacet.sol:GetterFacet",
            "label": "trebuchets",
            "offset": 0,
            "slot": "1",
            "type": "t_mapping(t_uint256,t_struct(TrainedArmyUnit)5416_storage)"
          },
          {
            "astId": 5410,
            "contract": "contracts/settling/facets/GetterFacet.sol:GetterFacet",
            "label": "scorpions",
            "offset": 0,
            "slot": "2",
            "type": "t_mapping(t_uint256,t_struct(TrainedArmyUnit)5416_storage)"
          }
        ],
        "numberOfBytes": "96"
      },
      "t_struct(LevelProduction)5353_storage": {
        "encoding": "inplace",
        "label": "struct LevelProduction",
        "members": [
          {
            "astId": 5352,
            "contract": "contracts/settling/facets/GetterFacet.sol:GetterFacet",
            "label": "output",
            "offset": 0,
            "slot": "0",
            "type": "t_uint8"
          }
        ],
        "numberOfBytes": "32"
      },
      "t_struct(Raiding)5373_storage": {
        "encoding": "inplace",
        "label": "struct Raiding",
        "members": [
          {
            "astId": 5368,
            "contract": "contracts/settling/facets/GetterFacet.sol:GetterFacet",
            "label": "coolDownTime",
            "offset": 0,
            "slot": "0",
            "type": "t_uint256"
          },
          {
            "astId": 5370,
            "contract": "contracts/settling/facets/GetterFacet.sol:GetterFacet",
            "label": "totalRaids",
            "offset": 0,
            "slot": "1",
            "type": "t_uint256"
          },
          {
            "astId": 5372,
            "contract": "contracts/settling/facets/GetterFacet.sol:GetterFacet",
            "label": "successfulRaids",
            "offset": 0,
            "slot": "2",
            "type": "t_uint256"
          }
        ],
        "numberOfBytes": "96"
      },
      "t_struct(RaidingArmy)5392_storage": {
        "encoding": "inplace",
        "label": "struct RaidingArmy",
        "members": [
          {
            "astId": 5375,
            "contract": "contracts/settling/facets/GetterFacet.sol:GetterFacet",
            "label": "knightsTrained",
            "offset": 0,
            "slot": "0",
            "type": "t_uint32"
          },
          {
            "astId": 5377,
            "contract": "contracts/settling/facets/GetterFacet.sol:GetterFacet",
            "label": "knightsSlayed",
            "offset": 4,
            "slot": "0",
            "type": "t_uint32"
          },
          {
            "astId": 5379,
            "contract": "contracts/settling/facets/GetterFacet.sol:GetterFacet",
            "label": "footSoldiersTrained",
            "offset": 8,
            "slot": "0",
            "type": "t_uint32"
          },
          {
            "astId": 5381,
            "contract": "contracts/settling/facets/GetterFacet.sol:GetterFacet",
            "label": "footSoldiersSlayed",
            "offset": 12,
            "slot": "0",
            "type": "t_uint32"
          },
          {
            "astId": 5386,
            "contract": "contracts/settling/facets/GetterFacet.sol:GetterFacet",
            "label": "knights",
            "offset": 0,
            "slot": "1",
            "type": "t_mapping(t_uint256,t_struct(TrainedArmyUnit)5416_storage)"
          },
          {
            "astId": 5391,
            "contract": "contracts/settling/facets/GetterFacet.sol:GetterFacet",
            "label": "footSoldiers",
            "offset": 0,
            "slot": "2",
            "type": "t_mapping(t_uint256,t_struct(TrainedArmyUnit)5416_storage)"
          }
        ],
        "numberOfBytes": "96"
      },
      "t_struct(RealmInfo)5312_storage": {
        "encoding": "inplace",
        "label": "struct RealmInfo",
        "members": [
          {
            "astId": 5255,
            "contract": "contracts/settling/facets/GetterFacet.sol:GetterFacet",
            "label": "name",
            "offset": 0,
            "slot": "0",
            "type": "t_string_storage"
          },
          {
            "astId": 5257,
            "contract": "contracts/settling/facets/GetterFacet.sol:GetterFacet",
            "label": "lastUpdateAt",
            "offset": 0,
            "slot": "1",
            "type": "t_uint256"
          },
          {
            "astId": 5259,
            "contract": "contracts/settling/facets/GetterFacet.sol:GetterFacet",
            "label": "vestedTimeUpdatedAt",
            "offset": 0,
            "slot": "2",
            "type": "t_uint256"
          },
          {
            "astId": 5261,
            "contract": "contracts/settling/facets/GetterFacet.sol:GetterFacet",
            "label": "ageSettled",
            "offset": 0,
            "slot": "3",
            "type": "t_uint256"
          },
          {
            "astId": 5263,
            "contract": "contracts/settling/facets/GetterFacet.sol:GetterFacet",
            "label": "ageClaimed",
            "offset": 0,
            "slot": "4",
            "type": "t_uint256"
          },
          {
            "astId": 5266,
            "contract": "contracts/settling/facets/GetterFacet.sol:GetterFacet",
            "label": "resourceIds",
            "offset": 0,
            "slot": "5",
            "type": "t_array(t_uint256)dyn_storage"
          },
          {
            "astId": 5268,
            "contract": "contracts/settling/facets/GetterFacet.sol:GetterFacet",
            "label": "cities",
            "offset": 0,
            "slot": "6",
            "type": "t_uint8"
          },
          {
            "astId": 5270,
            "contract": "contracts/settling/facets/GetterFacet.sol:GetterFacet",
            "label": "harbours",
            "offset": 1,
            "slot": "6",
            "type": "t_uint8"
          },
          {
            "astId": 5272,
            "contract": "contracts/settling/facets/GetterFacet.sol:GetterFacet",
            "label": "rivers",
            "offset": 2,
            "slot": "6",
            "type": "t_uint8"
          },
          {
            "astId": 5274,
            "contract": "contracts/settling/facets/GetterFacet.sol:GetterFacet",
            "label": "regions",
            "offset": 3,
            "slot": "6",
            "type": "t_uint8"
          },
          {
            "astId": 5276,
            "contract": "contracts/settling/facets/GetterFacet.sol:GetterFacet",
            "label": "wonders",
            "offset": 4,
            "slot": "6",
            "type": "t_uint8"
          },
          {
            "astId": 5278,
            "contract": "contracts/settling/facets/GetterFacet.sol:GetterFacet",
            "label": "orderOf",
            "offset": 5,
            "slot": "6",
            "type": "t_uint8"
          },
          {
            "astId": 5280,
            "contract": "contracts/settling/facets/GetterFacet.sol:GetterFacet",
            "label": "aquaducts",
            "offset": 6,
            "slot": "6",
            "type": "t_uint8"
          },
          {
            "astId": 5282,
            "contract": "contracts/settling/facets/GetterFacet.sol:GetterFacet",
            "label": "temples",
            "offset": 7,
            "slot": "6",
            "type": "t_uint8"
          },
          {
            "astId": 5284,
            "contract": "contracts/settling/facets/GetterFacet.sol:GetterFacet",
            "label": "castles",
            "offset": 8,
            "slot": "6",
            "type": "t_uint8"
          },
          {
            "astId": 5286,
            "contract": "contracts/settling/facets/GetterFacet.sol:GetterFacet",
            "label": "markets",
            "offset": 9,
            "slot": "6",
            "type": "t_uint8"
          },
          {
            "astId": 5288,
            "contract": "contracts/settling/facets/GetterFacet.sol:GetterFacet",
            "label": "ports",
            "offset": 10,
            "slot": "6",
            "type": "t_uint8"
          },
          {
            "astId": 5290,
            "contract": "contracts/settling/facets/GetterFacet.sol:GetterFacet",
            "label": "barracks",
            "offset": 11,
            "slot": "6",
            "type": "t_uint8"
          },
          {
            "astId": 5292,
            "contract": "contracts/settling/facets/GetterFacet.sol:GetterFacet",
            "label": "farms",
            "offset": 12,
            "slot": "6",
            "type": "t_uint8"
          },
          {
            "astId": 5294,
            "contract": "contracts/settling/facets/GetterFacet.sol:GetterFacet",
            "label": "shipyard",
            "offset": 13,
            "slot": "6",
            "type": "t_uint8"
          },
          {
            "astId": 5296,
            "contract": "contracts/settling/facets/GetterFacet.sol:GetterFacet",
            "label": "fishingVillage",
            "offset": 14,
            "slot": "6",
            "type": "t_uint8"
          },
          {
            "astId": 5298,
            "contract": "contracts/settling/facets/GetterFacet.sol:GetterFacet",
            "label": "realmDefence",
            "offset": 15,
            "slot": "6",
            "type": "t_int32"
          },
          {
            "astId": 5300,
            "contract": "contracts/settling/facets/GetterFacet.sol:GetterFacet",
            "label": "realmOffence",
            "offset": 19,
            "slot": "6",
            "type": "t_int32"
          },
          {
            "astId": 5302,
            "contract": "contracts/settling/facets/GetterFacet.sol:GetterFacet",
            "label": "realmMagic",
            "offset": 23,
            "slot": "6",
            "type": "t_int32"
          },
          {
            "astId": 5304,
            "contract": "contracts/settling/facets/GetterFacet.sol:GetterFacet",
            "label": "foodSupply",
            "offset": 27,
            "slot": "6",
            "type": "t_int32"
          },
          {
            "astId": 5306,
            "contract": "contracts/settling/facets/GetterFacet.sol:GetterFacet",
            "label": "population",
            "offset": 0,
            "slot": "7",
            "type": "t_int32"
          },
          {
            "astId": 5311,
            "contract": "contracts/settling/facets/GetterFacet.sol:GetterFacet",
            "label": "resourceInfo",
            "offset": 0,
            "slot": "8",
            "type": "t_mapping(t_uint256,t_struct(ResourceInfo)5319_storage)"
          }
        ],
        "numberOfBytes": "288"
      },
      "t_struct(ResourceInfo)5319_storage": {
        "encoding": "inplace",
        "label": "struct ResourceInfo",
        "members": [
          {
            "astId": 5314,
            "contract": "contracts/settling/facets/GetterFacet.sol:GetterFacet",
            "label": "id",
            "offset": 0,
            "slot": "0",
            "type": "t_uint8"
          },
          {
            "astId": 5316,
            "contract": "contracts/settling/facets/GetterFacet.sol:GetterFacet",
            "label": "level",
            "offset": 1,
            "slot": "0",
            "type": "t_uint8"
          },
          {
            "astId": 5318,
            "contract": "contracts/settling/facets/GetterFacet.sol:GetterFacet",
            "label": "production",
            "offset": 2,
            "slot": "0",
            "type": "t_uint8"
          }
        ],
        "numberOfBytes": "32"
      },
      "t_struct(TheAges)5253_storage": {
        "encoding": "inplace",
        "label": "struct TheAges",
        "members": [
          {
            "astId": 5248,
            "contract": "contracts/settling/facets/GetterFacet.sol:GetterFacet",
            "label": "settledRealms",
            "offset": 0,
            "slot": "0",
            "type": "t_uint256"
          },
          {
            "astId": 5250,
            "contract": "contracts/settling/facets/GetterFacet.sol:GetterFacet",
            "label": "ageStart",
            "offset": 0,
            "slot": "1",
            "type": "t_uint256"
          },
          {
            "astId": 5252,
            "contract": "contracts/settling/facets/GetterFacet.sol:GetterFacet",
            "label": "ageFinish",
            "offset": 0,
            "slot": "2",
            "type": "t_uint256"
          }
        ],
        "numberOfBytes": "96"
      },
      "t_struct(TrainedArmyUnit)5416_storage": {
        "encoding": "inplace",
        "label": "struct TrainedArmyUnit",
        "members": [
          {
            "astId": 5413,
            "contract": "contracts/settling/facets/GetterFacet.sol:GetterFacet",
            "label": "destroyed",
            "offset": 0,
            "slot": "0",
            "type": "t_bool"
          },
          {
            "astId": 5415,
            "contract": "contracts/settling/facets/GetterFacet.sol:GetterFacet",
            "label": "unitFinished",
            "offset": 0,
            "slot": "1",
            "type": "t_uint256"
          }
        ],
        "numberOfBytes": "64"
      },
      "t_struct(UpgradeCostLevels)5366_storage": {
        "encoding": "inplace",
        "label": "struct UpgradeCostLevels",
        "members": [
          {
            "astId": 5365,
            "contract": "contracts/settling/facets/GetterFacet.sol:GetterFacet",
            "label": "value",
            "offset": 0,
            "slot": "0",
            "type": "t_array(t_uint256)dyn_storage"
          }
        ],
        "numberOfBytes": "32"
      },
      "t_struct(UpgradeCosts)5362_storage": {
        "encoding": "inplace",
        "label": "struct UpgradeCosts",
        "members": [
          {
            "astId": 5356,
            "contract": "contracts/settling/facets/GetterFacet.sol:GetterFacet",
            "label": "resourceIds",
            "offset": 0,
            "slot": "0",
            "type": "t_array(t_uint8)dyn_storage"
          },
          {
            "astId": 5361,
            "contract": "contracts/settling/facets/GetterFacet.sol:GetterFacet",
            "label": "upgradeCostLevels",
            "offset": 0,
            "slot": "1",
            "type": "t_mapping(t_uint256,t_struct(UpgradeCostLevels)5366_storage)"
          }
        ],
        "numberOfBytes": "64"
      },
      "t_uint256": {
        "encoding": "inplace",
        "label": "uint256",
        "numberOfBytes": "32"
      },
      "t_uint32": {
        "encoding": "inplace",
        "label": "uint32",
        "numberOfBytes": "4"
      },
      "t_uint8": {
        "encoding": "inplace",
        "label": "uint8",
        "numberOfBytes": "1"
      }
    }
  }
}