{
  "address": "0x790BDE8C410B75299bDAdA4Cd79b72DB46819114",
  "abi": [
    {
      "inputs": [],
      "name": "getLordsAddress",
      "outputs": [
        {
          "internalType": "address",
          "name": "",
          "type": "address"
        }
      ],
      "stateMutability": "view",
      "type": "function"
    },
    {
      "inputs": [],
      "name": "getRealmsAddress",
      "outputs": [
        {
          "internalType": "address",
          "name": "",
          "type": "address"
        }
      ],
      "stateMutability": "view",
      "type": "function"
    },
    {
      "inputs": [],
      "name": "getResourceAddress",
      "outputs": [
        {
          "internalType": "address",
          "name": "",
          "type": "address"
        }
      ],
      "stateMutability": "view",
      "type": "function"
    },
    {
      "inputs": [],
      "name": "getSRealmsAddress",
      "outputs": [
        {
          "internalType": "address",
          "name": "",
          "type": "address"
        }
      ],
      "stateMutability": "view",
      "type": "function"
    },
    {
      "inputs": [],
      "name": "getTreasuryAddress",
      "outputs": [
        {
          "internalType": "address",
          "name": "",
          "type": "address"
        }
      ],
      "stateMutability": "view",
      "type": "function"
    }
  ],
  "transactionHash": "0x2a8e094acb015a49f713644f7aa4d5fd0ac8f928b8fb92c4cb787019b6d3b122",
  "args": [],
  "solcInputHash": "4d7f9a7ffb8a52da2ddcd0286d2b1b11",
  "bytecode": "0x608060405234801561001057600080fd5b50610260806100206000396000f3fe608060405234801561001057600080fd5b50600436106100575760003560e01c80630ba6d7d31461005c5780633cb842611461007a5780637b7cc4e51461009857806380695a88146100b6578063e0024604146100d4575b600080fd5b6100646100f2565b60405161007191906101dd565b60405180910390f35b61008261011e565b60405161008f91906101dd565b60405180910390f35b6100a061014a565b6040516100ad91906101dd565b60405180910390f35b6100be610176565b6040516100cb91906101dd565b60405180910390f35b6100dc6101a2565b6040516100e991906101dd565b60405180910390f35b60008060030160029054906101000a900473ffffffffffffffffffffffffffffffffffffffff16905090565b60008060060160009054906101000a900473ffffffffffffffffffffffffffffffffffffffff16905090565b60008060040160009054906101000a900473ffffffffffffffffffffffffffffffffffffffff16905090565b60008060080160009054906101000a900473ffffffffffffffffffffffffffffffffffffffff16905090565b60008060050160009054906101000a900473ffffffffffffffffffffffffffffffffffffffff16905090565b6101d7816101f8565b82525050565b60006020820190506101f260008301846101ce565b92915050565b60006102038261020a565b9050919050565b600073ffffffffffffffffffffffffffffffffffffffff8216905091905056fea26469706673582212202f09dd5def4342953709552738a2edefc0a59ce35d9117f0f8a887f9a459a2d964736f6c63430008030033",
  "devdoc": {
    "kind": "dev",
    "methods": {},
    "version": 1
  },
  "userdoc": {
    "kind": "user",
    "methods": {},
    "version": 1
  },
  "storageLayout": {
    "storage": [
      {
        "astId": 260,
        "contract": "contracts/settling/facets/GetterFacet.sol:GetterFacet",
        "label": "s",
        "offset": 0,
        "slot": "0",
        "type": "t_struct(AppStorage)2788_storage"
      }
    ],
    "types": {
      "t_address": {
        "encoding": "inplace",
        "label": "address",
        "numberOfBytes": "20"
      },
      "t_array(t_uint256)dyn_storage": {
        "base": "t_uint256",
        "encoding": "dynamic_array",
        "label": "uint256[]",
        "numberOfBytes": "32"
      },
      "t_array(t_uint32)dyn_storage": {
        "base": "t_uint32",
        "encoding": "dynamic_array",
        "label": "uint32[]",
        "numberOfBytes": "32"
      },
      "t_array(t_uint8)dyn_storage": {
        "base": "t_uint8",
        "encoding": "dynamic_array",
        "label": "uint8[]",
        "numberOfBytes": "32"
      },
      "t_int32": {
        "encoding": "inplace",
        "label": "int32",
        "numberOfBytes": "4"
      },
      "t_mapping(t_uint256,t_struct(BuildingCosts)2890_storage)": {
        "encoding": "mapping",
        "key": "t_uint256",
        "label": "mapping(uint256 => struct BuildingCosts)",
        "numberOfBytes": "32",
        "value": "t_struct(BuildingCosts)2890_storage"
      },
      "t_mapping(t_uint256,t_struct(BuildingUpgradeCosts)2899_storage)": {
        "encoding": "mapping",
        "key": "t_uint256",
        "label": "mapping(uint256 => struct BuildingUpgradeCosts)",
        "numberOfBytes": "32",
        "value": "t_struct(BuildingUpgradeCosts)2899_storage"
      },
      "t_mapping(t_uint256,t_struct(LevelProduction)2902_storage)": {
        "encoding": "mapping",
        "key": "t_uint256",
        "label": "mapping(uint256 => struct LevelProduction)",
        "numberOfBytes": "32",
        "value": "t_struct(LevelProduction)2902_storage"
      },
      "t_mapping(t_uint256,t_struct(RealmBuildings)2868_storage)": {
        "encoding": "mapping",
        "key": "t_uint256",
        "label": "mapping(uint256 => struct RealmBuildings)",
        "numberOfBytes": "32",
        "value": "t_struct(RealmBuildings)2868_storage"
      },
      "t_mapping(t_uint256,t_struct(RealmInfo)2837_storage)": {
        "encoding": "mapping",
        "key": "t_uint256",
        "label": "mapping(uint256 => struct RealmInfo)",
        "numberOfBytes": "32",
        "value": "t_struct(RealmInfo)2837_storage"
      },
      "t_mapping(t_uint256,t_struct(RealmStatistics)2806_storage)": {
        "encoding": "mapping",
        "key": "t_uint256",
        "label": "mapping(uint256 => struct RealmStatistics)",
        "numberOfBytes": "32",
        "value": "t_struct(RealmStatistics)2806_storage"
      },
      "t_mapping(t_uint256,t_struct(ResourceInfo)2844_storage)": {
        "encoding": "mapping",
        "key": "t_uint256",
        "label": "mapping(uint256 => struct ResourceInfo)",
        "numberOfBytes": "32",
        "value": "t_struct(ResourceInfo)2844_storage"
      },
      "t_mapping(t_uint256,t_struct(TheAges)2795_storage)": {
        "encoding": "mapping",
        "key": "t_uint256",
        "label": "mapping(uint256 => struct TheAges)",
        "numberOfBytes": "32",
        "value": "t_struct(TheAges)2795_storage"
      },
      "t_mapping(t_uint256,t_struct(UpgradeCostLevels)2915_storage)": {
        "encoding": "mapping",
        "key": "t_uint256",
        "label": "mapping(uint256 => struct UpgradeCostLevels)",
        "numberOfBytes": "32",
        "value": "t_struct(UpgradeCostLevels)2915_storage"
      },
      "t_mapping(t_uint256,t_struct(UpgradeCosts)2911_storage)": {
        "encoding": "mapping",
        "key": "t_uint256",
        "label": "mapping(uint256 => struct UpgradeCosts)",
        "numberOfBytes": "32",
        "value": "t_struct(UpgradeCosts)2911_storage"
      },
      "t_string_storage": {
        "encoding": "bytes",
        "label": "string",
        "numberOfBytes": "32"
      },
      "t_struct(AppStorage)2788_storage": {
        "encoding": "inplace",
        "label": "struct AppStorage",
        "members": [
          {
            "astId": 2734,
            "contract": "contracts/settling/facets/GetterFacet.sol:GetterFacet",
            "label": "realmInfo",
            "offset": 0,
            "slot": "0",
            "type": "t_mapping(t_uint256,t_struct(RealmInfo)2837_storage)"
          },
          {
            "astId": 2739,
            "contract": "contracts/settling/facets/GetterFacet.sol:GetterFacet",
            "label": "realmStatistics",
            "offset": 0,
            "slot": "1",
            "type": "t_mapping(t_uint256,t_struct(RealmStatistics)2806_storage)"
          },
          {
            "astId": 2744,
            "contract": "contracts/settling/facets/GetterFacet.sol:GetterFacet",
            "label": "realmBuildings",
            "offset": 0,
            "slot": "2",
            "type": "t_mapping(t_uint256,t_struct(RealmBuildings)2868_storage)"
          },
          {
            "astId": 2746,
            "contract": "contracts/settling/facets/GetterFacet.sol:GetterFacet",
            "label": "baseProductionRate",
            "offset": 0,
            "slot": "3",
            "type": "t_uint8"
          },
          {
            "astId": 2748,
            "contract": "contracts/settling/facets/GetterFacet.sol:GetterFacet",
            "label": "maxProductionRate",
            "offset": 1,
            "slot": "3",
            "type": "t_uint8"
          },
          {
            "astId": 2750,
            "contract": "contracts/settling/facets/GetterFacet.sol:GetterFacet",
            "label": "sRealms",
            "offset": 2,
            "slot": "3",
            "type": "t_address"
          },
          {
            "astId": 2752,
            "contract": "contracts/settling/facets/GetterFacet.sol:GetterFacet",
            "label": "realms",
            "offset": 0,
            "slot": "4",
            "type": "t_address"
          },
          {
            "astId": 2754,
            "contract": "contracts/settling/facets/GetterFacet.sol:GetterFacet",
            "label": "treasury",
            "offset": 0,
            "slot": "5",
            "type": "t_address"
          },
          {
            "astId": 2756,
            "contract": "contracts/settling/facets/GetterFacet.sol:GetterFacet",
            "label": "resources",
            "offset": 0,
            "slot": "6",
            "type": "t_address"
          },
          {
            "astId": 2758,
            "contract": "contracts/settling/facets/GetterFacet.sol:GetterFacet",
            "label": "oracle",
            "offset": 0,
            "slot": "7",
            "type": "t_address"
          },
          {
            "astId": 2760,
            "contract": "contracts/settling/facets/GetterFacet.sol:GetterFacet",
            "label": "lords",
            "offset": 0,
            "slot": "8",
            "type": "t_address"
          },
          {
            "astId": 2765,
            "contract": "contracts/settling/facets/GetterFacet.sol:GetterFacet",
            "label": "levelProduction",
            "offset": 0,
            "slot": "9",
            "type": "t_mapping(t_uint256,t_struct(LevelProduction)2902_storage)"
          },
          {
            "astId": 2770,
            "contract": "contracts/settling/facets/GetterFacet.sol:GetterFacet",
            "label": "upgradeCosts",
            "offset": 0,
            "slot": "10",
            "type": "t_mapping(t_uint256,t_struct(UpgradeCosts)2911_storage)"
          },
          {
            "astId": 2775,
            "contract": "contracts/settling/facets/GetterFacet.sol:GetterFacet",
            "label": "buildingUpgradeCosts",
            "offset": 0,
            "slot": "11",
            "type": "t_mapping(t_uint256,t_struct(BuildingUpgradeCosts)2899_storage)"
          },
          {
            "astId": 2780,
            "contract": "contracts/settling/facets/GetterFacet.sol:GetterFacet",
            "label": "buildingCosts",
            "offset": 0,
            "slot": "12",
            "type": "t_mapping(t_uint256,t_struct(BuildingCosts)2890_storage)"
          },
          {
            "astId": 2785,
            "contract": "contracts/settling/facets/GetterFacet.sol:GetterFacet",
            "label": "theAges",
            "offset": 0,
            "slot": "13",
            "type": "t_mapping(t_uint256,t_struct(TheAges)2795_storage)"
          },
          {
            "astId": 2787,
            "contract": "contracts/settling/facets/GetterFacet.sol:GetterFacet",
            "label": "genesisTime",
            "offset": 0,
            "slot": "14",
            "type": "t_uint256"
          }
        ],
        "numberOfBytes": "480"
      },
      "t_struct(BuildingCosts)2890_storage": {
        "encoding": "inplace",
        "label": "struct BuildingCosts",
        "members": [
          {
            "astId": 2870,
            "contract": "contracts/settling/facets/GetterFacet.sol:GetterFacet",
            "label": "name",
            "offset": 0,
            "slot": "0",
            "type": "t_string_storage"
          },
          {
            "astId": 2873,
            "contract": "contracts/settling/facets/GetterFacet.sol:GetterFacet",
            "label": "resourceIds",
            "offset": 0,
            "slot": "1",
            "type": "t_array(t_uint32)dyn_storage"
          },
          {
            "astId": 2876,
            "contract": "contracts/settling/facets/GetterFacet.sol:GetterFacet",
            "label": "resourceValues",
            "offset": 0,
            "slot": "2",
            "type": "t_array(t_uint32)dyn_storage"
          },
          {
            "astId": 2879,
            "contract": "contracts/settling/facets/GetterFacet.sol:GetterFacet",
            "label": "requirements",
            "offset": 0,
            "slot": "3",
            "type": "t_array(t_uint32)dyn_storage"
          },
          {
            "astId": 2881,
            "contract": "contracts/settling/facets/GetterFacet.sol:GetterFacet",
            "label": "defence",
            "offset": 0,
            "slot": "4",
            "type": "t_int32"
          },
          {
            "astId": 2883,
            "contract": "contracts/settling/facets/GetterFacet.sol:GetterFacet",
            "label": "offence",
            "offset": 4,
            "slot": "4",
            "type": "t_int32"
          },
          {
            "astId": 2885,
            "contract": "contracts/settling/facets/GetterFacet.sol:GetterFacet",
            "label": "magic",
            "offset": 8,
            "slot": "4",
            "type": "t_int32"
          },
          {
            "astId": 2887,
            "contract": "contracts/settling/facets/GetterFacet.sol:GetterFacet",
            "label": "population",
            "offset": 12,
            "slot": "4",
            "type": "t_int32"
          },
          {
            "astId": 2889,
            "contract": "contracts/settling/facets/GetterFacet.sol:GetterFacet",
            "label": "food",
            "offset": 16,
            "slot": "4",
            "type": "t_int32"
          }
        ],
        "numberOfBytes": "160"
      },
      "t_struct(BuildingUpgradeCosts)2899_storage": {
        "encoding": "inplace",
        "label": "struct BuildingUpgradeCosts",
        "members": [
          {
            "astId": 2893,
            "contract": "contracts/settling/facets/GetterFacet.sol:GetterFacet",
            "label": "realmBuildings",
            "offset": 0,
            "slot": "0",
            "type": "t_array(t_uint8)dyn_storage"
          },
          {
            "astId": 2898,
            "contract": "contracts/settling/facets/GetterFacet.sol:GetterFacet",
            "label": "buildingCosts",
            "offset": 0,
            "slot": "1",
            "type": "t_mapping(t_uint256,t_struct(BuildingCosts)2890_storage)"
          }
        ],
        "numberOfBytes": "64"
      },
      "t_struct(LevelProduction)2902_storage": {
        "encoding": "inplace",
        "label": "struct LevelProduction",
        "members": [
          {
            "astId": 2901,
            "contract": "contracts/settling/facets/GetterFacet.sol:GetterFacet",
            "label": "output",
            "offset": 0,
            "slot": "0",
            "type": "t_uint8"
          }
        ],
        "numberOfBytes": "32"
      },
      "t_struct(RealmBuildings)2868_storage": {
        "encoding": "inplace",
        "label": "struct RealmBuildings",
        "members": [
          {
            "astId": 2851,
            "contract": "contracts/settling/facets/GetterFacet.sol:GetterFacet",
            "label": "aquaducts",
            "offset": 0,
            "slot": "0",
            "type": "t_uint8"
          },
          {
            "astId": 2853,
            "contract": "contracts/settling/facets/GetterFacet.sol:GetterFacet",
            "label": "temples",
            "offset": 1,
            "slot": "0",
            "type": "t_uint8"
          },
          {
            "astId": 2855,
            "contract": "contracts/settling/facets/GetterFacet.sol:GetterFacet",
            "label": "castles",
            "offset": 2,
            "slot": "0",
            "type": "t_uint8"
          },
          {
            "astId": 2857,
            "contract": "contracts/settling/facets/GetterFacet.sol:GetterFacet",
            "label": "markets",
            "offset": 3,
            "slot": "0",
            "type": "t_uint8"
          },
          {
            "astId": 2859,
            "contract": "contracts/settling/facets/GetterFacet.sol:GetterFacet",
            "label": "ports",
            "offset": 4,
            "slot": "0",
            "type": "t_uint8"
          },
          {
            "astId": 2861,
            "contract": "contracts/settling/facets/GetterFacet.sol:GetterFacet",
            "label": "barracks",
            "offset": 5,
            "slot": "0",
            "type": "t_uint8"
          },
          {
            "astId": 2863,
            "contract": "contracts/settling/facets/GetterFacet.sol:GetterFacet",
            "label": "farms",
            "offset": 6,
            "slot": "0",
            "type": "t_uint8"
          },
          {
            "astId": 2865,
            "contract": "contracts/settling/facets/GetterFacet.sol:GetterFacet",
            "label": "shipyard",
            "offset": 7,
            "slot": "0",
            "type": "t_uint8"
          },
          {
            "astId": 2867,
            "contract": "contracts/settling/facets/GetterFacet.sol:GetterFacet",
            "label": "fishingVillage",
            "offset": 8,
            "slot": "0",
            "type": "t_uint8"
          }
        ],
        "numberOfBytes": "32"
      },
      "t_struct(RealmInfo)2837_storage": {
        "encoding": "inplace",
        "label": "struct RealmInfo",
        "members": [
          {
            "astId": 2808,
            "contract": "contracts/settling/facets/GetterFacet.sol:GetterFacet",
            "label": "name",
            "offset": 0,
            "slot": "0",
            "type": "t_string_storage"
          },
          {
            "astId": 2810,
            "contract": "contracts/settling/facets/GetterFacet.sol:GetterFacet",
            "label": "lastUpdateAt",
            "offset": 0,
            "slot": "1",
            "type": "t_uint256"
          },
          {
            "astId": 2812,
            "contract": "contracts/settling/facets/GetterFacet.sol:GetterFacet",
            "label": "vestedTimeUpdatedAt",
            "offset": 0,
            "slot": "2",
            "type": "t_uint256"
          },
          {
            "astId": 2814,
            "contract": "contracts/settling/facets/GetterFacet.sol:GetterFacet",
            "label": "ageSettled",
            "offset": 0,
            "slot": "3",
            "type": "t_uint256"
          },
          {
            "astId": 2816,
            "contract": "contracts/settling/facets/GetterFacet.sol:GetterFacet",
            "label": "ageClaimed",
            "offset": 0,
            "slot": "4",
            "type": "t_uint256"
          },
          {
            "astId": 2819,
            "contract": "contracts/settling/facets/GetterFacet.sol:GetterFacet",
            "label": "resourceIds",
            "offset": 0,
            "slot": "5",
            "type": "t_array(t_uint256)dyn_storage"
          },
          {
            "astId": 2821,
            "contract": "contracts/settling/facets/GetterFacet.sol:GetterFacet",
            "label": "cities",
            "offset": 0,
            "slot": "6",
            "type": "t_uint8"
          },
          {
            "astId": 2823,
            "contract": "contracts/settling/facets/GetterFacet.sol:GetterFacet",
            "label": "harbours",
            "offset": 1,
            "slot": "6",
            "type": "t_uint8"
          },
          {
            "astId": 2825,
            "contract": "contracts/settling/facets/GetterFacet.sol:GetterFacet",
            "label": "rivers",
            "offset": 2,
            "slot": "6",
            "type": "t_uint8"
          },
          {
            "astId": 2827,
            "contract": "contracts/settling/facets/GetterFacet.sol:GetterFacet",
            "label": "regions",
            "offset": 3,
            "slot": "6",
            "type": "t_uint8"
          },
          {
            "astId": 2829,
            "contract": "contracts/settling/facets/GetterFacet.sol:GetterFacet",
            "label": "wonders",
            "offset": 4,
            "slot": "6",
            "type": "t_uint8"
          },
          {
            "astId": 2831,
            "contract": "contracts/settling/facets/GetterFacet.sol:GetterFacet",
            "label": "orderOf",
            "offset": 5,
            "slot": "6",
            "type": "t_uint8"
          },
          {
            "astId": 2836,
            "contract": "contracts/settling/facets/GetterFacet.sol:GetterFacet",
            "label": "resourceInfo",
            "offset": 0,
            "slot": "7",
            "type": "t_mapping(t_uint256,t_struct(ResourceInfo)2844_storage)"
          }
        ],
        "numberOfBytes": "256"
      },
      "t_struct(RealmStatistics)2806_storage": {
        "encoding": "inplace",
        "label": "struct RealmStatistics",
        "members": [
          {
            "astId": 2797,
            "contract": "contracts/settling/facets/GetterFacet.sol:GetterFacet",
            "label": "realmDefence",
            "offset": 0,
            "slot": "0",
            "type": "t_int32"
          },
          {
            "astId": 2799,
            "contract": "contracts/settling/facets/GetterFacet.sol:GetterFacet",
            "label": "realmOffence",
            "offset": 4,
            "slot": "0",
            "type": "t_int32"
          },
          {
            "astId": 2801,
            "contract": "contracts/settling/facets/GetterFacet.sol:GetterFacet",
            "label": "realmMagic",
            "offset": 8,
            "slot": "0",
            "type": "t_int32"
          },
          {
            "astId": 2803,
            "contract": "contracts/settling/facets/GetterFacet.sol:GetterFacet",
            "label": "foodSupply",
            "offset": 12,
            "slot": "0",
            "type": "t_int32"
          },
          {
            "astId": 2805,
            "contract": "contracts/settling/facets/GetterFacet.sol:GetterFacet",
            "label": "population",
            "offset": 16,
            "slot": "0",
            "type": "t_int32"
          }
        ],
        "numberOfBytes": "32"
      },
      "t_struct(ResourceInfo)2844_storage": {
        "encoding": "inplace",
        "label": "struct ResourceInfo",
        "members": [
          {
            "astId": 2839,
            "contract": "contracts/settling/facets/GetterFacet.sol:GetterFacet",
            "label": "id",
            "offset": 0,
            "slot": "0",
            "type": "t_uint8"
          },
          {
            "astId": 2841,
            "contract": "contracts/settling/facets/GetterFacet.sol:GetterFacet",
            "label": "level",
            "offset": 1,
            "slot": "0",
            "type": "t_uint8"
          },
          {
            "astId": 2843,
            "contract": "contracts/settling/facets/GetterFacet.sol:GetterFacet",
            "label": "production",
            "offset": 2,
            "slot": "0",
            "type": "t_uint8"
          }
        ],
        "numberOfBytes": "32"
      },
      "t_struct(TheAges)2795_storage": {
        "encoding": "inplace",
        "label": "struct TheAges",
        "members": [
          {
            "astId": 2790,
            "contract": "contracts/settling/facets/GetterFacet.sol:GetterFacet",
            "label": "settledRealms",
            "offset": 0,
            "slot": "0",
            "type": "t_uint256"
          },
          {
            "astId": 2792,
            "contract": "contracts/settling/facets/GetterFacet.sol:GetterFacet",
            "label": "ageStart",
            "offset": 0,
            "slot": "1",
            "type": "t_uint256"
          },
          {
            "astId": 2794,
            "contract": "contracts/settling/facets/GetterFacet.sol:GetterFacet",
            "label": "ageFinish",
            "offset": 0,
            "slot": "2",
            "type": "t_uint256"
          }
        ],
        "numberOfBytes": "96"
      },
      "t_struct(UpgradeCostLevels)2915_storage": {
        "encoding": "inplace",
        "label": "struct UpgradeCostLevels",
        "members": [
          {
            "astId": 2914,
            "contract": "contracts/settling/facets/GetterFacet.sol:GetterFacet",
            "label": "value",
            "offset": 0,
            "slot": "0",
            "type": "t_array(t_uint256)dyn_storage"
          }
        ],
        "numberOfBytes": "32"
      },
      "t_struct(UpgradeCosts)2911_storage": {
        "encoding": "inplace",
        "label": "struct UpgradeCosts",
        "members": [
          {
            "astId": 2905,
            "contract": "contracts/settling/facets/GetterFacet.sol:GetterFacet",
            "label": "resourceIds",
            "offset": 0,
            "slot": "0",
            "type": "t_array(t_uint8)dyn_storage"
          },
          {
            "astId": 2910,
            "contract": "contracts/settling/facets/GetterFacet.sol:GetterFacet",
            "label": "upgradeCostLevels",
            "offset": 0,
            "slot": "1",
            "type": "t_mapping(t_uint256,t_struct(UpgradeCostLevels)2915_storage)"
          }
        ],
        "numberOfBytes": "64"
      },
      "t_uint256": {
        "encoding": "inplace",
        "label": "uint256",
        "numberOfBytes": "32"
      },
      "t_uint32": {
        "encoding": "inplace",
        "label": "uint32",
        "numberOfBytes": "4"
      },
      "t_uint8": {
        "encoding": "inplace",
        "label": "uint8",
        "numberOfBytes": "1"
      }
    }
  }
}