{
  "address": "0xDdf0b989C68629ff3fD6f1dC98feC4612e0BC89F",
  "abi": [
    {
      "anonymous": false,
      "inputs": [
        {
          "indexed": false,
          "internalType": "address",
          "name": "_claimer",
          "type": "address"
        },
        {
          "indexed": false,
          "internalType": "uint256",
          "name": "_lordsClaimed",
          "type": "uint256"
        }
      ],
      "name": "LordsClaimed",
      "type": "event"
    },
    {
      "inputs": [],
      "name": "checkAllAvailableLords",
      "outputs": [
        {
          "internalType": "uint256",
          "name": "",
          "type": "uint256"
        }
      ],
      "stateMutability": "view",
      "type": "function"
    },
    {
      "inputs": [
        {
          "internalType": "uint256",
          "name": "_tokenId",
          "type": "uint256"
        }
      ],
      "name": "checkAvailableLords",
      "outputs": [
        {
          "internalType": "uint256",
          "name": "",
          "type": "uint256"
        }
      ],
      "stateMutability": "view",
      "type": "function"
    },
    {
      "inputs": [],
      "name": "claimAllLords",
      "outputs": [],
      "stateMutability": "payable",
      "type": "function"
    },
    {
      "inputs": [
        {
          "internalType": "uint256",
          "name": "_realmId",
          "type": "uint256"
        }
      ],
      "name": "claimLords",
      "outputs": [],
      "stateMutability": "payable",
      "type": "function"
    },
    {
      "inputs": [],
      "name": "getAge",
      "outputs": [
        {
          "internalType": "uint256",
          "name": "",
          "type": "uint256"
        }
      ],
      "stateMutability": "view",
      "type": "function"
    }
  ],
  "transactionHash": "0x07465746e436e04c6036dbeba4c2beb733ed964434d7f7d19e71531f33ced28c",
  "args": [],
  "solcInputHash": "a42a3c816ae9f9f0d2b1c49f72f4a150",
  "bytecode": "0x608060405234801561001057600080fd5b50610f84806100206000396000f3fe60806040526004361061004a5760003560e01c8063760fd3931461004f578063790aa06f14610059578063967e6e651461008457806397b05b4f146100af578063eac3f76e146100cb575b600080fd5b610057610108565b005b34801561006557600080fd5b5061006e61043b565b60405161007b9190610cfc565b60405180910390f35b34801561009057600080fd5b506100996106be565b6040516100a69190610cfc565b60405180910390f35b6100c960048036038101906100c49190610c05565b6106cd565b005b3480156100d757600080fd5b506100f260048036038101906100ed9190610c05565b6109c2565b6040516100ff9190610cfc565b60405180910390f35b60008060080160009054906101000a900473ffffffffffffffffffffffffffffffffffffffff16905060008060030160029054906101000a900473ffffffffffffffffffffffffffffffffffffffff16905060008173ffffffffffffffffffffffffffffffffffffffff166370a08231336040518263ffffffff1660e01b81526004016101959190610c98565b60206040518083038186803b1580156101ad57600080fd5b505afa1580156101c1573d6000803e3d6000fd5b505050506040513d601f19601f820116820180604052508101906101e59190610c2e565b905060006101f1610abb565b905060008060005b6001846102069190610daf565b811015610247576000600d01600082815260200190815260200160002060000154826102329190610d28565b9150808061023f90610e1f565b9150506101f9565b5060005b8481101561038c5760008060000160008873ffffffffffffffffffffffffffffffffffffffff16632f745c5933866040518363ffffffff1660e01b8152600401610296929190610cb3565b60206040518083038186803b1580156102ae57600080fd5b505afa1580156102c2573d6000803e3d6000fd5b505050506040513d601f19601f820116820180604052508101906102e69190610c2e565b815260200190815260200160002090506000816004015490505b60018661030d9190610daf565b81101561036757600061031f82610ae1565b9050848161032d9190610d7e565b866103389190610d28565b955084816103469190610e68565b866103519190610d28565b955050808061035f90610e1f565b915050610300565b50610370610abb565b816004018190555050808061038490610e1f565b91505061024b565b508573ffffffffffffffffffffffffffffffffffffffff166340c10f1933846040518363ffffffff1660e01b81526004016103c8929190610cb3565b600060405180830381600087803b1580156103e257600080fd5b505af11580156103f6573d6000803e3d6000fd5b505050507f12170b2044b97de561335471235c37308ebde6a0fc56428462a5f05f460db676338360405161042b929190610cb3565b60405180910390a1505050505050565b600080600060080160009054906101000a900473ffffffffffffffffffffffffffffffffffffffff16905060008060030160029054906101000a900473ffffffffffffffffffffffffffffffffffffffff16905060008173ffffffffffffffffffffffffffffffffffffffff166370a08231336040518263ffffffff1660e01b81526004016104ca9190610c98565b60206040518083038186803b1580156104e257600080fd5b505afa1580156104f6573d6000803e3d6000fd5b505050506040513d601f19601f8201168201806040525081019061051a9190610c2e565b90506000610526610abb565b905060008060005b60018461053b9190610daf565b81101561057c576000600d01600082815260200190815260200160002060000154826105679190610d28565b9150808061057490610e1f565b91505061052e565b5060005b848110156106b15760008060000160008873ffffffffffffffffffffffffffffffffffffffff16632f745c5933866040518363ffffffff1660e01b81526004016105cb929190610cb3565b60206040518083038186803b1580156105e357600080fd5b505afa1580156105f7573d6000803e3d6000fd5b505050506040513d601f19601f8201168201806040525081019061061b9190610c2e565b815260200190815260200160002090506000816004015490505b6001866106429190610daf565b81101561069c57600061065482610ae1565b905084816106629190610d7e565b8661066d9190610d28565b9550848161067b9190610e68565b866106869190610d28565b955050808061069490610e1f565b915050610635565b505080806106a990610e1f565b915050610580565b5081965050505050505090565b60006106c8610abb565b905090565b8060008060030160029054906101000a900473ffffffffffffffffffffffffffffffffffffffff1690508073ffffffffffffffffffffffffffffffffffffffff16636352211e836040518263ffffffff1660e01b81526004016107309190610cfc565b60206040518083038186803b15801561074857600080fd5b505afa15801561075c573d6000803e3d6000fd5b505050506040513d601f19601f820116820180604052508101906107809190610bdc565b73ffffffffffffffffffffffffffffffffffffffff163373ffffffffffffffffffffffffffffffffffffffff16146107ed576040517f08c379a00000000000000000000000000000000000000000000000000000000081526004016107e490610cdc565b60405180910390fd5b60008060080160009054906101000a900473ffffffffffffffffffffffffffffffffffffffff169050600080600001600086815260200190815260200160002090506000610839610abb565b905060008060005b60018461084e9190610daf565b81101561088f576000600d016000828152602001908152602001600020600001548261087a9190610d28565b9150808061088790610e1f565b915050610841565b506000846004015490505b6001846108a79190610daf565b8110156109015760006108b982610ae1565b905082816108c79190610d7e565b846108d29190610d28565b935082816108e09190610e68565b846108eb9190610d28565b93505080806108f990610e1f565b91505061089a565b5061090a610abb565b84600401819055508473ffffffffffffffffffffffffffffffffffffffff166340c10f1933846040518363ffffffff1660e01b815260040161094d929190610cb3565b600060405180830381600087803b15801561096757600080fd5b505af115801561097b573d6000803e3d6000fd5b505050507f12170b2044b97de561335471235c37308ebde6a0fc56428462a5f05f460db67633836040516109b0929190610cb3565b60405180910390a15050505050505050565b6000806109cd610abb565b905060008060005b6001846109e29190610daf565b811015610a23576000600d0160008281526020019081526020016000206000015482610a0e9190610d28565b91508080610a1b90610e1f565b9150506109d5565b50600080600001600087815260200190815260200160002090506000816004015490505b600185610a549190610daf565b811015610aae576000610a6682610ae1565b90508381610a749190610d7e565b85610a7f9190610d28565b94508381610a8d9190610e68565b85610a989190610d28565b9450508080610aa690610e1f565b915050610a47565b5082945050505050919050565b6000620151806000600e015442610ad29190610daf565b610adc9190610d7e565b905090565b600080600060080160009054906101000a900473ffffffffffffffffffffffffffffffffffffffff1690508073ffffffffffffffffffffffffffffffffffffffff16636049585f846040518263ffffffff1660e01b8152600401610b459190610cfc565b60206040518083038186803b158015610b5d57600080fd5b505afa158015610b71573d6000803e3d6000fd5b505050506040513d601f19601f82011682018060405250810190610b959190610c2e565b915050919050565b600081519050610bac81610f20565b92915050565b600081359050610bc181610f37565b92915050565b600081519050610bd681610f37565b92915050565b600060208284031215610bee57600080fd5b6000610bfc84828501610b9d565b91505092915050565b600060208284031215610c1757600080fd5b6000610c2584828501610bb2565b91505092915050565b600060208284031215610c4057600080fd5b6000610c4e84828501610bc7565b91505092915050565b610c6081610de3565b82525050565b6000610c73601983610d17565b9150610c7e82610ef7565b602082019050919050565b610c9281610e15565b82525050565b6000602082019050610cad6000830184610c57565b92915050565b6000604082019050610cc86000830185610c57565b610cd56020830184610c89565b9392505050565b60006020820190508181036000830152610cf581610c66565b9050919050565b6000602082019050610d116000830184610c89565b92915050565b600082825260208201905092915050565b6000610d3382610e15565b9150610d3e83610e15565b9250827fffffffffffffffffffffffffffffffffffffffffffffffffffffffffffffffff03821115610d7357610d72610e99565b5b828201905092915050565b6000610d8982610e15565b9150610d9483610e15565b925082610da457610da3610ec8565b5b828204905092915050565b6000610dba82610e15565b9150610dc583610e15565b925082821015610dd857610dd7610e99565b5b828203905092915050565b6000610dee82610df5565b9050919050565b600073ffffffffffffffffffffffffffffffffffffffff82169050919050565b6000819050919050565b6000610e2a82610e15565b91507fffffffffffffffffffffffffffffffffffffffffffffffffffffffffffffffff821415610e5d57610e5c610e99565b5b600182019050919050565b6000610e7382610e15565b9150610e7e83610e15565b925082610e8e57610e8d610ec8565b5b828206905092915050565b7f4e487b7100000000000000000000000000000000000000000000000000000000600052601160045260246000fd5b7f4e487b7100000000000000000000000000000000000000000000000000000000600052601260045260246000fd5b7f596f7520646f206e6f74206f776e2074686973205265616c6d00000000000000600082015250565b610f2981610de3565b8114610f3457600080fd5b50565b610f4081610e15565b8114610f4b57600080fd5b5056fea26469706673582212209ac87912b1089d6d986c081bbee6708185e9a9d2846b55de2734c283af8aebac64736f6c63430008030033",
  "devdoc": {
    "kind": "dev",
    "methods": {},
    "version": 1
  },
  "userdoc": {
    "kind": "user",
    "methods": {},
    "version": 1
  },
  "storageLayout": {
    "storage": [
      {
        "astId": 244,
        "contract": "contracts/facets/LordsClaimingFacet.sol:LordsClaimingFacet",
        "label": "s",
        "offset": 0,
        "slot": "0",
        "type": "t_struct(AppStorage)889_storage"
      }
    ],
    "types": {
      "t_address": {
        "encoding": "inplace",
        "label": "address",
        "numberOfBytes": "20"
      },
      "t_array(t_uint256)dyn_storage": {
        "base": "t_uint256",
        "encoding": "dynamic_array",
        "label": "uint256[]",
        "numberOfBytes": "32"
      },
      "t_array(t_uint32)dyn_storage": {
        "base": "t_uint32",
        "encoding": "dynamic_array",
        "label": "uint32[]",
        "numberOfBytes": "32"
      },
      "t_array(t_uint8)dyn_storage": {
        "base": "t_uint8",
        "encoding": "dynamic_array",
        "label": "uint8[]",
        "numberOfBytes": "32"
      },
      "t_int32": {
        "encoding": "inplace",
        "label": "int32",
        "numberOfBytes": "4"
      },
      "t_mapping(t_uint256,t_struct(BuildingCosts)991_storage)": {
        "encoding": "mapping",
        "key": "t_uint256",
        "label": "mapping(uint256 => struct BuildingCosts)",
        "numberOfBytes": "32",
        "value": "t_struct(BuildingCosts)991_storage"
      },
      "t_mapping(t_uint256,t_struct(BuildingUpgradeCosts)1000_storage)": {
        "encoding": "mapping",
        "key": "t_uint256",
        "label": "mapping(uint256 => struct BuildingUpgradeCosts)",
        "numberOfBytes": "32",
        "value": "t_struct(BuildingUpgradeCosts)1000_storage"
      },
      "t_mapping(t_uint256,t_struct(LevelProduction)1003_storage)": {
        "encoding": "mapping",
        "key": "t_uint256",
        "label": "mapping(uint256 => struct LevelProduction)",
        "numberOfBytes": "32",
        "value": "t_struct(LevelProduction)1003_storage"
      },
      "t_mapping(t_uint256,t_struct(RealmBuildings)969_storage)": {
        "encoding": "mapping",
        "key": "t_uint256",
        "label": "mapping(uint256 => struct RealmBuildings)",
        "numberOfBytes": "32",
        "value": "t_struct(RealmBuildings)969_storage"
      },
      "t_mapping(t_uint256,t_struct(RealmInfo)938_storage)": {
        "encoding": "mapping",
        "key": "t_uint256",
        "label": "mapping(uint256 => struct RealmInfo)",
        "numberOfBytes": "32",
        "value": "t_struct(RealmInfo)938_storage"
      },
      "t_mapping(t_uint256,t_struct(RealmStatistics)907_storage)": {
        "encoding": "mapping",
        "key": "t_uint256",
        "label": "mapping(uint256 => struct RealmStatistics)",
        "numberOfBytes": "32",
        "value": "t_struct(RealmStatistics)907_storage"
      },
      "t_mapping(t_uint256,t_struct(ResourceInfo)945_storage)": {
        "encoding": "mapping",
        "key": "t_uint256",
        "label": "mapping(uint256 => struct ResourceInfo)",
        "numberOfBytes": "32",
        "value": "t_struct(ResourceInfo)945_storage"
      },
      "t_mapping(t_uint256,t_struct(TheAges)896_storage)": {
        "encoding": "mapping",
        "key": "t_uint256",
        "label": "mapping(uint256 => struct TheAges)",
        "numberOfBytes": "32",
        "value": "t_struct(TheAges)896_storage"
      },
      "t_mapping(t_uint256,t_struct(UpgradeCostLevels)1016_storage)": {
        "encoding": "mapping",
        "key": "t_uint256",
        "label": "mapping(uint256 => struct UpgradeCostLevels)",
        "numberOfBytes": "32",
        "value": "t_struct(UpgradeCostLevels)1016_storage"
      },
      "t_mapping(t_uint256,t_struct(UpgradeCosts)1012_storage)": {
        "encoding": "mapping",
        "key": "t_uint256",
        "label": "mapping(uint256 => struct UpgradeCosts)",
        "numberOfBytes": "32",
        "value": "t_struct(UpgradeCosts)1012_storage"
      },
      "t_string_storage": {
        "encoding": "bytes",
        "label": "string",
        "numberOfBytes": "32"
      },
      "t_struct(AppStorage)889_storage": {
        "encoding": "inplace",
        "label": "struct AppStorage",
        "members": [
          {
            "astId": 835,
            "contract": "contracts/facets/LordsClaimingFacet.sol:LordsClaimingFacet",
            "label": "realmInfo",
            "offset": 0,
            "slot": "0",
            "type": "t_mapping(t_uint256,t_struct(RealmInfo)938_storage)"
          },
          {
            "astId": 840,
            "contract": "contracts/facets/LordsClaimingFacet.sol:LordsClaimingFacet",
            "label": "realmStatistics",
            "offset": 0,
            "slot": "1",
            "type": "t_mapping(t_uint256,t_struct(RealmStatistics)907_storage)"
          },
          {
            "astId": 845,
            "contract": "contracts/facets/LordsClaimingFacet.sol:LordsClaimingFacet",
            "label": "realmBuildings",
            "offset": 0,
            "slot": "2",
            "type": "t_mapping(t_uint256,t_struct(RealmBuildings)969_storage)"
          },
          {
            "astId": 847,
            "contract": "contracts/facets/LordsClaimingFacet.sol:LordsClaimingFacet",
            "label": "baseProductionRate",
            "offset": 0,
            "slot": "3",
            "type": "t_uint8"
          },
          {
            "astId": 849,
            "contract": "contracts/facets/LordsClaimingFacet.sol:LordsClaimingFacet",
            "label": "maxProductionRate",
            "offset": 1,
            "slot": "3",
            "type": "t_uint8"
          },
          {
            "astId": 851,
            "contract": "contracts/facets/LordsClaimingFacet.sol:LordsClaimingFacet",
            "label": "sRealms",
            "offset": 2,
            "slot": "3",
            "type": "t_address"
          },
          {
            "astId": 853,
            "contract": "contracts/facets/LordsClaimingFacet.sol:LordsClaimingFacet",
            "label": "realms",
            "offset": 0,
            "slot": "4",
            "type": "t_address"
          },
          {
            "astId": 855,
            "contract": "contracts/facets/LordsClaimingFacet.sol:LordsClaimingFacet",
            "label": "treasury",
            "offset": 0,
            "slot": "5",
            "type": "t_address"
          },
          {
            "astId": 857,
            "contract": "contracts/facets/LordsClaimingFacet.sol:LordsClaimingFacet",
            "label": "resources",
            "offset": 0,
            "slot": "6",
            "type": "t_address"
          },
          {
            "astId": 859,
            "contract": "contracts/facets/LordsClaimingFacet.sol:LordsClaimingFacet",
            "label": "oracle",
            "offset": 0,
            "slot": "7",
            "type": "t_address"
          },
          {
            "astId": 861,
            "contract": "contracts/facets/LordsClaimingFacet.sol:LordsClaimingFacet",
            "label": "lords",
            "offset": 0,
            "slot": "8",
            "type": "t_address"
          },
          {
            "astId": 866,
            "contract": "contracts/facets/LordsClaimingFacet.sol:LordsClaimingFacet",
            "label": "levelProduction",
            "offset": 0,
            "slot": "9",
            "type": "t_mapping(t_uint256,t_struct(LevelProduction)1003_storage)"
          },
          {
            "astId": 871,
            "contract": "contracts/facets/LordsClaimingFacet.sol:LordsClaimingFacet",
            "label": "upgradeCosts",
            "offset": 0,
            "slot": "10",
            "type": "t_mapping(t_uint256,t_struct(UpgradeCosts)1012_storage)"
          },
          {
            "astId": 876,
            "contract": "contracts/facets/LordsClaimingFacet.sol:LordsClaimingFacet",
            "label": "buildingUpgradeCosts",
            "offset": 0,
            "slot": "11",
            "type": "t_mapping(t_uint256,t_struct(BuildingUpgradeCosts)1000_storage)"
          },
          {
            "astId": 881,
            "contract": "contracts/facets/LordsClaimingFacet.sol:LordsClaimingFacet",
            "label": "buildingCosts",
            "offset": 0,
            "slot": "12",
            "type": "t_mapping(t_uint256,t_struct(BuildingCosts)991_storage)"
          },
          {
            "astId": 886,
            "contract": "contracts/facets/LordsClaimingFacet.sol:LordsClaimingFacet",
            "label": "theAges",
            "offset": 0,
            "slot": "13",
            "type": "t_mapping(t_uint256,t_struct(TheAges)896_storage)"
          },
          {
            "astId": 888,
            "contract": "contracts/facets/LordsClaimingFacet.sol:LordsClaimingFacet",
            "label": "genesisTime",
            "offset": 0,
            "slot": "14",
            "type": "t_uint256"
          }
        ],
        "numberOfBytes": "480"
      },
      "t_struct(BuildingCosts)991_storage": {
        "encoding": "inplace",
        "label": "struct BuildingCosts",
        "members": [
          {
            "astId": 971,
            "contract": "contracts/facets/LordsClaimingFacet.sol:LordsClaimingFacet",
            "label": "name",
            "offset": 0,
            "slot": "0",
            "type": "t_string_storage"
          },
          {
            "astId": 974,
            "contract": "contracts/facets/LordsClaimingFacet.sol:LordsClaimingFacet",
            "label": "resourceIds",
            "offset": 0,
            "slot": "1",
            "type": "t_array(t_uint32)dyn_storage"
          },
          {
            "astId": 977,
            "contract": "contracts/facets/LordsClaimingFacet.sol:LordsClaimingFacet",
            "label": "resourceValues",
            "offset": 0,
            "slot": "2",
            "type": "t_array(t_uint32)dyn_storage"
          },
          {
            "astId": 980,
            "contract": "contracts/facets/LordsClaimingFacet.sol:LordsClaimingFacet",
            "label": "requirements",
            "offset": 0,
            "slot": "3",
            "type": "t_array(t_uint32)dyn_storage"
          },
          {
            "astId": 982,
            "contract": "contracts/facets/LordsClaimingFacet.sol:LordsClaimingFacet",
            "label": "defence",
            "offset": 0,
            "slot": "4",
            "type": "t_int32"
          },
          {
            "astId": 984,
            "contract": "contracts/facets/LordsClaimingFacet.sol:LordsClaimingFacet",
            "label": "offence",
            "offset": 4,
            "slot": "4",
            "type": "t_int32"
          },
          {
            "astId": 986,
            "contract": "contracts/facets/LordsClaimingFacet.sol:LordsClaimingFacet",
            "label": "magic",
            "offset": 8,
            "slot": "4",
            "type": "t_int32"
          },
          {
            "astId": 988,
            "contract": "contracts/facets/LordsClaimingFacet.sol:LordsClaimingFacet",
            "label": "population",
            "offset": 12,
            "slot": "4",
            "type": "t_int32"
          },
          {
            "astId": 990,
            "contract": "contracts/facets/LordsClaimingFacet.sol:LordsClaimingFacet",
            "label": "food",
            "offset": 16,
            "slot": "4",
            "type": "t_int32"
          }
        ],
        "numberOfBytes": "160"
      },
      "t_struct(BuildingUpgradeCosts)1000_storage": {
        "encoding": "inplace",
        "label": "struct BuildingUpgradeCosts",
        "members": [
          {
            "astId": 994,
            "contract": "contracts/facets/LordsClaimingFacet.sol:LordsClaimingFacet",
            "label": "realmBuildings",
            "offset": 0,
            "slot": "0",
            "type": "t_array(t_uint8)dyn_storage"
          },
          {
            "astId": 999,
            "contract": "contracts/facets/LordsClaimingFacet.sol:LordsClaimingFacet",
            "label": "buildingCosts",
            "offset": 0,
            "slot": "1",
            "type": "t_mapping(t_uint256,t_struct(BuildingCosts)991_storage)"
          }
        ],
        "numberOfBytes": "64"
      },
      "t_struct(LevelProduction)1003_storage": {
        "encoding": "inplace",
        "label": "struct LevelProduction",
        "members": [
          {
            "astId": 1002,
            "contract": "contracts/facets/LordsClaimingFacet.sol:LordsClaimingFacet",
            "label": "output",
            "offset": 0,
            "slot": "0",
            "type": "t_uint8"
          }
        ],
        "numberOfBytes": "32"
      },
      "t_struct(RealmBuildings)969_storage": {
        "encoding": "inplace",
        "label": "struct RealmBuildings",
        "members": [
          {
            "astId": 952,
            "contract": "contracts/facets/LordsClaimingFacet.sol:LordsClaimingFacet",
            "label": "aquaducts",
            "offset": 0,
            "slot": "0",
            "type": "t_uint8"
          },
          {
            "astId": 954,
            "contract": "contracts/facets/LordsClaimingFacet.sol:LordsClaimingFacet",
            "label": "temples",
            "offset": 1,
            "slot": "0",
            "type": "t_uint8"
          },
          {
            "astId": 956,
            "contract": "contracts/facets/LordsClaimingFacet.sol:LordsClaimingFacet",
            "label": "castles",
            "offset": 2,
            "slot": "0",
            "type": "t_uint8"
          },
          {
            "astId": 958,
            "contract": "contracts/facets/LordsClaimingFacet.sol:LordsClaimingFacet",
            "label": "markets",
            "offset": 3,
            "slot": "0",
            "type": "t_uint8"
          },
          {
            "astId": 960,
            "contract": "contracts/facets/LordsClaimingFacet.sol:LordsClaimingFacet",
            "label": "ports",
            "offset": 4,
            "slot": "0",
            "type": "t_uint8"
          },
          {
            "astId": 962,
            "contract": "contracts/facets/LordsClaimingFacet.sol:LordsClaimingFacet",
            "label": "barracks",
            "offset": 5,
            "slot": "0",
            "type": "t_uint8"
          },
          {
            "astId": 964,
            "contract": "contracts/facets/LordsClaimingFacet.sol:LordsClaimingFacet",
            "label": "farms",
            "offset": 6,
            "slot": "0",
            "type": "t_uint8"
          },
          {
            "astId": 966,
            "contract": "contracts/facets/LordsClaimingFacet.sol:LordsClaimingFacet",
            "label": "shipyard",
            "offset": 7,
            "slot": "0",
            "type": "t_uint8"
          },
          {
            "astId": 968,
            "contract": "contracts/facets/LordsClaimingFacet.sol:LordsClaimingFacet",
            "label": "fishingVillage",
            "offset": 8,
            "slot": "0",
            "type": "t_uint8"
          }
        ],
        "numberOfBytes": "32"
      },
      "t_struct(RealmInfo)938_storage": {
        "encoding": "inplace",
        "label": "struct RealmInfo",
        "members": [
          {
            "astId": 909,
            "contract": "contracts/facets/LordsClaimingFacet.sol:LordsClaimingFacet",
            "label": "name",
            "offset": 0,
            "slot": "0",
            "type": "t_string_storage"
          },
          {
            "astId": 911,
            "contract": "contracts/facets/LordsClaimingFacet.sol:LordsClaimingFacet",
            "label": "lastUpdateAt",
            "offset": 0,
            "slot": "1",
            "type": "t_uint256"
          },
          {
            "astId": 913,
            "contract": "contracts/facets/LordsClaimingFacet.sol:LordsClaimingFacet",
            "label": "vestedTimeUpdatedAt",
            "offset": 0,
            "slot": "2",
            "type": "t_uint256"
          },
          {
            "astId": 915,
            "contract": "contracts/facets/LordsClaimingFacet.sol:LordsClaimingFacet",
            "label": "ageSettled",
            "offset": 0,
            "slot": "3",
            "type": "t_uint256"
          },
          {
            "astId": 917,
            "contract": "contracts/facets/LordsClaimingFacet.sol:LordsClaimingFacet",
            "label": "ageClaimed",
            "offset": 0,
            "slot": "4",
            "type": "t_uint256"
          },
          {
            "astId": 920,
            "contract": "contracts/facets/LordsClaimingFacet.sol:LordsClaimingFacet",
            "label": "resourceIds",
            "offset": 0,
            "slot": "5",
            "type": "t_array(t_uint256)dyn_storage"
          },
          {
            "astId": 922,
            "contract": "contracts/facets/LordsClaimingFacet.sol:LordsClaimingFacet",
            "label": "cities",
            "offset": 0,
            "slot": "6",
            "type": "t_uint8"
          },
          {
            "astId": 924,
            "contract": "contracts/facets/LordsClaimingFacet.sol:LordsClaimingFacet",
            "label": "harbours",
            "offset": 1,
            "slot": "6",
            "type": "t_uint8"
          },
          {
            "astId": 926,
            "contract": "contracts/facets/LordsClaimingFacet.sol:LordsClaimingFacet",
            "label": "rivers",
            "offset": 2,
            "slot": "6",
            "type": "t_uint8"
          },
          {
            "astId": 928,
            "contract": "contracts/facets/LordsClaimingFacet.sol:LordsClaimingFacet",
            "label": "regions",
            "offset": 3,
            "slot": "6",
            "type": "t_uint8"
          },
          {
            "astId": 930,
            "contract": "contracts/facets/LordsClaimingFacet.sol:LordsClaimingFacet",
            "label": "wonders",
            "offset": 4,
            "slot": "6",
            "type": "t_uint8"
          },
          {
            "astId": 932,
            "contract": "contracts/facets/LordsClaimingFacet.sol:LordsClaimingFacet",
            "label": "orderOf",
            "offset": 5,
            "slot": "6",
            "type": "t_uint8"
          },
          {
            "astId": 937,
            "contract": "contracts/facets/LordsClaimingFacet.sol:LordsClaimingFacet",
            "label": "resourceInfo",
            "offset": 0,
            "slot": "7",
            "type": "t_mapping(t_uint256,t_struct(ResourceInfo)945_storage)"
          }
        ],
        "numberOfBytes": "256"
      },
      "t_struct(RealmStatistics)907_storage": {
        "encoding": "inplace",
        "label": "struct RealmStatistics",
        "members": [
          {
            "astId": 898,
            "contract": "contracts/facets/LordsClaimingFacet.sol:LordsClaimingFacet",
            "label": "realmDefence",
            "offset": 0,
            "slot": "0",
            "type": "t_int32"
          },
          {
            "astId": 900,
            "contract": "contracts/facets/LordsClaimingFacet.sol:LordsClaimingFacet",
            "label": "realmOffence",
            "offset": 4,
            "slot": "0",
            "type": "t_int32"
          },
          {
            "astId": 902,
            "contract": "contracts/facets/LordsClaimingFacet.sol:LordsClaimingFacet",
            "label": "realmMagic",
            "offset": 8,
            "slot": "0",
            "type": "t_int32"
          },
          {
            "astId": 904,
            "contract": "contracts/facets/LordsClaimingFacet.sol:LordsClaimingFacet",
            "label": "foodSupply",
            "offset": 12,
            "slot": "0",
            "type": "t_int32"
          },
          {
            "astId": 906,
            "contract": "contracts/facets/LordsClaimingFacet.sol:LordsClaimingFacet",
            "label": "population",
            "offset": 16,
            "slot": "0",
            "type": "t_int32"
          }
        ],
        "numberOfBytes": "32"
      },
      "t_struct(ResourceInfo)945_storage": {
        "encoding": "inplace",
        "label": "struct ResourceInfo",
        "members": [
          {
            "astId": 940,
            "contract": "contracts/facets/LordsClaimingFacet.sol:LordsClaimingFacet",
            "label": "id",
            "offset": 0,
            "slot": "0",
            "type": "t_uint8"
          },
          {
            "astId": 942,
            "contract": "contracts/facets/LordsClaimingFacet.sol:LordsClaimingFacet",
            "label": "level",
            "offset": 1,
            "slot": "0",
            "type": "t_uint8"
          },
          {
            "astId": 944,
            "contract": "contracts/facets/LordsClaimingFacet.sol:LordsClaimingFacet",
            "label": "production",
            "offset": 2,
            "slot": "0",
            "type": "t_uint8"
          }
        ],
        "numberOfBytes": "32"
      },
      "t_struct(TheAges)896_storage": {
        "encoding": "inplace",
        "label": "struct TheAges",
        "members": [
          {
            "astId": 891,
            "contract": "contracts/facets/LordsClaimingFacet.sol:LordsClaimingFacet",
            "label": "settledRealms",
            "offset": 0,
            "slot": "0",
            "type": "t_uint256"
          },
          {
            "astId": 893,
            "contract": "contracts/facets/LordsClaimingFacet.sol:LordsClaimingFacet",
            "label": "ageStart",
            "offset": 0,
            "slot": "1",
            "type": "t_uint256"
          },
          {
            "astId": 895,
            "contract": "contracts/facets/LordsClaimingFacet.sol:LordsClaimingFacet",
            "label": "ageFinish",
            "offset": 0,
            "slot": "2",
            "type": "t_uint256"
          }
        ],
        "numberOfBytes": "96"
      },
      "t_struct(UpgradeCostLevels)1016_storage": {
        "encoding": "inplace",
        "label": "struct UpgradeCostLevels",
        "members": [
          {
            "astId": 1015,
            "contract": "contracts/facets/LordsClaimingFacet.sol:LordsClaimingFacet",
            "label": "value",
            "offset": 0,
            "slot": "0",
            "type": "t_array(t_uint256)dyn_storage"
          }
        ],
        "numberOfBytes": "32"
      },
      "t_struct(UpgradeCosts)1012_storage": {
        "encoding": "inplace",
        "label": "struct UpgradeCosts",
        "members": [
          {
            "astId": 1006,
            "contract": "contracts/facets/LordsClaimingFacet.sol:LordsClaimingFacet",
            "label": "resourceIds",
            "offset": 0,
            "slot": "0",
            "type": "t_array(t_uint8)dyn_storage"
          },
          {
            "astId": 1011,
            "contract": "contracts/facets/LordsClaimingFacet.sol:LordsClaimingFacet",
            "label": "upgradeCostLevels",
            "offset": 0,
            "slot": "1",
            "type": "t_mapping(t_uint256,t_struct(UpgradeCostLevels)1016_storage)"
          }
        ],
        "numberOfBytes": "64"
      },
      "t_uint256": {
        "encoding": "inplace",
        "label": "uint256",
        "numberOfBytes": "32"
      },
      "t_uint32": {
        "encoding": "inplace",
        "label": "uint32",
        "numberOfBytes": "4"
      },
      "t_uint8": {
        "encoding": "inplace",
        "label": "uint8",
        "numberOfBytes": "1"
      }
    }
  }
}