{
  "address": "0xb1D91cD23548eA4A43D2982BE562F0Ec8CE773B7",
  "abi": [
    {
      "anonymous": false,
      "inputs": [
        {
          "indexed": false,
          "internalType": "address",
          "name": "_claimer",
          "type": "address"
        },
        {
          "indexed": false,
          "internalType": "uint256",
          "name": "_lordsClaimed",
          "type": "uint256"
        }
      ],
      "name": "LordsClaimed",
      "type": "event"
    },
    {
      "inputs": [],
      "name": "claimAllLords",
      "outputs": [],
      "stateMutability": "payable",
      "type": "function"
    },
    {
      "inputs": [
        {
          "internalType": "uint256",
          "name": "_realmId",
          "type": "uint256"
        }
      ],
      "name": "claimLords",
      "outputs": [],
      "stateMutability": "payable",
      "type": "function"
    },
    {
      "inputs": [],
      "name": "getAge",
      "outputs": [
        {
          "internalType": "uint256",
          "name": "",
          "type": "uint256"
        }
      ],
      "stateMutability": "view",
      "type": "function"
    }
  ],
  "transactionHash": "0xf0d53f720dc362c8a1d34c0a43ab509725cc69798a223c2bec3304811caf873b",
  "args": [],
  "solcInputHash": "de8e1bbd4111a57154191b5a5acd76b7",
  "bytecode": "0x608060405234801561001057600080fd5b50610c7c806100206000396000f3fe6080604052600436106100345760003560e01c8063760fd39314610039578063967e6e651461004357806397b05b4f1461006e575b600080fd5b61004161008a565b005b34801561004f57600080fd5b50610058610400565b60405161006591906109cb565b60405180910390f35b61008860048036038101906100839190610891565b61040f565b005b60008060080160009054906101000a900473ffffffffffffffffffffffffffffffffffffffff16905060008060030160029054906101000a900473ffffffffffffffffffffffffffffffffffffffff16905060008173ffffffffffffffffffffffffffffffffffffffff166370a08231336040518263ffffffff1660e01b81526004016101179190610947565b60206040518083038186803b15801561012f57600080fd5b505afa158015610143573d6000803e3d6000fd5b505050506040513d601f19601f8201168201806040525081019061016791906108ba565b90506000610173610747565b905060008060005b6001846101889190610a7e565b8110156101c9576000600d01600082815260200190815260200160002060000154826101b491906109f7565b915080806101c190610aee565b91505061017b565b5060005b8481101561030e5760008060000160008873ffffffffffffffffffffffffffffffffffffffff16632f745c5933866040518363ffffffff1660e01b8152600401610218929190610962565b60206040518083038186803b15801561023057600080fd5b505afa158015610244573d6000803e3d6000fd5b505050506040513d601f19601f8201168201806040525081019061026891906108ba565b815260200190815260200160002090506000816004015490505b60018661028f9190610a7e565b8110156102e95760006102a18261076d565b905084816102af9190610a4d565b866102ba91906109f7565b955084816102c89190610b37565b866102d391906109f7565b95505080806102e190610aee565b915050610282565b506102f2610747565b816004018190555050808061030690610aee565b9150506101cd565b5060008211610352576040517f08c379a0000000000000000000000000000000000000000000000000000000008152600401610349906109ab565b60405180910390fd5b8573ffffffffffffffffffffffffffffffffffffffff166340c10f1933846040518363ffffffff1660e01b815260040161038d929190610962565b600060405180830381600087803b1580156103a757600080fd5b505af11580156103bb573d6000803e3d6000fd5b505050507f12170b2044b97de561335471235c37308ebde6a0fc56428462a5f05f460db67633836040516103f0929190610962565b60405180910390a1505050505050565b600061040a610747565b905090565b8060008060030160029054906101000a900473ffffffffffffffffffffffffffffffffffffffff1690508073ffffffffffffffffffffffffffffffffffffffff16636352211e836040518263ffffffff1660e01b815260040161047291906109cb565b60206040518083038186803b15801561048a57600080fd5b505afa15801561049e573d6000803e3d6000fd5b505050506040513d601f19601f820116820180604052508101906104c29190610868565b73ffffffffffffffffffffffffffffffffffffffff163373ffffffffffffffffffffffffffffffffffffffff161461052f576040517f08c379a00000000000000000000000000000000000000000000000000000000081526004016105269061098b565b60405180910390fd5b60008060080160009054906101000a900473ffffffffffffffffffffffffffffffffffffffff16905060008060000160008681526020019081526020016000209050600061057b610747565b905060008060005b6001846105909190610a7e565b8110156105d1576000600d01600082815260200190815260200160002060000154826105bc91906109f7565b915080806105c990610aee565b915050610583565b506000846004015490505b6001846105e99190610a7e565b8110156106435760006105fb8261076d565b905082816106099190610a4d565b8461061491906109f7565b935082816106229190610b37565b8461062d91906109f7565b935050808061063b90610aee565b9150506105dc565b5060008211610687576040517f08c379a000000000000000000000000000000000000000000000000000000000815260040161067e906109ab565b60405180910390fd5b61068f610747565b84600401819055508473ffffffffffffffffffffffffffffffffffffffff166340c10f1933846040518363ffffffff1660e01b81526004016106d2929190610962565b600060405180830381600087803b1580156106ec57600080fd5b505af1158015610700573d6000803e3d6000fd5b505050507f12170b2044b97de561335471235c37308ebde6a0fc56428462a5f05f460db6763383604051610735929190610962565b60405180910390a15050505050505050565b6000620151806000600e01544261075e9190610a7e565b6107689190610a4d565b905090565b600080600060080160009054906101000a900473ffffffffffffffffffffffffffffffffffffffff1690508073ffffffffffffffffffffffffffffffffffffffff16636049585f846040518263ffffffff1660e01b81526004016107d191906109cb565b60206040518083038186803b1580156107e957600080fd5b505afa1580156107fd573d6000803e3d6000fd5b505050506040513d601f19601f8201168201806040525081019061082191906108ba565b915050919050565b60008151905061083881610c18565b92915050565b60008135905061084d81610c2f565b92915050565b60008151905061086281610c2f565b92915050565b60006020828403121561087a57600080fd5b600061088884828501610829565b91505092915050565b6000602082840312156108a357600080fd5b60006108b18482850161083e565b91505092915050565b6000602082840312156108cc57600080fd5b60006108da84828501610853565b91505092915050565b6108ec81610ab2565b82525050565b60006108ff6019836109e6565b915061090a82610bc6565b602082019050919050565b60006109226012836109e6565b915061092d82610bef565b602082019050919050565b61094181610ae4565b82525050565b600060208201905061095c60008301846108e3565b92915050565b600060408201905061097760008301856108e3565b6109846020830184610938565b9392505050565b600060208201905081810360008301526109a4816108f2565b9050919050565b600060208201905081810360008301526109c481610915565b9050919050565b60006020820190506109e06000830184610938565b92915050565b600082825260208201905092915050565b6000610a0282610ae4565b9150610a0d83610ae4565b9250827fffffffffffffffffffffffffffffffffffffffffffffffffffffffffffffffff03821115610a4257610a41610b68565b5b828201905092915050565b6000610a5882610ae4565b9150610a6383610ae4565b925082610a7357610a72610b97565b5b828204905092915050565b6000610a8982610ae4565b9150610a9483610ae4565b925082821015610aa757610aa6610b68565b5b828203905092915050565b6000610abd82610ac4565b9050919050565b600073ffffffffffffffffffffffffffffffffffffffff82169050919050565b6000819050919050565b6000610af982610ae4565b91507fffffffffffffffffffffffffffffffffffffffffffffffffffffffffffffffff821415610b2c57610b2b610b68565b5b600182019050919050565b6000610b4282610ae4565b9150610b4d83610ae4565b925082610b5d57610b5c610b97565b5b828206905092915050565b7f4e487b7100000000000000000000000000000000000000000000000000000000600052601160045260246000fd5b7f4e487b7100000000000000000000000000000000000000000000000000000000600052601260045260246000fd5b7f596f7520646f206e6f74206f776e2074686973205265616c6d00000000000000600082015250565b7f4e4f5f4c4f5244535f415641494c41424c450000000000000000000000000000600082015250565b610c2181610ab2565b8114610c2c57600080fd5b50565b610c3881610ae4565b8114610c4357600080fd5b5056fea26469706673582212207e317753dd532b3f5f09f9e888ec21ec12ab73babc220cf052c50d372e0650c164736f6c63430008030033",
  "devdoc": {
    "kind": "dev",
    "methods": {},
    "version": 1
  },
  "userdoc": {
    "kind": "user",
    "methods": {},
    "version": 1
  },
  "storageLayout": {
    "storage": [
      {
        "astId": 244,
        "contract": "contracts/settling/facets/LordsClaimingFacet.sol:LordsClaimingFacet",
        "label": "s",
        "offset": 0,
        "slot": "0",
        "type": "t_struct(AppStorage)653_storage"
      }
    ],
    "types": {
      "t_address": {
        "encoding": "inplace",
        "label": "address",
        "numberOfBytes": "20"
      },
      "t_array(t_uint256)dyn_storage": {
        "base": "t_uint256",
        "encoding": "dynamic_array",
        "label": "uint256[]",
        "numberOfBytes": "32"
      },
      "t_array(t_uint32)dyn_storage": {
        "base": "t_uint32",
        "encoding": "dynamic_array",
        "label": "uint32[]",
        "numberOfBytes": "32"
      },
      "t_array(t_uint8)dyn_storage": {
        "base": "t_uint8",
        "encoding": "dynamic_array",
        "label": "uint8[]",
        "numberOfBytes": "32"
      },
      "t_int32": {
        "encoding": "inplace",
        "label": "int32",
        "numberOfBytes": "4"
      },
      "t_mapping(t_uint256,t_struct(BuildingCosts)755_storage)": {
        "encoding": "mapping",
        "key": "t_uint256",
        "label": "mapping(uint256 => struct BuildingCosts)",
        "numberOfBytes": "32",
        "value": "t_struct(BuildingCosts)755_storage"
      },
      "t_mapping(t_uint256,t_struct(BuildingUpgradeCosts)764_storage)": {
        "encoding": "mapping",
        "key": "t_uint256",
        "label": "mapping(uint256 => struct BuildingUpgradeCosts)",
        "numberOfBytes": "32",
        "value": "t_struct(BuildingUpgradeCosts)764_storage"
      },
      "t_mapping(t_uint256,t_struct(LevelProduction)767_storage)": {
        "encoding": "mapping",
        "key": "t_uint256",
        "label": "mapping(uint256 => struct LevelProduction)",
        "numberOfBytes": "32",
        "value": "t_struct(LevelProduction)767_storage"
      },
      "t_mapping(t_uint256,t_struct(RealmBuildings)733_storage)": {
        "encoding": "mapping",
        "key": "t_uint256",
        "label": "mapping(uint256 => struct RealmBuildings)",
        "numberOfBytes": "32",
        "value": "t_struct(RealmBuildings)733_storage"
      },
      "t_mapping(t_uint256,t_struct(RealmInfo)702_storage)": {
        "encoding": "mapping",
        "key": "t_uint256",
        "label": "mapping(uint256 => struct RealmInfo)",
        "numberOfBytes": "32",
        "value": "t_struct(RealmInfo)702_storage"
      },
      "t_mapping(t_uint256,t_struct(RealmStatistics)671_storage)": {
        "encoding": "mapping",
        "key": "t_uint256",
        "label": "mapping(uint256 => struct RealmStatistics)",
        "numberOfBytes": "32",
        "value": "t_struct(RealmStatistics)671_storage"
      },
      "t_mapping(t_uint256,t_struct(ResourceInfo)709_storage)": {
        "encoding": "mapping",
        "key": "t_uint256",
        "label": "mapping(uint256 => struct ResourceInfo)",
        "numberOfBytes": "32",
        "value": "t_struct(ResourceInfo)709_storage"
      },
      "t_mapping(t_uint256,t_struct(TheAges)660_storage)": {
        "encoding": "mapping",
        "key": "t_uint256",
        "label": "mapping(uint256 => struct TheAges)",
        "numberOfBytes": "32",
        "value": "t_struct(TheAges)660_storage"
      },
      "t_mapping(t_uint256,t_struct(UpgradeCostLevels)780_storage)": {
        "encoding": "mapping",
        "key": "t_uint256",
        "label": "mapping(uint256 => struct UpgradeCostLevels)",
        "numberOfBytes": "32",
        "value": "t_struct(UpgradeCostLevels)780_storage"
      },
      "t_mapping(t_uint256,t_struct(UpgradeCosts)776_storage)": {
        "encoding": "mapping",
        "key": "t_uint256",
        "label": "mapping(uint256 => struct UpgradeCosts)",
        "numberOfBytes": "32",
        "value": "t_struct(UpgradeCosts)776_storage"
      },
      "t_string_storage": {
        "encoding": "bytes",
        "label": "string",
        "numberOfBytes": "32"
      },
      "t_struct(AppStorage)653_storage": {
        "encoding": "inplace",
        "label": "struct AppStorage",
        "members": [
          {
            "astId": 599,
            "contract": "contracts/settling/facets/LordsClaimingFacet.sol:LordsClaimingFacet",
            "label": "realmInfo",
            "offset": 0,
            "slot": "0",
            "type": "t_mapping(t_uint256,t_struct(RealmInfo)702_storage)"
          },
          {
            "astId": 604,
            "contract": "contracts/settling/facets/LordsClaimingFacet.sol:LordsClaimingFacet",
            "label": "realmStatistics",
            "offset": 0,
            "slot": "1",
            "type": "t_mapping(t_uint256,t_struct(RealmStatistics)671_storage)"
          },
          {
            "astId": 609,
            "contract": "contracts/settling/facets/LordsClaimingFacet.sol:LordsClaimingFacet",
            "label": "realmBuildings",
            "offset": 0,
            "slot": "2",
            "type": "t_mapping(t_uint256,t_struct(RealmBuildings)733_storage)"
          },
          {
            "astId": 611,
            "contract": "contracts/settling/facets/LordsClaimingFacet.sol:LordsClaimingFacet",
            "label": "baseProductionRate",
            "offset": 0,
            "slot": "3",
            "type": "t_uint8"
          },
          {
            "astId": 613,
            "contract": "contracts/settling/facets/LordsClaimingFacet.sol:LordsClaimingFacet",
            "label": "maxProductionRate",
            "offset": 1,
            "slot": "3",
            "type": "t_uint8"
          },
          {
            "astId": 615,
            "contract": "contracts/settling/facets/LordsClaimingFacet.sol:LordsClaimingFacet",
            "label": "sRealms",
            "offset": 2,
            "slot": "3",
            "type": "t_address"
          },
          {
            "astId": 617,
            "contract": "contracts/settling/facets/LordsClaimingFacet.sol:LordsClaimingFacet",
            "label": "realms",
            "offset": 0,
            "slot": "4",
            "type": "t_address"
          },
          {
            "astId": 619,
            "contract": "contracts/settling/facets/LordsClaimingFacet.sol:LordsClaimingFacet",
            "label": "treasury",
            "offset": 0,
            "slot": "5",
            "type": "t_address"
          },
          {
            "astId": 621,
            "contract": "contracts/settling/facets/LordsClaimingFacet.sol:LordsClaimingFacet",
            "label": "resources",
            "offset": 0,
            "slot": "6",
            "type": "t_address"
          },
          {
            "astId": 623,
            "contract": "contracts/settling/facets/LordsClaimingFacet.sol:LordsClaimingFacet",
            "label": "oracle",
            "offset": 0,
            "slot": "7",
            "type": "t_address"
          },
          {
            "astId": 625,
            "contract": "contracts/settling/facets/LordsClaimingFacet.sol:LordsClaimingFacet",
            "label": "lords",
            "offset": 0,
            "slot": "8",
            "type": "t_address"
          },
          {
            "astId": 630,
            "contract": "contracts/settling/facets/LordsClaimingFacet.sol:LordsClaimingFacet",
            "label": "levelProduction",
            "offset": 0,
            "slot": "9",
            "type": "t_mapping(t_uint256,t_struct(LevelProduction)767_storage)"
          },
          {
            "astId": 635,
            "contract": "contracts/settling/facets/LordsClaimingFacet.sol:LordsClaimingFacet",
            "label": "upgradeCosts",
            "offset": 0,
            "slot": "10",
            "type": "t_mapping(t_uint256,t_struct(UpgradeCosts)776_storage)"
          },
          {
            "astId": 640,
            "contract": "contracts/settling/facets/LordsClaimingFacet.sol:LordsClaimingFacet",
            "label": "buildingUpgradeCosts",
            "offset": 0,
            "slot": "11",
            "type": "t_mapping(t_uint256,t_struct(BuildingUpgradeCosts)764_storage)"
          },
          {
            "astId": 645,
            "contract": "contracts/settling/facets/LordsClaimingFacet.sol:LordsClaimingFacet",
            "label": "buildingCosts",
            "offset": 0,
            "slot": "12",
            "type": "t_mapping(t_uint256,t_struct(BuildingCosts)755_storage)"
          },
          {
            "astId": 650,
            "contract": "contracts/settling/facets/LordsClaimingFacet.sol:LordsClaimingFacet",
            "label": "theAges",
            "offset": 0,
            "slot": "13",
            "type": "t_mapping(t_uint256,t_struct(TheAges)660_storage)"
          },
          {
            "astId": 652,
            "contract": "contracts/settling/facets/LordsClaimingFacet.sol:LordsClaimingFacet",
            "label": "genesisTime",
            "offset": 0,
            "slot": "14",
            "type": "t_uint256"
          }
        ],
        "numberOfBytes": "480"
      },
      "t_struct(BuildingCosts)755_storage": {
        "encoding": "inplace",
        "label": "struct BuildingCosts",
        "members": [
          {
            "astId": 735,
            "contract": "contracts/settling/facets/LordsClaimingFacet.sol:LordsClaimingFacet",
            "label": "name",
            "offset": 0,
            "slot": "0",
            "type": "t_string_storage"
          },
          {
            "astId": 738,
            "contract": "contracts/settling/facets/LordsClaimingFacet.sol:LordsClaimingFacet",
            "label": "resourceIds",
            "offset": 0,
            "slot": "1",
            "type": "t_array(t_uint32)dyn_storage"
          },
          {
            "astId": 741,
            "contract": "contracts/settling/facets/LordsClaimingFacet.sol:LordsClaimingFacet",
            "label": "resourceValues",
            "offset": 0,
            "slot": "2",
            "type": "t_array(t_uint32)dyn_storage"
          },
          {
            "astId": 744,
            "contract": "contracts/settling/facets/LordsClaimingFacet.sol:LordsClaimingFacet",
            "label": "requirements",
            "offset": 0,
            "slot": "3",
            "type": "t_array(t_uint32)dyn_storage"
          },
          {
            "astId": 746,
            "contract": "contracts/settling/facets/LordsClaimingFacet.sol:LordsClaimingFacet",
            "label": "defence",
            "offset": 0,
            "slot": "4",
            "type": "t_int32"
          },
          {
            "astId": 748,
            "contract": "contracts/settling/facets/LordsClaimingFacet.sol:LordsClaimingFacet",
            "label": "offence",
            "offset": 4,
            "slot": "4",
            "type": "t_int32"
          },
          {
            "astId": 750,
            "contract": "contracts/settling/facets/LordsClaimingFacet.sol:LordsClaimingFacet",
            "label": "magic",
            "offset": 8,
            "slot": "4",
            "type": "t_int32"
          },
          {
            "astId": 752,
            "contract": "contracts/settling/facets/LordsClaimingFacet.sol:LordsClaimingFacet",
            "label": "population",
            "offset": 12,
            "slot": "4",
            "type": "t_int32"
          },
          {
            "astId": 754,
            "contract": "contracts/settling/facets/LordsClaimingFacet.sol:LordsClaimingFacet",
            "label": "food",
            "offset": 16,
            "slot": "4",
            "type": "t_int32"
          }
        ],
        "numberOfBytes": "160"
      },
      "t_struct(BuildingUpgradeCosts)764_storage": {
        "encoding": "inplace",
        "label": "struct BuildingUpgradeCosts",
        "members": [
          {
            "astId": 758,
            "contract": "contracts/settling/facets/LordsClaimingFacet.sol:LordsClaimingFacet",
            "label": "realmBuildings",
            "offset": 0,
            "slot": "0",
            "type": "t_array(t_uint8)dyn_storage"
          },
          {
            "astId": 763,
            "contract": "contracts/settling/facets/LordsClaimingFacet.sol:LordsClaimingFacet",
            "label": "buildingCosts",
            "offset": 0,
            "slot": "1",
            "type": "t_mapping(t_uint256,t_struct(BuildingCosts)755_storage)"
          }
        ],
        "numberOfBytes": "64"
      },
      "t_struct(LevelProduction)767_storage": {
        "encoding": "inplace",
        "label": "struct LevelProduction",
        "members": [
          {
            "astId": 766,
            "contract": "contracts/settling/facets/LordsClaimingFacet.sol:LordsClaimingFacet",
            "label": "output",
            "offset": 0,
            "slot": "0",
            "type": "t_uint8"
          }
        ],
        "numberOfBytes": "32"
      },
      "t_struct(RealmBuildings)733_storage": {
        "encoding": "inplace",
        "label": "struct RealmBuildings",
        "members": [
          {
            "astId": 716,
            "contract": "contracts/settling/facets/LordsClaimingFacet.sol:LordsClaimingFacet",
            "label": "aquaducts",
            "offset": 0,
            "slot": "0",
            "type": "t_uint8"
          },
          {
            "astId": 718,
            "contract": "contracts/settling/facets/LordsClaimingFacet.sol:LordsClaimingFacet",
            "label": "temples",
            "offset": 1,
            "slot": "0",
            "type": "t_uint8"
          },
          {
            "astId": 720,
            "contract": "contracts/settling/facets/LordsClaimingFacet.sol:LordsClaimingFacet",
            "label": "castles",
            "offset": 2,
            "slot": "0",
            "type": "t_uint8"
          },
          {
            "astId": 722,
            "contract": "contracts/settling/facets/LordsClaimingFacet.sol:LordsClaimingFacet",
            "label": "markets",
            "offset": 3,
            "slot": "0",
            "type": "t_uint8"
          },
          {
            "astId": 724,
            "contract": "contracts/settling/facets/LordsClaimingFacet.sol:LordsClaimingFacet",
            "label": "ports",
            "offset": 4,
            "slot": "0",
            "type": "t_uint8"
          },
          {
            "astId": 726,
            "contract": "contracts/settling/facets/LordsClaimingFacet.sol:LordsClaimingFacet",
            "label": "barracks",
            "offset": 5,
            "slot": "0",
            "type": "t_uint8"
          },
          {
            "astId": 728,
            "contract": "contracts/settling/facets/LordsClaimingFacet.sol:LordsClaimingFacet",
            "label": "farms",
            "offset": 6,
            "slot": "0",
            "type": "t_uint8"
          },
          {
            "astId": 730,
            "contract": "contracts/settling/facets/LordsClaimingFacet.sol:LordsClaimingFacet",
            "label": "shipyard",
            "offset": 7,
            "slot": "0",
            "type": "t_uint8"
          },
          {
            "astId": 732,
            "contract": "contracts/settling/facets/LordsClaimingFacet.sol:LordsClaimingFacet",
            "label": "fishingVillage",
            "offset": 8,
            "slot": "0",
            "type": "t_uint8"
          }
        ],
        "numberOfBytes": "32"
      },
      "t_struct(RealmInfo)702_storage": {
        "encoding": "inplace",
        "label": "struct RealmInfo",
        "members": [
          {
            "astId": 673,
            "contract": "contracts/settling/facets/LordsClaimingFacet.sol:LordsClaimingFacet",
            "label": "name",
            "offset": 0,
            "slot": "0",
            "type": "t_string_storage"
          },
          {
            "astId": 675,
            "contract": "contracts/settling/facets/LordsClaimingFacet.sol:LordsClaimingFacet",
            "label": "lastUpdateAt",
            "offset": 0,
            "slot": "1",
            "type": "t_uint256"
          },
          {
            "astId": 677,
            "contract": "contracts/settling/facets/LordsClaimingFacet.sol:LordsClaimingFacet",
            "label": "vestedTimeUpdatedAt",
            "offset": 0,
            "slot": "2",
            "type": "t_uint256"
          },
          {
            "astId": 679,
            "contract": "contracts/settling/facets/LordsClaimingFacet.sol:LordsClaimingFacet",
            "label": "ageSettled",
            "offset": 0,
            "slot": "3",
            "type": "t_uint256"
          },
          {
            "astId": 681,
            "contract": "contracts/settling/facets/LordsClaimingFacet.sol:LordsClaimingFacet",
            "label": "ageClaimed",
            "offset": 0,
            "slot": "4",
            "type": "t_uint256"
          },
          {
            "astId": 684,
            "contract": "contracts/settling/facets/LordsClaimingFacet.sol:LordsClaimingFacet",
            "label": "resourceIds",
            "offset": 0,
            "slot": "5",
            "type": "t_array(t_uint256)dyn_storage"
          },
          {
            "astId": 686,
            "contract": "contracts/settling/facets/LordsClaimingFacet.sol:LordsClaimingFacet",
            "label": "cities",
            "offset": 0,
            "slot": "6",
            "type": "t_uint8"
          },
          {
            "astId": 688,
            "contract": "contracts/settling/facets/LordsClaimingFacet.sol:LordsClaimingFacet",
            "label": "harbours",
            "offset": 1,
            "slot": "6",
            "type": "t_uint8"
          },
          {
            "astId": 690,
            "contract": "contracts/settling/facets/LordsClaimingFacet.sol:LordsClaimingFacet",
            "label": "rivers",
            "offset": 2,
            "slot": "6",
            "type": "t_uint8"
          },
          {
            "astId": 692,
            "contract": "contracts/settling/facets/LordsClaimingFacet.sol:LordsClaimingFacet",
            "label": "regions",
            "offset": 3,
            "slot": "6",
            "type": "t_uint8"
          },
          {
            "astId": 694,
            "contract": "contracts/settling/facets/LordsClaimingFacet.sol:LordsClaimingFacet",
            "label": "wonders",
            "offset": 4,
            "slot": "6",
            "type": "t_uint8"
          },
          {
            "astId": 696,
            "contract": "contracts/settling/facets/LordsClaimingFacet.sol:LordsClaimingFacet",
            "label": "orderOf",
            "offset": 5,
            "slot": "6",
            "type": "t_uint8"
          },
          {
            "astId": 701,
            "contract": "contracts/settling/facets/LordsClaimingFacet.sol:LordsClaimingFacet",
            "label": "resourceInfo",
            "offset": 0,
            "slot": "7",
            "type": "t_mapping(t_uint256,t_struct(ResourceInfo)709_storage)"
          }
        ],
        "numberOfBytes": "256"
      },
      "t_struct(RealmStatistics)671_storage": {
        "encoding": "inplace",
        "label": "struct RealmStatistics",
        "members": [
          {
            "astId": 662,
            "contract": "contracts/settling/facets/LordsClaimingFacet.sol:LordsClaimingFacet",
            "label": "realmDefence",
            "offset": 0,
            "slot": "0",
            "type": "t_int32"
          },
          {
            "astId": 664,
            "contract": "contracts/settling/facets/LordsClaimingFacet.sol:LordsClaimingFacet",
            "label": "realmOffence",
            "offset": 4,
            "slot": "0",
            "type": "t_int32"
          },
          {
            "astId": 666,
            "contract": "contracts/settling/facets/LordsClaimingFacet.sol:LordsClaimingFacet",
            "label": "realmMagic",
            "offset": 8,
            "slot": "0",
            "type": "t_int32"
          },
          {
            "astId": 668,
            "contract": "contracts/settling/facets/LordsClaimingFacet.sol:LordsClaimingFacet",
            "label": "foodSupply",
            "offset": 12,
            "slot": "0",
            "type": "t_int32"
          },
          {
            "astId": 670,
            "contract": "contracts/settling/facets/LordsClaimingFacet.sol:LordsClaimingFacet",
            "label": "population",
            "offset": 16,
            "slot": "0",
            "type": "t_int32"
          }
        ],
        "numberOfBytes": "32"
      },
      "t_struct(ResourceInfo)709_storage": {
        "encoding": "inplace",
        "label": "struct ResourceInfo",
        "members": [
          {
            "astId": 704,
            "contract": "contracts/settling/facets/LordsClaimingFacet.sol:LordsClaimingFacet",
            "label": "id",
            "offset": 0,
            "slot": "0",
            "type": "t_uint8"
          },
          {
            "astId": 706,
            "contract": "contracts/settling/facets/LordsClaimingFacet.sol:LordsClaimingFacet",
            "label": "level",
            "offset": 1,
            "slot": "0",
            "type": "t_uint8"
          },
          {
            "astId": 708,
            "contract": "contracts/settling/facets/LordsClaimingFacet.sol:LordsClaimingFacet",
            "label": "production",
            "offset": 2,
            "slot": "0",
            "type": "t_uint8"
          }
        ],
        "numberOfBytes": "32"
      },
      "t_struct(TheAges)660_storage": {
        "encoding": "inplace",
        "label": "struct TheAges",
        "members": [
          {
            "astId": 655,
            "contract": "contracts/settling/facets/LordsClaimingFacet.sol:LordsClaimingFacet",
            "label": "settledRealms",
            "offset": 0,
            "slot": "0",
            "type": "t_uint256"
          },
          {
            "astId": 657,
            "contract": "contracts/settling/facets/LordsClaimingFacet.sol:LordsClaimingFacet",
            "label": "ageStart",
            "offset": 0,
            "slot": "1",
            "type": "t_uint256"
          },
          {
            "astId": 659,
            "contract": "contracts/settling/facets/LordsClaimingFacet.sol:LordsClaimingFacet",
            "label": "ageFinish",
            "offset": 0,
            "slot": "2",
            "type": "t_uint256"
          }
        ],
        "numberOfBytes": "96"
      },
      "t_struct(UpgradeCostLevels)780_storage": {
        "encoding": "inplace",
        "label": "struct UpgradeCostLevels",
        "members": [
          {
            "astId": 779,
            "contract": "contracts/settling/facets/LordsClaimingFacet.sol:LordsClaimingFacet",
            "label": "value",
            "offset": 0,
            "slot": "0",
            "type": "t_array(t_uint256)dyn_storage"
          }
        ],
        "numberOfBytes": "32"
      },
      "t_struct(UpgradeCosts)776_storage": {
        "encoding": "inplace",
        "label": "struct UpgradeCosts",
        "members": [
          {
            "astId": 770,
            "contract": "contracts/settling/facets/LordsClaimingFacet.sol:LordsClaimingFacet",
            "label": "resourceIds",
            "offset": 0,
            "slot": "0",
            "type": "t_array(t_uint8)dyn_storage"
          },
          {
            "astId": 775,
            "contract": "contracts/settling/facets/LordsClaimingFacet.sol:LordsClaimingFacet",
            "label": "upgradeCostLevels",
            "offset": 0,
            "slot": "1",
            "type": "t_mapping(t_uint256,t_struct(UpgradeCostLevels)780_storage)"
          }
        ],
        "numberOfBytes": "64"
      },
      "t_uint256": {
        "encoding": "inplace",
        "label": "uint256",
        "numberOfBytes": "32"
      },
      "t_uint32": {
        "encoding": "inplace",
        "label": "uint32",
        "numberOfBytes": "4"
      },
      "t_uint8": {
        "encoding": "inplace",
        "label": "uint8",
        "numberOfBytes": "1"
      }
    }
  }
}