{
  "address": "0x527629a953BA6Eb22EFAc4919857fE3191757C79",
  "abi": [
    {
      "anonymous": false,
      "inputs": [
        {
          "indexed": false,
          "internalType": "address",
          "name": "_claimer",
          "type": "address"
        },
        {
          "indexed": false,
          "internalType": "uint256",
          "name": "_lordsClaimed",
          "type": "uint256"
        }
      ],
      "name": "LordsClaimed",
      "type": "event"
    },
    {
      "inputs": [],
      "name": "claimAllLords",
      "outputs": [],
      "stateMutability": "payable",
      "type": "function"
    },
    {
      "inputs": [
        {
          "internalType": "uint256",
          "name": "_realmId",
          "type": "uint256"
        }
      ],
      "name": "claimLords",
      "outputs": [],
      "stateMutability": "payable",
      "type": "function"
    },
    {
      "inputs": [],
      "name": "getAge",
      "outputs": [
        {
          "internalType": "uint256",
          "name": "",
          "type": "uint256"
        }
      ],
      "stateMutability": "view",
      "type": "function"
    },
    {
      "inputs": [],
      "name": "timeToNextAge",
      "outputs": [
        {
          "internalType": "uint256",
          "name": "",
          "type": "uint256"
        }
      ],
      "stateMutability": "view",
      "type": "function"
    }
  ],
  "transactionHash": "0x52fe321a931abce49a53cf02c0cee8baa206d7d8a1d9aad7d74de45ca7ac8a81",
  "args": [],
  "solcInputHash": "c58a2ef0c3598694c083c551142007ab",
  "bytecode": "0x608060405234801561001057600080fd5b50610cba806100206000396000f3fe60806040526004361061003f5760003560e01c8063760fd39314610044578063967e6e651461004e57806397b05b4f1461007957806398fac10714610095575b600080fd5b61004c6100c0565b005b34801561005a57600080fd5b5061006361041e565b6040516100709190610a09565b60405180910390f35b610093600480360381019061008e91906108cf565b61042d565b005b3480156100a157600080fd5b506100aa61074d565b6040516100b79190610a09565b60405180910390f35b60008060080160009054906101000a900473ffffffffffffffffffffffffffffffffffffffff16905060008060030160029054906101000a900473ffffffffffffffffffffffffffffffffffffffff16905060008173ffffffffffffffffffffffffffffffffffffffff166370a08231336040518263ffffffff1660e01b815260040161014d9190610985565b60206040518083038186803b15801561016557600080fd5b505afa158015610179573d6000803e3d6000fd5b505050506040513d601f19601f8201168201806040525081019061019d91906108f8565b905060006101a9610785565b905060008060005b838110156101f3576000600d01600082815260200190815260200160002060000154826101de9190610a35565b915080806101eb90610b2c565b9150506101b1565b5060005b8481101561032c5760008060000160008873ffffffffffffffffffffffffffffffffffffffff16632f745c5933866040518363ffffffff1660e01b81526004016102429291906109a0565b60206040518083038186803b15801561025a57600080fd5b505afa15801561026e573d6000803e3d6000fd5b505050506040513d601f19601f8201168201806040525081019061029291906108f8565b815260200190815260200160002090506000816004015490505b858110156103075760006102bf826107ab565b905084816102cd9190610a8b565b866102d89190610a35565b955084816102e69190610b75565b866102f19190610a35565b95505080806102ff90610b2c565b9150506102ac565b50610310610785565b816004018190555050808061032490610b2c565b9150506101f7565b5060008211610370576040517f08c379a0000000000000000000000000000000000000000000000000000000008152600401610367906109e9565b60405180910390fd5b8573ffffffffffffffffffffffffffffffffffffffff166340c10f1933846040518363ffffffff1660e01b81526004016103ab9291906109a0565b600060405180830381600087803b1580156103c557600080fd5b505af11580156103d9573d6000803e3d6000fd5b505050507f12170b2044b97de561335471235c37308ebde6a0fc56428462a5f05f460db676338360405161040e9291906109a0565b60405180910390a1505050505050565b6000610428610785565b905090565b8060008060030160029054906101000a900473ffffffffffffffffffffffffffffffffffffffff1690508073ffffffffffffffffffffffffffffffffffffffff16636352211e836040518263ffffffff1660e01b81526004016104909190610a09565b60206040518083038186803b1580156104a857600080fd5b505afa1580156104bc573d6000803e3d6000fd5b505050506040513d601f19601f820116820180604052508101906104e091906108a6565b73ffffffffffffffffffffffffffffffffffffffff163373ffffffffffffffffffffffffffffffffffffffff161461054d576040517f08c379a0000000000000000000000000000000000000000000000000000000008152600401610544906109c9565b60405180910390fd5b60008060080160009054906101000a900473ffffffffffffffffffffffffffffffffffffffff169050600080600001600086815260200190815260200160002090506000610599610785565b905060008060005b838110156105e3576000600d01600082815260200190815260200160002060000154826105ce9190610a35565b915080806105db90610b2c565b9150506105a1565b506000846004015490505b83811015610649576000610601826107ab565b9050828161060f9190610a8b565b8461061a9190610a35565b935082816106289190610b75565b846106339190610a35565b935050808061064190610b2c565b9150506105ee565b506000821161068d576040517f08c379a0000000000000000000000000000000000000000000000000000000008152600401610684906109e9565b60405180910390fd5b610695610785565b84600401819055508473ffffffffffffffffffffffffffffffffffffffff166340c10f1933846040518363ffffffff1660e01b81526004016106d89291906109a0565b600060405180830381600087803b1580156106f257600080fd5b505af1158015610706573d6000803e3d6000fd5b505050507f12170b2044b97de561335471235c37308ebde6a0fc56428462a5f05f460db676338360405161073b9291906109a0565b60405180910390a15050505050505050565b6000610757610785565b620151806000600e01544261076c9190610abc565b6107769190610b75565b6107809190610abc565b905090565b6000620151806000600e01544261079c9190610abc565b6107a69190610a8b565b905090565b600080600060080160009054906101000a900473ffffffffffffffffffffffffffffffffffffffff1690508073ffffffffffffffffffffffffffffffffffffffff16636049585f846040518263ffffffff1660e01b815260040161080f9190610a09565b60206040518083038186803b15801561082757600080fd5b505afa15801561083b573d6000803e3d6000fd5b505050506040513d601f19601f8201168201806040525081019061085f91906108f8565b915050919050565b60008151905061087681610c56565b92915050565b60008135905061088b81610c6d565b92915050565b6000815190506108a081610c6d565b92915050565b6000602082840312156108b857600080fd5b60006108c684828501610867565b91505092915050565b6000602082840312156108e157600080fd5b60006108ef8482850161087c565b91505092915050565b60006020828403121561090a57600080fd5b600061091884828501610891565b91505092915050565b61092a81610af0565b82525050565b600061093d601983610a24565b915061094882610c04565b602082019050919050565b6000610960601283610a24565b915061096b82610c2d565b602082019050919050565b61097f81610b22565b82525050565b600060208201905061099a6000830184610921565b92915050565b60006040820190506109b56000830185610921565b6109c26020830184610976565b9392505050565b600060208201905081810360008301526109e281610930565b9050919050565b60006020820190508181036000830152610a0281610953565b9050919050565b6000602082019050610a1e6000830184610976565b92915050565b600082825260208201905092915050565b6000610a4082610b22565b9150610a4b83610b22565b9250827fffffffffffffffffffffffffffffffffffffffffffffffffffffffffffffffff03821115610a8057610a7f610ba6565b5b828201905092915050565b6000610a9682610b22565b9150610aa183610b22565b925082610ab157610ab0610bd5565b5b828204905092915050565b6000610ac782610b22565b9150610ad283610b22565b925082821015610ae557610ae4610ba6565b5b828203905092915050565b6000610afb82610b02565b9050919050565b600073ffffffffffffffffffffffffffffffffffffffff82169050919050565b6000819050919050565b6000610b3782610b22565b91507fffffffffffffffffffffffffffffffffffffffffffffffffffffffffffffffff821415610b6a57610b69610ba6565b5b600182019050919050565b6000610b8082610b22565b9150610b8b83610b22565b925082610b9b57610b9a610bd5565b5b828206905092915050565b7f4e487b7100000000000000000000000000000000000000000000000000000000600052601160045260246000fd5b7f4e487b7100000000000000000000000000000000000000000000000000000000600052601260045260246000fd5b7f596f7520646f206e6f74206f776e2074686973205265616c6d00000000000000600082015250565b7f4e4f5f4c4f5244535f415641494c41424c450000000000000000000000000000600082015250565b610c5f81610af0565b8114610c6a57600080fd5b50565b610c7681610b22565b8114610c8157600080fd5b5056fea26469706673582212202e3a5aca1059f631331112b3f76b1dc9b128ef2de05d103a1ee2a83a181a420b64736f6c63430008030033",
  "devdoc": {
    "kind": "dev",
    "methods": {},
    "version": 1
  },
  "userdoc": {
    "kind": "user",
    "methods": {},
    "version": 1
  },
  "storageLayout": {
    "storage": [
      {
        "astId": 1857,
        "contract": "contracts/settling/facets/LordsClaimingFacet.sol:LordsClaimingFacet",
        "label": "s",
        "offset": 0,
        "slot": "0",
        "type": "t_struct(AppStorage)861_storage"
      }
    ],
    "types": {
      "t_address": {
        "encoding": "inplace",
        "label": "address",
        "numberOfBytes": "20"
      },
      "t_array(t_uint256)dyn_storage": {
        "base": "t_uint256",
        "encoding": "dynamic_array",
        "label": "uint256[]",
        "numberOfBytes": "32"
      },
      "t_array(t_uint32)dyn_storage": {
        "base": "t_uint32",
        "encoding": "dynamic_array",
        "label": "uint32[]",
        "numberOfBytes": "32"
      },
      "t_array(t_uint8)dyn_storage": {
        "base": "t_uint8",
        "encoding": "dynamic_array",
        "label": "uint8[]",
        "numberOfBytes": "32"
      },
      "t_int32": {
        "encoding": "inplace",
        "label": "int32",
        "numberOfBytes": "4"
      },
      "t_mapping(t_uint256,t_struct(BuildingCosts)963_storage)": {
        "encoding": "mapping",
        "key": "t_uint256",
        "label": "mapping(uint256 => struct BuildingCosts)",
        "numberOfBytes": "32",
        "value": "t_struct(BuildingCosts)963_storage"
      },
      "t_mapping(t_uint256,t_struct(BuildingUpgradeCosts)972_storage)": {
        "encoding": "mapping",
        "key": "t_uint256",
        "label": "mapping(uint256 => struct BuildingUpgradeCosts)",
        "numberOfBytes": "32",
        "value": "t_struct(BuildingUpgradeCosts)972_storage"
      },
      "t_mapping(t_uint256,t_struct(LevelProduction)975_storage)": {
        "encoding": "mapping",
        "key": "t_uint256",
        "label": "mapping(uint256 => struct LevelProduction)",
        "numberOfBytes": "32",
        "value": "t_struct(LevelProduction)975_storage"
      },
      "t_mapping(t_uint256,t_struct(RealmBuildings)941_storage)": {
        "encoding": "mapping",
        "key": "t_uint256",
        "label": "mapping(uint256 => struct RealmBuildings)",
        "numberOfBytes": "32",
        "value": "t_struct(RealmBuildings)941_storage"
      },
      "t_mapping(t_uint256,t_struct(RealmInfo)910_storage)": {
        "encoding": "mapping",
        "key": "t_uint256",
        "label": "mapping(uint256 => struct RealmInfo)",
        "numberOfBytes": "32",
        "value": "t_struct(RealmInfo)910_storage"
      },
      "t_mapping(t_uint256,t_struct(RealmStatistics)879_storage)": {
        "encoding": "mapping",
        "key": "t_uint256",
        "label": "mapping(uint256 => struct RealmStatistics)",
        "numberOfBytes": "32",
        "value": "t_struct(RealmStatistics)879_storage"
      },
      "t_mapping(t_uint256,t_struct(ResourceInfo)917_storage)": {
        "encoding": "mapping",
        "key": "t_uint256",
        "label": "mapping(uint256 => struct ResourceInfo)",
        "numberOfBytes": "32",
        "value": "t_struct(ResourceInfo)917_storage"
      },
      "t_mapping(t_uint256,t_struct(TheAges)868_storage)": {
        "encoding": "mapping",
        "key": "t_uint256",
        "label": "mapping(uint256 => struct TheAges)",
        "numberOfBytes": "32",
        "value": "t_struct(TheAges)868_storage"
      },
      "t_mapping(t_uint256,t_struct(UpgradeCostLevels)988_storage)": {
        "encoding": "mapping",
        "key": "t_uint256",
        "label": "mapping(uint256 => struct UpgradeCostLevels)",
        "numberOfBytes": "32",
        "value": "t_struct(UpgradeCostLevels)988_storage"
      },
      "t_mapping(t_uint256,t_struct(UpgradeCosts)984_storage)": {
        "encoding": "mapping",
        "key": "t_uint256",
        "label": "mapping(uint256 => struct UpgradeCosts)",
        "numberOfBytes": "32",
        "value": "t_struct(UpgradeCosts)984_storage"
      },
      "t_string_storage": {
        "encoding": "bytes",
        "label": "string",
        "numberOfBytes": "32"
      },
      "t_struct(AppStorage)861_storage": {
        "encoding": "inplace",
        "label": "struct AppStorage",
        "members": [
          {
            "astId": 807,
            "contract": "contracts/settling/facets/LordsClaimingFacet.sol:LordsClaimingFacet",
            "label": "realmInfo",
            "offset": 0,
            "slot": "0",
            "type": "t_mapping(t_uint256,t_struct(RealmInfo)910_storage)"
          },
          {
            "astId": 812,
            "contract": "contracts/settling/facets/LordsClaimingFacet.sol:LordsClaimingFacet",
            "label": "realmStatistics",
            "offset": 0,
            "slot": "1",
            "type": "t_mapping(t_uint256,t_struct(RealmStatistics)879_storage)"
          },
          {
            "astId": 817,
            "contract": "contracts/settling/facets/LordsClaimingFacet.sol:LordsClaimingFacet",
            "label": "realmBuildings",
            "offset": 0,
            "slot": "2",
            "type": "t_mapping(t_uint256,t_struct(RealmBuildings)941_storage)"
          },
          {
            "astId": 819,
            "contract": "contracts/settling/facets/LordsClaimingFacet.sol:LordsClaimingFacet",
            "label": "baseProductionRate",
            "offset": 0,
            "slot": "3",
            "type": "t_uint8"
          },
          {
            "astId": 821,
            "contract": "contracts/settling/facets/LordsClaimingFacet.sol:LordsClaimingFacet",
            "label": "maxProductionRate",
            "offset": 1,
            "slot": "3",
            "type": "t_uint8"
          },
          {
            "astId": 823,
            "contract": "contracts/settling/facets/LordsClaimingFacet.sol:LordsClaimingFacet",
            "label": "sRealms",
            "offset": 2,
            "slot": "3",
            "type": "t_address"
          },
          {
            "astId": 825,
            "contract": "contracts/settling/facets/LordsClaimingFacet.sol:LordsClaimingFacet",
            "label": "realms",
            "offset": 0,
            "slot": "4",
            "type": "t_address"
          },
          {
            "astId": 827,
            "contract": "contracts/settling/facets/LordsClaimingFacet.sol:LordsClaimingFacet",
            "label": "treasury",
            "offset": 0,
            "slot": "5",
            "type": "t_address"
          },
          {
            "astId": 829,
            "contract": "contracts/settling/facets/LordsClaimingFacet.sol:LordsClaimingFacet",
            "label": "resources",
            "offset": 0,
            "slot": "6",
            "type": "t_address"
          },
          {
            "astId": 831,
            "contract": "contracts/settling/facets/LordsClaimingFacet.sol:LordsClaimingFacet",
            "label": "oracle",
            "offset": 0,
            "slot": "7",
            "type": "t_address"
          },
          {
            "astId": 833,
            "contract": "contracts/settling/facets/LordsClaimingFacet.sol:LordsClaimingFacet",
            "label": "lords",
            "offset": 0,
            "slot": "8",
            "type": "t_address"
          },
          {
            "astId": 838,
            "contract": "contracts/settling/facets/LordsClaimingFacet.sol:LordsClaimingFacet",
            "label": "levelProduction",
            "offset": 0,
            "slot": "9",
            "type": "t_mapping(t_uint256,t_struct(LevelProduction)975_storage)"
          },
          {
            "astId": 843,
            "contract": "contracts/settling/facets/LordsClaimingFacet.sol:LordsClaimingFacet",
            "label": "upgradeCosts",
            "offset": 0,
            "slot": "10",
            "type": "t_mapping(t_uint256,t_struct(UpgradeCosts)984_storage)"
          },
          {
            "astId": 848,
            "contract": "contracts/settling/facets/LordsClaimingFacet.sol:LordsClaimingFacet",
            "label": "buildingUpgradeCosts",
            "offset": 0,
            "slot": "11",
            "type": "t_mapping(t_uint256,t_struct(BuildingUpgradeCosts)972_storage)"
          },
          {
            "astId": 853,
            "contract": "contracts/settling/facets/LordsClaimingFacet.sol:LordsClaimingFacet",
            "label": "buildingCosts",
            "offset": 0,
            "slot": "12",
            "type": "t_mapping(t_uint256,t_struct(BuildingCosts)963_storage)"
          },
          {
            "astId": 858,
            "contract": "contracts/settling/facets/LordsClaimingFacet.sol:LordsClaimingFacet",
            "label": "theAges",
            "offset": 0,
            "slot": "13",
            "type": "t_mapping(t_uint256,t_struct(TheAges)868_storage)"
          },
          {
            "astId": 860,
            "contract": "contracts/settling/facets/LordsClaimingFacet.sol:LordsClaimingFacet",
            "label": "genesisTime",
            "offset": 0,
            "slot": "14",
            "type": "t_uint256"
          }
        ],
        "numberOfBytes": "480"
      },
      "t_struct(BuildingCosts)963_storage": {
        "encoding": "inplace",
        "label": "struct BuildingCosts",
        "members": [
          {
            "astId": 943,
            "contract": "contracts/settling/facets/LordsClaimingFacet.sol:LordsClaimingFacet",
            "label": "name",
            "offset": 0,
            "slot": "0",
            "type": "t_string_storage"
          },
          {
            "astId": 946,
            "contract": "contracts/settling/facets/LordsClaimingFacet.sol:LordsClaimingFacet",
            "label": "resourceIds",
            "offset": 0,
            "slot": "1",
            "type": "t_array(t_uint32)dyn_storage"
          },
          {
            "astId": 949,
            "contract": "contracts/settling/facets/LordsClaimingFacet.sol:LordsClaimingFacet",
            "label": "resourceValues",
            "offset": 0,
            "slot": "2",
            "type": "t_array(t_uint32)dyn_storage"
          },
          {
            "astId": 952,
            "contract": "contracts/settling/facets/LordsClaimingFacet.sol:LordsClaimingFacet",
            "label": "requirements",
            "offset": 0,
            "slot": "3",
            "type": "t_array(t_uint32)dyn_storage"
          },
          {
            "astId": 954,
            "contract": "contracts/settling/facets/LordsClaimingFacet.sol:LordsClaimingFacet",
            "label": "defence",
            "offset": 0,
            "slot": "4",
            "type": "t_int32"
          },
          {
            "astId": 956,
            "contract": "contracts/settling/facets/LordsClaimingFacet.sol:LordsClaimingFacet",
            "label": "offence",
            "offset": 4,
            "slot": "4",
            "type": "t_int32"
          },
          {
            "astId": 958,
            "contract": "contracts/settling/facets/LordsClaimingFacet.sol:LordsClaimingFacet",
            "label": "magic",
            "offset": 8,
            "slot": "4",
            "type": "t_int32"
          },
          {
            "astId": 960,
            "contract": "contracts/settling/facets/LordsClaimingFacet.sol:LordsClaimingFacet",
            "label": "population",
            "offset": 12,
            "slot": "4",
            "type": "t_int32"
          },
          {
            "astId": 962,
            "contract": "contracts/settling/facets/LordsClaimingFacet.sol:LordsClaimingFacet",
            "label": "food",
            "offset": 16,
            "slot": "4",
            "type": "t_int32"
          }
        ],
        "numberOfBytes": "160"
      },
      "t_struct(BuildingUpgradeCosts)972_storage": {
        "encoding": "inplace",
        "label": "struct BuildingUpgradeCosts",
        "members": [
          {
            "astId": 966,
            "contract": "contracts/settling/facets/LordsClaimingFacet.sol:LordsClaimingFacet",
            "label": "realmBuildings",
            "offset": 0,
            "slot": "0",
            "type": "t_array(t_uint8)dyn_storage"
          },
          {
            "astId": 971,
            "contract": "contracts/settling/facets/LordsClaimingFacet.sol:LordsClaimingFacet",
            "label": "buildingCosts",
            "offset": 0,
            "slot": "1",
            "type": "t_mapping(t_uint256,t_struct(BuildingCosts)963_storage)"
          }
        ],
        "numberOfBytes": "64"
      },
      "t_struct(LevelProduction)975_storage": {
        "encoding": "inplace",
        "label": "struct LevelProduction",
        "members": [
          {
            "astId": 974,
            "contract": "contracts/settling/facets/LordsClaimingFacet.sol:LordsClaimingFacet",
            "label": "output",
            "offset": 0,
            "slot": "0",
            "type": "t_uint8"
          }
        ],
        "numberOfBytes": "32"
      },
      "t_struct(RealmBuildings)941_storage": {
        "encoding": "inplace",
        "label": "struct RealmBuildings",
        "members": [
          {
            "astId": 924,
            "contract": "contracts/settling/facets/LordsClaimingFacet.sol:LordsClaimingFacet",
            "label": "aquaducts",
            "offset": 0,
            "slot": "0",
            "type": "t_uint8"
          },
          {
            "astId": 926,
            "contract": "contracts/settling/facets/LordsClaimingFacet.sol:LordsClaimingFacet",
            "label": "temples",
            "offset": 1,
            "slot": "0",
            "type": "t_uint8"
          },
          {
            "astId": 928,
            "contract": "contracts/settling/facets/LordsClaimingFacet.sol:LordsClaimingFacet",
            "label": "castles",
            "offset": 2,
            "slot": "0",
            "type": "t_uint8"
          },
          {
            "astId": 930,
            "contract": "contracts/settling/facets/LordsClaimingFacet.sol:LordsClaimingFacet",
            "label": "markets",
            "offset": 3,
            "slot": "0",
            "type": "t_uint8"
          },
          {
            "astId": 932,
            "contract": "contracts/settling/facets/LordsClaimingFacet.sol:LordsClaimingFacet",
            "label": "ports",
            "offset": 4,
            "slot": "0",
            "type": "t_uint8"
          },
          {
            "astId": 934,
            "contract": "contracts/settling/facets/LordsClaimingFacet.sol:LordsClaimingFacet",
            "label": "barracks",
            "offset": 5,
            "slot": "0",
            "type": "t_uint8"
          },
          {
            "astId": 936,
            "contract": "contracts/settling/facets/LordsClaimingFacet.sol:LordsClaimingFacet",
            "label": "farms",
            "offset": 6,
            "slot": "0",
            "type": "t_uint8"
          },
          {
            "astId": 938,
            "contract": "contracts/settling/facets/LordsClaimingFacet.sol:LordsClaimingFacet",
            "label": "shipyard",
            "offset": 7,
            "slot": "0",
            "type": "t_uint8"
          },
          {
            "astId": 940,
            "contract": "contracts/settling/facets/LordsClaimingFacet.sol:LordsClaimingFacet",
            "label": "fishingVillage",
            "offset": 8,
            "slot": "0",
            "type": "t_uint8"
          }
        ],
        "numberOfBytes": "32"
      },
      "t_struct(RealmInfo)910_storage": {
        "encoding": "inplace",
        "label": "struct RealmInfo",
        "members": [
          {
            "astId": 881,
            "contract": "contracts/settling/facets/LordsClaimingFacet.sol:LordsClaimingFacet",
            "label": "name",
            "offset": 0,
            "slot": "0",
            "type": "t_string_storage"
          },
          {
            "astId": 883,
            "contract": "contracts/settling/facets/LordsClaimingFacet.sol:LordsClaimingFacet",
            "label": "lastUpdateAt",
            "offset": 0,
            "slot": "1",
            "type": "t_uint256"
          },
          {
            "astId": 885,
            "contract": "contracts/settling/facets/LordsClaimingFacet.sol:LordsClaimingFacet",
            "label": "vestedTimeUpdatedAt",
            "offset": 0,
            "slot": "2",
            "type": "t_uint256"
          },
          {
            "astId": 887,
            "contract": "contracts/settling/facets/LordsClaimingFacet.sol:LordsClaimingFacet",
            "label": "ageSettled",
            "offset": 0,
            "slot": "3",
            "type": "t_uint256"
          },
          {
            "astId": 889,
            "contract": "contracts/settling/facets/LordsClaimingFacet.sol:LordsClaimingFacet",
            "label": "ageClaimed",
            "offset": 0,
            "slot": "4",
            "type": "t_uint256"
          },
          {
            "astId": 892,
            "contract": "contracts/settling/facets/LordsClaimingFacet.sol:LordsClaimingFacet",
            "label": "resourceIds",
            "offset": 0,
            "slot": "5",
            "type": "t_array(t_uint256)dyn_storage"
          },
          {
            "astId": 894,
            "contract": "contracts/settling/facets/LordsClaimingFacet.sol:LordsClaimingFacet",
            "label": "cities",
            "offset": 0,
            "slot": "6",
            "type": "t_uint8"
          },
          {
            "astId": 896,
            "contract": "contracts/settling/facets/LordsClaimingFacet.sol:LordsClaimingFacet",
            "label": "harbours",
            "offset": 1,
            "slot": "6",
            "type": "t_uint8"
          },
          {
            "astId": 898,
            "contract": "contracts/settling/facets/LordsClaimingFacet.sol:LordsClaimingFacet",
            "label": "rivers",
            "offset": 2,
            "slot": "6",
            "type": "t_uint8"
          },
          {
            "astId": 900,
            "contract": "contracts/settling/facets/LordsClaimingFacet.sol:LordsClaimingFacet",
            "label": "regions",
            "offset": 3,
            "slot": "6",
            "type": "t_uint8"
          },
          {
            "astId": 902,
            "contract": "contracts/settling/facets/LordsClaimingFacet.sol:LordsClaimingFacet",
            "label": "wonders",
            "offset": 4,
            "slot": "6",
            "type": "t_uint8"
          },
          {
            "astId": 904,
            "contract": "contracts/settling/facets/LordsClaimingFacet.sol:LordsClaimingFacet",
            "label": "orderOf",
            "offset": 5,
            "slot": "6",
            "type": "t_uint8"
          },
          {
            "astId": 909,
            "contract": "contracts/settling/facets/LordsClaimingFacet.sol:LordsClaimingFacet",
            "label": "resourceInfo",
            "offset": 0,
            "slot": "7",
            "type": "t_mapping(t_uint256,t_struct(ResourceInfo)917_storage)"
          }
        ],
        "numberOfBytes": "256"
      },
      "t_struct(RealmStatistics)879_storage": {
        "encoding": "inplace",
        "label": "struct RealmStatistics",
        "members": [
          {
            "astId": 870,
            "contract": "contracts/settling/facets/LordsClaimingFacet.sol:LordsClaimingFacet",
            "label": "realmDefence",
            "offset": 0,
            "slot": "0",
            "type": "t_int32"
          },
          {
            "astId": 872,
            "contract": "contracts/settling/facets/LordsClaimingFacet.sol:LordsClaimingFacet",
            "label": "realmOffence",
            "offset": 4,
            "slot": "0",
            "type": "t_int32"
          },
          {
            "astId": 874,
            "contract": "contracts/settling/facets/LordsClaimingFacet.sol:LordsClaimingFacet",
            "label": "realmMagic",
            "offset": 8,
            "slot": "0",
            "type": "t_int32"
          },
          {
            "astId": 876,
            "contract": "contracts/settling/facets/LordsClaimingFacet.sol:LordsClaimingFacet",
            "label": "foodSupply",
            "offset": 12,
            "slot": "0",
            "type": "t_int32"
          },
          {
            "astId": 878,
            "contract": "contracts/settling/facets/LordsClaimingFacet.sol:LordsClaimingFacet",
            "label": "population",
            "offset": 16,
            "slot": "0",
            "type": "t_int32"
          }
        ],
        "numberOfBytes": "32"
      },
      "t_struct(ResourceInfo)917_storage": {
        "encoding": "inplace",
        "label": "struct ResourceInfo",
        "members": [
          {
            "astId": 912,
            "contract": "contracts/settling/facets/LordsClaimingFacet.sol:LordsClaimingFacet",
            "label": "id",
            "offset": 0,
            "slot": "0",
            "type": "t_uint8"
          },
          {
            "astId": 914,
            "contract": "contracts/settling/facets/LordsClaimingFacet.sol:LordsClaimingFacet",
            "label": "level",
            "offset": 1,
            "slot": "0",
            "type": "t_uint8"
          },
          {
            "astId": 916,
            "contract": "contracts/settling/facets/LordsClaimingFacet.sol:LordsClaimingFacet",
            "label": "production",
            "offset": 2,
            "slot": "0",
            "type": "t_uint8"
          }
        ],
        "numberOfBytes": "32"
      },
      "t_struct(TheAges)868_storage": {
        "encoding": "inplace",
        "label": "struct TheAges",
        "members": [
          {
            "astId": 863,
            "contract": "contracts/settling/facets/LordsClaimingFacet.sol:LordsClaimingFacet",
            "label": "settledRealms",
            "offset": 0,
            "slot": "0",
            "type": "t_uint256"
          },
          {
            "astId": 865,
            "contract": "contracts/settling/facets/LordsClaimingFacet.sol:LordsClaimingFacet",
            "label": "ageStart",
            "offset": 0,
            "slot": "1",
            "type": "t_uint256"
          },
          {
            "astId": 867,
            "contract": "contracts/settling/facets/LordsClaimingFacet.sol:LordsClaimingFacet",
            "label": "ageFinish",
            "offset": 0,
            "slot": "2",
            "type": "t_uint256"
          }
        ],
        "numberOfBytes": "96"
      },
      "t_struct(UpgradeCostLevels)988_storage": {
        "encoding": "inplace",
        "label": "struct UpgradeCostLevels",
        "members": [
          {
            "astId": 987,
            "contract": "contracts/settling/facets/LordsClaimingFacet.sol:LordsClaimingFacet",
            "label": "value",
            "offset": 0,
            "slot": "0",
            "type": "t_array(t_uint256)dyn_storage"
          }
        ],
        "numberOfBytes": "32"
      },
      "t_struct(UpgradeCosts)984_storage": {
        "encoding": "inplace",
        "label": "struct UpgradeCosts",
        "members": [
          {
            "astId": 978,
            "contract": "contracts/settling/facets/LordsClaimingFacet.sol:LordsClaimingFacet",
            "label": "resourceIds",
            "offset": 0,
            "slot": "0",
            "type": "t_array(t_uint8)dyn_storage"
          },
          {
            "astId": 983,
            "contract": "contracts/settling/facets/LordsClaimingFacet.sol:LordsClaimingFacet",
            "label": "upgradeCostLevels",
            "offset": 0,
            "slot": "1",
            "type": "t_mapping(t_uint256,t_struct(UpgradeCostLevels)988_storage)"
          }
        ],
        "numberOfBytes": "64"
      },
      "t_uint256": {
        "encoding": "inplace",
        "label": "uint256",
        "numberOfBytes": "32"
      },
      "t_uint32": {
        "encoding": "inplace",
        "label": "uint32",
        "numberOfBytes": "4"
      },
      "t_uint8": {
        "encoding": "inplace",
        "label": "uint8",
        "numberOfBytes": "1"
      }
    }
  }
}