{
  "address": "0xaF2929Ccb660f6d715893C8B2199E0ca28Da1c1c",
  "abi": [
    {
      "anonymous": false,
      "inputs": [
        {
          "indexed": false,
          "internalType": "uint256",
          "name": "raidResult",
          "type": "uint256"
        },
        {
          "indexed": false,
          "internalType": "uint256",
          "name": "attackingRealm",
          "type": "uint256"
        },
        {
          "indexed": false,
          "internalType": "uint256",
          "name": "defendingRealm",
          "type": "uint256"
        },
        {
          "indexed": false,
          "internalType": "address",
          "name": "attackerAddress",
          "type": "address"
        },
        {
          "indexed": false,
          "internalType": "address",
          "name": "defenderAddress",
          "type": "address"
        },
        {
          "indexed": false,
          "internalType": "uint256",
          "name": "raidingUnitsLost",
          "type": "uint256"
        },
        {
          "indexed": false,
          "internalType": "uint256",
          "name": "defendingUnitsLost",
          "type": "uint256"
        },
        {
          "indexed": false,
          "internalType": "uint256[]",
          "name": "resourcesIdsPillaged",
          "type": "uint256[]"
        },
        {
          "indexed": false,
          "internalType": "uint256[]",
          "name": "resourcesValuesPillaged",
          "type": "uint256[]"
        },
        {
          "indexed": false,
          "internalType": "uint256",
          "name": "unitsCaptured",
          "type": "uint256"
        }
      ],
      "name": "RaidResult",
      "type": "event"
    },
    {
      "inputs": [
        {
          "internalType": "uint256",
          "name": "_attackingTokenId",
          "type": "uint256"
        },
        {
          "internalType": "uint256",
          "name": "_defendingTokenId",
          "type": "uint256"
        }
      ],
      "name": "getChance",
      "outputs": [
        {
          "internalType": "uint32",
          "name": "",
          "type": "uint32"
        }
      ],
      "stateMutability": "view",
      "type": "function"
    },
    {
      "inputs": [],
      "name": "pickWinner",
      "outputs": [
        {
          "internalType": "uint256",
          "name": "",
          "type": "uint256"
        }
      ],
      "stateMutability": "view",
      "type": "function"
    },
    {
      "inputs": [
        {
          "internalType": "uint256",
          "name": "_attackingTokenId",
          "type": "uint256"
        },
        {
          "internalType": "uint256",
          "name": "_defendingTokenId",
          "type": "uint256"
        }
      ],
      "name": "raidRealm",
      "outputs": [],
      "stateMutability": "nonpayable",
      "type": "function"
    }
  ],
  "transactionHash": "0x96d344b0abbefe4ec110b79dffab7f6e17d75e3cc8025e64db3973d3f5e17d80",
  "args": [],
  "solcInputHash": "d36a8d5db2338d7140f13eb951632a77",
  "bytecode": "0x608060405234801561001057600080fd5b50611fe7806100206000396000f3fe608060405234801561001057600080fd5b50600436106100415760003560e01c80630f3c92f5146100465780635d495aea14610062578063d2004f8c14610080575b600080fd5b610060600480360381019061005b91906114aa565b6100b0565b005b61006a61064d565b6040516100779190611765565b60405180910390f35b61009a600480360381019061009591906114aa565b61065c565b6040516100a791906118d4565b60405180910390f35b8160008060010160009054906101000a900473ffffffffffffffffffffffffffffffffffffffff1690508073ffffffffffffffffffffffffffffffffffffffff16636352211e836040518263ffffffff1660e01b81526004016101139190611765565b60206040518083038186803b15801561012b57600080fd5b505afa15801561013f573d6000803e3d6000fd5b505050506040513d601f19601f820116820180604052508101906101639190611481565b73ffffffffffffffffffffffffffffffffffffffff163373ffffffffffffffffffffffffffffffffffffffff16146101d0576040517f08c379a00000000000000000000000000000000000000000000000000000000081526004016101c790611725565b60405180910390fd5b600080600080600060010160009054906101000a900473ffffffffffffffffffffffffffffffffffffffff16905060008173ffffffffffffffffffffffffffffffffffffffff16636352211e896040518263ffffffff1660e01b81526004016102399190611765565b60206040518083038186803b15801561025157600080fd5b505afa158015610265573d6000803e3d6000fd5b505050506040513d601f19601f820116820180604052508101906102899190611481565b90508073ffffffffffffffffffffffffffffffffffffffff163373ffffffffffffffffffffffffffffffffffffffff1614156102fa576040517f08c379a00000000000000000000000000000000000000000000000000000000081526004016102f190611745565b60405180910390fd5b61030489896106bf565b80955081965082975050505060008060000160008a8152602001908152602001600020905060008060000160008c815260200190815260200160002090508160060160059054906101000a900460ff1660ff168160060160059054906101000a900460ff1660ff1614156103ad576040517f08c379a00000000000000000000000000000000000000000000000000000000081526004016103a490611705565b60405180910390fd5b8615610518576000826005018054905067ffffffffffffffff8111156103fc577f4e487b7100000000000000000000000000000000000000000000000000000000600052604160045260246000fd5b60405190808252806020026020018201604052801561042a5781602001602082028036833780820191505090505b5090506000836005018054905067ffffffffffffffff811115610476577f4e487b7100000000000000000000000000000000000000000000000000000000600052604160045260246000fd5b6040519080825280602002602001820160405280156104a45781602001602082028036833780820191505090505b5090506104b38c6019866109cc565b80925081935050506104c6338383610d2d565b7f192075229ea2954b6d2ac8beb0efd7a0302761bedc79b846809772a2bfba5639888e8e3389600080898960006040516105099a99989796959493929190611780565b60405180910390a15050610640565b7f192075229ea2954b6d2ac8beb0efd7a0302761bedc79b846809772a2bfba5639868c8c33878a60008067ffffffffffffffff811115610581577f4e487b7100000000000000000000000000000000000000000000000000000000600052604160045260246000fd5b6040519080825280602002602001820160405280156105af5781602001602082028036833780820191505090505b50600067ffffffffffffffff8111156105f1577f4e487b7100000000000000000000000000000000000000000000000000000000600052604160045260246000fd5b60405190808252806020026020018201604052801561061f5781602001602082028036833780820191505090505b508e6040516106379a9998979695949392919061182a565b60405180910390a15b5050505050505050505050565b6000610657610dcb565b905090565b6000806000600f016000858152602001908152602001600020905060008060100160008581526020019081526020016000209050600080600001600086815260200190815260200160002090506106b4838383610de6565b935050505092915050565b6000806000806000600f0160008781526020019081526020016000209050600080600f0160008781526020019081526020016000209050600080601001600088815260200190815260200160002090506000806000016000898152602001908152602001600020905060008060008061073788610ee9565b8094508195505050610748866110bc565b8092508193505050600060648461075f9190611c57565b60fa8661076c9190611c57565b8360646107799190611c57565b8561012c6107879190611c57565b89600601600f9054906101000a900460030b6107a39190611a18565b6107ad9190611a18565b6107b79190611a18565b6107c19190611a18565b60648360646107d09190611c57565b8561012c6107de9190611c57565b89600601600f9054906101000a900460030b6107fa9190611a18565b6108049190611a18565b61080e9190611c57565b6108189190611aed565b90508063ffffffff16610829610dcb565b11156108515760018160008163ffffffff1691509b509b509b505050505050505050506109c5565b60028561085e9190611aed565b8960000160008282829054906101000a900463ffffffff166108809190611cc9565b92506101000a81548163ffffffff021916908363ffffffff1602179055506002846108ab9190611aed565b8960000160088282829054906101000a900463ffffffff166108cd9190611cc9565b92506101000a81548163ffffffff021916908363ffffffff1602179055506004856108f89190611aed565b8860000160008282829054906101000a900463ffffffff1661091a9190611a18565b92506101000a81548163ffffffff021916908363ffffffff1602179055506004846109459190611aed565b8860000160088282829054906101000a900463ffffffff166109679190611a18565b92506101000a81548163ffffffff021916908363ffffffff1602179055506000816002866109959190611aed565b6002886109a29190611aed565b6109ac9190611a18565b8163ffffffff1691509b509b509b505050505050505050505b9250925092565b6060806000836005018054905067ffffffffffffffff811115610a18577f4e487b7100000000000000000000000000000000000000000000000000000000600052604160045260246000fd5b604051908082528060200260200182016040528015610a465781602001602082028036833780820191505090505b509050836005018054905067ffffffffffffffff811115610a90577f4e487b7100000000000000000000000000000000000000000000000000000000600052604160045260246000fd5b604051908082528060200260200182016040528015610abe5781602001602082028036833780820191505090505b50915060005b8460050180549050811015610b9a57846008016000866005018381548110610b15577f4e487b7100000000000000000000000000000000000000000000000000000000600052603260045260246000fd5b9060005260206000200154815260200190815260200160002060000160029054906101000a900460ff1660ff16828281518110610b7b577f4e487b7100000000000000000000000000000000000000000000000000000000600052603260045260246000fd5b6020026020010181815250508080610b9290611db1565b915050610ac4565b506000610baa856002015461128f565b90506000610bb7886112b1565b63ffffffff16905060005b8660050180549050811015610ca35760648260648a86888681518110610c11577f4e487b7100000000000000000000000000000000000000000000000000000000600052603260045260246000fd5b6020026020010151610c239190611bfd565b610c2d9190611bfd565b610c379190611abc565b610c419190611bfd565b610c4b9190611abc565b858281518110610c84577f4e487b7100000000000000000000000000000000000000000000000000000000600052603260045260246000fd5b6020026020010181815250508080610c9b90611db1565b915050610bc2565b50610cbf8660020154610cb98860020154611389565b896113c4565b8660020181905550856005018481805480602002602001604051908101604052809291908181526020018280548015610d1757602002820191906000526020600020905b815481526020019060010190808311610d03575b5050505050915094509450505050935093915050565b60008060050160009054906101000a900473ffffffffffffffffffffffffffffffffffffffff1690508073ffffffffffffffffffffffffffffffffffffffff16638edf55bf8585856040518463ffffffff1660e01b8152600401610d93939291906116ad565b600060405180830381600087803b158015610dad57600080fd5b505af1158015610dc1573d6000803e3d6000fd5b5050505050505050565b60006064610dd76113ff565b610de19190611e43565b905090565b6000806000806000610df788610ee9565b8094508195505050610e08876110bc565b80925081935050506000606484610e1f9190611c57565b60fa86610e2c9190611c57565b836064610e399190611c57565b8561012c610e479190611c57565b8a600601600f9054906101000a900460030b610e639190611a18565b610e6d9190611a18565b610e779190611a18565b610e819190611a18565b6064836064610e909190611c57565b8561012c610e9e9190611c57565b8a600601600f9054906101000a900460030b610eba9190611a18565b610ec49190611a18565b610ece9190611c57565b610ed89190611aed565b905080955050505050509392505050565b60008060008060008560000160009054906101000a900463ffffffff1690505b8560000160049054906101000a900463ffffffff168660000160009054906101000a900463ffffffff16610f3d9190611cc9565b63ffffffff168163ffffffff161015610f9c57428660010160008363ffffffff168152602001908152602001600020600101541015610f7b57610f9c565b8280610f8690611dfa565b9350508080610f9490611d87565b915050610f09565b5060008560000160089054906101000a900463ffffffff1690505b85600001600c9054906101000a900463ffffffff168660000160089054906101000a900463ffffffff16610feb9190611cc9565b63ffffffff168163ffffffff16101561104a57428660020160008363ffffffff1681526020019081526020016000206001015410156110295761104a565b818061103490611dfa565b925050808061104290611d87565b915050610fb7565b5061107e8560000160009054906101000a900463ffffffff168660000160049054906101000a900463ffffffff1684611435565b6110b18660000160089054906101000a900463ffffffff1687600001600c9054906101000a900463ffffffff1684611435565b935093505050915091565b60008060008060008560000160009054906101000a900463ffffffff1690505b8560000160049054906101000a900463ffffffff168660000160009054906101000a900463ffffffff166111109190611cc9565b63ffffffff168163ffffffff16101561116f57428660010160008363ffffffff16815260200190815260200160002060010154101561114e5761116f565b828061115990611dfa565b935050808061116790611d87565b9150506110dc565b5060008560000160089054906101000a900463ffffffff1690505b85600001600c9054906101000a900463ffffffff168660000160089054906101000a900463ffffffff166111be9190611cc9565b63ffffffff168163ffffffff16101561121d57428660020160008363ffffffff1681526020019081526020016000206001015410156111fc5761121d565b818061120790611dfa565b925050808061121590611d87565b91505061118a565b506112518560000160009054906101000a900463ffffffff168660000160049054906101000a900463ffffffff1684611435565b6112848660000160089054906101000a900463ffffffff1687600001600c9054906101000a900463ffffffff1684611435565b935093505050915091565b6000610e1082426112a09190611c95565b6112aa9190611abc565b9050919050565b600080600080016000848152602001908152602001600020905060008082600601601b9054906101000a900460030b60030b1215611327576103e8601483600601601b9054906101000a900460030b606461130c9190611b1e565b6113169190611b1e565b6113209190611a52565b905061132c565b600090505b6000816103e860048560070160009054906101000a900460030b6113509190611b1e565b606461135c9190611b1e565b6113669190611a52565b6064611372919061194a565b61137c919061194a565b9050809350505050919050565b600080610e10834261139b9190611c95565b6113a59190611abc565b9050600e8111156113b957809150506113bf565b60009150505b919050565b6000606482610e10856113d79190611bfd565b6113e19190611bfd565b6113eb9190611abc565b846113f691906119c2565b90509392505050565b60004442606460405160200161141793929190611670565b6040516020818303038152906040528051906020012060001c905090565b60008183856114449190611cc9565b61144e9190611cc9565b90509392505050565b60008151905061146681611f83565b92915050565b60008135905061147b81611f9a565b92915050565b60006020828403121561149357600080fd5b60006114a184828501611457565b91505092915050565b600080604083850312156114bd57600080fd5b60006114cb8582860161146c565b92505060206114dc8582860161146c565b9150509250929050565b60006114f28383611606565b60208301905092915050565b61150781611cfd565b82525050565b6000611518826118ff565b6115228185611917565b935061152d836118ef565b8060005b8381101561155e57815161154588826114e6565b97506115508361190a565b925050600181019050611531565b5085935050505092915050565b61157481611d63565b82525050565b6000611587600283611928565b915061159282611edf565b602082019050919050565b60006115aa601683611939565b91506115b582611f08565b602082019050919050565b60006115cd601983611939565b91506115d882611f31565b602082019050919050565b60006115f0601583611939565b91506115fb82611f5a565b602082019050919050565b61160f81611d3c565b82525050565b61161e81611d3c565b82525050565b61163561163082611d3c565b611e27565b82525050565b61164481611d75565b82525050565b61165381611d46565b82525050565b61166a61166582611d56565b611e31565b82525050565b600061167c8286611624565b60208201915061168c8285611624565b60208201915061169c8284611659565b600182019150819050949350505050565b60006080820190506116c260008301866114fe565b81810360208301526116d4818561150d565b905081810360408301526116e8818461150d565b905081810360608301526116fb8161157a565b9050949350505050565b6000602082019050818103600083015261171e8161159d565b9050919050565b6000602082019050818103600083015261173e816115c0565b9050919050565b6000602082019050818103600083015261175e816115e3565b9050919050565b600060208201905061177a6000830184611615565b92915050565b600061014082019050611796600083018d611615565b6117a3602083018c611615565b6117b0604083018b611615565b6117bd606083018a6114fe565b6117ca60808301896114fe565b6117d760a083018861156b565b6117e460c083018761156b565b81810360e08301526117f6818661150d565b905081810361010083015261180b818561150d565b905061181b61012083018461156b565b9b9a5050505050505050505050565b600061014082019050611840600083018d611615565b61184d602083018c611615565b61185a604083018b611615565b611867606083018a6114fe565b61187460808301896114fe565b61188160a083018861163b565b61188e60c083018761156b565b81810360e08301526118a0818661150d565b90508181036101008301526118b5818561150d565b90506118c561012083018461163b565b9b9a5050505050505050505050565b60006020820190506118e9600083018461164a565b92915050565b6000819050602082019050919050565b600081519050919050565b6000602082019050919050565b600082825260208201905092915050565b600082825260208201905092915050565b600082825260208201905092915050565b600061195582611d0f565b915061196083611d0f565b925081637fffffff0383136000831215161561197f5761197e611e74565b5b817fffffffffffffffffffffffffffffffffffffffffffffffffffffffff800000000383126000831216156119b7576119b6611e74565b5b828201905092915050565b60006119cd82611d3c565b91506119d883611d3c565b9250827fffffffffffffffffffffffffffffffffffffffffffffffffffffffffffffffff03821115611a0d57611a0c611e74565b5b828201905092915050565b6000611a2382611d46565b9150611a2e83611d46565b92508263ffffffff03821115611a4757611a46611e74565b5b828201905092915050565b6000611a5d82611d0f565b9150611a6883611d0f565b925082611a7857611a77611ea3565b5b600160000383147fffffffffffffffffffffffffffffffffffffffffffffffffffffffff8000000083141615611ab157611ab0611e74565b5b828205905092915050565b6000611ac782611d3c565b9150611ad283611d3c565b925082611ae257611ae1611ea3565b5b828204905092915050565b6000611af882611d46565b9150611b0383611d46565b925082611b1357611b12611ea3565b5b828204905092915050565b6000611b2982611d0f565b9150611b3483611d0f565b925082637fffffff0482116000841360008413161615611b5757611b56611e74565b5b817fffffffffffffffffffffffffffffffffffffffffffffffffffffffff800000000583126000841260008413161615611b9457611b93611e74565b5b827fffffffffffffffffffffffffffffffffffffffffffffffffffffffff800000000582126000841360008412161615611bd157611bd0611e74565b5b82637fffffff0582126000841260008412161615611bf257611bf1611e74565b5b828202905092915050565b6000611c0882611d3c565b9150611c1383611d3c565b9250817fffffffffffffffffffffffffffffffffffffffffffffffffffffffffffffffff0483118215151615611c4c57611c4b611e74565b5b828202905092915050565b6000611c6282611d46565b9150611c6d83611d46565b92508163ffffffff0483118215151615611c8a57611c89611e74565b5b828202905092915050565b6000611ca082611d3c565b9150611cab83611d3c565b925082821015611cbe57611cbd611e74565b5b828203905092915050565b6000611cd482611d46565b9150611cdf83611d46565b925082821015611cf257611cf1611e74565b5b828203905092915050565b6000611d0882611d1c565b9050919050565b60008160030b9050919050565b600073ffffffffffffffffffffffffffffffffffffffff82169050919050565b6000819050919050565b600063ffffffff82169050919050565b600060ff82169050919050565b6000611d6e82611d3c565b9050919050565b6000611d8082611d46565b9050919050565b6000611d9282611d46565b91506000821415611da657611da5611e74565b5b600182039050919050565b6000611dbc82611d3c565b91507fffffffffffffffffffffffffffffffffffffffffffffffffffffffffffffffff821415611def57611dee611e74565b5b600182019050919050565b6000611e0582611d46565b915063ffffffff821415611e1c57611e1b611e74565b5b600182019050919050565b6000819050919050565b6000611e3c82611ed2565b9050919050565b6000611e4e82611d3c565b9150611e5983611d3c565b925082611e6957611e68611ea3565b5b828206905092915050565b7f4e487b7100000000000000000000000000000000000000000000000000000000600052601160045260246000fd5b7f4e487b7100000000000000000000000000000000000000000000000000000000600052601260045260246000fd5b60008160f81b9050919050565b7f3078000000000000000000000000000000000000000000000000000000000000600082015250565b7f43414e545f41545441434b5f53414d455f4f5244455200000000000000000000600082015250565b7f596f7520646f206e6f74206f776e2074686973205265616c6d00000000000000600082015250565b7f444f4e545f4b494c4c5f594f55525f50454f504c450000000000000000000000600082015250565b611f8c81611cfd565b8114611f9757600080fd5b50565b611fa381611d3c565b8114611fae57600080fd5b5056fea264697066735822122044c66c98fc2de2e6f35390edd60ea0d8dee047502d4860851adcc80169928a6064736f6c63430008030033",
  "devdoc": {
    "kind": "dev",
    "methods": {},
    "version": 1
  },
  "userdoc": {
    "kind": "user",
    "methods": {},
    "version": 1
  },
  "storageLayout": {
    "storage": [
      {
        "astId": 4876,
        "contract": "contracts/settling/facets/RaidingFacet.sol:RaidingFacet",
        "label": "s",
        "offset": 0,
        "slot": "0",
        "type": "t_struct(AppStorage)3822_storage"
      }
    ],
    "types": {
      "t_address": {
        "encoding": "inplace",
        "label": "address",
        "numberOfBytes": "20"
      },
      "t_array(t_uint256)dyn_storage": {
        "base": "t_uint256",
        "encoding": "dynamic_array",
        "label": "uint256[]",
        "numberOfBytes": "32"
      },
      "t_array(t_uint32)dyn_storage": {
        "base": "t_uint32",
        "encoding": "dynamic_array",
        "label": "uint32[]",
        "numberOfBytes": "32"
      },
      "t_array(t_uint8)dyn_storage": {
        "base": "t_uint8",
        "encoding": "dynamic_array",
        "label": "uint8[]",
        "numberOfBytes": "32"
      },
      "t_bool": {
        "encoding": "inplace",
        "label": "bool",
        "numberOfBytes": "1"
      },
      "t_int32": {
        "encoding": "inplace",
        "label": "int32",
        "numberOfBytes": "4"
      },
      "t_mapping(t_uint256,t_struct(ArmyUnit)4007_storage)": {
        "encoding": "mapping",
        "key": "t_uint256",
        "label": "mapping(uint256 => struct ArmyUnit)",
        "numberOfBytes": "32",
        "value": "t_struct(ArmyUnit)4007_storage"
      },
      "t_mapping(t_uint256,t_struct(BuildingCosts)3917_storage)": {
        "encoding": "mapping",
        "key": "t_uint256",
        "label": "mapping(uint256 => struct BuildingCosts)",
        "numberOfBytes": "32",
        "value": "t_struct(BuildingCosts)3917_storage"
      },
      "t_mapping(t_uint256,t_struct(BuildingUpgradeCosts)3926_storage)": {
        "encoding": "mapping",
        "key": "t_uint256",
        "label": "mapping(uint256 => struct BuildingUpgradeCosts)",
        "numberOfBytes": "32",
        "value": "t_struct(BuildingUpgradeCosts)3926_storage"
      },
      "t_mapping(t_uint256,t_struct(DefendingArmy)3987_storage)": {
        "encoding": "mapping",
        "key": "t_uint256",
        "label": "mapping(uint256 => struct DefendingArmy)",
        "numberOfBytes": "32",
        "value": "t_struct(DefendingArmy)3987_storage"
      },
      "t_mapping(t_uint256,t_struct(LevelProduction)3929_storage)": {
        "encoding": "mapping",
        "key": "t_uint256",
        "label": "mapping(uint256 => struct LevelProduction)",
        "numberOfBytes": "32",
        "value": "t_struct(LevelProduction)3929_storage"
      },
      "t_mapping(t_uint256,t_struct(Raiding)3949_storage)": {
        "encoding": "mapping",
        "key": "t_uint256",
        "label": "mapping(uint256 => struct Raiding)",
        "numberOfBytes": "32",
        "value": "t_struct(Raiding)3949_storage"
      },
      "t_mapping(t_uint256,t_struct(RaidingArmy)3968_storage)": {
        "encoding": "mapping",
        "key": "t_uint256",
        "label": "mapping(uint256 => struct RaidingArmy)",
        "numberOfBytes": "32",
        "value": "t_struct(RaidingArmy)3968_storage"
      },
      "t_mapping(t_uint256,t_struct(RealmInfo)3888_storage)": {
        "encoding": "mapping",
        "key": "t_uint256",
        "label": "mapping(uint256 => struct RealmInfo)",
        "numberOfBytes": "32",
        "value": "t_struct(RealmInfo)3888_storage"
      },
      "t_mapping(t_uint256,t_struct(ResourceInfo)3895_storage)": {
        "encoding": "mapping",
        "key": "t_uint256",
        "label": "mapping(uint256 => struct ResourceInfo)",
        "numberOfBytes": "32",
        "value": "t_struct(ResourceInfo)3895_storage"
      },
      "t_mapping(t_uint256,t_struct(TheAges)3829_storage)": {
        "encoding": "mapping",
        "key": "t_uint256",
        "label": "mapping(uint256 => struct TheAges)",
        "numberOfBytes": "32",
        "value": "t_struct(TheAges)3829_storage"
      },
      "t_mapping(t_uint256,t_struct(TrainedArmyUnit)3992_storage)": {
        "encoding": "mapping",
        "key": "t_uint256",
        "label": "mapping(uint256 => struct TrainedArmyUnit)",
        "numberOfBytes": "32",
        "value": "t_struct(TrainedArmyUnit)3992_storage"
      },
      "t_mapping(t_uint256,t_struct(UpgradeCostLevels)3942_storage)": {
        "encoding": "mapping",
        "key": "t_uint256",
        "label": "mapping(uint256 => struct UpgradeCostLevels)",
        "numberOfBytes": "32",
        "value": "t_struct(UpgradeCostLevels)3942_storage"
      },
      "t_mapping(t_uint256,t_struct(UpgradeCosts)3938_storage)": {
        "encoding": "mapping",
        "key": "t_uint256",
        "label": "mapping(uint256 => struct UpgradeCosts)",
        "numberOfBytes": "32",
        "value": "t_struct(UpgradeCosts)3938_storage"
      },
      "t_string_storage": {
        "encoding": "bytes",
        "label": "string",
        "numberOfBytes": "32"
      },
      "t_struct(AppStorage)3822_storage": {
        "encoding": "inplace",
        "label": "struct AppStorage",
        "members": [
          {
            "astId": 3760,
            "contract": "contracts/settling/facets/RaidingFacet.sol:RaidingFacet",
            "label": "realmInfo",
            "offset": 0,
            "slot": "0",
            "type": "t_mapping(t_uint256,t_struct(RealmInfo)3888_storage)"
          },
          {
            "astId": 3762,
            "contract": "contracts/settling/facets/RaidingFacet.sol:RaidingFacet",
            "label": "sRealms",
            "offset": 0,
            "slot": "1",
            "type": "t_address"
          },
          {
            "astId": 3764,
            "contract": "contracts/settling/facets/RaidingFacet.sol:RaidingFacet",
            "label": "realms",
            "offset": 0,
            "slot": "2",
            "type": "t_address"
          },
          {
            "astId": 3766,
            "contract": "contracts/settling/facets/RaidingFacet.sol:RaidingFacet",
            "label": "realmsStorage",
            "offset": 0,
            "slot": "3",
            "type": "t_address"
          },
          {
            "astId": 3768,
            "contract": "contracts/settling/facets/RaidingFacet.sol:RaidingFacet",
            "label": "treasury",
            "offset": 0,
            "slot": "4",
            "type": "t_address"
          },
          {
            "astId": 3770,
            "contract": "contracts/settling/facets/RaidingFacet.sol:RaidingFacet",
            "label": "resources",
            "offset": 0,
            "slot": "5",
            "type": "t_address"
          },
          {
            "astId": 3772,
            "contract": "contracts/settling/facets/RaidingFacet.sol:RaidingFacet",
            "label": "oracle",
            "offset": 0,
            "slot": "6",
            "type": "t_address"
          },
          {
            "astId": 3774,
            "contract": "contracts/settling/facets/RaidingFacet.sol:RaidingFacet",
            "label": "lords",
            "offset": 0,
            "slot": "7",
            "type": "t_address"
          },
          {
            "astId": 3779,
            "contract": "contracts/settling/facets/RaidingFacet.sol:RaidingFacet",
            "label": "levelProduction",
            "offset": 0,
            "slot": "8",
            "type": "t_mapping(t_uint256,t_struct(LevelProduction)3929_storage)"
          },
          {
            "astId": 3784,
            "contract": "contracts/settling/facets/RaidingFacet.sol:RaidingFacet",
            "label": "upgradeCosts",
            "offset": 0,
            "slot": "9",
            "type": "t_mapping(t_uint256,t_struct(UpgradeCosts)3938_storage)"
          },
          {
            "astId": 3789,
            "contract": "contracts/settling/facets/RaidingFacet.sol:RaidingFacet",
            "label": "buildingUpgradeCosts",
            "offset": 0,
            "slot": "10",
            "type": "t_mapping(t_uint256,t_struct(BuildingUpgradeCosts)3926_storage)"
          },
          {
            "astId": 3794,
            "contract": "contracts/settling/facets/RaidingFacet.sol:RaidingFacet",
            "label": "buildingCosts",
            "offset": 0,
            "slot": "11",
            "type": "t_mapping(t_uint256,t_struct(BuildingCosts)3917_storage)"
          },
          {
            "astId": 3799,
            "contract": "contracts/settling/facets/RaidingFacet.sol:RaidingFacet",
            "label": "theAges",
            "offset": 0,
            "slot": "12",
            "type": "t_mapping(t_uint256,t_struct(TheAges)3829_storage)"
          },
          {
            "astId": 3801,
            "contract": "contracts/settling/facets/RaidingFacet.sol:RaidingFacet",
            "label": "genesisTime",
            "offset": 0,
            "slot": "13",
            "type": "t_uint256"
          },
          {
            "astId": 3806,
            "contract": "contracts/settling/facets/RaidingFacet.sol:RaidingFacet",
            "label": "raiding",
            "offset": 0,
            "slot": "14",
            "type": "t_mapping(t_uint256,t_struct(Raiding)3949_storage)"
          },
          {
            "astId": 3811,
            "contract": "contracts/settling/facets/RaidingFacet.sol:RaidingFacet",
            "label": "raidingArmy",
            "offset": 0,
            "slot": "15",
            "type": "t_mapping(t_uint256,t_struct(RaidingArmy)3968_storage)"
          },
          {
            "astId": 3816,
            "contract": "contracts/settling/facets/RaidingFacet.sol:RaidingFacet",
            "label": "defendingArmy",
            "offset": 0,
            "slot": "16",
            "type": "t_mapping(t_uint256,t_struct(DefendingArmy)3987_storage)"
          },
          {
            "astId": 3821,
            "contract": "contracts/settling/facets/RaidingFacet.sol:RaidingFacet",
            "label": "armyUnit",
            "offset": 0,
            "slot": "17",
            "type": "t_mapping(t_uint256,t_struct(ArmyUnit)4007_storage)"
          }
        ],
        "numberOfBytes": "576"
      },
      "t_struct(ArmyUnit)4007_storage": {
        "encoding": "inplace",
        "label": "struct ArmyUnit",
        "members": [
          {
            "astId": 3994,
            "contract": "contracts/settling/facets/RaidingFacet.sol:RaidingFacet",
            "label": "name",
            "offset": 0,
            "slot": "0",
            "type": "t_string_storage"
          },
          {
            "astId": 3996,
            "contract": "contracts/settling/facets/RaidingFacet.sol:RaidingFacet",
            "label": "timeToTrain",
            "offset": 0,
            "slot": "1",
            "type": "t_uint256"
          },
          {
            "astId": 3998,
            "contract": "contracts/settling/facets/RaidingFacet.sol:RaidingFacet",
            "label": "offence",
            "offset": 0,
            "slot": "2",
            "type": "t_uint32"
          },
          {
            "astId": 4000,
            "contract": "contracts/settling/facets/RaidingFacet.sol:RaidingFacet",
            "label": "defence",
            "offset": 4,
            "slot": "2",
            "type": "t_uint32"
          },
          {
            "astId": 4003,
            "contract": "contracts/settling/facets/RaidingFacet.sol:RaidingFacet",
            "label": "resourceIds",
            "offset": 0,
            "slot": "3",
            "type": "t_array(t_uint256)dyn_storage"
          },
          {
            "astId": 4006,
            "contract": "contracts/settling/facets/RaidingFacet.sol:RaidingFacet",
            "label": "resourceValues",
            "offset": 0,
            "slot": "4",
            "type": "t_array(t_uint256)dyn_storage"
          }
        ],
        "numberOfBytes": "160"
      },
      "t_struct(BuildingCosts)3917_storage": {
        "encoding": "inplace",
        "label": "struct BuildingCosts",
        "members": [
          {
            "astId": 3897,
            "contract": "contracts/settling/facets/RaidingFacet.sol:RaidingFacet",
            "label": "name",
            "offset": 0,
            "slot": "0",
            "type": "t_string_storage"
          },
          {
            "astId": 3900,
            "contract": "contracts/settling/facets/RaidingFacet.sol:RaidingFacet",
            "label": "resourceIds",
            "offset": 0,
            "slot": "1",
            "type": "t_array(t_uint32)dyn_storage"
          },
          {
            "astId": 3903,
            "contract": "contracts/settling/facets/RaidingFacet.sol:RaidingFacet",
            "label": "resourceValues",
            "offset": 0,
            "slot": "2",
            "type": "t_array(t_uint32)dyn_storage"
          },
          {
            "astId": 3906,
            "contract": "contracts/settling/facets/RaidingFacet.sol:RaidingFacet",
            "label": "requirements",
            "offset": 0,
            "slot": "3",
            "type": "t_array(t_uint32)dyn_storage"
          },
          {
            "astId": 3908,
            "contract": "contracts/settling/facets/RaidingFacet.sol:RaidingFacet",
            "label": "defence",
            "offset": 0,
            "slot": "4",
            "type": "t_int32"
          },
          {
            "astId": 3910,
            "contract": "contracts/settling/facets/RaidingFacet.sol:RaidingFacet",
            "label": "offence",
            "offset": 4,
            "slot": "4",
            "type": "t_int32"
          },
          {
            "astId": 3912,
            "contract": "contracts/settling/facets/RaidingFacet.sol:RaidingFacet",
            "label": "magic",
            "offset": 8,
            "slot": "4",
            "type": "t_int32"
          },
          {
            "astId": 3914,
            "contract": "contracts/settling/facets/RaidingFacet.sol:RaidingFacet",
            "label": "population",
            "offset": 12,
            "slot": "4",
            "type": "t_int32"
          },
          {
            "astId": 3916,
            "contract": "contracts/settling/facets/RaidingFacet.sol:RaidingFacet",
            "label": "food",
            "offset": 16,
            "slot": "4",
            "type": "t_int32"
          }
        ],
        "numberOfBytes": "160"
      },
      "t_struct(BuildingUpgradeCosts)3926_storage": {
        "encoding": "inplace",
        "label": "struct BuildingUpgradeCosts",
        "members": [
          {
            "astId": 3920,
            "contract": "contracts/settling/facets/RaidingFacet.sol:RaidingFacet",
            "label": "realmBuildings",
            "offset": 0,
            "slot": "0",
            "type": "t_array(t_uint8)dyn_storage"
          },
          {
            "astId": 3925,
            "contract": "contracts/settling/facets/RaidingFacet.sol:RaidingFacet",
            "label": "buildingCosts",
            "offset": 0,
            "slot": "1",
            "type": "t_mapping(t_uint256,t_struct(BuildingCosts)3917_storage)"
          }
        ],
        "numberOfBytes": "64"
      },
      "t_struct(DefendingArmy)3987_storage": {
        "encoding": "inplace",
        "label": "struct DefendingArmy",
        "members": [
          {
            "astId": 3970,
            "contract": "contracts/settling/facets/RaidingFacet.sol:RaidingFacet",
            "label": "trebuchetsTrained",
            "offset": 0,
            "slot": "0",
            "type": "t_uint32"
          },
          {
            "astId": 3972,
            "contract": "contracts/settling/facets/RaidingFacet.sol:RaidingFacet",
            "label": "trebuchetsSlayed",
            "offset": 4,
            "slot": "0",
            "type": "t_uint32"
          },
          {
            "astId": 3974,
            "contract": "contracts/settling/facets/RaidingFacet.sol:RaidingFacet",
            "label": "scorpionsTrained",
            "offset": 8,
            "slot": "0",
            "type": "t_uint32"
          },
          {
            "astId": 3976,
            "contract": "contracts/settling/facets/RaidingFacet.sol:RaidingFacet",
            "label": "scorpionsSlayed",
            "offset": 12,
            "slot": "0",
            "type": "t_uint32"
          },
          {
            "astId": 3981,
            "contract": "contracts/settling/facets/RaidingFacet.sol:RaidingFacet",
            "label": "trebuchets",
            "offset": 0,
            "slot": "1",
            "type": "t_mapping(t_uint256,t_struct(TrainedArmyUnit)3992_storage)"
          },
          {
            "astId": 3986,
            "contract": "contracts/settling/facets/RaidingFacet.sol:RaidingFacet",
            "label": "scorpions",
            "offset": 0,
            "slot": "2",
            "type": "t_mapping(t_uint256,t_struct(TrainedArmyUnit)3992_storage)"
          }
        ],
        "numberOfBytes": "96"
      },
      "t_struct(LevelProduction)3929_storage": {
        "encoding": "inplace",
        "label": "struct LevelProduction",
        "members": [
          {
            "astId": 3928,
            "contract": "contracts/settling/facets/RaidingFacet.sol:RaidingFacet",
            "label": "output",
            "offset": 0,
            "slot": "0",
            "type": "t_uint8"
          }
        ],
        "numberOfBytes": "32"
      },
      "t_struct(Raiding)3949_storage": {
        "encoding": "inplace",
        "label": "struct Raiding",
        "members": [
          {
            "astId": 3944,
            "contract": "contracts/settling/facets/RaidingFacet.sol:RaidingFacet",
            "label": "coolDownTime",
            "offset": 0,
            "slot": "0",
            "type": "t_uint256"
          },
          {
            "astId": 3946,
            "contract": "contracts/settling/facets/RaidingFacet.sol:RaidingFacet",
            "label": "totalRaids",
            "offset": 0,
            "slot": "1",
            "type": "t_uint256"
          },
          {
            "astId": 3948,
            "contract": "contracts/settling/facets/RaidingFacet.sol:RaidingFacet",
            "label": "successfulRaids",
            "offset": 0,
            "slot": "2",
            "type": "t_uint256"
          }
        ],
        "numberOfBytes": "96"
      },
      "t_struct(RaidingArmy)3968_storage": {
        "encoding": "inplace",
        "label": "struct RaidingArmy",
        "members": [
          {
            "astId": 3951,
            "contract": "contracts/settling/facets/RaidingFacet.sol:RaidingFacet",
            "label": "knightsTrained",
            "offset": 0,
            "slot": "0",
            "type": "t_uint32"
          },
          {
            "astId": 3953,
            "contract": "contracts/settling/facets/RaidingFacet.sol:RaidingFacet",
            "label": "knightsSlayed",
            "offset": 4,
            "slot": "0",
            "type": "t_uint32"
          },
          {
            "astId": 3955,
            "contract": "contracts/settling/facets/RaidingFacet.sol:RaidingFacet",
            "label": "footSoldiersTrained",
            "offset": 8,
            "slot": "0",
            "type": "t_uint32"
          },
          {
            "astId": 3957,
            "contract": "contracts/settling/facets/RaidingFacet.sol:RaidingFacet",
            "label": "footSoldiersSlayed",
            "offset": 12,
            "slot": "0",
            "type": "t_uint32"
          },
          {
            "astId": 3962,
            "contract": "contracts/settling/facets/RaidingFacet.sol:RaidingFacet",
            "label": "knights",
            "offset": 0,
            "slot": "1",
            "type": "t_mapping(t_uint256,t_struct(TrainedArmyUnit)3992_storage)"
          },
          {
            "astId": 3967,
            "contract": "contracts/settling/facets/RaidingFacet.sol:RaidingFacet",
            "label": "footSoldiers",
            "offset": 0,
            "slot": "2",
            "type": "t_mapping(t_uint256,t_struct(TrainedArmyUnit)3992_storage)"
          }
        ],
        "numberOfBytes": "96"
      },
      "t_struct(RealmInfo)3888_storage": {
        "encoding": "inplace",
        "label": "struct RealmInfo",
        "members": [
          {
            "astId": 3831,
            "contract": "contracts/settling/facets/RaidingFacet.sol:RaidingFacet",
            "label": "name",
            "offset": 0,
            "slot": "0",
            "type": "t_string_storage"
          },
          {
            "astId": 3833,
            "contract": "contracts/settling/facets/RaidingFacet.sol:RaidingFacet",
            "label": "lastUpdateAt",
            "offset": 0,
            "slot": "1",
            "type": "t_uint256"
          },
          {
            "astId": 3835,
            "contract": "contracts/settling/facets/RaidingFacet.sol:RaidingFacet",
            "label": "vestedTimeUpdatedAt",
            "offset": 0,
            "slot": "2",
            "type": "t_uint256"
          },
          {
            "astId": 3837,
            "contract": "contracts/settling/facets/RaidingFacet.sol:RaidingFacet",
            "label": "ageSettled",
            "offset": 0,
            "slot": "3",
            "type": "t_uint256"
          },
          {
            "astId": 3839,
            "contract": "contracts/settling/facets/RaidingFacet.sol:RaidingFacet",
            "label": "ageClaimed",
            "offset": 0,
            "slot": "4",
            "type": "t_uint256"
          },
          {
            "astId": 3842,
            "contract": "contracts/settling/facets/RaidingFacet.sol:RaidingFacet",
            "label": "resourceIds",
            "offset": 0,
            "slot": "5",
            "type": "t_array(t_uint256)dyn_storage"
          },
          {
            "astId": 3844,
            "contract": "contracts/settling/facets/RaidingFacet.sol:RaidingFacet",
            "label": "cities",
            "offset": 0,
            "slot": "6",
            "type": "t_uint8"
          },
          {
            "astId": 3846,
            "contract": "contracts/settling/facets/RaidingFacet.sol:RaidingFacet",
            "label": "harbours",
            "offset": 1,
            "slot": "6",
            "type": "t_uint8"
          },
          {
            "astId": 3848,
            "contract": "contracts/settling/facets/RaidingFacet.sol:RaidingFacet",
            "label": "rivers",
            "offset": 2,
            "slot": "6",
            "type": "t_uint8"
          },
          {
            "astId": 3850,
            "contract": "contracts/settling/facets/RaidingFacet.sol:RaidingFacet",
            "label": "regions",
            "offset": 3,
            "slot": "6",
            "type": "t_uint8"
          },
          {
            "astId": 3852,
            "contract": "contracts/settling/facets/RaidingFacet.sol:RaidingFacet",
            "label": "wonders",
            "offset": 4,
            "slot": "6",
            "type": "t_uint8"
          },
          {
            "astId": 3854,
            "contract": "contracts/settling/facets/RaidingFacet.sol:RaidingFacet",
            "label": "orderOf",
            "offset": 5,
            "slot": "6",
            "type": "t_uint8"
          },
          {
            "astId": 3856,
            "contract": "contracts/settling/facets/RaidingFacet.sol:RaidingFacet",
            "label": "aquaducts",
            "offset": 6,
            "slot": "6",
            "type": "t_uint8"
          },
          {
            "astId": 3858,
            "contract": "contracts/settling/facets/RaidingFacet.sol:RaidingFacet",
            "label": "temples",
            "offset": 7,
            "slot": "6",
            "type": "t_uint8"
          },
          {
            "astId": 3860,
            "contract": "contracts/settling/facets/RaidingFacet.sol:RaidingFacet",
            "label": "castles",
            "offset": 8,
            "slot": "6",
            "type": "t_uint8"
          },
          {
            "astId": 3862,
            "contract": "contracts/settling/facets/RaidingFacet.sol:RaidingFacet",
            "label": "markets",
            "offset": 9,
            "slot": "6",
            "type": "t_uint8"
          },
          {
            "astId": 3864,
            "contract": "contracts/settling/facets/RaidingFacet.sol:RaidingFacet",
            "label": "ports",
            "offset": 10,
            "slot": "6",
            "type": "t_uint8"
          },
          {
            "astId": 3866,
            "contract": "contracts/settling/facets/RaidingFacet.sol:RaidingFacet",
            "label": "barracks",
            "offset": 11,
            "slot": "6",
            "type": "t_uint8"
          },
          {
            "astId": 3868,
            "contract": "contracts/settling/facets/RaidingFacet.sol:RaidingFacet",
            "label": "farms",
            "offset": 12,
            "slot": "6",
            "type": "t_uint8"
          },
          {
            "astId": 3870,
            "contract": "contracts/settling/facets/RaidingFacet.sol:RaidingFacet",
            "label": "shipyard",
            "offset": 13,
            "slot": "6",
            "type": "t_uint8"
          },
          {
            "astId": 3872,
            "contract": "contracts/settling/facets/RaidingFacet.sol:RaidingFacet",
            "label": "fishingVillage",
            "offset": 14,
            "slot": "6",
            "type": "t_uint8"
          },
          {
            "astId": 3874,
            "contract": "contracts/settling/facets/RaidingFacet.sol:RaidingFacet",
            "label": "realmDefence",
            "offset": 15,
            "slot": "6",
            "type": "t_int32"
          },
          {
            "astId": 3876,
            "contract": "contracts/settling/facets/RaidingFacet.sol:RaidingFacet",
            "label": "realmOffence",
            "offset": 19,
            "slot": "6",
            "type": "t_int32"
          },
          {
            "astId": 3878,
            "contract": "contracts/settling/facets/RaidingFacet.sol:RaidingFacet",
            "label": "realmMagic",
            "offset": 23,
            "slot": "6",
            "type": "t_int32"
          },
          {
            "astId": 3880,
            "contract": "contracts/settling/facets/RaidingFacet.sol:RaidingFacet",
            "label": "foodSupply",
            "offset": 27,
            "slot": "6",
            "type": "t_int32"
          },
          {
            "astId": 3882,
            "contract": "contracts/settling/facets/RaidingFacet.sol:RaidingFacet",
            "label": "population",
            "offset": 0,
            "slot": "7",
            "type": "t_int32"
          },
          {
            "astId": 3887,
            "contract": "contracts/settling/facets/RaidingFacet.sol:RaidingFacet",
            "label": "resourceInfo",
            "offset": 0,
            "slot": "8",
            "type": "t_mapping(t_uint256,t_struct(ResourceInfo)3895_storage)"
          }
        ],
        "numberOfBytes": "288"
      },
      "t_struct(ResourceInfo)3895_storage": {
        "encoding": "inplace",
        "label": "struct ResourceInfo",
        "members": [
          {
            "astId": 3890,
            "contract": "contracts/settling/facets/RaidingFacet.sol:RaidingFacet",
            "label": "id",
            "offset": 0,
            "slot": "0",
            "type": "t_uint8"
          },
          {
            "astId": 3892,
            "contract": "contracts/settling/facets/RaidingFacet.sol:RaidingFacet",
            "label": "level",
            "offset": 1,
            "slot": "0",
            "type": "t_uint8"
          },
          {
            "astId": 3894,
            "contract": "contracts/settling/facets/RaidingFacet.sol:RaidingFacet",
            "label": "production",
            "offset": 2,
            "slot": "0",
            "type": "t_uint8"
          }
        ],
        "numberOfBytes": "32"
      },
      "t_struct(TheAges)3829_storage": {
        "encoding": "inplace",
        "label": "struct TheAges",
        "members": [
          {
            "astId": 3824,
            "contract": "contracts/settling/facets/RaidingFacet.sol:RaidingFacet",
            "label": "settledRealms",
            "offset": 0,
            "slot": "0",
            "type": "t_uint256"
          },
          {
            "astId": 3826,
            "contract": "contracts/settling/facets/RaidingFacet.sol:RaidingFacet",
            "label": "ageStart",
            "offset": 0,
            "slot": "1",
            "type": "t_uint256"
          },
          {
            "astId": 3828,
            "contract": "contracts/settling/facets/RaidingFacet.sol:RaidingFacet",
            "label": "ageFinish",
            "offset": 0,
            "slot": "2",
            "type": "t_uint256"
          }
        ],
        "numberOfBytes": "96"
      },
      "t_struct(TrainedArmyUnit)3992_storage": {
        "encoding": "inplace",
        "label": "struct TrainedArmyUnit",
        "members": [
          {
            "astId": 3989,
            "contract": "contracts/settling/facets/RaidingFacet.sol:RaidingFacet",
            "label": "destroyed",
            "offset": 0,
            "slot": "0",
            "type": "t_bool"
          },
          {
            "astId": 3991,
            "contract": "contracts/settling/facets/RaidingFacet.sol:RaidingFacet",
            "label": "unitFinished",
            "offset": 0,
            "slot": "1",
            "type": "t_uint256"
          }
        ],
        "numberOfBytes": "64"
      },
      "t_struct(UpgradeCostLevels)3942_storage": {
        "encoding": "inplace",
        "label": "struct UpgradeCostLevels",
        "members": [
          {
            "astId": 3941,
            "contract": "contracts/settling/facets/RaidingFacet.sol:RaidingFacet",
            "label": "value",
            "offset": 0,
            "slot": "0",
            "type": "t_array(t_uint256)dyn_storage"
          }
        ],
        "numberOfBytes": "32"
      },
      "t_struct(UpgradeCosts)3938_storage": {
        "encoding": "inplace",
        "label": "struct UpgradeCosts",
        "members": [
          {
            "astId": 3932,
            "contract": "contracts/settling/facets/RaidingFacet.sol:RaidingFacet",
            "label": "resourceIds",
            "offset": 0,
            "slot": "0",
            "type": "t_array(t_uint8)dyn_storage"
          },
          {
            "astId": 3937,
            "contract": "contracts/settling/facets/RaidingFacet.sol:RaidingFacet",
            "label": "upgradeCostLevels",
            "offset": 0,
            "slot": "1",
            "type": "t_mapping(t_uint256,t_struct(UpgradeCostLevels)3942_storage)"
          }
        ],
        "numberOfBytes": "64"
      },
      "t_uint256": {
        "encoding": "inplace",
        "label": "uint256",
        "numberOfBytes": "32"
      },
      "t_uint32": {
        "encoding": "inplace",
        "label": "uint32",
        "numberOfBytes": "4"
      },
      "t_uint8": {
        "encoding": "inplace",
        "label": "uint8",
        "numberOfBytes": "1"
      }
    }
  }
}