{
  "address": "0x51625BcA34826ceA1501A51470A0bB5B8c864c68",
  "abi": [
    {
      "anonymous": false,
      "inputs": [
        {
          "indexed": false,
          "internalType": "uint256",
          "name": "attackingRealm",
          "type": "uint256"
        },
        {
          "indexed": false,
          "internalType": "uint256",
          "name": "defendingRealm",
          "type": "uint256"
        },
        {
          "indexed": false,
          "internalType": "address",
          "name": "attackerAddress",
          "type": "address"
        },
        {
          "indexed": false,
          "internalType": "address",
          "name": "defenderAddress",
          "type": "address"
        },
        {
          "indexed": false,
          "internalType": "uint256",
          "name": "raidingUnitsLost",
          "type": "uint256"
        },
        {
          "indexed": false,
          "internalType": "uint256",
          "name": "defendingUnitsLost",
          "type": "uint256"
        },
        {
          "indexed": false,
          "internalType": "uint256[]",
          "name": "resourcesIdsPillaged",
          "type": "uint256[]"
        },
        {
          "indexed": false,
          "internalType": "uint256[]",
          "name": "resourcesValuesPillaged",
          "type": "uint256[]"
        },
        {
          "indexed": false,
          "internalType": "uint256",
          "name": "unitsCaptured",
          "type": "uint256"
        }
      ],
      "name": "RaidResult",
      "type": "event"
    },
    {
      "inputs": [],
      "name": "pickWinner",
      "outputs": [
        {
          "internalType": "uint256",
          "name": "",
          "type": "uint256"
        }
      ],
      "stateMutability": "view",
      "type": "function"
    },
    {
      "inputs": [
        {
          "internalType": "uint256",
          "name": "_attackingTokenId",
          "type": "uint256"
        },
        {
          "internalType": "uint256",
          "name": "_defendingTokenId",
          "type": "uint256"
        }
      ],
      "name": "raidRealm",
      "outputs": [],
      "stateMutability": "nonpayable",
      "type": "function"
    }
  ],
  "transactionHash": "0x426191995af25a0410391bcbf71951654a5d520fddaad6604e9c2679ac248465",
  "args": [],
  "solcInputHash": "98b0a17bb6e063f274fd2fdf87a19c52",
  "bytecode": "0x608060405234801561001057600080fd5b5061171b806100206000396000f3fe608060405234801561001057600080fd5b50600436106100365760003560e01c80630f3c92f51461003b5780635d495aea14610057575b600080fd5b61005560048036038101906100509190610df8565b610075565b005b61005f610572565b60405161006c919061100f565b60405180910390f35b8160008060010160009054906101000a900473ffffffffffffffffffffffffffffffffffffffff1690508073ffffffffffffffffffffffffffffffffffffffff16636352211e836040518263ffffffff1660e01b81526004016100d8919061100f565b60206040518083038186803b1580156100f057600080fd5b505afa158015610104573d6000803e3d6000fd5b505050506040513d601f19601f820116820180604052508101906101289190610dcf565b73ffffffffffffffffffffffffffffffffffffffff163373ffffffffffffffffffffffffffffffffffffffff1614610195576040517f08c379a000000000000000000000000000000000000000000000000000000000815260040161018c90610fef565b60405180910390fd5b600080600080600060010160009054906101000a900473ffffffffffffffffffffffffffffffffffffffff16905060008173ffffffffffffffffffffffffffffffffffffffff16636352211e896040518263ffffffff1660e01b81526004016101fe919061100f565b60206040518083038186803b15801561021657600080fd5b505afa15801561022a573d6000803e3d6000fd5b505050506040513d601f19601f8201168201806040525081019061024e9190610dcf565b905061025a8989610581565b80955081965082975050505084156103e65760008060000160008a815260200190815260200160002090506000816005018054905067ffffffffffffffff8111156102ce577f4e487b7100000000000000000000000000000000000000000000000000000000600052604160045260246000fd5b6040519080825280602002602001820160405280156102fc5781602001602082028036833780820191505090505b5090506000826005018054905067ffffffffffffffff811115610348577f4e487b7100000000000000000000000000000000000000000000000000000000600052604160045260246000fd5b6040519080825280602002602001820160405280156103765781602001602082028036833780820191505090505b5090506103848b6032610787565b8092508193505050610397338383610b24565b7f6678e7114f44f87317726cb728842e4eef1b40c5b2ece628d335360c8c6e52588c8c33878a8b88888e6040516103d69998979695949392919061102a565b60405180910390a1505050610567565b600080600f0160008a81526020019081526020016000209050838160000160008282829054906101000a900463ffffffff1661042291906111ee565b92506101000a81548163ffffffff021916908363ffffffff1602179055507f6678e7114f44f87317726cb728842e4eef1b40c5b2ece628d335360c8c6e52588a8a33858889600067ffffffffffffffff8111156104a8577f4e487b7100000000000000000000000000000000000000000000000000000000600052604160045260246000fd5b6040519080825280602002602001820160405280156104d65781602001602082028036833780820191505090505b50600067ffffffffffffffff811115610518577f4e487b7100000000000000000000000000000000000000000000000000000000600052604160045260246000fd5b6040519080825280602002602001820160405280156105465781602001602082028036833780820191505090505b508c60405161055d9998979695949392919061102a565b60405180910390a1505b505050505050505050565b600061057c610bc2565b905090565b6000806000806000600f01600087815260200190815260200160002090506000808260000160009054906101000a900463ffffffff1690505b8260000160049054906101000a900463ffffffff168360000160009054906101000a900463ffffffff166105ee9190611461565b63ffffffff168163ffffffff16101561064d57428360010160008363ffffffff16815260200190815260200160002060010154101561062c5761064d565b818061063790611580565b92505080806106459061150d565b9150506105ba565b506000818360000160049054906101000a900463ffffffff168460000160009054906101000a900463ffffffff166106859190611461565b61068f9190611461565b90506000806000016000898152602001908152602001600020905060008282600601600f9054906101000a900460030b6106c991906111ee565b606483600601600f9054906101000a900460030b6106e791906112f4565b6106f191906112c3565b90508063ffffffff16610702610bc2565b11156107265760018160008163ffffffff1691509750975097505050505050610780565b828560000160008282829054906101000a900463ffffffff166107499190611461565b92506101000a81548163ffffffff021916908363ffffffff160217905550600081848163ffffffff16915097509750975050505050505b9250925092565b606080600080600001600086815260200190815260200160002090506000816005018054905067ffffffffffffffff8111156107ec577f4e487b7100000000000000000000000000000000000000000000000000000000600052604160045260246000fd5b60405190808252806020026020018201604052801561081a5781602001602082028036833780820191505090505b509050816005018054905067ffffffffffffffff811115610864577f4e487b7100000000000000000000000000000000000000000000000000000000600052604160045260246000fd5b6040519080825280602002602001820160405280156108925781602001602082028036833780820191505090505b50925060005b826005018054905081101561096e578260080160008460050183815481106108e9577f4e487b7100000000000000000000000000000000000000000000000000000000600052603260045260246000fd5b9060005260206000200154815260200190815260200160002060000160029054906101000a900460ff1660ff1682828151811061094f577f4e487b7100000000000000000000000000000000000000000000000000000000600052603260045260246000fd5b602002602001018181525050808061096690611537565b915050610898565b50600061097e8360020154610bdd565b9050600061098b88610bff565b63ffffffff16905060005b8460050180549050811015610a775760648260648a868886815181106109e5577f4e487b7100000000000000000000000000000000000000000000000000000000600052603260045260246000fd5b60200260200101516109f791906113d3565b610a0191906113d3565b610a0b9190611292565b610a1591906113d3565b610a1f9190611292565b868281518110610a58577f4e487b7100000000000000000000000000000000000000000000000000000000600052603260045260246000fd5b6020026020010181815250508080610a6f90611537565b915050610996565b50610a938460010154610a8d8660010154610cd7565b89610cf9565b8460010181905550610ab68460020154610ab08660020154610d34565b89610cf9565b8460020181905550836005018581805480602002602001604051908101604052809291908181526020018280548015610b0e57602002820191906000526020600020905b815481526020019060010190808311610afa575b5050505050915095509550505050509250929050565b60008060050160009054906101000a900473ffffffffffffffffffffffffffffffffffffffff1690508073ffffffffffffffffffffffffffffffffffffffff16638edf55bf8585856040518463ffffffff1660e01b8152600401610b8a93929190610f97565b600060405180830381600087803b158015610ba457600080fd5b505af1158015610bb8573d6000803e3d6000fd5b5050505050505050565b60006064610bce610d6f565b610bd891906115c9565b905090565b6000610e108242610bee919061142d565b610bf89190611292565b9050919050565b600080600080016000848152602001908152602001600020905060008082600601601b9054906101000a900460030b60030b1215610c75576103e8601483600601601b9054906101000a900460030b6064610c5a91906112f4565b610c6491906112f4565b610c6e9190611228565b9050610c7a565b600090505b6000816103e860048560070160009054906101000a900460030b610c9e91906112f4565b6064610caa91906112f4565b610cb49190611228565b6064610cc09190611120565b610cca9190611120565b9050809350505050919050565b6000610e108242610ce8919061142d565b610cf29190611292565b9050919050565b6000606482610e1085610d0c91906113d3565b610d1691906113d3565b610d209190611292565b84610d2b9190611198565b90509392505050565b600080610e108342610d46919061142d565b610d509190611292565b9050600e811115610d645780915050610d6a565b60009150505b919050565b600044426064604051602001610d8793929190610f5a565b6040516020818303038152906040528051906020012060001c905090565b600081519050610db4816116b7565b92915050565b600081359050610dc9816116ce565b92915050565b600060208284031215610de157600080fd5b6000610def84828501610da5565b91505092915050565b60008060408385031215610e0b57600080fd5b6000610e1985828601610dba565b9250506020610e2a85828601610dba565b9150509250929050565b6000610e408383610eff565b60208301905092915050565b610e5581611495565b82525050565b6000610e66826110d5565b610e7081856110ed565b9350610e7b836110c5565b8060005b83811015610eac578151610e938882610e34565b9750610e9e836110e0565b925050600181019050610e7f565b5085935050505092915050565b6000610ec66002836110fe565b9150610ed182611665565b602082019050919050565b6000610ee960198361110f565b9150610ef48261168e565b602082019050919050565b610f08816114d4565b82525050565b610f17816114d4565b82525050565b610f2e610f29826114d4565b6115ad565b82525050565b610f3d816114fb565b82525050565b610f54610f4f826114ee565b6115b7565b82525050565b6000610f668286610f1d565b602082019150610f768285610f1d565b602082019150610f868284610f43565b600182019150819050949350505050565b6000608082019050610fac6000830186610e4c565b8181036020830152610fbe8185610e5b565b90508181036040830152610fd28184610e5b565b90508181036060830152610fe581610eb9565b9050949350505050565b6000602082019050818103600083015261100881610edc565b9050919050565b60006020820190506110246000830184610f0e565b92915050565b600061012082019050611040600083018c610f0e565b61104d602083018b610f0e565b61105a604083018a610e4c565b6110676060830189610e4c565b6110746080830188610f34565b61108160a0830187610f34565b81810360c08301526110938186610e5b565b905081810360e08301526110a78185610e5b565b90506110b7610100830184610f34565b9a9950505050505050505050565b6000819050602082019050919050565b600081519050919050565b6000602082019050919050565b600082825260208201905092915050565b600082825260208201905092915050565b600082825260208201905092915050565b600061112b826114a7565b9150611136836114a7565b925081637fffffff03831360008312151615611155576111546115fa565b5b817fffffffffffffffffffffffffffffffffffffffffffffffffffffffff8000000003831260008312161561118d5761118c6115fa565b5b828201905092915050565b60006111a3826114d4565b91506111ae836114d4565b9250827fffffffffffffffffffffffffffffffffffffffffffffffffffffffffffffffff038211156111e3576111e26115fa565b5b828201905092915050565b60006111f9826114de565b9150611204836114de565b92508263ffffffff0382111561121d5761121c6115fa565b5b828201905092915050565b6000611233826114a7565b915061123e836114a7565b92508261124e5761124d611629565b5b600160000383147fffffffffffffffffffffffffffffffffffffffffffffffffffffffff8000000083141615611287576112866115fa565b5b828205905092915050565b600061129d826114d4565b91506112a8836114d4565b9250826112b8576112b7611629565b5b828204905092915050565b60006112ce826114de565b91506112d9836114de565b9250826112e9576112e8611629565b5b828204905092915050565b60006112ff826114a7565b915061130a836114a7565b925082637fffffff048211600084136000841316161561132d5761132c6115fa565b5b817fffffffffffffffffffffffffffffffffffffffffffffffffffffffff80000000058312600084126000841316161561136a576113696115fa565b5b827fffffffffffffffffffffffffffffffffffffffffffffffffffffffff8000000005821260008413600084121616156113a7576113a66115fa565b5b82637fffffff05821260008412600084121616156113c8576113c76115fa565b5b828202905092915050565b60006113de826114d4565b91506113e9836114d4565b9250817fffffffffffffffffffffffffffffffffffffffffffffffffffffffffffffffff0483118215151615611422576114216115fa565b5b828202905092915050565b6000611438826114d4565b9150611443836114d4565b925082821015611456576114556115fa565b5b828203905092915050565b600061146c826114de565b9150611477836114de565b92508282101561148a576114896115fa565b5b828203905092915050565b60006114a0826114b4565b9050919050565b60008160030b9050919050565b600073ffffffffffffffffffffffffffffffffffffffff82169050919050565b6000819050919050565b600063ffffffff82169050919050565b600060ff82169050919050565b6000611506826114de565b9050919050565b6000611518826114de565b9150600082141561152c5761152b6115fa565b5b600182039050919050565b6000611542826114d4565b91507fffffffffffffffffffffffffffffffffffffffffffffffffffffffffffffffff821415611575576115746115fa565b5b600182019050919050565b600061158b826114de565b915063ffffffff8214156115a2576115a16115fa565b5b600182019050919050565b6000819050919050565b60006115c282611658565b9050919050565b60006115d4826114d4565b91506115df836114d4565b9250826115ef576115ee611629565b5b828206905092915050565b7f4e487b7100000000000000000000000000000000000000000000000000000000600052601160045260246000fd5b7f4e487b7100000000000000000000000000000000000000000000000000000000600052601260045260246000fd5b60008160f81b9050919050565b7f3078000000000000000000000000000000000000000000000000000000000000600082015250565b7f596f7520646f206e6f74206f776e2074686973205265616c6d00000000000000600082015250565b6116c081611495565b81146116cb57600080fd5b50565b6116d7816114d4565b81146116e257600080fd5b5056fea264697066735822122051a6f38aa04ba3bddcac8ececbdd87afca8b98d730a850b920e3abe99f0d079864736f6c63430008030033",
  "devdoc": {
    "kind": "dev",
    "methods": {},
    "version": 1
  },
  "userdoc": {
    "kind": "user",
    "methods": {},
    "version": 1
  },
  "storageLayout": {
    "storage": [
      {
        "astId": 999,
        "contract": "contracts/settling/facets/RaidingFacet.sol:RaidingFacet",
        "label": "s",
        "offset": 0,
        "slot": "0",
        "type": "t_struct(AppStorage)779_storage"
      }
    ],
    "types": {
      "t_address": {
        "encoding": "inplace",
        "label": "address",
        "numberOfBytes": "20"
      },
      "t_array(t_uint256)dyn_storage": {
        "base": "t_uint256",
        "encoding": "dynamic_array",
        "label": "uint256[]",
        "numberOfBytes": "32"
      },
      "t_array(t_uint32)dyn_storage": {
        "base": "t_uint32",
        "encoding": "dynamic_array",
        "label": "uint32[]",
        "numberOfBytes": "32"
      },
      "t_array(t_uint8)dyn_storage": {
        "base": "t_uint8",
        "encoding": "dynamic_array",
        "label": "uint8[]",
        "numberOfBytes": "32"
      },
      "t_bool": {
        "encoding": "inplace",
        "label": "bool",
        "numberOfBytes": "1"
      },
      "t_int32": {
        "encoding": "inplace",
        "label": "int32",
        "numberOfBytes": "4"
      },
      "t_mapping(t_uint256,t_struct(ArmyUnit)964_storage)": {
        "encoding": "mapping",
        "key": "t_uint256",
        "label": "mapping(uint256 => struct ArmyUnit)",
        "numberOfBytes": "32",
        "value": "t_struct(ArmyUnit)964_storage"
      },
      "t_mapping(t_uint256,t_struct(BuildingCosts)874_storage)": {
        "encoding": "mapping",
        "key": "t_uint256",
        "label": "mapping(uint256 => struct BuildingCosts)",
        "numberOfBytes": "32",
        "value": "t_struct(BuildingCosts)874_storage"
      },
      "t_mapping(t_uint256,t_struct(BuildingUpgradeCosts)883_storage)": {
        "encoding": "mapping",
        "key": "t_uint256",
        "label": "mapping(uint256 => struct BuildingUpgradeCosts)",
        "numberOfBytes": "32",
        "value": "t_struct(BuildingUpgradeCosts)883_storage"
      },
      "t_mapping(t_uint256,t_struct(DefendingArmy)944_storage)": {
        "encoding": "mapping",
        "key": "t_uint256",
        "label": "mapping(uint256 => struct DefendingArmy)",
        "numberOfBytes": "32",
        "value": "t_struct(DefendingArmy)944_storage"
      },
      "t_mapping(t_uint256,t_struct(LevelProduction)886_storage)": {
        "encoding": "mapping",
        "key": "t_uint256",
        "label": "mapping(uint256 => struct LevelProduction)",
        "numberOfBytes": "32",
        "value": "t_struct(LevelProduction)886_storage"
      },
      "t_mapping(t_uint256,t_struct(Raiding)906_storage)": {
        "encoding": "mapping",
        "key": "t_uint256",
        "label": "mapping(uint256 => struct Raiding)",
        "numberOfBytes": "32",
        "value": "t_struct(Raiding)906_storage"
      },
      "t_mapping(t_uint256,t_struct(RaidingArmy)925_storage)": {
        "encoding": "mapping",
        "key": "t_uint256",
        "label": "mapping(uint256 => struct RaidingArmy)",
        "numberOfBytes": "32",
        "value": "t_struct(RaidingArmy)925_storage"
      },
      "t_mapping(t_uint256,t_struct(RealmInfo)845_storage)": {
        "encoding": "mapping",
        "key": "t_uint256",
        "label": "mapping(uint256 => struct RealmInfo)",
        "numberOfBytes": "32",
        "value": "t_struct(RealmInfo)845_storage"
      },
      "t_mapping(t_uint256,t_struct(ResourceInfo)852_storage)": {
        "encoding": "mapping",
        "key": "t_uint256",
        "label": "mapping(uint256 => struct ResourceInfo)",
        "numberOfBytes": "32",
        "value": "t_struct(ResourceInfo)852_storage"
      },
      "t_mapping(t_uint256,t_struct(TheAges)786_storage)": {
        "encoding": "mapping",
        "key": "t_uint256",
        "label": "mapping(uint256 => struct TheAges)",
        "numberOfBytes": "32",
        "value": "t_struct(TheAges)786_storage"
      },
      "t_mapping(t_uint256,t_struct(TrainedArmyUnit)949_storage)": {
        "encoding": "mapping",
        "key": "t_uint256",
        "label": "mapping(uint256 => struct TrainedArmyUnit)",
        "numberOfBytes": "32",
        "value": "t_struct(TrainedArmyUnit)949_storage"
      },
      "t_mapping(t_uint256,t_struct(UpgradeCostLevels)899_storage)": {
        "encoding": "mapping",
        "key": "t_uint256",
        "label": "mapping(uint256 => struct UpgradeCostLevels)",
        "numberOfBytes": "32",
        "value": "t_struct(UpgradeCostLevels)899_storage"
      },
      "t_mapping(t_uint256,t_struct(UpgradeCosts)895_storage)": {
        "encoding": "mapping",
        "key": "t_uint256",
        "label": "mapping(uint256 => struct UpgradeCosts)",
        "numberOfBytes": "32",
        "value": "t_struct(UpgradeCosts)895_storage"
      },
      "t_string_storage": {
        "encoding": "bytes",
        "label": "string",
        "numberOfBytes": "32"
      },
      "t_struct(AppStorage)779_storage": {
        "encoding": "inplace",
        "label": "struct AppStorage",
        "members": [
          {
            "astId": 717,
            "contract": "contracts/settling/facets/RaidingFacet.sol:RaidingFacet",
            "label": "realmInfo",
            "offset": 0,
            "slot": "0",
            "type": "t_mapping(t_uint256,t_struct(RealmInfo)845_storage)"
          },
          {
            "astId": 719,
            "contract": "contracts/settling/facets/RaidingFacet.sol:RaidingFacet",
            "label": "sRealms",
            "offset": 0,
            "slot": "1",
            "type": "t_address"
          },
          {
            "astId": 721,
            "contract": "contracts/settling/facets/RaidingFacet.sol:RaidingFacet",
            "label": "realms",
            "offset": 0,
            "slot": "2",
            "type": "t_address"
          },
          {
            "astId": 723,
            "contract": "contracts/settling/facets/RaidingFacet.sol:RaidingFacet",
            "label": "realmsStorage",
            "offset": 0,
            "slot": "3",
            "type": "t_address"
          },
          {
            "astId": 725,
            "contract": "contracts/settling/facets/RaidingFacet.sol:RaidingFacet",
            "label": "treasury",
            "offset": 0,
            "slot": "4",
            "type": "t_address"
          },
          {
            "astId": 727,
            "contract": "contracts/settling/facets/RaidingFacet.sol:RaidingFacet",
            "label": "resources",
            "offset": 0,
            "slot": "5",
            "type": "t_address"
          },
          {
            "astId": 729,
            "contract": "contracts/settling/facets/RaidingFacet.sol:RaidingFacet",
            "label": "oracle",
            "offset": 0,
            "slot": "6",
            "type": "t_address"
          },
          {
            "astId": 731,
            "contract": "contracts/settling/facets/RaidingFacet.sol:RaidingFacet",
            "label": "lords",
            "offset": 0,
            "slot": "7",
            "type": "t_address"
          },
          {
            "astId": 736,
            "contract": "contracts/settling/facets/RaidingFacet.sol:RaidingFacet",
            "label": "levelProduction",
            "offset": 0,
            "slot": "8",
            "type": "t_mapping(t_uint256,t_struct(LevelProduction)886_storage)"
          },
          {
            "astId": 741,
            "contract": "contracts/settling/facets/RaidingFacet.sol:RaidingFacet",
            "label": "upgradeCosts",
            "offset": 0,
            "slot": "9",
            "type": "t_mapping(t_uint256,t_struct(UpgradeCosts)895_storage)"
          },
          {
            "astId": 746,
            "contract": "contracts/settling/facets/RaidingFacet.sol:RaidingFacet",
            "label": "buildingUpgradeCosts",
            "offset": 0,
            "slot": "10",
            "type": "t_mapping(t_uint256,t_struct(BuildingUpgradeCosts)883_storage)"
          },
          {
            "astId": 751,
            "contract": "contracts/settling/facets/RaidingFacet.sol:RaidingFacet",
            "label": "buildingCosts",
            "offset": 0,
            "slot": "11",
            "type": "t_mapping(t_uint256,t_struct(BuildingCosts)874_storage)"
          },
          {
            "astId": 756,
            "contract": "contracts/settling/facets/RaidingFacet.sol:RaidingFacet",
            "label": "theAges",
            "offset": 0,
            "slot": "12",
            "type": "t_mapping(t_uint256,t_struct(TheAges)786_storage)"
          },
          {
            "astId": 758,
            "contract": "contracts/settling/facets/RaidingFacet.sol:RaidingFacet",
            "label": "genesisTime",
            "offset": 0,
            "slot": "13",
            "type": "t_uint256"
          },
          {
            "astId": 763,
            "contract": "contracts/settling/facets/RaidingFacet.sol:RaidingFacet",
            "label": "raiding",
            "offset": 0,
            "slot": "14",
            "type": "t_mapping(t_uint256,t_struct(Raiding)906_storage)"
          },
          {
            "astId": 768,
            "contract": "contracts/settling/facets/RaidingFacet.sol:RaidingFacet",
            "label": "raidingArmy",
            "offset": 0,
            "slot": "15",
            "type": "t_mapping(t_uint256,t_struct(RaidingArmy)925_storage)"
          },
          {
            "astId": 773,
            "contract": "contracts/settling/facets/RaidingFacet.sol:RaidingFacet",
            "label": "defendingArmy",
            "offset": 0,
            "slot": "16",
            "type": "t_mapping(t_uint256,t_struct(DefendingArmy)944_storage)"
          },
          {
            "astId": 778,
            "contract": "contracts/settling/facets/RaidingFacet.sol:RaidingFacet",
            "label": "armyUnit",
            "offset": 0,
            "slot": "17",
            "type": "t_mapping(t_uint256,t_struct(ArmyUnit)964_storage)"
          }
        ],
        "numberOfBytes": "576"
      },
      "t_struct(ArmyUnit)964_storage": {
        "encoding": "inplace",
        "label": "struct ArmyUnit",
        "members": [
          {
            "astId": 951,
            "contract": "contracts/settling/facets/RaidingFacet.sol:RaidingFacet",
            "label": "name",
            "offset": 0,
            "slot": "0",
            "type": "t_string_storage"
          },
          {
            "astId": 953,
            "contract": "contracts/settling/facets/RaidingFacet.sol:RaidingFacet",
            "label": "timeToTrain",
            "offset": 0,
            "slot": "1",
            "type": "t_uint256"
          },
          {
            "astId": 955,
            "contract": "contracts/settling/facets/RaidingFacet.sol:RaidingFacet",
            "label": "offence",
            "offset": 0,
            "slot": "2",
            "type": "t_uint32"
          },
          {
            "astId": 957,
            "contract": "contracts/settling/facets/RaidingFacet.sol:RaidingFacet",
            "label": "defence",
            "offset": 4,
            "slot": "2",
            "type": "t_uint32"
          },
          {
            "astId": 960,
            "contract": "contracts/settling/facets/RaidingFacet.sol:RaidingFacet",
            "label": "resourceIds",
            "offset": 0,
            "slot": "3",
            "type": "t_array(t_uint256)dyn_storage"
          },
          {
            "astId": 963,
            "contract": "contracts/settling/facets/RaidingFacet.sol:RaidingFacet",
            "label": "resourceValues",
            "offset": 0,
            "slot": "4",
            "type": "t_array(t_uint256)dyn_storage"
          }
        ],
        "numberOfBytes": "160"
      },
      "t_struct(BuildingCosts)874_storage": {
        "encoding": "inplace",
        "label": "struct BuildingCosts",
        "members": [
          {
            "astId": 854,
            "contract": "contracts/settling/facets/RaidingFacet.sol:RaidingFacet",
            "label": "name",
            "offset": 0,
            "slot": "0",
            "type": "t_string_storage"
          },
          {
            "astId": 857,
            "contract": "contracts/settling/facets/RaidingFacet.sol:RaidingFacet",
            "label": "resourceIds",
            "offset": 0,
            "slot": "1",
            "type": "t_array(t_uint32)dyn_storage"
          },
          {
            "astId": 860,
            "contract": "contracts/settling/facets/RaidingFacet.sol:RaidingFacet",
            "label": "resourceValues",
            "offset": 0,
            "slot": "2",
            "type": "t_array(t_uint32)dyn_storage"
          },
          {
            "astId": 863,
            "contract": "contracts/settling/facets/RaidingFacet.sol:RaidingFacet",
            "label": "requirements",
            "offset": 0,
            "slot": "3",
            "type": "t_array(t_uint32)dyn_storage"
          },
          {
            "astId": 865,
            "contract": "contracts/settling/facets/RaidingFacet.sol:RaidingFacet",
            "label": "defence",
            "offset": 0,
            "slot": "4",
            "type": "t_int32"
          },
          {
            "astId": 867,
            "contract": "contracts/settling/facets/RaidingFacet.sol:RaidingFacet",
            "label": "offence",
            "offset": 4,
            "slot": "4",
            "type": "t_int32"
          },
          {
            "astId": 869,
            "contract": "contracts/settling/facets/RaidingFacet.sol:RaidingFacet",
            "label": "magic",
            "offset": 8,
            "slot": "4",
            "type": "t_int32"
          },
          {
            "astId": 871,
            "contract": "contracts/settling/facets/RaidingFacet.sol:RaidingFacet",
            "label": "population",
            "offset": 12,
            "slot": "4",
            "type": "t_int32"
          },
          {
            "astId": 873,
            "contract": "contracts/settling/facets/RaidingFacet.sol:RaidingFacet",
            "label": "food",
            "offset": 16,
            "slot": "4",
            "type": "t_int32"
          }
        ],
        "numberOfBytes": "160"
      },
      "t_struct(BuildingUpgradeCosts)883_storage": {
        "encoding": "inplace",
        "label": "struct BuildingUpgradeCosts",
        "members": [
          {
            "astId": 877,
            "contract": "contracts/settling/facets/RaidingFacet.sol:RaidingFacet",
            "label": "realmBuildings",
            "offset": 0,
            "slot": "0",
            "type": "t_array(t_uint8)dyn_storage"
          },
          {
            "astId": 882,
            "contract": "contracts/settling/facets/RaidingFacet.sol:RaidingFacet",
            "label": "buildingCosts",
            "offset": 0,
            "slot": "1",
            "type": "t_mapping(t_uint256,t_struct(BuildingCosts)874_storage)"
          }
        ],
        "numberOfBytes": "64"
      },
      "t_struct(DefendingArmy)944_storage": {
        "encoding": "inplace",
        "label": "struct DefendingArmy",
        "members": [
          {
            "astId": 927,
            "contract": "contracts/settling/facets/RaidingFacet.sol:RaidingFacet",
            "label": "trebuchetsTrained",
            "offset": 0,
            "slot": "0",
            "type": "t_uint32"
          },
          {
            "astId": 929,
            "contract": "contracts/settling/facets/RaidingFacet.sol:RaidingFacet",
            "label": "trebuchetsSlayed",
            "offset": 4,
            "slot": "0",
            "type": "t_uint32"
          },
          {
            "astId": 931,
            "contract": "contracts/settling/facets/RaidingFacet.sol:RaidingFacet",
            "label": "scorpionsTrained",
            "offset": 8,
            "slot": "0",
            "type": "t_uint32"
          },
          {
            "astId": 933,
            "contract": "contracts/settling/facets/RaidingFacet.sol:RaidingFacet",
            "label": "scorpionsSlayed",
            "offset": 12,
            "slot": "0",
            "type": "t_uint32"
          },
          {
            "astId": 938,
            "contract": "contracts/settling/facets/RaidingFacet.sol:RaidingFacet",
            "label": "trebuchets",
            "offset": 0,
            "slot": "1",
            "type": "t_mapping(t_uint256,t_struct(TrainedArmyUnit)949_storage)"
          },
          {
            "astId": 943,
            "contract": "contracts/settling/facets/RaidingFacet.sol:RaidingFacet",
            "label": "scorpions",
            "offset": 0,
            "slot": "2",
            "type": "t_mapping(t_uint256,t_struct(TrainedArmyUnit)949_storage)"
          }
        ],
        "numberOfBytes": "96"
      },
      "t_struct(LevelProduction)886_storage": {
        "encoding": "inplace",
        "label": "struct LevelProduction",
        "members": [
          {
            "astId": 885,
            "contract": "contracts/settling/facets/RaidingFacet.sol:RaidingFacet",
            "label": "output",
            "offset": 0,
            "slot": "0",
            "type": "t_uint8"
          }
        ],
        "numberOfBytes": "32"
      },
      "t_struct(Raiding)906_storage": {
        "encoding": "inplace",
        "label": "struct Raiding",
        "members": [
          {
            "astId": 901,
            "contract": "contracts/settling/facets/RaidingFacet.sol:RaidingFacet",
            "label": "coolDownTime",
            "offset": 0,
            "slot": "0",
            "type": "t_uint256"
          },
          {
            "astId": 903,
            "contract": "contracts/settling/facets/RaidingFacet.sol:RaidingFacet",
            "label": "totalRaids",
            "offset": 0,
            "slot": "1",
            "type": "t_uint256"
          },
          {
            "astId": 905,
            "contract": "contracts/settling/facets/RaidingFacet.sol:RaidingFacet",
            "label": "successfulRaids",
            "offset": 0,
            "slot": "2",
            "type": "t_uint256"
          }
        ],
        "numberOfBytes": "96"
      },
      "t_struct(RaidingArmy)925_storage": {
        "encoding": "inplace",
        "label": "struct RaidingArmy",
        "members": [
          {
            "astId": 908,
            "contract": "contracts/settling/facets/RaidingFacet.sol:RaidingFacet",
            "label": "knightsTrained",
            "offset": 0,
            "slot": "0",
            "type": "t_uint32"
          },
          {
            "astId": 910,
            "contract": "contracts/settling/facets/RaidingFacet.sol:RaidingFacet",
            "label": "knightsSlayed",
            "offset": 4,
            "slot": "0",
            "type": "t_uint32"
          },
          {
            "astId": 912,
            "contract": "contracts/settling/facets/RaidingFacet.sol:RaidingFacet",
            "label": "footSoldiersTrained",
            "offset": 8,
            "slot": "0",
            "type": "t_uint32"
          },
          {
            "astId": 914,
            "contract": "contracts/settling/facets/RaidingFacet.sol:RaidingFacet",
            "label": "footSoldiersSlayed",
            "offset": 12,
            "slot": "0",
            "type": "t_uint32"
          },
          {
            "astId": 919,
            "contract": "contracts/settling/facets/RaidingFacet.sol:RaidingFacet",
            "label": "knights",
            "offset": 0,
            "slot": "1",
            "type": "t_mapping(t_uint256,t_struct(TrainedArmyUnit)949_storage)"
          },
          {
            "astId": 924,
            "contract": "contracts/settling/facets/RaidingFacet.sol:RaidingFacet",
            "label": "footSoldiers",
            "offset": 0,
            "slot": "2",
            "type": "t_mapping(t_uint256,t_struct(TrainedArmyUnit)949_storage)"
          }
        ],
        "numberOfBytes": "96"
      },
      "t_struct(RealmInfo)845_storage": {
        "encoding": "inplace",
        "label": "struct RealmInfo",
        "members": [
          {
            "astId": 788,
            "contract": "contracts/settling/facets/RaidingFacet.sol:RaidingFacet",
            "label": "name",
            "offset": 0,
            "slot": "0",
            "type": "t_string_storage"
          },
          {
            "astId": 790,
            "contract": "contracts/settling/facets/RaidingFacet.sol:RaidingFacet",
            "label": "lastUpdateAt",
            "offset": 0,
            "slot": "1",
            "type": "t_uint256"
          },
          {
            "astId": 792,
            "contract": "contracts/settling/facets/RaidingFacet.sol:RaidingFacet",
            "label": "vestedTimeUpdatedAt",
            "offset": 0,
            "slot": "2",
            "type": "t_uint256"
          },
          {
            "astId": 794,
            "contract": "contracts/settling/facets/RaidingFacet.sol:RaidingFacet",
            "label": "ageSettled",
            "offset": 0,
            "slot": "3",
            "type": "t_uint256"
          },
          {
            "astId": 796,
            "contract": "contracts/settling/facets/RaidingFacet.sol:RaidingFacet",
            "label": "ageClaimed",
            "offset": 0,
            "slot": "4",
            "type": "t_uint256"
          },
          {
            "astId": 799,
            "contract": "contracts/settling/facets/RaidingFacet.sol:RaidingFacet",
            "label": "resourceIds",
            "offset": 0,
            "slot": "5",
            "type": "t_array(t_uint256)dyn_storage"
          },
          {
            "astId": 801,
            "contract": "contracts/settling/facets/RaidingFacet.sol:RaidingFacet",
            "label": "cities",
            "offset": 0,
            "slot": "6",
            "type": "t_uint8"
          },
          {
            "astId": 803,
            "contract": "contracts/settling/facets/RaidingFacet.sol:RaidingFacet",
            "label": "harbours",
            "offset": 1,
            "slot": "6",
            "type": "t_uint8"
          },
          {
            "astId": 805,
            "contract": "contracts/settling/facets/RaidingFacet.sol:RaidingFacet",
            "label": "rivers",
            "offset": 2,
            "slot": "6",
            "type": "t_uint8"
          },
          {
            "astId": 807,
            "contract": "contracts/settling/facets/RaidingFacet.sol:RaidingFacet",
            "label": "regions",
            "offset": 3,
            "slot": "6",
            "type": "t_uint8"
          },
          {
            "astId": 809,
            "contract": "contracts/settling/facets/RaidingFacet.sol:RaidingFacet",
            "label": "wonders",
            "offset": 4,
            "slot": "6",
            "type": "t_uint8"
          },
          {
            "astId": 811,
            "contract": "contracts/settling/facets/RaidingFacet.sol:RaidingFacet",
            "label": "orderOf",
            "offset": 5,
            "slot": "6",
            "type": "t_uint8"
          },
          {
            "astId": 813,
            "contract": "contracts/settling/facets/RaidingFacet.sol:RaidingFacet",
            "label": "aquaducts",
            "offset": 6,
            "slot": "6",
            "type": "t_uint8"
          },
          {
            "astId": 815,
            "contract": "contracts/settling/facets/RaidingFacet.sol:RaidingFacet",
            "label": "temples",
            "offset": 7,
            "slot": "6",
            "type": "t_uint8"
          },
          {
            "astId": 817,
            "contract": "contracts/settling/facets/RaidingFacet.sol:RaidingFacet",
            "label": "castles",
            "offset": 8,
            "slot": "6",
            "type": "t_uint8"
          },
          {
            "astId": 819,
            "contract": "contracts/settling/facets/RaidingFacet.sol:RaidingFacet",
            "label": "markets",
            "offset": 9,
            "slot": "6",
            "type": "t_uint8"
          },
          {
            "astId": 821,
            "contract": "contracts/settling/facets/RaidingFacet.sol:RaidingFacet",
            "label": "ports",
            "offset": 10,
            "slot": "6",
            "type": "t_uint8"
          },
          {
            "astId": 823,
            "contract": "contracts/settling/facets/RaidingFacet.sol:RaidingFacet",
            "label": "barracks",
            "offset": 11,
            "slot": "6",
            "type": "t_uint8"
          },
          {
            "astId": 825,
            "contract": "contracts/settling/facets/RaidingFacet.sol:RaidingFacet",
            "label": "farms",
            "offset": 12,
            "slot": "6",
            "type": "t_uint8"
          },
          {
            "astId": 827,
            "contract": "contracts/settling/facets/RaidingFacet.sol:RaidingFacet",
            "label": "shipyard",
            "offset": 13,
            "slot": "6",
            "type": "t_uint8"
          },
          {
            "astId": 829,
            "contract": "contracts/settling/facets/RaidingFacet.sol:RaidingFacet",
            "label": "fishingVillage",
            "offset": 14,
            "slot": "6",
            "type": "t_uint8"
          },
          {
            "astId": 831,
            "contract": "contracts/settling/facets/RaidingFacet.sol:RaidingFacet",
            "label": "realmDefence",
            "offset": 15,
            "slot": "6",
            "type": "t_int32"
          },
          {
            "astId": 833,
            "contract": "contracts/settling/facets/RaidingFacet.sol:RaidingFacet",
            "label": "realmOffence",
            "offset": 19,
            "slot": "6",
            "type": "t_int32"
          },
          {
            "astId": 835,
            "contract": "contracts/settling/facets/RaidingFacet.sol:RaidingFacet",
            "label": "realmMagic",
            "offset": 23,
            "slot": "6",
            "type": "t_int32"
          },
          {
            "astId": 837,
            "contract": "contracts/settling/facets/RaidingFacet.sol:RaidingFacet",
            "label": "foodSupply",
            "offset": 27,
            "slot": "6",
            "type": "t_int32"
          },
          {
            "astId": 839,
            "contract": "contracts/settling/facets/RaidingFacet.sol:RaidingFacet",
            "label": "population",
            "offset": 0,
            "slot": "7",
            "type": "t_int32"
          },
          {
            "astId": 844,
            "contract": "contracts/settling/facets/RaidingFacet.sol:RaidingFacet",
            "label": "resourceInfo",
            "offset": 0,
            "slot": "8",
            "type": "t_mapping(t_uint256,t_struct(ResourceInfo)852_storage)"
          }
        ],
        "numberOfBytes": "288"
      },
      "t_struct(ResourceInfo)852_storage": {
        "encoding": "inplace",
        "label": "struct ResourceInfo",
        "members": [
          {
            "astId": 847,
            "contract": "contracts/settling/facets/RaidingFacet.sol:RaidingFacet",
            "label": "id",
            "offset": 0,
            "slot": "0",
            "type": "t_uint8"
          },
          {
            "astId": 849,
            "contract": "contracts/settling/facets/RaidingFacet.sol:RaidingFacet",
            "label": "level",
            "offset": 1,
            "slot": "0",
            "type": "t_uint8"
          },
          {
            "astId": 851,
            "contract": "contracts/settling/facets/RaidingFacet.sol:RaidingFacet",
            "label": "production",
            "offset": 2,
            "slot": "0",
            "type": "t_uint8"
          }
        ],
        "numberOfBytes": "32"
      },
      "t_struct(TheAges)786_storage": {
        "encoding": "inplace",
        "label": "struct TheAges",
        "members": [
          {
            "astId": 781,
            "contract": "contracts/settling/facets/RaidingFacet.sol:RaidingFacet",
            "label": "settledRealms",
            "offset": 0,
            "slot": "0",
            "type": "t_uint256"
          },
          {
            "astId": 783,
            "contract": "contracts/settling/facets/RaidingFacet.sol:RaidingFacet",
            "label": "ageStart",
            "offset": 0,
            "slot": "1",
            "type": "t_uint256"
          },
          {
            "astId": 785,
            "contract": "contracts/settling/facets/RaidingFacet.sol:RaidingFacet",
            "label": "ageFinish",
            "offset": 0,
            "slot": "2",
            "type": "t_uint256"
          }
        ],
        "numberOfBytes": "96"
      },
      "t_struct(TrainedArmyUnit)949_storage": {
        "encoding": "inplace",
        "label": "struct TrainedArmyUnit",
        "members": [
          {
            "astId": 946,
            "contract": "contracts/settling/facets/RaidingFacet.sol:RaidingFacet",
            "label": "destroyed",
            "offset": 0,
            "slot": "0",
            "type": "t_bool"
          },
          {
            "astId": 948,
            "contract": "contracts/settling/facets/RaidingFacet.sol:RaidingFacet",
            "label": "unitFinished",
            "offset": 0,
            "slot": "1",
            "type": "t_uint256"
          }
        ],
        "numberOfBytes": "64"
      },
      "t_struct(UpgradeCostLevels)899_storage": {
        "encoding": "inplace",
        "label": "struct UpgradeCostLevels",
        "members": [
          {
            "astId": 898,
            "contract": "contracts/settling/facets/RaidingFacet.sol:RaidingFacet",
            "label": "value",
            "offset": 0,
            "slot": "0",
            "type": "t_array(t_uint256)dyn_storage"
          }
        ],
        "numberOfBytes": "32"
      },
      "t_struct(UpgradeCosts)895_storage": {
        "encoding": "inplace",
        "label": "struct UpgradeCosts",
        "members": [
          {
            "astId": 889,
            "contract": "contracts/settling/facets/RaidingFacet.sol:RaidingFacet",
            "label": "resourceIds",
            "offset": 0,
            "slot": "0",
            "type": "t_array(t_uint8)dyn_storage"
          },
          {
            "astId": 894,
            "contract": "contracts/settling/facets/RaidingFacet.sol:RaidingFacet",
            "label": "upgradeCostLevels",
            "offset": 0,
            "slot": "1",
            "type": "t_mapping(t_uint256,t_struct(UpgradeCostLevels)899_storage)"
          }
        ],
        "numberOfBytes": "64"
      },
      "t_uint256": {
        "encoding": "inplace",
        "label": "uint256",
        "numberOfBytes": "32"
      },
      "t_uint32": {
        "encoding": "inplace",
        "label": "uint32",
        "numberOfBytes": "4"
      },
      "t_uint8": {
        "encoding": "inplace",
        "label": "uint8",
        "numberOfBytes": "1"
      }
    }
  }
}