{
  "address": "0x824Eca526EB0Fc3de1537245755620E3fF8A29ed",
  "abi": [
    {
      "inputs": [
        {
          "internalType": "address",
          "name": "_treasury",
          "type": "address"
        },
        {
          "internalType": "address",
          "name": "_diamond",
          "type": "address"
        }
      ],
      "stateMutability": "nonpayable",
      "type": "constructor"
    },
    {
      "anonymous": false,
      "inputs": [
        {
          "indexed": true,
          "internalType": "address",
          "name": "_owner",
          "type": "address"
        },
        {
          "indexed": true,
          "internalType": "address",
          "name": "_operator",
          "type": "address"
        },
        {
          "indexed": false,
          "internalType": "bool",
          "name": "_approved",
          "type": "bool"
        }
      ],
      "name": "ApprovalForAll",
      "type": "event"
    },
    {
      "anonymous": false,
      "inputs": [
        {
          "indexed": true,
          "internalType": "address",
          "name": "previousOwner",
          "type": "address"
        },
        {
          "indexed": true,
          "internalType": "address",
          "name": "newOwner",
          "type": "address"
        }
      ],
      "name": "OwnershipTransferred",
      "type": "event"
    },
    {
      "anonymous": false,
      "inputs": [
        {
          "indexed": true,
          "internalType": "address",
          "name": "_operator",
          "type": "address"
        },
        {
          "indexed": true,
          "internalType": "address",
          "name": "_from",
          "type": "address"
        },
        {
          "indexed": true,
          "internalType": "address",
          "name": "_to",
          "type": "address"
        },
        {
          "indexed": false,
          "internalType": "uint256[]",
          "name": "_ids",
          "type": "uint256[]"
        },
        {
          "indexed": false,
          "internalType": "uint256[]",
          "name": "_amounts",
          "type": "uint256[]"
        }
      ],
      "name": "TransferBatch",
      "type": "event"
    },
    {
      "anonymous": false,
      "inputs": [
        {
          "indexed": true,
          "internalType": "address",
          "name": "_operator",
          "type": "address"
        },
        {
          "indexed": true,
          "internalType": "address",
          "name": "_from",
          "type": "address"
        },
        {
          "indexed": true,
          "internalType": "address",
          "name": "_to",
          "type": "address"
        },
        {
          "indexed": false,
          "internalType": "uint256",
          "name": "_id",
          "type": "uint256"
        },
        {
          "indexed": false,
          "internalType": "uint256",
          "name": "_amount",
          "type": "uint256"
        }
      ],
      "name": "TransferSingle",
      "type": "event"
    },
    {
      "inputs": [],
      "name": "ADAMANTINE",
      "outputs": [
        {
          "internalType": "uint256",
          "name": "",
          "type": "uint256"
        }
      ],
      "stateMutability": "view",
      "type": "function"
    },
    {
      "inputs": [],
      "name": "ALCHEMICAL_SILVER",
      "outputs": [
        {
          "internalType": "uint256",
          "name": "",
          "type": "uint256"
        }
      ],
      "stateMutability": "view",
      "type": "function"
    },
    {
      "inputs": [],
      "name": "COAL",
      "outputs": [
        {
          "internalType": "uint256",
          "name": "",
          "type": "uint256"
        }
      ],
      "stateMutability": "view",
      "type": "function"
    },
    {
      "inputs": [],
      "name": "COLD_IRON",
      "outputs": [
        {
          "internalType": "uint256",
          "name": "",
          "type": "uint256"
        }
      ],
      "stateMutability": "view",
      "type": "function"
    },
    {
      "inputs": [],
      "name": "COPPER",
      "outputs": [
        {
          "internalType": "uint256",
          "name": "",
          "type": "uint256"
        }
      ],
      "stateMutability": "view",
      "type": "function"
    },
    {
      "inputs": [],
      "name": "DEEP_CRYSTAL",
      "outputs": [
        {
          "internalType": "uint256",
          "name": "",
          "type": "uint256"
        }
      ],
      "stateMutability": "view",
      "type": "function"
    },
    {
      "inputs": [],
      "name": "DIAMONDS",
      "outputs": [
        {
          "internalType": "uint256",
          "name": "",
          "type": "uint256"
        }
      ],
      "stateMutability": "view",
      "type": "function"
    },
    {
      "inputs": [],
      "name": "DRAGONHIDE",
      "outputs": [
        {
          "internalType": "uint256",
          "name": "",
          "type": "uint256"
        }
      ],
      "stateMutability": "view",
      "type": "function"
    },
    {
      "inputs": [],
      "name": "ETHEREAL_SILICA",
      "outputs": [
        {
          "internalType": "uint256",
          "name": "",
          "type": "uint256"
        }
      ],
      "stateMutability": "view",
      "type": "function"
    },
    {
      "inputs": [],
      "name": "GOLD",
      "outputs": [
        {
          "internalType": "uint256",
          "name": "",
          "type": "uint256"
        }
      ],
      "stateMutability": "view",
      "type": "function"
    },
    {
      "inputs": [],
      "name": "HARTWOOD",
      "outputs": [
        {
          "internalType": "uint256",
          "name": "",
          "type": "uint256"
        }
      ],
      "stateMutability": "view",
      "type": "function"
    },
    {
      "inputs": [],
      "name": "IGNIUM",
      "outputs": [
        {
          "internalType": "uint256",
          "name": "",
          "type": "uint256"
        }
      ],
      "stateMutability": "view",
      "type": "function"
    },
    {
      "inputs": [],
      "name": "IRONWOOD",
      "outputs": [
        {
          "internalType": "uint256",
          "name": "",
          "type": "uint256"
        }
      ],
      "stateMutability": "view",
      "type": "function"
    },
    {
      "inputs": [],
      "name": "MITHRAL",
      "outputs": [
        {
          "internalType": "uint256",
          "name": "",
          "type": "uint256"
        }
      ],
      "stateMutability": "view",
      "type": "function"
    },
    {
      "inputs": [],
      "name": "OBSIDIAN",
      "outputs": [
        {
          "internalType": "uint256",
          "name": "",
          "type": "uint256"
        }
      ],
      "stateMutability": "view",
      "type": "function"
    },
    {
      "inputs": [],
      "name": "RUBY",
      "outputs": [
        {
          "internalType": "uint256",
          "name": "",
          "type": "uint256"
        }
      ],
      "stateMutability": "view",
      "type": "function"
    },
    {
      "inputs": [],
      "name": "SAPPHIRE",
      "outputs": [
        {
          "internalType": "uint256",
          "name": "",
          "type": "uint256"
        }
      ],
      "stateMutability": "view",
      "type": "function"
    },
    {
      "inputs": [],
      "name": "SILVER",
      "outputs": [
        {
          "internalType": "uint256",
          "name": "",
          "type": "uint256"
        }
      ],
      "stateMutability": "view",
      "type": "function"
    },
    {
      "inputs": [],
      "name": "STONE",
      "outputs": [
        {
          "internalType": "uint256",
          "name": "",
          "type": "uint256"
        }
      ],
      "stateMutability": "view",
      "type": "function"
    },
    {
      "inputs": [],
      "name": "TRUE_ICE",
      "outputs": [
        {
          "internalType": "uint256",
          "name": "",
          "type": "uint256"
        }
      ],
      "stateMutability": "view",
      "type": "function"
    },
    {
      "inputs": [],
      "name": "TWILIGHT_QUARTZ",
      "outputs": [
        {
          "internalType": "uint256",
          "name": "",
          "type": "uint256"
        }
      ],
      "stateMutability": "view",
      "type": "function"
    },
    {
      "inputs": [],
      "name": "WOOD",
      "outputs": [
        {
          "internalType": "uint256",
          "name": "",
          "type": "uint256"
        }
      ],
      "stateMutability": "view",
      "type": "function"
    },
    {
      "inputs": [
        {
          "internalType": "address",
          "name": "_owner",
          "type": "address"
        },
        {
          "internalType": "uint256",
          "name": "_id",
          "type": "uint256"
        }
      ],
      "name": "balanceOf",
      "outputs": [
        {
          "internalType": "uint256",
          "name": "",
          "type": "uint256"
        }
      ],
      "stateMutability": "view",
      "type": "function"
    },
    {
      "inputs": [
        {
          "internalType": "address[]",
          "name": "_owners",
          "type": "address[]"
        },
        {
          "internalType": "uint256[]",
          "name": "_ids",
          "type": "uint256[]"
        }
      ],
      "name": "balanceOfBatch",
      "outputs": [
        {
          "internalType": "uint256[]",
          "name": "",
          "type": "uint256[]"
        }
      ],
      "stateMutability": "view",
      "type": "function"
    },
    {
      "inputs": [
        {
          "internalType": "address",
          "name": "_to",
          "type": "address"
        },
        {
          "internalType": "uint256[]",
          "name": "_ids",
          "type": "uint256[]"
        },
        {
          "internalType": "uint256[]",
          "name": "_amounts",
          "type": "uint256[]"
        },
        {
          "internalType": "bytes",
          "name": "_data",
          "type": "bytes"
        }
      ],
      "name": "batchResourceMinting",
      "outputs": [],
      "stateMutability": "nonpayable",
      "type": "function"
    },
    {
      "inputs": [
        {
          "internalType": "address",
          "name": "_newDiamond",
          "type": "address"
        }
      ],
      "name": "changeDiamondAddress",
      "outputs": [],
      "stateMutability": "nonpayable",
      "type": "function"
    },
    {
      "inputs": [
        {
          "internalType": "address",
          "name": "_to",
          "type": "address"
        },
        {
          "internalType": "uint256[]",
          "name": "_ids",
          "type": "uint256[]"
        },
        {
          "internalType": "uint256[]",
          "name": "_amounts",
          "type": "uint256[]"
        },
        {
          "internalType": "bytes",
          "name": "_data",
          "type": "bytes"
        }
      ],
      "name": "daoMinting",
      "outputs": [],
      "stateMutability": "nonpayable",
      "type": "function"
    },
    {
      "inputs": [],
      "name": "diamond",
      "outputs": [
        {
          "internalType": "address",
          "name": "",
          "type": "address"
        }
      ],
      "stateMutability": "view",
      "type": "function"
    },
    {
      "inputs": [
        {
          "internalType": "uint256",
          "name": "_id",
          "type": "uint256"
        }
      ],
      "name": "getIDBinIndex",
      "outputs": [
        {
          "internalType": "uint256",
          "name": "bin",
          "type": "uint256"
        },
        {
          "internalType": "uint256",
          "name": "index",
          "type": "uint256"
        }
      ],
      "stateMutability": "pure",
      "type": "function"
    },
    {
      "inputs": [
        {
          "internalType": "uint256",
          "name": "_binValues",
          "type": "uint256"
        },
        {
          "internalType": "uint256",
          "name": "_index",
          "type": "uint256"
        }
      ],
      "name": "getValueInBin",
      "outputs": [
        {
          "internalType": "uint256",
          "name": "",
          "type": "uint256"
        }
      ],
      "stateMutability": "pure",
      "type": "function"
    },
    {
      "inputs": [
        {
          "internalType": "address",
          "name": "_owner",
          "type": "address"
        },
        {
          "internalType": "address",
          "name": "_operator",
          "type": "address"
        }
      ],
      "name": "isApprovedForAll",
      "outputs": [
        {
          "internalType": "bool",
          "name": "isOperator",
          "type": "bool"
        }
      ],
      "stateMutability": "view",
      "type": "function"
    },
    {
      "inputs": [],
      "name": "owner",
      "outputs": [
        {
          "internalType": "address",
          "name": "",
          "type": "address"
        }
      ],
      "stateMutability": "view",
      "type": "function"
    },
    {
      "inputs": [
        {
          "internalType": "address",
          "name": "_from",
          "type": "address"
        },
        {
          "internalType": "uint256[]",
          "name": "_ids",
          "type": "uint256[]"
        },
        {
          "internalType": "uint256[]",
          "name": "_amounts",
          "type": "uint256[]"
        }
      ],
      "name": "productionBuildingsBurn",
      "outputs": [],
      "stateMutability": "nonpayable",
      "type": "function"
    },
    {
      "inputs": [],
      "name": "renounceOwnership",
      "outputs": [],
      "stateMutability": "nonpayable",
      "type": "function"
    },
    {
      "inputs": [
        {
          "internalType": "address",
          "name": "_to",
          "type": "address"
        },
        {
          "internalType": "uint256[]",
          "name": "_ids",
          "type": "uint256[]"
        },
        {
          "internalType": "uint256[]",
          "name": "_amounts",
          "type": "uint256[]"
        },
        {
          "internalType": "bytes",
          "name": "_data",
          "type": "bytes"
        }
      ],
      "name": "resourceMinting",
      "outputs": [],
      "stateMutability": "nonpayable",
      "type": "function"
    },
    {
      "inputs": [
        {
          "internalType": "address",
          "name": "_from",
          "type": "address"
        },
        {
          "internalType": "address",
          "name": "_to",
          "type": "address"
        },
        {
          "internalType": "uint256[]",
          "name": "_ids",
          "type": "uint256[]"
        },
        {
          "internalType": "uint256[]",
          "name": "_amounts",
          "type": "uint256[]"
        },
        {
          "internalType": "bytes",
          "name": "_data",
          "type": "bytes"
        }
      ],
      "name": "safeBatchTransferFrom",
      "outputs": [],
      "stateMutability": "nonpayable",
      "type": "function"
    },
    {
      "inputs": [
        {
          "internalType": "address",
          "name": "_from",
          "type": "address"
        },
        {
          "internalType": "address",
          "name": "_to",
          "type": "address"
        },
        {
          "internalType": "uint256",
          "name": "_id",
          "type": "uint256"
        },
        {
          "internalType": "uint256",
          "name": "_amount",
          "type": "uint256"
        },
        {
          "internalType": "bytes",
          "name": "_data",
          "type": "bytes"
        }
      ],
      "name": "safeTransferFrom",
      "outputs": [],
      "stateMutability": "nonpayable",
      "type": "function"
    },
    {
      "inputs": [
        {
          "internalType": "address",
          "name": "_operator",
          "type": "address"
        },
        {
          "internalType": "bool",
          "name": "_approved",
          "type": "bool"
        }
      ],
      "name": "setApprovalForAll",
      "outputs": [],
      "stateMutability": "nonpayable",
      "type": "function"
    },
    {
      "inputs": [
        {
          "internalType": "bytes4",
          "name": "_interfaceID",
          "type": "bytes4"
        }
      ],
      "name": "supportsInterface",
      "outputs": [
        {
          "internalType": "bool",
          "name": "",
          "type": "bool"
        }
      ],
      "stateMutability": "pure",
      "type": "function"
    },
    {
      "inputs": [
        {
          "internalType": "address",
          "name": "newOwner",
          "type": "address"
        }
      ],
      "name": "transferOwnership",
      "outputs": [],
      "stateMutability": "nonpayable",
      "type": "function"
    },
    {
      "inputs": [],
      "name": "treasury",
      "outputs": [
        {
          "internalType": "address",
          "name": "",
          "type": "address"
        }
      ],
      "stateMutability": "view",
      "type": "function"
    }
  ],
  "transactionHash": "0x66322b0c7e15b96a9b51fdf58f8880fc40ca3bd76b533db3b72cf731b11b10eb",
  "args": [
    "0xE417496166b097A05e1B0A4117C8Ad1d204aDb91",
    "0xA642375Cc15249A81da9c435fB4eDD8A9343ce7F"
  ],
  "solcInputHash": "47f9f163ef14ee68bb159ad7e52469ae",
  "bytecode": "0x60806040523480156200001157600080fd5b5060405162004751380380620047518339818101604052810190620000379190620001c6565b620000576200004b620000e160201b60201c565b620000e960201b60201c565b81600360006101000a81548173ffffffffffffffffffffffffffffffffffffffff021916908373ffffffffffffffffffffffffffffffffffffffff16021790555080600460006101000a81548173ffffffffffffffffffffffffffffffffffffffff021916908373ffffffffffffffffffffffffffffffffffffffff160217905550505062000255565b600033905090565b6000600260009054906101000a900473ffffffffffffffffffffffffffffffffffffffff16905081600260006101000a81548173ffffffffffffffffffffffffffffffffffffffff021916908373ffffffffffffffffffffffffffffffffffffffff1602179055508173ffffffffffffffffffffffffffffffffffffffff168173ffffffffffffffffffffffffffffffffffffffff167f8be0079c531659141344cd1fd0a4f28419497f9722a3daafe3b4186f6b6457e060405160405180910390a35050565b600081519050620001c0816200023b565b92915050565b60008060408385031215620001da57600080fd5b6000620001ea85828601620001af565b9250506020620001fd85828601620001af565b9150509250929050565b600062000214826200021b565b9050919050565b600073ffffffffffffffffffffffffffffffffffffffff82169050919050565b620002468162000207565b81146200025257600080fd5b50565b6144ec80620002656000396000f3fe608060405234801561001057600080fd5b50600436106102525760003560e01c806390f5f0cd11610146578063db90e83c116100c3578063eaec5f8111610087578063eaec5f81146106aa578063ed750d07146106da578063f0b7db4e146106f8578063f242432a14610716578063f2fde38b14610732578063fb9daec41461074e57610252565b8063db90e83c146105f1578063dbb95f1e14610622578063ddb6f7f114610640578063e3e55f081461065c578063e985e9c51461067a57610252565b8063b577ec1a1161010a578063b577ec1a1461055d578063b61444a91461057b578063bc0bcbb614610599578063c90f7559146105b7578063d75444ba146105d357610252565b806390f5f0cd146104c95780639c65c10f146104e75780639d42213914610505578063a22cb46514610523578063a554d9fe1461053f57610252565b80634e1273f4116101d45780636ccbe6e6116101985780636ccbe6e61461044b578063715018a614610469578063741b1921146104735780638da5cb5b1461048f5780638edf55bf146104ad57610252565b80634e1273f4146103a35780635653e3ac146103d357806361d027b3146103f1578063672c26231461040f57806369f9901e1461042d57610252565b80632eb2c2d61161021b5780632eb2c2d61461030f57806339c0f83a1461032b5780633e4bee381461034957806344a2879c1461036757806345114a781461038557610252565b8062fdd58e1461025757806301ffc9a7146102875780630cf64bbb146102b75780631b1a1672146102d5578063292803f5146102f1575b600080fd5b610271600480360381019061026c91906130d7565b61076c565b60405161027e91906138e5565b60405180910390f35b6102a1600480360381019061029c919061317f565b6107e5565b6040516102ae91906136aa565b60405180910390f35b6102bf610867565b6040516102cc91906138e5565b60405180910390f35b6102ef60048036038101906102ea9190612ff0565b61086c565b005b6102f96108fa565b60405161030691906138e5565b60405180910390f35b61032960048036038101906103249190612e23565b6108ff565b005b610333610a0f565b60405161034091906138e5565b60405180910390f35b610351610a14565b60405161035e91906138e5565b60405180910390f35b61036f610a19565b60405161037c91906138e5565b60405180910390f35b61038d610a1e565b60405161039a91906138e5565b60405180910390f35b6103bd60048036038101906103b89190613113565b610a23565b6040516103ca9190613651565b60405180910390f35b6103db610e50565b6040516103e891906138e5565b60405180910390f35b6103f9610e55565b6040516104069190613574565b60405180910390f35b610417610e7b565b60405161042491906138e5565b60405180910390f35b610435610e80565b60405161044291906138e5565b60405180910390f35b610453610e85565b60405161046091906138e5565b60405180910390f35b610471610e8a565b005b61048d60048036038101906104889190612dbe565b610f12565b005b610497610fd2565b6040516104a49190613574565b60405180910390f35b6104c760048036038101906104c29190612ff0565b610ffc565b005b6104d1611109565b6040516104de91906138e5565b60405180910390f35b6104ef61110e565b6040516104fc91906138e5565b60405180910390f35b61050d611113565b60405161051a91906138e5565b60405180910390f35b61053d6004803603810190610538919061309b565b611118565b005b610547611215565b60405161055491906138e5565b60405180910390f35b61056561121a565b60405161057291906138e5565b60405180910390f35b61058361121f565b60405161059091906138e5565b60405180910390f35b6105a1611224565b6040516105ae91906138e5565b60405180910390f35b6105d160048036038101906105cc9190612ff0565b611229565b005b6105db611469565b6040516105e891906138e5565b60405180910390f35b61060b600480360381019061060691906131d1565b61146e565b604051610619929190613900565b60405180910390f35b61062a6114ae565b60405161063791906138e5565b60405180910390f35b61065a60048036038101906106559190612f71565b6114b3565b005b6106646114c3565b60405161067191906138e5565b60405180910390f35b610694600480360381019061068f9190612de7565b6114c8565b6040516106a191906136aa565b60405180910390f35b6106c460048036038101906106bf91906131fa565b61155c565b6040516106d191906138e5565b60405180910390f35b6106e2611594565b6040516106ef91906138e5565b60405180910390f35b610700611599565b60405161070d9190613574565b60405180910390f35b610730600480360381019061072b9190612ee2565b6115bf565b005b61074c60048036038101906107479190612dbe565b6116cf565b005b6107566117c7565b60405161076391906138e5565b60405180910390f35b600080600061077a8461146e565b80925081935050506107db6000808773ffffffffffffffffffffffffffffffffffffffff1673ffffffffffffffffffffffffffffffffffffffff1681526020019081526020016000206000848152602001908152602001600020548261155c565b9250505092915050565b60007fd9b67a26000000000000000000000000000000000000000000000000000000007bffffffffffffffffffffffffffffffffffffffffffffffffffffffff1916827bffffffffffffffffffffffffffffffffffffffffffffffffffffffff191614156108565760019050610862565b61085f826117cc565b90505b919050565b600e81565b61087461181d565b73ffffffffffffffffffffffffffffffffffffffff16610892610fd2565b73ffffffffffffffffffffffffffffffffffffffff16146108e8576040517f08c379a00000000000000000000000000000000000000000000000000000000081526004016108df906137c5565b60405180910390fd5b6108f484848484611825565b50505050565b600c81565b8473ffffffffffffffffffffffffffffffffffffffff163373ffffffffffffffffffffffffffffffffffffffff16148061093f575061093e85336114c8565b5b61097e576040517f08c379a0000000000000000000000000000000000000000000000000000000008152600401610975906137a5565b60405180910390fd5b600073ffffffffffffffffffffffffffffffffffffffff168473ffffffffffffffffffffffffffffffffffffffff1614156109ee576040517f08c379a00000000000000000000000000000000000000000000000000000000081526004016109e5906136e5565b60405180910390fd5b6109fa85858585611bd2565b610a08858585855a86612280565b5050505050565b601581565b600981565b600781565b600581565b606060008351905082518114610a6e576040517f08c379a0000000000000000000000000000000000000000000000000000000008152600401610a65906136c5565b60405180910390fd5b600080610abb85600081518110610aae577f4e487b7100000000000000000000000000000000000000000000000000000000600052603260045260246000fd5b602002602001015161146e565b91509150600080600088600081518110610afe577f4e487b7100000000000000000000000000000000000000000000000000000000600052603260045260246000fd5b602002602001015173ffffffffffffffffffffffffffffffffffffffff1673ffffffffffffffffffffffffffffffffffffffff1681526020019081526020016000206000848152602001908152602001600020549050600083905060008567ffffffffffffffff811115610b9b577f4e487b7100000000000000000000000000000000000000000000000000000000600052604160045260246000fd5b604051908082528060200260200182016040528015610bc95781602001602082028036833780820191505090505b509050610bd6838561155c565b81600081518110610c10577f4e487b7100000000000000000000000000000000000000000000000000000000600052603260045260246000fd5b6020026020010181815250506000600190505b86811015610e4057610c74898281518110610c67577f4e487b7100000000000000000000000000000000000000000000000000000000600052603260045260246000fd5b602002602001015161146e565b80965081975050508286141580610d435750898181518110610cbf577f4e487b7100000000000000000000000000000000000000000000000000000000600052603260045260246000fd5b602002602001015173ffffffffffffffffffffffffffffffffffffffff168a600183610ceb9190613c8f565b81518110610d22577f4e487b7100000000000000000000000000000000000000000000000000000000600052603260045260246000fd5b602002602001015173ffffffffffffffffffffffffffffffffffffffff1614155b15610dde576000808b8381518110610d84577f4e487b7100000000000000000000000000000000000000000000000000000000600052603260045260246000fd5b602002602001015173ffffffffffffffffffffffffffffffffffffffff1673ffffffffffffffffffffffffffffffffffffffff16815260200190815260200160002060008781526020019081526020016000205493508592505b610de8848661155c565b828281518110610e21577f4e487b7100000000000000000000000000000000000000000000000000000000600052603260045260246000fd5b6020026020010181815250508080610e3890613daa565b915050610c23565b5080965050505050505092915050565b600181565b600360009054906101000a900473ffffffffffffffffffffffffffffffffffffffff1681565b600881565b600281565b601381565b610e9261181d565b73ffffffffffffffffffffffffffffffffffffffff16610eb0610fd2565b73ffffffffffffffffffffffffffffffffffffffff1614610f06576040517f08c379a0000000000000000000000000000000000000000000000000000000008152600401610efd906137c5565b60405180910390fd5b610f1060006123ce565b565b610f1a61181d565b73ffffffffffffffffffffffffffffffffffffffff16610f38610fd2565b73ffffffffffffffffffffffffffffffffffffffff1614610f8e576040517f08c379a0000000000000000000000000000000000000000000000000000000008152600401610f85906137c5565b60405180910390fd5b80600460006101000a81548173ffffffffffffffffffffffffffffffffffffffff021916908373ffffffffffffffffffffffffffffffffffffffff16021790555050565b6000600260009054906101000a900473ffffffffffffffffffffffffffffffffffffffff16905090565b611004610fd2565b73ffffffffffffffffffffffffffffffffffffffff163373ffffffffffffffffffffffffffffffffffffffff16148061108a5750600460009054906101000a900473ffffffffffffffffffffffffffffffffffffffff1673ffffffffffffffffffffffffffffffffffffffff163373ffffffffffffffffffffffffffffffffffffffff16145b6110c9576040517f08c379a00000000000000000000000000000000000000000000000000000000081526004016110c090613885565b60405180910390fd5b6110d584848484611825565b611103600360009054906101000a900473ffffffffffffffffffffffffffffffffffffffff16848484611825565b50505050565b600481565b601181565b600b81565b80600160003373ffffffffffffffffffffffffffffffffffffffff1673ffffffffffffffffffffffffffffffffffffffff16815260200190815260200160002060008473ffffffffffffffffffffffffffffffffffffffff1673ffffffffffffffffffffffffffffffffffffffff16815260200190815260200160002060006101000a81548160ff0219169083151502179055508173ffffffffffffffffffffffffffffffffffffffff163373ffffffffffffffffffffffffffffffffffffffff167f17307eab39ab6107e8899845ad3d59bd9653f200f220920489ca2b5937696c318360405161120991906136aa565b60405180910390a35050565b600d81565b601281565b600381565b600a81565b611231610fd2565b73ffffffffffffffffffffffffffffffffffffffff163373ffffffffffffffffffffffffffffffffffffffff1614806112b75750600460009054906101000a900473ffffffffffffffffffffffffffffffffffffffff1673ffffffffffffffffffffffffffffffffffffffff163373ffffffffffffffffffffffffffffffffffffffff16145b6112f6576040517f08c379a00000000000000000000000000000000000000000000000000000000081526004016112ed90613885565b60405180910390fd5b61130284848484611825565b6000601667ffffffffffffffff811115611345577f4e487b7100000000000000000000000000000000000000000000000000000000600052604160045260246000fd5b6040519080825280602002602001820160405280156113735781602001602082028036833780820191505090505b50905060005b835181101561143357605a600a8583815181106113bf577f4e487b7100000000000000000000000000000000000000000000000000000000600052603260045260246000fd5b60200260200101516113d19190613c35565b6113db9190613a93565b828281518110611414577f4e487b7100000000000000000000000000000000000000000000000000000000600052603260045260246000fd5b602002602001018181525050808061142b90613daa565b915050611379565b50611462600360009054906101000a900473ffffffffffffffffffffffffffffffffffffffff16858585611825565b5050505050565b601481565b60008060406101006114809190613a93565b8361148b9190613a93565b9150604061010061149c9190613a93565b836114a79190613df3565b9050915091565b600f81565b6114be838383612494565b505050565b600681565b6000600160008473ffffffffffffffffffffffffffffffffffffffff1673ffffffffffffffffffffffffffffffffffffffff16815260200190815260200160002060008373ffffffffffffffffffffffffffffffffffffffff1673ffffffffffffffffffffffffffffffffffffffff16815260200190815260200160002060009054906101000a900460ff16905092915050565b600080600160406001901b6115719190613c8f565b905060008360406115829190613c35565b9050818186901c169250505092915050565b601681565b600460009054906101000a900473ffffffffffffffffffffffffffffffffffffffff1681565b8473ffffffffffffffffffffffffffffffffffffffff163373ffffffffffffffffffffffffffffffffffffffff1614806115ff57506115fe85336114c8565b5b61163e576040517f08c379a000000000000000000000000000000000000000000000000000000000815260040161163590613745565b60405180910390fd5b600073ffffffffffffffffffffffffffffffffffffffff168473ffffffffffffffffffffffffffffffffffffffff1614156116ae576040517f08c379a00000000000000000000000000000000000000000000000000000000081526004016116a590613845565b60405180910390fd5b6116ba8585858561260e565b6116c8858585855a866126ac565b5050505050565b6116d761181d565b73ffffffffffffffffffffffffffffffffffffffff166116f5610fd2565b73ffffffffffffffffffffffffffffffffffffffff161461174b576040517f08c379a0000000000000000000000000000000000000000000000000000000008152600401611742906137c5565b60405180910390fd5b600073ffffffffffffffffffffffffffffffffffffffff168173ffffffffffffffffffffffffffffffffffffffff1614156117bb576040517f08c379a00000000000000000000000000000000000000000000000000000000081526004016117b290613705565b60405180910390fd5b6117c4816123ce565b50565b601081565b60006301ffc9a760e01b7bffffffffffffffffffffffffffffffffffffffffffffffffffffffff1916827bffffffffffffffffffffffffffffffffffffffffffffffffffffffff1916149050919050565b600033905090565b8151835114611869576040517f08c379a0000000000000000000000000000000000000000000000000000000008152600401611860906138a5565b60405180910390fd5b600083511115611b3e576000806118c0856000815181106118b3577f4e487b7100000000000000000000000000000000000000000000000000000000600052603260045260246000fd5b602002602001015161146e565b9150915060006119636000808973ffffffffffffffffffffffffffffffffffffffff1673ffffffffffffffffffffffffffffffffffffffff1681526020019081526020016000206000858152602001908152602001600020548387600081518110611954577f4e487b7100000000000000000000000000000000000000000000000000000000600052603260045260246000fd5b602002602001015160006127fa565b905060008651905060008490506000600190505b82811015611ae3576119c88982815181106119bb577f4e487b7100000000000000000000000000000000000000000000000000000000600052603260045260246000fd5b602002602001015161146e565b8096508197505050818614611a8157836000808c73ffffffffffffffffffffffffffffffffffffffff1673ffffffffffffffffffffffffffffffffffffffff1681526020019081526020016000206000848152602001908152602001600020819055506000808b73ffffffffffffffffffffffffffffffffffffffff1673ffffffffffffffffffffffffffffffffffffffff16815260200190815260200160002060008781526020019081526020016000205493508591505b611ace84868a8481518110611abf577f4e487b7100000000000000000000000000000000000000000000000000000000600052603260045260246000fd5b602002602001015160006127fa565b93508080611adb90613daa565b915050611977565b50826000808b73ffffffffffffffffffffffffffffffffffffffff1673ffffffffffffffffffffffffffffffffffffffff16815260200190815260200160002060008781526020019081526020016000208190555050505050505b8373ffffffffffffffffffffffffffffffffffffffff16600073ffffffffffffffffffffffffffffffffffffffff163373ffffffffffffffffffffffffffffffffffffffff167f4a39dc06d4c0dbc64b70af90fd698a233a518aa5d07e595d983b8c0526c8f7fb8686604051611bb5929190613673565b60405180910390a4611bcc60008585855a86612280565b50505050565b60008251905081518114611c1b576040517f08c379a0000000000000000000000000000000000000000000000000000000008152600401611c1290613765565b60405180910390fd5b8373ffffffffffffffffffffffffffffffffffffffff168573ffffffffffffffffffffffffffffffffffffffff1614158015611c575750600081115b1561210f57600080611ca985600081518110611c9c577f4e487b7100000000000000000000000000000000000000000000000000000000600052603260045260246000fd5b602002602001015161146e565b915091506000611d4c6000808a73ffffffffffffffffffffffffffffffffffffffff1673ffffffffffffffffffffffffffffffffffffffff1681526020019081526020016000206000858152602001908152602001600020548387600081518110611d3d577f4e487b7100000000000000000000000000000000000000000000000000000000600052603260045260246000fd5b602002602001015160016127fa565b90506000611ded6000808a73ffffffffffffffffffffffffffffffffffffffff1673ffffffffffffffffffffffffffffffffffffffff1681526020019081526020016000206000868152602001908152602001600020548488600081518110611dde577f4e487b7100000000000000000000000000000000000000000000000000000000600052603260045260246000fd5b602002602001015160006127fa565b905060008490506000600190505b8681101561205c57611e4c898281518110611e3f577f4e487b7100000000000000000000000000000000000000000000000000000000600052603260045260246000fd5b602002602001015161146e565b8096508197505050818614611fab57836000808d73ffffffffffffffffffffffffffffffffffffffff1673ffffffffffffffffffffffffffffffffffffffff168152602001908152602001600020600084815260200190815260200160002081905550826000808c73ffffffffffffffffffffffffffffffffffffffff1673ffffffffffffffffffffffffffffffffffffffff1681526020019081526020016000206000848152602001908152602001600020819055506000808c73ffffffffffffffffffffffffffffffffffffffff1673ffffffffffffffffffffffffffffffffffffffff16815260200190815260200160002060008781526020019081526020016000205493506000808b73ffffffffffffffffffffffffffffffffffffffff1673ffffffffffffffffffffffffffffffffffffffff16815260200190815260200160002060008781526020019081526020016000205492508591505b611ff884868a8481518110611fe9577f4e487b7100000000000000000000000000000000000000000000000000000000600052603260045260246000fd5b602002602001015160016127fa565b935061204783868a8481518110612038577f4e487b7100000000000000000000000000000000000000000000000000000000600052603260045260246000fd5b602002602001015160006127fa565b9250808061205490613daa565b915050611dfb565b50826000808c73ffffffffffffffffffffffffffffffffffffffff1673ffffffffffffffffffffffffffffffffffffffff168152602001908152602001600020600087815260200190815260200160002081905550816000808b73ffffffffffffffffffffffffffffffffffffffff1673ffffffffffffffffffffffffffffffffffffffff16815260200190815260200160002060008781526020019081526020016000208190555050505050506121fb565b60005b818110156121f957828181518110612153577f4e487b7100000000000000000000000000000000000000000000000000000000600052603260045260246000fd5b60200260200101516121a587868481518110612198577f4e487b7100000000000000000000000000000000000000000000000000000000600052603260045260246000fd5b602002602001015161076c565b10156121e6576040517f08c379a00000000000000000000000000000000000000000000000000000000081526004016121dd90613805565b60405180910390fd5b80806121f190613daa565b915050612112565b505b8373ffffffffffffffffffffffffffffffffffffffff168573ffffffffffffffffffffffffffffffffffffffff163373ffffffffffffffffffffffffffffffffffffffff167f4a39dc06d4c0dbc64b70af90fd698a233a518aa5d07e595d983b8c0526c8f7fb8686604051612271929190613673565b60405180910390a45050505050565b61229f8573ffffffffffffffffffffffffffffffffffffffff16612ab2565b156123c65760008573ffffffffffffffffffffffffffffffffffffffff1663bc197c8184338a8989886040518763ffffffff1660e01b81526004016122e895949392919061358f565b602060405180830381600088803b15801561230257600080fd5b5087f1158015612316573d6000803e3d6000fd5b50505050506040513d601f19601f8201168201806040525081019061233b91906131a8565b905063bc197c8160e01b7bffffffffffffffffffffffffffffffffffffffffffffffffffffffff1916817bffffffffffffffffffffffffffffffffffffffffffffffffffffffff1916146123c4576040517f08c379a00000000000000000000000000000000000000000000000000000000081526004016123bb90613785565b60405180910390fd5b505b505050505050565b6000600260009054906101000a900473ffffffffffffffffffffffffffffffffffffffff16905081600260006101000a81548173ffffffffffffffffffffffffffffffffffffffff021916908373ffffffffffffffffffffffffffffffffffffffff1602179055508173ffffffffffffffffffffffffffffffffffffffff168173ffffffffffffffffffffffffffffffffffffffff167f8be0079c531659141344cd1fd0a4f28419497f9722a3daafe3b4186f6b6457e060405160405180910390a35050565b600082519050815181146124dd576040517f08c379a00000000000000000000000000000000000000000000000000000000081526004016124d4906137e5565b60405180910390fd5b60005b818110156125885761257585858381518110612525577f4e487b7100000000000000000000000000000000000000000000000000000000600052603260045260246000fd5b6020026020010151858481518110612566577f4e487b7100000000000000000000000000000000000000000000000000000000600052603260045260246000fd5b60200260200101516001612af7565b808061258090613daa565b9150506124e0565b50600073ffffffffffffffffffffffffffffffffffffffff168473ffffffffffffffffffffffffffffffffffffffff163373ffffffffffffffffffffffffffffffffffffffff167f4a39dc06d4c0dbc64b70af90fd698a233a518aa5d07e595d983b8c0526c8f7fb8686604051612600929190613673565b60405180910390a450505050565b61261b8483836001612af7565b6126288383836000612af7565b8273ffffffffffffffffffffffffffffffffffffffff168473ffffffffffffffffffffffffffffffffffffffff163373ffffffffffffffffffffffffffffffffffffffff167fc3d58168c5ae7397731d063d5bbf3d657854427343f4c083240f7aacaa2d0f62858560405161269e929190613900565b60405180910390a450505050565b6126cb8573ffffffffffffffffffffffffffffffffffffffff16612ab2565b156127f25760008573ffffffffffffffffffffffffffffffffffffffff1663f23a6e6184338a8989886040518763ffffffff1660e01b81526004016127149594939291906135f7565b602060405180830381600088803b15801561272e57600080fd5b5087f1158015612742573d6000803e3d6000fd5b50505050506040513d601f19601f8201168201806040525081019061276791906131a8565b905063f23a6e6160e01b7bffffffffffffffffffffffffffffffffffffffffffffffffffffffff1916817bffffffffffffffffffffffffffffffffffffffffffffffffffffffff1916146127f0576040517f08c379a00000000000000000000000000000000000000000000000000000000081526004016127e790613825565b60405180910390fd5b505b505050505050565b60008084604061280a9190613c35565b90506000600160406001901b6128209190613c8f565b90506000600181111561285c577f4e487b7100000000000000000000000000000000000000000000000000000000600052602160045260246000fd5b846001811115612895577f4e487b7100000000000000000000000000000000000000000000000000000000600052602160045260246000fd5b1415612953578185901b876128aa9190613a3d565b9250868310156128ef576040517f08c379a00000000000000000000000000000000000000000000000000000000081526004016128e6906138c5565b60405180910390fd5b604060026128fd9190613b17565b8582848a901c1661290e9190613a3d565b1061294e576040517f08c379a0000000000000000000000000000000000000000000000000000000008152600401612945906138c5565b60405180910390fd5b612aa8565b60018081111561298c577f4e487b7100000000000000000000000000000000000000000000000000000000600052602160045260246000fd5b8460018111156129c5577f4e487b7100000000000000000000000000000000000000000000000000000000600052602160045260246000fd5b1415612a6c578185901b876129da9190613c8f565b925086831115612a1f576040517f08c379a0000000000000000000000000000000000000000000000000000000008152600401612a1690613725565b60405180910390fd5b84818389901c161015612a67576040517f08c379a0000000000000000000000000000000000000000000000000000000008152600401612a5e90613725565b60405180910390fd5b612aa7565b6040517f08c379a0000000000000000000000000000000000000000000000000000000008152600401612a9e90613865565b60405180910390fd5b5b5050949350505050565b600080823f90506000801b8114158015612aef57507fc5d2460186f7233c927e7db2dcc703c0e500b653ca82273b7bfad8045d85a47060001b8114155b915050919050565b600080612b038561146e565b8092508193505050612b666000808873ffffffffffffffffffffffffffffffffffffffff1673ffffffffffffffffffffffffffffffffffffffff1681526020019081526020016000206000848152602001908152602001600020548286866127fa565b6000808873ffffffffffffffffffffffffffffffffffffffff1673ffffffffffffffffffffffffffffffffffffffff168152602001908152602001600020600084815260200190815260200160002081905550505050505050565b6000612bd4612bcf8461394e565b613929565b90508083825260208201905082856020860282011115612bf357600080fd5b60005b85811015612c235781612c098882612cd7565b845260208401935060208301925050600181019050612bf6565b5050509392505050565b6000612c40612c3b8461397a565b613929565b90508083825260208201905082856020860282011115612c5f57600080fd5b60005b85811015612c8f5781612c758882612da9565b845260208401935060208301925050600181019050612c62565b5050509392505050565b6000612cac612ca7846139a6565b613929565b905082815260208101848484011115612cc457600080fd5b612ccf848285613d37565b509392505050565b600081359050612ce68161445a565b92915050565b600082601f830112612cfd57600080fd5b8135612d0d848260208601612bc1565b91505092915050565b600082601f830112612d2757600080fd5b8135612d37848260208601612c2d565b91505092915050565b600081359050612d4f81614471565b92915050565b600081359050612d6481614488565b92915050565b600081519050612d7981614488565b92915050565b600082601f830112612d9057600080fd5b8135612da0848260208601612c99565b91505092915050565b600081359050612db88161449f565b92915050565b600060208284031215612dd057600080fd5b6000612dde84828501612cd7565b91505092915050565b60008060408385031215612dfa57600080fd5b6000612e0885828601612cd7565b9250506020612e1985828601612cd7565b9150509250929050565b600080600080600060a08688031215612e3b57600080fd5b6000612e4988828901612cd7565b9550506020612e5a88828901612cd7565b945050604086013567ffffffffffffffff811115612e7757600080fd5b612e8388828901612d16565b935050606086013567ffffffffffffffff811115612ea057600080fd5b612eac88828901612d16565b925050608086013567ffffffffffffffff811115612ec957600080fd5b612ed588828901612d7f565b9150509295509295909350565b600080600080600060a08688031215612efa57600080fd5b6000612f0888828901612cd7565b9550506020612f1988828901612cd7565b9450506040612f2a88828901612da9565b9350506060612f3b88828901612da9565b925050608086013567ffffffffffffffff811115612f5857600080fd5b612f6488828901612d7f565b9150509295509295909350565b600080600060608486031215612f8657600080fd5b6000612f9486828701612cd7565b935050602084013567ffffffffffffffff811115612fb157600080fd5b612fbd86828701612d16565b925050604084013567ffffffffffffffff811115612fda57600080fd5b612fe686828701612d16565b9150509250925092565b6000806000806080858703121561300657600080fd5b600061301487828801612cd7565b945050602085013567ffffffffffffffff81111561303157600080fd5b61303d87828801612d16565b935050604085013567ffffffffffffffff81111561305a57600080fd5b61306687828801612d16565b925050606085013567ffffffffffffffff81111561308357600080fd5b61308f87828801612d7f565b91505092959194509250565b600080604083850312156130ae57600080fd5b60006130bc85828601612cd7565b92505060206130cd85828601612d40565b9150509250929050565b600080604083850312156130ea57600080fd5b60006130f885828601612cd7565b925050602061310985828601612da9565b9150509250929050565b6000806040838503121561312657600080fd5b600083013567ffffffffffffffff81111561314057600080fd5b61314c85828601612cec565b925050602083013567ffffffffffffffff81111561316957600080fd5b61317585828601612d16565b9150509250929050565b60006020828403121561319157600080fd5b600061319f84828501612d55565b91505092915050565b6000602082840312156131ba57600080fd5b60006131c884828501612d6a565b91505092915050565b6000602082840312156131e357600080fd5b60006131f184828501612da9565b91505092915050565b6000806040838503121561320d57600080fd5b600061321b85828601612da9565b925050602061322c85828601612da9565b9150509250929050565b60006132428383613556565b60208301905092915050565b61325781613cc3565b82525050565b6000613268826139e7565b6132728185613a0a565b935061327d836139d7565b8060005b838110156132ae5781516132958882613236565b97506132a0836139fd565b925050600181019050613281565b5085935050505092915050565b6132c481613cd5565b82525050565b60006132d5826139f2565b6132df8185613a1b565b93506132ef818560208601613d46565b6132f881613eb1565b840191505092915050565b6000613310603983613a2c565b915061331b82613ecf565b604082019050919050565b6000613333603d83613a2c565b915061333e82613f1e565b604082019050919050565b6000613356602683613a2c565b915061336182613f6d565b604082019050919050565b6000613379603383613a2c565b915061338482613fbc565b604082019050919050565b600061339c603783613a2c565b91506133a78261400b565b604082019050919050565b60006133bf604283613a2c565b91506133ca8261405a565b606082019050919050565b60006133e2604c83613a2c565b91506133ed826140cf565b606082019050919050565b6000613405603c83613a2c565b915061341082614144565b604082019050919050565b6000613428602083613a2c565b915061343382614193565b602082019050919050565b600061344b603d83613a2c565b9150613456826141bc565b604082019050919050565b600061346e603683613a2c565b91506134798261420b565b604082019050919050565b6000613491604783613a2c565b915061349c8261425a565b606082019050919050565b60006134b4603883613a2c565b91506134bf826142cf565b604082019050919050565b60006134d7604583613a2c565b91506134e28261431e565b606082019050919050565b60006134fa600f83613a2c565b915061350582614393565b602082019050919050565b600061351d603e83613a2c565b9150613528826143bc565b604082019050919050565b6000613540603283613a2c565b915061354b8261440b565b604082019050919050565b61355f81613d2d565b82525050565b61356e81613d2d565b82525050565b6000602082019050613589600083018461324e565b92915050565b600060a0820190506135a4600083018861324e565b6135b1602083018761324e565b81810360408301526135c3818661325d565b905081810360608301526135d7818561325d565b905081810360808301526135eb81846132ca565b90509695505050505050565b600060a08201905061360c600083018861324e565b613619602083018761324e565b6136266040830186613565565b6136336060830185613565565b818103608083015261364581846132ca565b90509695505050505050565b6000602082019050818103600083015261366b818461325d565b905092915050565b6000604082019050818103600083015261368d818561325d565b905081810360208301526136a1818461325d565b90509392505050565b60006020820190506136bf60008301846132bb565b92915050565b600060208201905081810360008301526136de81613303565b9050919050565b600060208201905081810360008301526136fe81613326565b9050919050565b6000602082019050818103600083015261371e81613349565b9050919050565b6000602082019050818103600083015261373e8161336c565b9050919050565b6000602082019050818103600083015261375e8161338f565b9050919050565b6000602082019050818103600083015261377e816133b2565b9050919050565b6000602082019050818103600083015261379e816133d5565b9050919050565b600060208201905081810360008301526137be816133f8565b9050919050565b600060208201905081810360008301526137de8161341b565b9050919050565b600060208201905081810360008301526137fe8161343e565b9050919050565b6000602082019050818103600083015261381e81613461565b9050919050565b6000602082019050818103600083015261383e81613484565b9050919050565b6000602082019050818103600083015261385e816134a7565b9050919050565b6000602082019050818103600083015261387e816134ca565b9050919050565b6000602082019050818103600083015261389e816134ed565b9050919050565b600060208201905081810360008301526138be81613510565b9050919050565b600060208201905081810360008301526138de81613533565b9050919050565b60006020820190506138fa6000830184613565565b92915050565b60006040820190506139156000830185613565565b6139226020830184613565565b9392505050565b6000613933613944565b905061393f8282613d79565b919050565b6000604051905090565b600067ffffffffffffffff82111561396957613968613e82565b5b602082029050602081019050919050565b600067ffffffffffffffff82111561399557613994613e82565b5b602082029050602081019050919050565b600067ffffffffffffffff8211156139c1576139c0613e82565b5b6139ca82613eb1565b9050602081019050919050565b6000819050602082019050919050565b600081519050919050565b600081519050919050565b6000602082019050919050565b600082825260208201905092915050565b600082825260208201905092915050565b600082825260208201905092915050565b6000613a4882613d2d565b9150613a5383613d2d565b9250827fffffffffffffffffffffffffffffffffffffffffffffffffffffffffffffffff03821115613a8857613a87613e24565b5b828201905092915050565b6000613a9e82613d2d565b9150613aa983613d2d565b925082613ab957613ab8613e53565b5b828204905092915050565b6000808291508390505b6001851115613b0e57808604811115613aea57613ae9613e24565b5b6001851615613af95780820291505b8081029050613b0785613ec2565b9450613ace565b94509492505050565b6000613b2282613d2d565b9150613b2d83613d2d565b9250613b5a7fffffffffffffffffffffffffffffffffffffffffffffffffffffffffffffffff8484613b62565b905092915050565b600082613b725760019050613c2e565b81613b805760009050613c2e565b8160018114613b965760028114613ba057613bcf565b6001915050613c2e565b60ff841115613bb257613bb1613e24565b5b8360020a915084821115613bc957613bc8613e24565b5b50613c2e565b5060208310610133831016604e8410600b8410161715613c045782820a905083811115613bff57613bfe613e24565b5b613c2e565b613c118484846001613ac4565b92509050818404811115613c2857613c27613e24565b5b81810290505b9392505050565b6000613c4082613d2d565b9150613c4b83613d2d565b9250817fffffffffffffffffffffffffffffffffffffffffffffffffffffffffffffffff0483118215151615613c8457613c83613e24565b5b828202905092915050565b6000613c9a82613d2d565b9150613ca583613d2d565b925082821015613cb857613cb7613e24565b5b828203905092915050565b6000613cce82613d0d565b9050919050565b60008115159050919050565b60007fffffffff0000000000000000000000000000000000000000000000000000000082169050919050565b600073ffffffffffffffffffffffffffffffffffffffff82169050919050565b6000819050919050565b82818337600083830152505050565b60005b83811015613d64578082015181840152602081019050613d49565b83811115613d73576000848401525b50505050565b613d8282613eb1565b810181811067ffffffffffffffff82111715613da157613da0613e82565b5b80604052505050565b6000613db582613d2d565b91507fffffffffffffffffffffffffffffffffffffffffffffffffffffffffffffffff821415613de857613de7613e24565b5b600182019050919050565b6000613dfe82613d2d565b9150613e0983613d2d565b925082613e1957613e18613e53565b5b828206905092915050565b7f4e487b7100000000000000000000000000000000000000000000000000000000600052601160045260246000fd5b7f4e487b7100000000000000000000000000000000000000000000000000000000600052601260045260246000fd5b7f4e487b7100000000000000000000000000000000000000000000000000000000600052604160045260246000fd5b6000601f19601f8301169050919050565b60008160011c9050919050565b7f455243313135355061636b656442616c616e63652362616c616e63654f66426160008201527f7463683a20494e56414c49445f41525241595f4c454e47544800000000000000602082015250565b7f455243313135355061636b656442616c616e636523736166654261746368547260008201527f616e7366657246726f6d3a20494e56414c49445f524543495049454e54000000602082015250565b7f4f776e61626c653a206e6577206f776e657220697320746865207a65726f206160008201527f6464726573730000000000000000000000000000000000000000000000000000602082015250565b7f455243313135355061636b656442616c616e6365235f7669657755706461746560008201527f42696e56616c75653a20554e444552464c4f5700000000000000000000000000602082015250565b7f455243313135355061636b656442616c616e636523736166655472616e73666560008201527f7246726f6d3a20494e56414c49445f4f50455241544f52000000000000000000602082015250565b7f455243313135355061636b656442616c616e6365235f7361666542617463685460008201527f72616e7366657246726f6d3a20494e56414c49445f4152524159535f4c454e4760208201527f5448000000000000000000000000000000000000000000000000000000000000604082015250565b7f455243313135355061636b656442616c616e6365235f63616c6c6f6e4552433160008201527f313535426174636852656365697665643a20494e56414c49445f4f4e5f52454360208201527f454956455f4d4553534147450000000000000000000000000000000000000000604082015250565b7f455243313135355061636b656442616c616e636523736166654261746368547260008201527f616e7366657246726f6d3a20494e56414c49445f4f50455241544f5200000000602082015250565b7f4f776e61626c653a2063616c6c6572206973206e6f7420746865206f776e6572600082015250565b7f455243313135354d696e744275726e5061636b656442616c616e63652362617460008201527f63684275726e3a20494e56414c49445f4152524159535f4c454e475448000000602082015250565b7f455243313135355061636b656442616c616e6365235f7361666542617463685460008201527f72616e7366657246726f6d3a20554e444552464c4f5700000000000000000000602082015250565b7f455243313135355061636b656442616c616e6365235f63616c6c6f6e4552433160008201527f31353552656365697665643a20494e56414c49445f4f4e5f524543454956455f60208201527f4d45535341474500000000000000000000000000000000000000000000000000604082015250565b7f455243313135355061636b656442616c616e636523736166655472616e73666560008201527f7246726f6d3a20494e56414c49445f524543495049454e540000000000000000602082015250565b7f455243313135355061636b656442616c616e6365235f7669657755706461746560008201527f42696e56616c75653a20494e56414c49445f42494e5f57524954455f4f50455260208201527f4154494f4e000000000000000000000000000000000000000000000000000000604082015250565b7f4e4f5420544845204449414d4f4e440000000000000000000000000000000000600082015250565b7f455243313135354d696e744275726e5061636b656442616c616e6365235f626160008201527f7463684d696e743a20494e56414c49445f4152524159535f4c454e4754480000602082015250565b7f455243313135355061636b656442616c616e6365235f7669657755706461746560008201527f42696e56616c75653a204f564552464c4f570000000000000000000000000000602082015250565b61446381613cc3565b811461446e57600080fd5b50565b61447a81613cd5565b811461448557600080fd5b50565b61449181613ce1565b811461449c57600080fd5b50565b6144a881613d2d565b81146144b357600080fd5b5056fea2646970667358221220420082fc78b77b9ff9eec991162876960a56fa3d0d4a403829ef4b803844db5764736f6c63430008030033",
  "devdoc": {
    "kind": "dev",
    "methods": {
      "balanceOf(address,uint256)": {
        "params": {
          "_id": "ID of the Token",
          "_owner": "The address of the token holder"
        },
        "returns": {
          "_0": "The _owner's balance of the Token type requested"
        }
      },
      "balanceOfBatch(address[],uint256[])": {
        "params": {
          "_ids": "ID of the Tokens (sorted ids will lead to less gas usage",
          "_owners": "The addresses of the token holders (sorted owners will lead to less gas usage)"
        },
        "returns": {
          "_0": "The _owner's balance of the Token types requested (i.e. balance for each (owner, id) pair)"
        }
      },
      "getIDBinIndex(uint256)": {
        "params": {
          "_id": "Token id"
        },
        "returns": {
          "bin": "index (Bin number, ID\"s index within that bin)"
        }
      },
      "getValueInBin(uint256,uint256)": {
        "params": {
          "_binValues": "uint256 containing the balances of IDS_PER_UINT256 ids",
          "_index": "Index at which to retrieve amount"
        },
        "returns": {
          "_0": "amount at given _index in _bin"
        }
      },
      "isApprovedForAll(address,address)": {
        "params": {
          "_operator": "Address of authorized operator",
          "_owner": "The owner of the Tokens"
        },
        "returns": {
          "isOperator": "True if the operator is approved, false if not"
        }
      },
      "owner()": {
        "details": "Returns the address of the current owner."
      },
      "renounceOwnership()": {
        "details": "Leaves the contract without owner. It will not be possible to call `onlyOwner` functions anymore. Can only be called by the current owner. NOTE: Renouncing ownership will leave the contract without an owner, thereby removing any functionality that is only available to the owner."
      },
      "safeBatchTransferFrom(address,address,uint256[],uint256[],bytes)": {
        "details": "Arrays should be sorted so that all ids in a same storage slot are adjacent (more efficient)",
        "params": {
          "_amounts": "Transfer amounts per token type",
          "_data": "Additional data with no specified format, sent in call to `_to`",
          "_from": "Source addresses",
          "_ids": "IDs of each token type",
          "_to": "Target addresses"
        }
      },
      "safeTransferFrom(address,address,uint256,uint256,bytes)": {
        "params": {
          "_amount": "Transfered amount",
          "_data": "Additional data with no specified format, sent in call to `_to`",
          "_from": "Source address",
          "_id": "ID of the token type",
          "_to": "Target address"
        }
      },
      "setApprovalForAll(address,bool)": {
        "params": {
          "_approved": "True if the operator is approved, false to revoke approval",
          "_operator": "Address to add to the set of authorized operators"
        }
      },
      "supportsInterface(bytes4)": {
        "params": {
          "_interfaceID": "The interface identifier, as specified in ERC-165"
        },
        "returns": {
          "_0": "`true` if the contract implements `_interfaceID` and"
        }
      },
      "transferOwnership(address)": {
        "details": "Transfers ownership of the contract to a new account (`newOwner`). Can only be called by the current owner."
      }
    },
    "version": 1
  },
  "userdoc": {
    "kind": "user",
    "methods": {
      "balanceOf(address,uint256)": {
        "notice": "Get the balance of an account's Tokens"
      },
      "balanceOfBatch(address[],uint256[])": {
        "notice": "Get the balance of multiple account/token pairs"
      },
      "getIDBinIndex(uint256)": {
        "notice": "Return the bin number and index within that bin where ID is"
      },
      "getValueInBin(uint256,uint256)": {
        "notice": "Return amount in _binValues at position _index"
      },
      "isApprovedForAll(address,address)": {
        "notice": "Queries the approval status of an operator for a given owner"
      },
      "safeBatchTransferFrom(address,address,uint256[],uint256[],bytes)": {
        "notice": "Send multiple types of Tokens from the _from address to the _to address (with safety call)"
      },
      "safeTransferFrom(address,address,uint256,uint256,bytes)": {
        "notice": "Transfers amount amount of an _id from the _from address to the _to address specified"
      },
      "setApprovalForAll(address,bool)": {
        "notice": "Enable or disable approval for a third party (\"operator\") to manage all of caller's tokens"
      },
      "supportsInterface(bytes4)": {
        "notice": "Query if a contract implements an interface"
      }
    },
    "version": 1
  },
  "storageLayout": {
    "storage": [
      {
        "astId": 12863,
        "contract": "contracts/ResourceTokens.sol:ResourceTokens",
        "label": "balances",
        "offset": 0,
        "slot": "0",
        "type": "t_mapping(t_address,t_mapping(t_uint256,t_uint256))"
      },
      {
        "astId": 12869,
        "contract": "contracts/ResourceTokens.sol:ResourceTokens",
        "label": "operators",
        "offset": 0,
        "slot": "1",
        "type": "t_mapping(t_address,t_mapping(t_address,t_bool))"
      },
      {
        "astId": 2769,
        "contract": "contracts/ResourceTokens.sol:ResourceTokens",
        "label": "_owner",
        "offset": 0,
        "slot": "2",
        "type": "t_address"
      },
      {
        "astId": 7295,
        "contract": "contracts/ResourceTokens.sol:ResourceTokens",
        "label": "treasury",
        "offset": 0,
        "slot": "3",
        "type": "t_address"
      },
      {
        "astId": 7297,
        "contract": "contracts/ResourceTokens.sol:ResourceTokens",
        "label": "diamond",
        "offset": 0,
        "slot": "4",
        "type": "t_address"
      }
    ],
    "types": {
      "t_address": {
        "encoding": "inplace",
        "label": "address",
        "numberOfBytes": "20"
      },
      "t_bool": {
        "encoding": "inplace",
        "label": "bool",
        "numberOfBytes": "1"
      },
      "t_mapping(t_address,t_bool)": {
        "encoding": "mapping",
        "key": "t_address",
        "label": "mapping(address => bool)",
        "numberOfBytes": "32",
        "value": "t_bool"
      },
      "t_mapping(t_address,t_mapping(t_address,t_bool))": {
        "encoding": "mapping",
        "key": "t_address",
        "label": "mapping(address => mapping(address => bool))",
        "numberOfBytes": "32",
        "value": "t_mapping(t_address,t_bool)"
      },
      "t_mapping(t_address,t_mapping(t_uint256,t_uint256))": {
        "encoding": "mapping",
        "key": "t_address",
        "label": "mapping(address => mapping(uint256 => uint256))",
        "numberOfBytes": "32",
        "value": "t_mapping(t_uint256,t_uint256)"
      },
      "t_mapping(t_uint256,t_uint256)": {
        "encoding": "mapping",
        "key": "t_uint256",
        "label": "mapping(uint256 => uint256)",
        "numberOfBytes": "32",
        "value": "t_uint256"
      },
      "t_uint256": {
        "encoding": "inplace",
        "label": "uint256",
        "numberOfBytes": "32"
      }
    }
  }
}