{
  "address": "0xC19602E4B6eB87A62db517fA90f439A8C663BbB1",
  "abi": [
    {
      "anonymous": false,
      "inputs": [
        {
          "indexed": false,
          "internalType": "address",
          "name": "lord",
          "type": "address"
        },
        {
          "indexed": false,
          "internalType": "uint256",
          "name": "realmID",
          "type": "uint256"
        },
        {
          "indexed": false,
          "internalType": "uint256",
          "name": "buildingID",
          "type": "uint256"
        },
        {
          "indexed": false,
          "internalType": "uint256[]",
          "name": "resourcesValues",
          "type": "uint256[]"
        },
        {
          "indexed": false,
          "internalType": "uint256[]",
          "name": "resourcesBurnt",
          "type": "uint256[]"
        }
      ],
      "name": "ResourceUpgraded",
      "type": "event"
    },
    {
      "inputs": [
        {
          "internalType": "uint256",
          "name": "_resourceId",
          "type": "uint256"
        },
        {
          "internalType": "uint256",
          "name": "_level",
          "type": "uint256"
        }
      ],
      "name": "getCosts",
      "outputs": [
        {
          "internalType": "uint8[]",
          "name": "",
          "type": "uint8[]"
        },
        {
          "internalType": "uint256[]",
          "name": "",
          "type": "uint256[]"
        }
      ],
      "stateMutability": "view",
      "type": "function"
    },
    {
      "inputs": [
        {
          "internalType": "uint256",
          "name": "_tokenId",
          "type": "uint256"
        },
        {
          "internalType": "uint256",
          "name": "_resourceId",
          "type": "uint256"
        }
      ],
      "name": "getProductionDetails",
      "outputs": [
        {
          "internalType": "uint256",
          "name": "",
          "type": "uint256"
        },
        {
          "internalType": "uint256",
          "name": "",
          "type": "uint256"
        }
      ],
      "stateMutability": "view",
      "type": "function"
    },
    {
      "inputs": [
        {
          "internalType": "uint256",
          "name": "_realmTokenId",
          "type": "uint256"
        },
        {
          "internalType": "uint256",
          "name": "_resourceId",
          "type": "uint256"
        },
        {
          "internalType": "uint256[]",
          "name": "resources",
          "type": "uint256[]"
        },
        {
          "internalType": "uint256[]",
          "name": "resourceValues",
          "type": "uint256[]"
        }
      ],
      "name": "upgradeResource",
      "outputs": [],
      "stateMutability": "payable",
      "type": "function"
    }
  ],
  "transactionHash": "0x7e35f045e35d434826d2f3c4aa89ac5f2668d064e542adb899942a154cdbe063",
  "args": [],
  "solcInputHash": "c58a2ef0c3598694c083c551142007ab",
  "bytecode": "0x608060405234801561001057600080fd5b50610f48806100206000396000f3fe6080604052600436106100345760003560e01c806396a2d73b14610039578063b364a22114610077578063f9831c7d14610093575b600080fd5b34801561004557600080fd5b50610060600480360381019061005b9190610858565b6100d1565b60405161006e929190610b5e565b60405180910390f35b610091600480360381019061008c9190610894565b6101df565b005b34801561009f57600080fd5b506100ba60048036038101906100b59190610858565b6106ef565b6040516100c8929190610c10565b60405180910390f35b606080600080600a0160008681526020019081526020016000209050806000018160010160008681526020019081526020016000206000018180548060200260200160405190810160405280929190818152602001828054801561017a57602002820191906000526020600020906000905b82829054906101000a900460ff1660ff16815260200190600101906020826000010492830192600103820291508084116101435790505b50505050509150808054806020026020016040519081016040528092919081815260200182805480156101cc57602002820191906000526020600020905b8154815260200190600101908083116101b8575b5050505050905092509250509250929050565b8360008060030160029054906101000a900473ffffffffffffffffffffffffffffffffffffffff1690508073ffffffffffffffffffffffffffffffffffffffff16636352211e836040518263ffffffff1660e01b81526004016102429190610bf5565b60206040518083038186803b15801561025a57600080fd5b505afa15801561026e573d6000803e3d6000fd5b505050506040513d601f19601f82011682018060405250810190610292919061082f565b73ffffffffffffffffffffffffffffffffffffffff163373ffffffffffffffffffffffffffffffffffffffff16146102ff576040517f08c379a00000000000000000000000000000000000000000000000000000000081526004016102f690610b95565b60405180910390fd5b60008060000160008881526020019081526020016000209050600080600a016000888152602001908152602001600020905060008060060160009054906101000a900473ffffffffffffffffffffffffffffffffffffffff16905060005b8260000180549050811015610563578260000181815481106103a8577f4e487b7100000000000000000000000000000000000000000000000000000000600052603260045260246000fd5b90600052602060002090602091828204019190069054906101000a900460ff1660ff16888281518110610404577f4e487b7100000000000000000000000000000000000000000000000000000000600052603260045260246000fd5b60200260200101511461044c576040517f08c379a000000000000000000000000000000000000000000000000000000000815260040161044390610bb5565b60405180910390fd5b8260010160008560070160008c815260200190815260200160002060000160019054906101000a900460ff1660ff16815260200190815260200160002060000181815481106104c4577f4e487b7100000000000000000000000000000000000000000000000000000000600052603260045260246000fd5b9060005260206000200154878281518110610508577f4e487b7100000000000000000000000000000000000000000000000000000000600052603260045260246000fd5b602002602001015114610550576040517f08c379a000000000000000000000000000000000000000000000000000000000815260040161054790610bd5565b60405180910390fd5b808061055b90610d87565b91505061035d565b508073ffffffffffffffffffffffffffffffffffffffff1663ddb6f7f13389896040518463ffffffff1660e01b81526004016105a193929190610ab8565b600060405180830381600087803b1580156105bb57600080fd5b505af11580156105cf573d6000803e3d6000fd5b50505050826007016000898152602001908152602001600020600001600181819054906101000a900460ff168092919061060890610dd0565b91906101000a81548160ff021916908360ff1602179055505060008060090160008560070160008c815260200190815260200160002060000160019054906101000a900460ff1660ff16815260200190815260200160002090508060000160009054906101000a900460ff168460070160008b815260200190815260200160002060000160026101000a81548160ff021916908360ff1602179055507f0c964a79da87fe8361bd37a15bd84ac04c3250382c830e50e2701845f34f0904338b8b8b8b6040516106db959493929190610afd565b60405180910390a150505050505050505050565b6000806000806000016000868152602001908152602001600020905080600701600085815260200190815260200160002060000160019054906101000a900460ff1681600701600086815260200190815260200160002060000160029054906101000a900460ff168160ff1691508060ff16905092509250509250929050565b600061078261077d84610c5e565b610c39565b905080838252602082019050828560208602820111156107a157600080fd5b60005b858110156107d157816107b7888261081a565b8452602084019350602083019250506001810190506107a4565b5050509392505050565b6000815190506107ea81610ee4565b92915050565b600082601f83011261080157600080fd5b813561081184826020860161076f565b91505092915050565b60008135905061082981610efb565b92915050565b60006020828403121561084157600080fd5b600061084f848285016107db565b91505092915050565b6000806040838503121561086b57600080fd5b60006108798582860161081a565b925050602061088a8582860161081a565b9150509250929050565b600080600080608085870312156108aa57600080fd5b60006108b88782880161081a565b94505060206108c98782880161081a565b935050604085013567ffffffffffffffff8111156108e657600080fd5b6108f2878288016107f0565b925050606085013567ffffffffffffffff81111561090f57600080fd5b61091b878288016107f0565b91505092959194509250565b60006109338383610a8b565b60208301905092915050565b600061094b8383610aa9565b60208301905092915050565b61096081610d0d565b82525050565b600061097182610caa565b61097b8185610cda565b935061098683610c8a565b8060005b838110156109b757815161099e8882610927565b97506109a983610cc0565b92505060018101905061098a565b5085935050505092915050565b60006109cf82610cb5565b6109d98185610ceb565b93506109e483610c9a565b8060005b83811015610a155781516109fc888261093f565b9750610a0783610ccd565b9250506001810190506109e8565b5085935050505092915050565b6000610a2f601983610cfc565b9150610a3a82610e69565b602082019050919050565b6000610a52601283610cfc565b9150610a5d82610e92565b602082019050919050565b6000610a75601a83610cfc565b9150610a8082610ebb565b602082019050919050565b610a9481610d3f565b82525050565b610aa381610d3f565b82525050565b610ab281610d49565b82525050565b6000606082019050610acd6000830186610957565b8181036020830152610adf8185610966565b90508181036040830152610af38184610966565b9050949350505050565b600060a082019050610b126000830188610957565b610b1f6020830187610a9a565b610b2c6040830186610a9a565b8181036060830152610b3e8185610966565b90508181036080830152610b528184610966565b90509695505050505050565b60006040820190508181036000830152610b7881856109c4565b90508181036020830152610b8c8184610966565b90509392505050565b60006020820190508181036000830152610bae81610a22565b9050919050565b60006020820190508181036000830152610bce81610a45565b9050919050565b60006020820190508181036000830152610bee81610a68565b9050919050565b6000602082019050610c0a6000830184610a9a565b92915050565b6000604082019050610c256000830185610a9a565b610c326020830184610a9a565b9392505050565b6000610c43610c54565b9050610c4f8282610d56565b919050565b6000604051905090565b600067ffffffffffffffff821115610c7957610c78610e29565b5b602082029050602081019050919050565b6000819050602082019050919050565b6000819050602082019050919050565b600081519050919050565b600081519050919050565b6000602082019050919050565b6000602082019050919050565b600082825260208201905092915050565b600082825260208201905092915050565b600082825260208201905092915050565b6000610d1882610d1f565b9050919050565b600073ffffffffffffffffffffffffffffffffffffffff82169050919050565b6000819050919050565b600060ff82169050919050565b610d5f82610e58565b810181811067ffffffffffffffff82111715610d7e57610d7d610e29565b5b80604052505050565b6000610d9282610d3f565b91507fffffffffffffffffffffffffffffffffffffffffffffffffffffffffffffffff821415610dc557610dc4610dfa565b5b600182019050919050565b6000610ddb82610d49565b915060ff821415610def57610dee610dfa565b5b600182019050919050565b7f4e487b7100000000000000000000000000000000000000000000000000000000600052601160045260246000fd5b7f4e487b7100000000000000000000000000000000000000000000000000000000600052604160045260246000fd5b6000601f19601f8301169050919050565b7f596f7520646f206e6f74206f776e2074686973205265616c6d00000000000000600082015250565b7f496e636f7272656374207265736f757263650000000000000000000000000000600082015250565b7f496e636f7272656374207265736f75726365732076616c756573000000000000600082015250565b610eed81610d0d565b8114610ef857600080fd5b50565b610f0481610d3f565b8114610f0f57600080fd5b5056fea2646970667358221220a7ff0d3a86d5e443262df39ae0a487af5f4b47dc5c0df83754b1212defa61d9a64736f6c63430008030033",
  "devdoc": {
    "kind": "dev",
    "methods": {},
    "version": 1
  },
  "userdoc": {
    "kind": "user",
    "methods": {},
    "version": 1
  },
  "storageLayout": {
    "storage": [
      {
        "astId": 1857,
        "contract": "contracts/settling/facets/ResourceConstructionFacet.sol:ResourceConstructionFacet",
        "label": "s",
        "offset": 0,
        "slot": "0",
        "type": "t_struct(AppStorage)861_storage"
      }
    ],
    "types": {
      "t_address": {
        "encoding": "inplace",
        "label": "address",
        "numberOfBytes": "20"
      },
      "t_array(t_uint256)dyn_storage": {
        "base": "t_uint256",
        "encoding": "dynamic_array",
        "label": "uint256[]",
        "numberOfBytes": "32"
      },
      "t_array(t_uint32)dyn_storage": {
        "base": "t_uint32",
        "encoding": "dynamic_array",
        "label": "uint32[]",
        "numberOfBytes": "32"
      },
      "t_array(t_uint8)dyn_storage": {
        "base": "t_uint8",
        "encoding": "dynamic_array",
        "label": "uint8[]",
        "numberOfBytes": "32"
      },
      "t_int32": {
        "encoding": "inplace",
        "label": "int32",
        "numberOfBytes": "4"
      },
      "t_mapping(t_uint256,t_struct(BuildingCosts)963_storage)": {
        "encoding": "mapping",
        "key": "t_uint256",
        "label": "mapping(uint256 => struct BuildingCosts)",
        "numberOfBytes": "32",
        "value": "t_struct(BuildingCosts)963_storage"
      },
      "t_mapping(t_uint256,t_struct(BuildingUpgradeCosts)972_storage)": {
        "encoding": "mapping",
        "key": "t_uint256",
        "label": "mapping(uint256 => struct BuildingUpgradeCosts)",
        "numberOfBytes": "32",
        "value": "t_struct(BuildingUpgradeCosts)972_storage"
      },
      "t_mapping(t_uint256,t_struct(LevelProduction)975_storage)": {
        "encoding": "mapping",
        "key": "t_uint256",
        "label": "mapping(uint256 => struct LevelProduction)",
        "numberOfBytes": "32",
        "value": "t_struct(LevelProduction)975_storage"
      },
      "t_mapping(t_uint256,t_struct(RealmBuildings)941_storage)": {
        "encoding": "mapping",
        "key": "t_uint256",
        "label": "mapping(uint256 => struct RealmBuildings)",
        "numberOfBytes": "32",
        "value": "t_struct(RealmBuildings)941_storage"
      },
      "t_mapping(t_uint256,t_struct(RealmInfo)910_storage)": {
        "encoding": "mapping",
        "key": "t_uint256",
        "label": "mapping(uint256 => struct RealmInfo)",
        "numberOfBytes": "32",
        "value": "t_struct(RealmInfo)910_storage"
      },
      "t_mapping(t_uint256,t_struct(RealmStatistics)879_storage)": {
        "encoding": "mapping",
        "key": "t_uint256",
        "label": "mapping(uint256 => struct RealmStatistics)",
        "numberOfBytes": "32",
        "value": "t_struct(RealmStatistics)879_storage"
      },
      "t_mapping(t_uint256,t_struct(ResourceInfo)917_storage)": {
        "encoding": "mapping",
        "key": "t_uint256",
        "label": "mapping(uint256 => struct ResourceInfo)",
        "numberOfBytes": "32",
        "value": "t_struct(ResourceInfo)917_storage"
      },
      "t_mapping(t_uint256,t_struct(TheAges)868_storage)": {
        "encoding": "mapping",
        "key": "t_uint256",
        "label": "mapping(uint256 => struct TheAges)",
        "numberOfBytes": "32",
        "value": "t_struct(TheAges)868_storage"
      },
      "t_mapping(t_uint256,t_struct(UpgradeCostLevels)988_storage)": {
        "encoding": "mapping",
        "key": "t_uint256",
        "label": "mapping(uint256 => struct UpgradeCostLevels)",
        "numberOfBytes": "32",
        "value": "t_struct(UpgradeCostLevels)988_storage"
      },
      "t_mapping(t_uint256,t_struct(UpgradeCosts)984_storage)": {
        "encoding": "mapping",
        "key": "t_uint256",
        "label": "mapping(uint256 => struct UpgradeCosts)",
        "numberOfBytes": "32",
        "value": "t_struct(UpgradeCosts)984_storage"
      },
      "t_string_storage": {
        "encoding": "bytes",
        "label": "string",
        "numberOfBytes": "32"
      },
      "t_struct(AppStorage)861_storage": {
        "encoding": "inplace",
        "label": "struct AppStorage",
        "members": [
          {
            "astId": 807,
            "contract": "contracts/settling/facets/ResourceConstructionFacet.sol:ResourceConstructionFacet",
            "label": "realmInfo",
            "offset": 0,
            "slot": "0",
            "type": "t_mapping(t_uint256,t_struct(RealmInfo)910_storage)"
          },
          {
            "astId": 812,
            "contract": "contracts/settling/facets/ResourceConstructionFacet.sol:ResourceConstructionFacet",
            "label": "realmStatistics",
            "offset": 0,
            "slot": "1",
            "type": "t_mapping(t_uint256,t_struct(RealmStatistics)879_storage)"
          },
          {
            "astId": 817,
            "contract": "contracts/settling/facets/ResourceConstructionFacet.sol:ResourceConstructionFacet",
            "label": "realmBuildings",
            "offset": 0,
            "slot": "2",
            "type": "t_mapping(t_uint256,t_struct(RealmBuildings)941_storage)"
          },
          {
            "astId": 819,
            "contract": "contracts/settling/facets/ResourceConstructionFacet.sol:ResourceConstructionFacet",
            "label": "baseProductionRate",
            "offset": 0,
            "slot": "3",
            "type": "t_uint8"
          },
          {
            "astId": 821,
            "contract": "contracts/settling/facets/ResourceConstructionFacet.sol:ResourceConstructionFacet",
            "label": "maxProductionRate",
            "offset": 1,
            "slot": "3",
            "type": "t_uint8"
          },
          {
            "astId": 823,
            "contract": "contracts/settling/facets/ResourceConstructionFacet.sol:ResourceConstructionFacet",
            "label": "sRealms",
            "offset": 2,
            "slot": "3",
            "type": "t_address"
          },
          {
            "astId": 825,
            "contract": "contracts/settling/facets/ResourceConstructionFacet.sol:ResourceConstructionFacet",
            "label": "realms",
            "offset": 0,
            "slot": "4",
            "type": "t_address"
          },
          {
            "astId": 827,
            "contract": "contracts/settling/facets/ResourceConstructionFacet.sol:ResourceConstructionFacet",
            "label": "treasury",
            "offset": 0,
            "slot": "5",
            "type": "t_address"
          },
          {
            "astId": 829,
            "contract": "contracts/settling/facets/ResourceConstructionFacet.sol:ResourceConstructionFacet",
            "label": "resources",
            "offset": 0,
            "slot": "6",
            "type": "t_address"
          },
          {
            "astId": 831,
            "contract": "contracts/settling/facets/ResourceConstructionFacet.sol:ResourceConstructionFacet",
            "label": "oracle",
            "offset": 0,
            "slot": "7",
            "type": "t_address"
          },
          {
            "astId": 833,
            "contract": "contracts/settling/facets/ResourceConstructionFacet.sol:ResourceConstructionFacet",
            "label": "lords",
            "offset": 0,
            "slot": "8",
            "type": "t_address"
          },
          {
            "astId": 838,
            "contract": "contracts/settling/facets/ResourceConstructionFacet.sol:ResourceConstructionFacet",
            "label": "levelProduction",
            "offset": 0,
            "slot": "9",
            "type": "t_mapping(t_uint256,t_struct(LevelProduction)975_storage)"
          },
          {
            "astId": 843,
            "contract": "contracts/settling/facets/ResourceConstructionFacet.sol:ResourceConstructionFacet",
            "label": "upgradeCosts",
            "offset": 0,
            "slot": "10",
            "type": "t_mapping(t_uint256,t_struct(UpgradeCosts)984_storage)"
          },
          {
            "astId": 848,
            "contract": "contracts/settling/facets/ResourceConstructionFacet.sol:ResourceConstructionFacet",
            "label": "buildingUpgradeCosts",
            "offset": 0,
            "slot": "11",
            "type": "t_mapping(t_uint256,t_struct(BuildingUpgradeCosts)972_storage)"
          },
          {
            "astId": 853,
            "contract": "contracts/settling/facets/ResourceConstructionFacet.sol:ResourceConstructionFacet",
            "label": "buildingCosts",
            "offset": 0,
            "slot": "12",
            "type": "t_mapping(t_uint256,t_struct(BuildingCosts)963_storage)"
          },
          {
            "astId": 858,
            "contract": "contracts/settling/facets/ResourceConstructionFacet.sol:ResourceConstructionFacet",
            "label": "theAges",
            "offset": 0,
            "slot": "13",
            "type": "t_mapping(t_uint256,t_struct(TheAges)868_storage)"
          },
          {
            "astId": 860,
            "contract": "contracts/settling/facets/ResourceConstructionFacet.sol:ResourceConstructionFacet",
            "label": "genesisTime",
            "offset": 0,
            "slot": "14",
            "type": "t_uint256"
          }
        ],
        "numberOfBytes": "480"
      },
      "t_struct(BuildingCosts)963_storage": {
        "encoding": "inplace",
        "label": "struct BuildingCosts",
        "members": [
          {
            "astId": 943,
            "contract": "contracts/settling/facets/ResourceConstructionFacet.sol:ResourceConstructionFacet",
            "label": "name",
            "offset": 0,
            "slot": "0",
            "type": "t_string_storage"
          },
          {
            "astId": 946,
            "contract": "contracts/settling/facets/ResourceConstructionFacet.sol:ResourceConstructionFacet",
            "label": "resourceIds",
            "offset": 0,
            "slot": "1",
            "type": "t_array(t_uint32)dyn_storage"
          },
          {
            "astId": 949,
            "contract": "contracts/settling/facets/ResourceConstructionFacet.sol:ResourceConstructionFacet",
            "label": "resourceValues",
            "offset": 0,
            "slot": "2",
            "type": "t_array(t_uint32)dyn_storage"
          },
          {
            "astId": 952,
            "contract": "contracts/settling/facets/ResourceConstructionFacet.sol:ResourceConstructionFacet",
            "label": "requirements",
            "offset": 0,
            "slot": "3",
            "type": "t_array(t_uint32)dyn_storage"
          },
          {
            "astId": 954,
            "contract": "contracts/settling/facets/ResourceConstructionFacet.sol:ResourceConstructionFacet",
            "label": "defence",
            "offset": 0,
            "slot": "4",
            "type": "t_int32"
          },
          {
            "astId": 956,
            "contract": "contracts/settling/facets/ResourceConstructionFacet.sol:ResourceConstructionFacet",
            "label": "offence",
            "offset": 4,
            "slot": "4",
            "type": "t_int32"
          },
          {
            "astId": 958,
            "contract": "contracts/settling/facets/ResourceConstructionFacet.sol:ResourceConstructionFacet",
            "label": "magic",
            "offset": 8,
            "slot": "4",
            "type": "t_int32"
          },
          {
            "astId": 960,
            "contract": "contracts/settling/facets/ResourceConstructionFacet.sol:ResourceConstructionFacet",
            "label": "population",
            "offset": 12,
            "slot": "4",
            "type": "t_int32"
          },
          {
            "astId": 962,
            "contract": "contracts/settling/facets/ResourceConstructionFacet.sol:ResourceConstructionFacet",
            "label": "food",
            "offset": 16,
            "slot": "4",
            "type": "t_int32"
          }
        ],
        "numberOfBytes": "160"
      },
      "t_struct(BuildingUpgradeCosts)972_storage": {
        "encoding": "inplace",
        "label": "struct BuildingUpgradeCosts",
        "members": [
          {
            "astId": 966,
            "contract": "contracts/settling/facets/ResourceConstructionFacet.sol:ResourceConstructionFacet",
            "label": "realmBuildings",
            "offset": 0,
            "slot": "0",
            "type": "t_array(t_uint8)dyn_storage"
          },
          {
            "astId": 971,
            "contract": "contracts/settling/facets/ResourceConstructionFacet.sol:ResourceConstructionFacet",
            "label": "buildingCosts",
            "offset": 0,
            "slot": "1",
            "type": "t_mapping(t_uint256,t_struct(BuildingCosts)963_storage)"
          }
        ],
        "numberOfBytes": "64"
      },
      "t_struct(LevelProduction)975_storage": {
        "encoding": "inplace",
        "label": "struct LevelProduction",
        "members": [
          {
            "astId": 974,
            "contract": "contracts/settling/facets/ResourceConstructionFacet.sol:ResourceConstructionFacet",
            "label": "output",
            "offset": 0,
            "slot": "0",
            "type": "t_uint8"
          }
        ],
        "numberOfBytes": "32"
      },
      "t_struct(RealmBuildings)941_storage": {
        "encoding": "inplace",
        "label": "struct RealmBuildings",
        "members": [
          {
            "astId": 924,
            "contract": "contracts/settling/facets/ResourceConstructionFacet.sol:ResourceConstructionFacet",
            "label": "aquaducts",
            "offset": 0,
            "slot": "0",
            "type": "t_uint8"
          },
          {
            "astId": 926,
            "contract": "contracts/settling/facets/ResourceConstructionFacet.sol:ResourceConstructionFacet",
            "label": "temples",
            "offset": 1,
            "slot": "0",
            "type": "t_uint8"
          },
          {
            "astId": 928,
            "contract": "contracts/settling/facets/ResourceConstructionFacet.sol:ResourceConstructionFacet",
            "label": "castles",
            "offset": 2,
            "slot": "0",
            "type": "t_uint8"
          },
          {
            "astId": 930,
            "contract": "contracts/settling/facets/ResourceConstructionFacet.sol:ResourceConstructionFacet",
            "label": "markets",
            "offset": 3,
            "slot": "0",
            "type": "t_uint8"
          },
          {
            "astId": 932,
            "contract": "contracts/settling/facets/ResourceConstructionFacet.sol:ResourceConstructionFacet",
            "label": "ports",
            "offset": 4,
            "slot": "0",
            "type": "t_uint8"
          },
          {
            "astId": 934,
            "contract": "contracts/settling/facets/ResourceConstructionFacet.sol:ResourceConstructionFacet",
            "label": "barracks",
            "offset": 5,
            "slot": "0",
            "type": "t_uint8"
          },
          {
            "astId": 936,
            "contract": "contracts/settling/facets/ResourceConstructionFacet.sol:ResourceConstructionFacet",
            "label": "farms",
            "offset": 6,
            "slot": "0",
            "type": "t_uint8"
          },
          {
            "astId": 938,
            "contract": "contracts/settling/facets/ResourceConstructionFacet.sol:ResourceConstructionFacet",
            "label": "shipyard",
            "offset": 7,
            "slot": "0",
            "type": "t_uint8"
          },
          {
            "astId": 940,
            "contract": "contracts/settling/facets/ResourceConstructionFacet.sol:ResourceConstructionFacet",
            "label": "fishingVillage",
            "offset": 8,
            "slot": "0",
            "type": "t_uint8"
          }
        ],
        "numberOfBytes": "32"
      },
      "t_struct(RealmInfo)910_storage": {
        "encoding": "inplace",
        "label": "struct RealmInfo",
        "members": [
          {
            "astId": 881,
            "contract": "contracts/settling/facets/ResourceConstructionFacet.sol:ResourceConstructionFacet",
            "label": "name",
            "offset": 0,
            "slot": "0",
            "type": "t_string_storage"
          },
          {
            "astId": 883,
            "contract": "contracts/settling/facets/ResourceConstructionFacet.sol:ResourceConstructionFacet",
            "label": "lastUpdateAt",
            "offset": 0,
            "slot": "1",
            "type": "t_uint256"
          },
          {
            "astId": 885,
            "contract": "contracts/settling/facets/ResourceConstructionFacet.sol:ResourceConstructionFacet",
            "label": "vestedTimeUpdatedAt",
            "offset": 0,
            "slot": "2",
            "type": "t_uint256"
          },
          {
            "astId": 887,
            "contract": "contracts/settling/facets/ResourceConstructionFacet.sol:ResourceConstructionFacet",
            "label": "ageSettled",
            "offset": 0,
            "slot": "3",
            "type": "t_uint256"
          },
          {
            "astId": 889,
            "contract": "contracts/settling/facets/ResourceConstructionFacet.sol:ResourceConstructionFacet",
            "label": "ageClaimed",
            "offset": 0,
            "slot": "4",
            "type": "t_uint256"
          },
          {
            "astId": 892,
            "contract": "contracts/settling/facets/ResourceConstructionFacet.sol:ResourceConstructionFacet",
            "label": "resourceIds",
            "offset": 0,
            "slot": "5",
            "type": "t_array(t_uint256)dyn_storage"
          },
          {
            "astId": 894,
            "contract": "contracts/settling/facets/ResourceConstructionFacet.sol:ResourceConstructionFacet",
            "label": "cities",
            "offset": 0,
            "slot": "6",
            "type": "t_uint8"
          },
          {
            "astId": 896,
            "contract": "contracts/settling/facets/ResourceConstructionFacet.sol:ResourceConstructionFacet",
            "label": "harbours",
            "offset": 1,
            "slot": "6",
            "type": "t_uint8"
          },
          {
            "astId": 898,
            "contract": "contracts/settling/facets/ResourceConstructionFacet.sol:ResourceConstructionFacet",
            "label": "rivers",
            "offset": 2,
            "slot": "6",
            "type": "t_uint8"
          },
          {
            "astId": 900,
            "contract": "contracts/settling/facets/ResourceConstructionFacet.sol:ResourceConstructionFacet",
            "label": "regions",
            "offset": 3,
            "slot": "6",
            "type": "t_uint8"
          },
          {
            "astId": 902,
            "contract": "contracts/settling/facets/ResourceConstructionFacet.sol:ResourceConstructionFacet",
            "label": "wonders",
            "offset": 4,
            "slot": "6",
            "type": "t_uint8"
          },
          {
            "astId": 904,
            "contract": "contracts/settling/facets/ResourceConstructionFacet.sol:ResourceConstructionFacet",
            "label": "orderOf",
            "offset": 5,
            "slot": "6",
            "type": "t_uint8"
          },
          {
            "astId": 909,
            "contract": "contracts/settling/facets/ResourceConstructionFacet.sol:ResourceConstructionFacet",
            "label": "resourceInfo",
            "offset": 0,
            "slot": "7",
            "type": "t_mapping(t_uint256,t_struct(ResourceInfo)917_storage)"
          }
        ],
        "numberOfBytes": "256"
      },
      "t_struct(RealmStatistics)879_storage": {
        "encoding": "inplace",
        "label": "struct RealmStatistics",
        "members": [
          {
            "astId": 870,
            "contract": "contracts/settling/facets/ResourceConstructionFacet.sol:ResourceConstructionFacet",
            "label": "realmDefence",
            "offset": 0,
            "slot": "0",
            "type": "t_int32"
          },
          {
            "astId": 872,
            "contract": "contracts/settling/facets/ResourceConstructionFacet.sol:ResourceConstructionFacet",
            "label": "realmOffence",
            "offset": 4,
            "slot": "0",
            "type": "t_int32"
          },
          {
            "astId": 874,
            "contract": "contracts/settling/facets/ResourceConstructionFacet.sol:ResourceConstructionFacet",
            "label": "realmMagic",
            "offset": 8,
            "slot": "0",
            "type": "t_int32"
          },
          {
            "astId": 876,
            "contract": "contracts/settling/facets/ResourceConstructionFacet.sol:ResourceConstructionFacet",
            "label": "foodSupply",
            "offset": 12,
            "slot": "0",
            "type": "t_int32"
          },
          {
            "astId": 878,
            "contract": "contracts/settling/facets/ResourceConstructionFacet.sol:ResourceConstructionFacet",
            "label": "population",
            "offset": 16,
            "slot": "0",
            "type": "t_int32"
          }
        ],
        "numberOfBytes": "32"
      },
      "t_struct(ResourceInfo)917_storage": {
        "encoding": "inplace",
        "label": "struct ResourceInfo",
        "members": [
          {
            "astId": 912,
            "contract": "contracts/settling/facets/ResourceConstructionFacet.sol:ResourceConstructionFacet",
            "label": "id",
            "offset": 0,
            "slot": "0",
            "type": "t_uint8"
          },
          {
            "astId": 914,
            "contract": "contracts/settling/facets/ResourceConstructionFacet.sol:ResourceConstructionFacet",
            "label": "level",
            "offset": 1,
            "slot": "0",
            "type": "t_uint8"
          },
          {
            "astId": 916,
            "contract": "contracts/settling/facets/ResourceConstructionFacet.sol:ResourceConstructionFacet",
            "label": "production",
            "offset": 2,
            "slot": "0",
            "type": "t_uint8"
          }
        ],
        "numberOfBytes": "32"
      },
      "t_struct(TheAges)868_storage": {
        "encoding": "inplace",
        "label": "struct TheAges",
        "members": [
          {
            "astId": 863,
            "contract": "contracts/settling/facets/ResourceConstructionFacet.sol:ResourceConstructionFacet",
            "label": "settledRealms",
            "offset": 0,
            "slot": "0",
            "type": "t_uint256"
          },
          {
            "astId": 865,
            "contract": "contracts/settling/facets/ResourceConstructionFacet.sol:ResourceConstructionFacet",
            "label": "ageStart",
            "offset": 0,
            "slot": "1",
            "type": "t_uint256"
          },
          {
            "astId": 867,
            "contract": "contracts/settling/facets/ResourceConstructionFacet.sol:ResourceConstructionFacet",
            "label": "ageFinish",
            "offset": 0,
            "slot": "2",
            "type": "t_uint256"
          }
        ],
        "numberOfBytes": "96"
      },
      "t_struct(UpgradeCostLevels)988_storage": {
        "encoding": "inplace",
        "label": "struct UpgradeCostLevels",
        "members": [
          {
            "astId": 987,
            "contract": "contracts/settling/facets/ResourceConstructionFacet.sol:ResourceConstructionFacet",
            "label": "value",
            "offset": 0,
            "slot": "0",
            "type": "t_array(t_uint256)dyn_storage"
          }
        ],
        "numberOfBytes": "32"
      },
      "t_struct(UpgradeCosts)984_storage": {
        "encoding": "inplace",
        "label": "struct UpgradeCosts",
        "members": [
          {
            "astId": 978,
            "contract": "contracts/settling/facets/ResourceConstructionFacet.sol:ResourceConstructionFacet",
            "label": "resourceIds",
            "offset": 0,
            "slot": "0",
            "type": "t_array(t_uint8)dyn_storage"
          },
          {
            "astId": 983,
            "contract": "contracts/settling/facets/ResourceConstructionFacet.sol:ResourceConstructionFacet",
            "label": "upgradeCostLevels",
            "offset": 0,
            "slot": "1",
            "type": "t_mapping(t_uint256,t_struct(UpgradeCostLevels)988_storage)"
          }
        ],
        "numberOfBytes": "64"
      },
      "t_uint256": {
        "encoding": "inplace",
        "label": "uint256",
        "numberOfBytes": "32"
      },
      "t_uint32": {
        "encoding": "inplace",
        "label": "uint32",
        "numberOfBytes": "4"
      },
      "t_uint8": {
        "encoding": "inplace",
        "label": "uint8",
        "numberOfBytes": "1"
      }
    }
  }
}