{
  "address": "0x2348f027Dc1C4884a457cfA92472Bd5Ed67E3a70",
  "abi": [
    {
      "inputs": [
        {
          "internalType": "uint256",
          "name": "_resourceId",
          "type": "uint256"
        },
        {
          "internalType": "uint256",
          "name": "_level",
          "type": "uint256"
        }
      ],
      "name": "getCosts",
      "outputs": [
        {
          "internalType": "uint256[]",
          "name": "value",
          "type": "uint256[]"
        }
      ],
      "stateMutability": "view",
      "type": "function"
    },
    {
      "inputs": [
        {
          "internalType": "uint256",
          "name": "_tokenId",
          "type": "uint256"
        },
        {
          "internalType": "uint256",
          "name": "_resourceId",
          "type": "uint256"
        }
      ],
      "name": "getProductionLevel",
      "outputs": [
        {
          "internalType": "uint256",
          "name": "productionLevel",
          "type": "uint256"
        }
      ],
      "stateMutability": "view",
      "type": "function"
    },
    {
      "inputs": [
        {
          "internalType": "uint256",
          "name": "_tokenId",
          "type": "uint256"
        },
        {
          "internalType": "uint256",
          "name": "_resourceId",
          "type": "uint256"
        }
      ],
      "name": "getProductionOutput",
      "outputs": [
        {
          "internalType": "uint256",
          "name": "productionOutput",
          "type": "uint256"
        }
      ],
      "stateMutability": "view",
      "type": "function"
    },
    {
      "inputs": [],
      "name": "initResourceValues",
      "outputs": [],
      "stateMutability": "nonpayable",
      "type": "function"
    },
    {
      "inputs": [
        {
          "internalType": "uint256",
          "name": "_realmTokenId",
          "type": "uint256"
        },
        {
          "internalType": "uint256",
          "name": "_resourceId",
          "type": "uint256"
        },
        {
          "internalType": "uint256[]",
          "name": "resources",
          "type": "uint256[]"
        },
        {
          "internalType": "uint256[]",
          "name": "resourceValues",
          "type": "uint256[]"
        }
      ],
      "name": "upgradeResource",
      "outputs": [],
      "stateMutability": "payable",
      "type": "function"
    }
  ],
  "transactionHash": "0xf80a95c72cbcd8f078024ec9b0b56592d3370ff87a9544a7c62b07c01574c259",
  "args": [],
  "solcInputHash": "babff744e45a3aac439ec42bbc858aa6",
  "bytecode": "0x608060405234801561001057600080fd5b5061111b806100206000396000f3fe60806040526004361061004a5760003560e01c80633dc974a31461004f578063841fa832146100665780638b924db2146100a357806396a2d73b146100e0578063b364a2211461011d575b600080fd5b34801561005b57600080fd5b50610064610139565b005b34801561007257600080fd5b5061008d60048036038101906100889190610c0b565b610578565b60405161009a9190610e6a565b60405180910390f35b3480156100af57600080fd5b506100ca60048036038101906100c59190610c0b565b6105c4565b6040516100d79190610e6a565b60405180910390f35b3480156100ec57600080fd5b5061010760048036038101906101029190610c0b565b610610565b6040516101149190610e08565b60405180910390f35b61013760048036038101906101329190610c47565b61069b565b005b600a600060080160006001815260200190815260200160002060000160006101000a81548160ff021916908360ff160217905550600e600060080160006002815260200190815260200160002060000160006101000a81548160ff021916908360ff1602179055506010600060080160006003815260200190815260200160002060000160006101000a81548160ff021916908360ff1602179055506012600060080160006004815260200190815260200160002060000160006101000a81548160ff021916908360ff1602179055506014600060080160006005815260200190815260200160002060000160006101000a81548160ff021916908360ff1602179055506040518060600160405280600160ff168152602001600260ff168152602001600360ff16815250600060090160006001815260200190815260200160002060000190600361028c929190610a4a565b506040518060600160405280600160ff168152602001600260ff168152602001600360ff1681525060006009016000600281526020019081526020016000206000019060036102dc929190610a4a565b506040518060600160405280600160ff168152602001600260ff168152602001600360ff16815250600060090160006003815260200190815260200160002060000190600361032c929190610a4a565b506040518060600160405280600160ff168152602001600260ff168152602001600360ff16815250600060090160006004815260200190815260200160002060000190600361037c929190610a4a565b506040518060600160405280600160ff168152602001600160ff168152602001600160ff1681525060006009016000600181526020019081526020016000206001016000600181526020019081526020016000206000019060036103e1929190610af1565b506040518060600160405280600260ff168152602001600260ff168152602001600260ff168152506000600901600060018152602001908152602001600020600101600060028152602001908152602001600020600001906003610446929190610af1565b506040518060600160405280600360ff168152602001600360ff168152602001600360ff1681525060006009016000600181526020019081526020016000206001016000600381526020019081526020016000206000019060036104ab929190610af1565b506040518060600160405280600460ff168152602001600460ff168152602001600460ff168152506000600901600060018152602001908152602001600020600101600060048152602001908152602001600020600001906003610510929190610af1565b506040518060600160405280600560ff168152602001600560ff168152602001600560ff168152506000600901600060018152602001908152602001600020600101600060058152602001908152602001600020600001906003610575929190610af1565b50565b600080600080016000858152602001908152602001600020905080600601600084815260200190815260200160002060000160019054906101000a900460ff1660ff1691505092915050565b600080600080016000858152602001908152602001600020905080600601600084815260200190815260200160002060000160029054906101000a900460ff1660ff1691505092915050565b60606000806009016000858152602001908152602001600020905080600101600084815260200190815260200160002060000180548060200260200160405190810160405280929190818152602001828054801561068d57602002820191906000526020600020905b815481526020019060010190808311610679575b505050505091505092915050565b600080600001600086815260200190815260200160002090506000806009016000868152602001908152602001600020905060008060060160009054906101000a900473ffffffffffffffffffffffffffffffffffffffff16905060005b82600001805490508110156108ff57826000018181548110610744577f4e487b7100000000000000000000000000000000000000000000000000000000600052603260045260246000fd5b90600052602060002090602091828204019190069054906101000a900460ff1660ff168682815181106107a0577f4e487b7100000000000000000000000000000000000000000000000000000000600052603260045260246000fd5b6020026020010151146107e8576040517f08c379a00000000000000000000000000000000000000000000000000000000081526004016107df90610e2a565b60405180910390fd5b8260010160008560060160008a815260200190815260200160002060000160019054906101000a900460ff1660ff1681526020019081526020016000206000018181548110610860577f4e487b7100000000000000000000000000000000000000000000000000000000600052603260045260246000fd5b90600052602060002001548582815181106108a4577f4e487b7100000000000000000000000000000000000000000000000000000000600052603260045260246000fd5b6020026020010151146108ec576040517f08c379a00000000000000000000000000000000000000000000000000000000081526004016108e390610e4a565b60405180910390fd5b80806108f790610f9a565b9150506106f9565b508073ffffffffffffffffffffffffffffffffffffffff1663ddb6f7f13387876040518463ffffffff1660e01b815260040161093d93929190610dc3565b600060405180830381600087803b15801561095757600080fd5b505af115801561096b573d6000803e3d6000fd5b50505050826006016000878152602001908152602001600020600001600181819054906101000a900460ff16809291906109a490610fe3565b91906101000a81548160ff021916908360ff1602179055505060008060080160008560060160008a815260200190815260200160002060000160019054906101000a900460ff1660ff16815260200190815260200160002090508060000160009054906101000a900460ff1684600601600089815260200190815260200160002060000160026101000a81548160ff021916908360ff1602179055505050505050505050565b82805482825590600052602060002090601f01602090048101928215610ae05791602002820160005b83821115610ab157835183826101000a81548160ff021916908360ff1602179055509260200192600101602081600001049283019260010302610a73565b8015610ade5782816101000a81549060ff0219169055600101602081600001049283019260010302610ab1565b505b509050610aed9190610b43565b5090565b828054828255906000526020600020908101928215610b32579160200282015b82811115610b31578251829060ff16905591602001919060010190610b11565b5b509050610b3f9190610b43565b5090565b5b80821115610b5c576000816000905550600101610b44565b5090565b6000610b73610b6e84610eaa565b610e85565b90508083825260208201905082856020860282011115610b9257600080fd5b60005b85811015610bc25781610ba88882610bf6565b845260208401935060208301925050600181019050610b95565b5050509392505050565b600082601f830112610bdd57600080fd5b8135610bed848260208601610b60565b91505092915050565b600081359050610c05816110ce565b92915050565b60008060408385031215610c1e57600080fd5b6000610c2c85828601610bf6565b9250506020610c3d85828601610bf6565b9150509250929050565b60008060008060808587031215610c5d57600080fd5b6000610c6b87828801610bf6565b9450506020610c7c87828801610bf6565b935050604085013567ffffffffffffffff811115610c9957600080fd5b610ca587828801610bcc565b925050606085013567ffffffffffffffff811115610cc257600080fd5b610cce87828801610bcc565b91505092959194509250565b6000610ce68383610da5565b60208301905092915050565b610cfb81610f20565b82525050565b6000610d0c82610ee6565b610d168185610efe565b9350610d2183610ed6565b8060005b83811015610d52578151610d398882610cda565b9750610d4483610ef1565b925050600181019050610d25565b5085935050505092915050565b6000610d6c601283610f0f565b9150610d778261107c565b602082019050919050565b6000610d8f601a83610f0f565b9150610d9a826110a5565b602082019050919050565b610dae81610f52565b82525050565b610dbd81610f52565b82525050565b6000606082019050610dd86000830186610cf2565b8181036020830152610dea8185610d01565b90508181036040830152610dfe8184610d01565b9050949350505050565b60006020820190508181036000830152610e228184610d01565b905092915050565b60006020820190508181036000830152610e4381610d5f565b9050919050565b60006020820190508181036000830152610e6381610d82565b9050919050565b6000602082019050610e7f6000830184610db4565b92915050565b6000610e8f610ea0565b9050610e9b8282610f69565b919050565b6000604051905090565b600067ffffffffffffffff821115610ec557610ec461103c565b5b602082029050602081019050919050565b6000819050602082019050919050565b600081519050919050565b6000602082019050919050565b600082825260208201905092915050565b600082825260208201905092915050565b6000610f2b82610f32565b9050919050565b600073ffffffffffffffffffffffffffffffffffffffff82169050919050565b6000819050919050565b600060ff82169050919050565b610f728261106b565b810181811067ffffffffffffffff82111715610f9157610f9061103c565b5b80604052505050565b6000610fa582610f52565b91507fffffffffffffffffffffffffffffffffffffffffffffffffffffffffffffffff821415610fd857610fd761100d565b5b600182019050919050565b6000610fee82610f5c565b915060ff8214156110025761100161100d565b5b600182019050919050565b7f4e487b7100000000000000000000000000000000000000000000000000000000600052601160045260246000fd5b7f4e487b7100000000000000000000000000000000000000000000000000000000600052604160045260246000fd5b6000601f19601f8301169050919050565b7f496e636f7272656374207265736f757263650000000000000000000000000000600082015250565b7f496e636f7272656374207265736f75726365732076616c756573000000000000600082015250565b6110d781610f52565b81146110e257600080fd5b5056fea2646970667358221220a5c4b12cb83745b5899cbdba35073900ed9b5a344e8c7a30c287580e3084864664736f6c63430008030033",
  "devdoc": {
    "kind": "dev",
    "methods": {},
    "version": 1
  },
  "userdoc": {
    "kind": "user",
    "methods": {},
    "version": 1
  },
  "storageLayout": {
    "storage": [
      {
        "astId": 6171,
        "contract": "contracts/facets/ResourceConstructionFacet.sol:ResourceConstructionFacet",
        "label": "s",
        "offset": 0,
        "slot": "0",
        "type": "t_struct(AppStorage)10585_storage"
      }
    ],
    "types": {
      "t_address": {
        "encoding": "inplace",
        "label": "address",
        "numberOfBytes": "20"
      },
      "t_array(t_uint256)dyn_storage": {
        "base": "t_uint256",
        "encoding": "dynamic_array",
        "label": "uint256[]",
        "numberOfBytes": "32"
      },
      "t_array(t_uint8)dyn_storage": {
        "base": "t_uint8",
        "encoding": "dynamic_array",
        "label": "uint8[]",
        "numberOfBytes": "32"
      },
      "t_mapping(t_uint256,t_struct(BuildingCosts)10656_storage)": {
        "encoding": "mapping",
        "key": "t_uint256",
        "label": "mapping(uint256 => struct BuildingCosts)",
        "numberOfBytes": "32",
        "value": "t_struct(BuildingCosts)10656_storage"
      },
      "t_mapping(t_uint256,t_struct(BuildingUpgradeCosts)10665_storage)": {
        "encoding": "mapping",
        "key": "t_uint256",
        "label": "mapping(uint256 => struct BuildingUpgradeCosts)",
        "numberOfBytes": "32",
        "value": "t_struct(BuildingUpgradeCosts)10665_storage"
      },
      "t_mapping(t_uint256,t_struct(LevelProduction)10668_storage)": {
        "encoding": "mapping",
        "key": "t_uint256",
        "label": "mapping(uint256 => struct LevelProduction)",
        "numberOfBytes": "32",
        "value": "t_struct(LevelProduction)10668_storage"
      },
      "t_mapping(t_uint256,t_struct(RealmBuildings)10644_storage)": {
        "encoding": "mapping",
        "key": "t_uint256",
        "label": "mapping(uint256 => struct RealmBuildings)",
        "numberOfBytes": "32",
        "value": "t_struct(RealmBuildings)10644_storage"
      },
      "t_mapping(t_uint256,t_struct(RealmInfo)10621_storage)": {
        "encoding": "mapping",
        "key": "t_uint256",
        "label": "mapping(uint256 => struct RealmInfo)",
        "numberOfBytes": "32",
        "value": "t_struct(RealmInfo)10621_storage"
      },
      "t_mapping(t_uint256,t_struct(RealmStatistics)10594_storage)": {
        "encoding": "mapping",
        "key": "t_uint256",
        "label": "mapping(uint256 => struct RealmStatistics)",
        "numberOfBytes": "32",
        "value": "t_struct(RealmStatistics)10594_storage"
      },
      "t_mapping(t_uint256,t_struct(ResourceInfo)10628_storage)": {
        "encoding": "mapping",
        "key": "t_uint256",
        "label": "mapping(uint256 => struct ResourceInfo)",
        "numberOfBytes": "32",
        "value": "t_struct(ResourceInfo)10628_storage"
      },
      "t_mapping(t_uint256,t_struct(UpgradeCostLevels)10681_storage)": {
        "encoding": "mapping",
        "key": "t_uint256",
        "label": "mapping(uint256 => struct UpgradeCostLevels)",
        "numberOfBytes": "32",
        "value": "t_struct(UpgradeCostLevels)10681_storage"
      },
      "t_mapping(t_uint256,t_struct(UpgradeCosts)10677_storage)": {
        "encoding": "mapping",
        "key": "t_uint256",
        "label": "mapping(uint256 => struct UpgradeCosts)",
        "numberOfBytes": "32",
        "value": "t_struct(UpgradeCosts)10677_storage"
      },
      "t_string_storage": {
        "encoding": "bytes",
        "label": "string",
        "numberOfBytes": "32"
      },
      "t_struct(AppStorage)10585_storage": {
        "encoding": "inplace",
        "label": "struct AppStorage",
        "members": [
          {
            "astId": 10540,
            "contract": "contracts/facets/ResourceConstructionFacet.sol:ResourceConstructionFacet",
            "label": "realmInfo",
            "offset": 0,
            "slot": "0",
            "type": "t_mapping(t_uint256,t_struct(RealmInfo)10621_storage)"
          },
          {
            "astId": 10545,
            "contract": "contracts/facets/ResourceConstructionFacet.sol:ResourceConstructionFacet",
            "label": "realmStatistics",
            "offset": 0,
            "slot": "1",
            "type": "t_mapping(t_uint256,t_struct(RealmStatistics)10594_storage)"
          },
          {
            "astId": 10550,
            "contract": "contracts/facets/ResourceConstructionFacet.sol:ResourceConstructionFacet",
            "label": "realmBuildings",
            "offset": 0,
            "slot": "2",
            "type": "t_mapping(t_uint256,t_struct(RealmBuildings)10644_storage)"
          },
          {
            "astId": 10552,
            "contract": "contracts/facets/ResourceConstructionFacet.sol:ResourceConstructionFacet",
            "label": "baseProductionRate",
            "offset": 0,
            "slot": "3",
            "type": "t_uint8"
          },
          {
            "astId": 10554,
            "contract": "contracts/facets/ResourceConstructionFacet.sol:ResourceConstructionFacet",
            "label": "maxProductionRate",
            "offset": 1,
            "slot": "3",
            "type": "t_uint8"
          },
          {
            "astId": 10556,
            "contract": "contracts/facets/ResourceConstructionFacet.sol:ResourceConstructionFacet",
            "label": "sRealms",
            "offset": 2,
            "slot": "3",
            "type": "t_address"
          },
          {
            "astId": 10558,
            "contract": "contracts/facets/ResourceConstructionFacet.sol:ResourceConstructionFacet",
            "label": "realms",
            "offset": 0,
            "slot": "4",
            "type": "t_address"
          },
          {
            "astId": 10560,
            "contract": "contracts/facets/ResourceConstructionFacet.sol:ResourceConstructionFacet",
            "label": "treasury",
            "offset": 0,
            "slot": "5",
            "type": "t_address"
          },
          {
            "astId": 10562,
            "contract": "contracts/facets/ResourceConstructionFacet.sol:ResourceConstructionFacet",
            "label": "resources",
            "offset": 0,
            "slot": "6",
            "type": "t_address"
          },
          {
            "astId": 10564,
            "contract": "contracts/facets/ResourceConstructionFacet.sol:ResourceConstructionFacet",
            "label": "oracle",
            "offset": 0,
            "slot": "7",
            "type": "t_address"
          },
          {
            "astId": 10569,
            "contract": "contracts/facets/ResourceConstructionFacet.sol:ResourceConstructionFacet",
            "label": "levelProduction",
            "offset": 0,
            "slot": "8",
            "type": "t_mapping(t_uint256,t_struct(LevelProduction)10668_storage)"
          },
          {
            "astId": 10574,
            "contract": "contracts/facets/ResourceConstructionFacet.sol:ResourceConstructionFacet",
            "label": "upgradeCosts",
            "offset": 0,
            "slot": "9",
            "type": "t_mapping(t_uint256,t_struct(UpgradeCosts)10677_storage)"
          },
          {
            "astId": 10579,
            "contract": "contracts/facets/ResourceConstructionFacet.sol:ResourceConstructionFacet",
            "label": "buildingUpgradeCosts",
            "offset": 0,
            "slot": "10",
            "type": "t_mapping(t_uint256,t_struct(BuildingUpgradeCosts)10665_storage)"
          },
          {
            "astId": 10584,
            "contract": "contracts/facets/ResourceConstructionFacet.sol:ResourceConstructionFacet",
            "label": "buildingCosts",
            "offset": 0,
            "slot": "11",
            "type": "t_mapping(t_uint256,t_struct(BuildingCosts)10656_storage)"
          }
        ],
        "numberOfBytes": "384"
      },
      "t_struct(BuildingCosts)10656_storage": {
        "encoding": "inplace",
        "label": "struct BuildingCosts",
        "members": [
          {
            "astId": 10646,
            "contract": "contracts/facets/ResourceConstructionFacet.sol:ResourceConstructionFacet",
            "label": "name",
            "offset": 0,
            "slot": "0",
            "type": "t_string_storage"
          },
          {
            "astId": 10649,
            "contract": "contracts/facets/ResourceConstructionFacet.sol:ResourceConstructionFacet",
            "label": "resourceIds",
            "offset": 0,
            "slot": "1",
            "type": "t_array(t_uint8)dyn_storage"
          },
          {
            "astId": 10652,
            "contract": "contracts/facets/ResourceConstructionFacet.sol:ResourceConstructionFacet",
            "label": "resourceValues",
            "offset": 0,
            "slot": "2",
            "type": "t_array(t_uint8)dyn_storage"
          },
          {
            "astId": 10655,
            "contract": "contracts/facets/ResourceConstructionFacet.sol:ResourceConstructionFacet",
            "label": "requirements",
            "offset": 0,
            "slot": "3",
            "type": "t_array(t_uint8)dyn_storage"
          }
        ],
        "numberOfBytes": "128"
      },
      "t_struct(BuildingUpgradeCosts)10665_storage": {
        "encoding": "inplace",
        "label": "struct BuildingUpgradeCosts",
        "members": [
          {
            "astId": 10659,
            "contract": "contracts/facets/ResourceConstructionFacet.sol:ResourceConstructionFacet",
            "label": "realmBuildings",
            "offset": 0,
            "slot": "0",
            "type": "t_array(t_uint8)dyn_storage"
          },
          {
            "astId": 10664,
            "contract": "contracts/facets/ResourceConstructionFacet.sol:ResourceConstructionFacet",
            "label": "buildingCosts",
            "offset": 0,
            "slot": "1",
            "type": "t_mapping(t_uint256,t_struct(BuildingCosts)10656_storage)"
          }
        ],
        "numberOfBytes": "64"
      },
      "t_struct(LevelProduction)10668_storage": {
        "encoding": "inplace",
        "label": "struct LevelProduction",
        "members": [
          {
            "astId": 10667,
            "contract": "contracts/facets/ResourceConstructionFacet.sol:ResourceConstructionFacet",
            "label": "output",
            "offset": 0,
            "slot": "0",
            "type": "t_uint8"
          }
        ],
        "numberOfBytes": "32"
      },
      "t_struct(RealmBuildings)10644_storage": {
        "encoding": "inplace",
        "label": "struct RealmBuildings",
        "members": [
          {
            "astId": 10635,
            "contract": "contracts/facets/ResourceConstructionFacet.sol:ResourceConstructionFacet",
            "label": "aquaducts",
            "offset": 0,
            "slot": "0",
            "type": "t_uint8"
          },
          {
            "astId": 10637,
            "contract": "contracts/facets/ResourceConstructionFacet.sol:ResourceConstructionFacet",
            "label": "temples",
            "offset": 1,
            "slot": "0",
            "type": "t_uint8"
          },
          {
            "astId": 10639,
            "contract": "contracts/facets/ResourceConstructionFacet.sol:ResourceConstructionFacet",
            "label": "castles",
            "offset": 2,
            "slot": "0",
            "type": "t_uint8"
          },
          {
            "astId": 10641,
            "contract": "contracts/facets/ResourceConstructionFacet.sol:ResourceConstructionFacet",
            "label": "markets",
            "offset": 3,
            "slot": "0",
            "type": "t_uint8"
          },
          {
            "astId": 10643,
            "contract": "contracts/facets/ResourceConstructionFacet.sol:ResourceConstructionFacet",
            "label": "ports",
            "offset": 4,
            "slot": "0",
            "type": "t_uint8"
          }
        ],
        "numberOfBytes": "32"
      },
      "t_struct(RealmInfo)10621_storage": {
        "encoding": "inplace",
        "label": "struct RealmInfo",
        "members": [
          {
            "astId": 10596,
            "contract": "contracts/facets/ResourceConstructionFacet.sol:ResourceConstructionFacet",
            "label": "tokenId",
            "offset": 0,
            "slot": "0",
            "type": "t_uint256"
          },
          {
            "astId": 10598,
            "contract": "contracts/facets/ResourceConstructionFacet.sol:ResourceConstructionFacet",
            "label": "name",
            "offset": 0,
            "slot": "1",
            "type": "t_string_storage"
          },
          {
            "astId": 10600,
            "contract": "contracts/facets/ResourceConstructionFacet.sol:ResourceConstructionFacet",
            "label": "lastUpdateAt",
            "offset": 0,
            "slot": "2",
            "type": "t_uint256"
          },
          {
            "astId": 10602,
            "contract": "contracts/facets/ResourceConstructionFacet.sol:ResourceConstructionFacet",
            "label": "vestedTimeUpdatedAt",
            "offset": 0,
            "slot": "3",
            "type": "t_uint256"
          },
          {
            "astId": 10604,
            "contract": "contracts/facets/ResourceConstructionFacet.sol:ResourceConstructionFacet",
            "label": "cities",
            "offset": 0,
            "slot": "4",
            "type": "t_uint8"
          },
          {
            "astId": 10606,
            "contract": "contracts/facets/ResourceConstructionFacet.sol:ResourceConstructionFacet",
            "label": "harbours",
            "offset": 1,
            "slot": "4",
            "type": "t_uint8"
          },
          {
            "astId": 10608,
            "contract": "contracts/facets/ResourceConstructionFacet.sol:ResourceConstructionFacet",
            "label": "rivers",
            "offset": 2,
            "slot": "4",
            "type": "t_uint8"
          },
          {
            "astId": 10610,
            "contract": "contracts/facets/ResourceConstructionFacet.sol:ResourceConstructionFacet",
            "label": "regions",
            "offset": 3,
            "slot": "4",
            "type": "t_uint8"
          },
          {
            "astId": 10612,
            "contract": "contracts/facets/ResourceConstructionFacet.sol:ResourceConstructionFacet",
            "label": "wonders",
            "offset": 4,
            "slot": "4",
            "type": "t_uint8"
          },
          {
            "astId": 10615,
            "contract": "contracts/facets/ResourceConstructionFacet.sol:ResourceConstructionFacet",
            "label": "resourceIds",
            "offset": 0,
            "slot": "5",
            "type": "t_array(t_uint256)dyn_storage"
          },
          {
            "astId": 10620,
            "contract": "contracts/facets/ResourceConstructionFacet.sol:ResourceConstructionFacet",
            "label": "resourceInfo",
            "offset": 0,
            "slot": "6",
            "type": "t_mapping(t_uint256,t_struct(ResourceInfo)10628_storage)"
          }
        ],
        "numberOfBytes": "224"
      },
      "t_struct(RealmStatistics)10594_storage": {
        "encoding": "inplace",
        "label": "struct RealmStatistics",
        "members": [
          {
            "astId": 10587,
            "contract": "contracts/facets/ResourceConstructionFacet.sol:ResourceConstructionFacet",
            "label": "realmDefence",
            "offset": 0,
            "slot": "0",
            "type": "t_uint8"
          },
          {
            "astId": 10589,
            "contract": "contracts/facets/ResourceConstructionFacet.sol:ResourceConstructionFacet",
            "label": "realmOffence",
            "offset": 1,
            "slot": "0",
            "type": "t_uint8"
          },
          {
            "astId": 10591,
            "contract": "contracts/facets/ResourceConstructionFacet.sol:ResourceConstructionFacet",
            "label": "realmMagic",
            "offset": 2,
            "slot": "0",
            "type": "t_uint8"
          },
          {
            "astId": 10593,
            "contract": "contracts/facets/ResourceConstructionFacet.sol:ResourceConstructionFacet",
            "label": "foodSupply",
            "offset": 3,
            "slot": "0",
            "type": "t_uint8"
          }
        ],
        "numberOfBytes": "32"
      },
      "t_struct(ResourceInfo)10628_storage": {
        "encoding": "inplace",
        "label": "struct ResourceInfo",
        "members": [
          {
            "astId": 10623,
            "contract": "contracts/facets/ResourceConstructionFacet.sol:ResourceConstructionFacet",
            "label": "id",
            "offset": 0,
            "slot": "0",
            "type": "t_uint8"
          },
          {
            "astId": 10625,
            "contract": "contracts/facets/ResourceConstructionFacet.sol:ResourceConstructionFacet",
            "label": "level",
            "offset": 1,
            "slot": "0",
            "type": "t_uint8"
          },
          {
            "astId": 10627,
            "contract": "contracts/facets/ResourceConstructionFacet.sol:ResourceConstructionFacet",
            "label": "production",
            "offset": 2,
            "slot": "0",
            "type": "t_uint8"
          }
        ],
        "numberOfBytes": "32"
      },
      "t_struct(UpgradeCostLevels)10681_storage": {
        "encoding": "inplace",
        "label": "struct UpgradeCostLevels",
        "members": [
          {
            "astId": 10680,
            "contract": "contracts/facets/ResourceConstructionFacet.sol:ResourceConstructionFacet",
            "label": "value",
            "offset": 0,
            "slot": "0",
            "type": "t_array(t_uint256)dyn_storage"
          }
        ],
        "numberOfBytes": "32"
      },
      "t_struct(UpgradeCosts)10677_storage": {
        "encoding": "inplace",
        "label": "struct UpgradeCosts",
        "members": [
          {
            "astId": 10671,
            "contract": "contracts/facets/ResourceConstructionFacet.sol:ResourceConstructionFacet",
            "label": "resourceIds",
            "offset": 0,
            "slot": "0",
            "type": "t_array(t_uint8)dyn_storage"
          },
          {
            "astId": 10676,
            "contract": "contracts/facets/ResourceConstructionFacet.sol:ResourceConstructionFacet",
            "label": "upgradeCostLevels",
            "offset": 0,
            "slot": "1",
            "type": "t_mapping(t_uint256,t_struct(UpgradeCostLevels)10681_storage)"
          }
        ],
        "numberOfBytes": "64"
      },
      "t_uint256": {
        "encoding": "inplace",
        "label": "uint256",
        "numberOfBytes": "32"
      },
      "t_uint8": {
        "encoding": "inplace",
        "label": "uint8",
        "numberOfBytes": "1"
      }
    }
  }
}