{
  "address": "0x6963F076549F815FbD4bC8d961Be60837f2ca51E",
  "abi": [
    {
      "anonymous": false,
      "inputs": [
        {
          "indexed": false,
          "internalType": "address",
          "name": "lord",
          "type": "address"
        },
        {
          "indexed": false,
          "internalType": "uint256",
          "name": "realmID",
          "type": "uint256"
        },
        {
          "indexed": false,
          "internalType": "uint256",
          "name": "buildingID",
          "type": "uint256"
        },
        {
          "indexed": false,
          "internalType": "uint256[]",
          "name": "resourcesValues",
          "type": "uint256[]"
        },
        {
          "indexed": false,
          "internalType": "uint256[]",
          "name": "resourcesBurnt",
          "type": "uint256[]"
        }
      ],
      "name": "ResourceUpgraded",
      "type": "event"
    },
    {
      "inputs": [
        {
          "internalType": "uint256",
          "name": "_resourceId",
          "type": "uint256"
        },
        {
          "internalType": "uint256",
          "name": "_level",
          "type": "uint256"
        }
      ],
      "name": "getCosts",
      "outputs": [
        {
          "internalType": "uint8[]",
          "name": "",
          "type": "uint8[]"
        },
        {
          "internalType": "uint256[]",
          "name": "",
          "type": "uint256[]"
        }
      ],
      "stateMutability": "view",
      "type": "function"
    },
    {
      "inputs": [
        {
          "internalType": "uint256",
          "name": "_tokenId",
          "type": "uint256"
        },
        {
          "internalType": "uint256",
          "name": "_resourceId",
          "type": "uint256"
        }
      ],
      "name": "getProductionDetails",
      "outputs": [
        {
          "internalType": "uint256",
          "name": "",
          "type": "uint256"
        },
        {
          "internalType": "uint256",
          "name": "",
          "type": "uint256"
        }
      ],
      "stateMutability": "view",
      "type": "function"
    },
    {
      "inputs": [
        {
          "internalType": "uint256",
          "name": "_realmTokenId",
          "type": "uint256"
        },
        {
          "internalType": "uint256",
          "name": "_resourceId",
          "type": "uint256"
        },
        {
          "internalType": "uint256[]",
          "name": "resources",
          "type": "uint256[]"
        },
        {
          "internalType": "uint256[]",
          "name": "resourceValues",
          "type": "uint256[]"
        }
      ],
      "name": "upgradeResource",
      "outputs": [],
      "stateMutability": "payable",
      "type": "function"
    }
  ],
  "transactionHash": "0x93c24e43a0d42dc8a245b364dcc81416452e9270e10709cceb5b413d6084c8d3",
  "args": [],
  "solcInputHash": "0cfb688ce6a24e2b79ac4313d4f1d010",
  "bytecode": "0x608060405234801561001057600080fd5b50610f73806100206000396000f3fe6080604052600436106100345760003560e01c806396a2d73b14610039578063b364a22114610077578063f9831c7d14610093575b600080fd5b34801561004557600080fd5b50610060600480360381019061005b9190610883565b6100d1565b60405161006e929190610b89565b60405180910390f35b610091600480360381019061008c91906108bf565b6101df565b005b34801561009f57600080fd5b506100ba60048036038101906100b59190610883565b61067c565b6040516100c8929190610c3b565b60405180910390f35b60608060008060090160008681526020019081526020016000209050806000018160010160008681526020019081526020016000206000018180548060200260200160405190810160405280929190818152602001828054801561017a57602002820191906000526020600020906000905b82829054906101000a900460ff1660ff16815260200190600101906020826000010492830192600103820291508084116101435790505b50505050509150808054806020026020016040519081016040528092919081815260200182805480156101cc57602002820191906000526020600020905b8154815260200190600101908083116101b8575b5050505050905092509250509250929050565b8360008060010160009054906101000a900473ffffffffffffffffffffffffffffffffffffffff1690508073ffffffffffffffffffffffffffffffffffffffff16636352211e836040518263ffffffff1660e01b81526004016102429190610c20565b60206040518083038186803b15801561025a57600080fd5b505afa15801561026e573d6000803e3d6000fd5b505050506040513d601f19601f82011682018060405250810190610292919061085a565b73ffffffffffffffffffffffffffffffffffffffff163373ffffffffffffffffffffffffffffffffffffffff16146102ff576040517f08c379a00000000000000000000000000000000000000000000000000000000081526004016102f690610bc0565b60405180910390fd5b600080600001600088815260200190815260200160002090506000806009016000888152602001908152602001600020905060005b816000018054905081101561053a5781600001818154811061037f577f4e487b7100000000000000000000000000000000000000000000000000000000600052603260045260246000fd5b90600052602060002090602091828204019190069054906101000a900460ff1660ff168782815181106103db577f4e487b7100000000000000000000000000000000000000000000000000000000600052603260045260246000fd5b602002602001015114610423576040517f08c379a000000000000000000000000000000000000000000000000000000000815260040161041a90610be0565b60405180910390fd5b8160010160008460080160008b815260200190815260200160002060000160019054906101000a900460ff1660ff168152602001908152602001600020600001818154811061049b577f4e487b7100000000000000000000000000000000000000000000000000000000600052603260045260246000fd5b90600052602060002001548682815181106104df577f4e487b7100000000000000000000000000000000000000000000000000000000600052603260045260246000fd5b602002602001015114610527576040517f08c379a000000000000000000000000000000000000000000000000000000000815260040161051e90610c00565b60405180910390fd5b808061053290610db2565b915050610334565b506105463387876106fc565b816008016000888152602001908152602001600020600001600181819054906101000a900460ff168092919061057b90610dfb565b91906101000a81548160ff021916908360ff1602179055505060008060080160008460080160008b815260200190815260200160002060000160019054906101000a900460ff1660ff1681526020019081526020016000206040518060200160405290816000820160009054906101000a900460ff1660ff1660ff1681525050905080600001518360080160008a815260200190815260200160002060000160026101000a81548160ff021916908360ff1602179055507f0c964a79da87fe8361bd37a15bd84ac04c3250382c830e50e2701845f34f0904338a8a8a8a604051610669959493929190610b28565b60405180910390a1505050505050505050565b6000806000806000016000868152602001908152602001600020905080600801600085815260200190815260200160002060000160019054906101000a900460ff1681600801600086815260200190815260200160002060000160029054906101000a900460ff168160ff1691508060ff16905092509250509250929050565b60008060050160009054906101000a900473ffffffffffffffffffffffffffffffffffffffff1690508073ffffffffffffffffffffffffffffffffffffffff16638a5d94468585856040518463ffffffff1660e01b815260040161076293929190610ae3565b600060405180830381600087803b15801561077c57600080fd5b505af1158015610790573d6000803e3d6000fd5b5050505050505050565b60006107ad6107a884610c89565b610c64565b905080838252602082019050828560208602820111156107cc57600080fd5b60005b858110156107fc57816107e28882610845565b8452602084019350602083019250506001810190506107cf565b5050509392505050565b60008151905061081581610f0f565b92915050565b600082601f83011261082c57600080fd5b813561083c84826020860161079a565b91505092915050565b60008135905061085481610f26565b92915050565b60006020828403121561086c57600080fd5b600061087a84828501610806565b91505092915050565b6000806040838503121561089657600080fd5b60006108a485828601610845565b92505060206108b585828601610845565b9150509250929050565b600080600080608085870312156108d557600080fd5b60006108e387828801610845565b94505060206108f487828801610845565b935050604085013567ffffffffffffffff81111561091157600080fd5b61091d8782880161081b565b925050606085013567ffffffffffffffff81111561093a57600080fd5b6109468782880161081b565b91505092959194509250565b600061095e8383610ab6565b60208301905092915050565b60006109768383610ad4565b60208301905092915050565b61098b81610d38565b82525050565b600061099c82610cd5565b6109a68185610d05565b93506109b183610cb5565b8060005b838110156109e25781516109c98882610952565b97506109d483610ceb565b9250506001810190506109b5565b5085935050505092915050565b60006109fa82610ce0565b610a048185610d16565b9350610a0f83610cc5565b8060005b83811015610a40578151610a27888261096a565b9750610a3283610cf8565b925050600181019050610a13565b5085935050505092915050565b6000610a5a601983610d27565b9150610a6582610e94565b602082019050919050565b6000610a7d601283610d27565b9150610a8882610ebd565b602082019050919050565b6000610aa0601a83610d27565b9150610aab82610ee6565b602082019050919050565b610abf81610d6a565b82525050565b610ace81610d6a565b82525050565b610add81610d74565b82525050565b6000606082019050610af86000830186610982565b8181036020830152610b0a8185610991565b90508181036040830152610b1e8184610991565b9050949350505050565b600060a082019050610b3d6000830188610982565b610b4a6020830187610ac5565b610b576040830186610ac5565b8181036060830152610b698185610991565b90508181036080830152610b7d8184610991565b90509695505050505050565b60006040820190508181036000830152610ba381856109ef565b90508181036020830152610bb78184610991565b90509392505050565b60006020820190508181036000830152610bd981610a4d565b9050919050565b60006020820190508181036000830152610bf981610a70565b9050919050565b60006020820190508181036000830152610c1981610a93565b9050919050565b6000602082019050610c356000830184610ac5565b92915050565b6000604082019050610c506000830185610ac5565b610c5d6020830184610ac5565b9392505050565b6000610c6e610c7f565b9050610c7a8282610d81565b919050565b6000604051905090565b600067ffffffffffffffff821115610ca457610ca3610e54565b5b602082029050602081019050919050565b6000819050602082019050919050565b6000819050602082019050919050565b600081519050919050565b600081519050919050565b6000602082019050919050565b6000602082019050919050565b600082825260208201905092915050565b600082825260208201905092915050565b600082825260208201905092915050565b6000610d4382610d4a565b9050919050565b600073ffffffffffffffffffffffffffffffffffffffff82169050919050565b6000819050919050565b600060ff82169050919050565b610d8a82610e83565b810181811067ffffffffffffffff82111715610da957610da8610e54565b5b80604052505050565b6000610dbd82610d6a565b91507fffffffffffffffffffffffffffffffffffffffffffffffffffffffffffffffff821415610df057610def610e25565b5b600182019050919050565b6000610e0682610d74565b915060ff821415610e1a57610e19610e25565b5b600182019050919050565b7f4e487b7100000000000000000000000000000000000000000000000000000000600052601160045260246000fd5b7f4e487b7100000000000000000000000000000000000000000000000000000000600052604160045260246000fd5b6000601f19601f8301169050919050565b7f596f7520646f206e6f74206f776e2074686973205265616c6d00000000000000600082015250565b7f496e636f7272656374207265736f757263650000000000000000000000000000600082015250565b7f496e636f7272656374207265736f75726365732076616c756573000000000000600082015250565b610f1881610d38565b8114610f2357600080fd5b50565b610f2f81610d6a565b8114610f3a57600080fd5b5056fea26469706673582212208c973b6fee4e4f83171b7744b4bf7e29771f2c848acc117968be6ae757f47c7b64736f6c63430008030033",
  "devdoc": {
    "kind": "dev",
    "methods": {},
    "version": 1
  },
  "userdoc": {
    "kind": "user",
    "methods": {},
    "version": 1
  },
  "storageLayout": {
    "storage": [
      {
        "astId": 3298,
        "contract": "contracts/settling/facets/ResourceConstructionFacet.sol:ResourceConstructionFacet",
        "label": "s",
        "offset": 0,
        "slot": "0",
        "type": "t_struct(AppStorage)2244_storage"
      }
    ],
    "types": {
      "t_address": {
        "encoding": "inplace",
        "label": "address",
        "numberOfBytes": "20"
      },
      "t_array(t_uint256)dyn_storage": {
        "base": "t_uint256",
        "encoding": "dynamic_array",
        "label": "uint256[]",
        "numberOfBytes": "32"
      },
      "t_array(t_uint32)dyn_storage": {
        "base": "t_uint32",
        "encoding": "dynamic_array",
        "label": "uint32[]",
        "numberOfBytes": "32"
      },
      "t_array(t_uint8)dyn_storage": {
        "base": "t_uint8",
        "encoding": "dynamic_array",
        "label": "uint8[]",
        "numberOfBytes": "32"
      },
      "t_bool": {
        "encoding": "inplace",
        "label": "bool",
        "numberOfBytes": "1"
      },
      "t_int32": {
        "encoding": "inplace",
        "label": "int32",
        "numberOfBytes": "4"
      },
      "t_mapping(t_uint256,t_struct(ArmyUnit)2429_storage)": {
        "encoding": "mapping",
        "key": "t_uint256",
        "label": "mapping(uint256 => struct ArmyUnit)",
        "numberOfBytes": "32",
        "value": "t_struct(ArmyUnit)2429_storage"
      },
      "t_mapping(t_uint256,t_struct(BuildingCosts)2339_storage)": {
        "encoding": "mapping",
        "key": "t_uint256",
        "label": "mapping(uint256 => struct BuildingCosts)",
        "numberOfBytes": "32",
        "value": "t_struct(BuildingCosts)2339_storage"
      },
      "t_mapping(t_uint256,t_struct(BuildingUpgradeCosts)2348_storage)": {
        "encoding": "mapping",
        "key": "t_uint256",
        "label": "mapping(uint256 => struct BuildingUpgradeCosts)",
        "numberOfBytes": "32",
        "value": "t_struct(BuildingUpgradeCosts)2348_storage"
      },
      "t_mapping(t_uint256,t_struct(DefendingArmy)2409_storage)": {
        "encoding": "mapping",
        "key": "t_uint256",
        "label": "mapping(uint256 => struct DefendingArmy)",
        "numberOfBytes": "32",
        "value": "t_struct(DefendingArmy)2409_storage"
      },
      "t_mapping(t_uint256,t_struct(LevelProduction)2351_storage)": {
        "encoding": "mapping",
        "key": "t_uint256",
        "label": "mapping(uint256 => struct LevelProduction)",
        "numberOfBytes": "32",
        "value": "t_struct(LevelProduction)2351_storage"
      },
      "t_mapping(t_uint256,t_struct(Raiding)2371_storage)": {
        "encoding": "mapping",
        "key": "t_uint256",
        "label": "mapping(uint256 => struct Raiding)",
        "numberOfBytes": "32",
        "value": "t_struct(Raiding)2371_storage"
      },
      "t_mapping(t_uint256,t_struct(RaidingArmy)2390_storage)": {
        "encoding": "mapping",
        "key": "t_uint256",
        "label": "mapping(uint256 => struct RaidingArmy)",
        "numberOfBytes": "32",
        "value": "t_struct(RaidingArmy)2390_storage"
      },
      "t_mapping(t_uint256,t_struct(RealmInfo)2310_storage)": {
        "encoding": "mapping",
        "key": "t_uint256",
        "label": "mapping(uint256 => struct RealmInfo)",
        "numberOfBytes": "32",
        "value": "t_struct(RealmInfo)2310_storage"
      },
      "t_mapping(t_uint256,t_struct(ResourceInfo)2317_storage)": {
        "encoding": "mapping",
        "key": "t_uint256",
        "label": "mapping(uint256 => struct ResourceInfo)",
        "numberOfBytes": "32",
        "value": "t_struct(ResourceInfo)2317_storage"
      },
      "t_mapping(t_uint256,t_struct(TheAges)2251_storage)": {
        "encoding": "mapping",
        "key": "t_uint256",
        "label": "mapping(uint256 => struct TheAges)",
        "numberOfBytes": "32",
        "value": "t_struct(TheAges)2251_storage"
      },
      "t_mapping(t_uint256,t_struct(TrainedArmyUnit)2414_storage)": {
        "encoding": "mapping",
        "key": "t_uint256",
        "label": "mapping(uint256 => struct TrainedArmyUnit)",
        "numberOfBytes": "32",
        "value": "t_struct(TrainedArmyUnit)2414_storage"
      },
      "t_mapping(t_uint256,t_struct(UpgradeCostLevels)2364_storage)": {
        "encoding": "mapping",
        "key": "t_uint256",
        "label": "mapping(uint256 => struct UpgradeCostLevels)",
        "numberOfBytes": "32",
        "value": "t_struct(UpgradeCostLevels)2364_storage"
      },
      "t_mapping(t_uint256,t_struct(UpgradeCosts)2360_storage)": {
        "encoding": "mapping",
        "key": "t_uint256",
        "label": "mapping(uint256 => struct UpgradeCosts)",
        "numberOfBytes": "32",
        "value": "t_struct(UpgradeCosts)2360_storage"
      },
      "t_string_storage": {
        "encoding": "bytes",
        "label": "string",
        "numberOfBytes": "32"
      },
      "t_struct(AppStorage)2244_storage": {
        "encoding": "inplace",
        "label": "struct AppStorage",
        "members": [
          {
            "astId": 2182,
            "contract": "contracts/settling/facets/ResourceConstructionFacet.sol:ResourceConstructionFacet",
            "label": "realmInfo",
            "offset": 0,
            "slot": "0",
            "type": "t_mapping(t_uint256,t_struct(RealmInfo)2310_storage)"
          },
          {
            "astId": 2184,
            "contract": "contracts/settling/facets/ResourceConstructionFacet.sol:ResourceConstructionFacet",
            "label": "sRealms",
            "offset": 0,
            "slot": "1",
            "type": "t_address"
          },
          {
            "astId": 2186,
            "contract": "contracts/settling/facets/ResourceConstructionFacet.sol:ResourceConstructionFacet",
            "label": "realms",
            "offset": 0,
            "slot": "2",
            "type": "t_address"
          },
          {
            "astId": 2188,
            "contract": "contracts/settling/facets/ResourceConstructionFacet.sol:ResourceConstructionFacet",
            "label": "realmsStorage",
            "offset": 0,
            "slot": "3",
            "type": "t_address"
          },
          {
            "astId": 2190,
            "contract": "contracts/settling/facets/ResourceConstructionFacet.sol:ResourceConstructionFacet",
            "label": "treasury",
            "offset": 0,
            "slot": "4",
            "type": "t_address"
          },
          {
            "astId": 2192,
            "contract": "contracts/settling/facets/ResourceConstructionFacet.sol:ResourceConstructionFacet",
            "label": "resources",
            "offset": 0,
            "slot": "5",
            "type": "t_address"
          },
          {
            "astId": 2194,
            "contract": "contracts/settling/facets/ResourceConstructionFacet.sol:ResourceConstructionFacet",
            "label": "oracle",
            "offset": 0,
            "slot": "6",
            "type": "t_address"
          },
          {
            "astId": 2196,
            "contract": "contracts/settling/facets/ResourceConstructionFacet.sol:ResourceConstructionFacet",
            "label": "lords",
            "offset": 0,
            "slot": "7",
            "type": "t_address"
          },
          {
            "astId": 2201,
            "contract": "contracts/settling/facets/ResourceConstructionFacet.sol:ResourceConstructionFacet",
            "label": "levelProduction",
            "offset": 0,
            "slot": "8",
            "type": "t_mapping(t_uint256,t_struct(LevelProduction)2351_storage)"
          },
          {
            "astId": 2206,
            "contract": "contracts/settling/facets/ResourceConstructionFacet.sol:ResourceConstructionFacet",
            "label": "upgradeCosts",
            "offset": 0,
            "slot": "9",
            "type": "t_mapping(t_uint256,t_struct(UpgradeCosts)2360_storage)"
          },
          {
            "astId": 2211,
            "contract": "contracts/settling/facets/ResourceConstructionFacet.sol:ResourceConstructionFacet",
            "label": "buildingUpgradeCosts",
            "offset": 0,
            "slot": "10",
            "type": "t_mapping(t_uint256,t_struct(BuildingUpgradeCosts)2348_storage)"
          },
          {
            "astId": 2216,
            "contract": "contracts/settling/facets/ResourceConstructionFacet.sol:ResourceConstructionFacet",
            "label": "buildingCosts",
            "offset": 0,
            "slot": "11",
            "type": "t_mapping(t_uint256,t_struct(BuildingCosts)2339_storage)"
          },
          {
            "astId": 2221,
            "contract": "contracts/settling/facets/ResourceConstructionFacet.sol:ResourceConstructionFacet",
            "label": "theAges",
            "offset": 0,
            "slot": "12",
            "type": "t_mapping(t_uint256,t_struct(TheAges)2251_storage)"
          },
          {
            "astId": 2223,
            "contract": "contracts/settling/facets/ResourceConstructionFacet.sol:ResourceConstructionFacet",
            "label": "genesisTime",
            "offset": 0,
            "slot": "13",
            "type": "t_uint256"
          },
          {
            "astId": 2228,
            "contract": "contracts/settling/facets/ResourceConstructionFacet.sol:ResourceConstructionFacet",
            "label": "raiding",
            "offset": 0,
            "slot": "14",
            "type": "t_mapping(t_uint256,t_struct(Raiding)2371_storage)"
          },
          {
            "astId": 2233,
            "contract": "contracts/settling/facets/ResourceConstructionFacet.sol:ResourceConstructionFacet",
            "label": "raidingArmy",
            "offset": 0,
            "slot": "15",
            "type": "t_mapping(t_uint256,t_struct(RaidingArmy)2390_storage)"
          },
          {
            "astId": 2238,
            "contract": "contracts/settling/facets/ResourceConstructionFacet.sol:ResourceConstructionFacet",
            "label": "defendingArmy",
            "offset": 0,
            "slot": "16",
            "type": "t_mapping(t_uint256,t_struct(DefendingArmy)2409_storage)"
          },
          {
            "astId": 2243,
            "contract": "contracts/settling/facets/ResourceConstructionFacet.sol:ResourceConstructionFacet",
            "label": "armyUnit",
            "offset": 0,
            "slot": "17",
            "type": "t_mapping(t_uint256,t_struct(ArmyUnit)2429_storage)"
          }
        ],
        "numberOfBytes": "576"
      },
      "t_struct(ArmyUnit)2429_storage": {
        "encoding": "inplace",
        "label": "struct ArmyUnit",
        "members": [
          {
            "astId": 2416,
            "contract": "contracts/settling/facets/ResourceConstructionFacet.sol:ResourceConstructionFacet",
            "label": "name",
            "offset": 0,
            "slot": "0",
            "type": "t_string_storage"
          },
          {
            "astId": 2418,
            "contract": "contracts/settling/facets/ResourceConstructionFacet.sol:ResourceConstructionFacet",
            "label": "timeToTrain",
            "offset": 0,
            "slot": "1",
            "type": "t_uint256"
          },
          {
            "astId": 2420,
            "contract": "contracts/settling/facets/ResourceConstructionFacet.sol:ResourceConstructionFacet",
            "label": "offence",
            "offset": 0,
            "slot": "2",
            "type": "t_uint32"
          },
          {
            "astId": 2422,
            "contract": "contracts/settling/facets/ResourceConstructionFacet.sol:ResourceConstructionFacet",
            "label": "defence",
            "offset": 4,
            "slot": "2",
            "type": "t_uint32"
          },
          {
            "astId": 2425,
            "contract": "contracts/settling/facets/ResourceConstructionFacet.sol:ResourceConstructionFacet",
            "label": "resourceIds",
            "offset": 0,
            "slot": "3",
            "type": "t_array(t_uint256)dyn_storage"
          },
          {
            "astId": 2428,
            "contract": "contracts/settling/facets/ResourceConstructionFacet.sol:ResourceConstructionFacet",
            "label": "resourceValues",
            "offset": 0,
            "slot": "4",
            "type": "t_array(t_uint256)dyn_storage"
          }
        ],
        "numberOfBytes": "160"
      },
      "t_struct(BuildingCosts)2339_storage": {
        "encoding": "inplace",
        "label": "struct BuildingCosts",
        "members": [
          {
            "astId": 2319,
            "contract": "contracts/settling/facets/ResourceConstructionFacet.sol:ResourceConstructionFacet",
            "label": "name",
            "offset": 0,
            "slot": "0",
            "type": "t_string_storage"
          },
          {
            "astId": 2322,
            "contract": "contracts/settling/facets/ResourceConstructionFacet.sol:ResourceConstructionFacet",
            "label": "resourceIds",
            "offset": 0,
            "slot": "1",
            "type": "t_array(t_uint32)dyn_storage"
          },
          {
            "astId": 2325,
            "contract": "contracts/settling/facets/ResourceConstructionFacet.sol:ResourceConstructionFacet",
            "label": "resourceValues",
            "offset": 0,
            "slot": "2",
            "type": "t_array(t_uint32)dyn_storage"
          },
          {
            "astId": 2328,
            "contract": "contracts/settling/facets/ResourceConstructionFacet.sol:ResourceConstructionFacet",
            "label": "requirements",
            "offset": 0,
            "slot": "3",
            "type": "t_array(t_uint32)dyn_storage"
          },
          {
            "astId": 2330,
            "contract": "contracts/settling/facets/ResourceConstructionFacet.sol:ResourceConstructionFacet",
            "label": "defence",
            "offset": 0,
            "slot": "4",
            "type": "t_int32"
          },
          {
            "astId": 2332,
            "contract": "contracts/settling/facets/ResourceConstructionFacet.sol:ResourceConstructionFacet",
            "label": "offence",
            "offset": 4,
            "slot": "4",
            "type": "t_int32"
          },
          {
            "astId": 2334,
            "contract": "contracts/settling/facets/ResourceConstructionFacet.sol:ResourceConstructionFacet",
            "label": "magic",
            "offset": 8,
            "slot": "4",
            "type": "t_int32"
          },
          {
            "astId": 2336,
            "contract": "contracts/settling/facets/ResourceConstructionFacet.sol:ResourceConstructionFacet",
            "label": "population",
            "offset": 12,
            "slot": "4",
            "type": "t_int32"
          },
          {
            "astId": 2338,
            "contract": "contracts/settling/facets/ResourceConstructionFacet.sol:ResourceConstructionFacet",
            "label": "food",
            "offset": 16,
            "slot": "4",
            "type": "t_int32"
          }
        ],
        "numberOfBytes": "160"
      },
      "t_struct(BuildingUpgradeCosts)2348_storage": {
        "encoding": "inplace",
        "label": "struct BuildingUpgradeCosts",
        "members": [
          {
            "astId": 2342,
            "contract": "contracts/settling/facets/ResourceConstructionFacet.sol:ResourceConstructionFacet",
            "label": "realmBuildings",
            "offset": 0,
            "slot": "0",
            "type": "t_array(t_uint8)dyn_storage"
          },
          {
            "astId": 2347,
            "contract": "contracts/settling/facets/ResourceConstructionFacet.sol:ResourceConstructionFacet",
            "label": "buildingCosts",
            "offset": 0,
            "slot": "1",
            "type": "t_mapping(t_uint256,t_struct(BuildingCosts)2339_storage)"
          }
        ],
        "numberOfBytes": "64"
      },
      "t_struct(DefendingArmy)2409_storage": {
        "encoding": "inplace",
        "label": "struct DefendingArmy",
        "members": [
          {
            "astId": 2392,
            "contract": "contracts/settling/facets/ResourceConstructionFacet.sol:ResourceConstructionFacet",
            "label": "trebuchetsTrained",
            "offset": 0,
            "slot": "0",
            "type": "t_uint32"
          },
          {
            "astId": 2394,
            "contract": "contracts/settling/facets/ResourceConstructionFacet.sol:ResourceConstructionFacet",
            "label": "trebuchetsSlayed",
            "offset": 4,
            "slot": "0",
            "type": "t_uint32"
          },
          {
            "astId": 2396,
            "contract": "contracts/settling/facets/ResourceConstructionFacet.sol:ResourceConstructionFacet",
            "label": "scorpionsTrained",
            "offset": 8,
            "slot": "0",
            "type": "t_uint32"
          },
          {
            "astId": 2398,
            "contract": "contracts/settling/facets/ResourceConstructionFacet.sol:ResourceConstructionFacet",
            "label": "scorpionsSlayed",
            "offset": 12,
            "slot": "0",
            "type": "t_uint32"
          },
          {
            "astId": 2403,
            "contract": "contracts/settling/facets/ResourceConstructionFacet.sol:ResourceConstructionFacet",
            "label": "trebuchets",
            "offset": 0,
            "slot": "1",
            "type": "t_mapping(t_uint256,t_struct(TrainedArmyUnit)2414_storage)"
          },
          {
            "astId": 2408,
            "contract": "contracts/settling/facets/ResourceConstructionFacet.sol:ResourceConstructionFacet",
            "label": "scorpions",
            "offset": 0,
            "slot": "2",
            "type": "t_mapping(t_uint256,t_struct(TrainedArmyUnit)2414_storage)"
          }
        ],
        "numberOfBytes": "96"
      },
      "t_struct(LevelProduction)2351_storage": {
        "encoding": "inplace",
        "label": "struct LevelProduction",
        "members": [
          {
            "astId": 2350,
            "contract": "contracts/settling/facets/ResourceConstructionFacet.sol:ResourceConstructionFacet",
            "label": "output",
            "offset": 0,
            "slot": "0",
            "type": "t_uint8"
          }
        ],
        "numberOfBytes": "32"
      },
      "t_struct(Raiding)2371_storage": {
        "encoding": "inplace",
        "label": "struct Raiding",
        "members": [
          {
            "astId": 2366,
            "contract": "contracts/settling/facets/ResourceConstructionFacet.sol:ResourceConstructionFacet",
            "label": "coolDownTime",
            "offset": 0,
            "slot": "0",
            "type": "t_uint256"
          },
          {
            "astId": 2368,
            "contract": "contracts/settling/facets/ResourceConstructionFacet.sol:ResourceConstructionFacet",
            "label": "totalRaids",
            "offset": 0,
            "slot": "1",
            "type": "t_uint256"
          },
          {
            "astId": 2370,
            "contract": "contracts/settling/facets/ResourceConstructionFacet.sol:ResourceConstructionFacet",
            "label": "successfulRaids",
            "offset": 0,
            "slot": "2",
            "type": "t_uint256"
          }
        ],
        "numberOfBytes": "96"
      },
      "t_struct(RaidingArmy)2390_storage": {
        "encoding": "inplace",
        "label": "struct RaidingArmy",
        "members": [
          {
            "astId": 2373,
            "contract": "contracts/settling/facets/ResourceConstructionFacet.sol:ResourceConstructionFacet",
            "label": "knightsTrained",
            "offset": 0,
            "slot": "0",
            "type": "t_uint32"
          },
          {
            "astId": 2375,
            "contract": "contracts/settling/facets/ResourceConstructionFacet.sol:ResourceConstructionFacet",
            "label": "knightsSlayed",
            "offset": 4,
            "slot": "0",
            "type": "t_uint32"
          },
          {
            "astId": 2377,
            "contract": "contracts/settling/facets/ResourceConstructionFacet.sol:ResourceConstructionFacet",
            "label": "footSoldiersTrained",
            "offset": 8,
            "slot": "0",
            "type": "t_uint32"
          },
          {
            "astId": 2379,
            "contract": "contracts/settling/facets/ResourceConstructionFacet.sol:ResourceConstructionFacet",
            "label": "footSoldiersSlayed",
            "offset": 12,
            "slot": "0",
            "type": "t_uint32"
          },
          {
            "astId": 2384,
            "contract": "contracts/settling/facets/ResourceConstructionFacet.sol:ResourceConstructionFacet",
            "label": "knights",
            "offset": 0,
            "slot": "1",
            "type": "t_mapping(t_uint256,t_struct(TrainedArmyUnit)2414_storage)"
          },
          {
            "astId": 2389,
            "contract": "contracts/settling/facets/ResourceConstructionFacet.sol:ResourceConstructionFacet",
            "label": "footSoldiers",
            "offset": 0,
            "slot": "2",
            "type": "t_mapping(t_uint256,t_struct(TrainedArmyUnit)2414_storage)"
          }
        ],
        "numberOfBytes": "96"
      },
      "t_struct(RealmInfo)2310_storage": {
        "encoding": "inplace",
        "label": "struct RealmInfo",
        "members": [
          {
            "astId": 2253,
            "contract": "contracts/settling/facets/ResourceConstructionFacet.sol:ResourceConstructionFacet",
            "label": "name",
            "offset": 0,
            "slot": "0",
            "type": "t_string_storage"
          },
          {
            "astId": 2255,
            "contract": "contracts/settling/facets/ResourceConstructionFacet.sol:ResourceConstructionFacet",
            "label": "lastUpdateAt",
            "offset": 0,
            "slot": "1",
            "type": "t_uint256"
          },
          {
            "astId": 2257,
            "contract": "contracts/settling/facets/ResourceConstructionFacet.sol:ResourceConstructionFacet",
            "label": "vestedTimeUpdatedAt",
            "offset": 0,
            "slot": "2",
            "type": "t_uint256"
          },
          {
            "astId": 2259,
            "contract": "contracts/settling/facets/ResourceConstructionFacet.sol:ResourceConstructionFacet",
            "label": "ageSettled",
            "offset": 0,
            "slot": "3",
            "type": "t_uint256"
          },
          {
            "astId": 2261,
            "contract": "contracts/settling/facets/ResourceConstructionFacet.sol:ResourceConstructionFacet",
            "label": "ageClaimed",
            "offset": 0,
            "slot": "4",
            "type": "t_uint256"
          },
          {
            "astId": 2264,
            "contract": "contracts/settling/facets/ResourceConstructionFacet.sol:ResourceConstructionFacet",
            "label": "resourceIds",
            "offset": 0,
            "slot": "5",
            "type": "t_array(t_uint256)dyn_storage"
          },
          {
            "astId": 2266,
            "contract": "contracts/settling/facets/ResourceConstructionFacet.sol:ResourceConstructionFacet",
            "label": "cities",
            "offset": 0,
            "slot": "6",
            "type": "t_uint8"
          },
          {
            "astId": 2268,
            "contract": "contracts/settling/facets/ResourceConstructionFacet.sol:ResourceConstructionFacet",
            "label": "harbours",
            "offset": 1,
            "slot": "6",
            "type": "t_uint8"
          },
          {
            "astId": 2270,
            "contract": "contracts/settling/facets/ResourceConstructionFacet.sol:ResourceConstructionFacet",
            "label": "rivers",
            "offset": 2,
            "slot": "6",
            "type": "t_uint8"
          },
          {
            "astId": 2272,
            "contract": "contracts/settling/facets/ResourceConstructionFacet.sol:ResourceConstructionFacet",
            "label": "regions",
            "offset": 3,
            "slot": "6",
            "type": "t_uint8"
          },
          {
            "astId": 2274,
            "contract": "contracts/settling/facets/ResourceConstructionFacet.sol:ResourceConstructionFacet",
            "label": "wonders",
            "offset": 4,
            "slot": "6",
            "type": "t_uint8"
          },
          {
            "astId": 2276,
            "contract": "contracts/settling/facets/ResourceConstructionFacet.sol:ResourceConstructionFacet",
            "label": "orderOf",
            "offset": 5,
            "slot": "6",
            "type": "t_uint8"
          },
          {
            "astId": 2278,
            "contract": "contracts/settling/facets/ResourceConstructionFacet.sol:ResourceConstructionFacet",
            "label": "aquaducts",
            "offset": 6,
            "slot": "6",
            "type": "t_uint8"
          },
          {
            "astId": 2280,
            "contract": "contracts/settling/facets/ResourceConstructionFacet.sol:ResourceConstructionFacet",
            "label": "temples",
            "offset": 7,
            "slot": "6",
            "type": "t_uint8"
          },
          {
            "astId": 2282,
            "contract": "contracts/settling/facets/ResourceConstructionFacet.sol:ResourceConstructionFacet",
            "label": "castles",
            "offset": 8,
            "slot": "6",
            "type": "t_uint8"
          },
          {
            "astId": 2284,
            "contract": "contracts/settling/facets/ResourceConstructionFacet.sol:ResourceConstructionFacet",
            "label": "markets",
            "offset": 9,
            "slot": "6",
            "type": "t_uint8"
          },
          {
            "astId": 2286,
            "contract": "contracts/settling/facets/ResourceConstructionFacet.sol:ResourceConstructionFacet",
            "label": "ports",
            "offset": 10,
            "slot": "6",
            "type": "t_uint8"
          },
          {
            "astId": 2288,
            "contract": "contracts/settling/facets/ResourceConstructionFacet.sol:ResourceConstructionFacet",
            "label": "barracks",
            "offset": 11,
            "slot": "6",
            "type": "t_uint8"
          },
          {
            "astId": 2290,
            "contract": "contracts/settling/facets/ResourceConstructionFacet.sol:ResourceConstructionFacet",
            "label": "farms",
            "offset": 12,
            "slot": "6",
            "type": "t_uint8"
          },
          {
            "astId": 2292,
            "contract": "contracts/settling/facets/ResourceConstructionFacet.sol:ResourceConstructionFacet",
            "label": "shipyard",
            "offset": 13,
            "slot": "6",
            "type": "t_uint8"
          },
          {
            "astId": 2294,
            "contract": "contracts/settling/facets/ResourceConstructionFacet.sol:ResourceConstructionFacet",
            "label": "fishingVillage",
            "offset": 14,
            "slot": "6",
            "type": "t_uint8"
          },
          {
            "astId": 2296,
            "contract": "contracts/settling/facets/ResourceConstructionFacet.sol:ResourceConstructionFacet",
            "label": "realmDefence",
            "offset": 15,
            "slot": "6",
            "type": "t_int32"
          },
          {
            "astId": 2298,
            "contract": "contracts/settling/facets/ResourceConstructionFacet.sol:ResourceConstructionFacet",
            "label": "realmOffence",
            "offset": 19,
            "slot": "6",
            "type": "t_int32"
          },
          {
            "astId": 2300,
            "contract": "contracts/settling/facets/ResourceConstructionFacet.sol:ResourceConstructionFacet",
            "label": "realmMagic",
            "offset": 23,
            "slot": "6",
            "type": "t_int32"
          },
          {
            "astId": 2302,
            "contract": "contracts/settling/facets/ResourceConstructionFacet.sol:ResourceConstructionFacet",
            "label": "foodSupply",
            "offset": 27,
            "slot": "6",
            "type": "t_int32"
          },
          {
            "astId": 2304,
            "contract": "contracts/settling/facets/ResourceConstructionFacet.sol:ResourceConstructionFacet",
            "label": "population",
            "offset": 0,
            "slot": "7",
            "type": "t_int32"
          },
          {
            "astId": 2309,
            "contract": "contracts/settling/facets/ResourceConstructionFacet.sol:ResourceConstructionFacet",
            "label": "resourceInfo",
            "offset": 0,
            "slot": "8",
            "type": "t_mapping(t_uint256,t_struct(ResourceInfo)2317_storage)"
          }
        ],
        "numberOfBytes": "288"
      },
      "t_struct(ResourceInfo)2317_storage": {
        "encoding": "inplace",
        "label": "struct ResourceInfo",
        "members": [
          {
            "astId": 2312,
            "contract": "contracts/settling/facets/ResourceConstructionFacet.sol:ResourceConstructionFacet",
            "label": "id",
            "offset": 0,
            "slot": "0",
            "type": "t_uint8"
          },
          {
            "astId": 2314,
            "contract": "contracts/settling/facets/ResourceConstructionFacet.sol:ResourceConstructionFacet",
            "label": "level",
            "offset": 1,
            "slot": "0",
            "type": "t_uint8"
          },
          {
            "astId": 2316,
            "contract": "contracts/settling/facets/ResourceConstructionFacet.sol:ResourceConstructionFacet",
            "label": "production",
            "offset": 2,
            "slot": "0",
            "type": "t_uint8"
          }
        ],
        "numberOfBytes": "32"
      },
      "t_struct(TheAges)2251_storage": {
        "encoding": "inplace",
        "label": "struct TheAges",
        "members": [
          {
            "astId": 2246,
            "contract": "contracts/settling/facets/ResourceConstructionFacet.sol:ResourceConstructionFacet",
            "label": "settledRealms",
            "offset": 0,
            "slot": "0",
            "type": "t_uint256"
          },
          {
            "astId": 2248,
            "contract": "contracts/settling/facets/ResourceConstructionFacet.sol:ResourceConstructionFacet",
            "label": "ageStart",
            "offset": 0,
            "slot": "1",
            "type": "t_uint256"
          },
          {
            "astId": 2250,
            "contract": "contracts/settling/facets/ResourceConstructionFacet.sol:ResourceConstructionFacet",
            "label": "ageFinish",
            "offset": 0,
            "slot": "2",
            "type": "t_uint256"
          }
        ],
        "numberOfBytes": "96"
      },
      "t_struct(TrainedArmyUnit)2414_storage": {
        "encoding": "inplace",
        "label": "struct TrainedArmyUnit",
        "members": [
          {
            "astId": 2411,
            "contract": "contracts/settling/facets/ResourceConstructionFacet.sol:ResourceConstructionFacet",
            "label": "destroyed",
            "offset": 0,
            "slot": "0",
            "type": "t_bool"
          },
          {
            "astId": 2413,
            "contract": "contracts/settling/facets/ResourceConstructionFacet.sol:ResourceConstructionFacet",
            "label": "unitFinished",
            "offset": 0,
            "slot": "1",
            "type": "t_uint256"
          }
        ],
        "numberOfBytes": "64"
      },
      "t_struct(UpgradeCostLevels)2364_storage": {
        "encoding": "inplace",
        "label": "struct UpgradeCostLevels",
        "members": [
          {
            "astId": 2363,
            "contract": "contracts/settling/facets/ResourceConstructionFacet.sol:ResourceConstructionFacet",
            "label": "value",
            "offset": 0,
            "slot": "0",
            "type": "t_array(t_uint256)dyn_storage"
          }
        ],
        "numberOfBytes": "32"
      },
      "t_struct(UpgradeCosts)2360_storage": {
        "encoding": "inplace",
        "label": "struct UpgradeCosts",
        "members": [
          {
            "astId": 2354,
            "contract": "contracts/settling/facets/ResourceConstructionFacet.sol:ResourceConstructionFacet",
            "label": "resourceIds",
            "offset": 0,
            "slot": "0",
            "type": "t_array(t_uint8)dyn_storage"
          },
          {
            "astId": 2359,
            "contract": "contracts/settling/facets/ResourceConstructionFacet.sol:ResourceConstructionFacet",
            "label": "upgradeCostLevels",
            "offset": 0,
            "slot": "1",
            "type": "t_mapping(t_uint256,t_struct(UpgradeCostLevels)2364_storage)"
          }
        ],
        "numberOfBytes": "64"
      },
      "t_uint256": {
        "encoding": "inplace",
        "label": "uint256",
        "numberOfBytes": "32"
      },
      "t_uint32": {
        "encoding": "inplace",
        "label": "uint32",
        "numberOfBytes": "4"
      },
      "t_uint8": {
        "encoding": "inplace",
        "label": "uint8",
        "numberOfBytes": "1"
      }
    }
  }
}