{
  "address": "0xF841514865dC2757e271EB2c649D15DEe33AfF10",
  "abi": [
    {
      "inputs": [
        {
          "internalType": "uint256",
          "name": "_resourceId",
          "type": "uint256"
        },
        {
          "internalType": "uint256",
          "name": "_level",
          "type": "uint256"
        }
      ],
      "name": "getCosts",
      "outputs": [
        {
          "internalType": "uint256[]",
          "name": "",
          "type": "uint256[]"
        },
        {
          "internalType": "uint8[]",
          "name": "",
          "type": "uint8[]"
        }
      ],
      "stateMutability": "view",
      "type": "function"
    },
    {
      "inputs": [
        {
          "internalType": "uint256",
          "name": "_tokenId",
          "type": "uint256"
        },
        {
          "internalType": "uint256",
          "name": "_resourceId",
          "type": "uint256"
        }
      ],
      "name": "getProductionDetails",
      "outputs": [
        {
          "internalType": "uint256",
          "name": "",
          "type": "uint256"
        },
        {
          "internalType": "uint256",
          "name": "",
          "type": "uint256"
        }
      ],
      "stateMutability": "view",
      "type": "function"
    },
    {
      "inputs": [],
      "name": "initResourceValues",
      "outputs": [],
      "stateMutability": "nonpayable",
      "type": "function"
    },
    {
      "inputs": [
        {
          "internalType": "uint256",
          "name": "_realmTokenId",
          "type": "uint256"
        },
        {
          "internalType": "uint256",
          "name": "_resourceId",
          "type": "uint256"
        },
        {
          "internalType": "uint256[]",
          "name": "resources",
          "type": "uint256[]"
        },
        {
          "internalType": "uint256[]",
          "name": "resourceValues",
          "type": "uint256[]"
        }
      ],
      "name": "upgradeResource",
      "outputs": [],
      "stateMutability": "payable",
      "type": "function"
    }
  ],
  "transactionHash": "0xff5579e3b73003304556ebce23d1f7b42303a85d4b7f818c1da659cda02439bb",
  "args": [],
  "solcInputHash": "6ff06cbd8dadafec7118428c79511e38",
  "bytecode": "0x608060405234801561001057600080fd5b5061141a806100206000396000f3fe60806040526004361061003f5760003560e01c80633dc974a31461004457806396a2d73b1461005b578063b364a22114610099578063f9831c7d146100b5575b600080fd5b34801561005057600080fd5b506100596100f3565b005b34801561006757600080fd5b50610082600480360381019061007d9190610e29565b61072b565b6040516100909291906110ab565b60405180910390f35b6100b360048036038101906100ae9190610e65565b610839565b005b3480156100c157600080fd5b506100dc60048036038101906100d79190610e29565b610be8565b6040516100ea929190611122565b60405180910390f35b600a600060080160006001815260200190815260200160002060000160006101000a81548160ff021916908360ff160217905550600e600060080160006002815260200190815260200160002060000160006101000a81548160ff021916908360ff1602179055506010600060080160006003815260200190815260200160002060000160006101000a81548160ff021916908360ff1602179055506012600060080160006004815260200190815260200160002060000160006101000a81548160ff021916908360ff1602179055506014600060080160006005815260200190815260200160002060000160006101000a81548160ff021916908360ff1602179055506040518060600160405280600160ff168152602001600260ff168152602001600360ff168152506000600901600060018152602001908152602001600020600001906003610246929190610c68565b506040518060600160405280600160ff168152602001600260ff168152602001600360ff168152506000600901600060028152602001908152602001600020600001906003610296929190610c68565b506040518060600160405280600160ff168152602001600260ff168152602001600360ff1681525060006009016000600381526020019081526020016000206000019060036102e6929190610c68565b506040518060600160405280600160ff168152602001600260ff168152602001600360ff168152506000600901600060048152602001908152602001600020600001906003610336929190610c68565b506040518060600160405280600160ff168152602001600160ff168152602001600160ff16815250600060090160006001815260200190815260200160002060010160006001815260200190815260200160002060000190600361039b929190610d0f565b506040518060600160405280600260ff168152602001600260ff168152602001600260ff168152506000600901600060018152602001908152602001600020600101600060028152602001908152602001600020600001906003610400929190610d0f565b506040518060600160405280600360ff168152602001600360ff168152602001600360ff168152506000600901600060018152602001908152602001600020600101600060038152602001908152602001600020600001906003610465929190610d0f565b506040518060600160405280600460ff168152602001600460ff168152602001600460ff1681525060006009016000600181526020019081526020016000206001016000600481526020019081526020016000206000019060036104ca929190610d0f565b506040518060600160405280600560ff168152602001600560ff168152602001600560ff16815250600060090160006001815260200190815260200160002060010160006005815260200190815260200160002060000190600361052f929190610d0f565b506040518060600160405280600160ff168152602001600160ff168152602001600160ff168152506000600901600060028152602001908152602001600020600101600060018152602001908152602001600020600001906003610594929190610d0f565b506040518060600160405280600260ff168152602001600260ff168152602001600260ff1681525060006009016000600281526020019081526020016000206001016000600281526020019081526020016000206000019060036105f9929190610d0f565b506040518060600160405280600360ff168152602001600360ff168152602001600360ff16815250600060090160006002815260200190815260200160002060010160006003815260200190815260200160002060000190600361065e929190610d0f565b506040518060600160405280600460ff168152602001600460ff168152602001600460ff1681525060006009016000600281526020019081526020016000206001016000600481526020019081526020016000206000019060036106c3929190610d0f565b506040518060600160405280600560ff168152602001600560ff168152602001600560ff168152506000600901600060028152602001908152602001600020600101600060058152602001908152602001600020600001906003610728929190610d0f565b50565b6060806000806009016000868152602001908152602001600020905080600101600085815260200190815260200160002060000181600001818054806020026020016040519081016040528092919081815260200182805480156107ae57602002820191906000526020600020905b81548152602001906001019080831161079a575b505050505091508080548060200260200160405190810160405280929190818152602001828054801561082657602002820191906000526020600020906000905b82829054906101000a900460ff1660ff16815260200190600101906020826000010492830192600103820291508084116107ef5790505b5050505050905092509250509250929050565b600080600001600086815260200190815260200160002090506000806009016000868152602001908152602001600020905060008060060160009054906101000a900473ffffffffffffffffffffffffffffffffffffffff16905060005b8260000180549050811015610a9d578260000181815481106108e2577f4e487b7100000000000000000000000000000000000000000000000000000000600052603260045260246000fd5b90600052602060002090602091828204019190069054906101000a900460ff1660ff1686828151811061093e577f4e487b7100000000000000000000000000000000000000000000000000000000600052603260045260246000fd5b602002602001015114610986576040517f08c379a000000000000000000000000000000000000000000000000000000000815260040161097d906110e2565b60405180910390fd5b8260010160008560060160008a815260200190815260200160002060000160019054906101000a900460ff1660ff16815260200190815260200160002060000181815481106109fe577f4e487b7100000000000000000000000000000000000000000000000000000000600052603260045260246000fd5b9060005260206000200154858281518110610a42577f4e487b7100000000000000000000000000000000000000000000000000000000600052603260045260246000fd5b602002602001015114610a8a576040517f08c379a0000000000000000000000000000000000000000000000000000000008152600401610a8190611102565b60405180910390fd5b8080610a9590611299565b915050610897565b508073ffffffffffffffffffffffffffffffffffffffff1663ddb6f7f13387876040518463ffffffff1660e01b8152600401610adb93929190611066565b600060405180830381600087803b158015610af557600080fd5b505af1158015610b09573d6000803e3d6000fd5b50505050826006016000878152602001908152602001600020600001600181819054906101000a900460ff1680929190610b42906112e2565b91906101000a81548160ff021916908360ff1602179055505060008060080160008560060160008a815260200190815260200160002060000160019054906101000a900460ff1660ff16815260200190815260200160002090508060000160009054906101000a900460ff1684600601600089815260200190815260200160002060000160026101000a81548160ff021916908360ff1602179055505050505050505050565b6000806000806000016000868152602001908152602001600020905080600601600085815260200190815260200160002060000160019054906101000a900460ff1681600601600086815260200190815260200160002060000160029054906101000a900460ff168160ff1691508060ff16905092509250509250929050565b82805482825590600052602060002090601f01602090048101928215610cfe5791602002820160005b83821115610ccf57835183826101000a81548160ff021916908360ff1602179055509260200192600101602081600001049283019260010302610c91565b8015610cfc5782816101000a81549060ff0219169055600101602081600001049283019260010302610ccf565b505b509050610d0b9190610d61565b5090565b828054828255906000526020600020908101928215610d50579160200282015b82811115610d4f578251829060ff16905591602001919060010190610d2f565b5b509050610d5d9190610d61565b5090565b5b80821115610d7a576000816000905550600101610d62565b5090565b6000610d91610d8c84611170565b61114b565b90508083825260208201905082856020860282011115610db057600080fd5b60005b85811015610de05781610dc68882610e14565b845260208401935060208301925050600181019050610db3565b5050509392505050565b600082601f830112610dfb57600080fd5b8135610e0b848260208601610d7e565b91505092915050565b600081359050610e23816113cd565b92915050565b60008060408385031215610e3c57600080fd5b6000610e4a85828601610e14565b9250506020610e5b85828601610e14565b9150509250929050565b60008060008060808587031215610e7b57600080fd5b6000610e8987828801610e14565b9450506020610e9a87828801610e14565b935050604085013567ffffffffffffffff811115610eb757600080fd5b610ec387828801610dea565b925050606085013567ffffffffffffffff811115610ee057600080fd5b610eec87828801610dea565b91505092959194509250565b6000610f048383611039565b60208301905092915050565b6000610f1c8383611057565b60208301905092915050565b610f318161121f565b82525050565b6000610f42826111bc565b610f4c81856111ec565b9350610f578361119c565b8060005b83811015610f88578151610f6f8882610ef8565b9750610f7a836111d2565b925050600181019050610f5b565b5085935050505092915050565b6000610fa0826111c7565b610faa81856111fd565b9350610fb5836111ac565b8060005b83811015610fe6578151610fcd8882610f10565b9750610fd8836111df565b925050600181019050610fb9565b5085935050505092915050565b600061100060128361120e565b915061100b8261137b565b602082019050919050565b6000611023601a8361120e565b915061102e826113a4565b602082019050919050565b61104281611251565b82525050565b61105181611251565b82525050565b6110608161125b565b82525050565b600060608201905061107b6000830186610f28565b818103602083015261108d8185610f37565b905081810360408301526110a18184610f37565b9050949350505050565b600060408201905081810360008301526110c58185610f37565b905081810360208301526110d98184610f95565b90509392505050565b600060208201905081810360008301526110fb81610ff3565b9050919050565b6000602082019050818103600083015261111b81611016565b9050919050565b60006040820190506111376000830185611048565b6111446020830184611048565b9392505050565b6000611155611166565b90506111618282611268565b919050565b6000604051905090565b600067ffffffffffffffff82111561118b5761118a61133b565b5b602082029050602081019050919050565b6000819050602082019050919050565b6000819050602082019050919050565b600081519050919050565b600081519050919050565b6000602082019050919050565b6000602082019050919050565b600082825260208201905092915050565b600082825260208201905092915050565b600082825260208201905092915050565b600061122a82611231565b9050919050565b600073ffffffffffffffffffffffffffffffffffffffff82169050919050565b6000819050919050565b600060ff82169050919050565b6112718261136a565b810181811067ffffffffffffffff821117156112905761128f61133b565b5b80604052505050565b60006112a482611251565b91507fffffffffffffffffffffffffffffffffffffffffffffffffffffffffffffffff8214156112d7576112d661130c565b5b600182019050919050565b60006112ed8261125b565b915060ff8214156113015761130061130c565b5b600182019050919050565b7f4e487b7100000000000000000000000000000000000000000000000000000000600052601160045260246000fd5b7f4e487b7100000000000000000000000000000000000000000000000000000000600052604160045260246000fd5b6000601f19601f8301169050919050565b7f496e636f7272656374207265736f757263650000000000000000000000000000600082015250565b7f496e636f7272656374207265736f75726365732076616c756573000000000000600082015250565b6113d681611251565b81146113e157600080fd5b5056fea2646970667358221220f19c2e62e0628088f67814245c1e65cd4b3d28f199068fc44addb3316370b72464736f6c63430008030033",
  "devdoc": {
    "kind": "dev",
    "methods": {},
    "version": 1
  },
  "userdoc": {
    "kind": "user",
    "methods": {},
    "version": 1
  },
  "storageLayout": {
    "storage": [
      {
        "astId": 25,
        "contract": "contracts/facets/ResourceConstructionFacet.sol:ResourceConstructionFacet",
        "label": "s",
        "offset": 0,
        "slot": "0",
        "type": "t_struct(AppStorage)1127_storage"
      }
    ],
    "types": {
      "t_address": {
        "encoding": "inplace",
        "label": "address",
        "numberOfBytes": "20"
      },
      "t_array(t_uint256)dyn_storage": {
        "base": "t_uint256",
        "encoding": "dynamic_array",
        "label": "uint256[]",
        "numberOfBytes": "32"
      },
      "t_array(t_uint8)dyn_storage": {
        "base": "t_uint8",
        "encoding": "dynamic_array",
        "label": "uint8[]",
        "numberOfBytes": "32"
      },
      "t_mapping(t_uint256,t_struct(BuildingCosts)1198_storage)": {
        "encoding": "mapping",
        "key": "t_uint256",
        "label": "mapping(uint256 => struct BuildingCosts)",
        "numberOfBytes": "32",
        "value": "t_struct(BuildingCosts)1198_storage"
      },
      "t_mapping(t_uint256,t_struct(BuildingUpgradeCosts)1207_storage)": {
        "encoding": "mapping",
        "key": "t_uint256",
        "label": "mapping(uint256 => struct BuildingUpgradeCosts)",
        "numberOfBytes": "32",
        "value": "t_struct(BuildingUpgradeCosts)1207_storage"
      },
      "t_mapping(t_uint256,t_struct(LevelProduction)1210_storage)": {
        "encoding": "mapping",
        "key": "t_uint256",
        "label": "mapping(uint256 => struct LevelProduction)",
        "numberOfBytes": "32",
        "value": "t_struct(LevelProduction)1210_storage"
      },
      "t_mapping(t_uint256,t_struct(RealmBuildings)1186_storage)": {
        "encoding": "mapping",
        "key": "t_uint256",
        "label": "mapping(uint256 => struct RealmBuildings)",
        "numberOfBytes": "32",
        "value": "t_struct(RealmBuildings)1186_storage"
      },
      "t_mapping(t_uint256,t_struct(RealmInfo)1163_storage)": {
        "encoding": "mapping",
        "key": "t_uint256",
        "label": "mapping(uint256 => struct RealmInfo)",
        "numberOfBytes": "32",
        "value": "t_struct(RealmInfo)1163_storage"
      },
      "t_mapping(t_uint256,t_struct(RealmStatistics)1136_storage)": {
        "encoding": "mapping",
        "key": "t_uint256",
        "label": "mapping(uint256 => struct RealmStatistics)",
        "numberOfBytes": "32",
        "value": "t_struct(RealmStatistics)1136_storage"
      },
      "t_mapping(t_uint256,t_struct(ResourceInfo)1170_storage)": {
        "encoding": "mapping",
        "key": "t_uint256",
        "label": "mapping(uint256 => struct ResourceInfo)",
        "numberOfBytes": "32",
        "value": "t_struct(ResourceInfo)1170_storage"
      },
      "t_mapping(t_uint256,t_struct(UpgradeCostLevels)1223_storage)": {
        "encoding": "mapping",
        "key": "t_uint256",
        "label": "mapping(uint256 => struct UpgradeCostLevels)",
        "numberOfBytes": "32",
        "value": "t_struct(UpgradeCostLevels)1223_storage"
      },
      "t_mapping(t_uint256,t_struct(UpgradeCosts)1219_storage)": {
        "encoding": "mapping",
        "key": "t_uint256",
        "label": "mapping(uint256 => struct UpgradeCosts)",
        "numberOfBytes": "32",
        "value": "t_struct(UpgradeCosts)1219_storage"
      },
      "t_string_storage": {
        "encoding": "bytes",
        "label": "string",
        "numberOfBytes": "32"
      },
      "t_struct(AppStorage)1127_storage": {
        "encoding": "inplace",
        "label": "struct AppStorage",
        "members": [
          {
            "astId": 1082,
            "contract": "contracts/facets/ResourceConstructionFacet.sol:ResourceConstructionFacet",
            "label": "realmInfo",
            "offset": 0,
            "slot": "0",
            "type": "t_mapping(t_uint256,t_struct(RealmInfo)1163_storage)"
          },
          {
            "astId": 1087,
            "contract": "contracts/facets/ResourceConstructionFacet.sol:ResourceConstructionFacet",
            "label": "realmStatistics",
            "offset": 0,
            "slot": "1",
            "type": "t_mapping(t_uint256,t_struct(RealmStatistics)1136_storage)"
          },
          {
            "astId": 1092,
            "contract": "contracts/facets/ResourceConstructionFacet.sol:ResourceConstructionFacet",
            "label": "realmBuildings",
            "offset": 0,
            "slot": "2",
            "type": "t_mapping(t_uint256,t_struct(RealmBuildings)1186_storage)"
          },
          {
            "astId": 1094,
            "contract": "contracts/facets/ResourceConstructionFacet.sol:ResourceConstructionFacet",
            "label": "baseProductionRate",
            "offset": 0,
            "slot": "3",
            "type": "t_uint8"
          },
          {
            "astId": 1096,
            "contract": "contracts/facets/ResourceConstructionFacet.sol:ResourceConstructionFacet",
            "label": "maxProductionRate",
            "offset": 1,
            "slot": "3",
            "type": "t_uint8"
          },
          {
            "astId": 1098,
            "contract": "contracts/facets/ResourceConstructionFacet.sol:ResourceConstructionFacet",
            "label": "sRealms",
            "offset": 2,
            "slot": "3",
            "type": "t_address"
          },
          {
            "astId": 1100,
            "contract": "contracts/facets/ResourceConstructionFacet.sol:ResourceConstructionFacet",
            "label": "realms",
            "offset": 0,
            "slot": "4",
            "type": "t_address"
          },
          {
            "astId": 1102,
            "contract": "contracts/facets/ResourceConstructionFacet.sol:ResourceConstructionFacet",
            "label": "treasury",
            "offset": 0,
            "slot": "5",
            "type": "t_address"
          },
          {
            "astId": 1104,
            "contract": "contracts/facets/ResourceConstructionFacet.sol:ResourceConstructionFacet",
            "label": "resources",
            "offset": 0,
            "slot": "6",
            "type": "t_address"
          },
          {
            "astId": 1106,
            "contract": "contracts/facets/ResourceConstructionFacet.sol:ResourceConstructionFacet",
            "label": "oracle",
            "offset": 0,
            "slot": "7",
            "type": "t_address"
          },
          {
            "astId": 1111,
            "contract": "contracts/facets/ResourceConstructionFacet.sol:ResourceConstructionFacet",
            "label": "levelProduction",
            "offset": 0,
            "slot": "8",
            "type": "t_mapping(t_uint256,t_struct(LevelProduction)1210_storage)"
          },
          {
            "astId": 1116,
            "contract": "contracts/facets/ResourceConstructionFacet.sol:ResourceConstructionFacet",
            "label": "upgradeCosts",
            "offset": 0,
            "slot": "9",
            "type": "t_mapping(t_uint256,t_struct(UpgradeCosts)1219_storage)"
          },
          {
            "astId": 1121,
            "contract": "contracts/facets/ResourceConstructionFacet.sol:ResourceConstructionFacet",
            "label": "buildingUpgradeCosts",
            "offset": 0,
            "slot": "10",
            "type": "t_mapping(t_uint256,t_struct(BuildingUpgradeCosts)1207_storage)"
          },
          {
            "astId": 1126,
            "contract": "contracts/facets/ResourceConstructionFacet.sol:ResourceConstructionFacet",
            "label": "buildingCosts",
            "offset": 0,
            "slot": "11",
            "type": "t_mapping(t_uint256,t_struct(BuildingCosts)1198_storage)"
          }
        ],
        "numberOfBytes": "384"
      },
      "t_struct(BuildingCosts)1198_storage": {
        "encoding": "inplace",
        "label": "struct BuildingCosts",
        "members": [
          {
            "astId": 1188,
            "contract": "contracts/facets/ResourceConstructionFacet.sol:ResourceConstructionFacet",
            "label": "name",
            "offset": 0,
            "slot": "0",
            "type": "t_string_storage"
          },
          {
            "astId": 1191,
            "contract": "contracts/facets/ResourceConstructionFacet.sol:ResourceConstructionFacet",
            "label": "resourceIds",
            "offset": 0,
            "slot": "1",
            "type": "t_array(t_uint8)dyn_storage"
          },
          {
            "astId": 1194,
            "contract": "contracts/facets/ResourceConstructionFacet.sol:ResourceConstructionFacet",
            "label": "resourceValues",
            "offset": 0,
            "slot": "2",
            "type": "t_array(t_uint8)dyn_storage"
          },
          {
            "astId": 1197,
            "contract": "contracts/facets/ResourceConstructionFacet.sol:ResourceConstructionFacet",
            "label": "requirements",
            "offset": 0,
            "slot": "3",
            "type": "t_array(t_uint8)dyn_storage"
          }
        ],
        "numberOfBytes": "128"
      },
      "t_struct(BuildingUpgradeCosts)1207_storage": {
        "encoding": "inplace",
        "label": "struct BuildingUpgradeCosts",
        "members": [
          {
            "astId": 1201,
            "contract": "contracts/facets/ResourceConstructionFacet.sol:ResourceConstructionFacet",
            "label": "realmBuildings",
            "offset": 0,
            "slot": "0",
            "type": "t_array(t_uint8)dyn_storage"
          },
          {
            "astId": 1206,
            "contract": "contracts/facets/ResourceConstructionFacet.sol:ResourceConstructionFacet",
            "label": "buildingCosts",
            "offset": 0,
            "slot": "1",
            "type": "t_mapping(t_uint256,t_struct(BuildingCosts)1198_storage)"
          }
        ],
        "numberOfBytes": "64"
      },
      "t_struct(LevelProduction)1210_storage": {
        "encoding": "inplace",
        "label": "struct LevelProduction",
        "members": [
          {
            "astId": 1209,
            "contract": "contracts/facets/ResourceConstructionFacet.sol:ResourceConstructionFacet",
            "label": "output",
            "offset": 0,
            "slot": "0",
            "type": "t_uint8"
          }
        ],
        "numberOfBytes": "32"
      },
      "t_struct(RealmBuildings)1186_storage": {
        "encoding": "inplace",
        "label": "struct RealmBuildings",
        "members": [
          {
            "astId": 1177,
            "contract": "contracts/facets/ResourceConstructionFacet.sol:ResourceConstructionFacet",
            "label": "aquaducts",
            "offset": 0,
            "slot": "0",
            "type": "t_uint8"
          },
          {
            "astId": 1179,
            "contract": "contracts/facets/ResourceConstructionFacet.sol:ResourceConstructionFacet",
            "label": "temples",
            "offset": 1,
            "slot": "0",
            "type": "t_uint8"
          },
          {
            "astId": 1181,
            "contract": "contracts/facets/ResourceConstructionFacet.sol:ResourceConstructionFacet",
            "label": "castles",
            "offset": 2,
            "slot": "0",
            "type": "t_uint8"
          },
          {
            "astId": 1183,
            "contract": "contracts/facets/ResourceConstructionFacet.sol:ResourceConstructionFacet",
            "label": "markets",
            "offset": 3,
            "slot": "0",
            "type": "t_uint8"
          },
          {
            "astId": 1185,
            "contract": "contracts/facets/ResourceConstructionFacet.sol:ResourceConstructionFacet",
            "label": "ports",
            "offset": 4,
            "slot": "0",
            "type": "t_uint8"
          }
        ],
        "numberOfBytes": "32"
      },
      "t_struct(RealmInfo)1163_storage": {
        "encoding": "inplace",
        "label": "struct RealmInfo",
        "members": [
          {
            "astId": 1138,
            "contract": "contracts/facets/ResourceConstructionFacet.sol:ResourceConstructionFacet",
            "label": "tokenId",
            "offset": 0,
            "slot": "0",
            "type": "t_uint256"
          },
          {
            "astId": 1140,
            "contract": "contracts/facets/ResourceConstructionFacet.sol:ResourceConstructionFacet",
            "label": "name",
            "offset": 0,
            "slot": "1",
            "type": "t_string_storage"
          },
          {
            "astId": 1142,
            "contract": "contracts/facets/ResourceConstructionFacet.sol:ResourceConstructionFacet",
            "label": "lastUpdateAt",
            "offset": 0,
            "slot": "2",
            "type": "t_uint256"
          },
          {
            "astId": 1144,
            "contract": "contracts/facets/ResourceConstructionFacet.sol:ResourceConstructionFacet",
            "label": "vestedTimeUpdatedAt",
            "offset": 0,
            "slot": "3",
            "type": "t_uint256"
          },
          {
            "astId": 1146,
            "contract": "contracts/facets/ResourceConstructionFacet.sol:ResourceConstructionFacet",
            "label": "cities",
            "offset": 0,
            "slot": "4",
            "type": "t_uint8"
          },
          {
            "astId": 1148,
            "contract": "contracts/facets/ResourceConstructionFacet.sol:ResourceConstructionFacet",
            "label": "harbours",
            "offset": 1,
            "slot": "4",
            "type": "t_uint8"
          },
          {
            "astId": 1150,
            "contract": "contracts/facets/ResourceConstructionFacet.sol:ResourceConstructionFacet",
            "label": "rivers",
            "offset": 2,
            "slot": "4",
            "type": "t_uint8"
          },
          {
            "astId": 1152,
            "contract": "contracts/facets/ResourceConstructionFacet.sol:ResourceConstructionFacet",
            "label": "regions",
            "offset": 3,
            "slot": "4",
            "type": "t_uint8"
          },
          {
            "astId": 1154,
            "contract": "contracts/facets/ResourceConstructionFacet.sol:ResourceConstructionFacet",
            "label": "wonders",
            "offset": 4,
            "slot": "4",
            "type": "t_uint8"
          },
          {
            "astId": 1157,
            "contract": "contracts/facets/ResourceConstructionFacet.sol:ResourceConstructionFacet",
            "label": "resourceIds",
            "offset": 0,
            "slot": "5",
            "type": "t_array(t_uint256)dyn_storage"
          },
          {
            "astId": 1162,
            "contract": "contracts/facets/ResourceConstructionFacet.sol:ResourceConstructionFacet",
            "label": "resourceInfo",
            "offset": 0,
            "slot": "6",
            "type": "t_mapping(t_uint256,t_struct(ResourceInfo)1170_storage)"
          }
        ],
        "numberOfBytes": "224"
      },
      "t_struct(RealmStatistics)1136_storage": {
        "encoding": "inplace",
        "label": "struct RealmStatistics",
        "members": [
          {
            "astId": 1129,
            "contract": "contracts/facets/ResourceConstructionFacet.sol:ResourceConstructionFacet",
            "label": "realmDefence",
            "offset": 0,
            "slot": "0",
            "type": "t_uint8"
          },
          {
            "astId": 1131,
            "contract": "contracts/facets/ResourceConstructionFacet.sol:ResourceConstructionFacet",
            "label": "realmOffence",
            "offset": 1,
            "slot": "0",
            "type": "t_uint8"
          },
          {
            "astId": 1133,
            "contract": "contracts/facets/ResourceConstructionFacet.sol:ResourceConstructionFacet",
            "label": "realmMagic",
            "offset": 2,
            "slot": "0",
            "type": "t_uint8"
          },
          {
            "astId": 1135,
            "contract": "contracts/facets/ResourceConstructionFacet.sol:ResourceConstructionFacet",
            "label": "foodSupply",
            "offset": 3,
            "slot": "0",
            "type": "t_uint8"
          }
        ],
        "numberOfBytes": "32"
      },
      "t_struct(ResourceInfo)1170_storage": {
        "encoding": "inplace",
        "label": "struct ResourceInfo",
        "members": [
          {
            "astId": 1165,
            "contract": "contracts/facets/ResourceConstructionFacet.sol:ResourceConstructionFacet",
            "label": "id",
            "offset": 0,
            "slot": "0",
            "type": "t_uint8"
          },
          {
            "astId": 1167,
            "contract": "contracts/facets/ResourceConstructionFacet.sol:ResourceConstructionFacet",
            "label": "level",
            "offset": 1,
            "slot": "0",
            "type": "t_uint8"
          },
          {
            "astId": 1169,
            "contract": "contracts/facets/ResourceConstructionFacet.sol:ResourceConstructionFacet",
            "label": "production",
            "offset": 2,
            "slot": "0",
            "type": "t_uint8"
          }
        ],
        "numberOfBytes": "32"
      },
      "t_struct(UpgradeCostLevels)1223_storage": {
        "encoding": "inplace",
        "label": "struct UpgradeCostLevels",
        "members": [
          {
            "astId": 1222,
            "contract": "contracts/facets/ResourceConstructionFacet.sol:ResourceConstructionFacet",
            "label": "value",
            "offset": 0,
            "slot": "0",
            "type": "t_array(t_uint256)dyn_storage"
          }
        ],
        "numberOfBytes": "32"
      },
      "t_struct(UpgradeCosts)1219_storage": {
        "encoding": "inplace",
        "label": "struct UpgradeCosts",
        "members": [
          {
            "astId": 1213,
            "contract": "contracts/facets/ResourceConstructionFacet.sol:ResourceConstructionFacet",
            "label": "resourceIds",
            "offset": 0,
            "slot": "0",
            "type": "t_array(t_uint8)dyn_storage"
          },
          {
            "astId": 1218,
            "contract": "contracts/facets/ResourceConstructionFacet.sol:ResourceConstructionFacet",
            "label": "upgradeCostLevels",
            "offset": 0,
            "slot": "1",
            "type": "t_mapping(t_uint256,t_struct(UpgradeCostLevels)1223_storage)"
          }
        ],
        "numberOfBytes": "64"
      },
      "t_uint256": {
        "encoding": "inplace",
        "label": "uint256",
        "numberOfBytes": "32"
      },
      "t_uint8": {
        "encoding": "inplace",
        "label": "uint8",
        "numberOfBytes": "1"
      }
    }
  }
}