{
  "address": "0x0096e2369591cAAEB66f922785d47D0913652ba3",
  "abi": [
    {
      "anonymous": false,
      "inputs": [
        {
          "indexed": false,
          "internalType": "uint256",
          "name": "_tokenId",
          "type": "uint256"
        }
      ],
      "name": "Init",
      "type": "event"
    },
    {
      "anonymous": false,
      "inputs": [
        {
          "indexed": false,
          "internalType": "uint256[]",
          "name": "",
          "type": "uint256[]"
        },
        {
          "indexed": false,
          "internalType": "uint256[]",
          "name": "",
          "type": "uint256[]"
        }
      ],
      "name": "ResourcesClaimed",
      "type": "event"
    },
    {
      "inputs": [
        {
          "internalType": "uint256",
          "name": "_tokenId",
          "type": "uint256"
        }
      ],
      "name": "get30DayVestingTime",
      "outputs": [
        {
          "internalType": "uint256",
          "name": "",
          "type": "uint256"
        }
      ],
      "stateMutability": "view",
      "type": "function"
    },
    {
      "inputs": [
        {
          "internalType": "uint256",
          "name": "_tokenId",
          "type": "uint256"
        }
      ],
      "name": "getCities",
      "outputs": [
        {
          "internalType": "uint256",
          "name": "",
          "type": "uint256"
        }
      ],
      "stateMutability": "view",
      "type": "function"
    },
    {
      "inputs": [
        {
          "internalType": "uint256",
          "name": "_tokenId",
          "type": "uint256"
        }
      ],
      "name": "getHarbours",
      "outputs": [
        {
          "internalType": "uint256",
          "name": "",
          "type": "uint256"
        }
      ],
      "stateMutability": "view",
      "type": "function"
    },
    {
      "inputs": [
        {
          "internalType": "uint256",
          "name": "_tokenId",
          "type": "uint256"
        }
      ],
      "name": "getName",
      "outputs": [
        {
          "internalType": "string",
          "name": "",
          "type": "string"
        }
      ],
      "stateMutability": "view",
      "type": "function"
    },
    {
      "inputs": [
        {
          "internalType": "uint256",
          "name": "_tokenId",
          "type": "uint256"
        }
      ],
      "name": "getRealmInformation",
      "outputs": [
        {
          "internalType": "uint256",
          "name": "lastupdate",
          "type": "uint256"
        }
      ],
      "stateMutability": "view",
      "type": "function"
    },
    {
      "inputs": [
        {
          "internalType": "uint256",
          "name": "_tokenId",
          "type": "uint256"
        }
      ],
      "name": "getRegions",
      "outputs": [
        {
          "internalType": "uint256",
          "name": "",
          "type": "uint256"
        }
      ],
      "stateMutability": "view",
      "type": "function"
    },
    {
      "inputs": [
        {
          "internalType": "uint256",
          "name": "_tokenId",
          "type": "uint256"
        }
      ],
      "name": "getResourceIds",
      "outputs": [
        {
          "internalType": "uint256[]",
          "name": "",
          "type": "uint256[]"
        }
      ],
      "stateMutability": "view",
      "type": "function"
    },
    {
      "inputs": [
        {
          "internalType": "uint256",
          "name": "_tokenId",
          "type": "uint256"
        }
      ],
      "name": "getResourceLength",
      "outputs": [
        {
          "internalType": "uint256",
          "name": "",
          "type": "uint256"
        }
      ],
      "stateMutability": "view",
      "type": "function"
    },
    {
      "inputs": [
        {
          "internalType": "uint256",
          "name": "_tokenId",
          "type": "uint256"
        }
      ],
      "name": "getRivers",
      "outputs": [
        {
          "internalType": "uint256",
          "name": "",
          "type": "uint256"
        }
      ],
      "stateMutability": "view",
      "type": "function"
    },
    {
      "inputs": [
        {
          "internalType": "uint256",
          "name": "_tokenId",
          "type": "uint256"
        }
      ],
      "name": "getVestingTime",
      "outputs": [
        {
          "internalType": "uint256",
          "name": "",
          "type": "uint256"
        }
      ],
      "stateMutability": "view",
      "type": "function"
    },
    {
      "inputs": [
        {
          "internalType": "uint256",
          "name": "_tokenId",
          "type": "uint256"
        }
      ],
      "name": "getWonder",
      "outputs": [
        {
          "internalType": "uint256",
          "name": "",
          "type": "uint256"
        }
      ],
      "stateMutability": "view",
      "type": "function"
    },
    {
      "inputs": [
        {
          "internalType": "uint256",
          "name": "_tokenId",
          "type": "uint256"
        },
        {
          "internalType": "string",
          "name": "_name",
          "type": "string"
        },
        {
          "internalType": "uint8[]",
          "name": "_traits",
          "type": "uint8[]"
        },
        {
          "internalType": "uint8[]",
          "name": "_resources",
          "type": "uint8[]"
        },
        {
          "internalType": "uint8",
          "name": "_wonder",
          "type": "uint8"
        }
      ],
      "name": "init",
      "outputs": [],
      "stateMutability": "nonpayable",
      "type": "function"
    },
    {
      "inputs": [
        {
          "internalType": "uint256",
          "name": "_tokenId",
          "type": "uint256"
        },
        {
          "internalType": "bool",
          "name": "_update",
          "type": "bool"
        }
      ],
      "name": "stakeRealm",
      "outputs": [],
      "stateMutability": "payable",
      "type": "function"
    },
    {
      "inputs": [
        {
          "internalType": "uint256",
          "name": "_sTokenId",
          "type": "uint256"
        }
      ],
      "name": "unstakeAndExit",
      "outputs": [],
      "stateMutability": "nonpayable",
      "type": "function"
    },
    {
      "inputs": [
        {
          "internalType": "uint256",
          "name": "_tokenId",
          "type": "uint256"
        },
        {
          "internalType": "bytes",
          "name": "_calldata",
          "type": "bytes"
        }
      ],
      "name": "withdrawResources",
      "outputs": [],
      "stateMutability": "payable",
      "type": "function"
    }
  ],
  "transactionHash": "0x9b44c158be66614fbc04ed11590ebd5e140867e295acf23a1013c4c2653aa941",
  "args": [],
  "solcInputHash": "2b1915c538d16748137debe6d48df9ed",
  "bytecode": "0x608060405234801561001057600080fd5b50612391806100206000396000f3fe6080604052600436106100e85760003560e01c80637a76f6731161008a578063a771303f11610059578063a771303f14610343578063ab67134b1461035f578063b47e8c5e1461039c578063da37000b146103d9576100e8565b80637a76f673146102985780637fe4faf8146102b457806382bc07f3146102f1578063913436241461031a576100e8565b806346b9cb8a116100c657806346b9cb8a146101a45780635c508128146101e157806361eb68651461021e5780636b8ff5741461025b576100e8565b806304eaf327146100ed57806319d7151d1461012a578063322942ee14610167575b600080fd5b3480156100f957600080fd5b50610114600480360381019061010f919061199a565b610416565b6040516101219190611e13565b60405180910390f35b34801561013657600080fd5b50610151600480360381019061014c919061199a565b61044d565b60405161015e9190611e13565b60405180910390f35b34801561017357600080fd5b5061018e6004803603810190610189919061199a565b610484565b60405161019b9190611e13565b60405180910390f35b3480156101b057600080fd5b506101cb60048036038101906101c6919061199a565b6104b6565b6040516101d89190611e13565b60405180910390f35b3480156101ed57600080fd5b506102086004803603810190610203919061199a565b6104e8565b6040516102159190611e13565b60405180910390f35b34801561022a57600080fd5b506102456004803603810190610240919061199a565b610512565b6040516102529190611d78565b60405180910390f35b34801561026757600080fd5b50610282600480360381019061027d919061199a565b610588565b60405161028f9190611dd1565b60405180910390f35b6102b260048036038101906102ad91906119ff565b610638565b005b3480156102c057600080fd5b506102db60048036038101906102d6919061199a565b610c1a565b6040516102e89190611e13565b60405180910390f35b3480156102fd57600080fd5b5061031860048036038101906103139190611a57565b610c51565b005b34801561032657600080fd5b50610341600480360381019061033c919061199a565b610fc4565b005b61035d600480360381019061035891906119c3565b61126a565b005b34801561036b57600080fd5b506103866004803603810190610381919061199a565b611615565b6040516103939190611e13565b60405180910390f35b3480156103a857600080fd5b506103c360048036038101906103be919061199a565b61164c565b6040516103d09190611e13565b60405180910390f35b3480156103e557600080fd5b5061040060048036038101906103fb919061199a565b611683565b60405161040d9190611e13565b60405180910390f35b60008060008001600084815260200190815260200160002090508060040160019054906101000a900460ff1660ff16915050919050565b60008060008001600084815260200190815260200160002090508060040160049054906101000a900460ff1660ff16915050919050565b60008060008001600084815260200190815260200160002090508060030154426104ae9190612024565b915050919050565b60008060008001600084815260200190815260200160002090508060020154426104e09190612024565b915050919050565b60008060008001600084815260200190815260200160002090508060050180549050915050919050565b6060600080600001600084815260200190815260200160002090508060050180548060200260200160405190810160405280929190818152602001828054801561057b57602002820191906000526020600020905b815481526020019060010190808311610567575b5050505050915050919050565b6060600080600001600084815260200190815260200160002090508060010180546105b2906120f9565b80601f01602080910402602001604051908101604052809291908181526020018280546105de906120f9565b801561062b5780601f106106005761010080835404028352916020019161062b565b820191906000526020600020905b81548152906001019060200180831161060e57829003601f168201915b5050505050915050919050565b8260008060030160029054906101000a900473ffffffffffffffffffffffffffffffffffffffff1690508073ffffffffffffffffffffffffffffffffffffffff16636352211e836040518263ffffffff1660e01b815260040161069b9190611e13565b60206040518083038186803b1580156106b357600080fd5b505afa1580156106c7573d6000803e3d6000fd5b505050506040513d601f19601f820116820180604052508101906106eb9190611971565b73ffffffffffffffffffffffffffffffffffffffff163373ffffffffffffffffffffffffffffffffffffffff1614610758576040517f08c379a000000000000000000000000000000000000000000000000000000000815260040161074f90611df3565b60405180910390fd5b60008060060160009054906101000a900473ffffffffffffffffffffffffffffffffffffffff169050600080600001600088815260200190815260200160002090506000816005018054905067ffffffffffffffff8111156107e3577f4e487b7100000000000000000000000000000000000000000000000000000000600052604160045260246000fd5b6040519080825280602002602001820160405280156108115781602001602082028036833780820191505090505b5090506000826005018054905067ffffffffffffffff81111561085d577f4e487b7100000000000000000000000000000000000000000000000000000000600052604160045260246000fd5b60405190808252806020026020018201604052801561088b5781602001602082028036833780820191505090505b5090506000836005018054905067ffffffffffffffff8111156108d7577f4e487b7100000000000000000000000000000000000000000000000000000000600052604160045260246000fd5b6040519080825280602002602001820160405280156109055781602001602082028036833780820191505090505b50905060005b846005018054905081101561099b5784600601600082815260200190815260200160002060000160029054906101000a900460ff1660ff1684828151811061097c577f4e487b7100000000000000000000000000000000000000000000000000000000600052603260045260246000fd5b602002602001018181525050808061099390612176565b91505061090b565b5060005b8460050180549050811015610b1557600a605060018684815181106109ed577f4e487b7100000000000000000000000000000000000000000000000000000000600052603260045260246000fd5b60200260200101516109ff9190611fca565b610a099190611fca565b610a139190611f99565b838281518110610a4c577f4e487b7100000000000000000000000000000000000000000000000000000000600052603260045260246000fd5b602002602001018181525050600a60146001868481518110610a97577f4e487b7100000000000000000000000000000000000000000000000000000000600052603260045260246000fd5b6020026020010151610aa99190611fca565b610ab39190611fca565b610abd9190611f99565b828281518110610af6577f4e487b7100000000000000000000000000000000000000000000000000000000600052603260045260246000fd5b6020026020010181815250508080610b0d90612176565b91505061099f565b50610b308460020154610b2b86600201546116aa565b6116cd565b8460020181905550610b528460030154610b4d86600301546116f1565b6116cd565b84600301819055508473ffffffffffffffffffffffffffffffffffffffff166316a213cd338660050185858e8e6040518763ffffffff1660e01b8152600401610ba096959493929190611cde565b600060405180830381600087803b158015610bba57600080fd5b505af1158015610bce573d6000803e3d6000fd5b505050507f80622db75391035b375fd650fdd63615c99c66f0610ec81d9acee6ca1e0d927b8460050183604051610c06929190611d9a565b60405180910390a150505050505050505050565b60008060008001600084815260200190815260200160002090508060040160009054906101000a900460ff1660ff16915050919050565b6000806000016000878152602001908152602001600020905084816001019080519060200190610c82929190611732565b5083600081518110610cbd577f4e487b7100000000000000000000000000000000000000000000000000000000600052603260045260246000fd5b60200260200101518160040160036101000a81548160ff021916908360ff16021790555083600181518110610d1b577f4e487b7100000000000000000000000000000000000000000000000000000000600052603260045260246000fd5b60200260200101518160040160006101000a81548160ff021916908360ff16021790555083600281518110610d79577f4e487b7100000000000000000000000000000000000000000000000000000000600052603260045260246000fd5b60200260200101518160040160016101000a81548160ff021916908360ff16021790555083600381518110610dd7577f4e487b7100000000000000000000000000000000000000000000000000000000600052603260045260246000fd5b60200260200101518160040160026101000a81548160ff021916908360ff16021790555060005b83518160ff161015610e8e5781600501848260ff1681518110610e4a577f4e487b7100000000000000000000000000000000000000000000000000000000600052603260045260246000fd5b6020026020010151908060018154018082558091505060019003906000526020600020016000909160ff169091909150558080610e86906121bf565b915050610dfe565b5060005b83518160ff161015610f9257838160ff1681518110610eda577f4e487b7100000000000000000000000000000000000000000000000000000000600052603260045260246000fd5b60200260200101518260060160008360ff16815260200190815260200160002060000160006101000a81548160ff021916908360ff16021790555060018260060160008360ff16815260200190815260200160002060000160016101000a81548160ff021916908360ff160217905550600a8260060160008360ff16815260200190815260200160002060000160026101000a81548160ff021916908360ff1602179055508080610f8a906121bf565b915050610e92565b5060008260ff1614610fbc57818160040160046101000a81548160ff021916908360ff1602179055505b505050505050565b8060008060030160029054906101000a900473ffffffffffffffffffffffffffffffffffffffff1690508073ffffffffffffffffffffffffffffffffffffffff16636352211e836040518263ffffffff1660e01b81526004016110279190611e13565b60206040518083038186803b15801561103f57600080fd5b505afa158015611053573d6000803e3d6000fd5b505050506040513d601f19601f820116820180604052508101906110779190611971565b73ffffffffffffffffffffffffffffffffffffffff163373ffffffffffffffffffffffffffffffffffffffff16146110e4576040517f08c379a00000000000000000000000000000000000000000000000000000000081526004016110db90611df3565b60405180910390fd5b60008060040160009054906101000a900473ffffffffffffffffffffffffffffffffffffffff16905060008060030160029054906101000a900473ffffffffffffffffffffffffffffffffffffffff1690506000806000016000878152602001908152602001600020905060008160020181905550600081600301819055508273ffffffffffffffffffffffffffffffffffffffff166342842e0e600060050160009054906101000a900473ffffffffffffffffffffffffffffffffffffffff1633896040518463ffffffff1660e01b81526004016111c593929190611ca7565b600060405180830381600087803b1580156111df57600080fd5b505af11580156111f3573d6000803e3d6000fd5b505050508173ffffffffffffffffffffffffffffffffffffffff166342966c68876040518263ffffffff1660e01b81526004016112309190611e13565b600060405180830381600087803b15801561124a57600080fd5b505af115801561125e573d6000803e3d6000fd5b50505050505050505050565b8160008060040160009054906101000a900473ffffffffffffffffffffffffffffffffffffffff1690508073ffffffffffffffffffffffffffffffffffffffff16636352211e836040518263ffffffff1660e01b81526004016112cd9190611e13565b60206040518083038186803b1580156112e557600080fd5b505afa1580156112f9573d6000803e3d6000fd5b505050506040513d601f19601f8201168201806040525081019061131d9190611971565b73ffffffffffffffffffffffffffffffffffffffff163373ffffffffffffffffffffffffffffffffffffffff161461138a576040517f08c379a000000000000000000000000000000000000000000000000000000000815260040161138190611df3565b60405180910390fd5b600080600001600086815260200190815260200160002090506000806001016000878152602001908152602001600020905060008060040160009054906101000a900473ffffffffffffffffffffffffffffffffffffffff16905060008060030160029054906101000a900473ffffffffffffffffffffffffffffffffffffffff1690508073ffffffffffffffffffffffffffffffffffffffff166321c6ddff338a6040518363ffffffff1660e01b8152600401611449929190611d4f565b600060405180830381600087803b15801561146357600080fd5b505af1158015611477573d6000803e3d6000fd5b505050508173ffffffffffffffffffffffffffffffffffffffff166342842e0e33600060050160009054906101000a900473ffffffffffffffffffffffffffffffffffffffff168b6040518463ffffffff1660e01b81526004016114dd93929190611ca7565b600060405180830381600087803b1580156114f757600080fd5b505af115801561150b573d6000803e3d6000fd5b50505050866115225742846002018190555061160b565b87846000018190555042846002018190555042846003018190555060008360000160039054906101000a900460ff1660ff1614156115d35760648360000160036101000a81548160ff021916908360ff16021790555060018360000160006101000a81548160ff021916908360ff16021790555060018360000160016101000a81548160ff021916908360ff16021790555060018360000160026101000a81548160ff021916908360ff1602179055505b7f387d06ac3b54c0ade104e08db87887286d162da416d27a605fc64e4f26c01338886040516116029190611e13565b60405180910390a15b5050505050505050565b60008060008001600084815260200190815260200160002090508060040160029054906101000a900460ff1660ff16915050919050565b60008060008001600084815260200190815260200160002090508060040160039054906101000a900460ff1660ff16915050919050565b60008060008001600084815260200190815260200160002090508060020154915050919050565b60006201518082426116bc9190612024565b6116c69190611f99565b9050919050565b600062015180826116de9190611fca565b836116e99190611f43565b905092915050565b6000806201518083426117049190612024565b61170e9190611f99565b9050601f81111561172957601e816117269190612024565b90505b80915050919050565b82805461173e906120f9565b90600052602060002090601f01602090048101928261176057600085556117a7565b82601f1061177957805160ff19168380011785556117a7565b828001600101855582156117a7579182015b828111156117a657825182559160200191906001019061178b565b5b5090506117b491906117b8565b5090565b5b808211156117d15760008160009055506001016117b9565b5090565b60006117e86117e384611e53565b611e2e565b9050808382526020820190508285602086028201111561180757600080fd5b60005b85811015611837578161181d888261195c565b84526020840193506020830192505060018101905061180a565b5050509392505050565b600061185461184f84611e7f565b611e2e565b90508281526020810184848401111561186c57600080fd5b6118778482856120b7565b509392505050565b60008151905061188e816122ff565b92915050565b600082601f8301126118a557600080fd5b81356118b58482602086016117d5565b91505092915050565b6000813590506118cd81612316565b92915050565b60008083601f8401126118e557600080fd5b8235905067ffffffffffffffff8111156118fe57600080fd5b60208301915083600182028301111561191657600080fd5b9250929050565b600082601f83011261192e57600080fd5b813561193e848260208601611841565b91505092915050565b6000813590506119568161232d565b92915050565b60008135905061196b81612344565b92915050565b60006020828403121561198357600080fd5b60006119918482850161187f565b91505092915050565b6000602082840312156119ac57600080fd5b60006119ba84828501611947565b91505092915050565b600080604083850312156119d657600080fd5b60006119e485828601611947565b92505060206119f5858286016118be565b9150509250929050565b600080600060408486031215611a1457600080fd5b6000611a2286828701611947565b935050602084013567ffffffffffffffff811115611a3f57600080fd5b611a4b868287016118d3565b92509250509250925092565b600080600080600060a08688031215611a6f57600080fd5b6000611a7d88828901611947565b955050602086013567ffffffffffffffff811115611a9a57600080fd5b611aa68882890161191d565b945050604086013567ffffffffffffffff811115611ac357600080fd5b611acf88828901611894565b935050606086013567ffffffffffffffff811115611aec57600080fd5b611af888828901611894565b9250506080611b098882890161195c565b9150509295509295909350565b6000611b228383611c89565b60208301905092915050565b611b3781612062565b82525050565b6000611b4882611ed5565b611b528185611f10565b9350611b5d83611eb0565b8060005b83811015611b8e578151611b758882611b16565b9750611b8083611ef6565b925050600181019050611b61565b5085935050505092915050565b6000611ba682611ee0565b611bb08185611f10565b9350611bbb83611ec0565b8060005b83811015611bf357611bd0826122a5565b611bda8882611b16565b9750611be583611f03565b925050600181019050611bbf565b5085935050505092915050565b6000611c0c8385611f21565b9350611c198385846120b7565b611c22836122b8565b840190509392505050565b6000611c3882611eeb565b611c428185611f32565b9350611c528185602086016120c6565b611c5b816122b8565b840191505092915050565b6000611c73601983611f32565b9150611c7e826122d6565b602082019050919050565b611c92816120a0565b82525050565b611ca1816120a0565b82525050565b6000606082019050611cbc6000830186611b2e565b611cc96020830185611b2e565b611cd66040830184611c98565b949350505050565b600060a082019050611cf36000830189611b2e565b8181036020830152611d058188611b9b565b90508181036040830152611d198187611b3d565b90508181036060830152611d2d8186611b3d565b90508181036080830152611d42818486611c00565b9050979650505050505050565b6000604082019050611d646000830185611b2e565b611d716020830184611c98565b9392505050565b60006020820190508181036000830152611d928184611b3d565b905092915050565b60006040820190508181036000830152611db48185611b9b565b90508181036020830152611dc88184611b3d565b90509392505050565b60006020820190508181036000830152611deb8184611c2d565b905092915050565b60006020820190508181036000830152611e0c81611c66565b9050919050565b6000602082019050611e286000830184611c98565b92915050565b6000611e38611e49565b9050611e448282612145565b919050565b6000604051905090565b600067ffffffffffffffff821115611e6e57611e6d612276565b5b602082029050602081019050919050565b600067ffffffffffffffff821115611e9a57611e99612276565b5b611ea3826122b8565b9050602081019050919050565b6000819050602082019050919050565b60008190508160005260206000209050919050565b600081519050919050565b600081549050919050565b600081519050919050565b6000602082019050919050565b6000600182019050919050565b600082825260208201905092915050565b600082825260208201905092915050565b600082825260208201905092915050565b6000611f4e826120a0565b9150611f59836120a0565b9250827fffffffffffffffffffffffffffffffffffffffffffffffffffffffffffffffff03821115611f8e57611f8d6121e9565b5b828201905092915050565b6000611fa4826120a0565b9150611faf836120a0565b925082611fbf57611fbe612218565b5b828204905092915050565b6000611fd5826120a0565b9150611fe0836120a0565b9250817fffffffffffffffffffffffffffffffffffffffffffffffffffffffffffffffff0483118215151615612019576120186121e9565b5b828202905092915050565b600061202f826120a0565b915061203a836120a0565b92508282101561204d5761204c6121e9565b5b828203905092915050565b6000819050919050565b600061206d82612080565b9050919050565b60008115159050919050565b600073ffffffffffffffffffffffffffffffffffffffff82169050919050565b6000819050919050565b600060ff82169050919050565b82818337600083830152505050565b60005b838110156120e45780820151818401526020810190506120c9565b838111156120f3576000848401525b50505050565b6000600282049050600182168061211157607f821691505b6020821081141561212557612124612247565b5b50919050565b600061213e612139836122c9565b612058565b9050919050565b61214e826122b8565b810181811067ffffffffffffffff8211171561216d5761216c612276565b5b80604052505050565b6000612181826120a0565b91507fffffffffffffffffffffffffffffffffffffffffffffffffffffffffffffffff8214156121b4576121b36121e9565b5b600182019050919050565b60006121ca826120aa565b915060ff8214156121de576121dd6121e9565b5b600182019050919050565b7f4e487b7100000000000000000000000000000000000000000000000000000000600052601160045260246000fd5b7f4e487b7100000000000000000000000000000000000000000000000000000000600052601260045260246000fd5b7f4e487b7100000000000000000000000000000000000000000000000000000000600052602260045260246000fd5b7f4e487b7100000000000000000000000000000000000000000000000000000000600052604160045260246000fd5b60006122b1825461212b565b9050919050565b6000601f19601f8301169050919050565b60008160001c9050919050565b7f596f7520646f206e6f74206f776e2074686973205265616c6d00000000000000600082015250565b61230881612062565b811461231357600080fd5b50565b61231f81612074565b811461232a57600080fd5b50565b612336816120a0565b811461234157600080fd5b50565b61234d816120aa565b811461235857600080fd5b5056fea2646970667358221220028b7d3b2f2ea81483b885bca708ab81b6a7182b58e4fd6e76e2c12f8329ba0064736f6c63430008030033",
  "devdoc": {
    "kind": "dev",
    "methods": {},
    "version": 1
  },
  "userdoc": {
    "kind": "user",
    "methods": {},
    "version": 1
  },
  "storageLayout": {
    "storage": [
      {
        "astId": 27,
        "contract": "contracts/facets/ResourceStakingFacet.sol:ResourceStakingFacet",
        "label": "s",
        "offset": 0,
        "slot": "0",
        "type": "t_struct(AppStorage)1383_storage"
      }
    ],
    "types": {
      "t_address": {
        "encoding": "inplace",
        "label": "address",
        "numberOfBytes": "20"
      },
      "t_array(t_uint256)dyn_storage": {
        "base": "t_uint256",
        "encoding": "dynamic_array",
        "label": "uint256[]",
        "numberOfBytes": "32"
      },
      "t_array(t_uint8)dyn_storage": {
        "base": "t_uint8",
        "encoding": "dynamic_array",
        "label": "uint8[]",
        "numberOfBytes": "32"
      },
      "t_mapping(t_uint256,t_struct(BuildingCosts)1454_storage)": {
        "encoding": "mapping",
        "key": "t_uint256",
        "label": "mapping(uint256 => struct BuildingCosts)",
        "numberOfBytes": "32",
        "value": "t_struct(BuildingCosts)1454_storage"
      },
      "t_mapping(t_uint256,t_struct(BuildingUpgradeCosts)1463_storage)": {
        "encoding": "mapping",
        "key": "t_uint256",
        "label": "mapping(uint256 => struct BuildingUpgradeCosts)",
        "numberOfBytes": "32",
        "value": "t_struct(BuildingUpgradeCosts)1463_storage"
      },
      "t_mapping(t_uint256,t_struct(LevelProduction)1466_storage)": {
        "encoding": "mapping",
        "key": "t_uint256",
        "label": "mapping(uint256 => struct LevelProduction)",
        "numberOfBytes": "32",
        "value": "t_struct(LevelProduction)1466_storage"
      },
      "t_mapping(t_uint256,t_struct(RealmBuildings)1442_storage)": {
        "encoding": "mapping",
        "key": "t_uint256",
        "label": "mapping(uint256 => struct RealmBuildings)",
        "numberOfBytes": "32",
        "value": "t_struct(RealmBuildings)1442_storage"
      },
      "t_mapping(t_uint256,t_struct(RealmInfo)1419_storage)": {
        "encoding": "mapping",
        "key": "t_uint256",
        "label": "mapping(uint256 => struct RealmInfo)",
        "numberOfBytes": "32",
        "value": "t_struct(RealmInfo)1419_storage"
      },
      "t_mapping(t_uint256,t_struct(RealmStatistics)1392_storage)": {
        "encoding": "mapping",
        "key": "t_uint256",
        "label": "mapping(uint256 => struct RealmStatistics)",
        "numberOfBytes": "32",
        "value": "t_struct(RealmStatistics)1392_storage"
      },
      "t_mapping(t_uint256,t_struct(ResourceInfo)1426_storage)": {
        "encoding": "mapping",
        "key": "t_uint256",
        "label": "mapping(uint256 => struct ResourceInfo)",
        "numberOfBytes": "32",
        "value": "t_struct(ResourceInfo)1426_storage"
      },
      "t_mapping(t_uint256,t_struct(UpgradeCostLevels)1479_storage)": {
        "encoding": "mapping",
        "key": "t_uint256",
        "label": "mapping(uint256 => struct UpgradeCostLevels)",
        "numberOfBytes": "32",
        "value": "t_struct(UpgradeCostLevels)1479_storage"
      },
      "t_mapping(t_uint256,t_struct(UpgradeCosts)1475_storage)": {
        "encoding": "mapping",
        "key": "t_uint256",
        "label": "mapping(uint256 => struct UpgradeCosts)",
        "numberOfBytes": "32",
        "value": "t_struct(UpgradeCosts)1475_storage"
      },
      "t_string_storage": {
        "encoding": "bytes",
        "label": "string",
        "numberOfBytes": "32"
      },
      "t_struct(AppStorage)1383_storage": {
        "encoding": "inplace",
        "label": "struct AppStorage",
        "members": [
          {
            "astId": 1338,
            "contract": "contracts/facets/ResourceStakingFacet.sol:ResourceStakingFacet",
            "label": "realmInfo",
            "offset": 0,
            "slot": "0",
            "type": "t_mapping(t_uint256,t_struct(RealmInfo)1419_storage)"
          },
          {
            "astId": 1343,
            "contract": "contracts/facets/ResourceStakingFacet.sol:ResourceStakingFacet",
            "label": "realmStatistics",
            "offset": 0,
            "slot": "1",
            "type": "t_mapping(t_uint256,t_struct(RealmStatistics)1392_storage)"
          },
          {
            "astId": 1348,
            "contract": "contracts/facets/ResourceStakingFacet.sol:ResourceStakingFacet",
            "label": "realmBuildings",
            "offset": 0,
            "slot": "2",
            "type": "t_mapping(t_uint256,t_struct(RealmBuildings)1442_storage)"
          },
          {
            "astId": 1350,
            "contract": "contracts/facets/ResourceStakingFacet.sol:ResourceStakingFacet",
            "label": "baseProductionRate",
            "offset": 0,
            "slot": "3",
            "type": "t_uint8"
          },
          {
            "astId": 1352,
            "contract": "contracts/facets/ResourceStakingFacet.sol:ResourceStakingFacet",
            "label": "maxProductionRate",
            "offset": 1,
            "slot": "3",
            "type": "t_uint8"
          },
          {
            "astId": 1354,
            "contract": "contracts/facets/ResourceStakingFacet.sol:ResourceStakingFacet",
            "label": "sRealms",
            "offset": 2,
            "slot": "3",
            "type": "t_address"
          },
          {
            "astId": 1356,
            "contract": "contracts/facets/ResourceStakingFacet.sol:ResourceStakingFacet",
            "label": "realms",
            "offset": 0,
            "slot": "4",
            "type": "t_address"
          },
          {
            "astId": 1358,
            "contract": "contracts/facets/ResourceStakingFacet.sol:ResourceStakingFacet",
            "label": "treasury",
            "offset": 0,
            "slot": "5",
            "type": "t_address"
          },
          {
            "astId": 1360,
            "contract": "contracts/facets/ResourceStakingFacet.sol:ResourceStakingFacet",
            "label": "resources",
            "offset": 0,
            "slot": "6",
            "type": "t_address"
          },
          {
            "astId": 1362,
            "contract": "contracts/facets/ResourceStakingFacet.sol:ResourceStakingFacet",
            "label": "oracle",
            "offset": 0,
            "slot": "7",
            "type": "t_address"
          },
          {
            "astId": 1367,
            "contract": "contracts/facets/ResourceStakingFacet.sol:ResourceStakingFacet",
            "label": "levelProduction",
            "offset": 0,
            "slot": "8",
            "type": "t_mapping(t_uint256,t_struct(LevelProduction)1466_storage)"
          },
          {
            "astId": 1372,
            "contract": "contracts/facets/ResourceStakingFacet.sol:ResourceStakingFacet",
            "label": "upgradeCosts",
            "offset": 0,
            "slot": "9",
            "type": "t_mapping(t_uint256,t_struct(UpgradeCosts)1475_storage)"
          },
          {
            "astId": 1377,
            "contract": "contracts/facets/ResourceStakingFacet.sol:ResourceStakingFacet",
            "label": "buildingUpgradeCosts",
            "offset": 0,
            "slot": "10",
            "type": "t_mapping(t_uint256,t_struct(BuildingUpgradeCosts)1463_storage)"
          },
          {
            "astId": 1382,
            "contract": "contracts/facets/ResourceStakingFacet.sol:ResourceStakingFacet",
            "label": "buildingCosts",
            "offset": 0,
            "slot": "11",
            "type": "t_mapping(t_uint256,t_struct(BuildingCosts)1454_storage)"
          }
        ],
        "numberOfBytes": "384"
      },
      "t_struct(BuildingCosts)1454_storage": {
        "encoding": "inplace",
        "label": "struct BuildingCosts",
        "members": [
          {
            "astId": 1444,
            "contract": "contracts/facets/ResourceStakingFacet.sol:ResourceStakingFacet",
            "label": "name",
            "offset": 0,
            "slot": "0",
            "type": "t_string_storage"
          },
          {
            "astId": 1447,
            "contract": "contracts/facets/ResourceStakingFacet.sol:ResourceStakingFacet",
            "label": "resourceIds",
            "offset": 0,
            "slot": "1",
            "type": "t_array(t_uint8)dyn_storage"
          },
          {
            "astId": 1450,
            "contract": "contracts/facets/ResourceStakingFacet.sol:ResourceStakingFacet",
            "label": "resourceValues",
            "offset": 0,
            "slot": "2",
            "type": "t_array(t_uint8)dyn_storage"
          },
          {
            "astId": 1453,
            "contract": "contracts/facets/ResourceStakingFacet.sol:ResourceStakingFacet",
            "label": "requirements",
            "offset": 0,
            "slot": "3",
            "type": "t_array(t_uint8)dyn_storage"
          }
        ],
        "numberOfBytes": "128"
      },
      "t_struct(BuildingUpgradeCosts)1463_storage": {
        "encoding": "inplace",
        "label": "struct BuildingUpgradeCosts",
        "members": [
          {
            "astId": 1457,
            "contract": "contracts/facets/ResourceStakingFacet.sol:ResourceStakingFacet",
            "label": "realmBuildings",
            "offset": 0,
            "slot": "0",
            "type": "t_array(t_uint8)dyn_storage"
          },
          {
            "astId": 1462,
            "contract": "contracts/facets/ResourceStakingFacet.sol:ResourceStakingFacet",
            "label": "buildingCosts",
            "offset": 0,
            "slot": "1",
            "type": "t_mapping(t_uint256,t_struct(BuildingCosts)1454_storage)"
          }
        ],
        "numberOfBytes": "64"
      },
      "t_struct(LevelProduction)1466_storage": {
        "encoding": "inplace",
        "label": "struct LevelProduction",
        "members": [
          {
            "astId": 1465,
            "contract": "contracts/facets/ResourceStakingFacet.sol:ResourceStakingFacet",
            "label": "output",
            "offset": 0,
            "slot": "0",
            "type": "t_uint8"
          }
        ],
        "numberOfBytes": "32"
      },
      "t_struct(RealmBuildings)1442_storage": {
        "encoding": "inplace",
        "label": "struct RealmBuildings",
        "members": [
          {
            "astId": 1433,
            "contract": "contracts/facets/ResourceStakingFacet.sol:ResourceStakingFacet",
            "label": "aquaducts",
            "offset": 0,
            "slot": "0",
            "type": "t_uint8"
          },
          {
            "astId": 1435,
            "contract": "contracts/facets/ResourceStakingFacet.sol:ResourceStakingFacet",
            "label": "temples",
            "offset": 1,
            "slot": "0",
            "type": "t_uint8"
          },
          {
            "astId": 1437,
            "contract": "contracts/facets/ResourceStakingFacet.sol:ResourceStakingFacet",
            "label": "castles",
            "offset": 2,
            "slot": "0",
            "type": "t_uint8"
          },
          {
            "astId": 1439,
            "contract": "contracts/facets/ResourceStakingFacet.sol:ResourceStakingFacet",
            "label": "markets",
            "offset": 3,
            "slot": "0",
            "type": "t_uint8"
          },
          {
            "astId": 1441,
            "contract": "contracts/facets/ResourceStakingFacet.sol:ResourceStakingFacet",
            "label": "ports",
            "offset": 4,
            "slot": "0",
            "type": "t_uint8"
          }
        ],
        "numberOfBytes": "32"
      },
      "t_struct(RealmInfo)1419_storage": {
        "encoding": "inplace",
        "label": "struct RealmInfo",
        "members": [
          {
            "astId": 1394,
            "contract": "contracts/facets/ResourceStakingFacet.sol:ResourceStakingFacet",
            "label": "tokenId",
            "offset": 0,
            "slot": "0",
            "type": "t_uint256"
          },
          {
            "astId": 1396,
            "contract": "contracts/facets/ResourceStakingFacet.sol:ResourceStakingFacet",
            "label": "name",
            "offset": 0,
            "slot": "1",
            "type": "t_string_storage"
          },
          {
            "astId": 1398,
            "contract": "contracts/facets/ResourceStakingFacet.sol:ResourceStakingFacet",
            "label": "lastUpdateAt",
            "offset": 0,
            "slot": "2",
            "type": "t_uint256"
          },
          {
            "astId": 1400,
            "contract": "contracts/facets/ResourceStakingFacet.sol:ResourceStakingFacet",
            "label": "vestedTimeUpdatedAt",
            "offset": 0,
            "slot": "3",
            "type": "t_uint256"
          },
          {
            "astId": 1402,
            "contract": "contracts/facets/ResourceStakingFacet.sol:ResourceStakingFacet",
            "label": "cities",
            "offset": 0,
            "slot": "4",
            "type": "t_uint8"
          },
          {
            "astId": 1404,
            "contract": "contracts/facets/ResourceStakingFacet.sol:ResourceStakingFacet",
            "label": "harbours",
            "offset": 1,
            "slot": "4",
            "type": "t_uint8"
          },
          {
            "astId": 1406,
            "contract": "contracts/facets/ResourceStakingFacet.sol:ResourceStakingFacet",
            "label": "rivers",
            "offset": 2,
            "slot": "4",
            "type": "t_uint8"
          },
          {
            "astId": 1408,
            "contract": "contracts/facets/ResourceStakingFacet.sol:ResourceStakingFacet",
            "label": "regions",
            "offset": 3,
            "slot": "4",
            "type": "t_uint8"
          },
          {
            "astId": 1410,
            "contract": "contracts/facets/ResourceStakingFacet.sol:ResourceStakingFacet",
            "label": "wonders",
            "offset": 4,
            "slot": "4",
            "type": "t_uint8"
          },
          {
            "astId": 1413,
            "contract": "contracts/facets/ResourceStakingFacet.sol:ResourceStakingFacet",
            "label": "resourceIds",
            "offset": 0,
            "slot": "5",
            "type": "t_array(t_uint256)dyn_storage"
          },
          {
            "astId": 1418,
            "contract": "contracts/facets/ResourceStakingFacet.sol:ResourceStakingFacet",
            "label": "resourceInfo",
            "offset": 0,
            "slot": "6",
            "type": "t_mapping(t_uint256,t_struct(ResourceInfo)1426_storage)"
          }
        ],
        "numberOfBytes": "224"
      },
      "t_struct(RealmStatistics)1392_storage": {
        "encoding": "inplace",
        "label": "struct RealmStatistics",
        "members": [
          {
            "astId": 1385,
            "contract": "contracts/facets/ResourceStakingFacet.sol:ResourceStakingFacet",
            "label": "realmDefence",
            "offset": 0,
            "slot": "0",
            "type": "t_uint8"
          },
          {
            "astId": 1387,
            "contract": "contracts/facets/ResourceStakingFacet.sol:ResourceStakingFacet",
            "label": "realmOffence",
            "offset": 1,
            "slot": "0",
            "type": "t_uint8"
          },
          {
            "astId": 1389,
            "contract": "contracts/facets/ResourceStakingFacet.sol:ResourceStakingFacet",
            "label": "realmMagic",
            "offset": 2,
            "slot": "0",
            "type": "t_uint8"
          },
          {
            "astId": 1391,
            "contract": "contracts/facets/ResourceStakingFacet.sol:ResourceStakingFacet",
            "label": "foodSupply",
            "offset": 3,
            "slot": "0",
            "type": "t_uint8"
          }
        ],
        "numberOfBytes": "32"
      },
      "t_struct(ResourceInfo)1426_storage": {
        "encoding": "inplace",
        "label": "struct ResourceInfo",
        "members": [
          {
            "astId": 1421,
            "contract": "contracts/facets/ResourceStakingFacet.sol:ResourceStakingFacet",
            "label": "id",
            "offset": 0,
            "slot": "0",
            "type": "t_uint8"
          },
          {
            "astId": 1423,
            "contract": "contracts/facets/ResourceStakingFacet.sol:ResourceStakingFacet",
            "label": "level",
            "offset": 1,
            "slot": "0",
            "type": "t_uint8"
          },
          {
            "astId": 1425,
            "contract": "contracts/facets/ResourceStakingFacet.sol:ResourceStakingFacet",
            "label": "production",
            "offset": 2,
            "slot": "0",
            "type": "t_uint8"
          }
        ],
        "numberOfBytes": "32"
      },
      "t_struct(UpgradeCostLevels)1479_storage": {
        "encoding": "inplace",
        "label": "struct UpgradeCostLevels",
        "members": [
          {
            "astId": 1478,
            "contract": "contracts/facets/ResourceStakingFacet.sol:ResourceStakingFacet",
            "label": "value",
            "offset": 0,
            "slot": "0",
            "type": "t_array(t_uint256)dyn_storage"
          }
        ],
        "numberOfBytes": "32"
      },
      "t_struct(UpgradeCosts)1475_storage": {
        "encoding": "inplace",
        "label": "struct UpgradeCosts",
        "members": [
          {
            "astId": 1469,
            "contract": "contracts/facets/ResourceStakingFacet.sol:ResourceStakingFacet",
            "label": "resourceIds",
            "offset": 0,
            "slot": "0",
            "type": "t_array(t_uint8)dyn_storage"
          },
          {
            "astId": 1474,
            "contract": "contracts/facets/ResourceStakingFacet.sol:ResourceStakingFacet",
            "label": "upgradeCostLevels",
            "offset": 0,
            "slot": "1",
            "type": "t_mapping(t_uint256,t_struct(UpgradeCostLevels)1479_storage)"
          }
        ],
        "numberOfBytes": "64"
      },
      "t_uint256": {
        "encoding": "inplace",
        "label": "uint256",
        "numberOfBytes": "32"
      },
      "t_uint8": {
        "encoding": "inplace",
        "label": "uint8",
        "numberOfBytes": "1"
      }
    }
  }
}