{
  "address": "0xa6dE5fe02207A649F773d6dC899627193b6d78b4",
  "abi": [
    {
      "inputs": [],
      "stateMutability": "nonpayable",
      "type": "constructor"
    },
    {
      "anonymous": false,
      "inputs": [
        {
          "indexed": false,
          "internalType": "address",
          "name": "previousAdmin",
          "type": "address"
        },
        {
          "indexed": false,
          "internalType": "address",
          "name": "newAdmin",
          "type": "address"
        }
      ],
      "name": "AdminChanged",
      "type": "event"
    },
    {
      "anonymous": false,
      "inputs": [
        {
          "indexed": true,
          "internalType": "address",
          "name": "owner",
          "type": "address"
        },
        {
          "indexed": true,
          "internalType": "address",
          "name": "approved",
          "type": "address"
        },
        {
          "indexed": true,
          "internalType": "uint256",
          "name": "tokenId",
          "type": "uint256"
        }
      ],
      "name": "Approval",
      "type": "event"
    },
    {
      "anonymous": false,
      "inputs": [
        {
          "indexed": true,
          "internalType": "address",
          "name": "owner",
          "type": "address"
        },
        {
          "indexed": true,
          "internalType": "address",
          "name": "operator",
          "type": "address"
        },
        {
          "indexed": false,
          "internalType": "bool",
          "name": "approved",
          "type": "bool"
        }
      ],
      "name": "ApprovalForAll",
      "type": "event"
    },
    {
      "anonymous": false,
      "inputs": [
        {
          "indexed": true,
          "internalType": "address",
          "name": "beacon",
          "type": "address"
        }
      ],
      "name": "BeaconUpgraded",
      "type": "event"
    },
    {
      "anonymous": false,
      "inputs": [
        {
          "indexed": true,
          "internalType": "address",
          "name": "previousOwner",
          "type": "address"
        },
        {
          "indexed": true,
          "internalType": "address",
          "name": "newOwner",
          "type": "address"
        }
      ],
      "name": "OwnershipTransferred",
      "type": "event"
    },
    {
      "anonymous": false,
      "inputs": [
        {
          "indexed": true,
          "internalType": "address",
          "name": "from",
          "type": "address"
        },
        {
          "indexed": true,
          "internalType": "address",
          "name": "to",
          "type": "address"
        },
        {
          "indexed": true,
          "internalType": "uint256",
          "name": "tokenId",
          "type": "uint256"
        }
      ],
      "name": "Transfer",
      "type": "event"
    },
    {
      "anonymous": false,
      "inputs": [
        {
          "indexed": true,
          "internalType": "address",
          "name": "implementation",
          "type": "address"
        }
      ],
      "name": "Upgraded",
      "type": "event"
    },
    {
      "inputs": [
        {
          "internalType": "address",
          "name": "to",
          "type": "address"
        },
        {
          "internalType": "uint256",
          "name": "tokenId",
          "type": "uint256"
        }
      ],
      "name": "approve",
      "outputs": [],
      "stateMutability": "nonpayable",
      "type": "function"
    },
    {
      "inputs": [
        {
          "internalType": "address",
          "name": "owner",
          "type": "address"
        }
      ],
      "name": "balanceOf",
      "outputs": [
        {
          "internalType": "uint256",
          "name": "",
          "type": "uint256"
        }
      ],
      "stateMutability": "view",
      "type": "function"
    },
    {
      "inputs": [
        {
          "internalType": "uint256",
          "name": "tokenId",
          "type": "uint256"
        }
      ],
      "name": "burn",
      "outputs": [],
      "stateMutability": "nonpayable",
      "type": "function"
    },
    {
      "inputs": [
        {
          "internalType": "uint256",
          "name": "tokenId",
          "type": "uint256"
        }
      ],
      "name": "getApproved",
      "outputs": [
        {
          "internalType": "address",
          "name": "",
          "type": "address"
        }
      ],
      "stateMutability": "view",
      "type": "function"
    },
    {
      "inputs": [],
      "name": "initialize",
      "outputs": [],
      "stateMutability": "nonpayable",
      "type": "function"
    },
    {
      "inputs": [
        {
          "internalType": "address",
          "name": "owner",
          "type": "address"
        },
        {
          "internalType": "address",
          "name": "operator",
          "type": "address"
        }
      ],
      "name": "isApprovedForAll",
      "outputs": [
        {
          "internalType": "bool",
          "name": "",
          "type": "bool"
        }
      ],
      "stateMutability": "view",
      "type": "function"
    },
    {
      "inputs": [
        {
          "internalType": "address",
          "name": "_to",
          "type": "address"
        },
        {
          "internalType": "uint256",
          "name": "_tokenId",
          "type": "uint256"
        }
      ],
      "name": "mintFromStakingContract",
      "outputs": [],
      "stateMutability": "nonpayable",
      "type": "function"
    },
    {
      "inputs": [],
      "name": "name",
      "outputs": [
        {
          "internalType": "string",
          "name": "",
          "type": "string"
        }
      ],
      "stateMutability": "view",
      "type": "function"
    },
    {
      "inputs": [],
      "name": "owner",
      "outputs": [
        {
          "internalType": "address",
          "name": "",
          "type": "address"
        }
      ],
      "stateMutability": "view",
      "type": "function"
    },
    {
      "inputs": [
        {
          "internalType": "uint256",
          "name": "tokenId",
          "type": "uint256"
        }
      ],
      "name": "ownerOf",
      "outputs": [
        {
          "internalType": "address",
          "name": "",
          "type": "address"
        }
      ],
      "stateMutability": "view",
      "type": "function"
    },
    {
      "inputs": [],
      "name": "renounceOwnership",
      "outputs": [],
      "stateMutability": "nonpayable",
      "type": "function"
    },
    {
      "inputs": [
        {
          "internalType": "address",
          "name": "from",
          "type": "address"
        },
        {
          "internalType": "address",
          "name": "to",
          "type": "address"
        },
        {
          "internalType": "uint256",
          "name": "tokenId",
          "type": "uint256"
        }
      ],
      "name": "safeTransferFrom",
      "outputs": [],
      "stateMutability": "nonpayable",
      "type": "function"
    },
    {
      "inputs": [
        {
          "internalType": "address",
          "name": "from",
          "type": "address"
        },
        {
          "internalType": "address",
          "name": "to",
          "type": "address"
        },
        {
          "internalType": "uint256",
          "name": "tokenId",
          "type": "uint256"
        },
        {
          "internalType": "bytes",
          "name": "_data",
          "type": "bytes"
        }
      ],
      "name": "safeTransferFrom",
      "outputs": [],
      "stateMutability": "nonpayable",
      "type": "function"
    },
    {
      "inputs": [
        {
          "internalType": "address",
          "name": "operator",
          "type": "address"
        },
        {
          "internalType": "bool",
          "name": "approved",
          "type": "bool"
        }
      ],
      "name": "setApprovalForAll",
      "outputs": [],
      "stateMutability": "nonpayable",
      "type": "function"
    },
    {
      "inputs": [
        {
          "internalType": "address",
          "name": "_newRealmsAddress",
          "type": "address"
        }
      ],
      "name": "setRealmsContract",
      "outputs": [],
      "stateMutability": "nonpayable",
      "type": "function"
    },
    {
      "inputs": [
        {
          "internalType": "address",
          "name": "_newStakingFacetAddress",
          "type": "address"
        }
      ],
      "name": "setStakingFacetAddress",
      "outputs": [],
      "stateMutability": "nonpayable",
      "type": "function"
    },
    {
      "inputs": [
        {
          "internalType": "bytes4",
          "name": "interfaceId",
          "type": "bytes4"
        }
      ],
      "name": "supportsInterface",
      "outputs": [
        {
          "internalType": "bool",
          "name": "",
          "type": "bool"
        }
      ],
      "stateMutability": "view",
      "type": "function"
    },
    {
      "inputs": [],
      "name": "symbol",
      "outputs": [
        {
          "internalType": "string",
          "name": "",
          "type": "string"
        }
      ],
      "stateMutability": "view",
      "type": "function"
    },
    {
      "inputs": [
        {
          "internalType": "uint256",
          "name": "tokenId",
          "type": "uint256"
        }
      ],
      "name": "tokenURI",
      "outputs": [
        {
          "internalType": "string",
          "name": "",
          "type": "string"
        }
      ],
      "stateMutability": "view",
      "type": "function"
    },
    {
      "inputs": [
        {
          "internalType": "address",
          "name": "from",
          "type": "address"
        },
        {
          "internalType": "address",
          "name": "to",
          "type": "address"
        },
        {
          "internalType": "uint256",
          "name": "tokenId",
          "type": "uint256"
        }
      ],
      "name": "transferFrom",
      "outputs": [],
      "stateMutability": "nonpayable",
      "type": "function"
    },
    {
      "inputs": [
        {
          "internalType": "address",
          "name": "newOwner",
          "type": "address"
        }
      ],
      "name": "transferOwnership",
      "outputs": [],
      "stateMutability": "nonpayable",
      "type": "function"
    },
    {
      "inputs": [
        {
          "internalType": "address",
          "name": "newImplementation",
          "type": "address"
        }
      ],
      "name": "upgradeTo",
      "outputs": [],
      "stateMutability": "nonpayable",
      "type": "function"
    },
    {
      "inputs": [
        {
          "internalType": "address",
          "name": "newImplementation",
          "type": "address"
        },
        {
          "internalType": "bytes",
          "name": "data",
          "type": "bytes"
        }
      ],
      "name": "upgradeToAndCall",
      "outputs": [],
      "stateMutability": "payable",
      "type": "function"
    }
  ],
  "transactionHash": "0x04fd50cb517fb768b54338015415e1fb075638cbb8a0cc828ebaa894f32d2fe0",
  "args": [],
  "solcInputHash": "d4889fa450d0c90835183347e0fc13f7",
  "bytecode": "0x60a06040523073ffffffffffffffffffffffffffffffffffffffff1660809073ffffffffffffffffffffffffffffffffffffffff1660601b8152503480156200004757600080fd5b50600060019054906101000a900460ff16806200006f575060008054906101000a900460ff16155b620000b1576040517f08c379a0000000000000000000000000000000000000000000000000000000008152600401620000a89062000152565b60405180910390fd5b60008060019054906101000a900460ff16159050801562000102576001600060016101000a81548160ff02191690831515021790555060016000806101000a81548160ff0219169083151502179055505b8015620001245760008060016101000a81548160ff0219169083151502179055505b50620001d4565b60006200013a602e8362000174565b9150620001478262000185565b604082019050919050565b600060208201905081810360008301526200016d816200012b565b9050919050565b600082825260208201905092915050565b7f496e697469616c697a61626c653a20636f6e747261637420697320616c72656160008201527f647920696e697469616c697a6564000000000000000000000000000000000000602082015250565b60805160601c61486962000208600039600081816108c20152818161095101528181610aed0152610b7c01526148696000f3fe6080604052600436106101405760003560e01c806370a08231116100b6578063b88d4fde1161006f578063b88d4fde14610423578063c380f35d1461044c578063c87b56dd14610475578063e2712f83146104b2578063e985e9c5146104db578063f2fde38b1461051857610140565b806370a0823114610339578063715018a6146103765780638129fc1c1461038d5780638da5cb5b146103a457806395d89b41146103cf578063a22cb465146103fa57610140565b806323b872dd1161010857806323b872dd1461023c5780633659cfe61461026557806342842e0e1461028e57806342966c68146102b75780634f1ef286146102e05780636352211e146102fc57610140565b806301ffc9a71461014557806306fdde0314610182578063081812fc146101ad578063095ea7b3146101ea57806321c6ddff14610213575b600080fd5b34801561015157600080fd5b5061016c600480360381019061016791906134f5565b610541565b6040516101799190613a38565b60405180910390f35b34801561018e57600080fd5b50610197610623565b6040516101a49190613a53565b60405180910390f35b3480156101b957600080fd5b506101d460048036038101906101cf9190613547565b6106b5565b6040516101e191906139d1565b60405180910390f35b3480156101f657600080fd5b50610211600480360381019061020c91906134b9565b61073a565b005b34801561021f57600080fd5b5061023a600480360381019061023591906134b9565b610852565b005b34801561024857600080fd5b50610263600480360381019061025e919061335f565b610860565b005b34801561027157600080fd5b5061028c600480360381019061028791906132fa565b6108c0565b005b34801561029a57600080fd5b506102b560048036038101906102b0919061335f565b610a6f565b005b3480156102c357600080fd5b506102de60048036038101906102d99190613547565b610a8f565b005b6102fa60048036038101906102f59190613465565b610aeb565b005b34801561030857600080fd5b50610323600480360381019061031e9190613547565b610c28565b60405161033091906139d1565b60405180910390f35b34801561034557600080fd5b50610360600480360381019061035b91906132fa565b610cda565b60405161036d9190613d55565b60405180910390f35b34801561038257600080fd5b5061038b610d92565b005b34801561039957600080fd5b506103a2610e1a565b005b3480156103b057600080fd5b506103b9610f7f565b6040516103c691906139d1565b60405180910390f35b3480156103db57600080fd5b506103e4610fa9565b6040516103f19190613a53565b60405180910390f35b34801561040657600080fd5b50610421600480360381019061041c9190613429565b61103b565b005b34801561042f57600080fd5b5061044a600480360381019061044591906133ae565b6111bc565b005b34801561045857600080fd5b50610473600480360381019061046e91906132fa565b61121e565b005b34801561048157600080fd5b5061049c60048036038101906104979190613547565b6112df565b6040516104a99190613a53565b60405180910390f35b3480156104be57600080fd5b506104d960048036038101906104d491906132fa565b611386565b005b3480156104e757600080fd5b5061050260048036038101906104fd9190613323565b611447565b60405161050f9190613a38565b60405180910390f35b34801561052457600080fd5b5061053f600480360381019061053a91906132fa565b6114db565b005b60007f80ac58cd000000000000000000000000000000000000000000000000000000007bffffffffffffffffffffffffffffffffffffffffffffffffffffffff1916827bffffffffffffffffffffffffffffffffffffffffffffffffffffffff1916148061060c57507f5b5e139f000000000000000000000000000000000000000000000000000000007bffffffffffffffffffffffffffffffffffffffffffffffffffffffff1916827bffffffffffffffffffffffffffffffffffffffffffffffffffffffff1916145b8061061c575061061b826115d3565b5b9050919050565b60606065805461063290613f85565b80601f016020809104026020016040519081016040528092919081815260200182805461065e90613f85565b80156106ab5780601f10610680576101008083540402835291602001916106ab565b820191906000526020600020905b81548152906001019060200180831161068e57829003601f168201915b5050505050905090565b60006106c08261163d565b6106ff576040517f08c379a00000000000000000000000000000000000000000000000000000000081526004016106f690613c35565b60405180910390fd5b6069600083815260200190815260200160002060009054906101000a900473ffffffffffffffffffffffffffffffffffffffff169050919050565b600061074582610c28565b90508073ffffffffffffffffffffffffffffffffffffffff168373ffffffffffffffffffffffffffffffffffffffff1614156107b6576040517f08c379a00000000000000000000000000000000000000000000000000000000081526004016107ad90613cd5565b60405180910390fd5b8073ffffffffffffffffffffffffffffffffffffffff166107d56116a9565b73ffffffffffffffffffffffffffffffffffffffff1614806108045750610803816107fe6116a9565b611447565b5b610843576040517f08c379a000000000000000000000000000000000000000000000000000000000815260040161083a90613b95565b60405180910390fd5b61084d83836116b1565b505050565b61085c828261176a565b5050565b61087161086b6116a9565b82611788565b6108b0576040517f08c379a00000000000000000000000000000000000000000000000000000000081526004016108a790613d15565b60405180910390fd5b6108bb838383611866565b505050565b7f000000000000000000000000000000000000000000000000000000000000000073ffffffffffffffffffffffffffffffffffffffff163073ffffffffffffffffffffffffffffffffffffffff16141561094f576040517f08c379a000000000000000000000000000000000000000000000000000000000815260040161094690613af5565b60405180910390fd5b7f000000000000000000000000000000000000000000000000000000000000000073ffffffffffffffffffffffffffffffffffffffff1661098e611ac2565b73ffffffffffffffffffffffffffffffffffffffff16146109e4576040517f08c379a00000000000000000000000000000000000000000000000000000000081526004016109db90613b55565b60405180910390fd5b6109ed81611b19565b610a6c81600067ffffffffffffffff811115610a32577f4e487b7100000000000000000000000000000000000000000000000000000000600052604160045260246000fd5b6040519080825280601f01601f191660200182016040528015610a645781602001600182028036833780820191505090505b506000611b98565b50565b610a8a838383604051806020016040528060008152506111bc565b505050565b610aa0610a9a6116a9565b82611788565b610adf576040517f08c379a0000000000000000000000000000000000000000000000000000000008152600401610ad690613d35565b60405180910390fd5b610ae881611d69565b50565b7f000000000000000000000000000000000000000000000000000000000000000073ffffffffffffffffffffffffffffffffffffffff163073ffffffffffffffffffffffffffffffffffffffff161415610b7a576040517f08c379a0000000000000000000000000000000000000000000000000000000008152600401610b7190613af5565b60405180910390fd5b7f000000000000000000000000000000000000000000000000000000000000000073ffffffffffffffffffffffffffffffffffffffff16610bb9611ac2565b73ffffffffffffffffffffffffffffffffffffffff1614610c0f576040517f08c379a0000000000000000000000000000000000000000000000000000000008152600401610c0690613b55565b60405180910390fd5b610c1882611b19565b610c2482826001611b98565b5050565b6000806067600084815260200190815260200160002060009054906101000a900473ffffffffffffffffffffffffffffffffffffffff169050600073ffffffffffffffffffffffffffffffffffffffff168173ffffffffffffffffffffffffffffffffffffffff161415610cd1576040517f08c379a0000000000000000000000000000000000000000000000000000000008152600401610cc890613bd5565b60405180910390fd5b80915050919050565b60008073ffffffffffffffffffffffffffffffffffffffff168273ffffffffffffffffffffffffffffffffffffffff161415610d4b576040517f08c379a0000000000000000000000000000000000000000000000000000000008152600401610d4290613bb5565b60405180910390fd5b606860008373ffffffffffffffffffffffffffffffffffffffff1673ffffffffffffffffffffffffffffffffffffffff168152602001908152602001600020549050919050565b610d9a6116a9565b73ffffffffffffffffffffffffffffffffffffffff16610db8610f7f565b73ffffffffffffffffffffffffffffffffffffffff1614610e0e576040517f08c379a0000000000000000000000000000000000000000000000000000000008152600401610e0590613c75565b60405180910390fd5b610e186000611e7a565b565b600060019054906101000a900460ff1680610e40575060008054906101000a900460ff16155b610e7f576040517f08c379a0000000000000000000000000000000000000000000000000000000008152600401610e7690613bf5565b60405180910390fd5b60008060019054906101000a900460ff161590508015610ecf576001600060016101000a81548160ff02191690831515021790555060016000806101000a81548160ff0219169083151502179055505b610f436040518060400160405280600b81526020017f535265616c6d546f6b656e0000000000000000000000000000000000000000008152506040518060400160405280600681526020017f535245414c4d0000000000000000000000000000000000000000000000000000815250611f40565b610f4b612035565b610f53612126565b610f5b61220f565b8015610f7c5760008060016101000a81548160ff0219169083151502179055505b50565b600060c960009054906101000a900473ffffffffffffffffffffffffffffffffffffffff16905090565b606060668054610fb890613f85565b80601f0160208091040260200160405190810160405280929190818152602001828054610fe490613f85565b80156110315780601f1061100657610100808354040283529160200191611031565b820191906000526020600020905b81548152906001019060200180831161101457829003601f168201915b5050505050905090565b6110436116a9565b73ffffffffffffffffffffffffffffffffffffffff168273ffffffffffffffffffffffffffffffffffffffff1614156110b1576040517f08c379a00000000000000000000000000000000000000000000000000000000081526004016110a890613b35565b60405180910390fd5b80606a60006110be6116a9565b73ffffffffffffffffffffffffffffffffffffffff1673ffffffffffffffffffffffffffffffffffffffff16815260200190815260200160002060008473ffffffffffffffffffffffffffffffffffffffff1673ffffffffffffffffffffffffffffffffffffffff16815260200190815260200160002060006101000a81548160ff0219169083151502179055508173ffffffffffffffffffffffffffffffffffffffff1661116b6116a9565b73ffffffffffffffffffffffffffffffffffffffff167f17307eab39ab6107e8899845ad3d59bd9653f200f220920489ca2b5937696c31836040516111b09190613a38565b60405180910390a35050565b6111cd6111c76116a9565b83611788565b61120c576040517f08c379a000000000000000000000000000000000000000000000000000000000815260040161120390613d15565b60405180910390fd5b611218848484846122f8565b50505050565b6112266116a9565b73ffffffffffffffffffffffffffffffffffffffff16611244610f7f565b73ffffffffffffffffffffffffffffffffffffffff161461129a576040517f08c379a000000000000000000000000000000000000000000000000000000000815260040161129190613c75565b60405180910390fd5b8061015f60006101000a81548173ffffffffffffffffffffffffffffffffffffffff021916908373ffffffffffffffffffffffffffffffffffffffff16021790555050565b60606112ea8261163d565b611329576040517f08c379a000000000000000000000000000000000000000000000000000000000815260040161132090613cb5565b60405180910390fd5b6000611333612354565b90506000815111611353576040518060200160405280600081525061137e565b8061135d8461236b565b60405160200161136e9291906139ad565b6040516020818303038152906040525b915050919050565b61138e6116a9565b73ffffffffffffffffffffffffffffffffffffffff166113ac610f7f565b73ffffffffffffffffffffffffffffffffffffffff1614611402576040517f08c379a00000000000000000000000000000000000000000000000000000000081526004016113f990613c75565b60405180910390fd5b8061016060006101000a81548173ffffffffffffffffffffffffffffffffffffffff021916908373ffffffffffffffffffffffffffffffffffffffff16021790555050565b6000606a60008473ffffffffffffffffffffffffffffffffffffffff1673ffffffffffffffffffffffffffffffffffffffff16815260200190815260200160002060008373ffffffffffffffffffffffffffffffffffffffff1673ffffffffffffffffffffffffffffffffffffffff16815260200190815260200160002060009054906101000a900460ff16905092915050565b6114e36116a9565b73ffffffffffffffffffffffffffffffffffffffff16611501610f7f565b73ffffffffffffffffffffffffffffffffffffffff1614611557576040517f08c379a000000000000000000000000000000000000000000000000000000000815260040161154e90613c75565b60405180910390fd5b600073ffffffffffffffffffffffffffffffffffffffff168173ffffffffffffffffffffffffffffffffffffffff1614156115c7576040517f08c379a00000000000000000000000000000000000000000000000000000000081526004016115be90613ab5565b60405180910390fd5b6115d081611e7a565b50565b60007f01ffc9a7000000000000000000000000000000000000000000000000000000007bffffffffffffffffffffffffffffffffffffffffffffffffffffffff1916827bffffffffffffffffffffffffffffffffffffffffffffffffffffffff1916149050919050565b60008073ffffffffffffffffffffffffffffffffffffffff166067600084815260200190815260200160002060009054906101000a900473ffffffffffffffffffffffffffffffffffffffff1673ffffffffffffffffffffffffffffffffffffffff1614159050919050565b600033905090565b816069600083815260200190815260200160002060006101000a81548173ffffffffffffffffffffffffffffffffffffffff021916908373ffffffffffffffffffffffffffffffffffffffff160217905550808273ffffffffffffffffffffffffffffffffffffffff1661172483610c28565b73ffffffffffffffffffffffffffffffffffffffff167f8c5be1e5ebec7d5bd14f71427d1e84f3dd0314c0f7b2291e5b200ac8c7c3b92560405160405180910390a45050565b611784828260405180602001604052806000815250612518565b5050565b60006117938261163d565b6117d2576040517f08c379a00000000000000000000000000000000000000000000000000000000081526004016117c990613b75565b60405180910390fd5b60006117dd83610c28565b90508073ffffffffffffffffffffffffffffffffffffffff168473ffffffffffffffffffffffffffffffffffffffff16148061184c57508373ffffffffffffffffffffffffffffffffffffffff16611834846106b5565b73ffffffffffffffffffffffffffffffffffffffff16145b8061185d575061185c8185611447565b5b91505092915050565b8273ffffffffffffffffffffffffffffffffffffffff1661188682610c28565b73ffffffffffffffffffffffffffffffffffffffff16146118dc576040517f08c379a00000000000000000000000000000000000000000000000000000000081526004016118d390613c95565b60405180910390fd5b600073ffffffffffffffffffffffffffffffffffffffff168273ffffffffffffffffffffffffffffffffffffffff16141561194c576040517f08c379a000000000000000000000000000000000000000000000000000000000815260040161194390613b15565b60405180910390fd5b611957838383612573565b6119626000826116b1565b6001606860008573ffffffffffffffffffffffffffffffffffffffff1673ffffffffffffffffffffffffffffffffffffffff16815260200190815260200160002060008282546119b29190613e9b565b925050819055506001606860008473ffffffffffffffffffffffffffffffffffffffff1673ffffffffffffffffffffffffffffffffffffffff1681526020019081526020016000206000828254611a099190613e14565b92505081905550816067600083815260200190815260200160002060006101000a81548173ffffffffffffffffffffffffffffffffffffffff021916908373ffffffffffffffffffffffffffffffffffffffff160217905550808273ffffffffffffffffffffffffffffffffffffffff168473ffffffffffffffffffffffffffffffffffffffff167fddf252ad1be2c89b69c2b068fc378daa952ba7f163c4a11628f55a4df523b3ef60405160405180910390a4505050565b6000611af07f360894a13ba1a3210667c828492db98dca3e2076cc3735a920a3ca505d382bbc60001b612578565b60000160009054906101000a900473ffffffffffffffffffffffffffffffffffffffff16905090565b611b216116a9565b73ffffffffffffffffffffffffffffffffffffffff16611b3f610f7f565b73ffffffffffffffffffffffffffffffffffffffff1614611b95576040517f08c379a0000000000000000000000000000000000000000000000000000000008152600401611b8c90613c75565b60405180910390fd5b50565b6000611ba2611ac2565b9050611bad84612582565b600083511180611bba5750815b15611bcb57611bc9848461263b565b505b6000611bf97f4910fdfa16fed3260ed0e7147f7cc6da11a60208b5b9406d12a635614ffd914360001b61271f565b90508060000160009054906101000a900460ff16611d625760018160000160006101000a81548160ff021916908315150217905550611cc58583604051602401611c4391906139d1565b6040516020818303038152906040527f3659cfe6000000000000000000000000000000000000000000000000000000007bffffffffffffffffffffffffffffffffffffffffffffffffffffffff19166020820180517bffffffffffffffffffffffffffffffffffffffffffffffffffffffff838183161783525050505061263b565b5060008160000160006101000a81548160ff021916908315150217905550611ceb611ac2565b73ffffffffffffffffffffffffffffffffffffffff168273ffffffffffffffffffffffffffffffffffffffff1614611d58576040517f08c379a0000000000000000000000000000000000000000000000000000000008152600401611d4f90613a95565b60405180910390fd5b611d6185612729565b5b5050505050565b6000611d7482610c28565b9050611d8281600084612573565b611d8d6000836116b1565b6001606860008373ffffffffffffffffffffffffffffffffffffffff1673ffffffffffffffffffffffffffffffffffffffff1681526020019081526020016000206000828254611ddd9190613e9b565b925050819055506067600083815260200190815260200160002060006101000a81549073ffffffffffffffffffffffffffffffffffffffff021916905581600073ffffffffffffffffffffffffffffffffffffffff168273ffffffffffffffffffffffffffffffffffffffff167fddf252ad1be2c89b69c2b068fc378daa952ba7f163c4a11628f55a4df523b3ef60405160405180910390a45050565b600060c960009054906101000a900473ffffffffffffffffffffffffffffffffffffffff1690508160c960006101000a81548173ffffffffffffffffffffffffffffffffffffffff021916908373ffffffffffffffffffffffffffffffffffffffff1602179055508173ffffffffffffffffffffffffffffffffffffffff168173ffffffffffffffffffffffffffffffffffffffff167f8be0079c531659141344cd1fd0a4f28419497f9722a3daafe3b4186f6b6457e060405160405180910390a35050565b600060019054906101000a900460ff1680611f66575060008054906101000a900460ff16155b611fa5576040517f08c379a0000000000000000000000000000000000000000000000000000000008152600401611f9c90613bf5565b60405180910390fd5b60008060019054906101000a900460ff161590508015611ff5576001600060016101000a81548160ff02191690831515021790555060016000806101000a81548160ff0219169083151502179055505b611ffd612778565b612005612851565b61200f838361292a565b80156120305760008060016101000a81548160ff0219169083151502179055505b505050565b600060019054906101000a900460ff168061205b575060008054906101000a900460ff16155b61209a576040517f08c379a000000000000000000000000000000000000000000000000000000000815260040161209190613bf5565b60405180910390fd5b60008060019054906101000a900460ff1615905080156120ea576001600060016101000a81548160ff02191690831515021790555060016000806101000a81548160ff0219169083151502179055505b6120f2612778565b6120fa612851565b612102612a33565b80156121235760008060016101000a81548160ff0219169083151502179055505b50565b600060019054906101000a900460ff168061214c575060008054906101000a900460ff16155b61218b576040517f08c379a000000000000000000000000000000000000000000000000000000000815260040161218290613bf5565b60405180910390fd5b60008060019054906101000a900460ff1615905080156121db576001600060016101000a81548160ff02191690831515021790555060016000806101000a81548160ff0219169083151502179055505b6121e3612778565b6121eb612b0c565b801561220c5760008060016101000a81548160ff0219169083151502179055505b50565b600060019054906101000a900460ff1680612235575060008054906101000a900460ff16155b612274576040517f08c379a000000000000000000000000000000000000000000000000000000000815260040161226b90613bf5565b60405180910390fd5b60008060019054906101000a900460ff1615905080156122c4576001600060016101000a81548160ff02191690831515021790555060016000806101000a81548160ff0219169083151502179055505b6122cc612bf5565b6122d4612cce565b80156122f55760008060016101000a81548160ff0219169083151502179055505b50565b612303848484611866565b61230f84848484612da7565b61234e576040517f08c379a000000000000000000000000000000000000000000000000000000000815260040161234590613a75565b60405180910390fd5b50505050565b606060405180602001604052806000815250905090565b606060008214156123b3576040518060400160405280600181526020017f30000000000000000000000000000000000000000000000000000000000000008152509050612513565b600082905060005b600082146123e55780806123ce90613fe8565b915050600a826123de9190613e6a565b91506123bb565b60008167ffffffffffffffff811115612427577f4e487b7100000000000000000000000000000000000000000000000000000000600052604160045260246000fd5b6040519080825280601f01601f1916602001820160405280156124595781602001600182028036833780820191505090505b5090505b6000851461250c576001826124729190613e9b565b9150600a856124819190614031565b603061248d9190613e14565b60f81b8183815181106124c9577f4e487b7100000000000000000000000000000000000000000000000000000000600052603260045260246000fd5b60200101907effffffffffffffffffffffffffffffffffffffffffffffffffffffffffffff1916908160001a905350600a856125059190613e6a565b945061245d565b8093505050505b919050565b6125228383612f3e565b61252f6000848484612da7565b61256e576040517f08c379a000000000000000000000000000000000000000000000000000000000815260040161256590613a75565b60405180910390fd5b505050565b505050565b6000819050919050565b61258b8161310c565b6125ca576040517f08c379a00000000000000000000000000000000000000000000000000000000081526004016125c190613c55565b60405180910390fd5b806125f77f360894a13ba1a3210667c828492db98dca3e2076cc3735a920a3ca505d382bbc60001b612578565b60000160006101000a81548173ffffffffffffffffffffffffffffffffffffffff021916908373ffffffffffffffffffffffffffffffffffffffff16021790555050565b60606126468361310c565b612685576040517f08c379a000000000000000000000000000000000000000000000000000000000815260040161267c90613cf5565b60405180910390fd5b6000808473ffffffffffffffffffffffffffffffffffffffff16846040516126ad9190613996565b600060405180830381855af49150503d80600081146126e8576040519150601f19603f3d011682016040523d82523d6000602084013e6126ed565b606091505b5091509150612715828260405180606001604052806027815260200161480d6027913961311f565b9250505092915050565b6000819050919050565b61273281612582565b8073ffffffffffffffffffffffffffffffffffffffff167fbc7cd75a20ee27fd9adebab32041f755214dbc6bffa90cc0225b39da2e5c2d3b60405160405180910390a250565b600060019054906101000a900460ff168061279e575060008054906101000a900460ff16155b6127dd576040517f08c379a00000000000000000000000000000000000000000000000000000000081526004016127d490613bf5565b60405180910390fd5b60008060019054906101000a900460ff16159050801561282d576001600060016101000a81548160ff02191690831515021790555060016000806101000a81548160ff0219169083151502179055505b801561284e5760008060016101000a81548160ff0219169083151502179055505b50565b600060019054906101000a900460ff1680612877575060008054906101000a900460ff16155b6128b6576040517f08c379a00000000000000000000000000000000000000000000000000000000081526004016128ad90613bf5565b60405180910390fd5b60008060019054906101000a900460ff161590508015612906576001600060016101000a81548160ff02191690831515021790555060016000806101000a81548160ff0219169083151502179055505b80156129275760008060016101000a81548160ff0219169083151502179055505b50565b600060019054906101000a900460ff1680612950575060008054906101000a900460ff16155b61298f576040517f08c379a000000000000000000000000000000000000000000000000000000000815260040161298690613bf5565b60405180910390fd5b60008060019054906101000a900460ff1615905080156129df576001600060016101000a81548160ff02191690831515021790555060016000806101000a81548160ff0219169083151502179055505b82606590805190602001906129f5929190613186565b508160669080519060200190612a0c929190613186565b508015612a2e5760008060016101000a81548160ff0219169083151502179055505b505050565b600060019054906101000a900460ff1680612a59575060008054906101000a900460ff16155b612a98576040517f08c379a0000000000000000000000000000000000000000000000000000000008152600401612a8f90613bf5565b60405180910390fd5b60008060019054906101000a900460ff161590508015612ae8576001600060016101000a81548160ff02191690831515021790555060016000806101000a81548160ff0219169083151502179055505b8015612b095760008060016101000a81548160ff0219169083151502179055505b50565b600060019054906101000a900460ff1680612b32575060008054906101000a900460ff16155b612b71576040517f08c379a0000000000000000000000000000000000000000000000000000000008152600401612b6890613bf5565b60405180910390fd5b60008060019054906101000a900460ff161590508015612bc1576001600060016101000a81548160ff02191690831515021790555060016000806101000a81548160ff0219169083151502179055505b612bd1612bcc6116a9565b611e7a565b8015612bf25760008060016101000a81548160ff0219169083151502179055505b50565b600060019054906101000a900460ff1680612c1b575060008054906101000a900460ff16155b612c5a576040517f08c379a0000000000000000000000000000000000000000000000000000000008152600401612c5190613bf5565b60405180910390fd5b60008060019054906101000a900460ff161590508015612caa576001600060016101000a81548160ff02191690831515021790555060016000806101000a81548160ff0219169083151502179055505b8015612ccb5760008060016101000a81548160ff0219169083151502179055505b50565b600060019054906101000a900460ff1680612cf4575060008054906101000a900460ff16155b612d33576040517f08c379a0000000000000000000000000000000000000000000000000000000008152600401612d2a90613bf5565b60405180910390fd5b60008060019054906101000a900460ff161590508015612d83576001600060016101000a81548160ff02191690831515021790555060016000806101000a81548160ff0219169083151502179055505b8015612da45760008060016101000a81548160ff0219169083151502179055505b50565b6000612dc88473ffffffffffffffffffffffffffffffffffffffff1661310c565b15612f31578373ffffffffffffffffffffffffffffffffffffffff1663150b7a02612df16116a9565b8786866040518563ffffffff1660e01b8152600401612e1394939291906139ec565b602060405180830381600087803b158015612e2d57600080fd5b505af1925050508015612e5e57506040513d601f19601f82011682018060405250810190612e5b919061351e565b60015b612ee1573d8060008114612e8e576040519150601f19603f3d011682016040523d82523d6000602084013e612e93565b606091505b50600081511415612ed9576040517f08c379a0000000000000000000000000000000000000000000000000000000008152600401612ed090613a75565b60405180910390fd5b805181602001fd5b63150b7a0260e01b7bffffffffffffffffffffffffffffffffffffffffffffffffffffffff1916817bffffffffffffffffffffffffffffffffffffffffffffffffffffffff191614915050612f36565b600190505b949350505050565b600073ffffffffffffffffffffffffffffffffffffffff168273ffffffffffffffffffffffffffffffffffffffff161415612fae576040517f08c379a0000000000000000000000000000000000000000000000000000000008152600401612fa590613c15565b60405180910390fd5b612fb78161163d565b15612ff7576040517f08c379a0000000000000000000000000000000000000000000000000000000008152600401612fee90613ad5565b60405180910390fd5b61300360008383612573565b6001606860008473ffffffffffffffffffffffffffffffffffffffff1673ffffffffffffffffffffffffffffffffffffffff16815260200190815260200160002060008282546130539190613e14565b92505081905550816067600083815260200190815260200160002060006101000a81548173ffffffffffffffffffffffffffffffffffffffff021916908373ffffffffffffffffffffffffffffffffffffffff160217905550808273ffffffffffffffffffffffffffffffffffffffff16600073ffffffffffffffffffffffffffffffffffffffff167fddf252ad1be2c89b69c2b068fc378daa952ba7f163c4a11628f55a4df523b3ef60405160405180910390a45050565b600080823b905060008111915050919050565b6060831561312f5782905061317f565b6000835111156131425782518084602001fd5b816040517f08c379a00000000000000000000000000000000000000000000000000000000081526004016131769190613a53565b60405180910390fd5b9392505050565b82805461319290613f85565b90600052602060002090601f0160209004810192826131b457600085556131fb565b82601f106131cd57805160ff19168380011785556131fb565b828001600101855582156131fb579182015b828111156131fa5782518255916020019190600101906131df565b5b509050613208919061320c565b5090565b5b8082111561322557600081600090555060010161320d565b5090565b600061323c61323784613d95565b613d70565b90508281526020810184848401111561325457600080fd5b61325f848285613f43565b509392505050565b600081359050613276816147b0565b92915050565b60008135905061328b816147c7565b92915050565b6000813590506132a0816147de565b92915050565b6000815190506132b5816147de565b92915050565b600082601f8301126132cc57600080fd5b81356132dc848260208601613229565b91505092915050565b6000813590506132f4816147f5565b92915050565b60006020828403121561330c57600080fd5b600061331a84828501613267565b91505092915050565b6000806040838503121561333657600080fd5b600061334485828601613267565b925050602061335585828601613267565b9150509250929050565b60008060006060848603121561337457600080fd5b600061338286828701613267565b935050602061339386828701613267565b92505060406133a4868287016132e5565b9150509250925092565b600080600080608085870312156133c457600080fd5b60006133d287828801613267565b94505060206133e387828801613267565b93505060406133f4878288016132e5565b925050606085013567ffffffffffffffff81111561341157600080fd5b61341d878288016132bb565b91505092959194509250565b6000806040838503121561343c57600080fd5b600061344a85828601613267565b925050602061345b8582860161327c565b9150509250929050565b6000806040838503121561347857600080fd5b600061348685828601613267565b925050602083013567ffffffffffffffff8111156134a357600080fd5b6134af858286016132bb565b9150509250929050565b600080604083850312156134cc57600080fd5b60006134da85828601613267565b92505060206134eb858286016132e5565b9150509250929050565b60006020828403121561350757600080fd5b600061351584828501613291565b91505092915050565b60006020828403121561353057600080fd5b600061353e848285016132a6565b91505092915050565b60006020828403121561355957600080fd5b6000613567848285016132e5565b91505092915050565b61357981613ecf565b82525050565b61358881613ee1565b82525050565b600061359982613dc6565b6135a38185613ddc565b93506135b3818560208601613f52565b6135bc8161411e565b840191505092915050565b60006135d282613dc6565b6135dc8185613ded565b93506135ec818560208601613f52565b80840191505092915050565b600061360382613dd1565b61360d8185613df8565b935061361d818560208601613f52565b6136268161411e565b840191505092915050565b600061363c82613dd1565b6136468185613e09565b9350613656818560208601613f52565b80840191505092915050565b600061366f603283613df8565b915061367a8261412f565b604082019050919050565b6000613692602f83613df8565b915061369d8261417e565b604082019050919050565b60006136b5602683613df8565b91506136c0826141cd565b604082019050919050565b60006136d8601c83613df8565b91506136e38261421c565b602082019050919050565b60006136fb602c83613df8565b915061370682614245565b604082019050919050565b600061371e602483613df8565b915061372982614294565b604082019050919050565b6000613741601983613df8565b915061374c826142e3565b602082019050919050565b6000613764602c83613df8565b915061376f8261430c565b604082019050919050565b6000613787602c83613df8565b91506137928261435b565b604082019050919050565b60006137aa603883613df8565b91506137b5826143aa565b604082019050919050565b60006137cd602a83613df8565b91506137d8826143f9565b604082019050919050565b60006137f0602983613df8565b91506137fb82614448565b604082019050919050565b6000613813602e83613df8565b915061381e82614497565b604082019050919050565b6000613836602083613df8565b9150613841826144e6565b602082019050919050565b6000613859602c83613df8565b91506138648261450f565b604082019050919050565b600061387c602d83613df8565b91506138878261455e565b604082019050919050565b600061389f602083613df8565b91506138aa826145ad565b602082019050919050565b60006138c2602983613df8565b91506138cd826145d6565b604082019050919050565b60006138e5602f83613df8565b91506138f082614625565b604082019050919050565b6000613908602183613df8565b915061391382614674565b604082019050919050565b600061392b602683613df8565b9150613936826146c3565b604082019050919050565b600061394e603183613df8565b915061395982614712565b604082019050919050565b6000613971603083613df8565b915061397c82614761565b604082019050919050565b61399081613f39565b82525050565b60006139a282846135c7565b915081905092915050565b60006139b98285613631565b91506139c58284613631565b91508190509392505050565b60006020820190506139e66000830184613570565b92915050565b6000608082019050613a016000830187613570565b613a0e6020830186613570565b613a1b6040830185613987565b8181036060830152613a2d818461358e565b905095945050505050565b6000602082019050613a4d600083018461357f565b92915050565b60006020820190508181036000830152613a6d81846135f8565b905092915050565b60006020820190508181036000830152613a8e81613662565b9050919050565b60006020820190508181036000830152613aae81613685565b9050919050565b60006020820190508181036000830152613ace816136a8565b9050919050565b60006020820190508181036000830152613aee816136cb565b9050919050565b60006020820190508181036000830152613b0e816136ee565b9050919050565b60006020820190508181036000830152613b2e81613711565b9050919050565b60006020820190508181036000830152613b4e81613734565b9050919050565b60006020820190508181036000830152613b6e81613757565b9050919050565b60006020820190508181036000830152613b8e8161377a565b9050919050565b60006020820190508181036000830152613bae8161379d565b9050919050565b60006020820190508181036000830152613bce816137c0565b9050919050565b60006020820190508181036000830152613bee816137e3565b9050919050565b60006020820190508181036000830152613c0e81613806565b9050919050565b60006020820190508181036000830152613c2e81613829565b9050919050565b60006020820190508181036000830152613c4e8161384c565b9050919050565b60006020820190508181036000830152613c6e8161386f565b9050919050565b60006020820190508181036000830152613c8e81613892565b9050919050565b60006020820190508181036000830152613cae816138b5565b9050919050565b60006020820190508181036000830152613cce816138d8565b9050919050565b60006020820190508181036000830152613cee816138fb565b9050919050565b60006020820190508181036000830152613d0e8161391e565b9050919050565b60006020820190508181036000830152613d2e81613941565b9050919050565b60006020820190508181036000830152613d4e81613964565b9050919050565b6000602082019050613d6a6000830184613987565b92915050565b6000613d7a613d8b565b9050613d868282613fb7565b919050565b6000604051905090565b600067ffffffffffffffff821115613db057613daf6140ef565b5b613db98261411e565b9050602081019050919050565b600081519050919050565b600081519050919050565b600082825260208201905092915050565b600081905092915050565b600082825260208201905092915050565b600081905092915050565b6000613e1f82613f39565b9150613e2a83613f39565b9250827fffffffffffffffffffffffffffffffffffffffffffffffffffffffffffffffff03821115613e5f57613e5e614062565b5b828201905092915050565b6000613e7582613f39565b9150613e8083613f39565b925082613e9057613e8f614091565b5b828204905092915050565b6000613ea682613f39565b9150613eb183613f39565b925082821015613ec457613ec3614062565b5b828203905092915050565b6000613eda82613f19565b9050919050565b60008115159050919050565b60007fffffffff0000000000000000000000000000000000000000000000000000000082169050919050565b600073ffffffffffffffffffffffffffffffffffffffff82169050919050565b6000819050919050565b82818337600083830152505050565b60005b83811015613f70578082015181840152602081019050613f55565b83811115613f7f576000848401525b50505050565b60006002820490506001821680613f9d57607f821691505b60208210811415613fb157613fb06140c0565b5b50919050565b613fc08261411e565b810181811067ffffffffffffffff82111715613fdf57613fde6140ef565b5b80604052505050565b6000613ff382613f39565b91507fffffffffffffffffffffffffffffffffffffffffffffffffffffffffffffffff82141561402657614025614062565b5b600182019050919050565b600061403c82613f39565b915061404783613f39565b92508261405757614056614091565b5b828206905092915050565b7f4e487b7100000000000000000000000000000000000000000000000000000000600052601160045260246000fd5b7f4e487b7100000000000000000000000000000000000000000000000000000000600052601260045260246000fd5b7f4e487b7100000000000000000000000000000000000000000000000000000000600052602260045260246000fd5b7f4e487b7100000000000000000000000000000000000000000000000000000000600052604160045260246000fd5b6000601f19601f8301169050919050565b7f4552433732313a207472616e7366657220746f206e6f6e20455243373231526560008201527f63656976657220696d706c656d656e7465720000000000000000000000000000602082015250565b7f45524331393637557067726164653a207570677261646520627265616b73206660008201527f7572746865722075706772616465730000000000000000000000000000000000602082015250565b7f4f776e61626c653a206e6577206f776e657220697320746865207a65726f206160008201527f6464726573730000000000000000000000000000000000000000000000000000602082015250565b7f4552433732313a20746f6b656e20616c7265616479206d696e74656400000000600082015250565b7f46756e6374696f6e206d7573742062652063616c6c6564207468726f7567682060008201527f64656c656761746563616c6c0000000000000000000000000000000000000000602082015250565b7f4552433732313a207472616e7366657220746f20746865207a65726f2061646460008201527f7265737300000000000000000000000000000000000000000000000000000000602082015250565b7f4552433732313a20617070726f766520746f2063616c6c657200000000000000600082015250565b7f46756e6374696f6e206d7573742062652063616c6c6564207468726f7567682060008201527f6163746976652070726f78790000000000000000000000000000000000000000602082015250565b7f4552433732313a206f70657261746f7220717565727920666f72206e6f6e657860008201527f697374656e7420746f6b656e0000000000000000000000000000000000000000602082015250565b7f4552433732313a20617070726f76652063616c6c6572206973206e6f74206f7760008201527f6e6572206e6f7220617070726f76656420666f7220616c6c0000000000000000602082015250565b7f4552433732313a2062616c616e636520717565727920666f7220746865207a6560008201527f726f206164647265737300000000000000000000000000000000000000000000602082015250565b7f4552433732313a206f776e657220717565727920666f72206e6f6e657869737460008201527f656e7420746f6b656e0000000000000000000000000000000000000000000000602082015250565b7f496e697469616c697a61626c653a20636f6e747261637420697320616c72656160008201527f647920696e697469616c697a6564000000000000000000000000000000000000602082015250565b7f4552433732313a206d696e7420746f20746865207a65726f2061646472657373600082015250565b7f4552433732313a20617070726f76656420717565727920666f72206e6f6e657860008201527f697374656e7420746f6b656e0000000000000000000000000000000000000000602082015250565b7f455243313936373a206e657720696d706c656d656e746174696f6e206973206e60008201527f6f74206120636f6e747261637400000000000000000000000000000000000000602082015250565b7f4f776e61626c653a2063616c6c6572206973206e6f7420746865206f776e6572600082015250565b7f4552433732313a207472616e73666572206f6620746f6b656e2074686174206960008201527f73206e6f74206f776e0000000000000000000000000000000000000000000000602082015250565b7f4552433732314d657461646174613a2055524920717565727920666f72206e6f60008201527f6e6578697374656e7420746f6b656e0000000000000000000000000000000000602082015250565b7f4552433732313a20617070726f76616c20746f2063757272656e74206f776e6560008201527f7200000000000000000000000000000000000000000000000000000000000000602082015250565b7f416464726573733a2064656c65676174652063616c6c20746f206e6f6e2d636f60008201527f6e74726163740000000000000000000000000000000000000000000000000000602082015250565b7f4552433732313a207472616e736665722063616c6c6572206973206e6f74206f60008201527f776e6572206e6f7220617070726f766564000000000000000000000000000000602082015250565b7f4552433732314275726e61626c653a2063616c6c6572206973206e6f74206f7760008201527f6e6572206e6f7220617070726f76656400000000000000000000000000000000602082015250565b6147b981613ecf565b81146147c457600080fd5b50565b6147d081613ee1565b81146147db57600080fd5b50565b6147e781613eed565b81146147f257600080fd5b50565b6147fe81613f39565b811461480957600080fd5b5056fe416464726573733a206c6f772d6c6576656c2064656c65676174652063616c6c206661696c6564a2646970667358221220024e49917e57269c9d7254b8c8a41835b1524f37f98749f4f8e203dd48e2e38964736f6c63430008030033",
  "devdoc": {
    "kind": "dev",
    "methods": {
      "approve(address,uint256)": {
        "details": "See {IERC721-approve}."
      },
      "balanceOf(address)": {
        "details": "See {IERC721-balanceOf}."
      },
      "burn(uint256)": {
        "details": "Burns `tokenId`. See {ERC721-_burn}. Requirements: - The caller must own `tokenId` or be an approved operator."
      },
      "constructor": {
        "custom:oz-upgrades-unsafe-allow": "constructor"
      },
      "getApproved(uint256)": {
        "details": "See {IERC721-getApproved}."
      },
      "isApprovedForAll(address,address)": {
        "details": "See {IERC721-isApprovedForAll}."
      },
      "name()": {
        "details": "See {IERC721Metadata-name}."
      },
      "owner()": {
        "details": "Returns the address of the current owner."
      },
      "ownerOf(uint256)": {
        "details": "See {IERC721-ownerOf}."
      },
      "renounceOwnership()": {
        "details": "Leaves the contract without owner. It will not be possible to call `onlyOwner` functions anymore. Can only be called by the current owner. NOTE: Renouncing ownership will leave the contract without an owner, thereby removing any functionality that is only available to the owner."
      },
      "safeTransferFrom(address,address,uint256)": {
        "details": "See {IERC721-safeTransferFrom}."
      },
      "safeTransferFrom(address,address,uint256,bytes)": {
        "details": "See {IERC721-safeTransferFrom}."
      },
      "setApprovalForAll(address,bool)": {
        "details": "See {IERC721-setApprovalForAll}."
      },
      "supportsInterface(bytes4)": {
        "details": "See {IERC165-supportsInterface}."
      },
      "symbol()": {
        "details": "See {IERC721Metadata-symbol}."
      },
      "tokenURI(uint256)": {
        "details": "See {IERC721Metadata-tokenURI}."
      },
      "transferFrom(address,address,uint256)": {
        "details": "See {IERC721-transferFrom}."
      },
      "transferOwnership(address)": {
        "details": "Transfers ownership of the contract to a new account (`newOwner`). Can only be called by the current owner."
      },
      "upgradeTo(address)": {
        "details": "Upgrade the implementation of the proxy to `newImplementation`. Calls {_authorizeUpgrade}. Emits an {Upgraded} event."
      },
      "upgradeToAndCall(address,bytes)": {
        "details": "Upgrade the implementation of the proxy to `newImplementation`, and subsequently execute the function call encoded in `data`. Calls {_authorizeUpgrade}. Emits an {Upgraded} event."
      }
    },
    "version": 1
  },
  "userdoc": {
    "kind": "user",
    "methods": {},
    "version": 1
  },
  "storageLayout": {
    "storage": [
      {
        "astId": 538,
        "contract": "contracts/SRealmToken.sol:SRealmToken",
        "label": "_initialized",
        "offset": 0,
        "slot": "0",
        "type": "t_bool"
      },
      {
        "astId": 541,
        "contract": "contracts/SRealmToken.sol:SRealmToken",
        "label": "_initializing",
        "offset": 1,
        "slot": "0",
        "type": "t_bool"
      },
      {
        "astId": 2042,
        "contract": "contracts/SRealmToken.sol:SRealmToken",
        "label": "__gap",
        "offset": 0,
        "slot": "1",
        "type": "t_array(t_uint256)50_storage"
      },
      {
        "astId": 2351,
        "contract": "contracts/SRealmToken.sol:SRealmToken",
        "label": "__gap",
        "offset": 0,
        "slot": "51",
        "type": "t_array(t_uint256)50_storage"
      },
      {
        "astId": 718,
        "contract": "contracts/SRealmToken.sol:SRealmToken",
        "label": "_name",
        "offset": 0,
        "slot": "101",
        "type": "t_string_storage"
      },
      {
        "astId": 720,
        "contract": "contracts/SRealmToken.sol:SRealmToken",
        "label": "_symbol",
        "offset": 0,
        "slot": "102",
        "type": "t_string_storage"
      },
      {
        "astId": 724,
        "contract": "contracts/SRealmToken.sol:SRealmToken",
        "label": "_owners",
        "offset": 0,
        "slot": "103",
        "type": "t_mapping(t_uint256,t_address)"
      },
      {
        "astId": 728,
        "contract": "contracts/SRealmToken.sol:SRealmToken",
        "label": "_balances",
        "offset": 0,
        "slot": "104",
        "type": "t_mapping(t_address,t_uint256)"
      },
      {
        "astId": 732,
        "contract": "contracts/SRealmToken.sol:SRealmToken",
        "label": "_tokenApprovals",
        "offset": 0,
        "slot": "105",
        "type": "t_mapping(t_uint256,t_address)"
      },
      {
        "astId": 738,
        "contract": "contracts/SRealmToken.sol:SRealmToken",
        "label": "_operatorApprovals",
        "offset": 0,
        "slot": "106",
        "type": "t_mapping(t_address,t_mapping(t_address,t_bool))"
      },
      {
        "astId": 1534,
        "contract": "contracts/SRealmToken.sol:SRealmToken",
        "label": "__gap",
        "offset": 0,
        "slot": "107",
        "type": "t_array(t_uint256)44_storage"
      },
      {
        "astId": 1726,
        "contract": "contracts/SRealmToken.sol:SRealmToken",
        "label": "__gap",
        "offset": 0,
        "slot": "151",
        "type": "t_array(t_uint256)50_storage"
      },
      {
        "astId": 10,
        "contract": "contracts/SRealmToken.sol:SRealmToken",
        "label": "_owner",
        "offset": 0,
        "slot": "201",
        "type": "t_address"
      },
      {
        "astId": 123,
        "contract": "contracts/SRealmToken.sol:SRealmToken",
        "label": "__gap",
        "offset": 0,
        "slot": "202",
        "type": "t_array(t_uint256)49_storage"
      },
      {
        "astId": 521,
        "contract": "contracts/SRealmToken.sol:SRealmToken",
        "label": "__gap",
        "offset": 0,
        "slot": "251",
        "type": "t_array(t_uint256)50_storage"
      },
      {
        "astId": 688,
        "contract": "contracts/SRealmToken.sol:SRealmToken",
        "label": "__gap",
        "offset": 0,
        "slot": "301",
        "type": "t_array(t_uint256)50_storage"
      },
      {
        "astId": 2513,
        "contract": "contracts/SRealmToken.sol:SRealmToken",
        "label": "stakingFacetAddress",
        "offset": 0,
        "slot": "351",
        "type": "t_address"
      },
      {
        "astId": 2516,
        "contract": "contracts/SRealmToken.sol:SRealmToken",
        "label": "realmsContract",
        "offset": 0,
        "slot": "352",
        "type": "t_contract(IERC721)2480"
      }
    ],
    "types": {
      "t_address": {
        "encoding": "inplace",
        "label": "address",
        "numberOfBytes": "20"
      },
      "t_array(t_uint256)44_storage": {
        "base": "t_uint256",
        "encoding": "inplace",
        "label": "uint256[44]",
        "numberOfBytes": "1408"
      },
      "t_array(t_uint256)49_storage": {
        "base": "t_uint256",
        "encoding": "inplace",
        "label": "uint256[49]",
        "numberOfBytes": "1568"
      },
      "t_array(t_uint256)50_storage": {
        "base": "t_uint256",
        "encoding": "inplace",
        "label": "uint256[50]",
        "numberOfBytes": "1600"
      },
      "t_bool": {
        "encoding": "inplace",
        "label": "bool",
        "numberOfBytes": "1"
      },
      "t_contract(IERC721)2480": {
        "encoding": "inplace",
        "label": "contract IERC721",
        "numberOfBytes": "20"
      },
      "t_mapping(t_address,t_bool)": {
        "encoding": "mapping",
        "key": "t_address",
        "label": "mapping(address => bool)",
        "numberOfBytes": "32",
        "value": "t_bool"
      },
      "t_mapping(t_address,t_mapping(t_address,t_bool))": {
        "encoding": "mapping",
        "key": "t_address",
        "label": "mapping(address => mapping(address => bool))",
        "numberOfBytes": "32",
        "value": "t_mapping(t_address,t_bool)"
      },
      "t_mapping(t_address,t_uint256)": {
        "encoding": "mapping",
        "key": "t_address",
        "label": "mapping(address => uint256)",
        "numberOfBytes": "32",
        "value": "t_uint256"
      },
      "t_mapping(t_uint256,t_address)": {
        "encoding": "mapping",
        "key": "t_uint256",
        "label": "mapping(uint256 => address)",
        "numberOfBytes": "32",
        "value": "t_address"
      },
      "t_string_storage": {
        "encoding": "bytes",
        "label": "string",
        "numberOfBytes": "32"
      },
      "t_uint256": {
        "encoding": "inplace",
        "label": "uint256",
        "numberOfBytes": "32"
      }
    }
  }
}