{
  "address": "0x4D9a6c1EA9Bd17B9Bce0257c27FC32986372990D",
  "abi": [
    {
      "inputs": [],
      "stateMutability": "nonpayable",
      "type": "constructor"
    },
    {
      "anonymous": false,
      "inputs": [
        {
          "indexed": false,
          "internalType": "address",
          "name": "previousAdmin",
          "type": "address"
        },
        {
          "indexed": false,
          "internalType": "address",
          "name": "newAdmin",
          "type": "address"
        }
      ],
      "name": "AdminChanged",
      "type": "event"
    },
    {
      "anonymous": false,
      "inputs": [
        {
          "indexed": true,
          "internalType": "address",
          "name": "owner",
          "type": "address"
        },
        {
          "indexed": true,
          "internalType": "address",
          "name": "approved",
          "type": "address"
        },
        {
          "indexed": true,
          "internalType": "uint256",
          "name": "tokenId",
          "type": "uint256"
        }
      ],
      "name": "Approval",
      "type": "event"
    },
    {
      "anonymous": false,
      "inputs": [
        {
          "indexed": true,
          "internalType": "address",
          "name": "owner",
          "type": "address"
        },
        {
          "indexed": true,
          "internalType": "address",
          "name": "operator",
          "type": "address"
        },
        {
          "indexed": false,
          "internalType": "bool",
          "name": "approved",
          "type": "bool"
        }
      ],
      "name": "ApprovalForAll",
      "type": "event"
    },
    {
      "anonymous": false,
      "inputs": [
        {
          "indexed": true,
          "internalType": "address",
          "name": "beacon",
          "type": "address"
        }
      ],
      "name": "BeaconUpgraded",
      "type": "event"
    },
    {
      "anonymous": false,
      "inputs": [
        {
          "indexed": true,
          "internalType": "address",
          "name": "previousOwner",
          "type": "address"
        },
        {
          "indexed": true,
          "internalType": "address",
          "name": "newOwner",
          "type": "address"
        }
      ],
      "name": "OwnershipTransferred",
      "type": "event"
    },
    {
      "anonymous": false,
      "inputs": [
        {
          "indexed": true,
          "internalType": "address",
          "name": "from",
          "type": "address"
        },
        {
          "indexed": true,
          "internalType": "address",
          "name": "to",
          "type": "address"
        },
        {
          "indexed": true,
          "internalType": "uint256",
          "name": "tokenId",
          "type": "uint256"
        }
      ],
      "name": "Transfer",
      "type": "event"
    },
    {
      "anonymous": false,
      "inputs": [
        {
          "indexed": true,
          "internalType": "address",
          "name": "implementation",
          "type": "address"
        }
      ],
      "name": "Upgraded",
      "type": "event"
    },
    {
      "inputs": [
        {
          "internalType": "address",
          "name": "to",
          "type": "address"
        },
        {
          "internalType": "uint256",
          "name": "tokenId",
          "type": "uint256"
        }
      ],
      "name": "approve",
      "outputs": [],
      "stateMutability": "nonpayable",
      "type": "function"
    },
    {
      "inputs": [
        {
          "internalType": "address",
          "name": "owner",
          "type": "address"
        }
      ],
      "name": "balanceOf",
      "outputs": [
        {
          "internalType": "uint256",
          "name": "",
          "type": "uint256"
        }
      ],
      "stateMutability": "view",
      "type": "function"
    },
    {
      "inputs": [
        {
          "internalType": "uint256",
          "name": "tokenId",
          "type": "uint256"
        }
      ],
      "name": "burn",
      "outputs": [],
      "stateMutability": "nonpayable",
      "type": "function"
    },
    {
      "inputs": [
        {
          "internalType": "address",
          "name": "_newStakingFacetAddress",
          "type": "address"
        }
      ],
      "name": "changeDiamondAddress",
      "outputs": [],
      "stateMutability": "nonpayable",
      "type": "function"
    },
    {
      "inputs": [
        {
          "internalType": "uint256",
          "name": "tokenId",
          "type": "uint256"
        }
      ],
      "name": "getApproved",
      "outputs": [
        {
          "internalType": "address",
          "name": "",
          "type": "address"
        }
      ],
      "stateMutability": "view",
      "type": "function"
    },
    {
      "inputs": [],
      "name": "initialize",
      "outputs": [],
      "stateMutability": "nonpayable",
      "type": "function"
    },
    {
      "inputs": [
        {
          "internalType": "address",
          "name": "owner",
          "type": "address"
        },
        {
          "internalType": "address",
          "name": "operator",
          "type": "address"
        }
      ],
      "name": "isApprovedForAll",
      "outputs": [
        {
          "internalType": "bool",
          "name": "",
          "type": "bool"
        }
      ],
      "stateMutability": "view",
      "type": "function"
    },
    {
      "inputs": [
        {
          "internalType": "address",
          "name": "_to",
          "type": "address"
        },
        {
          "internalType": "uint256",
          "name": "_tokenId",
          "type": "uint256"
        }
      ],
      "name": "mintFromStakingContract",
      "outputs": [],
      "stateMutability": "nonpayable",
      "type": "function"
    },
    {
      "inputs": [],
      "name": "name",
      "outputs": [
        {
          "internalType": "string",
          "name": "",
          "type": "string"
        }
      ],
      "stateMutability": "view",
      "type": "function"
    },
    {
      "inputs": [],
      "name": "owner",
      "outputs": [
        {
          "internalType": "address",
          "name": "",
          "type": "address"
        }
      ],
      "stateMutability": "view",
      "type": "function"
    },
    {
      "inputs": [
        {
          "internalType": "uint256",
          "name": "tokenId",
          "type": "uint256"
        }
      ],
      "name": "ownerOf",
      "outputs": [
        {
          "internalType": "address",
          "name": "",
          "type": "address"
        }
      ],
      "stateMutability": "view",
      "type": "function"
    },
    {
      "inputs": [],
      "name": "renounceOwnership",
      "outputs": [],
      "stateMutability": "nonpayable",
      "type": "function"
    },
    {
      "inputs": [
        {
          "internalType": "address",
          "name": "from",
          "type": "address"
        },
        {
          "internalType": "address",
          "name": "to",
          "type": "address"
        },
        {
          "internalType": "uint256",
          "name": "tokenId",
          "type": "uint256"
        }
      ],
      "name": "safeTransferFrom",
      "outputs": [],
      "stateMutability": "nonpayable",
      "type": "function"
    },
    {
      "inputs": [
        {
          "internalType": "address",
          "name": "from",
          "type": "address"
        },
        {
          "internalType": "address",
          "name": "to",
          "type": "address"
        },
        {
          "internalType": "uint256",
          "name": "tokenId",
          "type": "uint256"
        },
        {
          "internalType": "bytes",
          "name": "_data",
          "type": "bytes"
        }
      ],
      "name": "safeTransferFrom",
      "outputs": [],
      "stateMutability": "nonpayable",
      "type": "function"
    },
    {
      "inputs": [
        {
          "internalType": "address",
          "name": "operator",
          "type": "address"
        },
        {
          "internalType": "bool",
          "name": "approved",
          "type": "bool"
        }
      ],
      "name": "setApprovalForAll",
      "outputs": [],
      "stateMutability": "nonpayable",
      "type": "function"
    },
    {
      "inputs": [
        {
          "internalType": "address",
          "name": "_newRealmsAddress",
          "type": "address"
        }
      ],
      "name": "setRealmsContract",
      "outputs": [],
      "stateMutability": "nonpayable",
      "type": "function"
    },
    {
      "inputs": [
        {
          "internalType": "bytes4",
          "name": "interfaceId",
          "type": "bytes4"
        }
      ],
      "name": "supportsInterface",
      "outputs": [
        {
          "internalType": "bool",
          "name": "",
          "type": "bool"
        }
      ],
      "stateMutability": "view",
      "type": "function"
    },
    {
      "inputs": [],
      "name": "symbol",
      "outputs": [
        {
          "internalType": "string",
          "name": "",
          "type": "string"
        }
      ],
      "stateMutability": "view",
      "type": "function"
    },
    {
      "inputs": [
        {
          "internalType": "uint256",
          "name": "index",
          "type": "uint256"
        }
      ],
      "name": "tokenByIndex",
      "outputs": [
        {
          "internalType": "uint256",
          "name": "",
          "type": "uint256"
        }
      ],
      "stateMutability": "view",
      "type": "function"
    },
    {
      "inputs": [
        {
          "internalType": "address",
          "name": "owner",
          "type": "address"
        },
        {
          "internalType": "uint256",
          "name": "index",
          "type": "uint256"
        }
      ],
      "name": "tokenOfOwnerByIndex",
      "outputs": [
        {
          "internalType": "uint256",
          "name": "",
          "type": "uint256"
        }
      ],
      "stateMutability": "view",
      "type": "function"
    },
    {
      "inputs": [
        {
          "internalType": "uint256",
          "name": "tokenId",
          "type": "uint256"
        }
      ],
      "name": "tokenURI",
      "outputs": [
        {
          "internalType": "string",
          "name": "",
          "type": "string"
        }
      ],
      "stateMutability": "view",
      "type": "function"
    },
    {
      "inputs": [],
      "name": "totalSupply",
      "outputs": [
        {
          "internalType": "uint256",
          "name": "",
          "type": "uint256"
        }
      ],
      "stateMutability": "view",
      "type": "function"
    },
    {
      "inputs": [
        {
          "internalType": "address",
          "name": "from",
          "type": "address"
        },
        {
          "internalType": "address",
          "name": "to",
          "type": "address"
        },
        {
          "internalType": "uint256",
          "name": "tokenId",
          "type": "uint256"
        }
      ],
      "name": "transferFrom",
      "outputs": [],
      "stateMutability": "nonpayable",
      "type": "function"
    },
    {
      "inputs": [
        {
          "internalType": "address",
          "name": "newOwner",
          "type": "address"
        }
      ],
      "name": "transferOwnership",
      "outputs": [],
      "stateMutability": "nonpayable",
      "type": "function"
    },
    {
      "inputs": [
        {
          "internalType": "address",
          "name": "newImplementation",
          "type": "address"
        }
      ],
      "name": "upgradeTo",
      "outputs": [],
      "stateMutability": "nonpayable",
      "type": "function"
    },
    {
      "inputs": [
        {
          "internalType": "address",
          "name": "newImplementation",
          "type": "address"
        },
        {
          "internalType": "bytes",
          "name": "data",
          "type": "bytes"
        }
      ],
      "name": "upgradeToAndCall",
      "outputs": [],
      "stateMutability": "payable",
      "type": "function"
    }
  ],
  "transactionHash": "0x67286c2e29492a86819eb5aa454c33074c9af0445b04d2d96730a6ff4aa87f1b",
  "args": [],
  "solcInputHash": "50298fead88d2dd6e8719fbfc1938b88",
  "bytecode": "0x60a06040523073ffffffffffffffffffffffffffffffffffffffff1660809073ffffffffffffffffffffffffffffffffffffffff1660601b8152503480156200004757600080fd5b50600060019054906101000a900460ff16806200006f575060008054906101000a900460ff16155b620000b1576040517f08c379a0000000000000000000000000000000000000000000000000000000008152600401620000a89062000152565b60405180910390fd5b60008060019054906101000a900460ff16159050801562000102576001600060016101000a81548160ff02191690831515021790555060016000806101000a81548160ff0219169083151502179055505b8015620001245760008060016101000a81548160ff0219169083151502179055505b50620001d4565b60006200013a602e8362000174565b9150620001478262000185565b604082019050919050565b600060208201905081810360008301526200016d816200012b565b9050919050565b600082825260208201905092915050565b7f496e697469616c697a61626c653a20636f6e747261637420697320616c72656160008201527f647920696e697469616c697a6564000000000000000000000000000000000000602082015250565b60805160601c61523a620002086000396000818161098a01528181610a1901528181610bb50152610c44015261523a6000f3fe6080604052600436106101815760003560e01c80636352211e116100d157806395d89b411161008a578063c87b56dd11610064578063c87b56dd1461055b578063e2712f8314610598578063e985e9c5146105c1578063f2fde38b146105fe57610181565b806395d89b41146104de578063a22cb46514610509578063b88d4fde1461053257610181565b80636352211e146103e257806370a082311461041f578063715018a61461045c578063741b1921146104735780638129fc1c1461049c5780638da5cb5b146104b357610181565b806323b872dd1161013e57806342842e0e1161011857806342842e0e1461033757806342966c68146103605780634f1ef286146103895780634f6ccce7146103a557610181565b806323b872dd146102a85780632f745c59146102d15780633659cfe61461030e57610181565b806301ffc9a71461018657806306fdde03146101c3578063081812fc146101ee578063095ea7b31461022b57806318160ddd1461025457806321c6ddff1461027f575b600080fd5b34801561019257600080fd5b506101ad60048036038101906101a89190613da2565b610627565b6040516101ba919061432b565b60405180910390f35b3480156101cf57600080fd5b506101d8610639565b6040516101e59190614346565b60405180910390f35b3480156101fa57600080fd5b5061021560048036038101906102109190613df4565b6106cb565b60405161022291906142c4565b60405180910390f35b34801561023757600080fd5b50610252600480360381019061024d9190613d66565b610750565b005b34801561026057600080fd5b50610269610868565b6040516102769190614688565b60405180910390f35b34801561028b57600080fd5b506102a660048036038101906102a19190613d66565b610875565b005b3480156102b457600080fd5b506102cf60048036038101906102ca9190613c0c565b610883565b005b3480156102dd57600080fd5b506102f860048036038101906102f39190613d66565b6108e3565b6040516103059190614688565b60405180910390f35b34801561031a57600080fd5b5061033560048036038101906103309190613ba7565b610988565b005b34801561034357600080fd5b5061035e60048036038101906103599190613c0c565b610b37565b005b34801561036c57600080fd5b5061038760048036038101906103829190613df4565b610b57565b005b6103a3600480360381019061039e9190613d12565b610bb3565b005b3480156103b157600080fd5b506103cc60048036038101906103c79190613df4565b610cf0565b6040516103d99190614688565b60405180910390f35b3480156103ee57600080fd5b5061040960048036038101906104049190613df4565b610d87565b60405161041691906142c4565b60405180910390f35b34801561042b57600080fd5b5061044660048036038101906104419190613ba7565b610e39565b6040516104539190614688565b60405180910390f35b34801561046857600080fd5b50610471610ef1565b005b34801561047f57600080fd5b5061049a60048036038101906104959190613ba7565b610f79565b005b3480156104a857600080fd5b506104b1610fbe565b005b3480156104bf57600080fd5b506104c861112b565b6040516104d591906142c4565b60405180910390f35b3480156104ea57600080fd5b506104f3611155565b6040516105009190614346565b60405180910390f35b34801561051557600080fd5b50610530600480360381019061052b9190613cd6565b6111e7565b005b34801561053e57600080fd5b5061055960048036038101906105549190613c5b565b611368565b005b34801561056757600080fd5b50610582600480360381019061057d9190613df4565b6113ca565b60405161058f9190614346565b60405180910390f35b3480156105a457600080fd5b506105bf60048036038101906105ba9190613ba7565b611471565b005b3480156105cd57600080fd5b506105e860048036038101906105e39190613bd0565b611532565b6040516105f5919061432b565b60405180910390f35b34801561060a57600080fd5b5061062560048036038101906106209190613ba7565b6115c6565b005b6000610632826116be565b9050919050565b606060658054610648906148b8565b80601f0160208091040260200160405190810160405280929190818152602001828054610674906148b8565b80156106c15780601f10610696576101008083540402835291602001916106c1565b820191906000526020600020905b8154815290600101906020018083116106a457829003601f168201915b5050505050905090565b60006106d682611738565b610715576040517f08c379a000000000000000000000000000000000000000000000000000000000815260040161070c90614548565b60405180910390fd5b6069600083815260200190815260200160002060009054906101000a900473ffffffffffffffffffffffffffffffffffffffff169050919050565b600061075b82610d87565b90508073ffffffffffffffffffffffffffffffffffffffff168373ffffffffffffffffffffffffffffffffffffffff1614156107cc576040517f08c379a00000000000000000000000000000000000000000000000000000000081526004016107c3906145e8565b60405180910390fd5b8073ffffffffffffffffffffffffffffffffffffffff166107eb6117a4565b73ffffffffffffffffffffffffffffffffffffffff16148061081a5750610819816108146117a4565b611532565b5b610859576040517f08c379a0000000000000000000000000000000000000000000000000000000008152600401610850906144a8565b60405180910390fd5b61086383836117ac565b505050565b6000609980549050905090565b61087f8282611865565b5050565b61089461088e6117a4565b82611883565b6108d3576040517f08c379a00000000000000000000000000000000000000000000000000000000081526004016108ca90614628565b60405180910390fd5b6108de838383611961565b505050565b60006108ee83610e39565b821061092f576040517f08c379a000000000000000000000000000000000000000000000000000000000815260040161092690614368565b60405180910390fd5b609760008473ffffffffffffffffffffffffffffffffffffffff1673ffffffffffffffffffffffffffffffffffffffff168152602001908152602001600020600083815260200190815260200160002054905092915050565b7f000000000000000000000000000000000000000000000000000000000000000073ffffffffffffffffffffffffffffffffffffffff163073ffffffffffffffffffffffffffffffffffffffff161415610a17576040517f08c379a0000000000000000000000000000000000000000000000000000000008152600401610a0e90614408565b60405180910390fd5b7f000000000000000000000000000000000000000000000000000000000000000073ffffffffffffffffffffffffffffffffffffffff16610a56611bbd565b73ffffffffffffffffffffffffffffffffffffffff1614610aac576040517f08c379a0000000000000000000000000000000000000000000000000000000008152600401610aa390614468565b60405180910390fd5b610ab581611c14565b610b3481600067ffffffffffffffff811115610afa577f4e487b7100000000000000000000000000000000000000000000000000000000600052604160045260246000fd5b6040519080825280601f01601f191660200182016040528015610b2c5781602001600182028036833780820191505090505b506000611c93565b50565b610b5283838360405180602001604052806000815250611368565b505050565b610b68610b626117a4565b82611883565b610ba7576040517f08c379a0000000000000000000000000000000000000000000000000000000008152600401610b9e90614668565b60405180910390fd5b610bb081611e64565b50565b7f000000000000000000000000000000000000000000000000000000000000000073ffffffffffffffffffffffffffffffffffffffff163073ffffffffffffffffffffffffffffffffffffffff161415610c42576040517f08c379a0000000000000000000000000000000000000000000000000000000008152600401610c3990614408565b60405180910390fd5b7f000000000000000000000000000000000000000000000000000000000000000073ffffffffffffffffffffffffffffffffffffffff16610c81611bbd565b73ffffffffffffffffffffffffffffffffffffffff1614610cd7576040517f08c379a0000000000000000000000000000000000000000000000000000000008152600401610cce90614468565b60405180910390fd5b610ce082611c14565b610cec82826001611c93565b5050565b6000610cfa610868565b8210610d3b576040517f08c379a0000000000000000000000000000000000000000000000000000000008152600401610d3290614648565b60405180910390fd5b60998281548110610d75577f4e487b7100000000000000000000000000000000000000000000000000000000600052603260045260246000fd5b90600052602060002001549050919050565b6000806067600084815260200190815260200160002060009054906101000a900473ffffffffffffffffffffffffffffffffffffffff169050600073ffffffffffffffffffffffffffffffffffffffff168173ffffffffffffffffffffffffffffffffffffffff161415610e30576040517f08c379a0000000000000000000000000000000000000000000000000000000008152600401610e27906144e8565b60405180910390fd5b80915050919050565b60008073ffffffffffffffffffffffffffffffffffffffff168273ffffffffffffffffffffffffffffffffffffffff161415610eaa576040517f08c379a0000000000000000000000000000000000000000000000000000000008152600401610ea1906144c8565b60405180910390fd5b606860008373ffffffffffffffffffffffffffffffffffffffff1673ffffffffffffffffffffffffffffffffffffffff168152602001908152602001600020549050919050565b610ef96117a4565b73ffffffffffffffffffffffffffffffffffffffff16610f1761112b565b73ffffffffffffffffffffffffffffffffffffffff1614610f6d576040517f08c379a0000000000000000000000000000000000000000000000000000000008152600401610f6490614588565b60405180910390fd5b610f776000611f75565b565b8061019160006101000a81548173ffffffffffffffffffffffffffffffffffffffff021916908373ffffffffffffffffffffffffffffffffffffffff16021790555050565b600060019054906101000a900460ff1680610fe4575060008054906101000a900460ff16155b611023576040517f08c379a000000000000000000000000000000000000000000000000000000000815260040161101a90614508565b60405180910390fd5b60008060019054906101000a900460ff161590508015611073576001600060016101000a81548160ff02191690831515021790555060016000806101000a81548160ff0219169083151502179055505b6110e76040518060400160405280600b81526020017f535265616c6d546f6b656e0000000000000000000000000000000000000000008152506040518060400160405280600681526020017f535245414c4d000000000000000000000000000000000000000000000000000081525061203b565b6110ef612130565b6110f7612221565b6110ff612312565b6111076123fb565b80156111285760008060016101000a81548160ff0219169083151502179055505b50565b600060fb60009054906101000a900473ffffffffffffffffffffffffffffffffffffffff16905090565b606060668054611164906148b8565b80601f0160208091040260200160405190810160405280929190818152602001828054611190906148b8565b80156111dd5780601f106111b2576101008083540402835291602001916111dd565b820191906000526020600020905b8154815290600101906020018083116111c057829003601f168201915b5050505050905090565b6111ef6117a4565b73ffffffffffffffffffffffffffffffffffffffff168273ffffffffffffffffffffffffffffffffffffffff16141561125d576040517f08c379a000000000000000000000000000000000000000000000000000000000815260040161125490614448565b60405180910390fd5b80606a600061126a6117a4565b73ffffffffffffffffffffffffffffffffffffffff1673ffffffffffffffffffffffffffffffffffffffff16815260200190815260200160002060008473ffffffffffffffffffffffffffffffffffffffff1673ffffffffffffffffffffffffffffffffffffffff16815260200190815260200160002060006101000a81548160ff0219169083151502179055508173ffffffffffffffffffffffffffffffffffffffff166113176117a4565b73ffffffffffffffffffffffffffffffffffffffff167f17307eab39ab6107e8899845ad3d59bd9653f200f220920489ca2b5937696c318360405161135c919061432b565b60405180910390a35050565b6113796113736117a4565b83611883565b6113b8576040517f08c379a00000000000000000000000000000000000000000000000000000000081526004016113af90614628565b60405180910390fd5b6113c4848484846124e4565b50505050565b60606113d582611738565b611414576040517f08c379a000000000000000000000000000000000000000000000000000000000815260040161140b906145c8565b60405180910390fd5b600061141e612540565b9050600081511161143e5760405180602001604052806000815250611469565b8061144884612557565b6040516020016114599291906142a0565b6040516020818303038152906040525b915050919050565b6114796117a4565b73ffffffffffffffffffffffffffffffffffffffff1661149761112b565b73ffffffffffffffffffffffffffffffffffffffff16146114ed576040517f08c379a00000000000000000000000000000000000000000000000000000000081526004016114e490614588565b60405180910390fd5b8061019260006101000a81548173ffffffffffffffffffffffffffffffffffffffff021916908373ffffffffffffffffffffffffffffffffffffffff16021790555050565b6000606a60008473ffffffffffffffffffffffffffffffffffffffff1673ffffffffffffffffffffffffffffffffffffffff16815260200190815260200160002060008373ffffffffffffffffffffffffffffffffffffffff1673ffffffffffffffffffffffffffffffffffffffff16815260200190815260200160002060009054906101000a900460ff16905092915050565b6115ce6117a4565b73ffffffffffffffffffffffffffffffffffffffff166115ec61112b565b73ffffffffffffffffffffffffffffffffffffffff1614611642576040517f08c379a000000000000000000000000000000000000000000000000000000000815260040161163990614588565b60405180910390fd5b600073ffffffffffffffffffffffffffffffffffffffff168173ffffffffffffffffffffffffffffffffffffffff1614156116b2576040517f08c379a00000000000000000000000000000000000000000000000000000000081526004016116a9906143c8565b60405180910390fd5b6116bb81611f75565b50565b60007f780e9d63000000000000000000000000000000000000000000000000000000007bffffffffffffffffffffffffffffffffffffffffffffffffffffffff1916827bffffffffffffffffffffffffffffffffffffffffffffffffffffffff19161480611731575061173082612704565b5b9050919050565b60008073ffffffffffffffffffffffffffffffffffffffff166067600084815260200190815260200160002060009054906101000a900473ffffffffffffffffffffffffffffffffffffffff1673ffffffffffffffffffffffffffffffffffffffff1614159050919050565b600033905090565b816069600083815260200190815260200160002060006101000a81548173ffffffffffffffffffffffffffffffffffffffff021916908373ffffffffffffffffffffffffffffffffffffffff160217905550808273ffffffffffffffffffffffffffffffffffffffff1661181f83610d87565b73ffffffffffffffffffffffffffffffffffffffff167f8c5be1e5ebec7d5bd14f71427d1e84f3dd0314c0f7b2291e5b200ac8c7c3b92560405160405180910390a45050565b61187f8282604051806020016040528060008152506127e6565b5050565b600061188e82611738565b6118cd576040517f08c379a00000000000000000000000000000000000000000000000000000000081526004016118c490614488565b60405180910390fd5b60006118d883610d87565b90508073ffffffffffffffffffffffffffffffffffffffff168473ffffffffffffffffffffffffffffffffffffffff16148061194757508373ffffffffffffffffffffffffffffffffffffffff1661192f846106cb565b73ffffffffffffffffffffffffffffffffffffffff16145b8061195857506119578185611532565b5b91505092915050565b8273ffffffffffffffffffffffffffffffffffffffff1661198182610d87565b73ffffffffffffffffffffffffffffffffffffffff16146119d7576040517f08c379a00000000000000000000000000000000000000000000000000000000081526004016119ce906145a8565b60405180910390fd5b600073ffffffffffffffffffffffffffffffffffffffff168273ffffffffffffffffffffffffffffffffffffffff161415611a47576040517f08c379a0000000000000000000000000000000000000000000000000000000008152600401611a3e90614428565b60405180910390fd5b611a52838383612841565b611a5d6000826117ac565b6001606860008573ffffffffffffffffffffffffffffffffffffffff1673ffffffffffffffffffffffffffffffffffffffff1681526020019081526020016000206000828254611aad91906147ce565b925050819055506001606860008473ffffffffffffffffffffffffffffffffffffffff1673ffffffffffffffffffffffffffffffffffffffff1681526020019081526020016000206000828254611b049190614747565b92505081905550816067600083815260200190815260200160002060006101000a81548173ffffffffffffffffffffffffffffffffffffffff021916908373ffffffffffffffffffffffffffffffffffffffff160217905550808273ffffffffffffffffffffffffffffffffffffffff168473ffffffffffffffffffffffffffffffffffffffff167fddf252ad1be2c89b69c2b068fc378daa952ba7f163c4a11628f55a4df523b3ef60405160405180910390a4505050565b6000611beb7f360894a13ba1a3210667c828492db98dca3e2076cc3735a920a3ca505d382bbc60001b612851565b60000160009054906101000a900473ffffffffffffffffffffffffffffffffffffffff16905090565b611c1c6117a4565b73ffffffffffffffffffffffffffffffffffffffff16611c3a61112b565b73ffffffffffffffffffffffffffffffffffffffff1614611c90576040517f08c379a0000000000000000000000000000000000000000000000000000000008152600401611c8790614588565b60405180910390fd5b50565b6000611c9d611bbd565b9050611ca88461285b565b600083511180611cb55750815b15611cc657611cc48484612914565b505b6000611cf47f4910fdfa16fed3260ed0e7147f7cc6da11a60208b5b9406d12a635614ffd914360001b6129f8565b90508060000160009054906101000a900460ff16611e5d5760018160000160006101000a81548160ff021916908315150217905550611dc08583604051602401611d3e91906142c4565b6040516020818303038152906040527f3659cfe6000000000000000000000000000000000000000000000000000000007bffffffffffffffffffffffffffffffffffffffffffffffffffffffff19166020820180517bffffffffffffffffffffffffffffffffffffffffffffffffffffffff8381831617835250505050612914565b5060008160000160006101000a81548160ff021916908315150217905550611de6611bbd565b73ffffffffffffffffffffffffffffffffffffffff168273ffffffffffffffffffffffffffffffffffffffff1614611e53576040517f08c379a0000000000000000000000000000000000000000000000000000000008152600401611e4a906143a8565b60405180910390fd5b611e5c85612a02565b5b5050505050565b6000611e6f82610d87565b9050611e7d81600084612841565b611e886000836117ac565b6001606860008373ffffffffffffffffffffffffffffffffffffffff1673ffffffffffffffffffffffffffffffffffffffff1681526020019081526020016000206000828254611ed891906147ce565b925050819055506067600083815260200190815260200160002060006101000a81549073ffffffffffffffffffffffffffffffffffffffff021916905581600073ffffffffffffffffffffffffffffffffffffffff168273ffffffffffffffffffffffffffffffffffffffff167fddf252ad1be2c89b69c2b068fc378daa952ba7f163c4a11628f55a4df523b3ef60405160405180910390a45050565b600060fb60009054906101000a900473ffffffffffffffffffffffffffffffffffffffff1690508160fb60006101000a81548173ffffffffffffffffffffffffffffffffffffffff021916908373ffffffffffffffffffffffffffffffffffffffff1602179055508173ffffffffffffffffffffffffffffffffffffffff168173ffffffffffffffffffffffffffffffffffffffff167f8be0079c531659141344cd1fd0a4f28419497f9722a3daafe3b4186f6b6457e060405160405180910390a35050565b600060019054906101000a900460ff1680612061575060008054906101000a900460ff16155b6120a0576040517f08c379a000000000000000000000000000000000000000000000000000000000815260040161209790614508565b60405180910390fd5b60008060019054906101000a900460ff1615905080156120f0576001600060016101000a81548160ff02191690831515021790555060016000806101000a81548160ff0219169083151502179055505b6120f8612a51565b612100612b2a565b61210a8383612c03565b801561212b5760008060016101000a81548160ff0219169083151502179055505b505050565b600060019054906101000a900460ff1680612156575060008054906101000a900460ff16155b612195576040517f08c379a000000000000000000000000000000000000000000000000000000000815260040161218c90614508565b60405180910390fd5b60008060019054906101000a900460ff1615905080156121e5576001600060016101000a81548160ff02191690831515021790555060016000806101000a81548160ff0219169083151502179055505b6121ed612a51565b6121f5612b2a565b6121fd612d0c565b801561221e5760008060016101000a81548160ff0219169083151502179055505b50565b600060019054906101000a900460ff1680612247575060008054906101000a900460ff16155b612286576040517f08c379a000000000000000000000000000000000000000000000000000000000815260040161227d90614508565b60405180910390fd5b60008060019054906101000a900460ff1615905080156122d6576001600060016101000a81548160ff02191690831515021790555060016000806101000a81548160ff0219169083151502179055505b6122de612a51565b6122e6612b2a565b6122ee612de5565b801561230f5760008060016101000a81548160ff0219169083151502179055505b50565b600060019054906101000a900460ff1680612338575060008054906101000a900460ff16155b612377576040517f08c379a000000000000000000000000000000000000000000000000000000000815260040161236e90614508565b60405180910390fd5b60008060019054906101000a900460ff1615905080156123c7576001600060016101000a81548160ff02191690831515021790555060016000806101000a81548160ff0219169083151502179055505b6123cf612a51565b6123d7612ebe565b80156123f85760008060016101000a81548160ff0219169083151502179055505b50565b600060019054906101000a900460ff1680612421575060008054906101000a900460ff16155b612460576040517f08c379a000000000000000000000000000000000000000000000000000000000815260040161245790614508565b60405180910390fd5b60008060019054906101000a900460ff1615905080156124b0576001600060016101000a81548160ff02191690831515021790555060016000806101000a81548160ff0219169083151502179055505b6124b8612fa7565b6124c0613080565b80156124e15760008060016101000a81548160ff0219169083151502179055505b50565b6124ef848484611961565b6124fb84848484613159565b61253a576040517f08c379a000000000000000000000000000000000000000000000000000000000815260040161253190614388565b60405180910390fd5b50505050565b606060405180602001604052806000815250905090565b6060600082141561259f576040518060400160405280600181526020017f300000000000000000000000000000000000000000000000000000000000000081525090506126ff565b600082905060005b600082146125d15780806125ba9061491b565b915050600a826125ca919061479d565b91506125a7565b60008167ffffffffffffffff811115612613577f4e487b7100000000000000000000000000000000000000000000000000000000600052604160045260246000fd5b6040519080825280601f01601f1916602001820160405280156126455781602001600182028036833780820191505090505b5090505b600085146126f85760018261265e91906147ce565b9150600a8561266d9190614964565b60306126799190614747565b60f81b8183815181106126b5577f4e487b7100000000000000000000000000000000000000000000000000000000600052603260045260246000fd5b60200101907effffffffffffffffffffffffffffffffffffffffffffffffffffffffffffff1916908160001a905350600a856126f1919061479d565b9450612649565b8093505050505b919050565b60007f80ac58cd000000000000000000000000000000000000000000000000000000007bffffffffffffffffffffffffffffffffffffffffffffffffffffffff1916827bffffffffffffffffffffffffffffffffffffffffffffffffffffffff191614806127cf57507f5b5e139f000000000000000000000000000000000000000000000000000000007bffffffffffffffffffffffffffffffffffffffffffffffffffffffff1916827bffffffffffffffffffffffffffffffffffffffffffffffffffffffff1916145b806127df57506127de826132f0565b5b9050919050565b6127f0838361335a565b6127fd6000848484613159565b61283c576040517f08c379a000000000000000000000000000000000000000000000000000000000815260040161283390614388565b60405180910390fd5b505050565b61284c838383613528565b505050565b6000819050919050565b6128648161363c565b6128a3576040517f08c379a000000000000000000000000000000000000000000000000000000000815260040161289a90614568565b60405180910390fd5b806128d07f360894a13ba1a3210667c828492db98dca3e2076cc3735a920a3ca505d382bbc60001b612851565b60000160006101000a81548173ffffffffffffffffffffffffffffffffffffffff021916908373ffffffffffffffffffffffffffffffffffffffff16021790555050565b606061291f8361363c565b61295e576040517f08c379a000000000000000000000000000000000000000000000000000000000815260040161295590614608565b60405180910390fd5b6000808473ffffffffffffffffffffffffffffffffffffffff16846040516129869190614289565b600060405180830381855af49150503d80600081146129c1576040519150601f19603f3d011682016040523d82523d6000602084013e6129c6565b606091505b50915091506129ee82826040518060600160405280602781526020016151de6027913961364f565b9250505092915050565b6000819050919050565b612a0b8161285b565b8073ffffffffffffffffffffffffffffffffffffffff167fbc7cd75a20ee27fd9adebab32041f755214dbc6bffa90cc0225b39da2e5c2d3b60405160405180910390a250565b600060019054906101000a900460ff1680612a77575060008054906101000a900460ff16155b612ab6576040517f08c379a0000000000000000000000000000000000000000000000000000000008152600401612aad90614508565b60405180910390fd5b60008060019054906101000a900460ff161590508015612b06576001600060016101000a81548160ff02191690831515021790555060016000806101000a81548160ff0219169083151502179055505b8015612b275760008060016101000a81548160ff0219169083151502179055505b50565b600060019054906101000a900460ff1680612b50575060008054906101000a900460ff16155b612b8f576040517f08c379a0000000000000000000000000000000000000000000000000000000008152600401612b8690614508565b60405180910390fd5b60008060019054906101000a900460ff161590508015612bdf576001600060016101000a81548160ff02191690831515021790555060016000806101000a81548160ff0219169083151502179055505b8015612c005760008060016101000a81548160ff0219169083151502179055505b50565b600060019054906101000a900460ff1680612c29575060008054906101000a900460ff16155b612c68576040517f08c379a0000000000000000000000000000000000000000000000000000000008152600401612c5f90614508565b60405180910390fd5b60008060019054906101000a900460ff161590508015612cb8576001600060016101000a81548160ff02191690831515021790555060016000806101000a81548160ff0219169083151502179055505b8260659080519060200190612cce929190613a33565b508160669080519060200190612ce5929190613a33565b508015612d075760008060016101000a81548160ff0219169083151502179055505b505050565b600060019054906101000a900460ff1680612d32575060008054906101000a900460ff16155b612d71576040517f08c379a0000000000000000000000000000000000000000000000000000000008152600401612d6890614508565b60405180910390fd5b60008060019054906101000a900460ff161590508015612dc1576001600060016101000a81548160ff02191690831515021790555060016000806101000a81548160ff0219169083151502179055505b8015612de25760008060016101000a81548160ff0219169083151502179055505b50565b600060019054906101000a900460ff1680612e0b575060008054906101000a900460ff16155b612e4a576040517f08c379a0000000000000000000000000000000000000000000000000000000008152600401612e4190614508565b60405180910390fd5b60008060019054906101000a900460ff161590508015612e9a576001600060016101000a81548160ff02191690831515021790555060016000806101000a81548160ff0219169083151502179055505b8015612ebb5760008060016101000a81548160ff0219169083151502179055505b50565b600060019054906101000a900460ff1680612ee4575060008054906101000a900460ff16155b612f23576040517f08c379a0000000000000000000000000000000000000000000000000000000008152600401612f1a90614508565b60405180910390fd5b60008060019054906101000a900460ff161590508015612f73576001600060016101000a81548160ff02191690831515021790555060016000806101000a81548160ff0219169083151502179055505b612f83612f7e6117a4565b611f75565b8015612fa45760008060016101000a81548160ff0219169083151502179055505b50565b600060019054906101000a900460ff1680612fcd575060008054906101000a900460ff16155b61300c576040517f08c379a000000000000000000000000000000000000000000000000000000000815260040161300390614508565b60405180910390fd5b60008060019054906101000a900460ff16159050801561305c576001600060016101000a81548160ff02191690831515021790555060016000806101000a81548160ff0219169083151502179055505b801561307d5760008060016101000a81548160ff0219169083151502179055505b50565b600060019054906101000a900460ff16806130a6575060008054906101000a900460ff16155b6130e5576040517f08c379a00000000000000000000000000000000000000000000000000000000081526004016130dc90614508565b60405180910390fd5b60008060019054906101000a900460ff161590508015613135576001600060016101000a81548160ff02191690831515021790555060016000806101000a81548160ff0219169083151502179055505b80156131565760008060016101000a81548160ff0219169083151502179055505b50565b600061317a8473ffffffffffffffffffffffffffffffffffffffff1661363c565b156132e3578373ffffffffffffffffffffffffffffffffffffffff1663150b7a026131a36117a4565b8786866040518563ffffffff1660e01b81526004016131c594939291906142df565b602060405180830381600087803b1580156131df57600080fd5b505af192505050801561321057506040513d601f19601f8201168201806040525081019061320d9190613dcb565b60015b613293573d8060008114613240576040519150601f19603f3d011682016040523d82523d6000602084013e613245565b606091505b5060008151141561328b576040517f08c379a000000000000000000000000000000000000000000000000000000000815260040161328290614388565b60405180910390fd5b805181602001fd5b63150b7a0260e01b7bffffffffffffffffffffffffffffffffffffffffffffffffffffffff1916817bffffffffffffffffffffffffffffffffffffffffffffffffffffffff1916149150506132e8565b600190505b949350505050565b60007f01ffc9a7000000000000000000000000000000000000000000000000000000007bffffffffffffffffffffffffffffffffffffffffffffffffffffffff1916827bffffffffffffffffffffffffffffffffffffffffffffffffffffffff1916149050919050565b600073ffffffffffffffffffffffffffffffffffffffff168273ffffffffffffffffffffffffffffffffffffffff1614156133ca576040517f08c379a00000000000000000000000000000000000000000000000000000000081526004016133c190614528565b60405180910390fd5b6133d381611738565b15613413576040517f08c379a000000000000000000000000000000000000000000000000000000000815260040161340a906143e8565b60405180910390fd5b61341f60008383612841565b6001606860008473ffffffffffffffffffffffffffffffffffffffff1673ffffffffffffffffffffffffffffffffffffffff168152602001908152602001600020600082825461346f9190614747565b92505081905550816067600083815260200190815260200160002060006101000a81548173ffffffffffffffffffffffffffffffffffffffff021916908373ffffffffffffffffffffffffffffffffffffffff160217905550808273ffffffffffffffffffffffffffffffffffffffff16600073ffffffffffffffffffffffffffffffffffffffff167fddf252ad1be2c89b69c2b068fc378daa952ba7f163c4a11628f55a4df523b3ef60405160405180910390a45050565b6135338383836136b6565b600073ffffffffffffffffffffffffffffffffffffffff168373ffffffffffffffffffffffffffffffffffffffff16141561357657613571816136bb565b6135b5565b8173ffffffffffffffffffffffffffffffffffffffff168373ffffffffffffffffffffffffffffffffffffffff16146135b4576135b38382613704565b5b5b600073ffffffffffffffffffffffffffffffffffffffff168273ffffffffffffffffffffffffffffffffffffffff1614156135f8576135f381613871565b613637565b8273ffffffffffffffffffffffffffffffffffffffff168273ffffffffffffffffffffffffffffffffffffffff16146136365761363582826139b4565b5b5b505050565b600080823b905060008111915050919050565b6060831561365f578290506136af565b6000835111156136725782518084602001fd5b816040517f08c379a00000000000000000000000000000000000000000000000000000000081526004016136a69190614346565b60405180910390fd5b9392505050565b505050565b609980549050609a600083815260200190815260200160002081905550609981908060018154018082558091505060019003906000526020600020016000909190919091505550565b6000600161371184610e39565b61371b91906147ce565b9050600060986000848152602001908152602001600020549050818114613800576000609760008673ffffffffffffffffffffffffffffffffffffffff1673ffffffffffffffffffffffffffffffffffffffff168152602001908152602001600020600084815260200190815260200160002054905080609760008773ffffffffffffffffffffffffffffffffffffffff1673ffffffffffffffffffffffffffffffffffffffff168152602001908152602001600020600084815260200190815260200160002081905550816098600083815260200190815260200160002081905550505b6098600084815260200190815260200160002060009055609760008573ffffffffffffffffffffffffffffffffffffffff1673ffffffffffffffffffffffffffffffffffffffff16815260200190815260200160002060008381526020019081526020016000206000905550505050565b6000600160998054905061388591906147ce565b90506000609a60008481526020019081526020016000205490506000609983815481106138db577f4e487b7100000000000000000000000000000000000000000000000000000000600052603260045260246000fd5b906000526020600020015490508060998381548110613923577f4e487b7100000000000000000000000000000000000000000000000000000000600052603260045260246000fd5b906000526020600020018190555081609a600083815260200190815260200160002081905550609a6000858152602001908152602001600020600090556099805480613998577f4e487b7100000000000000000000000000000000000000000000000000000000600052603160045260246000fd5b6001900381819060005260206000200160009055905550505050565b60006139bf83610e39565b905081609760008573ffffffffffffffffffffffffffffffffffffffff1673ffffffffffffffffffffffffffffffffffffffff168152602001908152602001600020600083815260200190815260200160002081905550806098600084815260200190815260200160002081905550505050565b828054613a3f906148b8565b90600052602060002090601f016020900481019282613a615760008555613aa8565b82601f10613a7a57805160ff1916838001178555613aa8565b82800160010185558215613aa8579182015b82811115613aa7578251825591602001919060010190613a8c565b5b509050613ab59190613ab9565b5090565b5b80821115613ad2576000816000905550600101613aba565b5090565b6000613ae9613ae4846146c8565b6146a3565b905082815260208101848484011115613b0157600080fd5b613b0c848285614876565b509392505050565b600081359050613b2381615181565b92915050565b600081359050613b3881615198565b92915050565b600081359050613b4d816151af565b92915050565b600081519050613b62816151af565b92915050565b600082601f830112613b7957600080fd5b8135613b89848260208601613ad6565b91505092915050565b600081359050613ba1816151c6565b92915050565b600060208284031215613bb957600080fd5b6000613bc784828501613b14565b91505092915050565b60008060408385031215613be357600080fd5b6000613bf185828601613b14565b9250506020613c0285828601613b14565b9150509250929050565b600080600060608486031215613c2157600080fd5b6000613c2f86828701613b14565b9350506020613c4086828701613b14565b9250506040613c5186828701613b92565b9150509250925092565b60008060008060808587031215613c7157600080fd5b6000613c7f87828801613b14565b9450506020613c9087828801613b14565b9350506040613ca187828801613b92565b925050606085013567ffffffffffffffff811115613cbe57600080fd5b613cca87828801613b68565b91505092959194509250565b60008060408385031215613ce957600080fd5b6000613cf785828601613b14565b9250506020613d0885828601613b29565b9150509250929050565b60008060408385031215613d2557600080fd5b6000613d3385828601613b14565b925050602083013567ffffffffffffffff811115613d5057600080fd5b613d5c85828601613b68565b9150509250929050565b60008060408385031215613d7957600080fd5b6000613d8785828601613b14565b9250506020613d9885828601613b92565b9150509250929050565b600060208284031215613db457600080fd5b6000613dc284828501613b3e565b91505092915050565b600060208284031215613ddd57600080fd5b6000613deb84828501613b53565b91505092915050565b600060208284031215613e0657600080fd5b6000613e1484828501613b92565b91505092915050565b613e2681614802565b82525050565b613e3581614814565b82525050565b6000613e46826146f9565b613e50818561470f565b9350613e60818560208601614885565b613e6981614a51565b840191505092915050565b6000613e7f826146f9565b613e898185614720565b9350613e99818560208601614885565b80840191505092915050565b6000613eb082614704565b613eba818561472b565b9350613eca818560208601614885565b613ed381614a51565b840191505092915050565b6000613ee982614704565b613ef3818561473c565b9350613f03818560208601614885565b80840191505092915050565b6000613f1c602b8361472b565b9150613f2782614a62565b604082019050919050565b6000613f3f60328361472b565b9150613f4a82614ab1565b604082019050919050565b6000613f62602f8361472b565b9150613f6d82614b00565b604082019050919050565b6000613f8560268361472b565b9150613f9082614b4f565b604082019050919050565b6000613fa8601c8361472b565b9150613fb382614b9e565b602082019050919050565b6000613fcb602c8361472b565b9150613fd682614bc7565b604082019050919050565b6000613fee60248361472b565b9150613ff982614c16565b604082019050919050565b600061401160198361472b565b915061401c82614c65565b602082019050919050565b6000614034602c8361472b565b915061403f82614c8e565b604082019050919050565b6000614057602c8361472b565b915061406282614cdd565b604082019050919050565b600061407a60388361472b565b915061408582614d2c565b604082019050919050565b600061409d602a8361472b565b91506140a882614d7b565b604082019050919050565b60006140c060298361472b565b91506140cb82614dca565b604082019050919050565b60006140e3602e8361472b565b91506140ee82614e19565b604082019050919050565b600061410660208361472b565b915061411182614e68565b602082019050919050565b6000614129602c8361472b565b915061413482614e91565b604082019050919050565b600061414c602d8361472b565b915061415782614ee0565b604082019050919050565b600061416f60208361472b565b915061417a82614f2f565b602082019050919050565b600061419260298361472b565b915061419d82614f58565b604082019050919050565b60006141b5602f8361472b565b91506141c082614fa7565b604082019050919050565b60006141d860218361472b565b91506141e382614ff6565b604082019050919050565b60006141fb60268361472b565b915061420682615045565b604082019050919050565b600061421e60318361472b565b915061422982615094565b604082019050919050565b6000614241602c8361472b565b915061424c826150e3565b604082019050919050565b600061426460308361472b565b915061426f82615132565b604082019050919050565b6142838161486c565b82525050565b60006142958284613e74565b915081905092915050565b60006142ac8285613ede565b91506142b88284613ede565b91508190509392505050565b60006020820190506142d96000830184613e1d565b92915050565b60006080820190506142f46000830187613e1d565b6143016020830186613e1d565b61430e604083018561427a565b81810360608301526143208184613e3b565b905095945050505050565b60006020820190506143406000830184613e2c565b92915050565b600060208201905081810360008301526143608184613ea5565b905092915050565b6000602082019050818103600083015261438181613f0f565b9050919050565b600060208201905081810360008301526143a181613f32565b9050919050565b600060208201905081810360008301526143c181613f55565b9050919050565b600060208201905081810360008301526143e181613f78565b9050919050565b6000602082019050818103600083015261440181613f9b565b9050919050565b6000602082019050818103600083015261442181613fbe565b9050919050565b6000602082019050818103600083015261444181613fe1565b9050919050565b6000602082019050818103600083015261446181614004565b9050919050565b6000602082019050818103600083015261448181614027565b9050919050565b600060208201905081810360008301526144a18161404a565b9050919050565b600060208201905081810360008301526144c18161406d565b9050919050565b600060208201905081810360008301526144e181614090565b9050919050565b60006020820190508181036000830152614501816140b3565b9050919050565b60006020820190508181036000830152614521816140d6565b9050919050565b60006020820190508181036000830152614541816140f9565b9050919050565b600060208201905081810360008301526145618161411c565b9050919050565b600060208201905081810360008301526145818161413f565b9050919050565b600060208201905081810360008301526145a181614162565b9050919050565b600060208201905081810360008301526145c181614185565b9050919050565b600060208201905081810360008301526145e1816141a8565b9050919050565b60006020820190508181036000830152614601816141cb565b9050919050565b60006020820190508181036000830152614621816141ee565b9050919050565b6000602082019050818103600083015261464181614211565b9050919050565b6000602082019050818103600083015261466181614234565b9050919050565b6000602082019050818103600083015261468181614257565b9050919050565b600060208201905061469d600083018461427a565b92915050565b60006146ad6146be565b90506146b982826148ea565b919050565b6000604051905090565b600067ffffffffffffffff8211156146e3576146e2614a22565b5b6146ec82614a51565b9050602081019050919050565b600081519050919050565b600081519050919050565b600082825260208201905092915050565b600081905092915050565b600082825260208201905092915050565b600081905092915050565b60006147528261486c565b915061475d8361486c565b9250827fffffffffffffffffffffffffffffffffffffffffffffffffffffffffffffffff0382111561479257614791614995565b5b828201905092915050565b60006147a88261486c565b91506147b38361486c565b9250826147c3576147c26149c4565b5b828204905092915050565b60006147d98261486c565b91506147e48361486c565b9250828210156147f7576147f6614995565b5b828203905092915050565b600061480d8261484c565b9050919050565b60008115159050919050565b60007fffffffff0000000000000000000000000000000000000000000000000000000082169050919050565b600073ffffffffffffffffffffffffffffffffffffffff82169050919050565b6000819050919050565b82818337600083830152505050565b60005b838110156148a3578082015181840152602081019050614888565b838111156148b2576000848401525b50505050565b600060028204905060018216806148d057607f821691505b602082108114156148e4576148e36149f3565b5b50919050565b6148f382614a51565b810181811067ffffffffffffffff8211171561491257614911614a22565b5b80604052505050565b60006149268261486c565b91507fffffffffffffffffffffffffffffffffffffffffffffffffffffffffffffffff82141561495957614958614995565b5b600182019050919050565b600061496f8261486c565b915061497a8361486c565b92508261498a576149896149c4565b5b828206905092915050565b7f4e487b7100000000000000000000000000000000000000000000000000000000600052601160045260246000fd5b7f4e487b7100000000000000000000000000000000000000000000000000000000600052601260045260246000fd5b7f4e487b7100000000000000000000000000000000000000000000000000000000600052602260045260246000fd5b7f4e487b7100000000000000000000000000000000000000000000000000000000600052604160045260246000fd5b6000601f19601f8301169050919050565b7f455243373231456e756d657261626c653a206f776e657220696e646578206f7560008201527f74206f6620626f756e6473000000000000000000000000000000000000000000602082015250565b7f4552433732313a207472616e7366657220746f206e6f6e20455243373231526560008201527f63656976657220696d706c656d656e7465720000000000000000000000000000602082015250565b7f45524331393637557067726164653a207570677261646520627265616b73206660008201527f7572746865722075706772616465730000000000000000000000000000000000602082015250565b7f4f776e61626c653a206e6577206f776e657220697320746865207a65726f206160008201527f6464726573730000000000000000000000000000000000000000000000000000602082015250565b7f4552433732313a20746f6b656e20616c7265616479206d696e74656400000000600082015250565b7f46756e6374696f6e206d7573742062652063616c6c6564207468726f7567682060008201527f64656c656761746563616c6c0000000000000000000000000000000000000000602082015250565b7f4552433732313a207472616e7366657220746f20746865207a65726f2061646460008201527f7265737300000000000000000000000000000000000000000000000000000000602082015250565b7f4552433732313a20617070726f766520746f2063616c6c657200000000000000600082015250565b7f46756e6374696f6e206d7573742062652063616c6c6564207468726f7567682060008201527f6163746976652070726f78790000000000000000000000000000000000000000602082015250565b7f4552433732313a206f70657261746f7220717565727920666f72206e6f6e657860008201527f697374656e7420746f6b656e0000000000000000000000000000000000000000602082015250565b7f4552433732313a20617070726f76652063616c6c6572206973206e6f74206f7760008201527f6e6572206e6f7220617070726f76656420666f7220616c6c0000000000000000602082015250565b7f4552433732313a2062616c616e636520717565727920666f7220746865207a6560008201527f726f206164647265737300000000000000000000000000000000000000000000602082015250565b7f4552433732313a206f776e657220717565727920666f72206e6f6e657869737460008201527f656e7420746f6b656e0000000000000000000000000000000000000000000000602082015250565b7f496e697469616c697a61626c653a20636f6e747261637420697320616c72656160008201527f647920696e697469616c697a6564000000000000000000000000000000000000602082015250565b7f4552433732313a206d696e7420746f20746865207a65726f2061646472657373600082015250565b7f4552433732313a20617070726f76656420717565727920666f72206e6f6e657860008201527f697374656e7420746f6b656e0000000000000000000000000000000000000000602082015250565b7f455243313936373a206e657720696d706c656d656e746174696f6e206973206e60008201527f6f74206120636f6e747261637400000000000000000000000000000000000000602082015250565b7f4f776e61626c653a2063616c6c6572206973206e6f7420746865206f776e6572600082015250565b7f4552433732313a207472616e73666572206f6620746f6b656e2074686174206960008201527f73206e6f74206f776e0000000000000000000000000000000000000000000000602082015250565b7f4552433732314d657461646174613a2055524920717565727920666f72206e6f60008201527f6e6578697374656e7420746f6b656e0000000000000000000000000000000000602082015250565b7f4552433732313a20617070726f76616c20746f2063757272656e74206f776e6560008201527f7200000000000000000000000000000000000000000000000000000000000000602082015250565b7f416464726573733a2064656c65676174652063616c6c20746f206e6f6e2d636f60008201527f6e74726163740000000000000000000000000000000000000000000000000000602082015250565b7f4552433732313a207472616e736665722063616c6c6572206973206e6f74206f60008201527f776e6572206e6f7220617070726f766564000000000000000000000000000000602082015250565b7f455243373231456e756d657261626c653a20676c6f62616c20696e646578206f60008201527f7574206f6620626f756e64730000000000000000000000000000000000000000602082015250565b7f4552433732314275726e61626c653a2063616c6c6572206973206e6f74206f7760008201527f6e6572206e6f7220617070726f76656400000000000000000000000000000000602082015250565b61518a81614802565b811461519557600080fd5b50565b6151a181614814565b81146151ac57600080fd5b50565b6151b881614820565b81146151c357600080fd5b50565b6151cf8161486c565b81146151da57600080fd5b5056fe416464726573733a206c6f772d6c6576656c2064656c65676174652063616c6c206661696c6564a2646970667358221220b89f44a0ccffcbc3f43941b5e6f048c21d4da66358330faff02f0438c379accf64736f6c63430008030033",
  "devdoc": {
    "kind": "dev",
    "methods": {
      "approve(address,uint256)": {
        "details": "See {IERC721-approve}."
      },
      "balanceOf(address)": {
        "details": "See {IERC721-balanceOf}."
      },
      "burn(uint256)": {
        "details": "Burns `tokenId`. See {ERC721-_burn}. Requirements: - The caller must own `tokenId` or be an approved operator."
      },
      "constructor": {
        "custom:oz-upgrades-unsafe-allow": "constructor"
      },
      "getApproved(uint256)": {
        "details": "See {IERC721-getApproved}."
      },
      "isApprovedForAll(address,address)": {
        "details": "See {IERC721-isApprovedForAll}."
      },
      "name()": {
        "details": "See {IERC721Metadata-name}."
      },
      "owner()": {
        "details": "Returns the address of the current owner."
      },
      "ownerOf(uint256)": {
        "details": "See {IERC721-ownerOf}."
      },
      "renounceOwnership()": {
        "details": "Leaves the contract without owner. It will not be possible to call `onlyOwner` functions anymore. Can only be called by the current owner. NOTE: Renouncing ownership will leave the contract without an owner, thereby removing any functionality that is only available to the owner."
      },
      "safeTransferFrom(address,address,uint256)": {
        "details": "See {IERC721-safeTransferFrom}."
      },
      "safeTransferFrom(address,address,uint256,bytes)": {
        "details": "See {IERC721-safeTransferFrom}."
      },
      "setApprovalForAll(address,bool)": {
        "details": "See {IERC721-setApprovalForAll}."
      },
      "symbol()": {
        "details": "See {IERC721Metadata-symbol}."
      },
      "tokenByIndex(uint256)": {
        "details": "See {IERC721Enumerable-tokenByIndex}."
      },
      "tokenOfOwnerByIndex(address,uint256)": {
        "details": "See {IERC721Enumerable-tokenOfOwnerByIndex}."
      },
      "tokenURI(uint256)": {
        "details": "See {IERC721Metadata-tokenURI}."
      },
      "totalSupply()": {
        "details": "See {IERC721Enumerable-totalSupply}."
      },
      "transferFrom(address,address,uint256)": {
        "details": "See {IERC721-transferFrom}."
      },
      "transferOwnership(address)": {
        "details": "Transfers ownership of the contract to a new account (`newOwner`). Can only be called by the current owner."
      },
      "upgradeTo(address)": {
        "details": "Upgrade the implementation of the proxy to `newImplementation`. Calls {_authorizeUpgrade}. Emits an {Upgraded} event."
      },
      "upgradeToAndCall(address,bytes)": {
        "details": "Upgrade the implementation of the proxy to `newImplementation`, and subsequently execute the function call encoded in `data`. Calls {_authorizeUpgrade}. Emits an {Upgraded} event."
      }
    },
    "version": 1
  },
  "userdoc": {
    "kind": "user",
    "methods": {},
    "version": 1
  },
  "storageLayout": {
    "storage": [
      {
        "astId": 538,
        "contract": "contracts/tokens/SRealmToken.sol:SRealmToken",
        "label": "_initialized",
        "offset": 0,
        "slot": "0",
        "type": "t_bool"
      },
      {
        "astId": 541,
        "contract": "contracts/tokens/SRealmToken.sol:SRealmToken",
        "label": "_initializing",
        "offset": 1,
        "slot": "0",
        "type": "t_bool"
      },
      {
        "astId": 2439,
        "contract": "contracts/tokens/SRealmToken.sol:SRealmToken",
        "label": "__gap",
        "offset": 0,
        "slot": "1",
        "type": "t_array(t_uint256)50_storage"
      },
      {
        "astId": 2748,
        "contract": "contracts/tokens/SRealmToken.sol:SRealmToken",
        "label": "__gap",
        "offset": 0,
        "slot": "51",
        "type": "t_array(t_uint256)50_storage"
      },
      {
        "astId": 718,
        "contract": "contracts/tokens/SRealmToken.sol:SRealmToken",
        "label": "_name",
        "offset": 0,
        "slot": "101",
        "type": "t_string_storage"
      },
      {
        "astId": 720,
        "contract": "contracts/tokens/SRealmToken.sol:SRealmToken",
        "label": "_symbol",
        "offset": 0,
        "slot": "102",
        "type": "t_string_storage"
      },
      {
        "astId": 724,
        "contract": "contracts/tokens/SRealmToken.sol:SRealmToken",
        "label": "_owners",
        "offset": 0,
        "slot": "103",
        "type": "t_mapping(t_uint256,t_address)"
      },
      {
        "astId": 728,
        "contract": "contracts/tokens/SRealmToken.sol:SRealmToken",
        "label": "_balances",
        "offset": 0,
        "slot": "104",
        "type": "t_mapping(t_address,t_uint256)"
      },
      {
        "astId": 732,
        "contract": "contracts/tokens/SRealmToken.sol:SRealmToken",
        "label": "_tokenApprovals",
        "offset": 0,
        "slot": "105",
        "type": "t_mapping(t_uint256,t_address)"
      },
      {
        "astId": 738,
        "contract": "contracts/tokens/SRealmToken.sol:SRealmToken",
        "label": "_operatorApprovals",
        "offset": 0,
        "slot": "106",
        "type": "t_mapping(t_address,t_mapping(t_address,t_bool))"
      },
      {
        "astId": 1534,
        "contract": "contracts/tokens/SRealmToken.sol:SRealmToken",
        "label": "__gap",
        "offset": 0,
        "slot": "107",
        "type": "t_array(t_uint256)44_storage"
      },
      {
        "astId": 1766,
        "contract": "contracts/tokens/SRealmToken.sol:SRealmToken",
        "label": "_ownedTokens",
        "offset": 0,
        "slot": "151",
        "type": "t_mapping(t_address,t_mapping(t_uint256,t_uint256))"
      },
      {
        "astId": 1770,
        "contract": "contracts/tokens/SRealmToken.sol:SRealmToken",
        "label": "_ownedTokensIndex",
        "offset": 0,
        "slot": "152",
        "type": "t_mapping(t_uint256,t_uint256)"
      },
      {
        "astId": 1773,
        "contract": "contracts/tokens/SRealmToken.sol:SRealmToken",
        "label": "_allTokens",
        "offset": 0,
        "slot": "153",
        "type": "t_array(t_uint256)dyn_storage"
      },
      {
        "astId": 1777,
        "contract": "contracts/tokens/SRealmToken.sol:SRealmToken",
        "label": "_allTokensIndex",
        "offset": 0,
        "slot": "154",
        "type": "t_mapping(t_uint256,t_uint256)"
      },
      {
        "astId": 2092,
        "contract": "contracts/tokens/SRealmToken.sol:SRealmToken",
        "label": "__gap",
        "offset": 0,
        "slot": "155",
        "type": "t_array(t_uint256)46_storage"
      },
      {
        "astId": 1726,
        "contract": "contracts/tokens/SRealmToken.sol:SRealmToken",
        "label": "__gap",
        "offset": 0,
        "slot": "201",
        "type": "t_array(t_uint256)50_storage"
      },
      {
        "astId": 10,
        "contract": "contracts/tokens/SRealmToken.sol:SRealmToken",
        "label": "_owner",
        "offset": 0,
        "slot": "251",
        "type": "t_address"
      },
      {
        "astId": 123,
        "contract": "contracts/tokens/SRealmToken.sol:SRealmToken",
        "label": "__gap",
        "offset": 0,
        "slot": "252",
        "type": "t_array(t_uint256)49_storage"
      },
      {
        "astId": 521,
        "contract": "contracts/tokens/SRealmToken.sol:SRealmToken",
        "label": "__gap",
        "offset": 0,
        "slot": "301",
        "type": "t_array(t_uint256)50_storage"
      },
      {
        "astId": 688,
        "contract": "contracts/tokens/SRealmToken.sol:SRealmToken",
        "label": "__gap",
        "offset": 0,
        "slot": "351",
        "type": "t_array(t_uint256)50_storage"
      },
      {
        "astId": 17672,
        "contract": "contracts/tokens/SRealmToken.sol:SRealmToken",
        "label": "stakingFacetAddress",
        "offset": 0,
        "slot": "401",
        "type": "t_address"
      },
      {
        "astId": 17675,
        "contract": "contracts/tokens/SRealmToken.sol:SRealmToken",
        "label": "realmsContract",
        "offset": 0,
        "slot": "402",
        "type": "t_contract(IERC721)5216"
      }
    ],
    "types": {
      "t_address": {
        "encoding": "inplace",
        "label": "address",
        "numberOfBytes": "20"
      },
      "t_array(t_uint256)44_storage": {
        "base": "t_uint256",
        "encoding": "inplace",
        "label": "uint256[44]",
        "numberOfBytes": "1408"
      },
      "t_array(t_uint256)46_storage": {
        "base": "t_uint256",
        "encoding": "inplace",
        "label": "uint256[46]",
        "numberOfBytes": "1472"
      },
      "t_array(t_uint256)49_storage": {
        "base": "t_uint256",
        "encoding": "inplace",
        "label": "uint256[49]",
        "numberOfBytes": "1568"
      },
      "t_array(t_uint256)50_storage": {
        "base": "t_uint256",
        "encoding": "inplace",
        "label": "uint256[50]",
        "numberOfBytes": "1600"
      },
      "t_array(t_uint256)dyn_storage": {
        "base": "t_uint256",
        "encoding": "dynamic_array",
        "label": "uint256[]",
        "numberOfBytes": "32"
      },
      "t_bool": {
        "encoding": "inplace",
        "label": "bool",
        "numberOfBytes": "1"
      },
      "t_contract(IERC721)5216": {
        "encoding": "inplace",
        "label": "contract IERC721",
        "numberOfBytes": "20"
      },
      "t_mapping(t_address,t_bool)": {
        "encoding": "mapping",
        "key": "t_address",
        "label": "mapping(address => bool)",
        "numberOfBytes": "32",
        "value": "t_bool"
      },
      "t_mapping(t_address,t_mapping(t_address,t_bool))": {
        "encoding": "mapping",
        "key": "t_address",
        "label": "mapping(address => mapping(address => bool))",
        "numberOfBytes": "32",
        "value": "t_mapping(t_address,t_bool)"
      },
      "t_mapping(t_address,t_mapping(t_uint256,t_uint256))": {
        "encoding": "mapping",
        "key": "t_address",
        "label": "mapping(address => mapping(uint256 => uint256))",
        "numberOfBytes": "32",
        "value": "t_mapping(t_uint256,t_uint256)"
      },
      "t_mapping(t_address,t_uint256)": {
        "encoding": "mapping",
        "key": "t_address",
        "label": "mapping(address => uint256)",
        "numberOfBytes": "32",
        "value": "t_uint256"
      },
      "t_mapping(t_uint256,t_address)": {
        "encoding": "mapping",
        "key": "t_uint256",
        "label": "mapping(uint256 => address)",
        "numberOfBytes": "32",
        "value": "t_address"
      },
      "t_mapping(t_uint256,t_uint256)": {
        "encoding": "mapping",
        "key": "t_uint256",
        "label": "mapping(uint256 => uint256)",
        "numberOfBytes": "32",
        "value": "t_uint256"
      },
      "t_string_storage": {
        "encoding": "bytes",
        "label": "string",
        "numberOfBytes": "32"
      },
      "t_uint256": {
        "encoding": "inplace",
        "label": "uint256",
        "numberOfBytes": "32"
      }
    }
  }
}