{
  "address": "0x981a7614afb87Cd0F56328f72660f3FbFa2EF30e",
  "abi": [
    {
      "anonymous": false,
      "inputs": [
        {
          "indexed": false,
          "internalType": "uint256",
          "name": "_tokenId",
          "type": "uint256"
        }
      ],
      "name": "Init",
      "type": "event"
    },
    {
      "anonymous": false,
      "inputs": [
        {
          "indexed": false,
          "internalType": "uint256[]",
          "name": "",
          "type": "uint256[]"
        },
        {
          "indexed": false,
          "internalType": "uint256[]",
          "name": "",
          "type": "uint256[]"
        }
      ],
      "name": "ResourcesClaimed",
      "type": "event"
    },
    {
      "inputs": [
        {
          "internalType": "uint256",
          "name": "_tokenId",
          "type": "uint256"
        }
      ],
      "name": "get30DayVestingTime",
      "outputs": [
        {
          "internalType": "uint256",
          "name": "",
          "type": "uint256"
        }
      ],
      "stateMutability": "view",
      "type": "function"
    },
    {
      "inputs": [
        {
          "internalType": "uint256",
          "name": "_tokenId",
          "type": "uint256"
        }
      ],
      "name": "getAllTraits",
      "outputs": [
        {
          "internalType": "uint256",
          "name": "",
          "type": "uint256"
        },
        {
          "internalType": "uint256",
          "name": "",
          "type": "uint256"
        },
        {
          "internalType": "uint256",
          "name": "",
          "type": "uint256"
        },
        {
          "internalType": "uint256",
          "name": "",
          "type": "uint256"
        }
      ],
      "stateMutability": "view",
      "type": "function"
    },
    {
      "inputs": [
        {
          "internalType": "uint256",
          "name": "_tokenId",
          "type": "uint256"
        }
      ],
      "name": "getCities",
      "outputs": [
        {
          "internalType": "uint256",
          "name": "",
          "type": "uint256"
        }
      ],
      "stateMutability": "view",
      "type": "function"
    },
    {
      "inputs": [
        {
          "internalType": "uint256",
          "name": "_tokenId",
          "type": "uint256"
        }
      ],
      "name": "getHarbours",
      "outputs": [
        {
          "internalType": "uint256",
          "name": "",
          "type": "uint256"
        }
      ],
      "stateMutability": "view",
      "type": "function"
    },
    {
      "inputs": [
        {
          "internalType": "uint256",
          "name": "_tokenId",
          "type": "uint256"
        }
      ],
      "name": "getName",
      "outputs": [
        {
          "internalType": "string",
          "name": "",
          "type": "string"
        }
      ],
      "stateMutability": "view",
      "type": "function"
    },
    {
      "inputs": [
        {
          "internalType": "uint256",
          "name": "_tokenId",
          "type": "uint256"
        }
      ],
      "name": "getRealmInformation",
      "outputs": [
        {
          "internalType": "uint256",
          "name": "lastupdate",
          "type": "uint256"
        }
      ],
      "stateMutability": "view",
      "type": "function"
    },
    {
      "inputs": [
        {
          "internalType": "uint256",
          "name": "_tokenId",
          "type": "uint256"
        }
      ],
      "name": "getRegions",
      "outputs": [
        {
          "internalType": "uint256",
          "name": "",
          "type": "uint256"
        }
      ],
      "stateMutability": "view",
      "type": "function"
    },
    {
      "inputs": [
        {
          "internalType": "uint256",
          "name": "_tokenId",
          "type": "uint256"
        }
      ],
      "name": "getResourceIds",
      "outputs": [
        {
          "internalType": "uint256[]",
          "name": "",
          "type": "uint256[]"
        }
      ],
      "stateMutability": "view",
      "type": "function"
    },
    {
      "inputs": [
        {
          "internalType": "uint256",
          "name": "_tokenId",
          "type": "uint256"
        }
      ],
      "name": "getResourceLength",
      "outputs": [
        {
          "internalType": "uint256",
          "name": "",
          "type": "uint256"
        }
      ],
      "stateMutability": "view",
      "type": "function"
    },
    {
      "inputs": [
        {
          "internalType": "uint256",
          "name": "_tokenId",
          "type": "uint256"
        }
      ],
      "name": "getRivers",
      "outputs": [
        {
          "internalType": "uint256",
          "name": "",
          "type": "uint256"
        }
      ],
      "stateMutability": "view",
      "type": "function"
    },
    {
      "inputs": [
        {
          "internalType": "uint256",
          "name": "_tokenId",
          "type": "uint256"
        }
      ],
      "name": "getVestingTime",
      "outputs": [
        {
          "internalType": "uint256",
          "name": "",
          "type": "uint256"
        }
      ],
      "stateMutability": "view",
      "type": "function"
    },
    {
      "inputs": [
        {
          "internalType": "uint256",
          "name": "_tokenId",
          "type": "uint256"
        }
      ],
      "name": "getWonder",
      "outputs": [
        {
          "internalType": "uint256",
          "name": "",
          "type": "uint256"
        }
      ],
      "stateMutability": "view",
      "type": "function"
    },
    {
      "inputs": [
        {
          "internalType": "uint256",
          "name": "_tokenId",
          "type": "uint256"
        },
        {
          "internalType": "string",
          "name": "_name",
          "type": "string"
        },
        {
          "internalType": "uint8[]",
          "name": "_traits",
          "type": "uint8[]"
        },
        {
          "internalType": "uint8[]",
          "name": "_resources",
          "type": "uint8[]"
        },
        {
          "internalType": "uint8",
          "name": "_wonder",
          "type": "uint8"
        }
      ],
      "name": "init",
      "outputs": [],
      "stateMutability": "nonpayable",
      "type": "function"
    },
    {
      "inputs": [
        {
          "internalType": "uint256",
          "name": "_tokenId",
          "type": "uint256"
        },
        {
          "internalType": "bool",
          "name": "_update",
          "type": "bool"
        }
      ],
      "name": "stakeRealm",
      "outputs": [],
      "stateMutability": "payable",
      "type": "function"
    },
    {
      "inputs": [
        {
          "internalType": "uint256",
          "name": "_sTokenId",
          "type": "uint256"
        }
      ],
      "name": "unstakeAndExit",
      "outputs": [],
      "stateMutability": "nonpayable",
      "type": "function"
    },
    {
      "inputs": [
        {
          "internalType": "uint256",
          "name": "_tokenId",
          "type": "uint256"
        },
        {
          "internalType": "bytes",
          "name": "_calldata",
          "type": "bytes"
        }
      ],
      "name": "withdrawResources",
      "outputs": [],
      "stateMutability": "payable",
      "type": "function"
    }
  ],
  "transactionHash": "0x60ec408a8e12aab3da471e28595724fed85723ea043a847d0659f408452e1705",
  "args": [],
  "solcInputHash": "4140ff486bc87889d8a4474213d2a12e",
  "bytecode": "0x608060405234801561001057600080fd5b5061264c806100206000396000f3fe6080604052600436106100f35760003560e01c80637fe4faf81161008a578063a771303f11610059578063a771303f1461038e578063ab67134b146103aa578063b47e8c5e146103e7578063da37000b14610424576100f3565b80637fe4faf8146102bf57806382bc07f3146102fc57806391343624146103255780639fb42cf41461034e576100f3565b80635c508128116100c65780635c508128146101ec57806361eb6865146102295780636b8ff574146102665780637a76f673146102a3576100f3565b806304eaf327146100f857806319d7151d14610135578063322942ee1461017257806346b9cb8a146101af575b600080fd5b34801561010457600080fd5b5061011f600480360381019061011a9190611ba4565b610461565b60405161012c9190612060565b60405180910390f35b34801561014157600080fd5b5061015c60048036038101906101579190611ba4565b610498565b6040516101699190612060565b60405180910390f35b34801561017e57600080fd5b5061019960048036038101906101949190611ba4565b6104cf565b6040516101a69190612060565b60405180910390f35b3480156101bb57600080fd5b506101d660048036038101906101d19190611ba4565b610501565b6040516101e39190612060565b60405180910390f35b3480156101f857600080fd5b50610213600480360381019061020e9190611ba4565b610533565b6040516102209190612060565b60405180910390f35b34801561023557600080fd5b50610250600480360381019061024b9190611ba4565b61055d565b60405161025d9190611fa5565b60405180910390f35b34801561027257600080fd5b5061028d60048036038101906102889190611ba4565b6105d3565b60405161029a9190611ffe565b60405180910390f35b6102bd60048036038101906102b89190611c09565b610683565b005b3480156102cb57600080fd5b506102e660048036038101906102e19190611ba4565b610ccb565b6040516102f39190612060565b60405180910390f35b34801561030857600080fd5b50610323600480360381019061031e9190611c61565b610d02565b005b34801561033157600080fd5b5061034c60048036038101906103479190611ba4565b61113e565b005b34801561035a57600080fd5b5061037560048036038101906103709190611ba4565b6113e4565b604051610385949392919061207b565b60405180910390f35b6103a860048036038101906103a39190611bcd565b611473565b005b3480156103b657600080fd5b506103d160048036038101906103cc9190611ba4565b61181e565b6040516103de9190612060565b60405180910390f35b3480156103f357600080fd5b5061040e60048036038101906104099190611ba4565b611855565b60405161041b9190612060565b60405180910390f35b34801561043057600080fd5b5061044b60048036038101906104469190611ba4565b61188c565b6040516104589190612060565b60405180910390f35b60008060008001600084815260200190815260200160002090508060040160019054906101000a900460ff1660ff16915050919050565b60008060008001600084815260200190815260200160002090508060040160049054906101000a900460ff1660ff16915050919050565b60008060008001600084815260200190815260200160002090508060030154426104f991906122b6565b915050919050565b600080600080016000848152602001908152602001600020905080600201544261052b91906122b6565b915050919050565b60008060008001600084815260200190815260200160002090508060050180549050915050919050565b606060008060000160008481526020019081526020016000209050806005018054806020026020016040519081016040528092919081815260200182805480156105c657602002820191906000526020600020905b8154815260200190600101908083116105b2575b5050505050915050919050565b6060600080600001600084815260200190815260200160002090508060010180546105fd9061238b565b80601f01602080910402602001604051908101604052809291908181526020018280546106299061238b565b80156106765780601f1061064b57610100808354040283529160200191610676565b820191906000526020600020905b81548152906001019060200180831161065957829003601f168201915b5050505050915050919050565b8260008060030160029054906101000a900473ffffffffffffffffffffffffffffffffffffffff1690508073ffffffffffffffffffffffffffffffffffffffff16636352211e836040518263ffffffff1660e01b81526004016106e69190612060565b60206040518083038186803b1580156106fe57600080fd5b505afa158015610712573d6000803e3d6000fd5b505050506040513d601f19601f820116820180604052508101906107369190611b7b565b73ffffffffffffffffffffffffffffffffffffffff163373ffffffffffffffffffffffffffffffffffffffff16146107a3576040517f08c379a000000000000000000000000000000000000000000000000000000000815260040161079a90612020565b60405180910390fd5b60008060060160009054906101000a900473ffffffffffffffffffffffffffffffffffffffff169050600080600001600088815260200190815260200160002090506000816005018054905067ffffffffffffffff81111561082e577f4e487b7100000000000000000000000000000000000000000000000000000000600052604160045260246000fd5b60405190808252806020026020018201604052801561085c5781602001602082028036833780820191505090505b5090506000826005018054905067ffffffffffffffff8111156108a8577f4e487b7100000000000000000000000000000000000000000000000000000000600052604160045260246000fd5b6040519080825280602002602001820160405280156108d65781602001602082028036833780820191505090505b5090506000836005018054905067ffffffffffffffff811115610922577f4e487b7100000000000000000000000000000000000000000000000000000000600052604160045260246000fd5b6040519080825280602002602001820160405280156109505781602001602082028036833780820191505090505b50905060005b84600501805490508110156109e65784600601600082815260200190815260200160002060000160029054906101000a900460ff1660ff168482815181106109c7577f4e487b7100000000000000000000000000000000000000000000000000000000600052603260045260246000fd5b60200260200101818152505080806109de90612408565b915050610956565b5060016109f685600301546118b3565b610a0386600201546118f7565b610a0d91906121d5565b11610a4d576040517f08c379a0000000000000000000000000000000000000000000000000000000008152600401610a4490612040565b60405180910390fd5b60005b8460050180549050811015610bc657600a60506001868481518110610a9e577f4e487b7100000000000000000000000000000000000000000000000000000000600052603260045260246000fd5b6020026020010151610ab0919061225c565b610aba919061225c565b610ac4919061222b565b838281518110610afd577f4e487b7100000000000000000000000000000000000000000000000000000000600052603260045260246000fd5b602002602001018181525050600a60146001868481518110610b48577f4e487b7100000000000000000000000000000000000000000000000000000000600052603260045260246000fd5b6020026020010151610b5a919061225c565b610b64919061225c565b610b6e919061222b565b828281518110610ba7577f4e487b7100000000000000000000000000000000000000000000000000000000600052603260045260246000fd5b6020026020010181815250508080610bbe90612408565b915050610a50565b50610be18460020154610bdc86600201546118f7565b611919565b8460020181905550610c038460030154610bfe86600301546118b3565b611919565b84600301819055508473ffffffffffffffffffffffffffffffffffffffff166316a213cd338660050185858e8e6040518763ffffffff1660e01b8152600401610c5196959493929190611f0b565b600060405180830381600087803b158015610c6b57600080fd5b505af1158015610c7f573d6000803e3d6000fd5b505050507f80622db75391035b375fd650fdd63615c99c66f0610ec81d9acee6ca1e0d927b8460050183604051610cb7929190611fc7565b60405180910390a150505050505050505050565b60008060008001600084815260200190815260200160002090508060040160009054906101000a900460ff1660ff16915050919050565b6000806000016000878152602001908152602001600020905084816001019080519060200190610d3392919061193c565b5083600081518110610d6e577f4e487b7100000000000000000000000000000000000000000000000000000000600052603260045260246000fd5b60200260200101518160040160036101000a81548160ff021916908360ff16021790555083600181518110610dcc577f4e487b7100000000000000000000000000000000000000000000000000000000600052603260045260246000fd5b60200260200101518160040160006101000a81548160ff021916908360ff16021790555083600281518110610e2a577f4e487b7100000000000000000000000000000000000000000000000000000000600052603260045260246000fd5b60200260200101518160040160016101000a81548160ff021916908360ff16021790555083600381518110610e88577f4e487b7100000000000000000000000000000000000000000000000000000000600052603260045260246000fd5b60200260200101518160040160026101000a81548160ff021916908360ff16021790555060005b83518160ff161015610f3f5781600501848260ff1681518110610efb577f4e487b7100000000000000000000000000000000000000000000000000000000600052603260045260246000fd5b6020026020010151908060018154018082558091505060019003906000526020600020016000909160ff169091909150558080610f3790612451565b915050610eaf565b5060005b83518160ff16101561110c57838160ff1681518110610f8b577f4e487b7100000000000000000000000000000000000000000000000000000000600052603260045260246000fd5b6020026020010151826006016000868460ff1681518110610fd5577f4e487b7100000000000000000000000000000000000000000000000000000000600052603260045260246000fd5b602002602001015160ff16815260200190815260200160002060000160006101000a81548160ff021916908360ff1602179055506001826006016000868460ff168151811061104d577f4e487b7100000000000000000000000000000000000000000000000000000000600052603260045260246000fd5b602002602001015160ff16815260200190815260200160002060000160016101000a81548160ff021916908360ff160217905550600a826006016000868460ff16815181106110c5577f4e487b7100000000000000000000000000000000000000000000000000000000600052603260045260246000fd5b602002602001015160ff16815260200190815260200160002060000160026101000a81548160ff021916908360ff160217905550808061110490612451565b915050610f43565b5060008260ff161461113657818160040160046101000a81548160ff021916908360ff1602179055505b505050505050565b8060008060030160029054906101000a900473ffffffffffffffffffffffffffffffffffffffff1690508073ffffffffffffffffffffffffffffffffffffffff16636352211e836040518263ffffffff1660e01b81526004016111a19190612060565b60206040518083038186803b1580156111b957600080fd5b505afa1580156111cd573d6000803e3d6000fd5b505050506040513d601f19601f820116820180604052508101906111f19190611b7b565b73ffffffffffffffffffffffffffffffffffffffff163373ffffffffffffffffffffffffffffffffffffffff161461125e576040517f08c379a000000000000000000000000000000000000000000000000000000000815260040161125590612020565b60405180910390fd5b60008060040160009054906101000a900473ffffffffffffffffffffffffffffffffffffffff16905060008060030160029054906101000a900473ffffffffffffffffffffffffffffffffffffffff1690506000806000016000878152602001908152602001600020905060008160020181905550600081600301819055508273ffffffffffffffffffffffffffffffffffffffff166342842e0e600060050160009054906101000a900473ffffffffffffffffffffffffffffffffffffffff1633896040518463ffffffff1660e01b815260040161133f93929190611ed4565b600060405180830381600087803b15801561135957600080fd5b505af115801561136d573d6000803e3d6000fd5b505050508173ffffffffffffffffffffffffffffffffffffffff166342966c68876040518263ffffffff1660e01b81526004016113aa9190612060565b600060405180830381600087803b1580156113c457600080fd5b505af11580156113d8573d6000803e3d6000fd5b50505050505050505050565b600080600080600080600001600087815260200190815260200160002090508060040160039054906101000a900460ff168160040160009054906101000a900460ff168260040160019054906101000a900460ff168360040160029054906101000a900460ff168360ff1693508260ff1692508160ff1691508060ff1690509450945094509450509193509193565b8160008060040160009054906101000a900473ffffffffffffffffffffffffffffffffffffffff1690508073ffffffffffffffffffffffffffffffffffffffff16636352211e836040518263ffffffff1660e01b81526004016114d69190612060565b60206040518083038186803b1580156114ee57600080fd5b505afa158015611502573d6000803e3d6000fd5b505050506040513d601f19601f820116820180604052508101906115269190611b7b565b73ffffffffffffffffffffffffffffffffffffffff163373ffffffffffffffffffffffffffffffffffffffff1614611593576040517f08c379a000000000000000000000000000000000000000000000000000000000815260040161158a90612020565b60405180910390fd5b600080600001600086815260200190815260200160002090506000806001016000878152602001908152602001600020905060008060040160009054906101000a900473ffffffffffffffffffffffffffffffffffffffff16905060008060030160029054906101000a900473ffffffffffffffffffffffffffffffffffffffff1690508073ffffffffffffffffffffffffffffffffffffffff166321c6ddff338a6040518363ffffffff1660e01b8152600401611652929190611f7c565b600060405180830381600087803b15801561166c57600080fd5b505af1158015611680573d6000803e3d6000fd5b505050508173ffffffffffffffffffffffffffffffffffffffff166342842e0e33600060050160009054906101000a900473ffffffffffffffffffffffffffffffffffffffff168b6040518463ffffffff1660e01b81526004016116e693929190611ed4565b600060405180830381600087803b15801561170057600080fd5b505af1158015611714573d6000803e3d6000fd5b505050508661172b57428460020181905550611814565b87846000018190555042846002018190555042846003018190555060008360000160039054906101000a900460ff1660ff1614156117dc5760648360000160036101000a81548160ff021916908360ff16021790555060018360000160006101000a81548160ff021916908360ff16021790555060018360000160016101000a81548160ff021916908360ff16021790555060018360000160026101000a81548160ff021916908360ff1602179055505b7f387d06ac3b54c0ade104e08db87887286d162da416d27a605fc64e4f26c013388860405161180b9190612060565b60405180910390a15b5050505050505050565b60008060008001600084815260200190815260200160002090508060040160029054906101000a900460ff1660ff16915050919050565b60008060008001600084815260200190815260200160002090508060040160039054906101000a900460ff1660ff16915050919050565b60008060008001600084815260200190815260200160002090508060020154915050919050565b600080610e1083426118c591906122b6565b6118cf919061222b565b90506201b3f08111156118ee576201a5e0816118eb91906122b6565b90505b80915050919050565b6000610e10824261190891906122b6565b611912919061222b565b9050919050565b6000610e1082611929919061225c565b8361193491906121d5565b905092915050565b8280546119489061238b565b90600052602060002090601f01602090048101928261196a57600085556119b1565b82601f1061198357805160ff19168380011785556119b1565b828001600101855582156119b1579182015b828111156119b0578251825591602001919060010190611995565b5b5090506119be91906119c2565b5090565b5b808211156119db5760008160009055506001016119c3565b5090565b60006119f26119ed846120e5565b6120c0565b90508083825260208201905082856020860282011115611a1157600080fd5b60005b85811015611a415781611a278882611b66565b845260208401935060208301925050600181019050611a14565b5050509392505050565b6000611a5e611a5984612111565b6120c0565b905082815260208101848484011115611a7657600080fd5b611a81848285612349565b509392505050565b600081519050611a98816125ba565b92915050565b600082601f830112611aaf57600080fd5b8135611abf8482602086016119df565b91505092915050565b600081359050611ad7816125d1565b92915050565b60008083601f840112611aef57600080fd5b8235905067ffffffffffffffff811115611b0857600080fd5b602083019150836001820283011115611b2057600080fd5b9250929050565b600082601f830112611b3857600080fd5b8135611b48848260208601611a4b565b91505092915050565b600081359050611b60816125e8565b92915050565b600081359050611b75816125ff565b92915050565b600060208284031215611b8d57600080fd5b6000611b9b84828501611a89565b91505092915050565b600060208284031215611bb657600080fd5b6000611bc484828501611b51565b91505092915050565b60008060408385031215611be057600080fd5b6000611bee85828601611b51565b9250506020611bff85828601611ac8565b9150509250929050565b600080600060408486031215611c1e57600080fd5b6000611c2c86828701611b51565b935050602084013567ffffffffffffffff811115611c4957600080fd5b611c5586828701611add565b92509250509250925092565b600080600080600060a08688031215611c7957600080fd5b6000611c8788828901611b51565b955050602086013567ffffffffffffffff811115611ca457600080fd5b611cb088828901611b27565b945050604086013567ffffffffffffffff811115611ccd57600080fd5b611cd988828901611a9e565b935050606086013567ffffffffffffffff811115611cf657600080fd5b611d0288828901611a9e565b9250506080611d1388828901611b66565b9150509295509295909350565b6000611d2c8383611eb6565b60208301905092915050565b611d41816122f4565b82525050565b6000611d5282612167565b611d5c81856121a2565b9350611d6783612142565b8060005b83811015611d98578151611d7f8882611d20565b9750611d8a83612188565b925050600181019050611d6b565b5085935050505092915050565b6000611db082612172565b611dba81856121a2565b9350611dc583612152565b8060005b83811015611dfd57611dda82612537565b611de48882611d20565b9750611def83612195565b925050600181019050611dc9565b5085935050505092915050565b6000611e1683856121b3565b9350611e23838584612349565b611e2c8361254a565b840190509392505050565b6000611e428261217d565b611e4c81856121c4565b9350611e5c818560208601612358565b611e658161254a565b840191505092915050565b6000611e7d6019836121c4565b9150611e8882612568565b602082019050919050565b6000611ea06013836121c4565b9150611eab82612591565b602082019050919050565b611ebf81612332565b82525050565b611ece81612332565b82525050565b6000606082019050611ee96000830186611d38565b611ef66020830185611d38565b611f036040830184611ec5565b949350505050565b600060a082019050611f206000830189611d38565b8181036020830152611f328188611da5565b90508181036040830152611f468187611d47565b90508181036060830152611f5a8186611d47565b90508181036080830152611f6f818486611e0a565b9050979650505050505050565b6000604082019050611f916000830185611d38565b611f9e6020830184611ec5565b9392505050565b60006020820190508181036000830152611fbf8184611d47565b905092915050565b60006040820190508181036000830152611fe18185611da5565b90508181036020830152611ff58184611d47565b90509392505050565b600060208201905081810360008301526120188184611e37565b905092915050565b6000602082019050818103600083015261203981611e70565b9050919050565b6000602082019050818103600083015261205981611e93565b9050919050565b60006020820190506120756000830184611ec5565b92915050565b60006080820190506120906000830187611ec5565b61209d6020830186611ec5565b6120aa6040830185611ec5565b6120b76060830184611ec5565b95945050505050565b60006120ca6120db565b90506120d682826123d7565b919050565b6000604051905090565b600067ffffffffffffffff821115612100576120ff612508565b5b602082029050602081019050919050565b600067ffffffffffffffff82111561212c5761212b612508565b5b6121358261254a565b9050602081019050919050565b6000819050602082019050919050565b60008190508160005260206000209050919050565b600081519050919050565b600081549050919050565b600081519050919050565b6000602082019050919050565b6000600182019050919050565b600082825260208201905092915050565b600082825260208201905092915050565b600082825260208201905092915050565b60006121e082612332565b91506121eb83612332565b9250827fffffffffffffffffffffffffffffffffffffffffffffffffffffffffffffffff038211156122205761221f61247b565b5b828201905092915050565b600061223682612332565b915061224183612332565b925082612251576122506124aa565b5b828204905092915050565b600061226782612332565b915061227283612332565b9250817fffffffffffffffffffffffffffffffffffffffffffffffffffffffffffffffff04831182151516156122ab576122aa61247b565b5b828202905092915050565b60006122c182612332565b91506122cc83612332565b9250828210156122df576122de61247b565b5b828203905092915050565b6000819050919050565b60006122ff82612312565b9050919050565b60008115159050919050565b600073ffffffffffffffffffffffffffffffffffffffff82169050919050565b6000819050919050565b600060ff82169050919050565b82818337600083830152505050565b60005b8381101561237657808201518184015260208101905061235b565b83811115612385576000848401525b50505050565b600060028204905060018216806123a357607f821691505b602082108114156123b7576123b66124d9565b5b50919050565b60006123d06123cb8361255b565b6122ea565b9050919050565b6123e08261254a565b810181811067ffffffffffffffff821117156123ff576123fe612508565b5b80604052505050565b600061241382612332565b91507fffffffffffffffffffffffffffffffffffffffffffffffffffffffffffffffff8214156124465761244561247b565b5b600182019050919050565b600061245c8261233c565b915060ff8214156124705761246f61247b565b5b600182019050919050565b7f4e487b7100000000000000000000000000000000000000000000000000000000600052601160045260246000fd5b7f4e487b7100000000000000000000000000000000000000000000000000000000600052601260045260246000fd5b7f4e487b7100000000000000000000000000000000000000000000000000000000600052602260045260246000fd5b7f4e487b7100000000000000000000000000000000000000000000000000000000600052604160045260246000fd5b600061254382546123bd565b9050919050565b6000601f19601f8301169050919050565b60008160001c9050919050565b7f596f7520646f206e6f74206f776e2074686973205265616c6d00000000000000600082015250565b7f6e6f7420656e6f756768207265736f7563657300000000000000000000000000600082015250565b6125c3816122f4565b81146125ce57600080fd5b50565b6125da81612306565b81146125e557600080fd5b50565b6125f181612332565b81146125fc57600080fd5b50565b6126088161233c565b811461261357600080fd5b5056fea264697066735822122033616602c9d734bfea2ecff36ccb074605b2bc77efbef9c047fbbcf7f403e0e764736f6c63430008030033",
  "devdoc": {
    "kind": "dev",
    "methods": {},
    "version": 1
  },
  "userdoc": {
    "kind": "user",
    "methods": {},
    "version": 1
  },
  "storageLayout": {
    "storage": [
      {
        "astId": 492,
        "contract": "contracts/facets/StakingFacet.sol:StakingFacet",
        "label": "s",
        "offset": 0,
        "slot": "0",
        "type": "t_struct(AppStorage)2325_storage"
      }
    ],
    "types": {
      "t_address": {
        "encoding": "inplace",
        "label": "address",
        "numberOfBytes": "20"
      },
      "t_array(t_uint256)dyn_storage": {
        "base": "t_uint256",
        "encoding": "dynamic_array",
        "label": "uint256[]",
        "numberOfBytes": "32"
      },
      "t_array(t_uint8)dyn_storage": {
        "base": "t_uint8",
        "encoding": "dynamic_array",
        "label": "uint8[]",
        "numberOfBytes": "32"
      },
      "t_mapping(t_uint256,t_struct(BuildingCosts)2396_storage)": {
        "encoding": "mapping",
        "key": "t_uint256",
        "label": "mapping(uint256 => struct BuildingCosts)",
        "numberOfBytes": "32",
        "value": "t_struct(BuildingCosts)2396_storage"
      },
      "t_mapping(t_uint256,t_struct(BuildingUpgradeCosts)2405_storage)": {
        "encoding": "mapping",
        "key": "t_uint256",
        "label": "mapping(uint256 => struct BuildingUpgradeCosts)",
        "numberOfBytes": "32",
        "value": "t_struct(BuildingUpgradeCosts)2405_storage"
      },
      "t_mapping(t_uint256,t_struct(LevelProduction)2408_storage)": {
        "encoding": "mapping",
        "key": "t_uint256",
        "label": "mapping(uint256 => struct LevelProduction)",
        "numberOfBytes": "32",
        "value": "t_struct(LevelProduction)2408_storage"
      },
      "t_mapping(t_uint256,t_struct(RealmBuildings)2384_storage)": {
        "encoding": "mapping",
        "key": "t_uint256",
        "label": "mapping(uint256 => struct RealmBuildings)",
        "numberOfBytes": "32",
        "value": "t_struct(RealmBuildings)2384_storage"
      },
      "t_mapping(t_uint256,t_struct(RealmInfo)2361_storage)": {
        "encoding": "mapping",
        "key": "t_uint256",
        "label": "mapping(uint256 => struct RealmInfo)",
        "numberOfBytes": "32",
        "value": "t_struct(RealmInfo)2361_storage"
      },
      "t_mapping(t_uint256,t_struct(RealmStatistics)2334_storage)": {
        "encoding": "mapping",
        "key": "t_uint256",
        "label": "mapping(uint256 => struct RealmStatistics)",
        "numberOfBytes": "32",
        "value": "t_struct(RealmStatistics)2334_storage"
      },
      "t_mapping(t_uint256,t_struct(ResourceInfo)2368_storage)": {
        "encoding": "mapping",
        "key": "t_uint256",
        "label": "mapping(uint256 => struct ResourceInfo)",
        "numberOfBytes": "32",
        "value": "t_struct(ResourceInfo)2368_storage"
      },
      "t_mapping(t_uint256,t_struct(UpgradeCostLevels)2421_storage)": {
        "encoding": "mapping",
        "key": "t_uint256",
        "label": "mapping(uint256 => struct UpgradeCostLevels)",
        "numberOfBytes": "32",
        "value": "t_struct(UpgradeCostLevels)2421_storage"
      },
      "t_mapping(t_uint256,t_struct(UpgradeCosts)2417_storage)": {
        "encoding": "mapping",
        "key": "t_uint256",
        "label": "mapping(uint256 => struct UpgradeCosts)",
        "numberOfBytes": "32",
        "value": "t_struct(UpgradeCosts)2417_storage"
      },
      "t_string_storage": {
        "encoding": "bytes",
        "label": "string",
        "numberOfBytes": "32"
      },
      "t_struct(AppStorage)2325_storage": {
        "encoding": "inplace",
        "label": "struct AppStorage",
        "members": [
          {
            "astId": 2280,
            "contract": "contracts/facets/StakingFacet.sol:StakingFacet",
            "label": "realmInfo",
            "offset": 0,
            "slot": "0",
            "type": "t_mapping(t_uint256,t_struct(RealmInfo)2361_storage)"
          },
          {
            "astId": 2285,
            "contract": "contracts/facets/StakingFacet.sol:StakingFacet",
            "label": "realmStatistics",
            "offset": 0,
            "slot": "1",
            "type": "t_mapping(t_uint256,t_struct(RealmStatistics)2334_storage)"
          },
          {
            "astId": 2290,
            "contract": "contracts/facets/StakingFacet.sol:StakingFacet",
            "label": "realmBuildings",
            "offset": 0,
            "slot": "2",
            "type": "t_mapping(t_uint256,t_struct(RealmBuildings)2384_storage)"
          },
          {
            "astId": 2292,
            "contract": "contracts/facets/StakingFacet.sol:StakingFacet",
            "label": "baseProductionRate",
            "offset": 0,
            "slot": "3",
            "type": "t_uint8"
          },
          {
            "astId": 2294,
            "contract": "contracts/facets/StakingFacet.sol:StakingFacet",
            "label": "maxProductionRate",
            "offset": 1,
            "slot": "3",
            "type": "t_uint8"
          },
          {
            "astId": 2296,
            "contract": "contracts/facets/StakingFacet.sol:StakingFacet",
            "label": "sRealms",
            "offset": 2,
            "slot": "3",
            "type": "t_address"
          },
          {
            "astId": 2298,
            "contract": "contracts/facets/StakingFacet.sol:StakingFacet",
            "label": "realms",
            "offset": 0,
            "slot": "4",
            "type": "t_address"
          },
          {
            "astId": 2300,
            "contract": "contracts/facets/StakingFacet.sol:StakingFacet",
            "label": "treasury",
            "offset": 0,
            "slot": "5",
            "type": "t_address"
          },
          {
            "astId": 2302,
            "contract": "contracts/facets/StakingFacet.sol:StakingFacet",
            "label": "resources",
            "offset": 0,
            "slot": "6",
            "type": "t_address"
          },
          {
            "astId": 2304,
            "contract": "contracts/facets/StakingFacet.sol:StakingFacet",
            "label": "oracle",
            "offset": 0,
            "slot": "7",
            "type": "t_address"
          },
          {
            "astId": 2309,
            "contract": "contracts/facets/StakingFacet.sol:StakingFacet",
            "label": "levelProduction",
            "offset": 0,
            "slot": "8",
            "type": "t_mapping(t_uint256,t_struct(LevelProduction)2408_storage)"
          },
          {
            "astId": 2314,
            "contract": "contracts/facets/StakingFacet.sol:StakingFacet",
            "label": "upgradeCosts",
            "offset": 0,
            "slot": "9",
            "type": "t_mapping(t_uint256,t_struct(UpgradeCosts)2417_storage)"
          },
          {
            "astId": 2319,
            "contract": "contracts/facets/StakingFacet.sol:StakingFacet",
            "label": "buildingUpgradeCosts",
            "offset": 0,
            "slot": "10",
            "type": "t_mapping(t_uint256,t_struct(BuildingUpgradeCosts)2405_storage)"
          },
          {
            "astId": 2324,
            "contract": "contracts/facets/StakingFacet.sol:StakingFacet",
            "label": "buildingCosts",
            "offset": 0,
            "slot": "11",
            "type": "t_mapping(t_uint256,t_struct(BuildingCosts)2396_storage)"
          }
        ],
        "numberOfBytes": "384"
      },
      "t_struct(BuildingCosts)2396_storage": {
        "encoding": "inplace",
        "label": "struct BuildingCosts",
        "members": [
          {
            "astId": 2386,
            "contract": "contracts/facets/StakingFacet.sol:StakingFacet",
            "label": "name",
            "offset": 0,
            "slot": "0",
            "type": "t_string_storage"
          },
          {
            "astId": 2389,
            "contract": "contracts/facets/StakingFacet.sol:StakingFacet",
            "label": "resourceIds",
            "offset": 0,
            "slot": "1",
            "type": "t_array(t_uint8)dyn_storage"
          },
          {
            "astId": 2392,
            "contract": "contracts/facets/StakingFacet.sol:StakingFacet",
            "label": "resourceValues",
            "offset": 0,
            "slot": "2",
            "type": "t_array(t_uint8)dyn_storage"
          },
          {
            "astId": 2395,
            "contract": "contracts/facets/StakingFacet.sol:StakingFacet",
            "label": "requirements",
            "offset": 0,
            "slot": "3",
            "type": "t_array(t_uint8)dyn_storage"
          }
        ],
        "numberOfBytes": "128"
      },
      "t_struct(BuildingUpgradeCosts)2405_storage": {
        "encoding": "inplace",
        "label": "struct BuildingUpgradeCosts",
        "members": [
          {
            "astId": 2399,
            "contract": "contracts/facets/StakingFacet.sol:StakingFacet",
            "label": "realmBuildings",
            "offset": 0,
            "slot": "0",
            "type": "t_array(t_uint8)dyn_storage"
          },
          {
            "astId": 2404,
            "contract": "contracts/facets/StakingFacet.sol:StakingFacet",
            "label": "buildingCosts",
            "offset": 0,
            "slot": "1",
            "type": "t_mapping(t_uint256,t_struct(BuildingCosts)2396_storage)"
          }
        ],
        "numberOfBytes": "64"
      },
      "t_struct(LevelProduction)2408_storage": {
        "encoding": "inplace",
        "label": "struct LevelProduction",
        "members": [
          {
            "astId": 2407,
            "contract": "contracts/facets/StakingFacet.sol:StakingFacet",
            "label": "output",
            "offset": 0,
            "slot": "0",
            "type": "t_uint8"
          }
        ],
        "numberOfBytes": "32"
      },
      "t_struct(RealmBuildings)2384_storage": {
        "encoding": "inplace",
        "label": "struct RealmBuildings",
        "members": [
          {
            "astId": 2375,
            "contract": "contracts/facets/StakingFacet.sol:StakingFacet",
            "label": "aquaducts",
            "offset": 0,
            "slot": "0",
            "type": "t_uint8"
          },
          {
            "astId": 2377,
            "contract": "contracts/facets/StakingFacet.sol:StakingFacet",
            "label": "temples",
            "offset": 1,
            "slot": "0",
            "type": "t_uint8"
          },
          {
            "astId": 2379,
            "contract": "contracts/facets/StakingFacet.sol:StakingFacet",
            "label": "castles",
            "offset": 2,
            "slot": "0",
            "type": "t_uint8"
          },
          {
            "astId": 2381,
            "contract": "contracts/facets/StakingFacet.sol:StakingFacet",
            "label": "markets",
            "offset": 3,
            "slot": "0",
            "type": "t_uint8"
          },
          {
            "astId": 2383,
            "contract": "contracts/facets/StakingFacet.sol:StakingFacet",
            "label": "ports",
            "offset": 4,
            "slot": "0",
            "type": "t_uint8"
          }
        ],
        "numberOfBytes": "32"
      },
      "t_struct(RealmInfo)2361_storage": {
        "encoding": "inplace",
        "label": "struct RealmInfo",
        "members": [
          {
            "astId": 2336,
            "contract": "contracts/facets/StakingFacet.sol:StakingFacet",
            "label": "tokenId",
            "offset": 0,
            "slot": "0",
            "type": "t_uint256"
          },
          {
            "astId": 2338,
            "contract": "contracts/facets/StakingFacet.sol:StakingFacet",
            "label": "name",
            "offset": 0,
            "slot": "1",
            "type": "t_string_storage"
          },
          {
            "astId": 2340,
            "contract": "contracts/facets/StakingFacet.sol:StakingFacet",
            "label": "lastUpdateAt",
            "offset": 0,
            "slot": "2",
            "type": "t_uint256"
          },
          {
            "astId": 2342,
            "contract": "contracts/facets/StakingFacet.sol:StakingFacet",
            "label": "vestedTimeUpdatedAt",
            "offset": 0,
            "slot": "3",
            "type": "t_uint256"
          },
          {
            "astId": 2344,
            "contract": "contracts/facets/StakingFacet.sol:StakingFacet",
            "label": "cities",
            "offset": 0,
            "slot": "4",
            "type": "t_uint8"
          },
          {
            "astId": 2346,
            "contract": "contracts/facets/StakingFacet.sol:StakingFacet",
            "label": "harbours",
            "offset": 1,
            "slot": "4",
            "type": "t_uint8"
          },
          {
            "astId": 2348,
            "contract": "contracts/facets/StakingFacet.sol:StakingFacet",
            "label": "rivers",
            "offset": 2,
            "slot": "4",
            "type": "t_uint8"
          },
          {
            "astId": 2350,
            "contract": "contracts/facets/StakingFacet.sol:StakingFacet",
            "label": "regions",
            "offset": 3,
            "slot": "4",
            "type": "t_uint8"
          },
          {
            "astId": 2352,
            "contract": "contracts/facets/StakingFacet.sol:StakingFacet",
            "label": "wonders",
            "offset": 4,
            "slot": "4",
            "type": "t_uint8"
          },
          {
            "astId": 2355,
            "contract": "contracts/facets/StakingFacet.sol:StakingFacet",
            "label": "resourceIds",
            "offset": 0,
            "slot": "5",
            "type": "t_array(t_uint256)dyn_storage"
          },
          {
            "astId": 2360,
            "contract": "contracts/facets/StakingFacet.sol:StakingFacet",
            "label": "resourceInfo",
            "offset": 0,
            "slot": "6",
            "type": "t_mapping(t_uint256,t_struct(ResourceInfo)2368_storage)"
          }
        ],
        "numberOfBytes": "224"
      },
      "t_struct(RealmStatistics)2334_storage": {
        "encoding": "inplace",
        "label": "struct RealmStatistics",
        "members": [
          {
            "astId": 2327,
            "contract": "contracts/facets/StakingFacet.sol:StakingFacet",
            "label": "realmDefence",
            "offset": 0,
            "slot": "0",
            "type": "t_uint8"
          },
          {
            "astId": 2329,
            "contract": "contracts/facets/StakingFacet.sol:StakingFacet",
            "label": "realmOffence",
            "offset": 1,
            "slot": "0",
            "type": "t_uint8"
          },
          {
            "astId": 2331,
            "contract": "contracts/facets/StakingFacet.sol:StakingFacet",
            "label": "realmMagic",
            "offset": 2,
            "slot": "0",
            "type": "t_uint8"
          },
          {
            "astId": 2333,
            "contract": "contracts/facets/StakingFacet.sol:StakingFacet",
            "label": "foodSupply",
            "offset": 3,
            "slot": "0",
            "type": "t_uint8"
          }
        ],
        "numberOfBytes": "32"
      },
      "t_struct(ResourceInfo)2368_storage": {
        "encoding": "inplace",
        "label": "struct ResourceInfo",
        "members": [
          {
            "astId": 2363,
            "contract": "contracts/facets/StakingFacet.sol:StakingFacet",
            "label": "id",
            "offset": 0,
            "slot": "0",
            "type": "t_uint8"
          },
          {
            "astId": 2365,
            "contract": "contracts/facets/StakingFacet.sol:StakingFacet",
            "label": "level",
            "offset": 1,
            "slot": "0",
            "type": "t_uint8"
          },
          {
            "astId": 2367,
            "contract": "contracts/facets/StakingFacet.sol:StakingFacet",
            "label": "production",
            "offset": 2,
            "slot": "0",
            "type": "t_uint8"
          }
        ],
        "numberOfBytes": "32"
      },
      "t_struct(UpgradeCostLevels)2421_storage": {
        "encoding": "inplace",
        "label": "struct UpgradeCostLevels",
        "members": [
          {
            "astId": 2420,
            "contract": "contracts/facets/StakingFacet.sol:StakingFacet",
            "label": "value",
            "offset": 0,
            "slot": "0",
            "type": "t_array(t_uint256)dyn_storage"
          }
        ],
        "numberOfBytes": "32"
      },
      "t_struct(UpgradeCosts)2417_storage": {
        "encoding": "inplace",
        "label": "struct UpgradeCosts",
        "members": [
          {
            "astId": 2411,
            "contract": "contracts/facets/StakingFacet.sol:StakingFacet",
            "label": "resourceIds",
            "offset": 0,
            "slot": "0",
            "type": "t_array(t_uint8)dyn_storage"
          },
          {
            "astId": 2416,
            "contract": "contracts/facets/StakingFacet.sol:StakingFacet",
            "label": "upgradeCostLevels",
            "offset": 0,
            "slot": "1",
            "type": "t_mapping(t_uint256,t_struct(UpgradeCostLevels)2421_storage)"
          }
        ],
        "numberOfBytes": "64"
      },
      "t_uint256": {
        "encoding": "inplace",
        "label": "uint256",
        "numberOfBytes": "32"
      },
      "t_uint8": {
        "encoding": "inplace",
        "label": "uint8",
        "numberOfBytes": "1"
      }
    }
  }
}