{
  "address": "0x32Ed2C734057d77F9C3b1D1E167F7D9b3a623Ddd",
  "abi": [
    {
      "inputs": [],
      "stateMutability": "nonpayable",
      "type": "constructor"
    },
    {
      "anonymous": false,
      "inputs": [
        {
          "indexed": true,
          "internalType": "address",
          "name": "owner",
          "type": "address"
        },
        {
          "indexed": true,
          "internalType": "address",
          "name": "spender",
          "type": "address"
        },
        {
          "indexed": false,
          "internalType": "uint256",
          "name": "value",
          "type": "uint256"
        }
      ],
      "name": "Approval",
      "type": "event"
    },
    {
      "anonymous": false,
      "inputs": [
        {
          "indexed": true,
          "internalType": "address",
          "name": "previousOwner",
          "type": "address"
        },
        {
          "indexed": true,
          "internalType": "address",
          "name": "newOwner",
          "type": "address"
        }
      ],
      "name": "OwnershipTransferred",
      "type": "event"
    },
    {
      "anonymous": false,
      "inputs": [
        {
          "indexed": false,
          "internalType": "address",
          "name": "account",
          "type": "address"
        }
      ],
      "name": "Paused",
      "type": "event"
    },
    {
      "anonymous": false,
      "inputs": [
        {
          "indexed": false,
          "internalType": "uint256",
          "name": "id",
          "type": "uint256"
        }
      ],
      "name": "Snapshot",
      "type": "event"
    },
    {
      "anonymous": false,
      "inputs": [
        {
          "indexed": true,
          "internalType": "address",
          "name": "from",
          "type": "address"
        },
        {
          "indexed": true,
          "internalType": "address",
          "name": "to",
          "type": "address"
        },
        {
          "indexed": false,
          "internalType": "uint256",
          "name": "value",
          "type": "uint256"
        }
      ],
      "name": "Transfer",
      "type": "event"
    },
    {
      "anonymous": false,
      "inputs": [
        {
          "indexed": false,
          "internalType": "address",
          "name": "account",
          "type": "address"
        }
      ],
      "name": "Unpaused",
      "type": "event"
    },
    {
      "inputs": [
        {
          "internalType": "address",
          "name": "owner",
          "type": "address"
        },
        {
          "internalType": "address",
          "name": "spender",
          "type": "address"
        }
      ],
      "name": "allowance",
      "outputs": [
        {
          "internalType": "uint256",
          "name": "",
          "type": "uint256"
        }
      ],
      "stateMutability": "view",
      "type": "function"
    },
    {
      "inputs": [
        {
          "internalType": "address",
          "name": "spender",
          "type": "address"
        },
        {
          "internalType": "uint256",
          "name": "amount",
          "type": "uint256"
        }
      ],
      "name": "approve",
      "outputs": [
        {
          "internalType": "bool",
          "name": "",
          "type": "bool"
        }
      ],
      "stateMutability": "nonpayable",
      "type": "function"
    },
    {
      "inputs": [
        {
          "internalType": "address",
          "name": "account",
          "type": "address"
        }
      ],
      "name": "balanceOf",
      "outputs": [
        {
          "internalType": "uint256",
          "name": "",
          "type": "uint256"
        }
      ],
      "stateMutability": "view",
      "type": "function"
    },
    {
      "inputs": [
        {
          "internalType": "address",
          "name": "account",
          "type": "address"
        },
        {
          "internalType": "uint256",
          "name": "snapshotId",
          "type": "uint256"
        }
      ],
      "name": "balanceOfAt",
      "outputs": [
        {
          "internalType": "uint256",
          "name": "",
          "type": "uint256"
        }
      ],
      "stateMutability": "view",
      "type": "function"
    },
    {
      "inputs": [
        {
          "internalType": "uint256",
          "name": "amount",
          "type": "uint256"
        }
      ],
      "name": "burn",
      "outputs": [],
      "stateMutability": "nonpayable",
      "type": "function"
    },
    {
      "inputs": [
        {
          "internalType": "address",
          "name": "account",
          "type": "address"
        },
        {
          "internalType": "uint256",
          "name": "amount",
          "type": "uint256"
        }
      ],
      "name": "burnFrom",
      "outputs": [],
      "stateMutability": "nonpayable",
      "type": "function"
    },
    {
      "inputs": [
        {
          "internalType": "address",
          "name": "_newDiamond",
          "type": "address"
        }
      ],
      "name": "changeDiamondAddress",
      "outputs": [],
      "stateMutability": "nonpayable",
      "type": "function"
    },
    {
      "inputs": [],
      "name": "decimals",
      "outputs": [
        {
          "internalType": "uint8",
          "name": "",
          "type": "uint8"
        }
      ],
      "stateMutability": "view",
      "type": "function"
    },
    {
      "inputs": [
        {
          "internalType": "address",
          "name": "spender",
          "type": "address"
        },
        {
          "internalType": "uint256",
          "name": "subtractedValue",
          "type": "uint256"
        }
      ],
      "name": "decreaseAllowance",
      "outputs": [
        {
          "internalType": "bool",
          "name": "",
          "type": "bool"
        }
      ],
      "stateMutability": "nonpayable",
      "type": "function"
    },
    {
      "inputs": [
        {
          "internalType": "uint256",
          "name": "_age",
          "type": "uint256"
        }
      ],
      "name": "getAgeDistribution",
      "outputs": [
        {
          "internalType": "uint256",
          "name": "_distribution",
          "type": "uint256"
        }
      ],
      "stateMutability": "view",
      "type": "function"
    },
    {
      "inputs": [
        {
          "internalType": "address",
          "name": "spender",
          "type": "address"
        },
        {
          "internalType": "uint256",
          "name": "addedValue",
          "type": "uint256"
        }
      ],
      "name": "increaseAllowance",
      "outputs": [
        {
          "internalType": "bool",
          "name": "",
          "type": "bool"
        }
      ],
      "stateMutability": "nonpayable",
      "type": "function"
    },
    {
      "inputs": [
        {
          "internalType": "address",
          "name": "to",
          "type": "address"
        },
        {
          "internalType": "uint256",
          "name": "amount",
          "type": "uint256"
        }
      ],
      "name": "mint",
      "outputs": [],
      "stateMutability": "nonpayable",
      "type": "function"
    },
    {
      "inputs": [],
      "name": "name",
      "outputs": [
        {
          "internalType": "string",
          "name": "",
          "type": "string"
        }
      ],
      "stateMutability": "view",
      "type": "function"
    },
    {
      "inputs": [],
      "name": "owner",
      "outputs": [
        {
          "internalType": "address",
          "name": "",
          "type": "address"
        }
      ],
      "stateMutability": "view",
      "type": "function"
    },
    {
      "inputs": [],
      "name": "pause",
      "outputs": [],
      "stateMutability": "nonpayable",
      "type": "function"
    },
    {
      "inputs": [],
      "name": "paused",
      "outputs": [
        {
          "internalType": "bool",
          "name": "",
          "type": "bool"
        }
      ],
      "stateMutability": "view",
      "type": "function"
    },
    {
      "inputs": [],
      "name": "renounceOwnership",
      "outputs": [],
      "stateMutability": "nonpayable",
      "type": "function"
    },
    {
      "inputs": [],
      "name": "snapshot",
      "outputs": [],
      "stateMutability": "nonpayable",
      "type": "function"
    },
    {
      "inputs": [],
      "name": "symbol",
      "outputs": [
        {
          "internalType": "string",
          "name": "",
          "type": "string"
        }
      ],
      "stateMutability": "view",
      "type": "function"
    },
    {
      "inputs": [],
      "name": "totalSupply",
      "outputs": [
        {
          "internalType": "uint256",
          "name": "",
          "type": "uint256"
        }
      ],
      "stateMutability": "view",
      "type": "function"
    },
    {
      "inputs": [
        {
          "internalType": "uint256",
          "name": "snapshotId",
          "type": "uint256"
        }
      ],
      "name": "totalSupplyAt",
      "outputs": [
        {
          "internalType": "uint256",
          "name": "",
          "type": "uint256"
        }
      ],
      "stateMutability": "view",
      "type": "function"
    },
    {
      "inputs": [
        {
          "internalType": "address",
          "name": "recipient",
          "type": "address"
        },
        {
          "internalType": "uint256",
          "name": "amount",
          "type": "uint256"
        }
      ],
      "name": "transfer",
      "outputs": [
        {
          "internalType": "bool",
          "name": "",
          "type": "bool"
        }
      ],
      "stateMutability": "nonpayable",
      "type": "function"
    },
    {
      "inputs": [
        {
          "internalType": "address",
          "name": "sender",
          "type": "address"
        },
        {
          "internalType": "address",
          "name": "recipient",
          "type": "address"
        },
        {
          "internalType": "uint256",
          "name": "amount",
          "type": "uint256"
        }
      ],
      "name": "transferFrom",
      "outputs": [
        {
          "internalType": "bool",
          "name": "",
          "type": "bool"
        }
      ],
      "stateMutability": "nonpayable",
      "type": "function"
    },
    {
      "inputs": [
        {
          "internalType": "address",
          "name": "newOwner",
          "type": "address"
        }
      ],
      "name": "transferOwnership",
      "outputs": [],
      "stateMutability": "nonpayable",
      "type": "function"
    },
    {
      "inputs": [],
      "name": "unpause",
      "outputs": [],
      "stateMutability": "nonpayable",
      "type": "function"
    }
  ],
  "transactionHash": "0x9c6f80a2a66d6915503bb0bcfcec2662fe3f6760b1d458bb69bac74ef62b7816",
  "args": [],
  "solcInputHash": "47f9f163ef14ee68bb159ad7e52469ae",
  "bytecode": "0x608060405260405180610d200160405280693047e90209b2a40a000069ffffffffffffffffffff168152602001692f4f91796767e60c000069ffffffffffffffffffff168152602001692e5c2a34fc720624000069ffffffffffffffffffff168152602001692d6db1d18358a6c8000069ffffffffffffffffffff168152602001692c83feacd800d1cc000069ffffffffffffffffffff168152602001692b9f02e643b6dfcc000069ffffffffffffffffffff168152602001692abea2bc59138200000069ffffffffffffffffffff1681526020016929e2b48cf3fbc23c000069ffffffffffffffffffff16815260200169290b4638cb2347e4000069ffffffffffffffffffff168152602001692838203d03bb7568000069ffffffffffffffffffff16815260200169276942999dc44ac8000069ffffffffffffffffffff16815260200169269e83ac7522d1d8000069ffffffffffffffffffff1681526020016925d7d594d3236334000069ffffffffffffffffffff1681526020016925152a7201125778000069ffffffffffffffffffff168152602001692456668291885fdc000069ffffffffffffffffffff16815260200169239b7be5cdd1d4fc000069ffffffffffffffffffff1681526020016922e44eda48876810000069ffffffffffffffffffff168152602001692230d17f4af571b4000069ffffffffffffffffffff168152602001692180f5f41e684a84000069ffffffffffffffffffff1681526020016920d492969ec4fc54000069ffffffffffffffffffff16815260200169202bb54782bf2e88000069ffffffffffffffffffff168152602001691f863464a63beaf4000069ffffffffffffffffffff168152602001691ee40fee093b3198000069ffffffffffffffffffff168152602001691e452c223e55b3ac000069ffffffffffffffffffff168152602001691da96d3fd8242268000069ffffffffffffffffffff168152602001691d10e1278d5a2530000069ffffffffffffffffffff168152602001691c7b505683291e74000069ffffffffffffffffffff168152602001691be8d68e26f85cfc000069ffffffffffffffffffff168152602001691b593c4b9df94338000069ffffffffffffffffffff168152602001691acc8f6f9edf788c000069ffffffffffffffffffff168152602001691a42b438bc43ae30000069ffffffffffffffffffff1681526020016919bb9cc63f723cc0000069ffffffffffffffffffff1681526020016919373b3771b77cd8000069ffffffffffffffffffff1681526020016918b581ab9c5fc714000069ffffffffffffffffffff1681526020016918367022bf6b1b74000069ffffffffffffffffffff1681526020016917b9dcfab6be83cc000069ffffffffffffffffffff16815260200169173fd614390da780000069ffffffffffffffffffff1681526020016916c83fadd8f137c8000069ffffffffffffffffffff1681526020016916530be6dfb58d40000069ffffffffffffffffffff1681526020016915e02cde96a70084000069ffffffffffffffffffff16815260200169156fa294fdc59194000069ffffffffffffffffffff16815260200169150163532ec6b1aa000069ffffffffffffffffffff168152602001691495561e4733cd12000069ffffffffffffffffffff16815260200169142b7405ebb3101a000069ffffffffffffffffffff1681526020016913c3b1eff0818e72000069ffffffffffffffffffff16815260200169135e06256f54b954000069ffffffffffffffffffff1681526020016912fa658c3c69a470000069ffffffffffffffffffff168152602001691298c50a2bfd6376000069ffffffffffffffffffff1681526020016912391ae857c567a0000069ffffffffffffffffffff1681526020016911db5d6fd9772228000069ffffffffffffffffffff16815260200169117f8186854fa6be000069ffffffffffffffffffff1681526020016911257ed8ba7cc426000069ffffffffffffffffffff1681526020016910cd4a4c4d3b8e10000069ffffffffffffffffffff168152602001691076db8d9cb9d340000069ffffffffffffffffffff1681526020016910222a490825627a000069ffffffffffffffffffff168152602001690fcf2cc7a933acf8000069ffffffffffffffffffff168152602001690f7dd952999a23f4000069ffffffffffffffffffff168152602001690f2e279638869632000069ffffffffffffffffffff168152602001690ee010a22a9f3000000069ffffffffffffffffffff168152602001690e938c22cf11c022000069ffffffffffffffffffff168152602001690e4890613f93b7d2000069ffffffffffffffffffff168152602001690dff166d20cb435e000069ffffffffffffffffffff168152602001690db71756175e8f14000069ffffffffffffffffffff168152602001690d7089653d030c2e000069ffffffffffffffffffff168152602001690d2b670d7bd74484000069ffffffffffffffffffff168152602001690ce7a7fb330906da000069ffffffffffffffffffff168152602001690ca5453e073e7f7e000069ffffffffffffffffffff168152602001690c6437e59d1ddabe000069ffffffffffffffffffff168152602001690c247a64dec5a272000069ffffffffffffffffffff168152602001690be60304e5eb47d4000069ffffffffffffffffffff168152602001690ba8ceff279e0fd0000069ffffffffffffffffffff168152602001690b6cd49cbd936ba0000069ffffffffffffffffffff168152602001690b320e5091e9e51c000069ffffffffffffffffffff168152602001690af8768d8ec0061c000069ffffffffffffffffffff168152602001690ac007c69e345878000069ffffffffffffffffffff168152602001690a88bb0b64ed087e000069ffffffffffffffffffff168152602001690a528acecd08a006000069ffffffffffffffffffff168152602001690a1d7183c0a5a8e8000069ffffffffffffffffffff1681526020016909e96839e46a4f72000069ffffffffffffffffffff1681526020016909b66c2aad65d890000069ffffffffffffffffffff16815260200169098475027ac61306000069ffffffffffffffffffff1681526020016909537ffac19a43c0000069ffffffffffffffffffff16815260200169092386232688970c000069ffffffffffffffffffff1681526020016908f48351d927f44c000069ffffffffffffffffffff1681526020016908c671f9c396e558000069ffffffffffffffffffff1681526020016908994df1156c5192000069ffffffffffffffffffff16815260200169086d130dfe3f205c000069ffffffffffffffffffff168152602001690841ba6022b57e04000069ffffffffffffffffffff1681526020016908174120f7deaf76000069ffffffffffffffffffff1681526020016907eda1c367d93e8a000069ffffffffffffffffffff1681526020016907c4d980e7b4702c000069ffffffffffffffffffff16815260200169079ce2cc618ece34000069ffffffffffffffffffff168152602001690775b97c04ff4004000069ffffffffffffffffffff16815260200169074f5966019cacfe000069ffffffffffffffffffff168152602001690729bfc3cc765a0e000069ffffffffffffffffffff168152602001690704e5a50a327382000069ffffffffffffffffffff1681526020016906e0cb09bad0f95a000069ffffffffffffffffffff1681526020016906bd690182f817e4000069ffffffffffffffffffff16815260200169069abcc5d7b7140c000069ffffffffffffffffffff168152602001690678c3902e1d32be000069ffffffffffffffffffff1681526020016906577936b5c15b5c000069ffffffffffffffffffff168152602001690636d98f9e3a7548000069ffffffffffffffffffff168152602001690616e1d45c97c56e000069ffffffffffffffffffff1681526020016905f78f3e65e890ba000069ffffffffffffffffffff1681526020016905d8dda3e9c3be8e000069ffffffffffffffffffff16815250600b90606962000b9c92919062000d5a565b5034801562000baa57600080fd5b506040518060400160405280600581526020017f4c6f7264730000000000000000000000000000000000000000000000000000008152506040518060400160405280600581526020017f4c4f524453000000000000000000000000000000000000000000000000000000815250816003908051906020019062000c2f92919062000dba565b50806004908051906020019062000c4892919062000dba565b50505062000c6b62000c5f62000c8c60201b60201c565b62000c9460201b60201c565b6000600960146101000a81548160ff02191690831515021790555062000ecf565b600033905090565b6000600960009054906101000a900473ffffffffffffffffffffffffffffffffffffffff16905081600960006101000a81548173ffffffffffffffffffffffffffffffffffffffff021916908373ffffffffffffffffffffffffffffffffffffffff1602179055508173ffffffffffffffffffffffffffffffffffffffff168173ffffffffffffffffffffffffffffffffffffffff167f8be0079c531659141344cd1fd0a4f28419497f9722a3daafe3b4186f6b6457e060405160405180910390a35050565b82805482825590600052602060002090810192821562000da7579160200282015b8281111562000da6578251829069ffffffffffffffffffff1690559160200191906001019062000d7b565b5b50905062000db6919062000e4b565b5090565b82805462000dc89062000e6a565b90600052602060002090601f01602090048101928262000dec576000855562000e38565b82601f1062000e0757805160ff191683800117855562000e38565b8280016001018555821562000e38579182015b8281111562000e3757825182559160200191906001019062000e1a565b5b50905062000e47919062000e4b565b5090565b5b8082111562000e6657600081600090555060010162000e4c565b5090565b6000600282049050600182168062000e8357607f821691505b6020821081141562000e9a5762000e9962000ea0565b5b50919050565b7f4e487b7100000000000000000000000000000000000000000000000000000000600052602260045260246000fd5b612d0b8062000edf6000396000f3fe608060405234801561001057600080fd5b50600436106101735760003560e01c806370a08231116100de57806395d89b4111610097578063a457c2d711610071578063a457c2d714610414578063a9059cbb14610444578063dd62ed3e14610474578063f2fde38b146104a457610173565b806395d89b41146103bc5780639711715a146103da578063981b24d0146103e457610173565b806370a0823114610322578063715018a614610352578063741b19211461035c57806379cc6790146103785780638456cb59146103945780638da5cb5b1461039e57610173565b80633f4ba83a116101305780633f4ba83a1461026257806340c10f191461026c57806342966c68146102885780634ee2cd7e146102a45780635c975abb146102d45780636049585f146102f257610173565b806306fdde0314610178578063095ea7b31461019657806318160ddd146101c657806323b872dd146101e4578063313ce567146102145780633950935114610232575b600080fd5b6101806104c0565b60405161018d919061235c565b60405180910390f35b6101b060048036038101906101ab9190611fd6565b610552565b6040516101bd9190612341565b60405180910390f35b6101ce610570565b6040516101db91906125be565b60405180910390f35b6101fe60048036038101906101f99190611f87565b61057a565b60405161020b9190612341565b60405180910390f35b61021c610672565b60405161022991906125d9565b60405180910390f35b61024c60048036038101906102479190611fd6565b61067b565b6040516102599190612341565b60405180910390f35b61026a610727565b005b61028660048036038101906102819190611fd6565b6107ad565b005b6102a2600480360381019061029d9190612012565b610888565b005b6102be60048036038101906102b99190611fd6565b61089c565b6040516102cb91906125be565b60405180910390f35b6102dc61090c565b6040516102e99190612341565b60405180910390f35b61030c60048036038101906103079190612012565b610923565b60405161031991906125be565b60405180910390f35b61033c60048036038101906103379190611f22565b610971565b60405161034991906125be565b60405180910390f35b61035a6109b9565b005b61037660048036038101906103719190611f22565b610a41565b005b610392600480360381019061038d9190611fd6565b610b01565b005b61039c610b7c565b005b6103a6610c02565b6040516103b39190612326565b60405180910390f35b6103c4610c2c565b6040516103d1919061235c565b60405180910390f35b6103e2610cbe565b005b6103fe60048036038101906103f99190612012565b610d45565b60405161040b91906125be565b60405180910390f35b61042e60048036038101906104299190611fd6565b610d76565b60405161043b9190612341565b60405180910390f35b61045e60048036038101906104599190611fd6565b610e61565b60405161046b9190612341565b60405180910390f35b61048e60048036038101906104899190611f4b565b610e7f565b60405161049b91906125be565b60405180910390f35b6104be60048036038101906104b99190611f22565b610f06565b005b6060600380546104cf90612753565b80601f01602080910402602001604051908101604052809291908181526020018280546104fb90612753565b80156105485780601f1061051d57610100808354040283529160200191610548565b820191906000526020600020905b81548152906001019060200180831161052b57829003601f168201915b5050505050905090565b600061056661055f610ffe565b8484611006565b6001905092915050565b6000600254905090565b60006105878484846111d1565b6000600160008673ffffffffffffffffffffffffffffffffffffffff1673ffffffffffffffffffffffffffffffffffffffff16815260200190815260200160002060006105d2610ffe565b73ffffffffffffffffffffffffffffffffffffffff1673ffffffffffffffffffffffffffffffffffffffff16815260200190815260200160002054905082811015610652576040517f08c379a00000000000000000000000000000000000000000000000000000000081526004016106499061247e565b60405180910390fd5b6106668561065e610ffe565b858403611006565b60019150509392505050565b60006012905090565b600061071d610688610ffe565b848460016000610696610ffe565b73ffffffffffffffffffffffffffffffffffffffff1673ffffffffffffffffffffffffffffffffffffffff16815260200190815260200160002060008873ffffffffffffffffffffffffffffffffffffffff1673ffffffffffffffffffffffffffffffffffffffff168152602001908152602001600020546107189190612610565b611006565b6001905092915050565b61072f610ffe565b73ffffffffffffffffffffffffffffffffffffffff1661074d610c02565b73ffffffffffffffffffffffffffffffffffffffff16146107a3576040517f08c379a000000000000000000000000000000000000000000000000000000000815260040161079a9061249e565b60405180910390fd5b6107ab611452565b565b6107b5610c02565b73ffffffffffffffffffffffffffffffffffffffff163373ffffffffffffffffffffffffffffffffffffffff16148061083b5750600a60009054906101000a900473ffffffffffffffffffffffffffffffffffffffff1673ffffffffffffffffffffffffffffffffffffffff163373ffffffffffffffffffffffffffffffffffffffff16145b61087a576040517f08c379a00000000000000000000000000000000000000000000000000000000081526004016108719061255e565b60405180910390fd5b61088482826114f4565b5050565b610899610893610ffe565b82611654565b50565b60008060006108e984600560008873ffffffffffffffffffffffffffffffffffffffff1673ffffffffffffffffffffffffffffffffffffffff16815260200190815260200160002061182b565b9150915081610900576108fb85610971565b610902565b805b9250505092915050565b6000600960149054906101000a900460ff16905090565b6000600b828154811061095f577f4e487b7100000000000000000000000000000000000000000000000000000000600052603260045260246000fd5b90600052602060002001549050919050565b60008060008373ffffffffffffffffffffffffffffffffffffffff1673ffffffffffffffffffffffffffffffffffffffff168152602001908152602001600020549050919050565b6109c1610ffe565b73ffffffffffffffffffffffffffffffffffffffff166109df610c02565b73ffffffffffffffffffffffffffffffffffffffff1614610a35576040517f08c379a0000000000000000000000000000000000000000000000000000000008152600401610a2c9061249e565b60405180910390fd5b610a3f6000611947565b565b610a49610ffe565b73ffffffffffffffffffffffffffffffffffffffff16610a67610c02565b73ffffffffffffffffffffffffffffffffffffffff1614610abd576040517f08c379a0000000000000000000000000000000000000000000000000000000008152600401610ab49061249e565b60405180910390fd5b80600a60006101000a81548173ffffffffffffffffffffffffffffffffffffffff021916908373ffffffffffffffffffffffffffffffffffffffff16021790555050565b6000610b1483610b0f610ffe565b610e7f565b905081811015610b59576040517f08c379a0000000000000000000000000000000000000000000000000000000008152600401610b50906124be565b60405180910390fd5b610b6d83610b65610ffe565b848403611006565b610b778383611654565b505050565b610b84610ffe565b73ffffffffffffffffffffffffffffffffffffffff16610ba2610c02565b73ffffffffffffffffffffffffffffffffffffffff1614610bf8576040517f08c379a0000000000000000000000000000000000000000000000000000000008152600401610bef9061249e565b60405180910390fd5b610c00611a0d565b565b6000600960009054906101000a900473ffffffffffffffffffffffffffffffffffffffff16905090565b606060048054610c3b90612753565b80601f0160208091040260200160405190810160405280929190818152602001828054610c6790612753565b8015610cb45780601f10610c8957610100808354040283529160200191610cb4565b820191906000526020600020905b815481529060010190602001808311610c9757829003601f168201915b5050505050905090565b610cc6610ffe565b73ffffffffffffffffffffffffffffffffffffffff16610ce4610c02565b73ffffffffffffffffffffffffffffffffffffffff1614610d3a576040517f08c379a0000000000000000000000000000000000000000000000000000000008152600401610d319061249e565b60405180910390fd5b610d42611ab0565b50565b6000806000610d5584600661182b565b9150915081610d6b57610d66610570565b610d6d565b805b92505050919050565b60008060016000610d85610ffe565b73ffffffffffffffffffffffffffffffffffffffff1673ffffffffffffffffffffffffffffffffffffffff16815260200190815260200160002060008573ffffffffffffffffffffffffffffffffffffffff1673ffffffffffffffffffffffffffffffffffffffff16815260200190815260200160002054905082811015610e42576040517f08c379a0000000000000000000000000000000000000000000000000000000008152600401610e399061257e565b60405180910390fd5b610e56610e4d610ffe565b85858403611006565b600191505092915050565b6000610e75610e6e610ffe565b84846111d1565b6001905092915050565b6000600160008473ffffffffffffffffffffffffffffffffffffffff1673ffffffffffffffffffffffffffffffffffffffff16815260200190815260200160002060008373ffffffffffffffffffffffffffffffffffffffff1673ffffffffffffffffffffffffffffffffffffffff16815260200190815260200160002054905092915050565b610f0e610ffe565b73ffffffffffffffffffffffffffffffffffffffff16610f2c610c02565b73ffffffffffffffffffffffffffffffffffffffff1614610f82576040517f08c379a0000000000000000000000000000000000000000000000000000000008152600401610f799061249e565b60405180910390fd5b600073ffffffffffffffffffffffffffffffffffffffff168173ffffffffffffffffffffffffffffffffffffffff161415610ff2576040517f08c379a0000000000000000000000000000000000000000000000000000000008152600401610fe9906123fe565b60405180910390fd5b610ffb81611947565b50565b600033905090565b600073ffffffffffffffffffffffffffffffffffffffff168373ffffffffffffffffffffffffffffffffffffffff161415611076576040517f08c379a000000000000000000000000000000000000000000000000000000000815260040161106d9061251e565b60405180910390fd5b600073ffffffffffffffffffffffffffffffffffffffff168273ffffffffffffffffffffffffffffffffffffffff1614156110e6576040517f08c379a00000000000000000000000000000000000000000000000000000000081526004016110dd9061241e565b60405180910390fd5b80600160008573ffffffffffffffffffffffffffffffffffffffff1673ffffffffffffffffffffffffffffffffffffffff16815260200190815260200160002060008473ffffffffffffffffffffffffffffffffffffffff1673ffffffffffffffffffffffffffffffffffffffff168152602001908152602001600020819055508173ffffffffffffffffffffffffffffffffffffffff168373ffffffffffffffffffffffffffffffffffffffff167f8c5be1e5ebec7d5bd14f71427d1e84f3dd0314c0f7b2291e5b200ac8c7c3b925836040516111c491906125be565b60405180910390a3505050565b600073ffffffffffffffffffffffffffffffffffffffff168373ffffffffffffffffffffffffffffffffffffffff161415611241576040517f08c379a0000000000000000000000000000000000000000000000000000000008152600401611238906124fe565b60405180910390fd5b600073ffffffffffffffffffffffffffffffffffffffff168273ffffffffffffffffffffffffffffffffffffffff1614156112b1576040517f08c379a00000000000000000000000000000000000000000000000000000000081526004016112a89061239e565b60405180910390fd5b6112bc838383611b06565b60008060008573ffffffffffffffffffffffffffffffffffffffff1673ffffffffffffffffffffffffffffffffffffffff16815260200190815260200160002054905081811015611342576040517f08c379a00000000000000000000000000000000000000000000000000000000081526004016113399061243e565b60405180910390fd5b8181036000808673ffffffffffffffffffffffffffffffffffffffff1673ffffffffffffffffffffffffffffffffffffffff16815260200190815260200160002081905550816000808573ffffffffffffffffffffffffffffffffffffffff1673ffffffffffffffffffffffffffffffffffffffff16815260200190815260200160002060008282546113d59190612610565b925050819055508273ffffffffffffffffffffffffffffffffffffffff168473ffffffffffffffffffffffffffffffffffffffff167fddf252ad1be2c89b69c2b068fc378daa952ba7f163c4a11628f55a4df523b3ef8460405161143991906125be565b60405180910390a361144c848484611b5e565b50505050565b61145a61090c565b611499576040517f08c379a0000000000000000000000000000000000000000000000000000000008152600401611490906123be565b60405180910390fd5b6000600960146101000a81548160ff0219169083151502179055507f5db9ee0a495bf2e6ff9c91a7834c1ba4fdd244a5e8aa4e537bd38aeae4b073aa6114dd610ffe565b6040516114ea9190612326565b60405180910390a1565b600073ffffffffffffffffffffffffffffffffffffffff168273ffffffffffffffffffffffffffffffffffffffff161415611564576040517f08c379a000000000000000000000000000000000000000000000000000000000815260040161155b9061259e565b60405180910390fd5b61157060008383611b06565b80600260008282546115829190612610565b92505081905550806000808473ffffffffffffffffffffffffffffffffffffffff1673ffffffffffffffffffffffffffffffffffffffff16815260200190815260200160002060008282546115d79190612610565b925050819055508173ffffffffffffffffffffffffffffffffffffffff16600073ffffffffffffffffffffffffffffffffffffffff167fddf252ad1be2c89b69c2b068fc378daa952ba7f163c4a11628f55a4df523b3ef8360405161163c91906125be565b60405180910390a361165060008383611b5e565b5050565b600073ffffffffffffffffffffffffffffffffffffffff168273ffffffffffffffffffffffffffffffffffffffff1614156116c4576040517f08c379a00000000000000000000000000000000000000000000000000000000081526004016116bb906124de565b60405180910390fd5b6116d082600083611b06565b60008060008473ffffffffffffffffffffffffffffffffffffffff1673ffffffffffffffffffffffffffffffffffffffff16815260200190815260200160002054905081811015611756576040517f08c379a000000000000000000000000000000000000000000000000000000000815260040161174d906123de565b60405180910390fd5b8181036000808573ffffffffffffffffffffffffffffffffffffffff1673ffffffffffffffffffffffffffffffffffffffff1681526020019081526020016000208190555081600260008282546117ad9190612697565b92505081905550600073ffffffffffffffffffffffffffffffffffffffff168373ffffffffffffffffffffffffffffffffffffffff167fddf252ad1be2c89b69c2b068fc378daa952ba7f163c4a11628f55a4df523b3ef8460405161181291906125be565b60405180910390a361182683600084611b5e565b505050565b60008060008411611871576040517f08c379a00000000000000000000000000000000000000000000000000000000081526004016118689061253e565b60405180910390fd5b611879611b63565b8411156118bb576040517f08c379a00000000000000000000000000000000000000000000000000000000081526004016118b29061237e565b60405180910390fd5b60006118d38585600001611b7490919063ffffffff16565b905083600001805490508114156118f1576000809250925050611940565b600184600101828154811061192f577f4e487b7100000000000000000000000000000000000000000000000000000000600052603260045260246000fd5b906000526020600020015492509250505b9250929050565b6000600960009054906101000a900473ffffffffffffffffffffffffffffffffffffffff16905081600960006101000a81548173ffffffffffffffffffffffffffffffffffffffff021916908373ffffffffffffffffffffffffffffffffffffffff1602179055508173ffffffffffffffffffffffffffffffffffffffff168173ffffffffffffffffffffffffffffffffffffffff167f8be0079c531659141344cd1fd0a4f28419497f9722a3daafe3b4186f6b6457e060405160405180910390a35050565b611a1561090c565b15611a55576040517f08c379a0000000000000000000000000000000000000000000000000000000008152600401611a4c9061245e565b60405180910390fd5b6001600960146101000a81548160ff0219169083151502179055507f62e78cea01bee320cd4e420270b5ea74000d11b0c9f74754ebdbfc544b05a258611a99610ffe565b604051611aa69190612326565b60405180910390a1565b6000611abc6008611c9a565b6000611ac6611b63565b90507f8030e83b04d87bef53480e26263266d6ca66863aa8506aca6f2559d18aa1cb6781604051611af791906125be565b60405180910390a18091505090565b611b0e61090c565b15611b4e576040517f08c379a0000000000000000000000000000000000000000000000000000000008152600401611b459061245e565b60405180910390fd5b611b59838383611cb0565b505050565b505050565b6000611b6f6008611d6a565b905090565b60008083805490501415611b8b5760009050611c94565b600080848054905090505b80821015611c15576000611baa8383611d78565b905084868281548110611be6577f4e487b7100000000000000000000000000000000000000000000000000000000600052603260045260246000fd5b90600052602060002001541115611bff57809150611c0f565b600181611c0c9190612610565b92505b50611b96565b600082118015611c7357508385600184611c2f9190612697565b81548110611c66577f4e487b7100000000000000000000000000000000000000000000000000000000600052603260045260246000fd5b9060005260206000200154145b15611c8e57600182611c859190612697565b92505050611c94565b81925050505b92915050565b6001816000016000828254019250508190555050565b611cbb838383611d9e565b600073ffffffffffffffffffffffffffffffffffffffff168373ffffffffffffffffffffffffffffffffffffffff161415611d0657611cf982611da3565b611d01611df6565b611d65565b600073ffffffffffffffffffffffffffffffffffffffff168273ffffffffffffffffffffffffffffffffffffffff161415611d5157611d4483611da3565b611d4c611df6565b611d64565b611d5a83611da3565b611d6382611da3565b5b5b505050565b600081600001549050919050565b60006002828418611d899190612666565b828416611d969190612610565b905092915050565b505050565b611df3600560008373ffffffffffffffffffffffffffffffffffffffff1673ffffffffffffffffffffffffffffffffffffffff168152602001908152602001600020611dee83610971565b611e0a565b50565b611e086006611e03610570565b611e0a565b565b6000611e14611b63565b905080611e2384600001611e85565b1015611e805782600001819080600181540180825580915050600190039060005260206000200160009091909190915055826001018290806001815401808255809150506001900390600052602060002001600090919091909150555b505050565b60008082805490501415611e9c5760009050611ef3565b8160018380549050611eae9190612697565b81548110611ee5577f4e487b7100000000000000000000000000000000000000000000000000000000600052603260045260246000fd5b906000526020600020015490505b919050565b600081359050611f0781612ca7565b92915050565b600081359050611f1c81612cbe565b92915050565b600060208284031215611f3457600080fd5b6000611f4284828501611ef8565b91505092915050565b60008060408385031215611f5e57600080fd5b6000611f6c85828601611ef8565b9250506020611f7d85828601611ef8565b9150509250929050565b600080600060608486031215611f9c57600080fd5b6000611faa86828701611ef8565b9350506020611fbb86828701611ef8565b9250506040611fcc86828701611f0d565b9150509250925092565b60008060408385031215611fe957600080fd5b6000611ff785828601611ef8565b925050602061200885828601611f0d565b9150509250929050565b60006020828403121561202457600080fd5b600061203284828501611f0d565b91505092915050565b612044816126cb565b82525050565b612053816126dd565b82525050565b6000612064826125f4565b61206e81856125ff565b935061207e818560208601612720565b61208781612812565b840191505092915050565b600061209f601d836125ff565b91506120aa82612823565b602082019050919050565b60006120c26023836125ff565b91506120cd8261284c565b604082019050919050565b60006120e56014836125ff565b91506120f08261289b565b602082019050919050565b60006121086022836125ff565b9150612113826128c4565b604082019050919050565b600061212b6026836125ff565b915061213682612913565b604082019050919050565b600061214e6022836125ff565b915061215982612962565b604082019050919050565b60006121716026836125ff565b915061217c826129b1565b604082019050919050565b60006121946010836125ff565b915061219f82612a00565b602082019050919050565b60006121b76028836125ff565b91506121c282612a29565b604082019050919050565b60006121da6020836125ff565b91506121e582612a78565b602082019050919050565b60006121fd6024836125ff565b915061220882612aa1565b604082019050919050565b60006122206021836125ff565b915061222b82612af0565b604082019050919050565b60006122436025836125ff565b915061224e82612b3f565b604082019050919050565b60006122666024836125ff565b915061227182612b8e565b604082019050919050565b60006122896016836125ff565b915061229482612bdd565b602082019050919050565b60006122ac600f836125ff565b91506122b782612c06565b602082019050919050565b60006122cf6025836125ff565b91506122da82612c2f565b604082019050919050565b60006122f2601f836125ff565b91506122fd82612c7e565b602082019050919050565b61231181612709565b82525050565b61232081612713565b82525050565b600060208201905061233b600083018461203b565b92915050565b6000602082019050612356600083018461204a565b92915050565b600060208201905081810360008301526123768184612059565b905092915050565b6000602082019050818103600083015261239781612092565b9050919050565b600060208201905081810360008301526123b7816120b5565b9050919050565b600060208201905081810360008301526123d7816120d8565b9050919050565b600060208201905081810360008301526123f7816120fb565b9050919050565b600060208201905081810360008301526124178161211e565b9050919050565b6000602082019050818103600083015261243781612141565b9050919050565b6000602082019050818103600083015261245781612164565b9050919050565b6000602082019050818103600083015261247781612187565b9050919050565b60006020820190508181036000830152612497816121aa565b9050919050565b600060208201905081810360008301526124b7816121cd565b9050919050565b600060208201905081810360008301526124d7816121f0565b9050919050565b600060208201905081810360008301526124f781612213565b9050919050565b6000602082019050818103600083015261251781612236565b9050919050565b6000602082019050818103600083015261253781612259565b9050919050565b600060208201905081810360008301526125578161227c565b9050919050565b600060208201905081810360008301526125778161229f565b9050919050565b60006020820190508181036000830152612597816122c2565b9050919050565b600060208201905081810360008301526125b7816122e5565b9050919050565b60006020820190506125d36000830184612308565b92915050565b60006020820190506125ee6000830184612317565b92915050565b600081519050919050565b600082825260208201905092915050565b600061261b82612709565b915061262683612709565b9250827fffffffffffffffffffffffffffffffffffffffffffffffffffffffffffffffff0382111561265b5761265a612785565b5b828201905092915050565b600061267182612709565b915061267c83612709565b92508261268c5761268b6127b4565b5b828204905092915050565b60006126a282612709565b91506126ad83612709565b9250828210156126c0576126bf612785565b5b828203905092915050565b60006126d6826126e9565b9050919050565b60008115159050919050565b600073ffffffffffffffffffffffffffffffffffffffff82169050919050565b6000819050919050565b600060ff82169050919050565b60005b8381101561273e578082015181840152602081019050612723565b8381111561274d576000848401525b50505050565b6000600282049050600182168061276b57607f821691505b6020821081141561277f5761277e6127e3565b5b50919050565b7f4e487b7100000000000000000000000000000000000000000000000000000000600052601160045260246000fd5b7f4e487b7100000000000000000000000000000000000000000000000000000000600052601260045260246000fd5b7f4e487b7100000000000000000000000000000000000000000000000000000000600052602260045260246000fd5b6000601f19601f8301169050919050565b7f4552433230536e617073686f743a206e6f6e6578697374656e74206964000000600082015250565b7f45524332303a207472616e7366657220746f20746865207a65726f206164647260008201527f6573730000000000000000000000000000000000000000000000000000000000602082015250565b7f5061757361626c653a206e6f7420706175736564000000000000000000000000600082015250565b7f45524332303a206275726e20616d6f756e7420657863656564732062616c616e60008201527f6365000000000000000000000000000000000000000000000000000000000000602082015250565b7f4f776e61626c653a206e6577206f776e657220697320746865207a65726f206160008201527f6464726573730000000000000000000000000000000000000000000000000000602082015250565b7f45524332303a20617070726f766520746f20746865207a65726f20616464726560008201527f7373000000000000000000000000000000000000000000000000000000000000602082015250565b7f45524332303a207472616e7366657220616d6f756e742065786365656473206260008201527f616c616e63650000000000000000000000000000000000000000000000000000602082015250565b7f5061757361626c653a2070617573656400000000000000000000000000000000600082015250565b7f45524332303a207472616e7366657220616d6f756e742065786365656473206160008201527f6c6c6f77616e6365000000000000000000000000000000000000000000000000602082015250565b7f4f776e61626c653a2063616c6c6572206973206e6f7420746865206f776e6572600082015250565b7f45524332303a206275726e20616d6f756e74206578636565647320616c6c6f7760008201527f616e636500000000000000000000000000000000000000000000000000000000602082015250565b7f45524332303a206275726e2066726f6d20746865207a65726f2061646472657360008201527f7300000000000000000000000000000000000000000000000000000000000000602082015250565b7f45524332303a207472616e736665722066726f6d20746865207a65726f20616460008201527f6472657373000000000000000000000000000000000000000000000000000000602082015250565b7f45524332303a20617070726f76652066726f6d20746865207a65726f2061646460008201527f7265737300000000000000000000000000000000000000000000000000000000602082015250565b7f4552433230536e617073686f743a206964206973203000000000000000000000600082015250565b7f4e4f5420544845204449414d4f4e440000000000000000000000000000000000600082015250565b7f45524332303a2064656372656173656420616c6c6f77616e63652062656c6f7760008201527f207a65726f000000000000000000000000000000000000000000000000000000602082015250565b7f45524332303a206d696e7420746f20746865207a65726f206164647265737300600082015250565b612cb0816126cb565b8114612cbb57600080fd5b50565b612cc781612709565b8114612cd257600080fd5b5056fea264697066735822122018a15256e0e3af3b9a3b878d1dfd459239a77ab5a1c256df9fa3e34ba4d9bceb64736f6c63430008030033",
  "devdoc": {
    "kind": "dev",
    "methods": {
      "allowance(address,address)": {
        "details": "See {IERC20-allowance}."
      },
      "approve(address,uint256)": {
        "details": "See {IERC20-approve}. Requirements: - `spender` cannot be the zero address."
      },
      "balanceOf(address)": {
        "details": "See {IERC20-balanceOf}."
      },
      "balanceOfAt(address,uint256)": {
        "details": "Retrieves the balance of `account` at the time `snapshotId` was created."
      },
      "burn(uint256)": {
        "details": "Destroys `amount` tokens from the caller. See {ERC20-_burn}."
      },
      "burnFrom(address,uint256)": {
        "details": "Destroys `amount` tokens from `account`, deducting from the caller's allowance. See {ERC20-_burn} and {ERC20-allowance}. Requirements: - the caller must have allowance for ``accounts``'s tokens of at least `amount`."
      },
      "decimals()": {
        "details": "Returns the number of decimals used to get its user representation. For example, if `decimals` equals `2`, a balance of `505` tokens should be displayed to a user as `5.05` (`505 / 10 ** 2`). Tokens usually opt for a value of 18, imitating the relationship between Ether and Wei. This is the value {ERC20} uses, unless this function is overridden; NOTE: This information is only used for _display_ purposes: it in no way affects any of the arithmetic of the contract, including {IERC20-balanceOf} and {IERC20-transfer}."
      },
      "decreaseAllowance(address,uint256)": {
        "details": "Atomically decreases the allowance granted to `spender` by the caller. This is an alternative to {approve} that can be used as a mitigation for problems described in {IERC20-approve}. Emits an {Approval} event indicating the updated allowance. Requirements: - `spender` cannot be the zero address. - `spender` must have allowance for the caller of at least `subtractedValue`."
      },
      "increaseAllowance(address,uint256)": {
        "details": "Atomically increases the allowance granted to `spender` by the caller. This is an alternative to {approve} that can be used as a mitigation for problems described in {IERC20-approve}. Emits an {Approval} event indicating the updated allowance. Requirements: - `spender` cannot be the zero address."
      },
      "name()": {
        "details": "Returns the name of the token."
      },
      "owner()": {
        "details": "Returns the address of the current owner."
      },
      "paused()": {
        "details": "Returns true if the contract is paused, and false otherwise."
      },
      "renounceOwnership()": {
        "details": "Leaves the contract without owner. It will not be possible to call `onlyOwner` functions anymore. Can only be called by the current owner. NOTE: Renouncing ownership will leave the contract without an owner, thereby removing any functionality that is only available to the owner."
      },
      "symbol()": {
        "details": "Returns the symbol of the token, usually a shorter version of the name."
      },
      "totalSupply()": {
        "details": "See {IERC20-totalSupply}."
      },
      "totalSupplyAt(uint256)": {
        "details": "Retrieves the total supply at the time `snapshotId` was created."
      },
      "transfer(address,uint256)": {
        "details": "See {IERC20-transfer}. Requirements: - `recipient` cannot be the zero address. - the caller must have a balance of at least `amount`."
      },
      "transferFrom(address,address,uint256)": {
        "details": "See {IERC20-transferFrom}. Emits an {Approval} event indicating the updated allowance. This is not required by the EIP. See the note at the beginning of {ERC20}. Requirements: - `sender` and `recipient` cannot be the zero address. - `sender` must have a balance of at least `amount`. - the caller must have allowance for ``sender``'s tokens of at least `amount`."
      },
      "transferOwnership(address)": {
        "details": "Transfers ownership of the contract to a new account (`newOwner`). Can only be called by the current owner."
      }
    },
    "version": 1
  },
  "userdoc": {
    "kind": "user",
    "methods": {},
    "version": 1
  },
  "storageLayout": {
    "storage": [
      {
        "astId": 3013,
        "contract": "contracts/TheLordsToken.sol:TheLordsToken",
        "label": "_balances",
        "offset": 0,
        "slot": "0",
        "type": "t_mapping(t_address,t_uint256)"
      },
      {
        "astId": 3019,
        "contract": "contracts/TheLordsToken.sol:TheLordsToken",
        "label": "_allowances",
        "offset": 0,
        "slot": "1",
        "type": "t_mapping(t_address,t_mapping(t_address,t_uint256))"
      },
      {
        "astId": 3021,
        "contract": "contracts/TheLordsToken.sol:TheLordsToken",
        "label": "_totalSupply",
        "offset": 0,
        "slot": "2",
        "type": "t_uint256"
      },
      {
        "astId": 3023,
        "contract": "contracts/TheLordsToken.sol:TheLordsToken",
        "label": "_name",
        "offset": 0,
        "slot": "3",
        "type": "t_string_storage"
      },
      {
        "astId": 3025,
        "contract": "contracts/TheLordsToken.sol:TheLordsToken",
        "label": "_symbol",
        "offset": 0,
        "slot": "4",
        "type": "t_string_storage"
      },
      {
        "astId": 3711,
        "contract": "contracts/TheLordsToken.sol:TheLordsToken",
        "label": "_accountBalanceSnapshots",
        "offset": 0,
        "slot": "5",
        "type": "t_mapping(t_address,t_struct(Snapshots)3706_storage)"
      },
      {
        "astId": 3714,
        "contract": "contracts/TheLordsToken.sol:TheLordsToken",
        "label": "_totalSupplySnapshots",
        "offset": 0,
        "slot": "6",
        "type": "t_struct(Snapshots)3706_storage"
      },
      {
        "astId": 3717,
        "contract": "contracts/TheLordsToken.sol:TheLordsToken",
        "label": "_currentSnapshotId",
        "offset": 0,
        "slot": "8",
        "type": "t_struct(Counter)5819_storage"
      },
      {
        "astId": 2769,
        "contract": "contracts/TheLordsToken.sol:TheLordsToken",
        "label": "_owner",
        "offset": 0,
        "slot": "9",
        "type": "t_address"
      },
      {
        "astId": 2883,
        "contract": "contracts/TheLordsToken.sol:TheLordsToken",
        "label": "_paused",
        "offset": 20,
        "slot": "9",
        "type": "t_bool"
      },
      {
        "astId": 7642,
        "contract": "contracts/TheLordsToken.sol:TheLordsToken",
        "label": "diamond",
        "offset": 0,
        "slot": "10",
        "type": "t_address"
      },
      {
        "astId": 7751,
        "contract": "contracts/TheLordsToken.sol:TheLordsToken",
        "label": "ageDistrbutions",
        "offset": 0,
        "slot": "11",
        "type": "t_array(t_uint256)dyn_storage"
      }
    ],
    "types": {
      "t_address": {
        "encoding": "inplace",
        "label": "address",
        "numberOfBytes": "20"
      },
      "t_array(t_uint256)dyn_storage": {
        "base": "t_uint256",
        "encoding": "dynamic_array",
        "label": "uint256[]",
        "numberOfBytes": "32"
      },
      "t_bool": {
        "encoding": "inplace",
        "label": "bool",
        "numberOfBytes": "1"
      },
      "t_mapping(t_address,t_mapping(t_address,t_uint256))": {
        "encoding": "mapping",
        "key": "t_address",
        "label": "mapping(address => mapping(address => uint256))",
        "numberOfBytes": "32",
        "value": "t_mapping(t_address,t_uint256)"
      },
      "t_mapping(t_address,t_struct(Snapshots)3706_storage)": {
        "encoding": "mapping",
        "key": "t_address",
        "label": "mapping(address => struct ERC20Snapshot.Snapshots)",
        "numberOfBytes": "32",
        "value": "t_struct(Snapshots)3706_storage"
      },
      "t_mapping(t_address,t_uint256)": {
        "encoding": "mapping",
        "key": "t_address",
        "label": "mapping(address => uint256)",
        "numberOfBytes": "32",
        "value": "t_uint256"
      },
      "t_string_storage": {
        "encoding": "bytes",
        "label": "string",
        "numberOfBytes": "32"
      },
      "t_struct(Counter)5819_storage": {
        "encoding": "inplace",
        "label": "struct Counters.Counter",
        "members": [
          {
            "astId": 5818,
            "contract": "contracts/TheLordsToken.sol:TheLordsToken",
            "label": "_value",
            "offset": 0,
            "slot": "0",
            "type": "t_uint256"
          }
        ],
        "numberOfBytes": "32"
      },
      "t_struct(Snapshots)3706_storage": {
        "encoding": "inplace",
        "label": "struct ERC20Snapshot.Snapshots",
        "members": [
          {
            "astId": 3702,
            "contract": "contracts/TheLordsToken.sol:TheLordsToken",
            "label": "ids",
            "offset": 0,
            "slot": "0",
            "type": "t_array(t_uint256)dyn_storage"
          },
          {
            "astId": 3705,
            "contract": "contracts/TheLordsToken.sol:TheLordsToken",
            "label": "values",
            "offset": 0,
            "slot": "1",
            "type": "t_array(t_uint256)dyn_storage"
          }
        ],
        "numberOfBytes": "64"
      },
      "t_uint256": {
        "encoding": "inplace",
        "label": "uint256",
        "numberOfBytes": "32"
      }
    }
  }
}