{
  "address": "0xa631BEb88aBb91e32A2A6c5D338113aCcA158baA",
  "abi": [
    {
      "inputs": [
        {
          "internalType": "uint256",
          "name": "_realmTokenId",
          "type": "uint256"
        },
        {
          "internalType": "uint256",
          "name": "_buildingID",
          "type": "uint256"
        },
        {
          "internalType": "uint256[]",
          "name": "resources",
          "type": "uint256[]"
        },
        {
          "internalType": "uint256[]",
          "name": "resourceValues",
          "type": "uint256[]"
        }
      ],
      "name": "createBuilding",
      "outputs": [],
      "stateMutability": "payable",
      "type": "function"
    },
    {
      "inputs": [
        {
          "internalType": "uint256",
          "name": "_index",
          "type": "uint256"
        }
      ],
      "name": "getBuildingCosts",
      "outputs": [
        {
          "internalType": "string",
          "name": "",
          "type": "string"
        },
        {
          "internalType": "uint8[]",
          "name": "",
          "type": "uint8[]"
        },
        {
          "internalType": "uint8[]",
          "name": "",
          "type": "uint8[]"
        },
        {
          "internalType": "uint8[]",
          "name": "",
          "type": "uint8[]"
        }
      ],
      "stateMutability": "view",
      "type": "function"
    },
    {
      "inputs": [
        {
          "internalType": "uint256",
          "name": "_tokenId",
          "type": "uint256"
        }
      ],
      "name": "getBuildings",
      "outputs": [
        {
          "internalType": "uint256",
          "name": "",
          "type": "uint256"
        },
        {
          "internalType": "uint256",
          "name": "",
          "type": "uint256"
        },
        {
          "internalType": "uint256",
          "name": "",
          "type": "uint256"
        },
        {
          "internalType": "uint256",
          "name": "",
          "type": "uint256"
        }
      ],
      "stateMutability": "view",
      "type": "function"
    },
    {
      "inputs": [],
      "name": "initBuilding",
      "outputs": [],
      "stateMutability": "nonpayable",
      "type": "function"
    }
  ],
  "transactionHash": "0x589454803d071e0e6a8d1d7e277497b21bf69b8621bc9dc7eb08f18d7ad0194d",
  "args": [],
  "solcInputHash": "6ff06cbd8dadafec7118428c79511e38",
  "bytecode": "0x608060405234801561001057600080fd5b50611970806100206000396000f3fe60806040526004361061003f5760003560e01c80637fd215d6146100445780638c42f6901461005b578063be00feed14610077578063ca8c3462146100b7575b600080fd5b34801561005057600080fd5b506100596100f7565b005b610075600480360381019061007091906110b6565b6105f5565b005b34801561008357600080fd5b5061009e6004803603810190610099919061108d565b610b2f565b6040516100ae94939291906113c1565b60405180910390f35b3480156100c357600080fd5b506100de60048036038101906100d9919061108d565b610d62565b6040516100ee94939291906114e2565b60405180910390f35b6040518060400160405280600781526020017f6d61726b657473000000000000000000000000000000000000000000000000008152506000600b0160008081526020019081526020016000206000019080519060200190610159929190610df1565b506040518060600160405280600160ff168152602001600260ff168152602001600360ff168152506000600b0160008081526020019081526020016000206001019060036101a8929190610e77565b506040518060600160405280600260ff168152602001600260ff168152602001600260ff168152506000600b0160008081526020019081526020016000206002019060036101f7929190610e77565b506040518060200160405280600160ff168152506000600b016000808152602001908152602001600020600301906001610232929190610f1e565b506040518060400160405280600a81526020017f61637175616475637473000000000000000000000000000000000000000000008152506000600b016000600181526020019081526020016000206000019080519060200190610296929190610df1565b506040518060600160405280600160ff168152602001600260ff168152602001600360ff168152506000600b016000600181526020019081526020016000206001019060036102e6929190610e77565b506040518060600160405280600260ff168152602001600260ff168152602001600260ff168152506000600b01600060018152602001908152602001600020600201906003610336929190610e77565b506040518060200160405280600360ff168152506000600b01600060018152602001908152602001600020600301906001610372929190610f1e565b506040518060400160405280600781526020017f636173746c6573000000000000000000000000000000000000000000000000008152506000600b0160006002815260200190815260200160002060000190805190602001906103d6929190610df1565b506040518060600160405280600160ff168152602001600260ff168152602001600360ff168152506000600b01600060028152602001908152602001600020600101906003610426929190610e77565b506040518060600160405280600260ff168152602001600260ff168152602001600260ff168152506000600b01600060028152602001908152602001600020600201906003610476929190610e77565b506040518060200160405280600060ff168152506000600b016000600281526020019081526020016000206003019060016104b2929190610f1e565b506040518060400160405280600581526020017f706f7274730000000000000000000000000000000000000000000000000000008152506000600b016000600381526020019081526020016000206000019080519060200190610516929190610df1565b506040518060600160405280600160ff168152602001600260ff168152602001600360ff168152506000600b01600060038152602001908152602001600020600101906003610566929190610e77565b506040518060600160405280600260ff168152602001600260ff168152602001600260ff168152506000600b016000600381526020019081526020016000206002019060036105b6929190610e77565b506040518060200160405280600260ff168152506000600b016000600381526020019081526020016000206003019060016105f2929190610f1e565b50565b6000600290506000806000016000878152602001908152602001600020905060008060020160008881526020019081526020016000209050600080600b016000888152602001908152602001600020905060008060010160008a8152602001908152602001600020905060008060060160009054906101000a900473ffffffffffffffffffffffffffffffffffffffff16905060008914156106fd578460040160009054906101000a900460ff1660ff168460000160039054906101000a900460ff1660ff1611156106fc576040517f08c379a00000000000000000000000000000000000000000000000000000000081526004016106f390611422565b60405180910390fd5b5b6001891415610772578460040160029054906101000a900460ff1660ff168460000160009054906101000a900460ff1660ff161115610771576040517f08c379a0000000000000000000000000000000000000000000000000000000008152600401610768906114c2565b60405180910390fd5b5b60028914156107e7578460040160039054906101000a900460ff1660ff168460000160029054906101000a900460ff1660ff1611156107e6576040517f08c379a00000000000000000000000000000000000000000000000000000000081526004016107dd90611462565b60405180910390fd5b5b600389141561085c578460040160019054906101000a900460ff1660ff168460000160049054906101000a900460ff1660ff16111561085b576040517f08c379a000000000000000000000000000000000000000000000000000000000815260040161085290611482565b60405180910390fd5b5b60005b8360010180549050811015610a41578360010181815481106108aa577f4e487b7100000000000000000000000000000000000000000000000000000000600052603260045260246000fd5b90600052602060002090602091828204019190069054906101000a900460ff1660ff16898281518110610906577f4e487b7100000000000000000000000000000000000000000000000000000000600052603260045260246000fd5b60200260200101511461094e576040517f08c379a000000000000000000000000000000000000000000000000000000000815260040161094590611442565b60405180910390fd5b83600201818154811061098a577f4e487b7100000000000000000000000000000000000000000000000000000000600052603260045260246000fd5b90600052602060002090602091828204019190069054906101000a900460ff1660ff168882815181106109e6577f4e487b7100000000000000000000000000000000000000000000000000000000600052603260045260246000fd5b602002602001015114610a2e576040517f08c379a0000000000000000000000000000000000000000000000000000000008152600401610a25906114a2565b60405180910390fd5b8080610a399061171c565b91505061085f565b508073ffffffffffffffffffffffffffffffffffffffff1663ddb6f7f1338a8a6040518463ffffffff1660e01b8152600401610a7f9392919061137c565b600060405180830381600087803b158015610a9957600080fd5b505af1158015610aad573d6000803e3d6000fd5b5050505083600001600081819054906101000a900460ff1680929190610ad290611765565b91906101000a81548160ff021916908360ff16021790555050858260000160038282829054906101000a900460ff16610b0b9190611606565b92506101000a81548160ff021916908360ff16021790555050505050505050505050565b606080606080600080600b016000878152602001908152602001600020905080600001816001018260020183600301838054610b6a906116b9565b80601f0160208091040260200160405190810160405280929190818152602001828054610b96906116b9565b8015610be35780601f10610bb857610100808354040283529160200191610be3565b820191906000526020600020905b815481529060010190602001808311610bc657829003601f168201915b5050505050935082805480602002602001604051908101604052809291908181526020018280548015610c5b57602002820191906000526020600020906000905b82829054906101000a900460ff1660ff1681526020019060010190602082600001049283019260010382029150808411610c245790505b5050505050925081805480602002602001604051908101604052809291908181526020018280548015610cd357602002820191906000526020600020906000905b82829054906101000a900460ff1660ff1681526020019060010190602082600001049283019260010382029150808411610c9c5790505b5050505050915080805480602002602001604051908101604052809291908181526020018280548015610d4b57602002820191906000526020600020906000905b82829054906101000a900460ff1660ff1681526020019060010190602082600001049283019260010382029150808411610d145790505b505050505090509450945094509450509193509193565b600080600080600080600201600087815260200190815260200160002090508060000160039054906101000a900460ff168160000160009054906101000a900460ff168260000160029054906101000a900460ff168360000160049054906101000a900460ff168360ff1693508260ff1692508160ff1691508060ff1690509450945094509450509193509193565b828054610dfd906116b9565b90600052602060002090601f016020900481019282610e1f5760008555610e66565b82601f10610e3857805160ff1916838001178555610e66565b82800160010185558215610e66579182015b82811115610e65578251825591602001919060010190610e4a565b5b509050610e739190610fc5565b5090565b82805482825590600052602060002090601f01602090048101928215610f0d5791602002820160005b83821115610ede57835183826101000a81548160ff021916908360ff1602179055509260200192600101602081600001049283019260010302610ea0565b8015610f0b5782816101000a81549060ff0219169055600101602081600001049283019260010302610ede565b505b509050610f1a9190610fc5565b5090565b82805482825590600052602060002090601f01602090048101928215610fb45791602002820160005b83821115610f8557835183826101000a81548160ff021916908360ff1602179055509260200192600101602081600001049283019260010302610f47565b8015610fb25782816101000a81549060ff0219169055600101602081600001049283019260010302610f85565b505b509050610fc19190610fc5565b5090565b5b80821115610fde576000816000905550600101610fc6565b5090565b6000610ff5610ff08461154c565b611527565b9050808382526020820190508285602086028201111561101457600080fd5b60005b85811015611044578161102a8882611078565b845260208401935060208301925050600181019050611017565b5050509392505050565b600082601f83011261105f57600080fd5b813561106f848260208601610fe2565b91505092915050565b60008135905061108781611923565b92915050565b60006020828403121561109f57600080fd5b60006110ad84828501611078565b91505092915050565b600080600080608085870312156110cc57600080fd5b60006110da87828801611078565b94505060206110eb87828801611078565b935050604085013567ffffffffffffffff81111561110857600080fd5b6111148782880161104e565b925050606085013567ffffffffffffffff81111561113157600080fd5b61113d8782880161104e565b91505092959194509250565b6000611155838361134f565b60208301905092915050565b600061116d838361136d565b60208301905092915050565b6111828161163d565b82525050565b600061119382611598565b61119d81856115d3565b93506111a883611578565b8060005b838110156111d95781516111c08882611149565b97506111cb836115b9565b9250506001810190506111ac565b5085935050505092915050565b60006111f1826115a3565b6111fb81856115e4565b935061120683611588565b8060005b8381101561123757815161121e8882611161565b9750611229836115c6565b92505060018101905061120a565b5085935050505092915050565b600061124f826115ae565b61125981856115f5565b9350611269818560208601611686565b6112728161181c565b840191505092915050565b600061128a601a836115f5565b91506112958261182d565b602082019050919050565b60006112ad6012836115f5565b91506112b882611856565b602082019050919050565b60006112d0601b836115f5565b91506112db8261187f565b602082019050919050565b60006112f3601c836115f5565b91506112fe826118a8565b602082019050919050565b6000611316601a836115f5565b9150611321826118d1565b602082019050919050565b6000611339601a836115f5565b9150611344826118fa565b602082019050919050565b6113588161166f565b82525050565b6113678161166f565b82525050565b61137681611679565b82525050565b60006060820190506113916000830186611179565b81810360208301526113a38185611188565b905081810360408301526113b78184611188565b9050949350505050565b600060808201905081810360008301526113db8187611244565b905081810360208301526113ef81866111e6565b9050818103604083015261140381856111e6565b9050818103606083015261141781846111e6565b905095945050505050565b6000602082019050818103600083015261143b8161127d565b9050919050565b6000602082019050818103600083015261145b816112a0565b9050919050565b6000602082019050818103600083015261147b816112c3565b9050919050565b6000602082019050818103600083015261149b816112e6565b9050919050565b600060208201905081810360008301526114bb81611309565b9050919050565b600060208201905081810360008301526114db8161132c565b9050919050565b60006080820190506114f7600083018761135e565b611504602083018661135e565b611511604083018561135e565b61151e606083018461135e565b95945050505050565b6000611531611542565b905061153d82826116eb565b919050565b6000604051905090565b600067ffffffffffffffff821115611567576115666117ed565b5b602082029050602081019050919050565b6000819050602082019050919050565b6000819050602082019050919050565b600081519050919050565b600081519050919050565b600081519050919050565b6000602082019050919050565b6000602082019050919050565b600082825260208201905092915050565b600082825260208201905092915050565b600082825260208201905092915050565b600061161182611679565b915061161c83611679565b92508260ff038211156116325761163161178f565b5b828201905092915050565b60006116488261164f565b9050919050565b600073ffffffffffffffffffffffffffffffffffffffff82169050919050565b6000819050919050565b600060ff82169050919050565b60005b838110156116a4578082015181840152602081019050611689565b838111156116b3576000848401525b50505050565b600060028204905060018216806116d157607f821691505b602082108114156116e5576116e46117be565b5b50919050565b6116f48261181c565b810181811067ffffffffffffffff82111715611713576117126117ed565b5b80604052505050565b60006117278261166f565b91507fffffffffffffffffffffffffffffffffffffffffffffffffffffffffffffffff82141561175a5761175961178f565b5b600182019050919050565b600061177082611679565b915060ff8214156117845761178361178f565b5b600182019050919050565b7f4e487b7100000000000000000000000000000000000000000000000000000000600052601160045260246000fd5b7f4e487b7100000000000000000000000000000000000000000000000000000000600052602260045260246000fd5b7f4e487b7100000000000000000000000000000000000000000000000000000000600052604160045260246000fd5b6000601f19601f8301169050919050565b7f4e6f20636974696573206c65667420746f206275696c64206f6e000000000000600082015250565b7f496e636f7272656374207265736f757263650000000000000000000000000000600082015250565b7f4e6f20726567696f6e73206c65667420746f206275696c64206f6e0000000000600082015250565b7f4e6f20686172626f757273206c65667420746f206275696c64206f6e00000000600082015250565b7f496e636f7272656374207265736f75726365732076616c756573000000000000600082015250565b7f4e6f20726976657273206c65667420746f206275696c64206f6e000000000000600082015250565b61192c8161166f565b811461193757600080fd5b5056fea26469706673582212208f259c6426e09fda756d4911b6d1c266931f77f56e74a212810a85d877a08f0564736f6c63430008030033",
  "devdoc": {
    "kind": "dev",
    "methods": {},
    "version": 1
  },
  "userdoc": {
    "kind": "user",
    "methods": {},
    "version": 1
  },
  "storageLayout": {
    "storage": [
      {
        "astId": 466,
        "contract": "contracts/facets/TraitConstructionFacet.sol:TraitConstructionFacet",
        "label": "s",
        "offset": 0,
        "slot": "0",
        "type": "t_struct(AppStorage)1127_storage"
      }
    ],
    "types": {
      "t_address": {
        "encoding": "inplace",
        "label": "address",
        "numberOfBytes": "20"
      },
      "t_array(t_uint256)dyn_storage": {
        "base": "t_uint256",
        "encoding": "dynamic_array",
        "label": "uint256[]",
        "numberOfBytes": "32"
      },
      "t_array(t_uint8)dyn_storage": {
        "base": "t_uint8",
        "encoding": "dynamic_array",
        "label": "uint8[]",
        "numberOfBytes": "32"
      },
      "t_mapping(t_uint256,t_struct(BuildingCosts)1198_storage)": {
        "encoding": "mapping",
        "key": "t_uint256",
        "label": "mapping(uint256 => struct BuildingCosts)",
        "numberOfBytes": "32",
        "value": "t_struct(BuildingCosts)1198_storage"
      },
      "t_mapping(t_uint256,t_struct(BuildingUpgradeCosts)1207_storage)": {
        "encoding": "mapping",
        "key": "t_uint256",
        "label": "mapping(uint256 => struct BuildingUpgradeCosts)",
        "numberOfBytes": "32",
        "value": "t_struct(BuildingUpgradeCosts)1207_storage"
      },
      "t_mapping(t_uint256,t_struct(LevelProduction)1210_storage)": {
        "encoding": "mapping",
        "key": "t_uint256",
        "label": "mapping(uint256 => struct LevelProduction)",
        "numberOfBytes": "32",
        "value": "t_struct(LevelProduction)1210_storage"
      },
      "t_mapping(t_uint256,t_struct(RealmBuildings)1186_storage)": {
        "encoding": "mapping",
        "key": "t_uint256",
        "label": "mapping(uint256 => struct RealmBuildings)",
        "numberOfBytes": "32",
        "value": "t_struct(RealmBuildings)1186_storage"
      },
      "t_mapping(t_uint256,t_struct(RealmInfo)1163_storage)": {
        "encoding": "mapping",
        "key": "t_uint256",
        "label": "mapping(uint256 => struct RealmInfo)",
        "numberOfBytes": "32",
        "value": "t_struct(RealmInfo)1163_storage"
      },
      "t_mapping(t_uint256,t_struct(RealmStatistics)1136_storage)": {
        "encoding": "mapping",
        "key": "t_uint256",
        "label": "mapping(uint256 => struct RealmStatistics)",
        "numberOfBytes": "32",
        "value": "t_struct(RealmStatistics)1136_storage"
      },
      "t_mapping(t_uint256,t_struct(ResourceInfo)1170_storage)": {
        "encoding": "mapping",
        "key": "t_uint256",
        "label": "mapping(uint256 => struct ResourceInfo)",
        "numberOfBytes": "32",
        "value": "t_struct(ResourceInfo)1170_storage"
      },
      "t_mapping(t_uint256,t_struct(UpgradeCostLevels)1223_storage)": {
        "encoding": "mapping",
        "key": "t_uint256",
        "label": "mapping(uint256 => struct UpgradeCostLevels)",
        "numberOfBytes": "32",
        "value": "t_struct(UpgradeCostLevels)1223_storage"
      },
      "t_mapping(t_uint256,t_struct(UpgradeCosts)1219_storage)": {
        "encoding": "mapping",
        "key": "t_uint256",
        "label": "mapping(uint256 => struct UpgradeCosts)",
        "numberOfBytes": "32",
        "value": "t_struct(UpgradeCosts)1219_storage"
      },
      "t_string_storage": {
        "encoding": "bytes",
        "label": "string",
        "numberOfBytes": "32"
      },
      "t_struct(AppStorage)1127_storage": {
        "encoding": "inplace",
        "label": "struct AppStorage",
        "members": [
          {
            "astId": 1082,
            "contract": "contracts/facets/TraitConstructionFacet.sol:TraitConstructionFacet",
            "label": "realmInfo",
            "offset": 0,
            "slot": "0",
            "type": "t_mapping(t_uint256,t_struct(RealmInfo)1163_storage)"
          },
          {
            "astId": 1087,
            "contract": "contracts/facets/TraitConstructionFacet.sol:TraitConstructionFacet",
            "label": "realmStatistics",
            "offset": 0,
            "slot": "1",
            "type": "t_mapping(t_uint256,t_struct(RealmStatistics)1136_storage)"
          },
          {
            "astId": 1092,
            "contract": "contracts/facets/TraitConstructionFacet.sol:TraitConstructionFacet",
            "label": "realmBuildings",
            "offset": 0,
            "slot": "2",
            "type": "t_mapping(t_uint256,t_struct(RealmBuildings)1186_storage)"
          },
          {
            "astId": 1094,
            "contract": "contracts/facets/TraitConstructionFacet.sol:TraitConstructionFacet",
            "label": "baseProductionRate",
            "offset": 0,
            "slot": "3",
            "type": "t_uint8"
          },
          {
            "astId": 1096,
            "contract": "contracts/facets/TraitConstructionFacet.sol:TraitConstructionFacet",
            "label": "maxProductionRate",
            "offset": 1,
            "slot": "3",
            "type": "t_uint8"
          },
          {
            "astId": 1098,
            "contract": "contracts/facets/TraitConstructionFacet.sol:TraitConstructionFacet",
            "label": "sRealms",
            "offset": 2,
            "slot": "3",
            "type": "t_address"
          },
          {
            "astId": 1100,
            "contract": "contracts/facets/TraitConstructionFacet.sol:TraitConstructionFacet",
            "label": "realms",
            "offset": 0,
            "slot": "4",
            "type": "t_address"
          },
          {
            "astId": 1102,
            "contract": "contracts/facets/TraitConstructionFacet.sol:TraitConstructionFacet",
            "label": "treasury",
            "offset": 0,
            "slot": "5",
            "type": "t_address"
          },
          {
            "astId": 1104,
            "contract": "contracts/facets/TraitConstructionFacet.sol:TraitConstructionFacet",
            "label": "resources",
            "offset": 0,
            "slot": "6",
            "type": "t_address"
          },
          {
            "astId": 1106,
            "contract": "contracts/facets/TraitConstructionFacet.sol:TraitConstructionFacet",
            "label": "oracle",
            "offset": 0,
            "slot": "7",
            "type": "t_address"
          },
          {
            "astId": 1111,
            "contract": "contracts/facets/TraitConstructionFacet.sol:TraitConstructionFacet",
            "label": "levelProduction",
            "offset": 0,
            "slot": "8",
            "type": "t_mapping(t_uint256,t_struct(LevelProduction)1210_storage)"
          },
          {
            "astId": 1116,
            "contract": "contracts/facets/TraitConstructionFacet.sol:TraitConstructionFacet",
            "label": "upgradeCosts",
            "offset": 0,
            "slot": "9",
            "type": "t_mapping(t_uint256,t_struct(UpgradeCosts)1219_storage)"
          },
          {
            "astId": 1121,
            "contract": "contracts/facets/TraitConstructionFacet.sol:TraitConstructionFacet",
            "label": "buildingUpgradeCosts",
            "offset": 0,
            "slot": "10",
            "type": "t_mapping(t_uint256,t_struct(BuildingUpgradeCosts)1207_storage)"
          },
          {
            "astId": 1126,
            "contract": "contracts/facets/TraitConstructionFacet.sol:TraitConstructionFacet",
            "label": "buildingCosts",
            "offset": 0,
            "slot": "11",
            "type": "t_mapping(t_uint256,t_struct(BuildingCosts)1198_storage)"
          }
        ],
        "numberOfBytes": "384"
      },
      "t_struct(BuildingCosts)1198_storage": {
        "encoding": "inplace",
        "label": "struct BuildingCosts",
        "members": [
          {
            "astId": 1188,
            "contract": "contracts/facets/TraitConstructionFacet.sol:TraitConstructionFacet",
            "label": "name",
            "offset": 0,
            "slot": "0",
            "type": "t_string_storage"
          },
          {
            "astId": 1191,
            "contract": "contracts/facets/TraitConstructionFacet.sol:TraitConstructionFacet",
            "label": "resourceIds",
            "offset": 0,
            "slot": "1",
            "type": "t_array(t_uint8)dyn_storage"
          },
          {
            "astId": 1194,
            "contract": "contracts/facets/TraitConstructionFacet.sol:TraitConstructionFacet",
            "label": "resourceValues",
            "offset": 0,
            "slot": "2",
            "type": "t_array(t_uint8)dyn_storage"
          },
          {
            "astId": 1197,
            "contract": "contracts/facets/TraitConstructionFacet.sol:TraitConstructionFacet",
            "label": "requirements",
            "offset": 0,
            "slot": "3",
            "type": "t_array(t_uint8)dyn_storage"
          }
        ],
        "numberOfBytes": "128"
      },
      "t_struct(BuildingUpgradeCosts)1207_storage": {
        "encoding": "inplace",
        "label": "struct BuildingUpgradeCosts",
        "members": [
          {
            "astId": 1201,
            "contract": "contracts/facets/TraitConstructionFacet.sol:TraitConstructionFacet",
            "label": "realmBuildings",
            "offset": 0,
            "slot": "0",
            "type": "t_array(t_uint8)dyn_storage"
          },
          {
            "astId": 1206,
            "contract": "contracts/facets/TraitConstructionFacet.sol:TraitConstructionFacet",
            "label": "buildingCosts",
            "offset": 0,
            "slot": "1",
            "type": "t_mapping(t_uint256,t_struct(BuildingCosts)1198_storage)"
          }
        ],
        "numberOfBytes": "64"
      },
      "t_struct(LevelProduction)1210_storage": {
        "encoding": "inplace",
        "label": "struct LevelProduction",
        "members": [
          {
            "astId": 1209,
            "contract": "contracts/facets/TraitConstructionFacet.sol:TraitConstructionFacet",
            "label": "output",
            "offset": 0,
            "slot": "0",
            "type": "t_uint8"
          }
        ],
        "numberOfBytes": "32"
      },
      "t_struct(RealmBuildings)1186_storage": {
        "encoding": "inplace",
        "label": "struct RealmBuildings",
        "members": [
          {
            "astId": 1177,
            "contract": "contracts/facets/TraitConstructionFacet.sol:TraitConstructionFacet",
            "label": "aquaducts",
            "offset": 0,
            "slot": "0",
            "type": "t_uint8"
          },
          {
            "astId": 1179,
            "contract": "contracts/facets/TraitConstructionFacet.sol:TraitConstructionFacet",
            "label": "temples",
            "offset": 1,
            "slot": "0",
            "type": "t_uint8"
          },
          {
            "astId": 1181,
            "contract": "contracts/facets/TraitConstructionFacet.sol:TraitConstructionFacet",
            "label": "castles",
            "offset": 2,
            "slot": "0",
            "type": "t_uint8"
          },
          {
            "astId": 1183,
            "contract": "contracts/facets/TraitConstructionFacet.sol:TraitConstructionFacet",
            "label": "markets",
            "offset": 3,
            "slot": "0",
            "type": "t_uint8"
          },
          {
            "astId": 1185,
            "contract": "contracts/facets/TraitConstructionFacet.sol:TraitConstructionFacet",
            "label": "ports",
            "offset": 4,
            "slot": "0",
            "type": "t_uint8"
          }
        ],
        "numberOfBytes": "32"
      },
      "t_struct(RealmInfo)1163_storage": {
        "encoding": "inplace",
        "label": "struct RealmInfo",
        "members": [
          {
            "astId": 1138,
            "contract": "contracts/facets/TraitConstructionFacet.sol:TraitConstructionFacet",
            "label": "tokenId",
            "offset": 0,
            "slot": "0",
            "type": "t_uint256"
          },
          {
            "astId": 1140,
            "contract": "contracts/facets/TraitConstructionFacet.sol:TraitConstructionFacet",
            "label": "name",
            "offset": 0,
            "slot": "1",
            "type": "t_string_storage"
          },
          {
            "astId": 1142,
            "contract": "contracts/facets/TraitConstructionFacet.sol:TraitConstructionFacet",
            "label": "lastUpdateAt",
            "offset": 0,
            "slot": "2",
            "type": "t_uint256"
          },
          {
            "astId": 1144,
            "contract": "contracts/facets/TraitConstructionFacet.sol:TraitConstructionFacet",
            "label": "vestedTimeUpdatedAt",
            "offset": 0,
            "slot": "3",
            "type": "t_uint256"
          },
          {
            "astId": 1146,
            "contract": "contracts/facets/TraitConstructionFacet.sol:TraitConstructionFacet",
            "label": "cities",
            "offset": 0,
            "slot": "4",
            "type": "t_uint8"
          },
          {
            "astId": 1148,
            "contract": "contracts/facets/TraitConstructionFacet.sol:TraitConstructionFacet",
            "label": "harbours",
            "offset": 1,
            "slot": "4",
            "type": "t_uint8"
          },
          {
            "astId": 1150,
            "contract": "contracts/facets/TraitConstructionFacet.sol:TraitConstructionFacet",
            "label": "rivers",
            "offset": 2,
            "slot": "4",
            "type": "t_uint8"
          },
          {
            "astId": 1152,
            "contract": "contracts/facets/TraitConstructionFacet.sol:TraitConstructionFacet",
            "label": "regions",
            "offset": 3,
            "slot": "4",
            "type": "t_uint8"
          },
          {
            "astId": 1154,
            "contract": "contracts/facets/TraitConstructionFacet.sol:TraitConstructionFacet",
            "label": "wonders",
            "offset": 4,
            "slot": "4",
            "type": "t_uint8"
          },
          {
            "astId": 1157,
            "contract": "contracts/facets/TraitConstructionFacet.sol:TraitConstructionFacet",
            "label": "resourceIds",
            "offset": 0,
            "slot": "5",
            "type": "t_array(t_uint256)dyn_storage"
          },
          {
            "astId": 1162,
            "contract": "contracts/facets/TraitConstructionFacet.sol:TraitConstructionFacet",
            "label": "resourceInfo",
            "offset": 0,
            "slot": "6",
            "type": "t_mapping(t_uint256,t_struct(ResourceInfo)1170_storage)"
          }
        ],
        "numberOfBytes": "224"
      },
      "t_struct(RealmStatistics)1136_storage": {
        "encoding": "inplace",
        "label": "struct RealmStatistics",
        "members": [
          {
            "astId": 1129,
            "contract": "contracts/facets/TraitConstructionFacet.sol:TraitConstructionFacet",
            "label": "realmDefence",
            "offset": 0,
            "slot": "0",
            "type": "t_uint8"
          },
          {
            "astId": 1131,
            "contract": "contracts/facets/TraitConstructionFacet.sol:TraitConstructionFacet",
            "label": "realmOffence",
            "offset": 1,
            "slot": "0",
            "type": "t_uint8"
          },
          {
            "astId": 1133,
            "contract": "contracts/facets/TraitConstructionFacet.sol:TraitConstructionFacet",
            "label": "realmMagic",
            "offset": 2,
            "slot": "0",
            "type": "t_uint8"
          },
          {
            "astId": 1135,
            "contract": "contracts/facets/TraitConstructionFacet.sol:TraitConstructionFacet",
            "label": "foodSupply",
            "offset": 3,
            "slot": "0",
            "type": "t_uint8"
          }
        ],
        "numberOfBytes": "32"
      },
      "t_struct(ResourceInfo)1170_storage": {
        "encoding": "inplace",
        "label": "struct ResourceInfo",
        "members": [
          {
            "astId": 1165,
            "contract": "contracts/facets/TraitConstructionFacet.sol:TraitConstructionFacet",
            "label": "id",
            "offset": 0,
            "slot": "0",
            "type": "t_uint8"
          },
          {
            "astId": 1167,
            "contract": "contracts/facets/TraitConstructionFacet.sol:TraitConstructionFacet",
            "label": "level",
            "offset": 1,
            "slot": "0",
            "type": "t_uint8"
          },
          {
            "astId": 1169,
            "contract": "contracts/facets/TraitConstructionFacet.sol:TraitConstructionFacet",
            "label": "production",
            "offset": 2,
            "slot": "0",
            "type": "t_uint8"
          }
        ],
        "numberOfBytes": "32"
      },
      "t_struct(UpgradeCostLevels)1223_storage": {
        "encoding": "inplace",
        "label": "struct UpgradeCostLevels",
        "members": [
          {
            "astId": 1222,
            "contract": "contracts/facets/TraitConstructionFacet.sol:TraitConstructionFacet",
            "label": "value",
            "offset": 0,
            "slot": "0",
            "type": "t_array(t_uint256)dyn_storage"
          }
        ],
        "numberOfBytes": "32"
      },
      "t_struct(UpgradeCosts)1219_storage": {
        "encoding": "inplace",
        "label": "struct UpgradeCosts",
        "members": [
          {
            "astId": 1213,
            "contract": "contracts/facets/TraitConstructionFacet.sol:TraitConstructionFacet",
            "label": "resourceIds",
            "offset": 0,
            "slot": "0",
            "type": "t_array(t_uint8)dyn_storage"
          },
          {
            "astId": 1218,
            "contract": "contracts/facets/TraitConstructionFacet.sol:TraitConstructionFacet",
            "label": "upgradeCostLevels",
            "offset": 0,
            "slot": "1",
            "type": "t_mapping(t_uint256,t_struct(UpgradeCostLevels)1223_storage)"
          }
        ],
        "numberOfBytes": "64"
      },
      "t_uint256": {
        "encoding": "inplace",
        "label": "uint256",
        "numberOfBytes": "32"
      },
      "t_uint8": {
        "encoding": "inplace",
        "label": "uint8",
        "numberOfBytes": "1"
      }
    }
  }
}