{
  "address": "0x0D9FA77DeAB0Cce9E49aa552b8c15E70fFf473b3",
  "abi": [
    {
      "inputs": [
        {
          "internalType": "uint256",
          "name": "_realmTokenId",
          "type": "uint256"
        },
        {
          "internalType": "uint256",
          "name": "_buildingID",
          "type": "uint256"
        },
        {
          "internalType": "uint256[]",
          "name": "resources",
          "type": "uint256[]"
        },
        {
          "internalType": "uint256[]",
          "name": "resourceValues",
          "type": "uint256[]"
        }
      ],
      "name": "createBuilding",
      "outputs": [],
      "stateMutability": "payable",
      "type": "function"
    },
    {
      "inputs": [
        {
          "internalType": "uint256",
          "name": "_tokenId",
          "type": "uint256"
        }
      ],
      "name": "getAquaducts",
      "outputs": [
        {
          "internalType": "uint256",
          "name": "",
          "type": "uint256"
        }
      ],
      "stateMutability": "view",
      "type": "function"
    },
    {
      "inputs": [
        {
          "internalType": "uint256",
          "name": "_index",
          "type": "uint256"
        }
      ],
      "name": "getBuildingCosts",
      "outputs": [
        {
          "internalType": "string",
          "name": "",
          "type": "string"
        },
        {
          "internalType": "uint8[]",
          "name": "",
          "type": "uint8[]"
        },
        {
          "internalType": "uint8[]",
          "name": "",
          "type": "uint8[]"
        },
        {
          "internalType": "uint8[]",
          "name": "",
          "type": "uint8[]"
        }
      ],
      "stateMutability": "view",
      "type": "function"
    },
    {
      "inputs": [],
      "name": "initBuilding",
      "outputs": [],
      "stateMutability": "nonpayable",
      "type": "function"
    }
  ],
  "transactionHash": "0x7590d30454c53a8d48293bd934807da08c9baa0f02ba5d07e8b5d19e2699ed5b",
  "args": [],
  "solcInputHash": "babff744e45a3aac439ec42bbc858aa6",
  "bytecode": "0x608060405234801561001057600080fd5b506118ec806100206000396000f3fe60806040526004361061003f5760003560e01c806330490b7e146100445780637fd215d6146100815780638c42f69014610098578063be00feed146100b4575b600080fd5b34801561005057600080fd5b5061006b60048036038101906100669190611033565b6100f4565b6040516100789190611488565b60405180910390f35b34801561008d57600080fd5b5061009661012c565b005b6100b260048036038101906100ad919061105c565b61062a565b005b3480156100c057600080fd5b506100db60048036038101906100d69190611033565b610b64565b6040516100eb9493929190611367565b60405180910390f35b6000806000600201600084815260200190815260200160002090508060000160009054906101000a900460ff1660ff16915050919050565b6040518060400160405280600781526020017f6d61726b657473000000000000000000000000000000000000000000000000008152506000600b016000808152602001908152602001600020600001908051906020019061018e929190610d97565b506040518060600160405280600160ff168152602001600260ff168152602001600360ff168152506000600b0160008081526020019081526020016000206001019060036101dd929190610e1d565b506040518060600160405280600260ff168152602001600260ff168152602001600260ff168152506000600b01600080815260200190815260200160002060020190600361022c929190610e1d565b506040518060200160405280600160ff168152506000600b016000808152602001908152602001600020600301906001610267929190610ec4565b506040518060400160405280600a81526020017f61637175616475637473000000000000000000000000000000000000000000008152506000600b0160006001815260200190815260200160002060000190805190602001906102cb929190610d97565b506040518060600160405280600160ff168152602001600260ff168152602001600360ff168152506000600b0160006001815260200190815260200160002060010190600361031b929190610e1d565b506040518060600160405280600260ff168152602001600260ff168152602001600260ff168152506000600b0160006001815260200190815260200160002060020190600361036b929190610e1d565b506040518060200160405280600360ff168152506000600b016000600181526020019081526020016000206003019060016103a7929190610ec4565b506040518060400160405280600781526020017f636173746c6573000000000000000000000000000000000000000000000000008152506000600b01600060028152602001908152602001600020600001908051906020019061040b929190610d97565b506040518060600160405280600160ff168152602001600260ff168152602001600360ff168152506000600b0160006002815260200190815260200160002060010190600361045b929190610e1d565b506040518060600160405280600260ff168152602001600260ff168152602001600260ff168152506000600b016000600281526020019081526020016000206002019060036104ab929190610e1d565b506040518060200160405280600060ff168152506000600b016000600281526020019081526020016000206003019060016104e7929190610ec4565b506040518060400160405280600581526020017f706f7274730000000000000000000000000000000000000000000000000000008152506000600b01600060038152602001908152602001600020600001908051906020019061054b929190610d97565b506040518060600160405280600160ff168152602001600260ff168152602001600360ff168152506000600b0160006003815260200190815260200160002060010190600361059b929190610e1d565b506040518060600160405280600260ff168152602001600260ff168152602001600260ff168152506000600b016000600381526020019081526020016000206002019060036105eb929190610e1d565b506040518060200160405280600260ff168152506000600b01600060038152602001908152602001600020600301906001610627929190610ec4565b50565b6000600290506000806000016000878152602001908152602001600020905060008060020160008881526020019081526020016000209050600080600b016000888152602001908152602001600020905060008060010160008a8152602001908152602001600020905060008060060160009054906101000a900473ffffffffffffffffffffffffffffffffffffffff1690506000891415610732578460040160009054906101000a900460ff1660ff168460000160039054906101000a900460ff1660ff161115610731576040517f08c379a0000000000000000000000000000000000000000000000000000000008152600401610728906113c8565b60405180910390fd5b5b60018914156107a7578460040160029054906101000a900460ff1660ff168460000160009054906101000a900460ff1660ff1611156107a6576040517f08c379a000000000000000000000000000000000000000000000000000000000815260040161079d90611468565b60405180910390fd5b5b600289141561081c578460040160039054906101000a900460ff1660ff168460000160029054906101000a900460ff1660ff16111561081b576040517f08c379a000000000000000000000000000000000000000000000000000000000815260040161081290611408565b60405180910390fd5b5b6003891415610891578460040160019054906101000a900460ff1660ff168460000160049054906101000a900460ff1660ff161115610890576040517f08c379a000000000000000000000000000000000000000000000000000000000815260040161088790611428565b60405180910390fd5b5b60005b8360010180549050811015610a76578360010181815481106108df577f4e487b7100000000000000000000000000000000000000000000000000000000600052603260045260246000fd5b90600052602060002090602091828204019190069054906101000a900460ff1660ff1689828151811061093b577f4e487b7100000000000000000000000000000000000000000000000000000000600052603260045260246000fd5b602002602001015114610983576040517f08c379a000000000000000000000000000000000000000000000000000000000815260040161097a906113e8565b60405180910390fd5b8360020181815481106109bf577f4e487b7100000000000000000000000000000000000000000000000000000000600052603260045260246000fd5b90600052602060002090602091828204019190069054906101000a900460ff1660ff16888281518110610a1b577f4e487b7100000000000000000000000000000000000000000000000000000000600052603260045260246000fd5b602002602001015114610a63576040517f08c379a0000000000000000000000000000000000000000000000000000000008152600401610a5a90611448565b60405180910390fd5b8080610a6e90611698565b915050610894565b508073ffffffffffffffffffffffffffffffffffffffff1663ddb6f7f1338a8a6040518463ffffffff1660e01b8152600401610ab493929190611322565b600060405180830381600087803b158015610ace57600080fd5b505af1158015610ae2573d6000803e3d6000fd5b5050505083600001600081819054906101000a900460ff1680929190610b07906116e1565b91906101000a81548160ff021916908360ff16021790555050858260000160038282829054906101000a900460ff16610b409190611582565b92506101000a81548160ff021916908360ff16021790555050505050505050505050565b606080606080600080600b016000878152602001908152602001600020905080600001816001018260020183600301838054610b9f90611635565b80601f0160208091040260200160405190810160405280929190818152602001828054610bcb90611635565b8015610c185780601f10610bed57610100808354040283529160200191610c18565b820191906000526020600020905b815481529060010190602001808311610bfb57829003601f168201915b5050505050935082805480602002602001604051908101604052809291908181526020018280548015610c9057602002820191906000526020600020906000905b82829054906101000a900460ff1660ff1681526020019060010190602082600001049283019260010382029150808411610c595790505b5050505050925081805480602002602001604051908101604052809291908181526020018280548015610d0857602002820191906000526020600020906000905b82829054906101000a900460ff1660ff1681526020019060010190602082600001049283019260010382029150808411610cd15790505b5050505050915080805480602002602001604051908101604052809291908181526020018280548015610d8057602002820191906000526020600020906000905b82829054906101000a900460ff1660ff1681526020019060010190602082600001049283019260010382029150808411610d495790505b505050505090509450945094509450509193509193565b828054610da390611635565b90600052602060002090601f016020900481019282610dc55760008555610e0c565b82601f10610dde57805160ff1916838001178555610e0c565b82800160010185558215610e0c579182015b82811115610e0b578251825591602001919060010190610df0565b5b509050610e199190610f6b565b5090565b82805482825590600052602060002090601f01602090048101928215610eb35791602002820160005b83821115610e8457835183826101000a81548160ff021916908360ff1602179055509260200192600101602081600001049283019260010302610e46565b8015610eb15782816101000a81549060ff0219169055600101602081600001049283019260010302610e84565b505b509050610ec09190610f6b565b5090565b82805482825590600052602060002090601f01602090048101928215610f5a5791602002820160005b83821115610f2b57835183826101000a81548160ff021916908360ff1602179055509260200192600101602081600001049283019260010302610eed565b8015610f585782816101000a81549060ff0219169055600101602081600001049283019260010302610f2b565b505b509050610f679190610f6b565b5090565b5b80821115610f84576000816000905550600101610f6c565b5090565b6000610f9b610f96846114c8565b6114a3565b90508083825260208201905082856020860282011115610fba57600080fd5b60005b85811015610fea5781610fd0888261101e565b845260208401935060208301925050600181019050610fbd565b5050509392505050565b600082601f83011261100557600080fd5b8135611015848260208601610f88565b91505092915050565b60008135905061102d8161189f565b92915050565b60006020828403121561104557600080fd5b60006110538482850161101e565b91505092915050565b6000806000806080858703121561107257600080fd5b60006110808782880161101e565b94505060206110918782880161101e565b935050604085013567ffffffffffffffff8111156110ae57600080fd5b6110ba87828801610ff4565b925050606085013567ffffffffffffffff8111156110d757600080fd5b6110e387828801610ff4565b91505092959194509250565b60006110fb83836112f5565b60208301905092915050565b60006111138383611313565b60208301905092915050565b611128816115b9565b82525050565b600061113982611514565b611143818561154f565b935061114e836114f4565b8060005b8381101561117f57815161116688826110ef565b975061117183611535565b925050600181019050611152565b5085935050505092915050565b60006111978261151f565b6111a18185611560565b93506111ac83611504565b8060005b838110156111dd5781516111c48882611107565b97506111cf83611542565b9250506001810190506111b0565b5085935050505092915050565b60006111f58261152a565b6111ff8185611571565b935061120f818560208601611602565b61121881611798565b840191505092915050565b6000611230601a83611571565b915061123b826117a9565b602082019050919050565b6000611253601283611571565b915061125e826117d2565b602082019050919050565b6000611276601b83611571565b9150611281826117fb565b602082019050919050565b6000611299601c83611571565b91506112a482611824565b602082019050919050565b60006112bc601a83611571565b91506112c78261184d565b602082019050919050565b60006112df601a83611571565b91506112ea82611876565b602082019050919050565b6112fe816115eb565b82525050565b61130d816115eb565b82525050565b61131c816115f5565b82525050565b6000606082019050611337600083018661111f565b8181036020830152611349818561112e565b9050818103604083015261135d818461112e565b9050949350505050565b6000608082019050818103600083015261138181876111ea565b90508181036020830152611395818661118c565b905081810360408301526113a9818561118c565b905081810360608301526113bd818461118c565b905095945050505050565b600060208201905081810360008301526113e181611223565b9050919050565b6000602082019050818103600083015261140181611246565b9050919050565b6000602082019050818103600083015261142181611269565b9050919050565b600060208201905081810360008301526114418161128c565b9050919050565b60006020820190508181036000830152611461816112af565b9050919050565b60006020820190508181036000830152611481816112d2565b9050919050565b600060208201905061149d6000830184611304565b92915050565b60006114ad6114be565b90506114b98282611667565b919050565b6000604051905090565b600067ffffffffffffffff8211156114e3576114e2611769565b5b602082029050602081019050919050565b6000819050602082019050919050565b6000819050602082019050919050565b600081519050919050565b600081519050919050565b600081519050919050565b6000602082019050919050565b6000602082019050919050565b600082825260208201905092915050565b600082825260208201905092915050565b600082825260208201905092915050565b600061158d826115f5565b9150611598836115f5565b92508260ff038211156115ae576115ad61170b565b5b828201905092915050565b60006115c4826115cb565b9050919050565b600073ffffffffffffffffffffffffffffffffffffffff82169050919050565b6000819050919050565b600060ff82169050919050565b60005b83811015611620578082015181840152602081019050611605565b8381111561162f576000848401525b50505050565b6000600282049050600182168061164d57607f821691505b602082108114156116615761166061173a565b5b50919050565b61167082611798565b810181811067ffffffffffffffff8211171561168f5761168e611769565b5b80604052505050565b60006116a3826115eb565b91507fffffffffffffffffffffffffffffffffffffffffffffffffffffffffffffffff8214156116d6576116d561170b565b5b600182019050919050565b60006116ec826115f5565b915060ff821415611700576116ff61170b565b5b600182019050919050565b7f4e487b7100000000000000000000000000000000000000000000000000000000600052601160045260246000fd5b7f4e487b7100000000000000000000000000000000000000000000000000000000600052602260045260246000fd5b7f4e487b7100000000000000000000000000000000000000000000000000000000600052604160045260246000fd5b6000601f19601f8301169050919050565b7f4e6f20636974696573206c65667420746f206275696c64206f6e000000000000600082015250565b7f496e636f7272656374207265736f757263650000000000000000000000000000600082015250565b7f4e6f20726567696f6e73206c65667420746f206275696c64206f6e0000000000600082015250565b7f4e6f20686172626f757273206c65667420746f206275696c64206f6e00000000600082015250565b7f496e636f7272656374207265736f75726365732076616c756573000000000000600082015250565b7f4e6f20726976657273206c65667420746f206275696c64206f6e000000000000600082015250565b6118a8816115eb565b81146118b357600080fd5b5056fea264697066735822122017593baf06acde86af51eade41ee2997ddb055856bb0d9190e3e748f184d681664736f6c63430008030033",
  "devdoc": {
    "kind": "dev",
    "methods": {},
    "version": 1
  },
  "userdoc": {
    "kind": "user",
    "methods": {},
    "version": 1
  },
  "storageLayout": {
    "storage": [
      {
        "astId": 7437,
        "contract": "contracts/facets/TraitConstructionFacet.sol:TraitConstructionFacet",
        "label": "s",
        "offset": 0,
        "slot": "0",
        "type": "t_struct(AppStorage)10585_storage"
      }
    ],
    "types": {
      "t_address": {
        "encoding": "inplace",
        "label": "address",
        "numberOfBytes": "20"
      },
      "t_array(t_uint256)dyn_storage": {
        "base": "t_uint256",
        "encoding": "dynamic_array",
        "label": "uint256[]",
        "numberOfBytes": "32"
      },
      "t_array(t_uint8)dyn_storage": {
        "base": "t_uint8",
        "encoding": "dynamic_array",
        "label": "uint8[]",
        "numberOfBytes": "32"
      },
      "t_mapping(t_uint256,t_struct(BuildingCosts)10656_storage)": {
        "encoding": "mapping",
        "key": "t_uint256",
        "label": "mapping(uint256 => struct BuildingCosts)",
        "numberOfBytes": "32",
        "value": "t_struct(BuildingCosts)10656_storage"
      },
      "t_mapping(t_uint256,t_struct(BuildingUpgradeCosts)10665_storage)": {
        "encoding": "mapping",
        "key": "t_uint256",
        "label": "mapping(uint256 => struct BuildingUpgradeCosts)",
        "numberOfBytes": "32",
        "value": "t_struct(BuildingUpgradeCosts)10665_storage"
      },
      "t_mapping(t_uint256,t_struct(LevelProduction)10668_storage)": {
        "encoding": "mapping",
        "key": "t_uint256",
        "label": "mapping(uint256 => struct LevelProduction)",
        "numberOfBytes": "32",
        "value": "t_struct(LevelProduction)10668_storage"
      },
      "t_mapping(t_uint256,t_struct(RealmBuildings)10644_storage)": {
        "encoding": "mapping",
        "key": "t_uint256",
        "label": "mapping(uint256 => struct RealmBuildings)",
        "numberOfBytes": "32",
        "value": "t_struct(RealmBuildings)10644_storage"
      },
      "t_mapping(t_uint256,t_struct(RealmInfo)10621_storage)": {
        "encoding": "mapping",
        "key": "t_uint256",
        "label": "mapping(uint256 => struct RealmInfo)",
        "numberOfBytes": "32",
        "value": "t_struct(RealmInfo)10621_storage"
      },
      "t_mapping(t_uint256,t_struct(RealmStatistics)10594_storage)": {
        "encoding": "mapping",
        "key": "t_uint256",
        "label": "mapping(uint256 => struct RealmStatistics)",
        "numberOfBytes": "32",
        "value": "t_struct(RealmStatistics)10594_storage"
      },
      "t_mapping(t_uint256,t_struct(ResourceInfo)10628_storage)": {
        "encoding": "mapping",
        "key": "t_uint256",
        "label": "mapping(uint256 => struct ResourceInfo)",
        "numberOfBytes": "32",
        "value": "t_struct(ResourceInfo)10628_storage"
      },
      "t_mapping(t_uint256,t_struct(UpgradeCostLevels)10681_storage)": {
        "encoding": "mapping",
        "key": "t_uint256",
        "label": "mapping(uint256 => struct UpgradeCostLevels)",
        "numberOfBytes": "32",
        "value": "t_struct(UpgradeCostLevels)10681_storage"
      },
      "t_mapping(t_uint256,t_struct(UpgradeCosts)10677_storage)": {
        "encoding": "mapping",
        "key": "t_uint256",
        "label": "mapping(uint256 => struct UpgradeCosts)",
        "numberOfBytes": "32",
        "value": "t_struct(UpgradeCosts)10677_storage"
      },
      "t_string_storage": {
        "encoding": "bytes",
        "label": "string",
        "numberOfBytes": "32"
      },
      "t_struct(AppStorage)10585_storage": {
        "encoding": "inplace",
        "label": "struct AppStorage",
        "members": [
          {
            "astId": 10540,
            "contract": "contracts/facets/TraitConstructionFacet.sol:TraitConstructionFacet",
            "label": "realmInfo",
            "offset": 0,
            "slot": "0",
            "type": "t_mapping(t_uint256,t_struct(RealmInfo)10621_storage)"
          },
          {
            "astId": 10545,
            "contract": "contracts/facets/TraitConstructionFacet.sol:TraitConstructionFacet",
            "label": "realmStatistics",
            "offset": 0,
            "slot": "1",
            "type": "t_mapping(t_uint256,t_struct(RealmStatistics)10594_storage)"
          },
          {
            "astId": 10550,
            "contract": "contracts/facets/TraitConstructionFacet.sol:TraitConstructionFacet",
            "label": "realmBuildings",
            "offset": 0,
            "slot": "2",
            "type": "t_mapping(t_uint256,t_struct(RealmBuildings)10644_storage)"
          },
          {
            "astId": 10552,
            "contract": "contracts/facets/TraitConstructionFacet.sol:TraitConstructionFacet",
            "label": "baseProductionRate",
            "offset": 0,
            "slot": "3",
            "type": "t_uint8"
          },
          {
            "astId": 10554,
            "contract": "contracts/facets/TraitConstructionFacet.sol:TraitConstructionFacet",
            "label": "maxProductionRate",
            "offset": 1,
            "slot": "3",
            "type": "t_uint8"
          },
          {
            "astId": 10556,
            "contract": "contracts/facets/TraitConstructionFacet.sol:TraitConstructionFacet",
            "label": "sRealms",
            "offset": 2,
            "slot": "3",
            "type": "t_address"
          },
          {
            "astId": 10558,
            "contract": "contracts/facets/TraitConstructionFacet.sol:TraitConstructionFacet",
            "label": "realms",
            "offset": 0,
            "slot": "4",
            "type": "t_address"
          },
          {
            "astId": 10560,
            "contract": "contracts/facets/TraitConstructionFacet.sol:TraitConstructionFacet",
            "label": "treasury",
            "offset": 0,
            "slot": "5",
            "type": "t_address"
          },
          {
            "astId": 10562,
            "contract": "contracts/facets/TraitConstructionFacet.sol:TraitConstructionFacet",
            "label": "resources",
            "offset": 0,
            "slot": "6",
            "type": "t_address"
          },
          {
            "astId": 10564,
            "contract": "contracts/facets/TraitConstructionFacet.sol:TraitConstructionFacet",
            "label": "oracle",
            "offset": 0,
            "slot": "7",
            "type": "t_address"
          },
          {
            "astId": 10569,
            "contract": "contracts/facets/TraitConstructionFacet.sol:TraitConstructionFacet",
            "label": "levelProduction",
            "offset": 0,
            "slot": "8",
            "type": "t_mapping(t_uint256,t_struct(LevelProduction)10668_storage)"
          },
          {
            "astId": 10574,
            "contract": "contracts/facets/TraitConstructionFacet.sol:TraitConstructionFacet",
            "label": "upgradeCosts",
            "offset": 0,
            "slot": "9",
            "type": "t_mapping(t_uint256,t_struct(UpgradeCosts)10677_storage)"
          },
          {
            "astId": 10579,
            "contract": "contracts/facets/TraitConstructionFacet.sol:TraitConstructionFacet",
            "label": "buildingUpgradeCosts",
            "offset": 0,
            "slot": "10",
            "type": "t_mapping(t_uint256,t_struct(BuildingUpgradeCosts)10665_storage)"
          },
          {
            "astId": 10584,
            "contract": "contracts/facets/TraitConstructionFacet.sol:TraitConstructionFacet",
            "label": "buildingCosts",
            "offset": 0,
            "slot": "11",
            "type": "t_mapping(t_uint256,t_struct(BuildingCosts)10656_storage)"
          }
        ],
        "numberOfBytes": "384"
      },
      "t_struct(BuildingCosts)10656_storage": {
        "encoding": "inplace",
        "label": "struct BuildingCosts",
        "members": [
          {
            "astId": 10646,
            "contract": "contracts/facets/TraitConstructionFacet.sol:TraitConstructionFacet",
            "label": "name",
            "offset": 0,
            "slot": "0",
            "type": "t_string_storage"
          },
          {
            "astId": 10649,
            "contract": "contracts/facets/TraitConstructionFacet.sol:TraitConstructionFacet",
            "label": "resourceIds",
            "offset": 0,
            "slot": "1",
            "type": "t_array(t_uint8)dyn_storage"
          },
          {
            "astId": 10652,
            "contract": "contracts/facets/TraitConstructionFacet.sol:TraitConstructionFacet",
            "label": "resourceValues",
            "offset": 0,
            "slot": "2",
            "type": "t_array(t_uint8)dyn_storage"
          },
          {
            "astId": 10655,
            "contract": "contracts/facets/TraitConstructionFacet.sol:TraitConstructionFacet",
            "label": "requirements",
            "offset": 0,
            "slot": "3",
            "type": "t_array(t_uint8)dyn_storage"
          }
        ],
        "numberOfBytes": "128"
      },
      "t_struct(BuildingUpgradeCosts)10665_storage": {
        "encoding": "inplace",
        "label": "struct BuildingUpgradeCosts",
        "members": [
          {
            "astId": 10659,
            "contract": "contracts/facets/TraitConstructionFacet.sol:TraitConstructionFacet",
            "label": "realmBuildings",
            "offset": 0,
            "slot": "0",
            "type": "t_array(t_uint8)dyn_storage"
          },
          {
            "astId": 10664,
            "contract": "contracts/facets/TraitConstructionFacet.sol:TraitConstructionFacet",
            "label": "buildingCosts",
            "offset": 0,
            "slot": "1",
            "type": "t_mapping(t_uint256,t_struct(BuildingCosts)10656_storage)"
          }
        ],
        "numberOfBytes": "64"
      },
      "t_struct(LevelProduction)10668_storage": {
        "encoding": "inplace",
        "label": "struct LevelProduction",
        "members": [
          {
            "astId": 10667,
            "contract": "contracts/facets/TraitConstructionFacet.sol:TraitConstructionFacet",
            "label": "output",
            "offset": 0,
            "slot": "0",
            "type": "t_uint8"
          }
        ],
        "numberOfBytes": "32"
      },
      "t_struct(RealmBuildings)10644_storage": {
        "encoding": "inplace",
        "label": "struct RealmBuildings",
        "members": [
          {
            "astId": 10635,
            "contract": "contracts/facets/TraitConstructionFacet.sol:TraitConstructionFacet",
            "label": "aquaducts",
            "offset": 0,
            "slot": "0",
            "type": "t_uint8"
          },
          {
            "astId": 10637,
            "contract": "contracts/facets/TraitConstructionFacet.sol:TraitConstructionFacet",
            "label": "temples",
            "offset": 1,
            "slot": "0",
            "type": "t_uint8"
          },
          {
            "astId": 10639,
            "contract": "contracts/facets/TraitConstructionFacet.sol:TraitConstructionFacet",
            "label": "castles",
            "offset": 2,
            "slot": "0",
            "type": "t_uint8"
          },
          {
            "astId": 10641,
            "contract": "contracts/facets/TraitConstructionFacet.sol:TraitConstructionFacet",
            "label": "markets",
            "offset": 3,
            "slot": "0",
            "type": "t_uint8"
          },
          {
            "astId": 10643,
            "contract": "contracts/facets/TraitConstructionFacet.sol:TraitConstructionFacet",
            "label": "ports",
            "offset": 4,
            "slot": "0",
            "type": "t_uint8"
          }
        ],
        "numberOfBytes": "32"
      },
      "t_struct(RealmInfo)10621_storage": {
        "encoding": "inplace",
        "label": "struct RealmInfo",
        "members": [
          {
            "astId": 10596,
            "contract": "contracts/facets/TraitConstructionFacet.sol:TraitConstructionFacet",
            "label": "tokenId",
            "offset": 0,
            "slot": "0",
            "type": "t_uint256"
          },
          {
            "astId": 10598,
            "contract": "contracts/facets/TraitConstructionFacet.sol:TraitConstructionFacet",
            "label": "name",
            "offset": 0,
            "slot": "1",
            "type": "t_string_storage"
          },
          {
            "astId": 10600,
            "contract": "contracts/facets/TraitConstructionFacet.sol:TraitConstructionFacet",
            "label": "lastUpdateAt",
            "offset": 0,
            "slot": "2",
            "type": "t_uint256"
          },
          {
            "astId": 10602,
            "contract": "contracts/facets/TraitConstructionFacet.sol:TraitConstructionFacet",
            "label": "vestedTimeUpdatedAt",
            "offset": 0,
            "slot": "3",
            "type": "t_uint256"
          },
          {
            "astId": 10604,
            "contract": "contracts/facets/TraitConstructionFacet.sol:TraitConstructionFacet",
            "label": "cities",
            "offset": 0,
            "slot": "4",
            "type": "t_uint8"
          },
          {
            "astId": 10606,
            "contract": "contracts/facets/TraitConstructionFacet.sol:TraitConstructionFacet",
            "label": "harbours",
            "offset": 1,
            "slot": "4",
            "type": "t_uint8"
          },
          {
            "astId": 10608,
            "contract": "contracts/facets/TraitConstructionFacet.sol:TraitConstructionFacet",
            "label": "rivers",
            "offset": 2,
            "slot": "4",
            "type": "t_uint8"
          },
          {
            "astId": 10610,
            "contract": "contracts/facets/TraitConstructionFacet.sol:TraitConstructionFacet",
            "label": "regions",
            "offset": 3,
            "slot": "4",
            "type": "t_uint8"
          },
          {
            "astId": 10612,
            "contract": "contracts/facets/TraitConstructionFacet.sol:TraitConstructionFacet",
            "label": "wonders",
            "offset": 4,
            "slot": "4",
            "type": "t_uint8"
          },
          {
            "astId": 10615,
            "contract": "contracts/facets/TraitConstructionFacet.sol:TraitConstructionFacet",
            "label": "resourceIds",
            "offset": 0,
            "slot": "5",
            "type": "t_array(t_uint256)dyn_storage"
          },
          {
            "astId": 10620,
            "contract": "contracts/facets/TraitConstructionFacet.sol:TraitConstructionFacet",
            "label": "resourceInfo",
            "offset": 0,
            "slot": "6",
            "type": "t_mapping(t_uint256,t_struct(ResourceInfo)10628_storage)"
          }
        ],
        "numberOfBytes": "224"
      },
      "t_struct(RealmStatistics)10594_storage": {
        "encoding": "inplace",
        "label": "struct RealmStatistics",
        "members": [
          {
            "astId": 10587,
            "contract": "contracts/facets/TraitConstructionFacet.sol:TraitConstructionFacet",
            "label": "realmDefence",
            "offset": 0,
            "slot": "0",
            "type": "t_uint8"
          },
          {
            "astId": 10589,
            "contract": "contracts/facets/TraitConstructionFacet.sol:TraitConstructionFacet",
            "label": "realmOffence",
            "offset": 1,
            "slot": "0",
            "type": "t_uint8"
          },
          {
            "astId": 10591,
            "contract": "contracts/facets/TraitConstructionFacet.sol:TraitConstructionFacet",
            "label": "realmMagic",
            "offset": 2,
            "slot": "0",
            "type": "t_uint8"
          },
          {
            "astId": 10593,
            "contract": "contracts/facets/TraitConstructionFacet.sol:TraitConstructionFacet",
            "label": "foodSupply",
            "offset": 3,
            "slot": "0",
            "type": "t_uint8"
          }
        ],
        "numberOfBytes": "32"
      },
      "t_struct(ResourceInfo)10628_storage": {
        "encoding": "inplace",
        "label": "struct ResourceInfo",
        "members": [
          {
            "astId": 10623,
            "contract": "contracts/facets/TraitConstructionFacet.sol:TraitConstructionFacet",
            "label": "id",
            "offset": 0,
            "slot": "0",
            "type": "t_uint8"
          },
          {
            "astId": 10625,
            "contract": "contracts/facets/TraitConstructionFacet.sol:TraitConstructionFacet",
            "label": "level",
            "offset": 1,
            "slot": "0",
            "type": "t_uint8"
          },
          {
            "astId": 10627,
            "contract": "contracts/facets/TraitConstructionFacet.sol:TraitConstructionFacet",
            "label": "production",
            "offset": 2,
            "slot": "0",
            "type": "t_uint8"
          }
        ],
        "numberOfBytes": "32"
      },
      "t_struct(UpgradeCostLevels)10681_storage": {
        "encoding": "inplace",
        "label": "struct UpgradeCostLevels",
        "members": [
          {
            "astId": 10680,
            "contract": "contracts/facets/TraitConstructionFacet.sol:TraitConstructionFacet",
            "label": "value",
            "offset": 0,
            "slot": "0",
            "type": "t_array(t_uint256)dyn_storage"
          }
        ],
        "numberOfBytes": "32"
      },
      "t_struct(UpgradeCosts)10677_storage": {
        "encoding": "inplace",
        "label": "struct UpgradeCosts",
        "members": [
          {
            "astId": 10671,
            "contract": "contracts/facets/TraitConstructionFacet.sol:TraitConstructionFacet",
            "label": "resourceIds",
            "offset": 0,
            "slot": "0",
            "type": "t_array(t_uint8)dyn_storage"
          },
          {
            "astId": 10676,
            "contract": "contracts/facets/TraitConstructionFacet.sol:TraitConstructionFacet",
            "label": "upgradeCostLevels",
            "offset": 0,
            "slot": "1",
            "type": "t_mapping(t_uint256,t_struct(UpgradeCostLevels)10681_storage)"
          }
        ],
        "numberOfBytes": "64"
      },
      "t_uint256": {
        "encoding": "inplace",
        "label": "uint256",
        "numberOfBytes": "32"
      },
      "t_uint8": {
        "encoding": "inplace",
        "label": "uint8",
        "numberOfBytes": "1"
      }
    }
  }
}