{
  "address": "0xa5E9e18f0E055d8927a28367587E75715554D306",
  "abi": [
    {
      "anonymous": false,
      "inputs": [
        {
          "indexed": false,
          "internalType": "address",
          "name": "owner",
          "type": "address"
        },
        {
          "indexed": false,
          "internalType": "uint256",
          "name": "realmTokenId",
          "type": "uint256"
        },
        {
          "indexed": false,
          "internalType": "uint256",
          "name": "buildingId",
          "type": "uint256"
        }
      ],
      "name": "ConstructionEvent",
      "type": "event"
    },
    {
      "inputs": [
        {
          "internalType": "uint256",
          "name": "_realmTokenId",
          "type": "uint256"
        },
        {
          "internalType": "uint256",
          "name": "_buildingID",
          "type": "uint256"
        },
        {
          "internalType": "uint256[]",
          "name": "resources",
          "type": "uint256[]"
        },
        {
          "internalType": "uint256[]",
          "name": "resourceValues",
          "type": "uint256[]"
        }
      ],
      "name": "createBuilding",
      "outputs": [],
      "stateMutability": "payable",
      "type": "function"
    },
    {
      "inputs": [
        {
          "internalType": "uint256",
          "name": "_index",
          "type": "uint256"
        }
      ],
      "name": "getAllBuildingStats",
      "outputs": [
        {
          "internalType": "string",
          "name": "",
          "type": "string"
        },
        {
          "internalType": "uint32[]",
          "name": "",
          "type": "uint32[]"
        },
        {
          "internalType": "uint32[]",
          "name": "",
          "type": "uint32[]"
        },
        {
          "internalType": "uint32[]",
          "name": "",
          "type": "uint32[]"
        },
        {
          "internalType": "int32",
          "name": "",
          "type": "int32"
        },
        {
          "internalType": "int32",
          "name": "",
          "type": "int32"
        },
        {
          "internalType": "int32",
          "name": "",
          "type": "int32"
        },
        {
          "internalType": "int32",
          "name": "",
          "type": "int32"
        },
        {
          "internalType": "int32",
          "name": "",
          "type": "int32"
        }
      ],
      "stateMutability": "view",
      "type": "function"
    },
    {
      "inputs": [
        {
          "internalType": "uint256",
          "name": "_index",
          "type": "uint256"
        }
      ],
      "name": "getBuildingCosts",
      "outputs": [
        {
          "internalType": "uint32[]",
          "name": "",
          "type": "uint32[]"
        },
        {
          "internalType": "uint32[]",
          "name": "",
          "type": "uint32[]"
        },
        {
          "internalType": "uint32[]",
          "name": "",
          "type": "uint32[]"
        }
      ],
      "stateMutability": "view",
      "type": "function"
    },
    {
      "inputs": [
        {
          "internalType": "uint256",
          "name": "_realmTokenId",
          "type": "uint256"
        }
      ],
      "name": "getBuildings",
      "outputs": [
        {
          "internalType": "uint8",
          "name": "",
          "type": "uint8"
        },
        {
          "internalType": "uint8",
          "name": "",
          "type": "uint8"
        },
        {
          "internalType": "uint8",
          "name": "",
          "type": "uint8"
        },
        {
          "internalType": "uint8",
          "name": "",
          "type": "uint8"
        },
        {
          "internalType": "uint8",
          "name": "",
          "type": "uint8"
        },
        {
          "internalType": "uint8",
          "name": "",
          "type": "uint8"
        },
        {
          "internalType": "uint8",
          "name": "",
          "type": "uint8"
        },
        {
          "internalType": "uint8",
          "name": "",
          "type": "uint8"
        },
        {
          "internalType": "uint8",
          "name": "",
          "type": "uint8"
        }
      ],
      "stateMutability": "view",
      "type": "function"
    }
  ],
  "transactionHash": "0x07ad22753ef58fb01be77fbfd3f188c282833e38038719de5c80c93298fa3e3f",
  "args": [],
  "solcInputHash": "828df6be63b98841c3bc4bb9a4f76f86",
  "bytecode": "0x608060405234801561001057600080fd5b50611efa806100206000396000f3fe60806040526004361061003f5760003560e01c806359389ead146100445780638c42f69014610089578063be00feed146100a5578063ca8c3462146100e4575b600080fd5b34801561005057600080fd5b5061006b600480360381019061006691906113ea565b610129565b604051610080999897969594939291906117e2565b60405180910390f35b6100a3600480360381019061009e9190611413565b6103e0565b005b3480156100b157600080fd5b506100cc60048036038101906100c791906113ea565b611066565b6040516100db93929190611796565b60405180910390f35b3480156100f057600080fd5b5061010b600480360381019061010691906113ea565b611218565b60405161012099989796959493929190611986565b60405180910390f35b6060806060806000806000806000806000600c0160008c81526020019081526020016000209050806000018160010182600201836003018460040160009054906101000a900460030b8560040160049054906101000a900460030b8660040160089054906101000a900460030b87600401600c9054906101000a900460030b8860040160109054906101000a900460030b8880546101c690611c03565b80601f01602080910402602001604051908101604052809291908181526020018280546101f290611c03565b801561023f5780601f106102145761010080835404028352916020019161023f565b820191906000526020600020905b81548152906001019060200180831161022257829003601f168201915b50505050509850878054806020026020016040519081016040528092919081815260200182805480156102bd57602002820191906000526020600020906000905b82829054906101000a900463ffffffff1663ffffffff16815260200190600401906020826003010492830192600103820291508084116102805790505b505050505097508680548060200260200160405190810160405280929190818152602001828054801561033b57602002820191906000526020600020906000905b82829054906101000a900463ffffffff1663ffffffff16815260200190600401906020826003010492830192600103820291508084116102fe5790505b50505050509650858054806020026020016040519081016040528092919081815260200182805480156103b957602002820191906000526020600020906000905b82829054906101000a900463ffffffff1663ffffffff168152602001906004019060208260030104928301926001038202915080841161037c5790505b50505050509550995099509950995099509950995099509950509193959799909294969850565b8360008060030160029054906101000a900473ffffffffffffffffffffffffffffffffffffffff1690508073ffffffffffffffffffffffffffffffffffffffff16636352211e836040518263ffffffff1660e01b8152600401610443919061196b565b60206040518083038186803b15801561045b57600080fd5b505afa15801561046f573d6000803e3d6000fd5b505050506040513d601f19601f8201168201806040525081019061049391906113c1565b73ffffffffffffffffffffffffffffffffffffffff163373ffffffffffffffffffffffffffffffffffffffff1614610500576040517f08c379a00000000000000000000000000000000000000000000000000000000081526004016104f7906118ab565b60405180910390fd5b6000806000016000888152602001908152602001600020905060008060020160008981526020019081526020016000209050600080600c016000898152602001908152602001600020905060008060010160008b8152602001908152602001600020905060008060060160009054906101000a900473ffffffffffffffffffffffffffffffffffffffff16905060008a141561063c578460060160009054906101000a900460ff1660ff168460000160039054906101000a900460ff1660ff161115610601576040517f08c379a00000000000000000000000000000000000000000000000000000000081526004016105f89061188b565b60405180910390fd5b83600001600381819054906101000a900460ff168092919061062290611caf565b91906101000a81548160ff021916908360ff160217905550505b60018a14156106eb578460060160029054906101000a900460ff1660ff168460000160009054906101000a900460ff1660ff1611156106b0576040517f08c379a00000000000000000000000000000000000000000000000000000000081526004016106a79061190b565b60405180910390fd5b83600001600081819054906101000a900460ff16809291906106d190611caf565b91906101000a81548160ff021916908360ff160217905550505b60028a141561079a578460060160039054906101000a900460ff1660ff168460000160029054906101000a900460ff1660ff16111561075f576040517f08c379a0000000000000000000000000000000000000000000000000000000008152600401610756906118cb565b60405180910390fd5b83600001600281819054906101000a900460ff168092919061078090611caf565b91906101000a81548160ff021916908360ff160217905550505b60038a1415610849578460060160019054906101000a900460ff1660ff168460000160049054906101000a900460ff1660ff16111561080e576040517f08c379a00000000000000000000000000000000000000000000000000000000081526004016108059061194b565b60405180910390fd5b83600001600481819054906101000a900460ff168092919061082f90611caf565b91906101000a81548160ff021916908360ff160217905550505b60048a14156108f8578460060160009054906101000a900460ff1660ff168460000160059054906101000a900460ff1660ff1611156108bd576040517f08c379a00000000000000000000000000000000000000000000000000000000081526004016108b49061188b565b60405180910390fd5b83600001600581819054906101000a900460ff16809291906108de90611caf565b91906101000a81548160ff021916908360ff160217905550505b60058a14156109a7578460060160009054906101000a900460ff1660ff168460000160069054906101000a900460ff1660ff16111561096c576040517f08c379a00000000000000000000000000000000000000000000000000000000081526004016109639061188b565b60405180910390fd5b83600001600681819054906101000a900460ff168092919061098d90611caf565b91906101000a81548160ff021916908360ff160217905550505b60068a1415610a56578460060160039054906101000a900460ff1660ff168460000160019054906101000a900460ff1660ff161115610a1b576040517f08c379a0000000000000000000000000000000000000000000000000000000008152600401610a12906118cb565b60405180910390fd5b83600001600181819054906101000a900460ff1680929190610a3c90611caf565b91906101000a81548160ff021916908360ff160217905550505b60078a1415610b05578460060160019054906101000a900460ff1660ff168460000160079054906101000a900460ff1660ff161115610aca576040517f08c379a0000000000000000000000000000000000000000000000000000000008152600401610ac19061194b565b60405180910390fd5b83600001600781819054906101000a900460ff1680929190610aeb90611caf565b91906101000a81548160ff021916908360ff160217905550505b60088a1415610bb4578460060160029054906101000a900460ff1660ff168460000160089054906101000a900460ff1660ff161115610b79576040517f08c379a0000000000000000000000000000000000000000000000000000000008152600401610b709061190b565b60405180910390fd5b83600001600881819054906101000a900460ff1680929190610b9a90611caf565b91906101000a81548160ff021916908360ff160217905550505b60005b8360010180549050811015610dab57836001018181548110610c02577f4e487b7100000000000000000000000000000000000000000000000000000000600052603260045260246000fd5b90600052602060002090600891828204019190066004029054906101000a900463ffffffff1663ffffffff168a8281518110610c67577f4e487b7100000000000000000000000000000000000000000000000000000000600052603260045260246000fd5b602002602001015114610caf576040517f08c379a0000000000000000000000000000000000000000000000000000000008152600401610ca6906118eb565b60405180910390fd5b836002018181548110610ceb577f4e487b7100000000000000000000000000000000000000000000000000000000600052603260045260246000fd5b90600052602060002090600891828204019190066004029054906101000a900463ffffffff1663ffffffff16898281518110610d50577f4e487b7100000000000000000000000000000000000000000000000000000000600052603260045260246000fd5b602002602001015114610d98576040517f08c379a0000000000000000000000000000000000000000000000000000000008152600401610d8f9061192b565b60405180910390fd5b8080610da390611c66565b915050610bb7565b506000600c0160008b8152602001908152602001600020600401600c9054906101000a900460030b8260000160108282829054906101000a900460030b610df29190611af2565b92506101000a81548163ffffffff021916908360030b63ffffffff1602179055506000600c0160008b815260200190815260200160002060040160109054906101000a900460030b82600001600c8282829054906101000a900460030b610e599190611af2565b92506101000a81548163ffffffff021916908360030b63ffffffff1602179055506000600c0160008b815260200190815260200160002060040160049054906101000a900460030b8260000160048282829054906101000a900460030b610ec09190611af2565b92506101000a81548163ffffffff021916908360030b63ffffffff1602179055506000600c0160008b815260200190815260200160002060040160009054906101000a900460030b8260000160008282829054906101000a900460030b610f279190611af2565b92506101000a81548163ffffffff021916908360030b63ffffffff1602179055506000600c0160008b815260200190815260200160002060040160089054906101000a900460030b8260000160088282829054906101000a900460030b610f8e9190611af2565b92506101000a81548163ffffffff021916908360030b63ffffffff1602179055508073ffffffffffffffffffffffffffffffffffffffff1663ddb6f7f1338b8b6040518463ffffffff1660e01b8152600401610fec9392919061171a565b600060405180830381600087803b15801561100657600080fd5b505af115801561101a573d6000803e3d6000fd5b505050507f23b0dc18349873b0095e82b115dd5e0b7bcde4ed3ba5505395d4f3304da15c3a338c8c6040516110519392919061175f565b60405180910390a15050505050505050505050565b6060806060600080600c01600086815260200190815260200160002090508060010181600201826003018280548060200260200160405190810160405280929190818152602001828054801561110757602002820191906000526020600020906000905b82829054906101000a900463ffffffff1663ffffffff16815260200190600401906020826003010492830192600103820291508084116110ca5790505b505050505092508180548060200260200160405190810160405280929190818152602001828054801561118557602002820191906000526020600020906000905b82829054906101000a900463ffffffff1663ffffffff16815260200190600401906020826003010492830192600103820291508084116111485790505b505050505091508080548060200260200160405190810160405280929190818152602001828054801561120357602002820191906000526020600020906000905b82829054906101000a900463ffffffff1663ffffffff16815260200190600401906020826003010492830192600103820291508084116111c65790505b50505050509050935093509350509193909250565b600080600080600080600080600080600060020160008c815260200190815260200160002090508060000160039054906101000a900460ff168160000160009054906101000a900460ff168260000160029054906101000a900460ff168360000160049054906101000a900460ff168460000160059054906101000a900460ff168560000160069054906101000a900460ff168660000160019054906101000a900460ff168760000160079054906101000a900460ff168860000160089054906101000a900460ff16995099509950995099509950995099509950509193959799909294969850565b600061131461130f84611a38565b611a13565b9050808382526020820190508285602086028201111561133357600080fd5b60005b85811015611363578161134988826113ac565b845260208401935060208301925050600181019050611336565b5050509392505050565b60008151905061137c81611e96565b92915050565b600082601f83011261139357600080fd5b81356113a3848260208601611301565b91505092915050565b6000813590506113bb81611ead565b92915050565b6000602082840312156113d357600080fd5b60006113e18482850161136d565b91505092915050565b6000602082840312156113fc57600080fd5b600061140a848285016113ac565b91505092915050565b6000806000806080858703121561142957600080fd5b6000611437878288016113ac565b9450506020611448878288016113ac565b935050604085013567ffffffffffffffff81111561146557600080fd5b61147187828801611382565b925050606085013567ffffffffffffffff81111561148e57600080fd5b61149a87828801611382565b91505092959194509250565b60006114b283836116de565b60208301905092915050565b60006114ca83836116fc565b60208301905092915050565b6114df81611b6a565b82525050565b60006114f082611a84565b6114fa8185611abf565b935061150583611a64565b8060005b8381101561153657815161151d88826114a6565b975061152883611aa5565b925050600181019050611509565b5085935050505092915050565b600061154e82611a8f565b6115588185611ad0565b935061156383611a74565b8060005b8381101561159457815161157b88826114be565b975061158683611ab2565b925050600181019050611567565b5085935050505092915050565b6115aa81611b7c565b82525050565b60006115bb82611a9a565b6115c58185611ae1565b93506115d5818560208601611bd0565b6115de81611d66565b840191505092915050565b60006115f6600983611ae1565b915061160182611d77565b602082019050919050565b6000611619601983611ae1565b915061162482611da0565b602082019050919050565b600061163c600a83611ae1565b915061164782611dc9565b602082019050919050565b600061165f601283611ae1565b915061166a82611df2565b602082019050919050565b6000611682600983611ae1565b915061168d82611e1b565b602082019050919050565b60006116a5601a83611ae1565b91506116b082611e44565b602082019050919050565b60006116c8600b83611ae1565b91506116d382611e6d565b602082019050919050565b6116e781611ba9565b82525050565b6116f681611ba9565b82525050565b61170581611bb3565b82525050565b61171481611bc3565b82525050565b600060608201905061172f60008301866114d6565b818103602083015261174181856114e5565b9050818103604083015261175581846114e5565b9050949350505050565b600060608201905061177460008301866114d6565b61178160208301856116ed565b61178e60408301846116ed565b949350505050565b600060608201905081810360008301526117b08186611543565b905081810360208301526117c48185611543565b905081810360408301526117d88184611543565b9050949350505050565b60006101208201905081810360008301526117fd818c6115b0565b90508181036020830152611811818b611543565b90508181036040830152611825818a611543565b905081810360608301526118398189611543565b905061184860808301886115a1565b61185560a08301876115a1565b61186260c08301866115a1565b61186f60e08301856115a1565b61187d6101008301846115a1565b9a9950505050505050505050565b600060208201905081810360008301526118a4816115e9565b9050919050565b600060208201905081810360008301526118c48161160c565b9050919050565b600060208201905081810360008301526118e48161162f565b9050919050565b6000602082019050818103600083015261190481611652565b9050919050565b6000602082019050818103600083015261192481611675565b9050919050565b6000602082019050818103600083015261194481611698565b9050919050565b60006020820190508181036000830152611964816116bb565b9050919050565b600060208201905061198060008301846116ed565b92915050565b60006101208201905061199c600083018c61170b565b6119a9602083018b61170b565b6119b6604083018a61170b565b6119c3606083018961170b565b6119d0608083018861170b565b6119dd60a083018761170b565b6119ea60c083018661170b565b6119f760e083018561170b565b611a0561010083018461170b565b9a9950505050505050505050565b6000611a1d611a2e565b9050611a298282611c35565b919050565b6000604051905090565b600067ffffffffffffffff821115611a5357611a52611d37565b5b602082029050602081019050919050565b6000819050602082019050919050565b6000819050602082019050919050565b600081519050919050565b600081519050919050565b600081519050919050565b6000602082019050919050565b6000602082019050919050565b600082825260208201905092915050565b600082825260208201905092915050565b600082825260208201905092915050565b6000611afd82611b7c565b9150611b0883611b7c565b925081637fffffff03831360008312151615611b2757611b26611cd9565b5b817fffffffffffffffffffffffffffffffffffffffffffffffffffffffff80000000038312600083121615611b5f57611b5e611cd9565b5b828201905092915050565b6000611b7582611b89565b9050919050565b60008160030b9050919050565b600073ffffffffffffffffffffffffffffffffffffffff82169050919050565b6000819050919050565b600063ffffffff82169050919050565b600060ff82169050919050565b60005b83811015611bee578082015181840152602081019050611bd3565b83811115611bfd576000848401525b50505050565b60006002820490506001821680611c1b57607f821691505b60208210811415611c2f57611c2e611d08565b5b50919050565b611c3e82611d66565b810181811067ffffffffffffffff82111715611c5d57611c5c611d37565b5b80604052505050565b6000611c7182611ba9565b91507fffffffffffffffffffffffffffffffffffffffffffffffffffffffffffffffff821415611ca457611ca3611cd9565b5b600182019050919050565b6000611cba82611bc3565b915060ff821415611cce57611ccd611cd9565b5b600182019050919050565b7f4e487b7100000000000000000000000000000000000000000000000000000000600052601160045260246000fd5b7f4e487b7100000000000000000000000000000000000000000000000000000000600052602260045260246000fd5b7f4e487b7100000000000000000000000000000000000000000000000000000000600052604160045260246000fd5b6000601f19601f8301169050919050565b7f4e4f5f4349544945530000000000000000000000000000000000000000000000600082015250565b7f596f7520646f206e6f74206f776e2074686973205265616c6d00000000000000600082015250565b7f4e4f5f524547494f4e5300000000000000000000000000000000000000000000600082015250565b7f496e636f7272656374207265736f757263650000000000000000000000000000600082015250565b7f4e4f5f5249564552530000000000000000000000000000000000000000000000600082015250565b7f496e636f7272656374207265736f75726365732076616c756573000000000000600082015250565b7f4e4f5f484152424f555253000000000000000000000000000000000000000000600082015250565b611e9f81611b6a565b8114611eaa57600080fd5b50565b611eb681611ba9565b8114611ec157600080fd5b5056fea264697066735822122082526a0e5eec66512d1cb4106d39a09445bb91f9ab3903fe4db8db41a6e6de5a64736f6c63430008030033",
  "devdoc": {
    "kind": "dev",
    "methods": {},
    "version": 1
  },
  "userdoc": {
    "kind": "user",
    "methods": {},
    "version": 1
  },
  "storageLayout": {
    "storage": [
      {
        "astId": 1703,
        "contract": "contracts/settling/facets/TraitConstructionFacet.sol:TraitConstructionFacet",
        "label": "s",
        "offset": 0,
        "slot": "0",
        "type": "t_struct(AppStorage)707_storage"
      }
    ],
    "types": {
      "t_address": {
        "encoding": "inplace",
        "label": "address",
        "numberOfBytes": "20"
      },
      "t_array(t_uint256)dyn_storage": {
        "base": "t_uint256",
        "encoding": "dynamic_array",
        "label": "uint256[]",
        "numberOfBytes": "32"
      },
      "t_array(t_uint32)dyn_storage": {
        "base": "t_uint32",
        "encoding": "dynamic_array",
        "label": "uint32[]",
        "numberOfBytes": "32"
      },
      "t_array(t_uint8)dyn_storage": {
        "base": "t_uint8",
        "encoding": "dynamic_array",
        "label": "uint8[]",
        "numberOfBytes": "32"
      },
      "t_int32": {
        "encoding": "inplace",
        "label": "int32",
        "numberOfBytes": "4"
      },
      "t_mapping(t_uint256,t_struct(BuildingCosts)809_storage)": {
        "encoding": "mapping",
        "key": "t_uint256",
        "label": "mapping(uint256 => struct BuildingCosts)",
        "numberOfBytes": "32",
        "value": "t_struct(BuildingCosts)809_storage"
      },
      "t_mapping(t_uint256,t_struct(BuildingUpgradeCosts)818_storage)": {
        "encoding": "mapping",
        "key": "t_uint256",
        "label": "mapping(uint256 => struct BuildingUpgradeCosts)",
        "numberOfBytes": "32",
        "value": "t_struct(BuildingUpgradeCosts)818_storage"
      },
      "t_mapping(t_uint256,t_struct(LevelProduction)821_storage)": {
        "encoding": "mapping",
        "key": "t_uint256",
        "label": "mapping(uint256 => struct LevelProduction)",
        "numberOfBytes": "32",
        "value": "t_struct(LevelProduction)821_storage"
      },
      "t_mapping(t_uint256,t_struct(RealmBuildings)787_storage)": {
        "encoding": "mapping",
        "key": "t_uint256",
        "label": "mapping(uint256 => struct RealmBuildings)",
        "numberOfBytes": "32",
        "value": "t_struct(RealmBuildings)787_storage"
      },
      "t_mapping(t_uint256,t_struct(RealmInfo)756_storage)": {
        "encoding": "mapping",
        "key": "t_uint256",
        "label": "mapping(uint256 => struct RealmInfo)",
        "numberOfBytes": "32",
        "value": "t_struct(RealmInfo)756_storage"
      },
      "t_mapping(t_uint256,t_struct(RealmStatistics)725_storage)": {
        "encoding": "mapping",
        "key": "t_uint256",
        "label": "mapping(uint256 => struct RealmStatistics)",
        "numberOfBytes": "32",
        "value": "t_struct(RealmStatistics)725_storage"
      },
      "t_mapping(t_uint256,t_struct(ResourceInfo)763_storage)": {
        "encoding": "mapping",
        "key": "t_uint256",
        "label": "mapping(uint256 => struct ResourceInfo)",
        "numberOfBytes": "32",
        "value": "t_struct(ResourceInfo)763_storage"
      },
      "t_mapping(t_uint256,t_struct(TheAges)714_storage)": {
        "encoding": "mapping",
        "key": "t_uint256",
        "label": "mapping(uint256 => struct TheAges)",
        "numberOfBytes": "32",
        "value": "t_struct(TheAges)714_storage"
      },
      "t_mapping(t_uint256,t_struct(UpgradeCostLevels)834_storage)": {
        "encoding": "mapping",
        "key": "t_uint256",
        "label": "mapping(uint256 => struct UpgradeCostLevels)",
        "numberOfBytes": "32",
        "value": "t_struct(UpgradeCostLevels)834_storage"
      },
      "t_mapping(t_uint256,t_struct(UpgradeCosts)830_storage)": {
        "encoding": "mapping",
        "key": "t_uint256",
        "label": "mapping(uint256 => struct UpgradeCosts)",
        "numberOfBytes": "32",
        "value": "t_struct(UpgradeCosts)830_storage"
      },
      "t_string_storage": {
        "encoding": "bytes",
        "label": "string",
        "numberOfBytes": "32"
      },
      "t_struct(AppStorage)707_storage": {
        "encoding": "inplace",
        "label": "struct AppStorage",
        "members": [
          {
            "astId": 653,
            "contract": "contracts/settling/facets/TraitConstructionFacet.sol:TraitConstructionFacet",
            "label": "realmInfo",
            "offset": 0,
            "slot": "0",
            "type": "t_mapping(t_uint256,t_struct(RealmInfo)756_storage)"
          },
          {
            "astId": 658,
            "contract": "contracts/settling/facets/TraitConstructionFacet.sol:TraitConstructionFacet",
            "label": "realmStatistics",
            "offset": 0,
            "slot": "1",
            "type": "t_mapping(t_uint256,t_struct(RealmStatistics)725_storage)"
          },
          {
            "astId": 663,
            "contract": "contracts/settling/facets/TraitConstructionFacet.sol:TraitConstructionFacet",
            "label": "realmBuildings",
            "offset": 0,
            "slot": "2",
            "type": "t_mapping(t_uint256,t_struct(RealmBuildings)787_storage)"
          },
          {
            "astId": 665,
            "contract": "contracts/settling/facets/TraitConstructionFacet.sol:TraitConstructionFacet",
            "label": "baseProductionRate",
            "offset": 0,
            "slot": "3",
            "type": "t_uint8"
          },
          {
            "astId": 667,
            "contract": "contracts/settling/facets/TraitConstructionFacet.sol:TraitConstructionFacet",
            "label": "maxProductionRate",
            "offset": 1,
            "slot": "3",
            "type": "t_uint8"
          },
          {
            "astId": 669,
            "contract": "contracts/settling/facets/TraitConstructionFacet.sol:TraitConstructionFacet",
            "label": "sRealms",
            "offset": 2,
            "slot": "3",
            "type": "t_address"
          },
          {
            "astId": 671,
            "contract": "contracts/settling/facets/TraitConstructionFacet.sol:TraitConstructionFacet",
            "label": "realms",
            "offset": 0,
            "slot": "4",
            "type": "t_address"
          },
          {
            "astId": 673,
            "contract": "contracts/settling/facets/TraitConstructionFacet.sol:TraitConstructionFacet",
            "label": "treasury",
            "offset": 0,
            "slot": "5",
            "type": "t_address"
          },
          {
            "astId": 675,
            "contract": "contracts/settling/facets/TraitConstructionFacet.sol:TraitConstructionFacet",
            "label": "resources",
            "offset": 0,
            "slot": "6",
            "type": "t_address"
          },
          {
            "astId": 677,
            "contract": "contracts/settling/facets/TraitConstructionFacet.sol:TraitConstructionFacet",
            "label": "oracle",
            "offset": 0,
            "slot": "7",
            "type": "t_address"
          },
          {
            "astId": 679,
            "contract": "contracts/settling/facets/TraitConstructionFacet.sol:TraitConstructionFacet",
            "label": "lords",
            "offset": 0,
            "slot": "8",
            "type": "t_address"
          },
          {
            "astId": 684,
            "contract": "contracts/settling/facets/TraitConstructionFacet.sol:TraitConstructionFacet",
            "label": "levelProduction",
            "offset": 0,
            "slot": "9",
            "type": "t_mapping(t_uint256,t_struct(LevelProduction)821_storage)"
          },
          {
            "astId": 689,
            "contract": "contracts/settling/facets/TraitConstructionFacet.sol:TraitConstructionFacet",
            "label": "upgradeCosts",
            "offset": 0,
            "slot": "10",
            "type": "t_mapping(t_uint256,t_struct(UpgradeCosts)830_storage)"
          },
          {
            "astId": 694,
            "contract": "contracts/settling/facets/TraitConstructionFacet.sol:TraitConstructionFacet",
            "label": "buildingUpgradeCosts",
            "offset": 0,
            "slot": "11",
            "type": "t_mapping(t_uint256,t_struct(BuildingUpgradeCosts)818_storage)"
          },
          {
            "astId": 699,
            "contract": "contracts/settling/facets/TraitConstructionFacet.sol:TraitConstructionFacet",
            "label": "buildingCosts",
            "offset": 0,
            "slot": "12",
            "type": "t_mapping(t_uint256,t_struct(BuildingCosts)809_storage)"
          },
          {
            "astId": 704,
            "contract": "contracts/settling/facets/TraitConstructionFacet.sol:TraitConstructionFacet",
            "label": "theAges",
            "offset": 0,
            "slot": "13",
            "type": "t_mapping(t_uint256,t_struct(TheAges)714_storage)"
          },
          {
            "astId": 706,
            "contract": "contracts/settling/facets/TraitConstructionFacet.sol:TraitConstructionFacet",
            "label": "genesisTime",
            "offset": 0,
            "slot": "14",
            "type": "t_uint256"
          }
        ],
        "numberOfBytes": "480"
      },
      "t_struct(BuildingCosts)809_storage": {
        "encoding": "inplace",
        "label": "struct BuildingCosts",
        "members": [
          {
            "astId": 789,
            "contract": "contracts/settling/facets/TraitConstructionFacet.sol:TraitConstructionFacet",
            "label": "name",
            "offset": 0,
            "slot": "0",
            "type": "t_string_storage"
          },
          {
            "astId": 792,
            "contract": "contracts/settling/facets/TraitConstructionFacet.sol:TraitConstructionFacet",
            "label": "resourceIds",
            "offset": 0,
            "slot": "1",
            "type": "t_array(t_uint32)dyn_storage"
          },
          {
            "astId": 795,
            "contract": "contracts/settling/facets/TraitConstructionFacet.sol:TraitConstructionFacet",
            "label": "resourceValues",
            "offset": 0,
            "slot": "2",
            "type": "t_array(t_uint32)dyn_storage"
          },
          {
            "astId": 798,
            "contract": "contracts/settling/facets/TraitConstructionFacet.sol:TraitConstructionFacet",
            "label": "requirements",
            "offset": 0,
            "slot": "3",
            "type": "t_array(t_uint32)dyn_storage"
          },
          {
            "astId": 800,
            "contract": "contracts/settling/facets/TraitConstructionFacet.sol:TraitConstructionFacet",
            "label": "defence",
            "offset": 0,
            "slot": "4",
            "type": "t_int32"
          },
          {
            "astId": 802,
            "contract": "contracts/settling/facets/TraitConstructionFacet.sol:TraitConstructionFacet",
            "label": "offence",
            "offset": 4,
            "slot": "4",
            "type": "t_int32"
          },
          {
            "astId": 804,
            "contract": "contracts/settling/facets/TraitConstructionFacet.sol:TraitConstructionFacet",
            "label": "magic",
            "offset": 8,
            "slot": "4",
            "type": "t_int32"
          },
          {
            "astId": 806,
            "contract": "contracts/settling/facets/TraitConstructionFacet.sol:TraitConstructionFacet",
            "label": "population",
            "offset": 12,
            "slot": "4",
            "type": "t_int32"
          },
          {
            "astId": 808,
            "contract": "contracts/settling/facets/TraitConstructionFacet.sol:TraitConstructionFacet",
            "label": "food",
            "offset": 16,
            "slot": "4",
            "type": "t_int32"
          }
        ],
        "numberOfBytes": "160"
      },
      "t_struct(BuildingUpgradeCosts)818_storage": {
        "encoding": "inplace",
        "label": "struct BuildingUpgradeCosts",
        "members": [
          {
            "astId": 812,
            "contract": "contracts/settling/facets/TraitConstructionFacet.sol:TraitConstructionFacet",
            "label": "realmBuildings",
            "offset": 0,
            "slot": "0",
            "type": "t_array(t_uint8)dyn_storage"
          },
          {
            "astId": 817,
            "contract": "contracts/settling/facets/TraitConstructionFacet.sol:TraitConstructionFacet",
            "label": "buildingCosts",
            "offset": 0,
            "slot": "1",
            "type": "t_mapping(t_uint256,t_struct(BuildingCosts)809_storage)"
          }
        ],
        "numberOfBytes": "64"
      },
      "t_struct(LevelProduction)821_storage": {
        "encoding": "inplace",
        "label": "struct LevelProduction",
        "members": [
          {
            "astId": 820,
            "contract": "contracts/settling/facets/TraitConstructionFacet.sol:TraitConstructionFacet",
            "label": "output",
            "offset": 0,
            "slot": "0",
            "type": "t_uint8"
          }
        ],
        "numberOfBytes": "32"
      },
      "t_struct(RealmBuildings)787_storage": {
        "encoding": "inplace",
        "label": "struct RealmBuildings",
        "members": [
          {
            "astId": 770,
            "contract": "contracts/settling/facets/TraitConstructionFacet.sol:TraitConstructionFacet",
            "label": "aquaducts",
            "offset": 0,
            "slot": "0",
            "type": "t_uint8"
          },
          {
            "astId": 772,
            "contract": "contracts/settling/facets/TraitConstructionFacet.sol:TraitConstructionFacet",
            "label": "temples",
            "offset": 1,
            "slot": "0",
            "type": "t_uint8"
          },
          {
            "astId": 774,
            "contract": "contracts/settling/facets/TraitConstructionFacet.sol:TraitConstructionFacet",
            "label": "castles",
            "offset": 2,
            "slot": "0",
            "type": "t_uint8"
          },
          {
            "astId": 776,
            "contract": "contracts/settling/facets/TraitConstructionFacet.sol:TraitConstructionFacet",
            "label": "markets",
            "offset": 3,
            "slot": "0",
            "type": "t_uint8"
          },
          {
            "astId": 778,
            "contract": "contracts/settling/facets/TraitConstructionFacet.sol:TraitConstructionFacet",
            "label": "ports",
            "offset": 4,
            "slot": "0",
            "type": "t_uint8"
          },
          {
            "astId": 780,
            "contract": "contracts/settling/facets/TraitConstructionFacet.sol:TraitConstructionFacet",
            "label": "barracks",
            "offset": 5,
            "slot": "0",
            "type": "t_uint8"
          },
          {
            "astId": 782,
            "contract": "contracts/settling/facets/TraitConstructionFacet.sol:TraitConstructionFacet",
            "label": "farms",
            "offset": 6,
            "slot": "0",
            "type": "t_uint8"
          },
          {
            "astId": 784,
            "contract": "contracts/settling/facets/TraitConstructionFacet.sol:TraitConstructionFacet",
            "label": "shipyard",
            "offset": 7,
            "slot": "0",
            "type": "t_uint8"
          },
          {
            "astId": 786,
            "contract": "contracts/settling/facets/TraitConstructionFacet.sol:TraitConstructionFacet",
            "label": "fishingVillage",
            "offset": 8,
            "slot": "0",
            "type": "t_uint8"
          }
        ],
        "numberOfBytes": "32"
      },
      "t_struct(RealmInfo)756_storage": {
        "encoding": "inplace",
        "label": "struct RealmInfo",
        "members": [
          {
            "astId": 727,
            "contract": "contracts/settling/facets/TraitConstructionFacet.sol:TraitConstructionFacet",
            "label": "name",
            "offset": 0,
            "slot": "0",
            "type": "t_string_storage"
          },
          {
            "astId": 729,
            "contract": "contracts/settling/facets/TraitConstructionFacet.sol:TraitConstructionFacet",
            "label": "lastUpdateAt",
            "offset": 0,
            "slot": "1",
            "type": "t_uint256"
          },
          {
            "astId": 731,
            "contract": "contracts/settling/facets/TraitConstructionFacet.sol:TraitConstructionFacet",
            "label": "vestedTimeUpdatedAt",
            "offset": 0,
            "slot": "2",
            "type": "t_uint256"
          },
          {
            "astId": 733,
            "contract": "contracts/settling/facets/TraitConstructionFacet.sol:TraitConstructionFacet",
            "label": "ageSettled",
            "offset": 0,
            "slot": "3",
            "type": "t_uint256"
          },
          {
            "astId": 735,
            "contract": "contracts/settling/facets/TraitConstructionFacet.sol:TraitConstructionFacet",
            "label": "ageClaimed",
            "offset": 0,
            "slot": "4",
            "type": "t_uint256"
          },
          {
            "astId": 738,
            "contract": "contracts/settling/facets/TraitConstructionFacet.sol:TraitConstructionFacet",
            "label": "resourceIds",
            "offset": 0,
            "slot": "5",
            "type": "t_array(t_uint256)dyn_storage"
          },
          {
            "astId": 740,
            "contract": "contracts/settling/facets/TraitConstructionFacet.sol:TraitConstructionFacet",
            "label": "cities",
            "offset": 0,
            "slot": "6",
            "type": "t_uint8"
          },
          {
            "astId": 742,
            "contract": "contracts/settling/facets/TraitConstructionFacet.sol:TraitConstructionFacet",
            "label": "harbours",
            "offset": 1,
            "slot": "6",
            "type": "t_uint8"
          },
          {
            "astId": 744,
            "contract": "contracts/settling/facets/TraitConstructionFacet.sol:TraitConstructionFacet",
            "label": "rivers",
            "offset": 2,
            "slot": "6",
            "type": "t_uint8"
          },
          {
            "astId": 746,
            "contract": "contracts/settling/facets/TraitConstructionFacet.sol:TraitConstructionFacet",
            "label": "regions",
            "offset": 3,
            "slot": "6",
            "type": "t_uint8"
          },
          {
            "astId": 748,
            "contract": "contracts/settling/facets/TraitConstructionFacet.sol:TraitConstructionFacet",
            "label": "wonders",
            "offset": 4,
            "slot": "6",
            "type": "t_uint8"
          },
          {
            "astId": 750,
            "contract": "contracts/settling/facets/TraitConstructionFacet.sol:TraitConstructionFacet",
            "label": "orderOf",
            "offset": 5,
            "slot": "6",
            "type": "t_uint8"
          },
          {
            "astId": 755,
            "contract": "contracts/settling/facets/TraitConstructionFacet.sol:TraitConstructionFacet",
            "label": "resourceInfo",
            "offset": 0,
            "slot": "7",
            "type": "t_mapping(t_uint256,t_struct(ResourceInfo)763_storage)"
          }
        ],
        "numberOfBytes": "256"
      },
      "t_struct(RealmStatistics)725_storage": {
        "encoding": "inplace",
        "label": "struct RealmStatistics",
        "members": [
          {
            "astId": 716,
            "contract": "contracts/settling/facets/TraitConstructionFacet.sol:TraitConstructionFacet",
            "label": "realmDefence",
            "offset": 0,
            "slot": "0",
            "type": "t_int32"
          },
          {
            "astId": 718,
            "contract": "contracts/settling/facets/TraitConstructionFacet.sol:TraitConstructionFacet",
            "label": "realmOffence",
            "offset": 4,
            "slot": "0",
            "type": "t_int32"
          },
          {
            "astId": 720,
            "contract": "contracts/settling/facets/TraitConstructionFacet.sol:TraitConstructionFacet",
            "label": "realmMagic",
            "offset": 8,
            "slot": "0",
            "type": "t_int32"
          },
          {
            "astId": 722,
            "contract": "contracts/settling/facets/TraitConstructionFacet.sol:TraitConstructionFacet",
            "label": "foodSupply",
            "offset": 12,
            "slot": "0",
            "type": "t_int32"
          },
          {
            "astId": 724,
            "contract": "contracts/settling/facets/TraitConstructionFacet.sol:TraitConstructionFacet",
            "label": "population",
            "offset": 16,
            "slot": "0",
            "type": "t_int32"
          }
        ],
        "numberOfBytes": "32"
      },
      "t_struct(ResourceInfo)763_storage": {
        "encoding": "inplace",
        "label": "struct ResourceInfo",
        "members": [
          {
            "astId": 758,
            "contract": "contracts/settling/facets/TraitConstructionFacet.sol:TraitConstructionFacet",
            "label": "id",
            "offset": 0,
            "slot": "0",
            "type": "t_uint8"
          },
          {
            "astId": 760,
            "contract": "contracts/settling/facets/TraitConstructionFacet.sol:TraitConstructionFacet",
            "label": "level",
            "offset": 1,
            "slot": "0",
            "type": "t_uint8"
          },
          {
            "astId": 762,
            "contract": "contracts/settling/facets/TraitConstructionFacet.sol:TraitConstructionFacet",
            "label": "production",
            "offset": 2,
            "slot": "0",
            "type": "t_uint8"
          }
        ],
        "numberOfBytes": "32"
      },
      "t_struct(TheAges)714_storage": {
        "encoding": "inplace",
        "label": "struct TheAges",
        "members": [
          {
            "astId": 709,
            "contract": "contracts/settling/facets/TraitConstructionFacet.sol:TraitConstructionFacet",
            "label": "settledRealms",
            "offset": 0,
            "slot": "0",
            "type": "t_uint256"
          },
          {
            "astId": 711,
            "contract": "contracts/settling/facets/TraitConstructionFacet.sol:TraitConstructionFacet",
            "label": "ageStart",
            "offset": 0,
            "slot": "1",
            "type": "t_uint256"
          },
          {
            "astId": 713,
            "contract": "contracts/settling/facets/TraitConstructionFacet.sol:TraitConstructionFacet",
            "label": "ageFinish",
            "offset": 0,
            "slot": "2",
            "type": "t_uint256"
          }
        ],
        "numberOfBytes": "96"
      },
      "t_struct(UpgradeCostLevels)834_storage": {
        "encoding": "inplace",
        "label": "struct UpgradeCostLevels",
        "members": [
          {
            "astId": 833,
            "contract": "contracts/settling/facets/TraitConstructionFacet.sol:TraitConstructionFacet",
            "label": "value",
            "offset": 0,
            "slot": "0",
            "type": "t_array(t_uint256)dyn_storage"
          }
        ],
        "numberOfBytes": "32"
      },
      "t_struct(UpgradeCosts)830_storage": {
        "encoding": "inplace",
        "label": "struct UpgradeCosts",
        "members": [
          {
            "astId": 824,
            "contract": "contracts/settling/facets/TraitConstructionFacet.sol:TraitConstructionFacet",
            "label": "resourceIds",
            "offset": 0,
            "slot": "0",
            "type": "t_array(t_uint8)dyn_storage"
          },
          {
            "astId": 829,
            "contract": "contracts/settling/facets/TraitConstructionFacet.sol:TraitConstructionFacet",
            "label": "upgradeCostLevels",
            "offset": 0,
            "slot": "1",
            "type": "t_mapping(t_uint256,t_struct(UpgradeCostLevels)834_storage)"
          }
        ],
        "numberOfBytes": "64"
      },
      "t_uint256": {
        "encoding": "inplace",
        "label": "uint256",
        "numberOfBytes": "32"
      },
      "t_uint32": {
        "encoding": "inplace",
        "label": "uint32",
        "numberOfBytes": "4"
      },
      "t_uint8": {
        "encoding": "inplace",
        "label": "uint8",
        "numberOfBytes": "1"
      }
    }
  }
}